{
  "_format": "hh-sol-artifact-1",
  "contractName": "StableVault",
  "sourceName": "contracts/StableVault.sol",
  "abi": [
    {
      "inputs": [
        {
          "internalType": "address",
          "name": "admin",
          "type": "address"
        },
        {
          "internalType": "string",
          "name": "tokenName",
          "type": "string"
        },
        {
          "internalType": "string",
          "name": "tokenSymbol",
          "type": "string"
        }
      ],
      "stateMutability": "nonpayable",
      "type": "constructor"
    },
    {
      "anonymous": false,
      "inputs": [
        {
          "indexed": true,
          "internalType": "address",
          "name": "owner",
          "type": "address"
        },
        {
          "indexed": true,
          "internalType": "address",
          "name": "spender",
          "type": "address"
        },
        {
          "indexed": false,
          "internalType": "uint256",
          "name": "value",
          "type": "uint256"
        }
      ],
      "name": "Approval",
      "type": "event"
    },
    {
      "anonymous": false,
      "inputs": [
        {
          "indexed": false,
          "internalType": "uint256",
          "name": "_vaultBalance",
          "type": "uint256"
        }
      ],
      "name": "BalanceUpdated",
      "type": "event"
    },
    {
      "anonymous": false,
      "inputs": [
        {
          "indexed": true,
          "internalType": "address",
          "name": "user",
          "type": "address"
        },
        {
          "indexed": false,
          "internalType": "address",
          "name": "asset",
          "type": "address"
        },
        {
          "indexed": false,
          "internalType": "uint256",
          "name": "amount",
          "type": "uint256"
        }
      ],
      "name": "DepositSpark",
      "type": "event"
    },
    {
      "anonymous": false,
      "inputs": [
        {
          "indexed": true,
          "internalType": "address",
          "name": "new_admin",
          "type": "address"
        }
      ],
      "name": "NewAdminAdded",
      "type": "event"
    },
    {
      "anonymous": false,
      "inputs": [
        {
          "indexed": true,
          "internalType": "address",
          "name": "profile",
          "type": "address"
        }
      ],
      "name": "NewProfileAdded",
      "type": "event"
    },
    {
      "anonymous": false,
      "inputs": [
        {
          "indexed": false,
          "internalType": "address",
          "name": "account",
          "type": "address"
        }
      ],
      "name": "Paused",
      "type": "event"
    },
    {
      "anonymous": false,
      "inputs": [
        {
          "indexed": true,
          "internalType": "address",
          "name": "removed_admin",
          "type": "address"
        }
      ],
      "name": "RemovedAdmin",
      "type": "event"
    },
    {
      "anonymous": false,
      "inputs": [
        {
          "indexed": true,
          "internalType": "bytes32",
          "name": "role",
          "type": "bytes32"
        },
        {
          "indexed": true,
          "internalType": "bytes32",
          "name": "previousAdminRole",
          "type": "bytes32"
        },
        {
          "indexed": true,
          "internalType": "bytes32",
          "name": "newAdminRole",
          "type": "bytes32"
        }
      ],
      "name": "RoleAdminChanged",
      "type": "event"
    },
    {
      "anonymous": false,
      "inputs": [
        {
          "indexed": true,
          "internalType": "bytes32",
          "name": "role",
          "type": "bytes32"
        },
        {
          "indexed": true,
          "internalType": "address",
          "name": "account",
          "type": "address"
        },
        {
          "indexed": true,
          "internalType": "address",
          "name": "sender",
          "type": "address"
        }
      ],
      "name": "RoleGranted",
      "type": "event"
    },
    {
      "anonymous": false,
      "inputs": [
        {
          "indexed": true,
          "internalType": "bytes32",
          "name": "role",
          "type": "bytes32"
        },
        {
          "indexed": true,
          "internalType": "address",
          "name": "account",
          "type": "address"
        },
        {
          "indexed": true,
          "internalType": "address",
          "name": "sender",
          "type": "address"
        }
      ],
      "name": "RoleRevoked",
      "type": "event"
    },
    {
      "anonymous": false,
      "inputs": [
        {
          "indexed": true,
          "internalType": "address",
          "name": "from",
          "type": "address"
        },
        {
          "indexed": true,
          "internalType": "address",
          "name": "to",
          "type": "address"
        },
        {
          "indexed": false,
          "internalType": "uint256",
          "name": "value",
          "type": "uint256"
        }
      ],
      "name": "Transfer",
      "type": "event"
    },
    {
      "anonymous": false,
      "inputs": [
        {
          "indexed": false,
          "internalType": "address",
          "name": "account",
          "type": "address"
        }
      ],
      "name": "Unpaused",
      "type": "event"
    },
    {
      "anonymous": false,
      "inputs": [
        {
          "indexed": true,
          "internalType": "address",
          "name": "user",
          "type": "address"
        },
        {
          "indexed": false,
          "internalType": "uint256",
          "name": "amount",
          "type": "uint256"
        },
        {
          "indexed": true,
          "internalType": "address",
          "name": "asset",
          "type": "address"
        }
      ],
      "name": "Withdrawal",
      "type": "event"
    },
    {
      "inputs": [],
      "name": "CHANGE_PARAMETERS",
      "outputs": [
        {
          "internalType": "bytes32",
          "name": "",
          "type": "bytes32"
        }
      ],
      "stateMutability": "view",
      "type": "function"
    },
    {
      "inputs": [],
      "name": "DEFAULT_ADMIN_ROLE",
      "outputs": [
        {
          "internalType": "bytes32",
          "name": "",
          "type": "bytes32"
        }
      ],
      "stateMutability": "view",
      "type": "function"
    },
    {
      "inputs": [
        {
          "internalType": "address",
          "name": "account",
          "type": "address"
        }
      ],
      "name": "addAdmin",
      "outputs": [],
      "stateMutability": "nonpayable",
      "type": "function"
    },
    {
      "inputs": [
        {
          "internalType": "address",
          "name": "account",
          "type": "address"
        }
      ],
      "name": "addProfile",
      "outputs": [],
      "stateMutability": "nonpayable",
      "type": "function"
    },
    {
      "inputs": [
        {
          "internalType": "address",
          "name": "owner",
          "type": "address"
        },
        {
          "internalType": "address",
          "name": "spender",
          "type": "address"
        }
      ],
      "name": "allowance",
      "outputs": [
        {
          "internalType": "uint256",
          "name": "",
          "type": "uint256"
        }
      ],
      "stateMutability": "view",
      "type": "function"
    },
    {
      "inputs": [
        {
          "internalType": "address",
          "name": "spender",
          "type": "address"
        },
        {
          "internalType": "uint256",
          "name": "amount",
          "type": "uint256"
        }
      ],
      "name": "approve",
      "outputs": [
        {
          "internalType": "bool",
          "name": "",
          "type": "bool"
        }
      ],
      "stateMutability": "nonpayable",
      "type": "function"
    },
    {
      "inputs": [
        {
          "internalType": "address",
          "name": "account",
          "type": "address"
        }
      ],
      "name": "balanceOf",
      "outputs": [
        {
          "internalType": "uint256",
          "name": "",
          "type": "uint256"
        }
      ],
      "stateMutability": "view",
      "type": "function"
    },
    {
      "inputs": [],
      "name": "decimals",
      "outputs": [
        {
          "internalType": "uint8",
          "name": "",
          "type": "uint8"
        }
      ],
      "stateMutability": "view",
      "type": "function"
    },
    {
      "inputs": [
        {
          "internalType": "address",
          "name": "spender",
          "type": "address"
        },
        {
          "internalType": "uint256",
          "name": "subtractedValue",
          "type": "uint256"
        }
      ],
      "name": "decreaseAllowance",
      "outputs": [
        {
          "internalType": "bool",
          "name": "",
          "type": "bool"
        }
      ],
      "stateMutability": "nonpayable",
      "type": "function"
    },
    {
      "inputs": [
        {
          "internalType": "uint256",
          "name": "amount",
          "type": "uint256"
        },
        {
          "internalType": "address",
          "name": "_asset",
          "type": "address"
        },
        {
          "internalType": "address",
          "name": "_beneficiary",
          "type": "address"
        }
      ],
      "name": "deposit",
      "outputs": [
        {
          "internalType": "bool",
          "name": "",
          "type": "bool"
        }
      ],
      "stateMutability": "nonpayable",
      "type": "function"
    },
    {
      "inputs": [],
      "name": "getChainID",
      "outputs": [
        {
          "internalType": "uint256",
          "name": "",
          "type": "uint256"
        }
      ],
      "stateMutability": "view",
      "type": "function"
    },
    {
      "inputs": [
        {
          "internalType": "bytes32",
          "name": "role",
          "type": "bytes32"
        }
      ],
      "name": "getRoleAdmin",
      "outputs": [
        {
          "internalType": "bytes32",
          "name": "",
          "type": "bytes32"
        }
      ],
      "stateMutability": "view",
      "type": "function"
    },
    {
      "inputs": [
        {
          "internalType": "address",
          "name": "_asset",
          "type": "address"
        }
      ],
      "name": "getSparkBalance",
      "outputs": [
        {
          "internalType": "uint256",
          "name": "",
          "type": "uint256"
        }
      ],
      "stateMutability": "view",
      "type": "function"
    },
    {
      "inputs": [
        {
          "internalType": "bytes32",
          "name": "role",
          "type": "bytes32"
        },
        {
          "internalType": "address",
          "name": "account",
          "type": "address"
        }
      ],
      "name": "grantRole",
      "outputs": [],
      "stateMutability": "nonpayable",
      "type": "function"
    },
    {
      "inputs": [
        {
          "internalType": "bytes32",
          "name": "role",
          "type": "bytes32"
        },
        {
          "internalType": "address",
          "name": "account",
          "type": "address"
        }
      ],
      "name": "hasRole",
      "outputs": [
        {
          "internalType": "bool",
          "name": "",
          "type": "bool"
        }
      ],
      "stateMutability": "view",
      "type": "function"
    },
    {
      "inputs": [
        {
          "internalType": "address",
          "name": "spender",
          "type": "address"
        },
        {
          "internalType": "uint256",
          "name": "addedValue",
          "type": "uint256"
        }
      ],
      "name": "increaseAllowance",
      "outputs": [
        {
          "internalType": "bool",
          "name": "",
          "type": "bool"
        }
      ],
      "stateMutability": "nonpayable",
      "type": "function"
    },
    {
      "inputs": [
        {
          "internalType": "string",
          "name": "functionName",
          "type": "string"
        }
      ],
      "name": "isValidNetworkForFunction",
      "outputs": [
        {
          "internalType": "bool",
          "name": "",
          "type": "bool"
        }
      ],
      "stateMutability": "view",
      "type": "function"
    },
    {
      "inputs": [],
      "name": "name",
      "outputs": [
        {
          "internalType": "string",
          "name": "",
          "type": "string"
        }
      ],
      "stateMutability": "view",
      "type": "function"
    },
    {
      "inputs": [],
      "name": "pause",
      "outputs": [],
      "stateMutability": "nonpayable",
      "type": "function"
    },
    {
      "inputs": [],
      "name": "paused",
      "outputs": [
        {
          "internalType": "bool",
          "name": "",
          "type": "bool"
        }
      ],
      "stateMutability": "view",
      "type": "function"
    },
    {
      "inputs": [
        {
          "internalType": "address",
          "name": "account",
          "type": "address"
        }
      ],
      "name": "removeAdmin",
      "outputs": [],
      "stateMutability": "nonpayable",
      "type": "function"
    },
    {
      "inputs": [
        {
          "internalType": "bytes32",
          "name": "role",
          "type": "bytes32"
        },
        {
          "internalType": "address",
          "name": "account",
          "type": "address"
        }
      ],
      "name": "renounceRole",
      "outputs": [],
      "stateMutability": "nonpayable",
      "type": "function"
    },
    {
      "inputs": [
        {
          "internalType": "bytes32",
          "name": "role",
          "type": "bytes32"
        },
        {
          "internalType": "address",
          "name": "account",
          "type": "address"
        }
      ],
      "name": "revokeRole",
      "outputs": [],
      "stateMutability": "nonpayable",
      "type": "function"
    },
    {
      "inputs": [
        {
          "internalType": "address",
          "name": "_SPARK_DATA_PROVIDER",
          "type": "address"
        },
        {
          "internalType": "address",
          "name": "_SPARK_INCENTIVES_CONTROLLER",
          "type": "address"
        },
        {
          "internalType": "address",
          "name": "_SPARK_LENDING_POOL",
          "type": "address"
        }
      ],
      "name": "setSparkSettings",
      "outputs": [],
      "stateMutability": "nonpayable",
      "type": "function"
    },
    {
      "inputs": [
        {
          "internalType": "bool",
          "name": "useCompound",
          "type": "bool"
        },
        {
          "internalType": "address",
          "name": "wallet",
          "type": "address"
        }
      ],
      "name": "setUserCompoundPreference",
      "outputs": [],
      "stateMutability": "nonpayable",
      "type": "function"
    },
    {
      "inputs": [
        {
          "internalType": "bytes4",
          "name": "interfaceId",
          "type": "bytes4"
        }
      ],
      "name": "supportsInterface",
      "outputs": [
        {
          "internalType": "bool",
          "name": "",
          "type": "bool"
        }
      ],
      "stateMutability": "view",
      "type": "function"
    },
    {
      "inputs": [],
      "name": "symbol",
      "outputs": [
        {
          "internalType": "string",
          "name": "",
          "type": "string"
        }
      ],
      "stateMutability": "view",
      "type": "function"
    },
    {
      "inputs": [],
      "name": "totalSupply",
      "outputs": [
        {
          "internalType": "uint256",
          "name": "",
          "type": "uint256"
        }
      ],
      "stateMutability": "view",
      "type": "function"
    },
    {
      "inputs": [
        {
          "internalType": "address",
          "name": "to",
          "type": "address"
        },
        {
          "internalType": "uint256",
          "name": "amount",
          "type": "uint256"
        }
      ],
      "name": "transfer",
      "outputs": [
        {
          "internalType": "bool",
          "name": "",
          "type": "bool"
        }
      ],
      "stateMutability": "nonpayable",
      "type": "function"
    },
    {
      "inputs": [
        {
          "internalType": "address",
          "name": "from",
          "type": "address"
        },
        {
          "internalType": "address",
          "name": "to",
          "type": "address"
        },
        {
          "internalType": "uint256",
          "name": "amount",
          "type": "uint256"
        }
      ],
      "name": "transferFrom",
      "outputs": [
        {
          "internalType": "bool",
          "name": "",
          "type": "bool"
        }
      ],
      "stateMutability": "nonpayable",
      "type": "function"
    },
    {
      "inputs": [],
      "name": "unpause",
      "outputs": [],
      "stateMutability": "nonpayable",
      "type": "function"
    },
    {
      "inputs": [
        {
          "internalType": "string",
          "name": "functionName",
          "type": "string"
        },
        {
          "internalType": "uint256[]",
          "name": "chainIDs",
          "type": "uint256[]"
        }
      ],
      "name": "updateValidNetworks",
      "outputs": [],
      "stateMutability": "nonpayable",
      "type": "function"
    },
    {
      "inputs": [
        {
          "internalType": "address",
          "name": "",
          "type": "address"
        }
      ],
      "name": "userSetCompound",
      "outputs": [
        {
          "internalType": "bool",
          "name": "",
          "type": "bool"
        }
      ],
      "stateMutability": "view",
      "type": "function"
    },
    {
      "inputs": [
        {
          "internalType": "string",
          "name": "",
          "type": "string"
        },
        {
          "internalType": "uint256",
          "name": "",
          "type": "uint256"
        }
      ],
      "name": "validNetworks",
      "outputs": [
        {
          "internalType": "bool",
          "name": "",
          "type": "bool"
        }
      ],
      "stateMutability": "view",
      "type": "function"
    },
    {
      "inputs": [],
      "name": "vaultBalance",
      "outputs": [
        {
          "internalType": "uint256",
          "name": "",
          "type": "uint256"
        }
      ],
      "stateMutability": "view",
      "type": "function"
    },
    {
      "inputs": [
        {
          "internalType": "uint256",
          "name": "amount",
          "type": "uint256"
        },
        {
          "internalType": "address",
          "name": "_asset",
          "type": "address"
        }
      ],
      "name": "withdraw",
      "outputs": [
        {
          "internalType": "bool",
          "name": "",
          "type": "bool"
        }
      ],
      "stateMutability": "nonpayable",
      "type": "function"
    }
  ],
  "bytecode": "0x60806040523480156200001157600080fd5b506040516200503038038062005030833981810160405281019062000037919062000395565b81818460016000819055506000600260006101000a81548160ff021916908315150217905550620000726000801b82620000e260201b60201c565b620000a47f73fd536265c26e6e13263018bc9d82a9b962a7857ae70dac847fd743f5e7153582620000e260201b60201c565b508160069080519060200190620000bd9291906200025c565b508060079080519060200190620000d69291906200025c565b505050505050620005db565b620000f48282620000f860201b60201c565b5050565b6200010a8282620001e960201b60201c565b620001e557600180600084815260200190815260200160002060000160008373ffffffffffffffffffffffffffffffffffffffff1673ffffffffffffffffffffffffffffffffffffffff16815260200190815260200160002060006101000a81548160ff0219169083151502179055506200018a6200025460201b60201c565b73ffffffffffffffffffffffffffffffffffffffff168173ffffffffffffffffffffffffffffffffffffffff16837f2f8788117e7eff1d82e926ec794901d17c78024a50270940304540a733656f0d60405160405180910390a45b5050565b60006001600084815260200190815260200160002060000160008373ffffffffffffffffffffffffffffffffffffffff1673ffffffffffffffffffffffffffffffffffffffff16815260200190815260200160002060009054906101000a900460ff16905092915050565b600033905090565b8280546200026a90620004e6565b90600052602060002090601f0160209004810192826200028e5760008555620002da565b82601f10620002a957805160ff1916838001178555620002da565b82800160010185558215620002da579182015b82811115620002d9578251825591602001919060010190620002bc565b5b509050620002e99190620002ed565b5090565b5b8082111562000308576000816000905550600101620002ee565b5090565b6000620003236200031d8462000446565b6200041d565b9050828152602081018484840111156200033c57600080fd5b62000349848285620004b0565b509392505050565b6000815190506200036281620005c1565b92915050565b600082601f8301126200037a57600080fd5b81516200038c8482602086016200030c565b91505092915050565b600080600060608486031215620003ab57600080fd5b6000620003bb8682870162000351565b935050602084015167ffffffffffffffff811115620003d957600080fd5b620003e78682870162000368565b925050604084015167ffffffffffffffff8111156200040557600080fd5b620004138682870162000368565b9150509250925092565b6000620004296200043c565b90506200043782826200051c565b919050565b6000604051905090565b600067ffffffffffffffff82111562000464576200046362000581565b5b6200046f82620005b0565b9050602081019050919050565b6000620004898262000490565b9050919050565b600073ffffffffffffffffffffffffffffffffffffffff82169050919050565b60005b83811015620004d0578082015181840152602081019050620004b3565b83811115620004e0576000848401525b50505050565b60006002820490506001821680620004ff57607f821691505b6020821081141562000516576200051562000552565b5b50919050565b6200052782620005b0565b810181811067ffffffffffffffff8211171562000549576200054862000581565b5b80604052505050565b7f4e487b7100000000000000000000000000000000000000000000000000000000600052602260045260246000fd5b7f4e487b7100000000000000000000000000000000000000000000000000000000600052604160045260246000fd5b6000601f19601f8301169050919050565b620005cc816200047c565b8114620005d857600080fd5b50565b614a4580620005eb6000396000f3fe608060405234801561001057600080fd5b506004361061021b5760003560e01c8063395093511161012557806391d14854116100ad578063a806c4571161007c578063a806c45714610676578063a9059cbb146106a6578063d547741f146106d6578063dd62ed3e146106f2578063fd1a9166146107225761021b565b806391d14854146105da57806395d89b411461060a578063a217fddf14610628578063a457c2d7146106465761021b565b80635c975abb116100f45780635c975abb14610536578063704802751461055457806370a08231146105705780638456cb59146105a05780638ac46648146105aa5761021b565b806339509351146104c05780633f4ba83a146104f05780634f7cd72f146104fa578063564b81ef146105185761021b565b806318160ddd116101a85780632c05ad27116101775780632c05ad271461040a5780632e2d29841461043a5780632f2ff15d1461046a578063313ce5671461048657806336568abe146104a45761021b565b806318160ddd14610370578063190d7d821461038e57806323b872dd146103aa578063248a9ca3146103da5761021b565b8063095ea7b3116101ef578063095ea7b3146102ce5780630bf6cc08146102fe57806310143a641461031c57806313423bfb146103385780631785f53c146103545761021b565b8062f714ce1461022057806301ffc9a71461025057806304b70a771461028057806306fdde03146102b0575b600080fd5b61023a6004803603810190610235919061351c565b61073e565b6040516102479190613bdc565b60405180910390f35b61026a600480360381019061026591906133c9565b61085e565b6040516102779190613bdc565b60405180910390f35b61029a60048036038101906102959190613171565b6108d8565b6040516102a79190613f64565b60405180910390f35b6102b8610a1e565b6040516102c59190613c12565b60405180910390f35b6102e860048036038101906102e391906132c3565b610ab0565b6040516102f59190613bdc565b60405180910390f35b610306610ad3565b6040516103139190613f64565b60405180910390f35b61033660048036038101906103319190613171565b610add565b005b610352600480360381019061034d91906131d6565b610b55565b005b61036e60048036038101906103699190613171565b610c69565b005b610378610d10565b6040516103859190613f64565b60405180910390f35b6103a860048036038101906103a39190613328565b610d1a565b005b6103c460048036038101906103bf9190613274565b610dde565b6040516103d19190613bdc565b60405180910390f35b6103f460048036038101906103ef9190613364565b610e0d565b6040516104019190613bf7565b60405180910390f35b610424600480360381019061041f91906133f2565b610e2d565b6040516104319190613bdc565b60405180910390f35b610454600480360381019061044f9190613558565b610e7a565b6040516104619190613bdc565b60405180910390f35b610484600480360381019061047f919061338d565b610fc9565b005b61048e610fea565b60405161049b9190613f7f565b60405180910390f35b6104be60048036038101906104b9919061338d565b610ff3565b005b6104da60048036038101906104d591906132c3565b611076565b6040516104e79190613bdc565b60405180910390f35b6104f86110ad565b005b61050261110b565b60405161050f9190613bf7565b60405180910390f35b61052061112f565b60405161052d9190613f64565b60405180910390f35b61053e61113c565b60405161054b9190613bdc565b60405180910390f35b61056e60048036038101906105699190613171565b611153565b005b61058a60048036038101906105859190613171565b6111fa565b6040516105979190613f64565b60405180910390f35b6105a8611243565b005b6105c460048036038101906105bf919061349f565b6112a1565b6040516105d19190613bdc565b60405180910390f35b6105f460048036038101906105ef919061338d565b6112e6565b6040516106019190613bdc565b60405180910390f35b610612611351565b60405161061f9190613c12565b60405180910390f35b6106306113e3565b60405161063d9190613bf7565b60405180910390f35b610660600480360381019061065b91906132c3565b6113ea565b60405161066d9190613bdc565b60405180910390f35b610690600480360381019061068b9190613171565b611461565b60405161069d9190613bdc565b60405180910390f35b6106c060048036038101906106bb91906132c3565b611481565b6040516106cd9190613bdc565b60405180910390f35b6106f060048036038101906106eb919061338d565b6114a4565b005b61070c6004803603810190610707919061319a565b6114c5565b6040516107199190613f64565b60405180910390f35b61073c60048036038101906107379190613433565b61154c565b005b6000610748611660565b6107506116b0565b600061075c84846116fa565b905080610768336111fa565b10156107a9576040517f08c379a00000000000000000000000000000000000000000000000000000000081526004016107a090613d64565b60405180910390fd5b6107b333826117ec565b6107de33858573ffffffffffffffffffffffffffffffffffffffff166119bc9092919063ffffffff16565b6107e781611a42565b8273ffffffffffffffffffffffffffffffffffffffff163373ffffffffffffffffffffffffffffffffffffffff167e1a143d5b175701cb3246058ffac3d63945192075a926ff73a19930f09d587a836040516108439190613f64565b60405180910390a36001915050610858611ad1565b92915050565b60007f7965db0b000000000000000000000000000000000000000000000000000000007bffffffffffffffffffffffffffffffffffffffffffffffffffffffff1916827bffffffffffffffffffffffffffffffffffffffffffffffffffffffff191614806108d157506108d082611adb565b5b9050919050565b600080600d60009054906101000a900473ffffffffffffffffffffffffffffffffffffffff1673ffffffffffffffffffffffffffffffffffffffff1663d2493b6c846040518263ffffffff1660e01b81526004016109369190613af3565b60606040518083038186803b15801561094e57600080fd5b505afa158015610962573d6000803e3d6000fd5b505050506040513d601f19601f820116820180604052508101906109869190613225565b905050809150508073ffffffffffffffffffffffffffffffffffffffff166370a08231306040518263ffffffff1660e01b81526004016109c69190613af3565b60206040518083038186803b1580156109de57600080fd5b505afa1580156109f2573d6000803e3d6000fd5b505050506040513d601f19601f82011682018060405250810190610a1691906134f3565b915050919050565b606060068054610a2d90614220565b80601f0160208091040260200160405190810160405280929190818152602001828054610a5990614220565b8015610aa65780601f10610a7b57610100808354040283529160200191610aa6565b820191906000526020600020905b815481529060010190602001808311610a8957829003601f168201915b5050505050905090565b600080610abb611b45565b9050610ac8818585611b4d565b600191505092915050565b6000600854905090565b610ae56116b0565b610b0f7f73fd536265c26e6e13263018bc9d82a9b962a7857ae70dac847fd743f5e7153582611d18565b8073ffffffffffffffffffffffffffffffffffffffff167f92364d7c14d8a26a040c77305dd885fcd5898051d1b1ead4189b09d5f091159060405160405180910390a250565b610b626000801b336112e6565b610ba1576040517f08c379a0000000000000000000000000000000000000000000000000000000008152600401610b9890613e24565b60405180910390fd5b82600d60006101000a81548173ffffffffffffffffffffffffffffffffffffffff021916908373ffffffffffffffffffffffffffffffffffffffff16021790555081600c60006101000a81548173ffffffffffffffffffffffffffffffffffffffff021916908373ffffffffffffffffffffffffffffffffffffffff16021790555080600b60006101000a81548173ffffffffffffffffffffffffffffffffffffffff021916908373ffffffffffffffffffffffffffffffffffffffff160217905550505050565b610c766000801b336112e6565b610cb5576040517f08c379a0000000000000000000000000000000000000000000000000000000008152600401610cac90613e24565b60405180910390fd5b610cbd6116b0565b610cca6000801b82611d26565b8073ffffffffffffffffffffffffffffffffffffffff167f3137a7fedbfedb7895dfa5a6812a4566dae9ded68d00aeec13c6ed1fa84a1c8060405160405180910390a250565b6000600554905090565b610d447f73fd536265c26e6e13263018bc9d82a9b962a7857ae70dac847fd743f5e71535336112e6565b610d83576040517f08c379a0000000000000000000000000000000000000000000000000000000008152600401610d7a90613dc4565b60405180910390fd5b81600960008373ffffffffffffffffffffffffffffffffffffffff1673ffffffffffffffffffffffffffffffffffffffff16815260200190815260200160002060006101000a81548160ff0219169083151502179055505050565b600080610de9611b45565b9050610df6858285611e08565b610e01858585611e94565b60019150509392505050565b600060016000838152602001908152602001600020600101549050919050565b6000600a82604051610e3f9190613a8d565b90815260200160405180910390206000610e5761112f565b815260200190815260200160002060009054906101000a900460ff169050919050565b6000610e84611660565b610e8c6116b0565b6000610e9885856116fa565b9050610ed96040518060400160405280601081526020017f4465706f73697420616d6f756e743a20000000000000000000000000000000008152508661210f565b610f186040518060400160405280601981526020017f4465706f73697420636f72726563746564416d6f756e743a20000000000000008152508261210f565b610f453330878773ffffffffffffffffffffffffffffffffffffffff166121ab909392919063ffffffff16565b610f4f8382612234565b610f588161238c565b600960008473ffffffffffffffffffffffffffffffffffffffff1673ffffffffffffffffffffffffffffffffffffffff16815260200190815260200160002060009054906101000a900460ff1615610fb557610fb484866123d6565b5b6001915050610fc2611ad1565b9392505050565b610fd282610e0d565b610fdb81612594565b610fe583836125a8565b505050565b60006012905090565b610ffb611b45565b73ffffffffffffffffffffffffffffffffffffffff168173ffffffffffffffffffffffffffffffffffffffff1614611068576040517f08c379a000000000000000000000000000000000000000000000000000000000815260040161105f90613f24565b60405180910390fd5b6110728282611d26565b5050565b600080611081611b45565b90506110a281858561109385896114c5565b61109d9190614059565b611b4d565b600191505092915050565b6110ba6000801b336112e6565b6110f9576040517f08c379a00000000000000000000000000000000000000000000000000000000081526004016110f090613e24565b60405180910390fd5b611101612688565b6111096126d1565b565b7f73fd536265c26e6e13263018bc9d82a9b962a7857ae70dac847fd743f5e7153581565b6000804690508091505090565b6000600260009054906101000a900460ff16905090565b6111606000801b336112e6565b61119f576040517f08c379a000000000000000000000000000000000000000000000000000000000815260040161119690613e24565b60405180910390fd5b6111a76116b0565b6111b46000801b82611d18565b8073ffffffffffffffffffffffffffffffffffffffff167f2dbe9fb88463d989acccabbb6ee06901f83672eb78e04a11ff48dd8f69a27cda60405160405180910390a250565b6000600360008373ffffffffffffffffffffffffffffffffffffffff1673ffffffffffffffffffffffffffffffffffffffff168152602001908152602001600020549050919050565b6112506000801b336112e6565b61128f576040517f08c379a000000000000000000000000000000000000000000000000000000000815260040161128690613e24565b60405180910390fd5b6112976116b0565b61129f612734565b565b600a828051602081018201805184825260208301602085012081835280955050505050506020528060005260406000206000915091509054906101000a900460ff1681565b60006001600084815260200190815260200160002060000160008373ffffffffffffffffffffffffffffffffffffffff1673ffffffffffffffffffffffffffffffffffffffff16815260200190815260200160002060009054906101000a900460ff16905092915050565b60606007805461136090614220565b80601f016020809104026020016040519081016040528092919081815260200182805461138c90614220565b80156113d95780601f106113ae576101008083540402835291602001916113d9565b820191906000526020600020905b8154815290600101906020018083116113bc57829003601f168201915b5050505050905090565b6000801b81565b6000806113f5611b45565b9050600061140382866114c5565b905083811015611448576040517f08c379a000000000000000000000000000000000000000000000000000000000815260040161143f90613f04565b60405180910390fd5b6114558286868403611b4d565b60019250505092915050565b60096020528060005260406000206000915054906101000a900460ff1681565b60008061148c611b45565b9050611499818585611e94565b600191505092915050565b6114ad82610e0d565b6114b681612594565b6114c08383611d26565b505050565b6000600460008473ffffffffffffffffffffffffffffffffffffffff1673ffffffffffffffffffffffffffffffffffffffff16815260200190815260200160002060008373ffffffffffffffffffffffffffffffffffffffff1673ffffffffffffffffffffffffffffffffffffffff16815260200190815260200160002054905092915050565b60005b60ff8110156115b3576000600a8460405161156a9190613a8d565b9081526020016040518091039020600083815260200190815260200160002060006101000a81548160ff02191690831515021790555080806115ab90614283565b91505061154f565b5060005b815181101561165b576001600a846040516115d29190613a8d565b9081526020016040518091039020600084848151811061161b577f4e487b7100000000000000000000000000000000000000000000000000000000600052603260045260246000fd5b6020026020010151815260200190815260200160002060006101000a81548160ff021916908315150217905550808061165390614283565b9150506115b7565b505050565b600260005414156116a6576040517f08c379a000000000000000000000000000000000000000000000000000000000815260040161169d90613ec4565b60405180910390fd5b6002600081905550565b6116b861113c565b156116f8576040517f08c379a00000000000000000000000000000000000000000000000000000000081526004016116ef90613da4565b60405180910390fd5b565b6000808273ffffffffffffffffffffffffffffffffffffffff1663313ce5676040518163ffffffff1660e01b815260040160206040518083038186803b15801561174357600080fd5b505afa158015611757573d6000803e3d6000fd5b505050506040513d601f19601f8201168201806040525081019061177b91906135a7565b60ff169050601281146117e25760128111156117d55760128103600a0a84816117cd577f4e487b7100000000000000000000000000000000000000000000000000000000600052601260045260246000fd5b0493506117e1565b80601203600a0a840293505b5b8391505092915050565b600073ffffffffffffffffffffffffffffffffffffffff168273ffffffffffffffffffffffffffffffffffffffff16141561185c576040517f08c379a000000000000000000000000000000000000000000000000000000000815260040161185390613de4565b60405180910390fd5b61186882600083612797565b6000600360008473ffffffffffffffffffffffffffffffffffffffff1673ffffffffffffffffffffffffffffffffffffffff168152602001908152602001600020549050818110156118ef576040517f08c379a00000000000000000000000000000000000000000000000000000000081526004016118e690613cc4565b60405180910390fd5b818103600360008573ffffffffffffffffffffffffffffffffffffffff1673ffffffffffffffffffffffffffffffffffffffff1681526020019081526020016000208190555081600560008282540392505081905550600073ffffffffffffffffffffffffffffffffffffffff168373ffffffffffffffffffffffffffffffffffffffff167fddf252ad1be2c89b69c2b068fc378daa952ba7f163c4a11628f55a4df523b3ef846040516119a39190613f64565b60405180910390a36119b78360008461279c565b505050565b611a3d8363a9059cbb60e01b84846040516024016119db929190613b6e565b604051602081830303815290604052907bffffffffffffffffffffffffffffffffffffffffffffffffffffffff19166020820180517bffffffffffffffffffffffffffffffffffffffffffffffffffffffff83818316178352505050506127a1565b505050565b806008541015611a87576040517f08c379a0000000000000000000000000000000000000000000000000000000008152600401611a7e90613d44565b60405180910390fd5b806008600082825403925050819055507f04be25a4c0fe4c39136ca055daaac08ac6b3041b2e1f2a1b698bac12f1cbdc4a81604051611ac69190613f64565b60405180910390a150565b6001600081905550565b60007f01ffc9a7000000000000000000000000000000000000000000000000000000007bffffffffffffffffffffffffffffffffffffffffffffffffffffffff1916827bffffffffffffffffffffffffffffffffffffffffffffffffffffffff1916149050919050565b600033905090565b600073ffffffffffffffffffffffffffffffffffffffff168373ffffffffffffffffffffffffffffffffffffffff161415611bbd576040517f08c379a0000000000000000000000000000000000000000000000000000000008152600401611bb490613e64565b60405180910390fd5b600073ffffffffffffffffffffffffffffffffffffffff168273ffffffffffffffffffffffffffffffffffffffff161415611c2d576040517f08c379a0000000000000000000000000000000000000000000000000000000008152600401611c2490613ce4565b60405180910390fd5b80600460008573ffffffffffffffffffffffffffffffffffffffff1673ffffffffffffffffffffffffffffffffffffffff16815260200190815260200160002060008473ffffffffffffffffffffffffffffffffffffffff1673ffffffffffffffffffffffffffffffffffffffff168152602001908152602001600020819055508173ffffffffffffffffffffffffffffffffffffffff168373ffffffffffffffffffffffffffffffffffffffff167f8c5be1e5ebec7d5bd14f71427d1e84f3dd0314c0f7b2291e5b200ac8c7c3b92583604051611d0b9190613f64565b60405180910390a3505050565b611d2282826125a8565b5050565b611d3082826112e6565b15611e045760006001600084815260200190815260200160002060000160008373ffffffffffffffffffffffffffffffffffffffff1673ffffffffffffffffffffffffffffffffffffffff16815260200190815260200160002060006101000a81548160ff021916908315150217905550611da9611b45565b73ffffffffffffffffffffffffffffffffffffffff168173ffffffffffffffffffffffffffffffffffffffff16837ff6391f5c32d9c69d2a47ea670b442974b53935d1edc7fd64eb21e047a839171b60405160405180910390a45b5050565b6000611e1484846114c5565b90507fffffffffffffffffffffffffffffffffffffffffffffffffffffffffffffffff8114611e8e5781811015611e80576040517f08c379a0000000000000000000000000000000000000000000000000000000008152600401611e7790613d04565b60405180910390fd5b611e8d8484848403611b4d565b5b50505050565b600073ffffffffffffffffffffffffffffffffffffffff168373ffffffffffffffffffffffffffffffffffffffff161415611f04576040517f08c379a0000000000000000000000000000000000000000000000000000000008152600401611efb90613e04565b60405180910390fd5b600073ffffffffffffffffffffffffffffffffffffffff168273ffffffffffffffffffffffffffffffffffffffff161415611f74576040517f08c379a0000000000000000000000000000000000000000000000000000000008152600401611f6b90613c84565b60405180910390fd5b611f7f838383612797565b6000600360008573ffffffffffffffffffffffffffffffffffffffff1673ffffffffffffffffffffffffffffffffffffffff16815260200190815260200160002054905081811015612006576040517f08c379a0000000000000000000000000000000000000000000000000000000008152600401611ffd90613d24565b60405180910390fd5b818103600360008673ffffffffffffffffffffffffffffffffffffffff1673ffffffffffffffffffffffffffffffffffffffff1681526020019081526020016000208190555081600360008573ffffffffffffffffffffffffffffffffffffffff1673ffffffffffffffffffffffffffffffffffffffff168152602001908152602001600020600082825401925050819055508273ffffffffffffffffffffffffffffffffffffffff168473ffffffffffffffffffffffffffffffffffffffff167fddf252ad1be2c89b69c2b068fc378daa952ba7f163c4a11628f55a4df523b3ef846040516120f69190613f64565b60405180910390a361210984848461279c565b50505050565b6121a78282604051602401612125929190613c34565b6040516020818303038152906040527fb60e72cc000000000000000000000000000000000000000000000000000000007bffffffffffffffffffffffffffffffffffffffffffffffffffffffff19166020820180517bffffffffffffffffffffffffffffffffffffffffffffffffffffffff8381831617835250505050612869565b5050565b61222e846323b872dd60e01b8585856040516024016121cc93929190613b37565b604051602081830303815290604052907bffffffffffffffffffffffffffffffffffffffffffffffffffffffff19166020820180517bffffffffffffffffffffffffffffffffffffffffffffffffffffffff83818316178352505050506127a1565b50505050565b600073ffffffffffffffffffffffffffffffffffffffff168273ffffffffffffffffffffffffffffffffffffffff1614156122a4576040517f08c379a000000000000000000000000000000000000000000000000000000000815260040161229b90613f44565b60405180910390fd5b6122b060008383612797565b80600560008282546122c29190614059565b9250508190555080600360008473ffffffffffffffffffffffffffffffffffffffff1673ffffffffffffffffffffffffffffffffffffffff168152602001908152602001600020600082825401925050819055508173ffffffffffffffffffffffffffffffffffffffff16600073ffffffffffffffffffffffffffffffffffffffff167fddf252ad1be2c89b69c2b068fc378daa952ba7f163c4a11628f55a4df523b3ef836040516123749190613f64565b60405180910390a36123886000838361279c565b5050565b806008600082825401925050819055507f04be25a4c0fe4c39136ca055daaac08ac6b3041b2e1f2a1b698bac12f1cbdc4a816040516123cb9190613f64565b60405180910390a150565b6123de6116b0565b600a6040516123ec90613aa4565b9081526020016040518091039020600061240461112f565b815260200190815260200160002060009054906101000a900460ff1661245f576040517f08c379a000000000000000000000000000000000000000000000000000000000815260040161245690613e44565b60405180910390fd5b6124ac600b60009054906101000a900473ffffffffffffffffffffffffffffffffffffffff16828473ffffffffffffffffffffffffffffffffffffffff166128839092919063ffffffff16565b600b60009054906101000a900473ffffffffffffffffffffffffffffffffffffffff1673ffffffffffffffffffffffffffffffffffffffff1663e8eda9df83833060006040518563ffffffff1660e01b815260040161250e9493929190613b97565b600060405180830381600087803b15801561252857600080fd5b505af115801561253c573d6000803e3d6000fd5b505050503373ffffffffffffffffffffffffffffffffffffffff167fef7fb1a8620b44e618a68b57e6792e55c95307e44b24023effa85d6aaf142c2e8383604051612588929190613b6e565b60405180910390a25050565b6125a5816125a0611b45565b6129e1565b50565b6125b282826112e6565b61268457600180600084815260200190815260200160002060000160008373ffffffffffffffffffffffffffffffffffffffff1673ffffffffffffffffffffffffffffffffffffffff16815260200190815260200160002060006101000a81548160ff021916908315150217905550612629611b45565b73ffffffffffffffffffffffffffffffffffffffff168173ffffffffffffffffffffffffffffffffffffffff16837f2f8788117e7eff1d82e926ec794901d17c78024a50270940304540a733656f0d60405160405180910390a45b5050565b61269061113c565b6126cf576040517f08c379a00000000000000000000000000000000000000000000000000000000081526004016126c690613ca4565b60405180910390fd5b565b6126d9612688565b6000600260006101000a81548160ff0219169083151502179055507f5db9ee0a495bf2e6ff9c91a7834c1ba4fdd244a5e8aa4e537bd38aeae4b073aa61271d611b45565b60405161272a9190613af3565b60405180910390a1565b61273c6116b0565b6001600260006101000a81548160ff0219169083151502179055507f62e78cea01bee320cd4e420270b5ea74000d11b0c9f74754ebdbfc544b05a258612780611b45565b60405161278d9190613af3565b60405180910390a1565b505050565b505050565b6000612803826040518060400160405280602081526020017f5361666545524332303a206c6f772d6c6576656c2063616c6c206661696c65648152508573ffffffffffffffffffffffffffffffffffffffff16612a669092919063ffffffff16565b905060008151148061282557508080602001905181019061282491906132ff565b5b612864576040517f08c379a000000000000000000000000000000000000000000000000000000000815260040161285b90613ea4565b60405180910390fd5b505050565b61288081612878612a7e612a9f565b63ffffffff16565b50565b600081148061291c575060008373ffffffffffffffffffffffffffffffffffffffff1663dd62ed3e30856040518363ffffffff1660e01b81526004016128ca929190613b0e565b60206040518083038186803b1580156128e257600080fd5b505afa1580156128f6573d6000803e3d6000fd5b505050506040513d601f19601f8201168201806040525081019061291a91906134f3565b145b61295b576040517f08c379a000000000000000000000000000000000000000000000000000000000815260040161295290613ee4565b60405180910390fd5b6129dc8363095ea7b360e01b848460405160240161297a929190613b6e565b604051602081830303815290604052907bffffffffffffffffffffffffffffffffffffffffffffffffffffffff19166020820180517bffffffffffffffffffffffffffffffffffffffffffffffffffffffff83818316178352505050506127a1565b505050565b6129eb82826112e6565b612a62576129f881612aaa565b612a068360001c6020612ad7565b604051602001612a17929190613ab9565b6040516020818303038152906040526040517f08c379a0000000000000000000000000000000000000000000000000000000008152600401612a599190613c12565b60405180910390fd5b5050565b6060612a758484600085612dd1565b90509392505050565b60006a636f6e736f6c652e6c6f679050600080835160208501845afa505050565b612f87819050919050565b6060612ad08273ffffffffffffffffffffffffffffffffffffffff16601460ff16612ad7565b9050919050565b606060006002836002612aea91906140af565b612af49190614059565b67ffffffffffffffff811115612b33577f4e487b7100000000000000000000000000000000000000000000000000000000600052604160045260246000fd5b6040519080825280601f01601f191660200182016040528015612b655781602001600182028036833780820191505090505b5090507f300000000000000000000000000000000000000000000000000000000000000081600081518110612bc3577f4e487b7100000000000000000000000000000000000000000000000000000000600052603260045260246000fd5b60200101907effffffffffffffffffffffffffffffffffffffffffffffffffffffffffffff1916908160001a9053507f780000000000000000000000000000000000000000000000000000000000000081600181518110612c4d577f4e487b7100000000000000000000000000000000000000000000000000000000600052603260045260246000fd5b60200101907effffffffffffffffffffffffffffffffffffffffffffffffffffffffffffff1916908160001a90535060006001846002612c8d91906140af565b612c979190614059565b90505b6001811115612d83577f3031323334353637383961626364656600000000000000000000000000000000600f861660108110612cff577f4e487b7100000000000000000000000000000000000000000000000000000000600052603260045260246000fd5b1a60f81b828281518110612d3c577f4e487b7100000000000000000000000000000000000000000000000000000000600052603260045260246000fd5b60200101907effffffffffffffffffffffffffffffffffffffffffffffffffffffffffffff1916908160001a905350600485901c945080612d7c906141f6565b9050612c9a565b5060008414612dc7576040517f08c379a0000000000000000000000000000000000000000000000000000000008152600401612dbe90613c64565b60405180910390fd5b8091505092915050565b606082471015612e16576040517f08c379a0000000000000000000000000000000000000000000000000000000008152600401612e0d90613d84565b60405180910390fd5b6000808673ffffffffffffffffffffffffffffffffffffffff168587604051612e3f9190613a76565b60006040518083038185875af1925050503d8060008114612e7c576040519150601f19603f3d011682016040523d82523d6000602084013e612e81565b606091505b5091509150612e9287838387612e9e565b92505050949350505050565b60608315612f0157600083511415612ef957612eb985612f14565b612ef8576040517f08c379a0000000000000000000000000000000000000000000000000000000008152600401612eef90613e84565b60405180910390fd5b5b829050612f0c565b612f0b8383612f37565b5b949350505050565b6000808273ffffffffffffffffffffffffffffffffffffffff163b119050919050565b600082511115612f4a5781518083602001fd5b806040517f08c379a0000000000000000000000000000000000000000000000000000000008152600401612f7e9190613c12565b60405180910390fd5b7f4e487b7100000000000000000000000000000000000000000000000000000000600052605160045260246000fd5b6000612fc9612fc484613fbf565b613f9a565b90508083825260208201905082856020860282011115612fe857600080fd5b60005b858110156130185781612ffe8882613132565b845260208401935060208301925050600181019050612feb565b5050509392505050565b600061303561303084613feb565b613f9a565b90508281526020810184848401111561304d57600080fd5b6130588482856141b4565b509392505050565b60008135905061306f81614985565b92915050565b60008151905061308481614985565b92915050565b600082601f83011261309b57600080fd5b81356130ab848260208601612fb6565b91505092915050565b6000813590506130c38161499c565b92915050565b6000815190506130d88161499c565b92915050565b6000813590506130ed816149b3565b92915050565b600081359050613102816149ca565b92915050565b600082601f83011261311957600080fd5b8135613129848260208601613022565b91505092915050565b600081359050613141816149e1565b92915050565b600081519050613156816149e1565b92915050565b60008151905061316b816149f8565b92915050565b60006020828403121561318357600080fd5b600061319184828501613060565b91505092915050565b600080604083850312156131ad57600080fd5b60006131bb85828601613060565b92505060206131cc85828601613060565b9150509250929050565b6000806000606084860312156131eb57600080fd5b60006131f986828701613060565b935050602061320a86828701613060565b925050604061321b86828701613060565b9150509250925092565b60008060006060848603121561323a57600080fd5b600061324886828701613075565b935050602061325986828701613075565b925050604061326a86828701613075565b9150509250925092565b60008060006060848603121561328957600080fd5b600061329786828701613060565b93505060206132a886828701613060565b92505060406132b986828701613132565b9150509250925092565b600080604083850312156132d657600080fd5b60006132e485828601613060565b92505060206132f585828601613132565b9150509250929050565b60006020828403121561331157600080fd5b600061331f848285016130c9565b91505092915050565b6000806040838503121561333b57600080fd5b6000613349858286016130b4565b925050602061335a85828601613060565b9150509250929050565b60006020828403121561337657600080fd5b6000613384848285016130de565b91505092915050565b600080604083850312156133a057600080fd5b60006133ae858286016130de565b92505060206133bf85828601613060565b9150509250929050565b6000602082840312156133db57600080fd5b60006133e9848285016130f3565b91505092915050565b60006020828403121561340457600080fd5b600082013567ffffffffffffffff81111561341e57600080fd5b61342a84828501613108565b91505092915050565b6000806040838503121561344657600080fd5b600083013567ffffffffffffffff81111561346057600080fd5b61346c85828601613108565b925050602083013567ffffffffffffffff81111561348957600080fd5b6134958582860161308a565b9150509250929050565b600080604083850312156134b257600080fd5b600083013567ffffffffffffffff8111156134cc57600080fd5b6134d885828601613108565b92505060206134e985828601613132565b9150509250929050565b60006020828403121561350557600080fd5b600061351384828501613147565b91505092915050565b6000806040838503121561352f57600080fd5b600061353d85828601613132565b925050602061354e85828601613060565b9150509250929050565b60008060006060848603121561356d57600080fd5b600061357b86828701613132565b935050602061358c86828701613060565b925050604061359d86828701613060565b9150509250925092565b6000602082840312156135b957600080fd5b60006135c78482850161315c565b91505092915050565b6135d981614109565b82525050565b6135e88161411b565b82525050565b6135f781614127565b82525050565b60006136088261401c565b6136128185614032565b93506136228185602086016141c3565b80840191505092915050565b613637816141a2565b82525050565b600061364882614027565b613652818561403d565b93506136628185602086016141c3565b61366b81614359565b840191505092915050565b600061368182614027565b61368b818561404e565b935061369b8185602086016141c3565b80840191505092915050565b60006136b460208361403d565b91506136bf8261436a565b602082019050919050565b60006136d760238361403d565b91506136e282614393565b604082019050919050565b60006136fa60148361403d565b9150613705826143e2565b602082019050919050565b600061371d60228361403d565b91506137288261440b565b604082019050919050565b600061374060228361403d565b915061374b8261445a565b604082019050919050565b6000613763601d8361403d565b915061376e826144a9565b602082019050919050565b600061378660268361403d565b9150613791826144d2565b604082019050919050565b60006137a9601a8361403d565b91506137b482614521565b602082019050919050565b60006137cc60148361403d565b91506137d78261454a565b602082019050919050565b60006137ef60268361403d565b91506137fa82614573565b604082019050919050565b600061381260108361403d565b915061381d826145c2565b602082019050919050565b6000613835600c8361404e565b9150613840826145eb565b600c82019050919050565b600061385860188361403d565b915061386382614614565b602082019050919050565b600061387b60218361403d565b91506138868261463d565b604082019050919050565b600061389e60258361403d565b91506138a98261468c565b604082019050919050565b60006138c160168361403d565b91506138cc826146db565b602082019050919050565b60006138e4601d8361403d565b91506138ef82614704565b602082019050919050565b600061390760248361403d565b91506139128261472d565b604082019050919050565b600061392a601d8361403d565b91506139358261477c565b602082019050919050565b600061394d60178361404e565b9150613958826147a5565b601782019050919050565b6000613970602a8361403d565b915061397b826147ce565b604082019050919050565b6000613993601f8361403d565b915061399e8261481d565b602082019050919050565b60006139b660368361403d565b91506139c182614846565b604082019050919050565b60006139d960258361403d565b91506139e482614895565b604082019050919050565b60006139fc60118361404e565b9150613a07826148e4565b601182019050919050565b6000613a1f602f8361403d565b9150613a2a8261490d565b604082019050919050565b6000613a42601f8361403d565b9150613a4d8261495c565b602082019050919050565b613a618161418b565b82525050565b613a7081614195565b82525050565b6000613a8282846135fd565b915081905092915050565b6000613a998284613676565b915081905092915050565b6000613aaf82613828565b9150819050919050565b6000613ac482613940565b9150613ad08285613676565b9150613adb826139ef565b9150613ae78284613676565b91508190509392505050565b6000602082019050613b0860008301846135d0565b92915050565b6000604082019050613b2360008301856135d0565b613b3060208301846135d0565b9392505050565b6000606082019050613b4c60008301866135d0565b613b5960208301856135d0565b613b666040830184613a58565b949350505050565b6000604082019050613b8360008301856135d0565b613b906020830184613a58565b9392505050565b6000608082019050613bac60008301876135d0565b613bb96020830186613a58565b613bc660408301856135d0565b613bd3606083018461362e565b95945050505050565b6000602082019050613bf160008301846135df565b92915050565b6000602082019050613c0c60008301846135ee565b92915050565b60006020820190508181036000830152613c2c818461363d565b905092915050565b60006040820190508181036000830152613c4e818561363d565b9050613c5d6020830184613a58565b9392505050565b60006020820190508181036000830152613c7d816136a7565b9050919050565b60006020820190508181036000830152613c9d816136ca565b9050919050565b60006020820190508181036000830152613cbd816136ed565b9050919050565b60006020820190508181036000830152613cdd81613710565b9050919050565b60006020820190508181036000830152613cfd81613733565b9050919050565b60006020820190508181036000830152613d1d81613756565b9050919050565b60006020820190508181036000830152613d3d81613779565b9050919050565b60006020820190508181036000830152613d5d8161379c565b9050919050565b60006020820190508181036000830152613d7d816137bf565b9050919050565b60006020820190508181036000830152613d9d816137e2565b9050919050565b60006020820190508181036000830152613dbd81613805565b9050919050565b60006020820190508181036000830152613ddd8161384b565b9050919050565b60006020820190508181036000830152613dfd8161386e565b9050919050565b60006020820190508181036000830152613e1d81613891565b9050919050565b60006020820190508181036000830152613e3d816138b4565b9050919050565b60006020820190508181036000830152613e5d816138d7565b9050919050565b60006020820190508181036000830152613e7d816138fa565b9050919050565b60006020820190508181036000830152613e9d8161391d565b9050919050565b60006020820190508181036000830152613ebd81613963565b9050919050565b60006020820190508181036000830152613edd81613986565b9050919050565b60006020820190508181036000830152613efd816139a9565b9050919050565b60006020820190508181036000830152613f1d816139cc565b9050919050565b60006020820190508181036000830152613f3d81613a12565b9050919050565b60006020820190508181036000830152613f5d81613a35565b9050919050565b6000602082019050613f796000830184613a58565b92915050565b6000602082019050613f946000830184613a67565b92915050565b6000613fa4613fb5565b9050613fb08282614252565b919050565b6000604051905090565b600067ffffffffffffffff821115613fda57613fd961432a565b5b602082029050602081019050919050565b600067ffffffffffffffff8211156140065761400561432a565b5b61400f82614359565b9050602081019050919050565b600081519050919050565b600081519050919050565b600081905092915050565b600082825260208201905092915050565b600081905092915050565b60006140648261418b565b915061406f8361418b565b9250827fffffffffffffffffffffffffffffffffffffffffffffffffffffffffffffffff038211156140a4576140a36142cc565b5b828201905092915050565b60006140ba8261418b565b91506140c58361418b565b9250817fffffffffffffffffffffffffffffffffffffffffffffffffffffffffffffffff04831182151516156140fe576140fd6142cc565b5b828202905092915050565b60006141148261416b565b9050919050565b60008115159050919050565b6000819050919050565b60007fffffffff0000000000000000000000000000000000000000000000000000000082169050919050565b600061ffff82169050919050565b600073ffffffffffffffffffffffffffffffffffffffff82169050919050565b6000819050919050565b600060ff82169050919050565b60006141ad8261415d565b9050919050565b82818337600083830152505050565b60005b838110156141e15780820151818401526020810190506141c6565b838111156141f0576000848401525b50505050565b60006142018261418b565b91506000821415614215576142146142cc565b5b600182039050919050565b6000600282049050600182168061423857607f821691505b6020821081141561424c5761424b6142fb565b5b50919050565b61425b82614359565b810181811067ffffffffffffffff8211171561427a5761427961432a565b5b80604052505050565b600061428e8261418b565b91507fffffffffffffffffffffffffffffffffffffffffffffffffffffffffffffffff8214156142c1576142c06142cc565b5b600182019050919050565b7f4e487b7100000000000000000000000000000000000000000000000000000000600052601160045260246000fd5b7f4e487b7100000000000000000000000000000000000000000000000000000000600052602260045260246000fd5b7f4e487b7100000000000000000000000000000000000000000000000000000000600052604160045260246000fd5b6000601f19601f8301169050919050565b7f537472696e67733a20686578206c656e67746820696e73756666696369656e74600082015250565b7f45524332303a207472616e7366657220746f20746865207a65726f206164647260008201527f6573730000000000000000000000000000000000000000000000000000000000602082015250565b7f5061757361626c653a206e6f7420706175736564000000000000000000000000600082015250565b7f45524332303a206275726e20616d6f756e7420657863656564732062616c616e60008201527f6365000000000000000000000000000000000000000000000000000000000000602082015250565b7f45524332303a20617070726f766520746f20746865207a65726f20616464726560008201527f7373000000000000000000000000000000000000000000000000000000000000602082015250565b7f45524332303a20696e73756666696369656e7420616c6c6f77616e6365000000600082015250565b7f45524332303a207472616e7366657220616d6f756e742065786365656473206260008201527f616c616e63650000000000000000000000000000000000000000000000000000602082015250565b7f496e73756666696369656e74207661756c742062616c616e6365000000000000600082015250565b7f496e73756666696369656e742062616c616e6365000000000000000000000000600082015250565b7f416464726573733a20696e73756666696369656e742062616c616e636520666f60008201527f722063616c6c0000000000000000000000000000000000000000000000000000602082015250565b7f5061757361626c653a2070617573656400000000000000000000000000000000600082015250565b7f6465706f736974537061726b0000000000000000000000000000000000000000600082015250565b7f43616c6c6572206973206e6f7420617574686f72697a65640000000000000000600082015250565b7f45524332303a206275726e2066726f6d20746865207a65726f2061646472657360008201527f7300000000000000000000000000000000000000000000000000000000000000602082015250565b7f45524332303a207472616e736665722066726f6d20746865207a65726f20616460008201527f6472657373000000000000000000000000000000000000000000000000000000602082015250565b7f43616c6c6572206973206e6f7420616e2041646d696e00000000000000000000600082015250565b7f6465706f736974537061726b3a20496e76616c6964206e6574776f726b000000600082015250565b7f45524332303a20617070726f76652066726f6d20746865207a65726f2061646460008201527f7265737300000000000000000000000000000000000000000000000000000000602082015250565b7f416464726573733a2063616c6c20746f206e6f6e2d636f6e7472616374000000600082015250565b7f416363657373436f6e74726f6c3a206163636f756e7420000000000000000000600082015250565b7f5361666545524332303a204552433230206f7065726174696f6e20646964206e60008201527f6f74207375636365656400000000000000000000000000000000000000000000602082015250565b7f5265656e7472616e637947756172643a207265656e7472616e742063616c6c00600082015250565b7f5361666545524332303a20617070726f76652066726f6d206e6f6e2d7a65726f60008201527f20746f206e6f6e2d7a65726f20616c6c6f77616e636500000000000000000000602082015250565b7f45524332303a2064656372656173656420616c6c6f77616e63652062656c6f7760008201527f207a65726f000000000000000000000000000000000000000000000000000000602082015250565b7f206973206d697373696e6720726f6c6520000000000000000000000000000000600082015250565b7f416363657373436f6e74726f6c3a2063616e206f6e6c792072656e6f756e636560008201527f20726f6c657320666f722073656c660000000000000000000000000000000000602082015250565b7f45524332303a206d696e7420746f20746865207a65726f206164647265737300600082015250565b61498e81614109565b811461499957600080fd5b50565b6149a58161411b565b81146149b057600080fd5b50565b6149bc81614127565b81146149c757600080fd5b50565b6149d381614131565b81146149de57600080fd5b50565b6149ea8161418b565b81146149f557600080fd5b50565b614a0181614195565b8114614a0c57600080fd5b5056fea26469706673582212202c12edd80174e2a208650a2d5fefee1e727be540bd8f8e7e6e505fab4370c99f64736f6c63430008010033",
  "linkReferences": {},
  "deployedLinkReferences": {}
}