{
  "address": "0xD243266284806B27Dd7A2766298789602bf20F2a",
  "abi": [
    {
      "inputs": [
        {
          "internalType": "address",
          "name": "_kyodoTreasury",
          "type": "address"
        },
        {
          "internalType": "address",
          "name": "_communityDAO",
          "type": "address"
        },
        {
          "internalType": "address",
          "name": "admin",
          "type": "address"
        },
        {
          "internalType": "address",
          "name": "_router",
          "type": "address"
        },
        {
          "internalType": "address",
          "name": "_link",
          "type": "address"
        },
        {
          "internalType": "uint64",
          "name": "chainSelector",
          "type": "uint64"
        },
        {
          "internalType": "address",
          "name": "_stableVaultAddress",
          "type": "address"
        },
        {
          "internalType": "uint256[]",
          "name": "chainList",
          "type": "uint256[]"
        },
        {
          "internalType": "uint64[]",
          "name": "_chainSelectors",
          "type": "uint64[]"
        }
      ],
      "stateMutability": "nonpayable",
      "type": "constructor"
    },
    {
      "inputs": [],
      "name": "AccessControlBadConfirmation",
      "type": "error"
    },
    {
      "inputs": [
        {
          "internalType": "address",
          "name": "account",
          "type": "address"
        },
        {
          "internalType": "bytes32",
          "name": "neededRole",
          "type": "bytes32"
        }
      ],
      "name": "AccessControlUnauthorizedAccount",
      "type": "error"
    },
    {
      "inputs": [
        {
          "internalType": "uint64",
          "name": "destinationChainSelector",
          "type": "uint64"
        }
      ],
      "name": "DestinationChainNotWhitelisted",
      "type": "error"
    },
    {
      "inputs": [],
      "name": "EnforcedPause",
      "type": "error"
    },
    {
      "inputs": [],
      "name": "ExpectedPause",
      "type": "error"
    },
    {
      "inputs": [
        {
          "internalType": "uint256",
          "name": "currentBalance",
          "type": "uint256"
        },
        {
          "internalType": "uint256",
          "name": "calculatedFees",
          "type": "uint256"
        }
      ],
      "name": "NotEnoughBalance",
      "type": "error"
    },
    {
      "inputs": [],
      "name": "NothingToWithdraw",
      "type": "error"
    },
    {
      "inputs": [
        {
          "internalType": "address",
          "name": "owner",
          "type": "address"
        }
      ],
      "name": "OwnableInvalidOwner",
      "type": "error"
    },
    {
      "inputs": [
        {
          "internalType": "address",
          "name": "account",
          "type": "address"
        }
      ],
      "name": "OwnableUnauthorizedAccount",
      "type": "error"
    },
    {
      "anonymous": false,
      "inputs": [
        {
          "indexed": true,
          "internalType": "address",
          "name": "company",
          "type": "address"
        },
        {
          "indexed": true,
          "internalType": "address",
          "name": "professional",
          "type": "address"
        },
        {
          "indexed": false,
          "internalType": "uint256",
          "name": "agreementId",
          "type": "uint256"
        },
        {
          "indexed": false,
          "internalType": "uint256",
          "name": "amount",
          "type": "uint256"
        }
      ],
      "name": "AgreementCreated",
      "type": "event"
    },
    {
      "anonymous": false,
      "inputs": [
        {
          "indexed": true,
          "internalType": "address",
          "name": "new_admin",
          "type": "address"
        }
      ],
      "name": "NewAdminAdded",
      "type": "event"
    },
    {
      "anonymous": false,
      "inputs": [
        {
          "indexed": true,
          "internalType": "address",
          "name": "profile",
          "type": "address"
        }
      ],
      "name": "NewProfileAdded",
      "type": "event"
    },
    {
      "anonymous": false,
      "inputs": [
        {
          "indexed": true,
          "internalType": "address",
          "name": "previousOwner",
          "type": "address"
        },
        {
          "indexed": true,
          "internalType": "address",
          "name": "newOwner",
          "type": "address"
        }
      ],
      "name": "OwnershipTransferred",
      "type": "event"
    },
    {
      "anonymous": false,
      "inputs": [
        {
          "indexed": false,
          "internalType": "address",
          "name": "account",
          "type": "address"
        }
      ],
      "name": "Paused",
      "type": "event"
    },
    {
      "anonymous": false,
      "inputs": [
        {
          "indexed": true,
          "internalType": "address",
          "name": "company",
          "type": "address"
        },
        {
          "indexed": true,
          "internalType": "address",
          "name": "professional",
          "type": "address"
        },
        {
          "indexed": false,
          "internalType": "uint256",
          "name": "agreementId",
          "type": "uint256"
        },
        {
          "indexed": false,
          "internalType": "uint256",
          "name": "amount",
          "type": "uint256"
        }
      ],
      "name": "PaymentMade",
      "type": "event"
    },
    {
      "anonymous": false,
      "inputs": [
        {
          "indexed": true,
          "internalType": "address",
          "name": "removed_admin",
          "type": "address"
        }
      ],
      "name": "RemovedAdmin",
      "type": "event"
    },
    {
      "anonymous": false,
      "inputs": [
        {
          "indexed": true,
          "internalType": "bytes32",
          "name": "role",
          "type": "bytes32"
        },
        {
          "indexed": true,
          "internalType": "bytes32",
          "name": "previousAdminRole",
          "type": "bytes32"
        },
        {
          "indexed": true,
          "internalType": "bytes32",
          "name": "newAdminRole",
          "type": "bytes32"
        }
      ],
      "name": "RoleAdminChanged",
      "type": "event"
    },
    {
      "anonymous": false,
      "inputs": [
        {
          "indexed": true,
          "internalType": "bytes32",
          "name": "role",
          "type": "bytes32"
        },
        {
          "indexed": true,
          "internalType": "address",
          "name": "account",
          "type": "address"
        },
        {
          "indexed": true,
          "internalType": "address",
          "name": "sender",
          "type": "address"
        }
      ],
      "name": "RoleGranted",
      "type": "event"
    },
    {
      "anonymous": false,
      "inputs": [
        {
          "indexed": true,
          "internalType": "bytes32",
          "name": "role",
          "type": "bytes32"
        },
        {
          "indexed": true,
          "internalType": "address",
          "name": "account",
          "type": "address"
        },
        {
          "indexed": true,
          "internalType": "address",
          "name": "sender",
          "type": "address"
        }
      ],
      "name": "RoleRevoked",
      "type": "event"
    },
    {
      "anonymous": false,
      "inputs": [
        {
          "indexed": true,
          "internalType": "bytes32",
          "name": "messageId",
          "type": "bytes32"
        },
        {
          "indexed": true,
          "internalType": "uint64",
          "name": "destinationChainSelector",
          "type": "uint64"
        },
        {
          "indexed": false,
          "internalType": "address",
          "name": "receiver",
          "type": "address"
        },
        {
          "indexed": false,
          "internalType": "address",
          "name": "token",
          "type": "address"
        },
        {
          "indexed": false,
          "internalType": "uint256",
          "name": "tokenAmount",
          "type": "uint256"
        },
        {
          "indexed": false,
          "internalType": "address",
          "name": "feeToken",
          "type": "address"
        },
        {
          "indexed": false,
          "internalType": "uint256",
          "name": "fees",
          "type": "uint256"
        }
      ],
      "name": "TokensTransferred",
      "type": "event"
    },
    {
      "anonymous": false,
      "inputs": [
        {
          "indexed": false,
          "internalType": "address",
          "name": "account",
          "type": "address"
        }
      ],
      "name": "Unpaused",
      "type": "event"
    },
    {
      "inputs": [],
      "name": "CHANGE_PARAMETERS",
      "outputs": [
        {
          "internalType": "bytes32",
          "name": "",
          "type": "bytes32"
        }
      ],
      "stateMutability": "view",
      "type": "function"
    },
    {
      "inputs": [],
      "name": "DEFAULT_ADMIN_ROLE",
      "outputs": [
        {
          "internalType": "bytes32",
          "name": "",
          "type": "bytes32"
        }
      ],
      "stateMutability": "view",
      "type": "function"
    },
    {
      "inputs": [],
      "name": "StableVault",
      "outputs": [
        {
          "internalType": "contract IStableVault",
          "name": "",
          "type": "address"
        }
      ],
      "stateMutability": "view",
      "type": "function"
    },
    {
      "inputs": [
        {
          "internalType": "address",
          "name": "",
          "type": "address"
        }
      ],
      "name": "acceptedPaymentTokens",
      "outputs": [
        {
          "internalType": "bool",
          "name": "",
          "type": "bool"
        }
      ],
      "stateMutability": "view",
      "type": "function"
    },
    {
      "inputs": [
        {
          "internalType": "address",
          "name": "_tokenAddress",
          "type": "address"
        }
      ],
      "name": "addAcceptedPaymentToken",
      "outputs": [],
      "stateMutability": "nonpayable",
      "type": "function"
    },
    {
      "inputs": [
        {
          "internalType": "address",
          "name": "account",
          "type": "address"
        }
      ],
      "name": "addAdmin",
      "outputs": [],
      "stateMutability": "nonpayable",
      "type": "function"
    },
    {
      "inputs": [
        {
          "internalType": "address",
          "name": "account",
          "type": "address"
        }
      ],
      "name": "addProfile",
      "outputs": [],
      "stateMutability": "nonpayable",
      "type": "function"
    },
    {
      "inputs": [
        {
          "internalType": "uint256",
          "name": "",
          "type": "uint256"
        },
        {
          "internalType": "uint256",
          "name": "",
          "type": "uint256"
        }
      ],
      "name": "agreementSkills",
      "outputs": [
        {
          "internalType": "string",
          "name": "name",
          "type": "string"
        },
        {
          "internalType": "uint256",
          "name": "level",
          "type": "uint256"
        }
      ],
      "stateMutability": "view",
      "type": "function"
    },
    {
      "inputs": [
        {
          "internalType": "uint256",
          "name": "",
          "type": "uint256"
        }
      ],
      "name": "agreements",
      "outputs": [
        {
          "internalType": "uint256",
          "name": "id",
          "type": "uint256"
        },
        {
          "internalType": "string",
          "name": "title",
          "type": "string"
        },
        {
          "internalType": "string",
          "name": "description",
          "type": "string"
        },
        {
          "internalType": "enum IAgreementContract.AgreementStatus",
          "name": "status",
          "type": "uint8"
        },
        {
          "internalType": "address",
          "name": "company",
          "type": "address"
        },
        {
          "internalType": "address",
          "name": "professional",
          "type": "address"
        },
        {
          "internalType": "uint256",
          "name": "paymentAmount",
          "type": "uint256"
        },
        {
          "internalType": "uint256",
          "name": "totalPaid",
          "type": "uint256"
        }
      ],
      "stateMutability": "view",
      "type": "function"
    },
    {
      "inputs": [],
      "name": "communityDAO",
      "outputs": [
        {
          "internalType": "address",
          "name": "",
          "type": "address"
        }
      ],
      "stateMutability": "view",
      "type": "function"
    },
    {
      "inputs": [],
      "name": "communityDAOFee",
      "outputs": [
        {
          "internalType": "uint256",
          "name": "",
          "type": "uint256"
        }
      ],
      "stateMutability": "view",
      "type": "function"
    },
    {
      "inputs": [
        {
          "internalType": "address",
          "name": "",
          "type": "address"
        },
        {
          "internalType": "uint256",
          "name": "",
          "type": "uint256"
        }
      ],
      "name": "contractorAgreements",
      "outputs": [
        {
          "internalType": "uint256",
          "name": "",
          "type": "uint256"
        }
      ],
      "stateMutability": "view",
      "type": "function"
    },
    {
      "inputs": [
        {
          "internalType": "string",
          "name": "_title",
          "type": "string"
        },
        {
          "internalType": "string",
          "name": "_description",
          "type": "string"
        },
        {
          "internalType": "address",
          "name": "_professional",
          "type": "address"
        },
        {
          "components": [
            {
              "internalType": "string",
              "name": "name",
              "type": "string"
            },
            {
              "internalType": "uint256",
              "name": "level",
              "type": "uint256"
            }
          ],
          "internalType": "struct IAgreementContract.Skill[]",
          "name": "_skills",
          "type": "tuple[]"
        },
        {
          "internalType": "uint256",
          "name": "_paymentAmount",
          "type": "uint256"
        }
      ],
      "name": "createAgreement",
      "outputs": [],
      "stateMutability": "nonpayable",
      "type": "function"
    },
    {
      "inputs": [
        {
          "internalType": "uint256",
          "name": "",
          "type": "uint256"
        }
      ],
      "name": "crossChainCCIPConfigs",
      "outputs": [
        {
          "internalType": "uint64",
          "name": "chainSelector",
          "type": "uint64"
        },
        {
          "internalType": "address",
          "name": "vaultAddress",
          "type": "address"
        }
      ],
      "stateMutability": "view",
      "type": "function"
    },
    {
      "inputs": [
        {
          "internalType": "uint64",
          "name": "_destinationChainSelector",
          "type": "uint64"
        }
      ],
      "name": "denylistChain",
      "outputs": [],
      "stateMutability": "nonpayable",
      "type": "function"
    },
    {
      "inputs": [],
      "name": "feePercentage",
      "outputs": [
        {
          "internalType": "uint256",
          "name": "",
          "type": "uint256"
        }
      ],
      "stateMutability": "view",
      "type": "function"
    },
    {
      "inputs": [],
      "name": "getAcceptedPaymentTokens",
      "outputs": [
        {
          "internalType": "address",
          "name": "",
          "type": "address"
        }
      ],
      "stateMutability": "view",
      "type": "function"
    },
    {
      "inputs": [
        {
          "internalType": "uint256",
          "name": "_id",
          "type": "uint256"
        }
      ],
      "name": "getAgreementById",
      "outputs": [
        {
          "components": [
            {
              "internalType": "uint256",
              "name": "id",
              "type": "uint256"
            },
            {
              "internalType": "string",
              "name": "title",
              "type": "string"
            },
            {
              "internalType": "string",
              "name": "description",
              "type": "string"
            },
            {
              "internalType": "enum IAgreementContract.AgreementStatus",
              "name": "status",
              "type": "uint8"
            },
            {
              "internalType": "address",
              "name": "company",
              "type": "address"
            },
            {
              "internalType": "address",
              "name": "professional",
              "type": "address"
            },
            {
              "internalType": "uint256",
              "name": "paymentAmount",
              "type": "uint256"
            },
            {
              "internalType": "uint256",
              "name": "totalPaid",
              "type": "uint256"
            }
          ],
          "internalType": "struct IAgreementContract.Agreement",
          "name": "",
          "type": "tuple"
        }
      ],
      "stateMutability": "view",
      "type": "function"
    },
    {
      "inputs": [],
      "name": "getAgreementCount",
      "outputs": [
        {
          "internalType": "uint256",
          "name": "",
          "type": "uint256"
        }
      ],
      "stateMutability": "view",
      "type": "function"
    },
    {
      "inputs": [],
      "name": "getAllAgreements",
      "outputs": [
        {
          "components": [
            {
              "internalType": "uint256",
              "name": "id",
              "type": "uint256"
            },
            {
              "internalType": "string",
              "name": "title",
              "type": "string"
            },
            {
              "internalType": "string",
              "name": "description",
              "type": "string"
            },
            {
              "internalType": "enum IAgreementContract.AgreementStatus",
              "name": "status",
              "type": "uint8"
            },
            {
              "internalType": "address",
              "name": "company",
              "type": "address"
            },
            {
              "internalType": "address",
              "name": "professional",
              "type": "address"
            },
            {
              "internalType": "uint256",
              "name": "paymentAmount",
              "type": "uint256"
            },
            {
              "internalType": "uint256",
              "name": "totalPaid",
              "type": "uint256"
            }
          ],
          "internalType": "struct IAgreementContract.Agreement[]",
          "name": "",
          "type": "tuple[]"
        }
      ],
      "stateMutability": "view",
      "type": "function"
    },
    {
      "inputs": [],
      "name": "getChainID",
      "outputs": [
        {
          "internalType": "uint256",
          "name": "",
          "type": "uint256"
        }
      ],
      "stateMutability": "view",
      "type": "function"
    },
    {
      "inputs": [
        {
          "internalType": "address",
          "name": "_contractor",
          "type": "address"
        }
      ],
      "name": "getContractorAgreementIds",
      "outputs": [
        {
          "internalType": "uint256[]",
          "name": "",
          "type": "uint256[]"
        }
      ],
      "stateMutability": "view",
      "type": "function"
    },
    {
      "inputs": [
        {
          "internalType": "address",
          "name": "_professional",
          "type": "address"
        }
      ],
      "name": "getProfessionalAgreementIds",
      "outputs": [
        {
          "internalType": "uint256[]",
          "name": "",
          "type": "uint256[]"
        }
      ],
      "stateMutability": "view",
      "type": "function"
    },
    {
      "inputs": [
        {
          "internalType": "bytes32",
          "name": "role",
          "type": "bytes32"
        }
      ],
      "name": "getRoleAdmin",
      "outputs": [
        {
          "internalType": "bytes32",
          "name": "",
          "type": "bytes32"
        }
      ],
      "stateMutability": "view",
      "type": "function"
    },
    {
      "inputs": [
        {
          "internalType": "uint256",
          "name": "_agreementId",
          "type": "uint256"
        }
      ],
      "name": "getSkillsByAgreementId",
      "outputs": [
        {
          "components": [
            {
              "internalType": "string",
              "name": "name",
              "type": "string"
            },
            {
              "internalType": "uint256",
              "name": "level",
              "type": "uint256"
            }
          ],
          "internalType": "struct IAgreementContract.Skill[]",
          "name": "",
          "type": "tuple[]"
        }
      ],
      "stateMutability": "view",
      "type": "function"
    },
    {
      "inputs": [
        {
          "internalType": "bytes32",
          "name": "role",
          "type": "bytes32"
        },
        {
          "internalType": "address",
          "name": "account",
          "type": "address"
        }
      ],
      "name": "grantRole",
      "outputs": [],
      "stateMutability": "nonpayable",
      "type": "function"
    },
    {
      "inputs": [
        {
          "internalType": "bytes32",
          "name": "role",
          "type": "bytes32"
        },
        {
          "internalType": "address",
          "name": "account",
          "type": "address"
        }
      ],
      "name": "hasRole",
      "outputs": [
        {
          "internalType": "bool",
          "name": "",
          "type": "bool"
        }
      ],
      "stateMutability": "view",
      "type": "function"
    },
    {
      "inputs": [],
      "name": "kyodoTreasury",
      "outputs": [
        {
          "internalType": "address",
          "name": "",
          "type": "address"
        }
      ],
      "stateMutability": "view",
      "type": "function"
    },
    {
      "inputs": [],
      "name": "kyodoTreasuryFee",
      "outputs": [
        {
          "internalType": "uint256",
          "name": "",
          "type": "uint256"
        }
      ],
      "stateMutability": "view",
      "type": "function"
    },
    {
      "inputs": [
        {
          "internalType": "uint256",
          "name": "_agreementId",
          "type": "uint256"
        },
        {
          "internalType": "uint256",
          "name": "_amountToPay",
          "type": "uint256"
        },
        {
          "internalType": "address",
          "name": "_paymentAddress",
          "type": "address"
        }
      ],
      "name": "makePayment",
      "outputs": [],
      "stateMutability": "nonpayable",
      "type": "function"
    },
    {
      "inputs": [],
      "name": "nextAgreementId",
      "outputs": [
        {
          "internalType": "uint256",
          "name": "",
          "type": "uint256"
        }
      ],
      "stateMutability": "view",
      "type": "function"
    },
    {
      "inputs": [],
      "name": "owner",
      "outputs": [
        {
          "internalType": "address",
          "name": "",
          "type": "address"
        }
      ],
      "stateMutability": "view",
      "type": "function"
    },
    {
      "inputs": [],
      "name": "pause",
      "outputs": [],
      "stateMutability": "nonpayable",
      "type": "function"
    },
    {
      "inputs": [],
      "name": "paused",
      "outputs": [
        {
          "internalType": "bool",
          "name": "",
          "type": "bool"
        }
      ],
      "stateMutability": "view",
      "type": "function"
    },
    {
      "inputs": [
        {
          "internalType": "address",
          "name": "account",
          "type": "address"
        }
      ],
      "name": "removeAdmin",
      "outputs": [],
      "stateMutability": "nonpayable",
      "type": "function"
    },
    {
      "inputs": [
        {
          "internalType": "address",
          "name": "token",
          "type": "address"
        }
      ],
      "name": "removePaymentToken",
      "outputs": [],
      "stateMutability": "nonpayable",
      "type": "function"
    },
    {
      "inputs": [],
      "name": "renounceOwnership",
      "outputs": [],
      "stateMutability": "nonpayable",
      "type": "function"
    },
    {
      "inputs": [
        {
          "internalType": "bytes32",
          "name": "role",
          "type": "bytes32"
        },
        {
          "internalType": "address",
          "name": "callerConfirmation",
          "type": "address"
        }
      ],
      "name": "renounceRole",
      "outputs": [],
      "stateMutability": "nonpayable",
      "type": "function"
    },
    {
      "inputs": [
        {
          "internalType": "bytes32",
          "name": "role",
          "type": "bytes32"
        },
        {
          "internalType": "address",
          "name": "account",
          "type": "address"
        }
      ],
      "name": "revokeRole",
      "outputs": [],
      "stateMutability": "nonpayable",
      "type": "function"
    },
    {
      "inputs": [
        {
          "internalType": "uint256",
          "name": "chainId",
          "type": "uint256"
        },
        {
          "internalType": "uint64",
          "name": "chainSelector",
          "type": "uint64"
        },
        {
          "internalType": "address",
          "name": "vaultAddress",
          "type": "address"
        }
      ],
      "name": "setCrossChainConfigs",
      "outputs": [],
      "stateMutability": "nonpayable",
      "type": "function"
    },
    {
      "inputs": [
        {
          "internalType": "uint256",
          "name": "_feePercentage",
          "type": "uint256"
        },
        {
          "internalType": "uint256",
          "name": "_kyodoTreasuryFee",
          "type": "uint256"
        },
        {
          "internalType": "uint256",
          "name": "_communityDAOFee",
          "type": "uint256"
        }
      ],
      "name": "setFees",
      "outputs": [],
      "stateMutability": "nonpayable",
      "type": "function"
    },
    {
      "inputs": [
        {
          "internalType": "uint256",
          "name": "chainId",
          "type": "uint256"
        }
      ],
      "name": "setPreferredChain",
      "outputs": [],
      "stateMutability": "nonpayable",
      "type": "function"
    },
    {
      "inputs": [
        {
          "internalType": "address",
          "name": "_StableVaultAddress",
          "type": "address"
        }
      ],
      "name": "setStableVaultAddress",
      "outputs": [],
      "stateMutability": "nonpayable",
      "type": "function"
    },
    {
      "inputs": [
        {
          "internalType": "bytes4",
          "name": "interfaceId",
          "type": "bytes4"
        }
      ],
      "name": "supportsInterface",
      "outputs": [
        {
          "internalType": "bool",
          "name": "",
          "type": "bool"
        }
      ],
      "stateMutability": "view",
      "type": "function"
    },
    {
      "inputs": [
        {
          "internalType": "uint256",
          "name": "",
          "type": "uint256"
        }
      ],
      "name": "tokenAddresses",
      "outputs": [
        {
          "internalType": "address",
          "name": "",
          "type": "address"
        }
      ],
      "stateMutability": "view",
      "type": "function"
    },
    {
      "inputs": [
        {
          "internalType": "address",
          "name": "newOwner",
          "type": "address"
        }
      ],
      "name": "transferOwnership",
      "outputs": [],
      "stateMutability": "nonpayable",
      "type": "function"
    },
    {
      "inputs": [],
      "name": "unpause",
      "outputs": [],
      "stateMutability": "nonpayable",
      "type": "function"
    },
    {
      "inputs": [
        {
          "internalType": "address",
          "name": "",
          "type": "address"
        }
      ],
      "name": "userPreferredChain",
      "outputs": [
        {
          "internalType": "uint256",
          "name": "",
          "type": "uint256"
        }
      ],
      "stateMutability": "view",
      "type": "function"
    },
    {
      "inputs": [
        {
          "internalType": "uint64",
          "name": "_destinationChainSelector",
          "type": "uint64"
        }
      ],
      "name": "whitelistChain",
      "outputs": [],
      "stateMutability": "nonpayable",
      "type": "function"
    },
    {
      "inputs": [
        {
          "internalType": "uint64",
          "name": "",
          "type": "uint64"
        }
      ],
      "name": "whitelistedChains",
      "outputs": [
        {
          "internalType": "bool",
          "name": "",
          "type": "bool"
        }
      ],
      "stateMutability": "view",
      "type": "function"
    },
    {
      "inputs": [
        {
          "internalType": "address",
          "name": "_beneficiary",
          "type": "address"
        },
        {
          "internalType": "address",
          "name": "_token",
          "type": "address"
        }
      ],
      "name": "withdrawToken",
      "outputs": [],
      "stateMutability": "nonpayable",
      "type": "function"
    }
  ],
  "transactionHash": "0xb651d29e04f358c2a8f23045af118482686ae86a710aeca678d77c5913b6e6c7",
  "args": [
    "0x988d8063f521aa948FEc4AC1a4EDa72a5BdCBFb0",
    "0x89Bc14dC26dCd71713f583A0DD61f7470c7DE7d3",
    "0x988d8063f521aa948FEc4AC1a4EDa72a5BdCBFb0",
    "0x554472a2720e5e7d5d3c817529aba05eed5f82d8",
    "0x0b9d5D9136855f6FEc3c0993feE6E9CE8a297846",
    "14767482510784806043",
    "0xB903E186F6DFcF174750cBd616feAD6D5c9182e5",
    [
      "11155111",
      "420",
      "80001",
      "97",
      "84531",
      "43113",
      "31337"
    ],
    [
      "16015286601757825753",
      "2664363617261496610",
      "12532609583862916517",
      "13264668187771770619",
      "5790810961207155433",
      "14767482510784806043",
      "0"
    ]
  ],
  "numDeployments": 1,
  "solcInputHash": "8755c16be98c246db66453b09b3a4a17",
  "bytecode": "0x608060405260016005553480156200001657600080fd5b50604051620060bc380380620060bc83398181016040528101906200003c919062000905565b83868689808b6000600160006101000a81548160ff021916908315150217905550620000726000801b826200038960201b60201c565b50620000a57f73fd536265c26e6e13263018bc9d82a9b962a7857ae70dac847fd743f5e71535826200038960201b60201c565b5050600073ffffffffffffffffffffffffffffffffffffffff168173ffffffffffffffffffffffffffffffffffffffff16036200011c5760006040517f1e4fbdf700000000000000000000000000000000000000000000000000000000815260040162000113919062000a33565b60405180910390fd5b6200012d816200048c60201b60201c565b5082600260006101000a81548173ffffffffffffffffffffffffffffffffffffffff021916908373ffffffffffffffffffffffffffffffffffffffff16021790555081600360006101000a81548173ffffffffffffffffffffffffffffffffffffffff021916908373ffffffffffffffffffffffffffffffffffffffff16021790555083600360146101000a81548167ffffffffffffffff021916908367ffffffffffffffff16021790555050505050805182511462000224576040517f08c379a00000000000000000000000000000000000000000000000000000000081526004016200021b9062000ad7565b60405180910390fd5b82600e60006101000a81548173ffffffffffffffffffffffffffffffffffffffff021916908373ffffffffffffffffffffffffffffffffffffffff16021790555088600f60006101000a81548173ffffffffffffffffffffffffffffffffffffffff021916908373ffffffffffffffffffffffffffffffffffffffff16021790555087601060006101000a81548173ffffffffffffffffffffffffffffffffffffffff021916908373ffffffffffffffffffffffffffffffffffffffff16021790555060005b825181101562000379578181815181106200030a576200030962000af9565b5b6020026020010151600760008584815181106200032c576200032b62000af9565b5b6020026020010151815260200190815260200160002060000160006101000a81548167ffffffffffffffff021916908367ffffffffffffffff1602179055508080600101915050620002ea565b5050505050505050505062000b28565b60006200039d83836200054f60201b60201c565b6200048157600160008085815260200190815260200160002060000160008473ffffffffffffffffffffffffffffffffffffffff1673ffffffffffffffffffffffffffffffffffffffff16815260200190815260200160002060006101000a81548160ff0219169083151502179055506200041d620005b960201b60201c565b73ffffffffffffffffffffffffffffffffffffffff168273ffffffffffffffffffffffffffffffffffffffff16847f2f8788117e7eff1d82e926ec794901d17c78024a50270940304540a733656f0d60405160405180910390a46001905062000486565b600090505b92915050565b600060018054906101000a900473ffffffffffffffffffffffffffffffffffffffff169050816001806101000a81548173ffffffffffffffffffffffffffffffffffffffff021916908373ffffffffffffffffffffffffffffffffffffffff1602179055508173ffffffffffffffffffffffffffffffffffffffff168173ffffffffffffffffffffffffffffffffffffffff167f8be0079c531659141344cd1fd0a4f28419497f9722a3daafe3b4186f6b6457e060405160405180910390a35050565b600080600084815260200190815260200160002060000160008373ffffffffffffffffffffffffffffffffffffffff1673ffffffffffffffffffffffffffffffffffffffff16815260200190815260200160002060009054906101000a900460ff16905092915050565b600033905090565b6000604051905090565b600080fd5b600080fd5b600073ffffffffffffffffffffffffffffffffffffffff82169050919050565b60006200060282620005d5565b9050919050565b6200061481620005f5565b81146200062057600080fd5b50565b600081519050620006348162000609565b92915050565b600067ffffffffffffffff82169050919050565b62000659816200063a565b81146200066557600080fd5b50565b60008151905062000679816200064e565b92915050565b600080fd5b6000601f19601f8301169050919050565b7f4e487b7100000000000000000000000000000000000000000000000000000000600052604160045260246000fd5b620006cf8262000684565b810181811067ffffffffffffffff82111715620006f157620006f062000695565b5b80604052505050565b600062000706620005c1565b9050620007148282620006c4565b919050565b600067ffffffffffffffff82111562000737576200073662000695565b5b602082029050602081019050919050565b600080fd5b6000819050919050565b62000762816200074d565b81146200076e57600080fd5b50565b600081519050620007828162000757565b92915050565b60006200079f620007998462000719565b620006fa565b90508083825260208201905060208402830185811115620007c557620007c462000748565b5b835b81811015620007f25780620007dd888262000771565b845260208401935050602081019050620007c7565b5050509392505050565b600082601f8301126200081457620008136200067f565b5b81516200082684826020860162000788565b91505092915050565b600067ffffffffffffffff8211156200084d576200084c62000695565b5b602082029050602081019050919050565b6000620008756200086f846200082f565b620006fa565b905080838252602082019050602084028301858111156200089b576200089a62000748565b5b835b81811015620008c85780620008b3888262000668565b8452602084019350506020810190506200089d565b5050509392505050565b600082601f830112620008ea57620008e96200067f565b5b8151620008fc8482602086016200085e565b91505092915050565b60008060008060008060008060006101208a8c0312156200092b576200092a620005cb565b5b60006200093b8c828d0162000623565b99505060206200094e8c828d0162000623565b9850506040620009618c828d0162000623565b9750506060620009748c828d0162000623565b9650506080620009878c828d0162000623565b95505060a06200099a8c828d0162000668565b94505060c0620009ad8c828d0162000623565b93505060e08a015167ffffffffffffffff811115620009d157620009d0620005d0565b5b620009df8c828d01620007fc565b9250506101008a015167ffffffffffffffff81111562000a045762000a03620005d0565b5b62000a128c828d01620008d2565b9150509295985092959850929598565b62000a2d81620005f5565b82525050565b600060208201905062000a4a600083018462000a22565b92915050565b600082825260208201905092915050565b7f436861696e6c69737420616e6420436861696e53656c6563746f7273206c656e60008201527f6774682073686f756c64206265207468652073616d652073697a652e00000000602082015250565b600062000abf603c8362000a50565b915062000acc8262000a61565b604082019050919050565b6000602082019050818103600083015262000af28162000ab0565b9050919050565b7f4e487b7100000000000000000000000000000000000000000000000000000000600052603260045260246000fd5b6155848062000b386000396000f3fe608060405234801561001057600080fd5b50600436106102f05760003560e01c80638207546e1161019d578063c391d858116100e9578063d547741f116100a2578063f2fde38b1161007c578063f2fde38b1461090d578063f38d215d14610929578063fc3f5dff14610959578063feb6b0cc14610975576102f0565b8063d547741f146108a3578063e5df8b84146108bf578063f2d64a96146108ef576102f0565b8063c391d858146107e3578063c9b99dab14610813578063c9e9290514610831578063ce6d88e51461084f578063cec10c111461086b578063d345ac7d14610887576102f0565b8063a001ecdd11610156578063a512542111610130578063a512542114610744578063a861367614610760578063b3f8cb001461077c578063bd14de96146107ac576102f0565b8063a001ecdd146106ec578063a06ee2db1461070a578063a217fddf14610726576102f0565b80638207546e146106285780638456cb59146106465780638da5cb5b146106505780638ee0344f1461066e57806391d148541461069e578063964bb4ab146106ce576102f0565b8063484bb2441161025c5780635c975abb11610215578063715018a6116101ef578063715018a6146105b2578063763574f6146105bc57806377be3d2f146105ec5780637d2399071461060a576102f0565b80635c975abb1461055c5780636334cb511461057a5780637048027514610596576102f0565b8063484bb244146104725780634e6873c7146104a25780634e92fafd146104c05780634f7cd72f146104f0578063564b81ef1461050e578063573fb6241461052c576102f0565b806329db7493116102ae57806329db7493146103c75780632f2ff15d146103f857806334625dcc1461041457806336568abe146104305780633aeac4e11461044c5780633f4ba83a14610468576102f0565b80628bed3e146102f557806301ffc9a71461031357806310143a641461034357806313cda3b71461035f5780631785f53c1461037b578063248a9ca314610397575b600080fd5b6102fd6109a6565b60405161030a919061389b565b60405180910390f35b61032d60048036038101906103289190613922565b6109b3565b60405161033a919061396a565b60405180910390f35b61035d600480360381019061035891906139e3565b610a2d565b005b610379600480360381019061037491906139e3565b610aa6565b005b610395600480360381019061039091906139e3565b610b72565b005b6103b160048036038101906103ac9190613a46565b610bdc565b6040516103be9190613a82565b60405180910390f35b6103e160048036038101906103dc9190613ac9565b610bfb565b6040516103ef929190613b99565b60405180910390f35b610412600480360381019061040d9190613bc9565b610cc4565b005b61042e60048036038101906104299190613c49565b610ce6565b005b61044a60048036038101906104459190613bc9565b610d31565b005b61046660048036038101906104619190613c76565b610dac565b005b610470610ef0565b005b61048c600480360381019061048791906139e3565b610f10565b604051610499919061396a565b60405180910390f35b6104aa610f30565b6040516104b79190613f0e565b60405180910390f35b6104da60048036038101906104d591906139e3565b6111b9565b6040516104e79190613fdf565b60405180910390f35b6104f8611250565b6040516105059190613a82565b60405180910390f35b610516611274565b604051610523919061389b565b60405180910390f35b61054660048036038101906105419190614001565b611281565b60405161055391906140e5565b60405180910390f35b610564611547565b604051610571919061396a565b60405180910390f35b610594600480360381019061058f9190614001565b61155e565b005b6105b060048036038101906105ab91906139e3565b6115a5565b005b6105ba61160f565b005b6105d660048036038101906105d19190613c49565b611623565b6040516105e3919061396a565b60405180910390f35b6105f4611643565b6040516106019190614116565b60405180910390f35b61061261168a565b60405161061f919061389b565b60405180910390f35b610630611690565b60405161063d9190614116565b60405180910390f35b61064e6116b6565b005b6106586116d6565b6040516106659190614116565b60405180910390f35b610688600480360381019061068391906139e3565b6116fe565b6040516106959190613fdf565b60405180910390f35b6106b860048036038101906106b39190613bc9565b611795565b6040516106c5919061396a565b60405180910390f35b6106d66117ff565b6040516106e39190614116565b60405180910390f35b6106f4611825565b604051610701919061389b565b60405180910390f35b610724600480360381019061071f91906139e3565b61182b565b005b61072e61187d565b60405161073b9190613a82565b60405180910390f35b61075e600480360381019061075991906139e3565b611884565b005b61077a600480360381019061077591906143c2565b6118ed565b005b61079660048036038101906107919190614001565b611eb7565b6040516107a39190614590565b60405180910390f35b6107c660048036038101906107c19190614001565b611fc5565b6040516107da9897969594939291906145c1565b60405180910390f35b6107fd60048036038101906107f891906139e3565b61217a565b60405161080a919061389b565b60405180910390f35b61081b612192565b604051610828919061389b565b60405180910390f35b610839612198565b604051610846919061389b565b60405180910390f35b6108696004803603810190610864919061464d565b61219e565b005b610885600480360381019061088091906146a0565b61223d565b005b6108a1600480360381019061089c9190613c49565b6122b7565b005b6108bd60048036038101906108b89190613bc9565b612302565b005b6108d960048036038101906108d49190614001565b612324565b6040516108e69190614116565b60405180910390f35b6108f7612363565b6040516109049190614752565b60405180910390f35b610927600480360381019061092291906139e3565b612389565b005b610943600480360381019061093e919061476d565b61240f565b604051610950919061389b565b60405180910390f35b610973600480360381019061096e91906147ad565b612440565b005b61098f600480360381019061098a9190614001565b612b2a565b60405161099d92919061480f565b60405180910390f35b6000600680549050905090565b60007f7965db0b000000000000000000000000000000000000000000000000000000007bffffffffffffffffffffffffffffffffffffffffffffffffffffffff1916827bffffffffffffffffffffffffffffffffffffffffffffffffffffffff19161480610a265750610a2582612b82565b5b9050919050565b610a35612bec565b610a5f7f73fd536265c26e6e13263018bc9d82a9b962a7857ae70dac847fd743f5e7153582612c2d565b508073ffffffffffffffffffffffffffffffffffffffff167f92364d7c14d8a26a040c77305dd885fcd5898051d1b1ead4189b09d5f091159060405160405180910390a250565b6000801b610ab381612d1e565b6001600b60008473ffffffffffffffffffffffffffffffffffffffff1673ffffffffffffffffffffffffffffffffffffffff16815260200190815260200160002060006101000a81548160ff021916908315150217905550600d829080600181540180825580915050600190039060005260206000200160009091909190916101000a81548173ffffffffffffffffffffffffffffffffffffffff021916908373ffffffffffffffffffffffffffffffffffffffff1602179055505050565b6000801b610b7f81612d1e565b610b87612bec565b610b946000801b83612d32565b508173ffffffffffffffffffffffffffffffffffffffff167f3137a7fedbfedb7895dfa5a6812a4566dae9ded68d00aeec13c6ed1fa84a1c8060405160405180910390a25050565b6000806000838152602001908152602001600020600101549050919050565b600c6020528160005260406000208181548110610c1757600080fd5b906000526020600020906002020160009150915050806000018054610c3b90614867565b80601f0160208091040260200160405190810160405280929190818152602001828054610c6790614867565b8015610cb45780601f10610c8957610100808354040283529160200191610cb4565b820191906000526020600020905b815481529060010190602001808311610c9757829003601f168201915b5050505050908060010154905082565b610ccd82610bdc565b610cd681612d1e565b610ce08383612c2d565b50505050565b610cee612e24565b6000600460008367ffffffffffffffff1667ffffffffffffffff16815260200190815260200160002060006101000a81548160ff02191690831515021790555050565b610d39612eab565b73ffffffffffffffffffffffffffffffffffffffff168173ffffffffffffffffffffffffffffffffffffffff1614610d9d576040517f6697b23200000000000000000000000000000000000000000000000000000000815260040160405180910390fd5b610da78282612d32565b505050565b610db4612e24565b60008173ffffffffffffffffffffffffffffffffffffffff166370a08231306040518263ffffffff1660e01b8152600401610def9190614116565b602060405180830381865afa158015610e0c573d6000803e3d6000fd5b505050506040513d601f19601f82011682018060405250810190610e3091906148ad565b905060008103610e6c576040517fd0d04f6000000000000000000000000000000000000000000000000000000000815260040160405180910390fd5b8173ffffffffffffffffffffffffffffffffffffffff1663a9059cbb84836040518363ffffffff1660e01b8152600401610ea79291906148da565b6020604051808303816000875af1158015610ec6573d6000803e3d6000fd5b505050506040513d601f19601f82011682018060405250810190610eea919061492f565b50505050565b6000801b610efd81612d1e565b610f05612eb3565b610f0d612ef3565b50565b600b6020528060005260406000206000915054906101000a900460ff1681565b60606006805480602002602001604051908101604052809291908181526020016000905b828210156111b057838290600052602060002090600702016040518061010001604052908160008201548152602001600182018054610f9290614867565b80601f0160208091040260200160405190810160405280929190818152602001828054610fbe90614867565b801561100b5780601f10610fe05761010080835404028352916020019161100b565b820191906000526020600020905b815481529060010190602001808311610fee57829003601f168201915b5050505050815260200160028201805461102490614867565b80601f016020809104026020016040519081016040528092919081815260200182805461105090614867565b801561109d5780601f106110725761010080835404028352916020019161109d565b820191906000526020600020905b81548152906001019060200180831161108057829003601f168201915b505050505081526020016003820160009054906101000a900460ff1660018111156110cb576110ca613d3b565b5b60018111156110dd576110dc613d3b565b5b81526020016003820160019054906101000a900473ffffffffffffffffffffffffffffffffffffffff1673ffffffffffffffffffffffffffffffffffffffff1673ffffffffffffffffffffffffffffffffffffffff1681526020016004820160009054906101000a900473ffffffffffffffffffffffffffffffffffffffff1673ffffffffffffffffffffffffffffffffffffffff1673ffffffffffffffffffffffffffffffffffffffff1681526020016005820154815260200160068201548152505081526020019060010190610f54565b50505050905090565b6060600a60008373ffffffffffffffffffffffffffffffffffffffff1673ffffffffffffffffffffffffffffffffffffffff16815260200190815260200160002080548060200260200160405190810160405280929190818152602001828054801561124457602002820191906000526020600020905b815481526020019060010190808311611230575b50505050509050919050565b7f73fd536265c26e6e13263018bc9d82a9b962a7857ae70dac847fd743f5e7153581565b6000804690508091505090565b6112896137cf565b60008211801561129e57506006805490508211155b6112dd576040517f08c379a00000000000000000000000000000000000000000000000000000000081526004016112d4906149a8565b60405180910390fd5b60066001836112ec91906149f7565b815481106112fd576112fc614a2b565b5b9060005260206000209060070201604051806101000160405290816000820154815260200160018201805461133190614867565b80601f016020809104026020016040519081016040528092919081815260200182805461135d90614867565b80156113aa5780601f1061137f576101008083540402835291602001916113aa565b820191906000526020600020905b81548152906001019060200180831161138d57829003601f168201915b505050505081526020016002820180546113c390614867565b80601f01602080910402602001604051908101604052809291908181526020018280546113ef90614867565b801561143c5780601f106114115761010080835404028352916020019161143c565b820191906000526020600020905b81548152906001019060200180831161141f57829003601f168201915b505050505081526020016003820160009054906101000a900460ff16600181111561146a57611469613d3b565b5b600181111561147c5761147b613d3b565b5b81526020016003820160019054906101000a900473ffffffffffffffffffffffffffffffffffffffff1673ffffffffffffffffffffffffffffffffffffffff1673ffffffffffffffffffffffffffffffffffffffff1681526020016004820160009054906101000a900473ffffffffffffffffffffffffffffffffffffffff1673ffffffffffffffffffffffffffffffffffffffff1673ffffffffffffffffffffffffffffffffffffffff168152602001600582015481526020016006820154815250509050919050565b6000600160009054906101000a900460ff16905090565b80600860003373ffffffffffffffffffffffffffffffffffffffff1673ffffffffffffffffffffffffffffffffffffffff1681526020019081526020016000208190555050565b6000801b6115b281612d1e565b6115ba612bec565b6115c76000801b83612c2d565b508173ffffffffffffffffffffffffffffffffffffffff167f2dbe9fb88463d989acccabbb6ee06901f83672eb78e04a11ff48dd8f69a27cda60405160405180910390a25050565b611617612e24565b6116216000612f56565b565b60046020528060005260406000206000915054906101000a900460ff1681565b6000600d60008154811061165a57611659614a2b565b5b9060005260206000200160009054906101000a900473ffffffffffffffffffffffffffffffffffffffff16905090565b60125481565b601060009054906101000a900473ffffffffffffffffffffffffffffffffffffffff1681565b6000801b6116c381612d1e565b6116cb612bec565b6116d3613019565b50565b600060018054906101000a900473ffffffffffffffffffffffffffffffffffffffff16905090565b6060600960008373ffffffffffffffffffffffffffffffffffffffff1673ffffffffffffffffffffffffffffffffffffffff16815260200190815260200160002080548060200260200160405190810160405280929190818152602001828054801561178957602002820191906000526020600020905b815481526020019060010190808311611775575b50505050509050919050565b600080600084815260200190815260200160002060000160008373ffffffffffffffffffffffffffffffffffffffff1673ffffffffffffffffffffffffffffffffffffffff16815260200190815260200160002060009054906101000a900460ff16905092915050565b600f60009054906101000a900473ffffffffffffffffffffffffffffffffffffffff1681565b60115481565b6000801b61183881612d1e565b81600e60006101000a81548173ffffffffffffffffffffffffffffffffffffffff021916908373ffffffffffffffffffffffffffffffffffffffff1602179055505050565b6000801b81565b6000801b61189181612d1e565b6000600b60008473ffffffffffffffffffffffffffffffffffffffff1673ffffffffffffffffffffffffffffffffffffffff16815260200190815260200160002060006101000a81548160ff0219169083151502179055505050565b600073ffffffffffffffffffffffffffffffffffffffff168373ffffffffffffffffffffffffffffffffffffffff160361195c576040517f08c379a000000000000000000000000000000000000000000000000000000000815260040161195390614acc565b60405180910390fd5b60008251116119a0576040517f08c379a000000000000000000000000000000000000000000000000000000000815260040161199790614b38565b60405180910390fd5b600081116119e3576040517f08c379a00000000000000000000000000000000000000000000000000000000081526004016119da90614bca565b60405180910390fd5b3373ffffffffffffffffffffffffffffffffffffffff168373ffffffffffffffffffffffffffffffffffffffff1603611a51576040517f08c379a0000000000000000000000000000000000000000000000000000000008152600401611a4890614c5c565b60405180910390fd5b6000805b8351811015611a9757838181518110611a7157611a70614a2b565b5b60200260200101516020015182611a889190614c7c565b91508080600101915050611a55565b506064811115611adc576040517f08c379a0000000000000000000000000000000000000000000000000000000008152600401611ad390614d22565b60405180910390fd5b6000604051806101000160405280600554815260200188815260200187815260200160006001811115611b1257611b11613d3b565b5b81526020013373ffffffffffffffffffffffffffffffffffffffff1681526020018673ffffffffffffffffffffffffffffffffffffffff1681526020018481526020016000815250905060005b8451811015611c2657600c600060055481526020019081526020016000206040518060400160405280878481518110611b9b57611b9a614a2b565b5b6020026020010151600001518152602001878481518110611bbf57611bbe614a2b565b5b60200260200101516020015181525090806001815401808255809150506001900390600052602060002090600202016000909190919091506000820151816000019081611c0c9190614ee4565b506020820151816001015550508080600101915050611b5f565b506006819080600181540180825580915050600190039060005260206000209060070201600090919091909150600082015181600001556020820151816001019081611c729190614ee4565b506040820151816002019081611c889190614ee4565b5060608201518160030160006101000a81548160ff02191690836001811115611cb457611cb3613d3b565b5b021790555060808201518160030160016101000a81548173ffffffffffffffffffffffffffffffffffffffff021916908373ffffffffffffffffffffffffffffffffffffffff16021790555060a08201518160040160006101000a81548173ffffffffffffffffffffffffffffffffffffffff021916908373ffffffffffffffffffffffffffffffffffffffff16021790555060c0820151816005015560e082015181600601555050600960003373ffffffffffffffffffffffffffffffffffffffff1673ffffffffffffffffffffffffffffffffffffffff1681526020019081526020016000206005549080600181540180825580915050600190039060005260206000200160009091909190915055600a60008673ffffffffffffffffffffffffffffffffffffffff1673ffffffffffffffffffffffffffffffffffffffff16815260200190815260200160002060055490806001815401808255809150506001900390600052602060002001600090919091909150558473ffffffffffffffffffffffffffffffffffffffff163373ffffffffffffffffffffffffffffffffffffffff167f4969d8f058da37f5b596425a39904e9a027ac23d1865d6efd5df5a5e24eef7de60055486604051611e8e929190614fb6565b60405180910390a360056000815480929190611ea990614fdf565b919050555050505050505050565b6060600c6000838152602001908152602001600020805480602002602001604051908101604052809291908181526020016000905b82821015611fba5783829060005260206000209060020201604051806040016040529081600082018054611f1f90614867565b80601f0160208091040260200160405190810160405280929190818152602001828054611f4b90614867565b8015611f985780601f10611f6d57610100808354040283529160200191611f98565b820191906000526020600020905b815481529060010190602001808311611f7b57829003601f168201915b5050505050815260200160018201548152505081526020019060010190611eec565b505050509050919050565b60068181548110611fd557600080fd5b9060005260206000209060070201600091509050806000015490806001018054611ffe90614867565b80601f016020809104026020016040519081016040528092919081815260200182805461202a90614867565b80156120775780601f1061204c57610100808354040283529160200191612077565b820191906000526020600020905b81548152906001019060200180831161205a57829003601f168201915b50505050509080600201805461208c90614867565b80601f01602080910402602001604051908101604052809291908181526020018280546120b890614867565b80156121055780601f106120da57610100808354040283529160200191612105565b820191906000526020600020905b8154815290600101906020018083116120e857829003601f168201915b5050505050908060030160009054906101000a900460ff16908060030160019054906101000a900473ffffffffffffffffffffffffffffffffffffffff16908060040160009054906101000a900473ffffffffffffffffffffffffffffffffffffffff16908060050154908060060154905088565b60086020528060005260406000206000915090505481565b60055481565b60135481565b6121a6612e24565b816007600085815260200190815260200160002060000160006101000a81548167ffffffffffffffff021916908367ffffffffffffffff160217905550806007600085815260200190815260200160002060000160086101000a81548173ffffffffffffffffffffffffffffffffffffffff021916908373ffffffffffffffffffffffffffffffffffffffff160217905550505050565b6000801b61224a81612d1e565b6000841015801561225d57506103e88411155b61229c576040517f08c379a000000000000000000000000000000000000000000000000000000000815260040161229390615073565b60405180910390fd5b83601181905550826012819055508160138190555050505050565b6122bf612e24565b6001600460008367ffffffffffffffff1667ffffffffffffffff16815260200190815260200160002060006101000a81548160ff02191690831515021790555050565b61230b82610bdc565b61231481612d1e565b61231e8383612d32565b50505050565b600d818154811061233457600080fd5b906000526020600020016000915054906101000a900473ffffffffffffffffffffffffffffffffffffffff1681565b600e60009054906101000a900473ffffffffffffffffffffffffffffffffffffffff1681565b612391612e24565b600073ffffffffffffffffffffffffffffffffffffffff168173ffffffffffffffffffffffffffffffffffffffff16036124035760006040517f1e4fbdf70000000000000000000000000000000000000000000000000000000081526004016123fa9190614116565b60405180910390fd5b61240c81612f56565b50565b6009602052816000526040600020818154811061242b57600080fd5b90600052602060002001600091509150505481565b60008311801561245557506006805490508311155b612494576040517f08c379a000000000000000000000000000000000000000000000000000000000815260040161248b906149a8565b60405180910390fd5b600b60008273ffffffffffffffffffffffffffffffffffffffff1673ffffffffffffffffffffffffffffffffffffffff16815260200190815260200160002060009054906101000a900460ff16612520576040517f08c379a0000000000000000000000000000000000000000000000000000000008152600401612517906150df565b60405180910390fd5b6000600660018561253191906149f7565b8154811061254257612541614a2b565b5b906000526020600020906007020190506000806000806000808790506103e8601154029550620f42408987028161257c5761257b6150ff565b5b0494506103e8601254860281612595576125946150ff565b5b049350838503925084890391508073ffffffffffffffffffffffffffffffffffffffff166323b872dd33308c6040518463ffffffff1660e01b81526004016125df9392919061512e565b6020604051808303816000875af11580156125fe573d6000803e3d6000fd5b505050506040513d601f19601f82011682018060405250810190612622919061492f565b612661576040517f08c379a0000000000000000000000000000000000000000000000000000000008152600401612658906151d7565b60405180910390fd5b8073ffffffffffffffffffffffffffffffffffffffff1663095ea7b3600e60009054906101000a900473ffffffffffffffffffffffffffffffffffffffff168b6040518363ffffffff1660e01b81526004016126be9291906148da565b6020604051808303816000875af11580156126dd573d6000803e3d6000fd5b505050506040513d601f19601f82011682018060405250810190612701919061492f565b50600e60009054906101000a900473ffffffffffffffffffffffffffffffffffffffff1673ffffffffffffffffffffffffffffffffffffffff16632e2d29848583600f60009054906101000a900473ffffffffffffffffffffffffffffffffffffffff166040518463ffffffff1660e01b8152600401612783939291906151f7565b6020604051808303816000875af11580156127a2573d6000803e3d6000fd5b505050506040513d601f19601f820116820180604052508101906127c6919061492f565b50600e60009054906101000a900473ffffffffffffffffffffffffffffffffffffffff1673ffffffffffffffffffffffffffffffffffffffff16632e2d29848483601060009054906101000a900473ffffffffffffffffffffffffffffffffffffffff166040518463ffffffff1660e01b8152600401612848939291906151f7565b6020604051808303816000875af1158015612867573d6000803e3d6000fd5b505050506040513d601f19601f8201168201806040525081019061288b919061492f565b506000600860008960040160009054906101000a900473ffffffffffffffffffffffffffffffffffffffff1673ffffffffffffffffffffffffffffffffffffffff1673ffffffffffffffffffffffffffffffffffffffff1681526020019081526020016000205490506000810361290757612904611274565b90505b61290f611274565b81036129e157600e60009054906101000a900473ffffffffffffffffffffffffffffffffffffffff1673ffffffffffffffffffffffffffffffffffffffff16632e2d298484848b60040160009054906101000a900473ffffffffffffffffffffffffffffffffffffffff166040518463ffffffff1660e01b8152600401612998939291906151f7565b6020604051808303816000875af11580156129b7573d6000803e3d6000fd5b505050506040513d601f19601f820116820180604052508101906129db919061492f565b50612a80565b60006007600083815260200190815260200160002060000160009054906101000a900467ffffffffffffffff16905060006007600084815260200190815260200160002060000160089054906101000a900473ffffffffffffffffffffffffffffffffffffffff169050612a7c82828c60040160009054906101000a900473ffffffffffffffffffffffffffffffffffffffff168e8961307b565b5050505b8988600601600082825401925050819055508760040160009054906101000a900473ffffffffffffffffffffffffffffffffffffffff1673ffffffffffffffffffffffffffffffffffffffff163373ffffffffffffffffffffffffffffffffffffffff167f1f004c54eef332ef6912dae8f1775c102da23bec79ccf602eaaa072938e96b678d8d604051612b15929190614fb6565b60405180910390a35050505050505050505050565b60076020528060005260406000206000915090508060000160009054906101000a900467ffffffffffffffff16908060000160089054906101000a900473ffffffffffffffffffffffffffffffffffffffff16905082565b60007f01ffc9a7000000000000000000000000000000000000000000000000000000007bffffffffffffffffffffffffffffffffffffffffffffffffffffffff1916827bffffffffffffffffffffffffffffffffffffffffffffffffffffffff1916149050919050565b612bf4611547565b15612c2b576040517fd93c066500000000000000000000000000000000000000000000000000000000815260040160405180910390fd5b565b6000612c398383611795565b612d1357600160008085815260200190815260200160002060000160008473ffffffffffffffffffffffffffffffffffffffff1673ffffffffffffffffffffffffffffffffffffffff16815260200190815260200160002060006101000a81548160ff021916908315150217905550612cb0612eab565b73ffffffffffffffffffffffffffffffffffffffff168273ffffffffffffffffffffffffffffffffffffffff16847f2f8788117e7eff1d82e926ec794901d17c78024a50270940304540a733656f0d60405160405180910390a460019050612d18565b600090505b92915050565b612d2f81612d2a612eab565b6136ff565b50565b6000612d3e8383611795565b15612e1957600080600085815260200190815260200160002060000160008473ffffffffffffffffffffffffffffffffffffffff1673ffffffffffffffffffffffffffffffffffffffff16815260200190815260200160002060006101000a81548160ff021916908315150217905550612db6612eab565b73ffffffffffffffffffffffffffffffffffffffff168273ffffffffffffffffffffffffffffffffffffffff16847ff6391f5c32d9c69d2a47ea670b442974b53935d1edc7fd64eb21e047a839171b60405160405180910390a460019050612e1e565b600090505b92915050565b612e2c612eab565b73ffffffffffffffffffffffffffffffffffffffff16612e4a6116d6565b73ffffffffffffffffffffffffffffffffffffffff1614612ea957612e6d612eab565b6040517f118cdaa7000000000000000000000000000000000000000000000000000000008152600401612ea09190614116565b60405180910390fd5b565b600033905090565b612ebb611547565b612ef1576040517f8dfc202b00000000000000000000000000000000000000000000000000000000815260040160405180910390fd5b565b612efb612eb3565b6000600160006101000a81548160ff0219169083151502179055507f5db9ee0a495bf2e6ff9c91a7834c1ba4fdd244a5e8aa4e537bd38aeae4b073aa612f3f612eab565b604051612f4c9190614116565b60405180910390a1565b600060018054906101000a900473ffffffffffffffffffffffffffffffffffffffff169050816001806101000a81548173ffffffffffffffffffffffffffffffffffffffff021916908373ffffffffffffffffffffffffffffffffffffffff1602179055508173ffffffffffffffffffffffffffffffffffffffff168173ffffffffffffffffffffffffffffffffffffffff167f8be0079c531659141344cd1fd0a4f28419497f9722a3daafe3b4186f6b6457e060405160405180910390a35050565b613021612bec565b60018060006101000a81548160ff0219169083151502179055507f62e78cea01bee320cd4e420270b5ea74000d11b0c9f74754ebdbfc544b05a258613064612eab565b6040516130719190614116565b60405180910390a1565b600085600460008267ffffffffffffffff1667ffffffffffffffff16815260200190815260200160002060009054906101000a900460ff166130f457806040517f4651d51a0000000000000000000000000000000000000000000000000000000081526004016130eb919061522e565b60405180910390fd5b6000600167ffffffffffffffff8111156131115761311061413b565b5b60405190808252806020026020018201604052801561314a57816020015b613137613852565b81526020019060019003908161312f5790505b509050600060405180604001604052808773ffffffffffffffffffffffffffffffffffffffff168152602001868152509050808260008151811061319157613190614a2b565b5b602002602001018190525060006040518060a001604052808a6040516020016131ba9190614116565b6040516020818303038152906040528152602001896040516020016131df9190614116565b6040516020818303038152906040528152602001848152602001600360009054906101000a900473ffffffffffffffffffffffffffffffffffffffff1673ffffffffffffffffffffffffffffffffffffffff16815260200161325a6040518060400160405280620dbba0815260200160001515815250613750565b81525090506000600260009054906101000a900473ffffffffffffffffffffffffffffffffffffffff1673ffffffffffffffffffffffffffffffffffffffff166320487ded8c846040518363ffffffff1660e01b81526004016132be929190615407565b602060405180830381865afa1580156132db573d6000803e3d6000fd5b505050506040513d601f19601f820116820180604052508101906132ff91906148ad565b9050600360009054906101000a900473ffffffffffffffffffffffffffffffffffffffff1673ffffffffffffffffffffffffffffffffffffffff166370a08231306040518263ffffffff1660e01b815260040161335c9190614116565b602060405180830381865afa158015613379573d6000803e3d6000fd5b505050506040513d601f19601f8201168201806040525081019061339d91906148ad565b81111561347e57600360009054906101000a900473ffffffffffffffffffffffffffffffffffffffff1673ffffffffffffffffffffffffffffffffffffffff166370a08231306040518263ffffffff1660e01b81526004016133ff9190614116565b602060405180830381865afa15801561341c573d6000803e3d6000fd5b505050506040513d601f19601f8201168201806040525081019061344091906148ad565b816040517f8f0f4206000000000000000000000000000000000000000000000000000000008152600401613475929190614fb6565b60405180910390fd5b600360009054906101000a900473ffffffffffffffffffffffffffffffffffffffff1673ffffffffffffffffffffffffffffffffffffffff1663095ea7b3600260009054906101000a900473ffffffffffffffffffffffffffffffffffffffff16836040518363ffffffff1660e01b81526004016134fd9291906148da565b6020604051808303816000875af115801561351c573d6000803e3d6000fd5b505050506040513d601f19601f82011682018060405250810190613540919061492f565b508773ffffffffffffffffffffffffffffffffffffffff1663095ea7b3600260009054906101000a900473ffffffffffffffffffffffffffffffffffffffff16896040518363ffffffff1660e01b815260040161359e9291906148da565b6020604051808303816000875af11580156135bd573d6000803e3d6000fd5b505050506040513d601f19601f820116820180604052508101906135e1919061492f565b50600260009054906101000a900473ffffffffffffffffffffffffffffffffffffffff1673ffffffffffffffffffffffffffffffffffffffff166396f4e9f98c846040518363ffffffff1660e01b815260040161363f929190615407565b6020604051808303816000875af115801561365e573d6000803e3d6000fd5b505050506040513d601f19601f82011682018060405250810190613682919061544c565b95508a67ffffffffffffffff16867fc15fb748c32ba4eb29c1c311e78533f93b4425eab49ea87c6fe4279ecadca0438c8b8b600360009054906101000a900473ffffffffffffffffffffffffffffffffffffffff16876040516136e9959493929190615479565b60405180910390a3505050505095945050505050565b6137098282611795565b61374c5780826040517fe2517d3f0000000000000000000000000000000000000000000000000000000081526004016137439291906154cc565b60405180910390fd5b5050565b60606397a657c960e01b8260405160240161376b9190615533565b604051602081830303815290604052907bffffffffffffffffffffffffffffffffffffffffffffffffffffffff19166020820180517bffffffffffffffffffffffffffffffffffffffffffffffffffffffff83818316178352505050509050919050565b6040518061010001604052806000815260200160608152602001606081526020016000600181111561380457613803613d3b565b5b8152602001600073ffffffffffffffffffffffffffffffffffffffff168152602001600073ffffffffffffffffffffffffffffffffffffffff16815260200160008152602001600081525090565b6040518060400160405280600073ffffffffffffffffffffffffffffffffffffffff168152602001600081525090565b6000819050919050565b61389581613882565b82525050565b60006020820190506138b0600083018461388c565b92915050565b6000604051905090565b600080fd5b600080fd5b60007fffffffff0000000000000000000000000000000000000000000000000000000082169050919050565b6138ff816138ca565b811461390a57600080fd5b50565b60008135905061391c816138f6565b92915050565b600060208284031215613938576139376138c0565b5b60006139468482850161390d565b91505092915050565b60008115159050919050565b6139648161394f565b82525050565b600060208201905061397f600083018461395b565b92915050565b600073ffffffffffffffffffffffffffffffffffffffff82169050919050565b60006139b082613985565b9050919050565b6139c0816139a5565b81146139cb57600080fd5b50565b6000813590506139dd816139b7565b92915050565b6000602082840312156139f9576139f86138c0565b5b6000613a07848285016139ce565b91505092915050565b6000819050919050565b613a2381613a10565b8114613a2e57600080fd5b50565b600081359050613a4081613a1a565b92915050565b600060208284031215613a5c57613a5b6138c0565b5b6000613a6a84828501613a31565b91505092915050565b613a7c81613a10565b82525050565b6000602082019050613a976000830184613a73565b92915050565b613aa681613882565b8114613ab157600080fd5b50565b600081359050613ac381613a9d565b92915050565b60008060408385031215613ae057613adf6138c0565b5b6000613aee85828601613ab4565b9250506020613aff85828601613ab4565b9150509250929050565b600081519050919050565b600082825260208201905092915050565b60005b83811015613b43578082015181840152602081019050613b28565b60008484015250505050565b6000601f19601f8301169050919050565b6000613b6b82613b09565b613b758185613b14565b9350613b85818560208601613b25565b613b8e81613b4f565b840191505092915050565b60006040820190508181036000830152613bb38185613b60565b9050613bc2602083018461388c565b9392505050565b60008060408385031215613be057613bdf6138c0565b5b6000613bee85828601613a31565b9250506020613bff858286016139ce565b9150509250929050565b600067ffffffffffffffff82169050919050565b613c2681613c09565b8114613c3157600080fd5b50565b600081359050613c4381613c1d565b92915050565b600060208284031215613c5f57613c5e6138c0565b5b6000613c6d84828501613c34565b91505092915050565b60008060408385031215613c8d57613c8c6138c0565b5b6000613c9b858286016139ce565b9250506020613cac858286016139ce565b9150509250929050565b600081519050919050565b600082825260208201905092915050565b6000819050602082019050919050565b613ceb81613882565b82525050565b600082825260208201905092915050565b6000613d0d82613b09565b613d178185613cf1565b9350613d27818560208601613b25565b613d3081613b4f565b840191505092915050565b7f4e487b7100000000000000000000000000000000000000000000000000000000600052602160045260246000fd5b60028110613d7b57613d7a613d3b565b5b50565b6000819050613d8c82613d6a565b919050565b6000613d9c82613d7e565b9050919050565b613dac81613d91565b82525050565b613dbb816139a5565b82525050565b600061010083016000830151613dda6000860182613ce2565b5060208301518482036020860152613df28282613d02565b91505060408301518482036040860152613e0c8282613d02565b9150506060830151613e216060860182613da3565b506080830151613e346080860182613db2565b5060a0830151613e4760a0860182613db2565b5060c0830151613e5a60c0860182613ce2565b5060e0830151613e6d60e0860182613ce2565b508091505092915050565b6000613e848383613dc1565b905092915050565b6000602082019050919050565b6000613ea482613cb6565b613eae8185613cc1565b935083602082028501613ec085613cd2565b8060005b85811015613efc5784840389528151613edd8582613e78565b9450613ee883613e8c565b925060208a01995050600181019050613ec4565b50829750879550505050505092915050565b60006020820190508181036000830152613f288184613e99565b905092915050565b600081519050919050565b600082825260208201905092915050565b6000819050602082019050919050565b6000613f688383613ce2565b60208301905092915050565b6000602082019050919050565b6000613f8c82613f30565b613f968185613f3b565b9350613fa183613f4c565b8060005b83811015613fd2578151613fb98882613f5c565b9750613fc483613f74565b925050600181019050613fa5565b5085935050505092915050565b60006020820190508181036000830152613ff98184613f81565b905092915050565b600060208284031215614017576140166138c0565b5b600061402584828501613ab4565b91505092915050565b6000610100830160008301516140476000860182613ce2565b506020830151848203602086015261405f8282613d02565b915050604083015184820360408601526140798282613d02565b915050606083015161408e6060860182613da3565b5060808301516140a16080860182613db2565b5060a08301516140b460a0860182613db2565b5060c08301516140c760c0860182613ce2565b5060e08301516140da60e0860182613ce2565b508091505092915050565b600060208201905081810360008301526140ff818461402e565b905092915050565b614110816139a5565b82525050565b600060208201905061412b6000830184614107565b92915050565b600080fd5b600080fd5b7f4e487b7100000000000000000000000000000000000000000000000000000000600052604160045260246000fd5b61417382613b4f565b810181811067ffffffffffffffff821117156141925761419161413b565b5b80604052505050565b60006141a56138b6565b90506141b1828261416a565b919050565b600067ffffffffffffffff8211156141d1576141d061413b565b5b6141da82613b4f565b9050602081019050919050565b82818337600083830152505050565b6000614209614204846141b6565b61419b565b90508281526020810184848401111561422557614224614136565b5b6142308482856141e7565b509392505050565b600082601f83011261424d5761424c614131565b5b813561425d8482602086016141f6565b91505092915050565b600067ffffffffffffffff8211156142815761428061413b565b5b602082029050602081019050919050565b600080fd5b600080fd5b600080fd5b6000604082840312156142b7576142b6614297565b5b6142c1604061419b565b9050600082013567ffffffffffffffff8111156142e1576142e061429c565b5b6142ed84828501614238565b600083015250602061430184828501613ab4565b60208301525092915050565b600061432061431b84614266565b61419b565b9050808382526020820190506020840283018581111561434357614342614292565b5b835b8181101561438a57803567ffffffffffffffff81111561436857614367614131565b5b80860161437589826142a1565b85526020850194505050602081019050614345565b5050509392505050565b600082601f8301126143a9576143a8614131565b5b81356143b984826020860161430d565b91505092915050565b600080600080600060a086880312156143de576143dd6138c0565b5b600086013567ffffffffffffffff8111156143fc576143fb6138c5565b5b61440888828901614238565b955050602086013567ffffffffffffffff811115614429576144286138c5565b5b61443588828901614238565b9450506040614446888289016139ce565b935050606086013567ffffffffffffffff811115614467576144666138c5565b5b61447388828901614394565b925050608061448488828901613ab4565b9150509295509295909350565b600081519050919050565b600082825260208201905092915050565b6000819050602082019050919050565b600060408301600083015184820360008601526144da8282613d02565b91505060208301516144ef6020860182613ce2565b508091505092915050565b600061450683836144bd565b905092915050565b6000602082019050919050565b600061452682614491565b614530818561449c565b935083602082028501614542856144ad565b8060005b8581101561457e578484038952815161455f85826144fa565b945061456a8361450e565b925060208a01995050600181019050614546565b50829750879550505050505092915050565b600060208201905081810360008301526145aa818461451b565b905092915050565b6145bb81613d91565b82525050565b6000610100820190506145d7600083018b61388c565b81810360208301526145e9818a613b60565b905081810360408301526145fd8189613b60565b905061460c60608301886145b2565b6146196080830187614107565b61462660a0830186614107565b61463360c083018561388c565b61464060e083018461388c565b9998505050505050505050565b600080600060608486031215614666576146656138c0565b5b600061467486828701613ab4565b935050602061468586828701613c34565b9250506040614696868287016139ce565b9150509250925092565b6000806000606084860312156146b9576146b86138c0565b5b60006146c786828701613ab4565b93505060206146d886828701613ab4565b92505060406146e986828701613ab4565b9150509250925092565b6000819050919050565b600061471861471361470e84613985565b6146f3565b613985565b9050919050565b600061472a826146fd565b9050919050565b600061473c8261471f565b9050919050565b61474c81614731565b82525050565b60006020820190506147676000830184614743565b92915050565b60008060408385031215614784576147836138c0565b5b6000614792858286016139ce565b92505060206147a385828601613ab4565b9150509250929050565b6000806000606084860312156147c6576147c56138c0565b5b60006147d486828701613ab4565b93505060206147e586828701613ab4565b92505060406147f6868287016139ce565b9150509250925092565b61480981613c09565b82525050565b60006040820190506148246000830185614800565b6148316020830184614107565b9392505050565b7f4e487b7100000000000000000000000000000000000000000000000000000000600052602260045260246000fd5b6000600282049050600182168061487f57607f821691505b60208210810361489257614891614838565b5b50919050565b6000815190506148a781613a9d565b92915050565b6000602082840312156148c3576148c26138c0565b5b60006148d184828501614898565b91505092915050565b60006040820190506148ef6000830185614107565b6148fc602083018461388c565b9392505050565b61490c8161394f565b811461491757600080fd5b50565b60008151905061492981614903565b92915050565b600060208284031215614945576149446138c0565b5b60006149538482850161491a565b91505092915050565b7f496e76616c69642061677265656d656e74204944000000000000000000000000600082015250565b6000614992601483613b14565b915061499d8261495c565b602082019050919050565b600060208201905081810360008301526149c181614985565b9050919050565b7f4e487b7100000000000000000000000000000000000000000000000000000000600052601160045260246000fd5b6000614a0282613882565b9150614a0d83613882565b9250828203905081811115614a2557614a246149c8565b5b92915050565b7f4e487b7100000000000000000000000000000000000000000000000000000000600052603260045260246000fd5b7f50726f66657373696f6e616c20616464726573732063616e6e6f74206265207a60008201527f65726f0000000000000000000000000000000000000000000000000000000000602082015250565b6000614ab6602383613b14565b9150614ac182614a5a565b604082019050919050565b60006020820190508181036000830152614ae581614aa9565b9050919050565b7f536b696c6c73206d757374206e6f7420626520656d7074790000000000000000600082015250565b6000614b22601883613b14565b9150614b2d82614aec565b602082019050919050565b60006020820190508181036000830152614b5181614b15565b9050919050565b7f5061796d656e7420616d6f756e74206d7573742062652067726561746572207460008201527f68616e207a65726f000000000000000000000000000000000000000000000000602082015250565b6000614bb4602883613b14565b9150614bbf82614b58565b604082019050919050565b60006020820190508181036000830152614be381614ba7565b9050919050565b7f50726f66657373696f6e616c20616464726573732063616e6e6f74206265207460008201527f68652073616d6520617320636f6d70616e790000000000000000000000000000602082015250565b6000614c46603283613b14565b9150614c5182614bea565b604082019050919050565b60006020820190508181036000830152614c7581614c39565b9050919050565b6000614c8782613882565b9150614c9283613882565b9250828201905080821115614caa57614ca96149c8565b5b92915050565b7f546f74616c20736b696c6c206c6576656c2063616e6e6f74206578636565642060008201527f3130300000000000000000000000000000000000000000000000000000000000602082015250565b6000614d0c602383613b14565b9150614d1782614cb0565b604082019050919050565b60006020820190508181036000830152614d3b81614cff565b9050919050565b60008190508160005260206000209050919050565b60006020601f8301049050919050565b600082821b905092915050565b600060088302614da47fffffffffffffffffffffffffffffffffffffffffffffffffffffffffffffffff82614d67565b614dae8683614d67565b95508019841693508086168417925050509392505050565b6000614de1614ddc614dd784613882565b6146f3565b613882565b9050919050565b6000819050919050565b614dfb83614dc6565b614e0f614e0782614de8565b848454614d74565b825550505050565b600090565b614e24614e17565b614e2f818484614df2565b505050565b5b81811015614e5357614e48600082614e1c565b600181019050614e35565b5050565b601f821115614e9857614e6981614d42565b614e7284614d57565b81016020851015614e81578190505b614e95614e8d85614d57565b830182614e34565b50505b505050565b600082821c905092915050565b6000614ebb60001984600802614e9d565b1980831691505092915050565b6000614ed48383614eaa565b9150826002028217905092915050565b614eed82613b09565b67ffffffffffffffff811115614f0657614f0561413b565b5b614f108254614867565b614f1b828285614e57565b600060209050601f831160018114614f4e5760008415614f3c578287015190505b614f468582614ec8565b865550614fae565b601f198416614f5c86614d42565b60005b82811015614f8457848901518255600182019150602085019450602081019050614f5f565b86831015614fa15784890151614f9d601f891682614eaa565b8355505b6001600288020188555050505b505050505050565b6000604082019050614fcb600083018561388c565b614fd8602083018461388c565b9392505050565b6000614fea82613882565b91507fffffffffffffffffffffffffffffffffffffffffffffffffffffffffffffffff820361501c5761501b6149c8565b5b600182019050919050565b7f496e76616c6964206665652070657263656e7461676500000000000000000000600082015250565b600061505d601683613b14565b915061506882615027565b602082019050919050565b6000602082019050818103600083015261508c81615050565b9050919050565b7f496e76616c6964207061796d656e7420746f6b656e0000000000000000000000600082015250565b60006150c9601583613b14565b91506150d482615093565b602082019050919050565b600060208201905081810360008301526150f8816150bc565b9050919050565b7f4e487b7100000000000000000000000000000000000000000000000000000000600052601260045260246000fd5b60006060820190506151436000830186614107565b6151506020830185614107565b61515d604083018461388c565b949350505050565b7f55736572206d75737420617070726f76652074686520616d6f756e74206f662060008201527f7468652061677265656d656e7400000000000000000000000000000000000000602082015250565b60006151c1602d83613b14565b91506151cc82615165565b604082019050919050565b600060208201905081810360008301526151f0816151b4565b9050919050565b600060608201905061520c600083018661388c565b6152196020830185614107565b6152266040830184614107565b949350505050565b60006020820190506152436000830184614800565b92915050565b600081519050919050565b600082825260208201905092915050565b600061527082615249565b61527a8185615254565b935061528a818560208601613b25565b61529381613b4f565b840191505092915050565b600081519050919050565b600082825260208201905092915050565b6000819050602082019050919050565b6040820160008201516152e06000850182613db2565b5060208201516152f36020850182613ce2565b50505050565b600061530583836152ca565b60408301905092915050565b6000602082019050919050565b60006153298261529e565b61533381856152a9565b935061533e836152ba565b8060005b8381101561536f57815161535688826152f9565b975061536183615311565b925050600181019050615342565b5085935050505092915050565b600060a08301600083015184820360008601526153998282615265565b915050602083015184820360208601526153b38282615265565b915050604083015184820360408601526153cd828261531e565b91505060608301516153e26060860182613db2565b50608083015184820360808601526153fa8282615265565b9150508091505092915050565b600060408201905061541c6000830185614800565b818103602083015261542e818461537c565b90509392505050565b60008151905061544681613a1a565b92915050565b600060208284031215615462576154616138c0565b5b600061547084828501615437565b91505092915050565b600060a08201905061548e6000830188614107565b61549b6020830187614107565b6154a8604083018661388c565b6154b56060830185614107565b6154c2608083018461388c565b9695505050505050565b60006040820190506154e16000830185614107565b6154ee6020830184613a73565b9392505050565b6154fe8161394f565b82525050565b60408201600082015161551a6000850182613ce2565b50602082015161552d60208501826154f5565b50505050565b60006040820190506155486000830184615504565b9291505056fea264697066735822122097ed074fcf87d63587dd3b90870aa584b4f69061fbe192d44ae0c4f9cf2d7d1664736f6c63430008170033",
  "devdoc": {
    "errors": {
      "AccessControlBadConfirmation()": [
        {
          "details": "The caller of a function is not the expected one. NOTE: Don't confuse with {AccessControlUnauthorizedAccount}."
        }
      ],
      "AccessControlUnauthorizedAccount(address,bytes32)": [
        {
          "details": "The `account` is missing a role."
        }
      ],
      "EnforcedPause()": [
        {
          "details": "The operation failed because the contract is paused."
        }
      ],
      "ExpectedPause()": [
        {
          "details": "The operation failed because the contract is not paused."
        }
      ],
      "OwnableInvalidOwner(address)": [
        {
          "details": "The owner is not a valid owner account. (eg. `address(0)`)"
        }
      ],
      "OwnableUnauthorizedAccount(address)": [
        {
          "details": "The caller account is not authorized to perform an operation."
        }
      ]
    },
    "events": {
      "Paused(address)": {
        "details": "Emitted when the pause is triggered by `account`."
      },
      "RoleAdminChanged(bytes32,bytes32,bytes32)": {
        "details": "Emitted when `newAdminRole` is set as ``role``'s admin role, replacing `previousAdminRole` `DEFAULT_ADMIN_ROLE` is the starting admin for all roles, despite {RoleAdminChanged} not being emitted signaling this."
      },
      "RoleGranted(bytes32,address,address)": {
        "details": "Emitted when `account` is granted `role`. `sender` is the account that originated the contract call, an admin role bearer except when using {AccessControl-_setupRole}."
      },
      "RoleRevoked(bytes32,address,address)": {
        "details": "Emitted when `account` is revoked `role`. `sender` is the account that originated the contract call:   - if using `revokeRole`, it is the admin role bearer   - if using `renounceRole`, it is the role bearer (i.e. `account`)"
      },
      "Unpaused(address)": {
        "details": "Emitted when the pause is lifted by `account`."
      }
    },
    "kind": "dev",
    "methods": {
      "addAcceptedPaymentToken(address)": {
        "params": {
          "_tokenAddress": "The address of the ERC20 token to be added."
        }
      },
      "createAgreement(string,string,address,(string,uint256)[],uint256)": {
        "params": {
          "_description": "A brief description of the agreement.",
          "_paymentAmount": "The payment amount for the agreement.",
          "_professional": "The address of the professional involved in the agreement.",
          "_skills": "An array of skills required for the agreement.",
          "_title": "The title of the agreement."
        }
      },
      "getAgreementById(uint256)": {
        "params": {
          "_id": "The ID of the agreement."
        },
        "returns": {
          "_0": "Agreement The agreement associated with the given ID."
        }
      },
      "getAgreementCount()": {
        "returns": {
          "_0": "uint256 The total number of agreements."
        }
      },
      "getAllAgreements()": {
        "returns": {
          "_0": "Agreement[] An array of all agreements."
        }
      },
      "getContractorAgreementIds(address)": {
        "params": {
          "_contractor": "The address of the contractor."
        },
        "returns": {
          "_0": "uint256[] An array of agreement IDs."
        }
      },
      "getProfessionalAgreementIds(address)": {
        "params": {
          "_professional": "The address of the professional."
        },
        "returns": {
          "_0": "uint256[] An array of agreement IDs."
        }
      },
      "getRoleAdmin(bytes32)": {
        "details": "Returns the admin role that controls `role`. See {grantRole} and {revokeRole}. To change a role's admin, use {_setRoleAdmin}."
      },
      "getSkillsByAgreementId(uint256)": {
        "params": {
          "_agreementId": "The ID of the agreement."
        },
        "returns": {
          "_0": "Skill[] An array of skills associated with the agreement."
        }
      },
      "grantRole(bytes32,address)": {
        "details": "Grants `role` to `account`. If `account` had not been already granted `role`, emits a {RoleGranted} event. Requirements: - the caller must have ``role``'s admin role. May emit a {RoleGranted} event."
      },
      "hasRole(bytes32,address)": {
        "details": "Returns `true` if `account` has been granted `role`."
      },
      "makePayment(uint256,uint256,address)": {
        "params": {
          "_agreementId": "The ID of the agreement for which the payment is being made.",
          "_amountToPay": "The amount of the payment.",
          "_paymentAddress": "The address of the token in which payment is made."
        }
      },
      "owner()": {
        "details": "Returns the address of the current owner."
      },
      "paused()": {
        "details": "Returns true if the contract is paused, and false otherwise."
      },
      "renounceOwnership()": {
        "details": "Leaves the contract without owner. It will not be possible to call `onlyOwner` functions. Can only be called by the current owner. NOTE: Renouncing ownership will leave the contract without an owner, thereby disabling any functionality that is only available to the owner."
      },
      "renounceRole(bytes32,address)": {
        "details": "Revokes `role` from the calling account. Roles are often managed via {grantRole} and {revokeRole}: this function's purpose is to provide a mechanism for accounts to lose their privileges if they are compromised (such as when a trusted device is misplaced). If the calling account had been revoked `role`, emits a {RoleRevoked} event. Requirements: - the caller must be `callerConfirmation`. May emit a {RoleRevoked} event."
      },
      "revokeRole(bytes32,address)": {
        "details": "Revokes `role` from `account`. If `account` had been granted `role`, emits a {RoleRevoked} event. Requirements: - the caller must have ``role``'s admin role. May emit a {RoleRevoked} event."
      },
      "setFees(uint256,uint256,uint256)": {
        "params": {
          "_communityDAOFee": "The portion of the fee allocated to the Community DAO.",
          "_feePercentage": "The percentage of the transaction amount to be taken as a fee.",
          "_kyodoTreasuryFee": "The portion of the fee allocated to the Kyodo Treasury."
        }
      },
      "setStableVaultAddress(address)": {
        "params": {
          "_StableVaultAddress": "The address of the StableVault contract."
        }
      },
      "supportsInterface(bytes4)": {
        "details": "See {IERC165-supportsInterface}."
      },
      "transferOwnership(address)": {
        "details": "Transfers ownership of the contract to a new account (`newOwner`). Can only be called by the current owner."
      }
    },
    "version": 1
  },
  "userdoc": {
    "kind": "user",
    "methods": {
      "addAcceptedPaymentToken(address)": {
        "notice": "Adds an ERC20 token to the list of accepted payment tokens."
      },
      "createAgreement(string,string,address,(string,uint256)[],uint256)": {
        "notice": "Creates a new agreement between a company and a professional."
      },
      "getAgreementById(uint256)": {
        "notice": "Retrieves an agreement by its ID."
      },
      "getAgreementCount()": {
        "notice": "Returns the total number of agreements created."
      },
      "getAllAgreements()": {
        "notice": "Returns all agreements."
      },
      "getContractorAgreementIds(address)": {
        "notice": "Returns a list of agreement IDs associated with a contractor."
      },
      "getProfessionalAgreementIds(address)": {
        "notice": "Returns a list of agreement IDs associated with a professional."
      },
      "getSkillsByAgreementId(uint256)": {
        "notice": "Retrieves the skills associated with a specific agreement ID."
      },
      "makePayment(uint256,uint256,address)": {
        "notice": "Makes a payment for a specific agreement."
      },
      "setFees(uint256,uint256,uint256)": {
        "notice": "Sets the fee structure for the agreement transactions."
      },
      "setStableVaultAddress(address)": {
        "notice": "Sets the address of the StableVault contract."
      }
    },
    "version": 1
  },
  "storageLayout": {
    "storage": [
      {
        "astId": 135,
        "contract": "contracts/AgreementContract.sol:AgreementContract",
        "label": "_roles",
        "offset": 0,
        "slot": "0",
        "type": "t_mapping(t_bytes32,t_struct(RoleData)130_storage)"
      },
      {
        "astId": 748,
        "contract": "contracts/AgreementContract.sol:AgreementContract",
        "label": "_paused",
        "offset": 0,
        "slot": "1",
        "type": "t_bool"
      },
      {
        "astId": 496,
        "contract": "contracts/AgreementContract.sol:AgreementContract",
        "label": "_owner",
        "offset": 1,
        "slot": "1",
        "type": "t_address"
      },
      {
        "astId": 1794,
        "contract": "contracts/AgreementContract.sol:AgreementContract",
        "label": "router",
        "offset": 0,
        "slot": "2",
        "type": "t_contract(IRouterClient)51"
      },
      {
        "astId": 1797,
        "contract": "contracts/AgreementContract.sol:AgreementContract",
        "label": "linkToken",
        "offset": 0,
        "slot": "3",
        "type": "t_contract(IERC20)717"
      },
      {
        "astId": 1799,
        "contract": "contracts/AgreementContract.sol:AgreementContract",
        "label": "chainSelector",
        "offset": 20,
        "slot": "3",
        "type": "t_uint64"
      },
      {
        "astId": 1803,
        "contract": "contracts/AgreementContract.sol:AgreementContract",
        "label": "whitelistedChains",
        "offset": 0,
        "slot": "4",
        "type": "t_mapping(t_uint64,t_bool)"
      },
      {
        "astId": 1032,
        "contract": "contracts/AgreementContract.sol:AgreementContract",
        "label": "nextAgreementId",
        "offset": 0,
        "slot": "5",
        "type": "t_uint256"
      },
      {
        "astId": 1036,
        "contract": "contracts/AgreementContract.sol:AgreementContract",
        "label": "agreements",
        "offset": 0,
        "slot": "6",
        "type": "t_array(t_struct(Agreement)2123_storage)dyn_storage"
      },
      {
        "astId": 1041,
        "contract": "contracts/AgreementContract.sol:AgreementContract",
        "label": "crossChainCCIPConfigs",
        "offset": 0,
        "slot": "7",
        "type": "t_mapping(t_uint256,t_struct(CrossChainCCIP)2128_storage)"
      },
      {
        "astId": 1045,
        "contract": "contracts/AgreementContract.sol:AgreementContract",
        "label": "userPreferredChain",
        "offset": 0,
        "slot": "8",
        "type": "t_mapping(t_address,t_uint256)"
      },
      {
        "astId": 1050,
        "contract": "contracts/AgreementContract.sol:AgreementContract",
        "label": "contractorAgreements",
        "offset": 0,
        "slot": "9",
        "type": "t_mapping(t_address,t_array(t_uint256)dyn_storage)"
      },
      {
        "astId": 1055,
        "contract": "contracts/AgreementContract.sol:AgreementContract",
        "label": "professionalAgreements",
        "offset": 0,
        "slot": "10",
        "type": "t_mapping(t_address,t_array(t_uint256)dyn_storage)"
      },
      {
        "astId": 1059,
        "contract": "contracts/AgreementContract.sol:AgreementContract",
        "label": "acceptedPaymentTokens",
        "offset": 0,
        "slot": "11",
        "type": "t_mapping(t_address,t_bool)"
      },
      {
        "astId": 1065,
        "contract": "contracts/AgreementContract.sol:AgreementContract",
        "label": "agreementSkills",
        "offset": 0,
        "slot": "12",
        "type": "t_mapping(t_uint256,t_array(t_struct(Skill)2105_storage)dyn_storage)"
      },
      {
        "astId": 1068,
        "contract": "contracts/AgreementContract.sol:AgreementContract",
        "label": "tokenAddresses",
        "offset": 0,
        "slot": "13",
        "type": "t_array(t_address)dyn_storage"
      },
      {
        "astId": 1071,
        "contract": "contracts/AgreementContract.sol:AgreementContract",
        "label": "StableVault",
        "offset": 0,
        "slot": "14",
        "type": "t_contract(IStableVault)2354"
      },
      {
        "astId": 1073,
        "contract": "contracts/AgreementContract.sol:AgreementContract",
        "label": "kyodoTreasury",
        "offset": 0,
        "slot": "15",
        "type": "t_address"
      },
      {
        "astId": 1075,
        "contract": "contracts/AgreementContract.sol:AgreementContract",
        "label": "communityDAO",
        "offset": 0,
        "slot": "16",
        "type": "t_address"
      },
      {
        "astId": 1077,
        "contract": "contracts/AgreementContract.sol:AgreementContract",
        "label": "feePercentage",
        "offset": 0,
        "slot": "17",
        "type": "t_uint256"
      },
      {
        "astId": 1079,
        "contract": "contracts/AgreementContract.sol:AgreementContract",
        "label": "kyodoTreasuryFee",
        "offset": 0,
        "slot": "18",
        "type": "t_uint256"
      },
      {
        "astId": 1081,
        "contract": "contracts/AgreementContract.sol:AgreementContract",
        "label": "communityDAOFee",
        "offset": 0,
        "slot": "19",
        "type": "t_uint256"
      }
    ],
    "types": {
      "t_address": {
        "encoding": "inplace",
        "label": "address",
        "numberOfBytes": "20"
      },
      "t_array(t_address)dyn_storage": {
        "base": "t_address",
        "encoding": "dynamic_array",
        "label": "address[]",
        "numberOfBytes": "32"
      },
      "t_array(t_struct(Agreement)2123_storage)dyn_storage": {
        "base": "t_struct(Agreement)2123_storage",
        "encoding": "dynamic_array",
        "label": "struct IAgreementContract.Agreement[]",
        "numberOfBytes": "32"
      },
      "t_array(t_struct(Skill)2105_storage)dyn_storage": {
        "base": "t_struct(Skill)2105_storage",
        "encoding": "dynamic_array",
        "label": "struct IAgreementContract.Skill[]",
        "numberOfBytes": "32"
      },
      "t_array(t_uint256)dyn_storage": {
        "base": "t_uint256",
        "encoding": "dynamic_array",
        "label": "uint256[]",
        "numberOfBytes": "32"
      },
      "t_bool": {
        "encoding": "inplace",
        "label": "bool",
        "numberOfBytes": "1"
      },
      "t_bytes32": {
        "encoding": "inplace",
        "label": "bytes32",
        "numberOfBytes": "32"
      },
      "t_contract(IERC20)717": {
        "encoding": "inplace",
        "label": "contract IERC20",
        "numberOfBytes": "20"
      },
      "t_contract(IRouterClient)51": {
        "encoding": "inplace",
        "label": "contract IRouterClient",
        "numberOfBytes": "20"
      },
      "t_contract(IStableVault)2354": {
        "encoding": "inplace",
        "label": "contract IStableVault",
        "numberOfBytes": "20"
      },
      "t_enum(AgreementStatus)2131": {
        "encoding": "inplace",
        "label": "enum IAgreementContract.AgreementStatus",
        "numberOfBytes": "1"
      },
      "t_mapping(t_address,t_array(t_uint256)dyn_storage)": {
        "encoding": "mapping",
        "key": "t_address",
        "label": "mapping(address => uint256[])",
        "numberOfBytes": "32",
        "value": "t_array(t_uint256)dyn_storage"
      },
      "t_mapping(t_address,t_bool)": {
        "encoding": "mapping",
        "key": "t_address",
        "label": "mapping(address => bool)",
        "numberOfBytes": "32",
        "value": "t_bool"
      },
      "t_mapping(t_address,t_uint256)": {
        "encoding": "mapping",
        "key": "t_address",
        "label": "mapping(address => uint256)",
        "numberOfBytes": "32",
        "value": "t_uint256"
      },
      "t_mapping(t_bytes32,t_struct(RoleData)130_storage)": {
        "encoding": "mapping",
        "key": "t_bytes32",
        "label": "mapping(bytes32 => struct AccessControl.RoleData)",
        "numberOfBytes": "32",
        "value": "t_struct(RoleData)130_storage"
      },
      "t_mapping(t_uint256,t_array(t_struct(Skill)2105_storage)dyn_storage)": {
        "encoding": "mapping",
        "key": "t_uint256",
        "label": "mapping(uint256 => struct IAgreementContract.Skill[])",
        "numberOfBytes": "32",
        "value": "t_array(t_struct(Skill)2105_storage)dyn_storage"
      },
      "t_mapping(t_uint256,t_struct(CrossChainCCIP)2128_storage)": {
        "encoding": "mapping",
        "key": "t_uint256",
        "label": "mapping(uint256 => struct IAgreementContract.CrossChainCCIP)",
        "numberOfBytes": "32",
        "value": "t_struct(CrossChainCCIP)2128_storage"
      },
      "t_mapping(t_uint64,t_bool)": {
        "encoding": "mapping",
        "key": "t_uint64",
        "label": "mapping(uint64 => bool)",
        "numberOfBytes": "32",
        "value": "t_bool"
      },
      "t_string_storage": {
        "encoding": "bytes",
        "label": "string",
        "numberOfBytes": "32"
      },
      "t_struct(Agreement)2123_storage": {
        "encoding": "inplace",
        "label": "struct IAgreementContract.Agreement",
        "members": [
          {
            "astId": 2107,
            "contract": "contracts/AgreementContract.sol:AgreementContract",
            "label": "id",
            "offset": 0,
            "slot": "0",
            "type": "t_uint256"
          },
          {
            "astId": 2109,
            "contract": "contracts/AgreementContract.sol:AgreementContract",
            "label": "title",
            "offset": 0,
            "slot": "1",
            "type": "t_string_storage"
          },
          {
            "astId": 2111,
            "contract": "contracts/AgreementContract.sol:AgreementContract",
            "label": "description",
            "offset": 0,
            "slot": "2",
            "type": "t_string_storage"
          },
          {
            "astId": 2114,
            "contract": "contracts/AgreementContract.sol:AgreementContract",
            "label": "status",
            "offset": 0,
            "slot": "3",
            "type": "t_enum(AgreementStatus)2131"
          },
          {
            "astId": 2116,
            "contract": "contracts/AgreementContract.sol:AgreementContract",
            "label": "company",
            "offset": 1,
            "slot": "3",
            "type": "t_address"
          },
          {
            "astId": 2118,
            "contract": "contracts/AgreementContract.sol:AgreementContract",
            "label": "professional",
            "offset": 0,
            "slot": "4",
            "type": "t_address"
          },
          {
            "astId": 2120,
            "contract": "contracts/AgreementContract.sol:AgreementContract",
            "label": "paymentAmount",
            "offset": 0,
            "slot": "5",
            "type": "t_uint256"
          },
          {
            "astId": 2122,
            "contract": "contracts/AgreementContract.sol:AgreementContract",
            "label": "totalPaid",
            "offset": 0,
            "slot": "6",
            "type": "t_uint256"
          }
        ],
        "numberOfBytes": "224"
      },
      "t_struct(CrossChainCCIP)2128_storage": {
        "encoding": "inplace",
        "label": "struct IAgreementContract.CrossChainCCIP",
        "members": [
          {
            "astId": 2125,
            "contract": "contracts/AgreementContract.sol:AgreementContract",
            "label": "chainSelector",
            "offset": 0,
            "slot": "0",
            "type": "t_uint64"
          },
          {
            "astId": 2127,
            "contract": "contracts/AgreementContract.sol:AgreementContract",
            "label": "vaultAddress",
            "offset": 8,
            "slot": "0",
            "type": "t_address"
          }
        ],
        "numberOfBytes": "32"
      },
      "t_struct(RoleData)130_storage": {
        "encoding": "inplace",
        "label": "struct AccessControl.RoleData",
        "members": [
          {
            "astId": 127,
            "contract": "contracts/AgreementContract.sol:AgreementContract",
            "label": "hasRole",
            "offset": 0,
            "slot": "0",
            "type": "t_mapping(t_address,t_bool)"
          },
          {
            "astId": 129,
            "contract": "contracts/AgreementContract.sol:AgreementContract",
            "label": "adminRole",
            "offset": 0,
            "slot": "1",
            "type": "t_bytes32"
          }
        ],
        "numberOfBytes": "64"
      },
      "t_struct(Skill)2105_storage": {
        "encoding": "inplace",
        "label": "struct IAgreementContract.Skill",
        "members": [
          {
            "astId": 2102,
            "contract": "contracts/AgreementContract.sol:AgreementContract",
            "label": "name",
            "offset": 0,
            "slot": "0",
            "type": "t_string_storage"
          },
          {
            "astId": 2104,
            "contract": "contracts/AgreementContract.sol:AgreementContract",
            "label": "level",
            "offset": 0,
            "slot": "1",
            "type": "t_uint256"
          }
        ],
        "numberOfBytes": "64"
      },
      "t_uint256": {
        "encoding": "inplace",
        "label": "uint256",
        "numberOfBytes": "32"
      },
      "t_uint64": {
        "encoding": "inplace",
        "label": "uint64",
        "numberOfBytes": "8"
      }
    }
  }
}