{
  "_format": "hh-sol-artifact-1",
  "contractName": "AgreementContract",
  "sourceName": "contracts/AgreementContract.sol",
  "abi": [
    {
      "inputs": [
        {
          "internalType": "address",
          "name": "_kyodoTreasury",
          "type": "address"
        },
        {
          "internalType": "address",
          "name": "_communityDAO",
          "type": "address"
        }
      ],
      "stateMutability": "nonpayable",
      "type": "constructor"
    },
    {
      "anonymous": false,
      "inputs": [
        {
          "indexed": true,
          "internalType": "address",
          "name": "company",
          "type": "address"
        },
        {
          "indexed": true,
          "internalType": "address",
          "name": "professional",
          "type": "address"
        },
        {
          "indexed": false,
          "internalType": "uint256",
          "name": "agreementId",
          "type": "uint256"
        },
        {
          "indexed": false,
          "internalType": "uint256",
          "name": "amount",
          "type": "uint256"
        }
      ],
      "name": "AgreementCreated",
      "type": "event"
    },
    {
      "anonymous": false,
      "inputs": [
        {
          "indexed": true,
          "internalType": "address",
          "name": "company",
          "type": "address"
        },
        {
          "indexed": true,
          "internalType": "address",
          "name": "professional",
          "type": "address"
        },
        {
          "indexed": false,
          "internalType": "uint256",
          "name": "agreementId",
          "type": "uint256"
        },
        {
          "indexed": false,
          "internalType": "uint256",
          "name": "amount",
          "type": "uint256"
        }
      ],
      "name": "PaymentMade",
      "type": "event"
    },
    {
      "inputs": [],
      "name": "StableVault",
      "outputs": [
        {
          "internalType": "contract IStableVault",
          "name": "",
          "type": "address"
        }
      ],
      "stateMutability": "view",
      "type": "function"
    },
    {
      "inputs": [
        {
          "internalType": "address",
          "name": "",
          "type": "address"
        }
      ],
      "name": "acceptedPaymentTokens",
      "outputs": [
        {
          "internalType": "bool",
          "name": "",
          "type": "bool"
        }
      ],
      "stateMutability": "view",
      "type": "function"
    },
    {
      "inputs": [
        {
          "internalType": "address",
          "name": "_tokenAddress",
          "type": "address"
        }
      ],
      "name": "addAcceptedPaymentToken",
      "outputs": [],
      "stateMutability": "nonpayable",
      "type": "function"
    },
    {
      "inputs": [
        {
          "internalType": "uint256",
          "name": "",
          "type": "uint256"
        }
      ],
      "name": "agreements",
      "outputs": [
        {
          "internalType": "uint256",
          "name": "id",
          "type": "uint256"
        },
        {
          "internalType": "string",
          "name": "title",
          "type": "string"
        },
        {
          "internalType": "string",
          "name": "description",
          "type": "string"
        },
        {
          "internalType": "enum AgreementContract.AgreementStatus",
          "name": "status",
          "type": "uint8"
        },
        {
          "internalType": "address",
          "name": "company",
          "type": "address"
        },
        {
          "internalType": "address",
          "name": "professional",
          "type": "address"
        },
        {
          "components": [
            {
              "internalType": "uint256",
              "name": "amount",
              "type": "uint256"
            },
            {
              "internalType": "address",
              "name": "tokenAddress",
              "type": "address"
            }
          ],
          "internalType": "struct AgreementContract.Token",
          "name": "tokenIncentive",
          "type": "tuple"
        },
        {
          "components": [
            {
              "internalType": "uint256",
              "name": "amount",
              "type": "uint256"
            },
            {
              "internalType": "address",
              "name": "tokenAddress",
              "type": "address"
            }
          ],
          "internalType": "struct AgreementContract.Token",
          "name": "payment",
          "type": "tuple"
        },
        {
          "internalType": "uint256",
          "name": "totalPaid",
          "type": "uint256"
        }
      ],
      "stateMutability": "view",
      "type": "function"
    },
    {
      "inputs": [],
      "name": "communityDAO",
      "outputs": [
        {
          "internalType": "address",
          "name": "",
          "type": "address"
        }
      ],
      "stateMutability": "view",
      "type": "function"
    },
    {
      "inputs": [],
      "name": "communityDAOFee",
      "outputs": [
        {
          "internalType": "uint256",
          "name": "",
          "type": "uint256"
        }
      ],
      "stateMutability": "view",
      "type": "function"
    },
    {
      "inputs": [
        {
          "internalType": "string",
          "name": "_title",
          "type": "string"
        },
        {
          "internalType": "string",
          "name": "_description",
          "type": "string"
        },
        {
          "internalType": "address",
          "name": "_professional",
          "type": "address"
        },
        {
          "internalType": "string[]",
          "name": "_skills",
          "type": "string[]"
        },
        {
          "internalType": "uint256",
          "name": "_paymentAmount",
          "type": "uint256"
        }
      ],
      "name": "createAgreement",
      "outputs": [],
      "stateMutability": "nonpayable",
      "type": "function"
    },
    {
      "inputs": [],
      "name": "feePercentage",
      "outputs": [
        {
          "internalType": "uint256",
          "name": "",
          "type": "uint256"
        }
      ],
      "stateMutability": "view",
      "type": "function"
    },
    {
      "inputs": [
        {
          "internalType": "uint256",
          "name": "_id",
          "type": "uint256"
        }
      ],
      "name": "getAgreementById",
      "outputs": [
        {
          "components": [
            {
              "internalType": "uint256",
              "name": "id",
              "type": "uint256"
            },
            {
              "internalType": "string",
              "name": "title",
              "type": "string"
            },
            {
              "internalType": "string",
              "name": "description",
              "type": "string"
            },
            {
              "internalType": "enum AgreementContract.AgreementStatus",
              "name": "status",
              "type": "uint8"
            },
            {
              "internalType": "address",
              "name": "company",
              "type": "address"
            },
            {
              "internalType": "address",
              "name": "professional",
              "type": "address"
            },
            {
              "internalType": "string[]",
              "name": "skills",
              "type": "string[]"
            },
            {
              "components": [
                {
                  "internalType": "uint256",
                  "name": "amount",
                  "type": "uint256"
                },
                {
                  "internalType": "address",
                  "name": "tokenAddress",
                  "type": "address"
                }
              ],
              "internalType": "struct AgreementContract.Token",
              "name": "tokenIncentive",
              "type": "tuple"
            },
            {
              "components": [
                {
                  "internalType": "uint256",
                  "name": "amount",
                  "type": "uint256"
                },
                {
                  "internalType": "address",
                  "name": "tokenAddress",
                  "type": "address"
                }
              ],
              "internalType": "struct AgreementContract.Token",
              "name": "payment",
              "type": "tuple"
            },
            {
              "internalType": "uint256",
              "name": "totalPaid",
              "type": "uint256"
            }
          ],
          "internalType": "struct AgreementContract.Agreement",
          "name": "",
          "type": "tuple"
        }
      ],
      "stateMutability": "view",
      "type": "function"
    },
    {
      "inputs": [],
      "name": "getAgreementCount",
      "outputs": [
        {
          "internalType": "uint256",
          "name": "",
          "type": "uint256"
        }
      ],
      "stateMutability": "view",
      "type": "function"
    },
    {
      "inputs": [],
      "name": "getAllAgreements",
      "outputs": [
        {
          "components": [
            {
              "internalType": "uint256",
              "name": "id",
              "type": "uint256"
            },
            {
              "internalType": "string",
              "name": "title",
              "type": "string"
            },
            {
              "internalType": "string",
              "name": "description",
              "type": "string"
            },
            {
              "internalType": "enum AgreementContract.AgreementStatus",
              "name": "status",
              "type": "uint8"
            },
            {
              "internalType": "address",
              "name": "company",
              "type": "address"
            },
            {
              "internalType": "address",
              "name": "professional",
              "type": "address"
            },
            {
              "internalType": "string[]",
              "name": "skills",
              "type": "string[]"
            },
            {
              "components": [
                {
                  "internalType": "uint256",
                  "name": "amount",
                  "type": "uint256"
                },
                {
                  "internalType": "address",
                  "name": "tokenAddress",
                  "type": "address"
                }
              ],
              "internalType": "struct AgreementContract.Token",
              "name": "tokenIncentive",
              "type": "tuple"
            },
            {
              "components": [
                {
                  "internalType": "uint256",
                  "name": "amount",
                  "type": "uint256"
                },
                {
                  "internalType": "address",
                  "name": "tokenAddress",
                  "type": "address"
                }
              ],
              "internalType": "struct AgreementContract.Token",
              "name": "payment",
              "type": "tuple"
            },
            {
              "internalType": "uint256",
              "name": "totalPaid",
              "type": "uint256"
            }
          ],
          "internalType": "struct AgreementContract.Agreement[]",
          "name": "",
          "type": "tuple[]"
        }
      ],
      "stateMutability": "view",
      "type": "function"
    },
    {
      "inputs": [
        {
          "internalType": "address",
          "name": "_user",
          "type": "address"
        }
      ],
      "name": "getUserAgreements",
      "outputs": [
        {
          "internalType": "uint256[]",
          "name": "",
          "type": "uint256[]"
        }
      ],
      "stateMutability": "view",
      "type": "function"
    },
    {
      "inputs": [],
      "name": "kyodoTreasury",
      "outputs": [
        {
          "internalType": "address",
          "name": "",
          "type": "address"
        }
      ],
      "stateMutability": "view",
      "type": "function"
    },
    {
      "inputs": [],
      "name": "kyodoTreasuryFee",
      "outputs": [
        {
          "internalType": "uint256",
          "name": "",
          "type": "uint256"
        }
      ],
      "stateMutability": "view",
      "type": "function"
    },
    {
      "inputs": [
        {
          "internalType": "uint256",
          "name": "_agreementId",
          "type": "uint256"
        },
        {
          "internalType": "uint256",
          "name": "_amountToPay",
          "type": "uint256"
        },
        {
          "internalType": "address",
          "name": "_paymentAddress",
          "type": "address"
        }
      ],
      "name": "makePayment",
      "outputs": [],
      "stateMutability": "nonpayable",
      "type": "function"
    },
    {
      "inputs": [],
      "name": "nextAgreementId",
      "outputs": [
        {
          "internalType": "uint256",
          "name": "",
          "type": "uint256"
        }
      ],
      "stateMutability": "view",
      "type": "function"
    },
    {
      "inputs": [],
      "name": "owner",
      "outputs": [
        {
          "internalType": "address",
          "name": "",
          "type": "address"
        }
      ],
      "stateMutability": "view",
      "type": "function"
    },
    {
      "inputs": [
        {
          "internalType": "uint256",
          "name": "_feePercentage",
          "type": "uint256"
        },
        {
          "internalType": "uint256",
          "name": "_kyodoTreasuryFee",
          "type": "uint256"
        },
        {
          "internalType": "uint256",
          "name": "_communityDAOFee",
          "type": "uint256"
        }
      ],
      "name": "setFees",
      "outputs": [],
      "stateMutability": "nonpayable",
      "type": "function"
    },
    {
      "inputs": [
        {
          "internalType": "address",
          "name": "_StableVaultAddress",
          "type": "address"
        }
      ],
      "name": "setStableVaultAddress",
      "outputs": [],
      "stateMutability": "nonpayable",
      "type": "function"
    },
    {
      "inputs": [],
      "name": "tokenIncentive",
      "outputs": [
        {
          "internalType": "uint256",
          "name": "amount",
          "type": "uint256"
        },
        {
          "internalType": "address",
          "name": "tokenAddress",
          "type": "address"
        }
      ],
      "stateMutability": "view",
      "type": "function"
    },
    {
      "inputs": [
        {
          "internalType": "address",
          "name": "_newTokenAddress",
          "type": "address"
        },
        {
          "internalType": "uint256",
          "name": "_newAmount",
          "type": "uint256"
        }
      ],
      "name": "updateTokenIncentive",
      "outputs": [],
      "stateMutability": "nonpayable",
      "type": "function"
    },
    {
      "inputs": [
        {
          "internalType": "address",
          "name": "",
          "type": "address"
        },
        {
          "internalType": "uint256",
          "name": "",
          "type": "uint256"
        }
      ],
      "name": "userAgreements",
      "outputs": [
        {
          "internalType": "uint256",
          "name": "",
          "type": "uint256"
        }
      ],
      "stateMutability": "view",
      "type": "function"
    }
  ],
  "bytecode": "0x608060405260016000553480156200001657600080fd5b50604051620039153803806200391583398181016040528101906200003c91906200011e565b33600760006101000a81548173ffffffffffffffffffffffffffffffffffffffff021916908373ffffffffffffffffffffffffffffffffffffffff16021790555081600860006101000a81548173ffffffffffffffffffffffffffffffffffffffff021916908373ffffffffffffffffffffffffffffffffffffffff16021790555080600960006101000a81548173ffffffffffffffffffffffffffffffffffffffff021916908373ffffffffffffffffffffffffffffffffffffffff1602179055505050620001ad565b600081519050620001188162000193565b92915050565b600080604083850312156200013257600080fd5b6000620001428582860162000107565b9250506020620001558582860162000107565b9150509250929050565b60006200016c8262000173565b9050919050565b600073ffffffffffffffffffffffffffffffffffffffff82169050919050565b6200019e816200015f565b8114620001aa57600080fd5b50565b61375880620001bd6000396000f3fe608060405234801561001057600080fd5b50600436106101415760003560e01c8063964bb4ab116100b8578063bd14de961161007c578063bd14de9614610367578063c9b99dab1461039f578063c9e92905146103bd578063cec10c11146103db578063f2d64a96146103f7578063fc3f5dff1461041557610141565b8063964bb4ab146102c3578063a001ecdd146102e1578063a06ee2db146102ff578063adb9cae61461031b578063b634acfa1461034b57610141565b80634e6873c71161010a5780634e6873c7146101ff578063573fb6241461021d5780637d2399071461024d5780637e6982561461026b5780638207546e146102875780638da5cb5b146102a557610141565b80628bed3e1461014657806313cda3b7146101645780632426860514610180578063484bb2441461019f5780634c27984e146101cf575b600080fd5b61014e610431565b60405161015b9190612f80565b60405180910390f35b61017e6004803603810190610179919061255a565b61043e565b005b610188610529565b604051610196929190612f9b565b60405180910390f35b6101b960048036038101906101b4919061255a565b61055b565b6040516101c69190612e08565b60405180910390f35b6101e960048036038101906101e49190612583565b61057b565b6040516101f69190612f80565b60405180910390f35b6102076105ac565b6040516102149190612dc4565b60405180910390f35b610237600480360381019061023291906126a7565b610a38565b6040516102449190612f5e565b60405180910390f35b610255610f26565b6040516102629190612f80565b60405180910390f35b61028560048036038101906102809190612583565b610f2c565b005b61028f611041565b60405161029c9190612d49565b60405180910390f35b6102ad611067565b6040516102ba9190612d49565b60405180910390f35b6102cb61108d565b6040516102d89190612d49565b60405180910390f35b6102e96110b3565b6040516102f69190612f80565b60405180910390f35b6103196004803603810190610314919061255a565b6110b9565b005b6103356004803603810190610330919061255a565b61118d565b6040516103429190612de6565b60405180910390f35b610365600480360381019061036091906125e8565b611224565b005b610381600480360381019061037c91906126a7565b611800565b60405161039699989796959493929190612ffb565b60405180910390f35b6103a7611a8f565b6040516103b49190612f80565b60405180910390f35b6103c5611a95565b6040516103d29190612f80565b60405180910390f35b6103f560048036038101906103f0919061271f565b611a9b565b005b6103ff611b97565b60405161040c9190612e23565b60405180910390f35b61042f600480360381019061042a91906126d0565b611bbd565b005b6000600180549050905090565b600760009054906101000a900473ffffffffffffffffffffffffffffffffffffffff1673ffffffffffffffffffffffffffffffffffffffff163373ffffffffffffffffffffffffffffffffffffffff16146104ce576040517f08c379a00000000000000000000000000000000000000000000000000000000081526004016104c590612e7e565b60405180910390fd5b6001600360008373ffffffffffffffffffffffffffffffffffffffff1673ffffffffffffffffffffffffffffffffffffffff16815260200190815260200160002060006101000a81548160ff02191690831515021790555050565b60048060000154908060010160009054906101000a900473ffffffffffffffffffffffffffffffffffffffff16905082565b60036020528060005260406000206000915054906101000a900460ff1681565b6002602052816000526040600020818154811061059757600080fd5b90600052602060002001600091509150505481565b60606001805480602002602001604051908101604052809291908181526020016000905b82821015610a2f57838290600052602060002090600b0201604051806101400160405290816000820154815260200160018201805461060e90613321565b80601f016020809104026020016040519081016040528092919081815260200182805461063a90613321565b80156106875780601f1061065c57610100808354040283529160200191610687565b820191906000526020600020905b81548152906001019060200180831161066a57829003601f168201915b505050505081526020016002820180546106a090613321565b80601f01602080910402602001604051908101604052809291908181526020018280546106cc90613321565b80156107195780601f106106ee57610100808354040283529160200191610719565b820191906000526020600020905b8154815290600101906020018083116106fc57829003601f168201915b505050505081526020016003820160009054906101000a900460ff16600181111561076d577f4e487b7100000000000000000000000000000000000000000000000000000000600052602160045260246000fd5b60018111156107a5577f4e487b7100000000000000000000000000000000000000000000000000000000600052602160045260246000fd5b81526020016003820160019054906101000a900473ffffffffffffffffffffffffffffffffffffffff1673ffffffffffffffffffffffffffffffffffffffff1673ffffffffffffffffffffffffffffffffffffffff1681526020016004820160009054906101000a900473ffffffffffffffffffffffffffffffffffffffff1673ffffffffffffffffffffffffffffffffffffffff1673ffffffffffffffffffffffffffffffffffffffff16815260200160058201805480602002602001604051908101604052809291908181526020016000905b8282101561092657838290600052602060002001805461089990613321565b80601f01602080910402602001604051908101604052809291908181526020018280546108c590613321565b80156109125780601f106108e757610100808354040283529160200191610912565b820191906000526020600020905b8154815290600101906020018083116108f557829003601f168201915b50505050508152602001906001019061087a565b50505050815260200160068201604051806040016040529081600082015481526020016001820160009054906101000a900473ffffffffffffffffffffffffffffffffffffffff1673ffffffffffffffffffffffffffffffffffffffff1673ffffffffffffffffffffffffffffffffffffffff1681525050815260200160088201604051806040016040529081600082015481526020016001820160009054906101000a900473ffffffffffffffffffffffffffffffffffffffff1673ffffffffffffffffffffffffffffffffffffffff1673ffffffffffffffffffffffffffffffffffffffff16815250508152602001600a82015481525050815260200190600101906105d0565b50505050905090565b610a406121d2565b600082118015610a5557506001805490508211155b610a94576040517f08c379a0000000000000000000000000000000000000000000000000000000008152600401610a8b90612ebe565b60405180910390fd5b60018083610aa2919061321a565b81548110610ad9577f4e487b7100000000000000000000000000000000000000000000000000000000600052603260045260246000fd5b90600052602060002090600b02016040518061014001604052908160008201548152602001600182018054610b0d90613321565b80601f0160208091040260200160405190810160405280929190818152602001828054610b3990613321565b8015610b865780601f10610b5b57610100808354040283529160200191610b86565b820191906000526020600020905b815481529060010190602001808311610b6957829003601f168201915b50505050508152602001600282018054610b9f90613321565b80601f0160208091040260200160405190810160405280929190818152602001828054610bcb90613321565b8015610c185780601f10610bed57610100808354040283529160200191610c18565b820191906000526020600020905b815481529060010190602001808311610bfb57829003601f168201915b505050505081526020016003820160009054906101000a900460ff166001811115610c6c577f4e487b7100000000000000000000000000000000000000000000000000000000600052602160045260246000fd5b6001811115610ca4577f4e487b7100000000000000000000000000000000000000000000000000000000600052602160045260246000fd5b81526020016003820160019054906101000a900473ffffffffffffffffffffffffffffffffffffffff1673ffffffffffffffffffffffffffffffffffffffff1673ffffffffffffffffffffffffffffffffffffffff1681526020016004820160009054906101000a900473ffffffffffffffffffffffffffffffffffffffff1673ffffffffffffffffffffffffffffffffffffffff1673ffffffffffffffffffffffffffffffffffffffff16815260200160058201805480602002602001604051908101604052809291908181526020016000905b82821015610e25578382906000526020600020018054610d9890613321565b80601f0160208091040260200160405190810160405280929190818152602001828054610dc490613321565b8015610e115780601f10610de657610100808354040283529160200191610e11565b820191906000526020600020905b815481529060010190602001808311610df457829003601f168201915b505050505081526020019060010190610d79565b50505050815260200160068201604051806040016040529081600082015481526020016001820160009054906101000a900473ffffffffffffffffffffffffffffffffffffffff1673ffffffffffffffffffffffffffffffffffffffff1673ffffffffffffffffffffffffffffffffffffffff1681525050815260200160088201604051806040016040529081600082015481526020016001820160009054906101000a900473ffffffffffffffffffffffffffffffffffffffff1673ffffffffffffffffffffffffffffffffffffffff1673ffffffffffffffffffffffffffffffffffffffff16815250508152602001600a820154815250509050919050565b600b5481565b600760009054906101000a900473ffffffffffffffffffffffffffffffffffffffff1673ffffffffffffffffffffffffffffffffffffffff163373ffffffffffffffffffffffffffffffffffffffff1614610fbc576040517f08c379a0000000000000000000000000000000000000000000000000000000008152600401610fb390612e7e565b60405180910390fd5b60405180604001604052808281526020018373ffffffffffffffffffffffffffffffffffffffff1681525060046000820151816000015560208201518160010160006101000a81548173ffffffffffffffffffffffffffffffffffffffff021916908373ffffffffffffffffffffffffffffffffffffffff1602179055509050505050565b600960009054906101000a900473ffffffffffffffffffffffffffffffffffffffff1681565b600760009054906101000a900473ffffffffffffffffffffffffffffffffffffffff1681565b600860009054906101000a900473ffffffffffffffffffffffffffffffffffffffff1681565b600a5481565b600760009054906101000a900473ffffffffffffffffffffffffffffffffffffffff1673ffffffffffffffffffffffffffffffffffffffff163373ffffffffffffffffffffffffffffffffffffffff1614611149576040517f08c379a000000000000000000000000000000000000000000000000000000000815260040161114090612e7e565b60405180910390fd5b80600660006101000a81548173ffffffffffffffffffffffffffffffffffffffff021916908373ffffffffffffffffffffffffffffffffffffffff16021790555050565b6060600260008373ffffffffffffffffffffffffffffffffffffffff1673ffffffffffffffffffffffffffffffffffffffff16815260200190815260200160002080548060200260200160405190810160405280929190818152602001828054801561121857602002820191906000526020600020905b815481526020019060010190808311611204575b50505050509050919050565b600073ffffffffffffffffffffffffffffffffffffffff168373ffffffffffffffffffffffffffffffffffffffff161415611294576040517f08c379a000000000000000000000000000000000000000000000000000000000815260040161128b90612ede565b60405180910390fd5b60008251116112d8576040517f08c379a00000000000000000000000000000000000000000000000000000000081526004016112cf90612e5e565b60405180910390fd5b6000811161131b576040517f08c379a000000000000000000000000000000000000000000000000000000000815260040161131290612f1e565b60405180910390fd5b3373ffffffffffffffffffffffffffffffffffffffff168373ffffffffffffffffffffffffffffffffffffffff16141561138a576040517f08c379a000000000000000000000000000000000000000000000000000000000815260040161138190612efe565b60405180910390fd5b60006040518060400160405280838152602001600073ffffffffffffffffffffffffffffffffffffffff1681525090506000604051806101400160405280600054815260200188815260200187815260200160006001811115611416577f4e487b7100000000000000000000000000000000000000000000000000000000600052602160045260246000fd5b81526020013373ffffffffffffffffffffffffffffffffffffffff1681526020018673ffffffffffffffffffffffffffffffffffffffff1681526020018581526020016004604051806040016040529081600082015481526020016001820160009054906101000a900473ffffffffffffffffffffffffffffffffffffffff1673ffffffffffffffffffffffffffffffffffffffff1673ffffffffffffffffffffffffffffffffffffffff168152505081526020018381526020016000815250905060018190806001815401808255809150506001900390600052602060002090600b020160009091909190915060008201518160000155602082015181600101908051906020019061152a929190612295565b506040820151816002019080519060200190611547929190612295565b5060608201518160030160006101000a81548160ff02191690836001811115611599577f4e487b7100000000000000000000000000000000000000000000000000000000600052602160045260246000fd5b021790555060808201518160030160016101000a81548173ffffffffffffffffffffffffffffffffffffffff021916908373ffffffffffffffffffffffffffffffffffffffff16021790555060a08201518160040160006101000a81548173ffffffffffffffffffffffffffffffffffffffff021916908373ffffffffffffffffffffffffffffffffffffffff16021790555060c082015181600501908051906020019061164892919061231b565b5060e0820151816006016000820151816000015560208201518160010160006101000a81548173ffffffffffffffffffffffffffffffffffffffff021916908373ffffffffffffffffffffffffffffffffffffffff1602179055505050610100820151816008016000820151816000015560208201518160010160006101000a81548173ffffffffffffffffffffffffffffffffffffffff021916908373ffffffffffffffffffffffffffffffffffffffff160217905550505061012082015181600a01555050600260003373ffffffffffffffffffffffffffffffffffffffff1673ffffffffffffffffffffffffffffffffffffffff16815260200190815260200160002060005490806001815401808255809150506001900390600052602060002001600090919091909150558473ffffffffffffffffffffffffffffffffffffffff163373ffffffffffffffffffffffffffffffffffffffff167f4969d8f058da37f5b596425a39904e9a027ac23d1865d6efd5df5a5e24eef7de600054866040516117d8929190613097565b60405180910390a36000808154809291906117f290613384565b919050555050505050505050565b6001818154811061181057600080fd5b90600052602060002090600b020160009150905080600001549080600101805461183990613321565b80601f016020809104026020016040519081016040528092919081815260200182805461186590613321565b80156118b25780601f10611887576101008083540402835291602001916118b2565b820191906000526020600020905b81548152906001019060200180831161189557829003601f168201915b5050505050908060020180546118c790613321565b80601f01602080910402602001604051908101604052809291908181526020018280546118f390613321565b80156119405780601f1061191557610100808354040283529160200191611940565b820191906000526020600020905b81548152906001019060200180831161192357829003601f168201915b5050505050908060030160009054906101000a900460ff16908060030160019054906101000a900473ffffffffffffffffffffffffffffffffffffffff16908060040160009054906101000a900473ffffffffffffffffffffffffffffffffffffffff169080600601604051806040016040529081600082015481526020016001820160009054906101000a900473ffffffffffffffffffffffffffffffffffffffff1673ffffffffffffffffffffffffffffffffffffffff1673ffffffffffffffffffffffffffffffffffffffff16815250509080600801604051806040016040529081600082015481526020016001820160009054906101000a900473ffffffffffffffffffffffffffffffffffffffff1673ffffffffffffffffffffffffffffffffffffffff1673ffffffffffffffffffffffffffffffffffffffff16815250509080600a0154905089565b60005481565b600c5481565b600760009054906101000a900473ffffffffffffffffffffffffffffffffffffffff1673ffffffffffffffffffffffffffffffffffffffff163373ffffffffffffffffffffffffffffffffffffffff1614611b2b576040517f08c379a0000000000000000000000000000000000000000000000000000000008152600401611b2290612e7e565b60405180910390fd5b60008310158015611b3e57506103e88311155b611b7d576040517f08c379a0000000000000000000000000000000000000000000000000000000008152600401611b7490612f3e565b60405180910390fd5b82600a8190555081600b8190555080600c81905550505050565b600660009054906101000a900473ffffffffffffffffffffffffffffffffffffffff1681565b600083118015611bd257506001805490508311155b611c11576040517f08c379a0000000000000000000000000000000000000000000000000000000008152600401611c0890612ebe565b60405180910390fd5b600360008273ffffffffffffffffffffffffffffffffffffffff1673ffffffffffffffffffffffffffffffffffffffff16815260200190815260200160002060009054906101000a900460ff16611c9d576040517f08c379a0000000000000000000000000000000000000000000000000000000008152600401611c9490612e9e565b60405180910390fd5b600060018085611cad919061321a565b81548110611ce4577f4e487b7100000000000000000000000000000000000000000000000000000000600052603260045260246000fd5b90600052602060002090600b020190506000806000806000808790506103e8600a54029550620f424089870281611d44577f4e487b7100000000000000000000000000000000000000000000000000000000600052601260045260246000fd5b0494506103e8600b54860281611d83577f4e487b7100000000000000000000000000000000000000000000000000000000600052601260045260246000fd5b049350838503925084890391508073ffffffffffffffffffffffffffffffffffffffff166323b872dd33308c6040518463ffffffff1660e01b8152600401611dcd93929190612d64565b602060405180830381600087803b158015611de757600080fd5b505af1158015611dfb573d6000803e3d6000fd5b505050506040513d601f19601f82011682018060405250810190611e1f91906125bf565b611e5e576040517f08c379a0000000000000000000000000000000000000000000000000000000008152600401611e5590612e3e565b60405180910390fd5b8073ffffffffffffffffffffffffffffffffffffffff1663095ea7b3600660009054906101000a900473ffffffffffffffffffffffffffffffffffffffff168b6040518363ffffffff1660e01b8152600401611ebb929190612d9b565b602060405180830381600087803b158015611ed557600080fd5b505af1158015611ee9573d6000803e3d6000fd5b505050506040513d601f19601f82011682018060405250810190611f0d91906125bf565b50600660009054906101000a900473ffffffffffffffffffffffffffffffffffffffff1673ffffffffffffffffffffffffffffffffffffffff16632e2d298483838a60040160009054906101000a900473ffffffffffffffffffffffffffffffffffffffff166040518463ffffffff1660e01b8152600401611f9193929190612fc4565b600060405180830381600087803b158015611fab57600080fd5b505af1158015611fbf573d6000803e3d6000fd5b50505050600660009054906101000a900473ffffffffffffffffffffffffffffffffffffffff1673ffffffffffffffffffffffffffffffffffffffff16632e2d29848583600860009054906101000a900473ffffffffffffffffffffffffffffffffffffffff166040518463ffffffff1660e01b815260040161204493929190612fc4565b600060405180830381600087803b15801561205e57600080fd5b505af1158015612072573d6000803e3d6000fd5b50505050600660009054906101000a900473ffffffffffffffffffffffffffffffffffffffff1673ffffffffffffffffffffffffffffffffffffffff16632e2d29848483600960009054906101000a900473ffffffffffffffffffffffffffffffffffffffff166040518463ffffffff1660e01b81526004016120f793929190612fc4565b600060405180830381600087803b15801561211157600080fd5b505af1158015612125573d6000803e3d6000fd5b505050508887600a01600082825401925050819055508660040160009054906101000a900473ffffffffffffffffffffffffffffffffffffffff1673ffffffffffffffffffffffffffffffffffffffff163373ffffffffffffffffffffffffffffffffffffffff167f1f004c54eef332ef6912dae8f1775c102da23bec79ccf602eaaa072938e96b678c8c6040516121be929190613097565b60405180910390a350505050505050505050565b6040518061014001604052806000815260200160608152602001606081526020016000600181111561222d577f4e487b7100000000000000000000000000000000000000000000000000000000600052602160045260246000fd5b8152602001600073ffffffffffffffffffffffffffffffffffffffff168152602001600073ffffffffffffffffffffffffffffffffffffffff1681526020016060815260200161227b61237b565b815260200161228861237b565b8152602001600081525090565b8280546122a190613321565b90600052602060002090601f0160209004810192826122c3576000855561230a565b82601f106122dc57805160ff191683800117855561230a565b8280016001018555821561230a579182015b828111156123095782518255916020019190600101906122ee565b5b50905061231791906123ab565b5090565b82805482825590600052602060002090810192821561236a579160200282015b82811115612369578251829080519060200190612359929190612295565b509160200191906001019061233b565b5b50905061237791906123c8565b5090565b604051806040016040528060008152602001600073ffffffffffffffffffffffffffffffffffffffff1681525090565b5b808211156123c45760008160009055506001016123ac565b5090565b5b808211156123e857600081816123df91906123ec565b506001016123c9565b5090565b5080546123f890613321565b6000825580601f1061240a5750612429565b601f01602090049060005260206000209081019061242891906123ab565b5b50565b600061243f61243a846130e5565b6130c0565b9050808382526020820190508260005b8581101561247f5781358501612465888261251b565b84526020840193506020830192505060018101905061244f565b5050509392505050565b600061249c61249784613111565b6130c0565b9050828152602081018484840111156124b457600080fd5b6124bf8482856132df565b509392505050565b6000813590506124d6816136dd565b92915050565b600082601f8301126124ed57600080fd5b81356124fd84826020860161242c565b91505092915050565b600081519050612515816136f4565b92915050565b600082601f83011261252c57600080fd5b813561253c848260208601612489565b91505092915050565b6000813590506125548161370b565b92915050565b60006020828403121561256c57600080fd5b600061257a848285016124c7565b91505092915050565b6000806040838503121561259657600080fd5b60006125a4858286016124c7565b92505060206125b585828601612545565b9150509250929050565b6000602082840312156125d157600080fd5b60006125df84828501612506565b91505092915050565b600080600080600060a0868803121561260057600080fd5b600086013567ffffffffffffffff81111561261a57600080fd5b6126268882890161251b565b955050602086013567ffffffffffffffff81111561264357600080fd5b61264f8882890161251b565b9450506040612660888289016124c7565b935050606086013567ffffffffffffffff81111561267d57600080fd5b612689888289016124dc565b925050608061269a88828901612545565b9150509295509295909350565b6000602082840312156126b957600080fd5b60006126c784828501612545565b91505092915050565b6000806000606084860312156126e557600080fd5b60006126f386828701612545565b935050602061270486828701612545565b9250506040612715868287016124c7565b9150509250925092565b60008060006060848603121561273457600080fd5b600061274286828701612545565b935050602061275386828701612545565b925050604061276486828701612545565b9150509250925092565b600061277a8383612950565b905092915050565b600061278e8383612afd565b905092915050565b60006127a28383612d2b565b60208301905092915050565b6127b78161324e565b82525050565b6127c68161324e565b82525050565b60006127d782613172565b6127e181856131c5565b9350836020820285016127f385613142565b8060005b8581101561282f5784840389528151612810858261276e565b945061281b8361319e565b925060208a019950506001810190506127f7565b50829750879550505050505092915050565b600061284c8261317d565b61285681856131d6565b93508360208202850161286885613152565b8060005b858110156128a457848403895281516128858582612782565b9450612890836131ab565b925060208a0199505060018101905061286c565b50829750879550505050505092915050565b60006128c182613188565b6128cb81856131e7565b93506128d683613162565b8060005b838110156129075781516128ee8882612796565b97506128f9836131b8565b9250506001810190506128da565b5085935050505092915050565b61291d81613260565b82525050565b61292c816132a9565b82525050565b61293b816132cd565b82525050565b61294a816132cd565b82525050565b600061295b82613193565b61296581856131f8565b93506129758185602086016132ee565b61297e81613489565b840191505092915050565b600061299482613193565b61299e8185613209565b93506129ae8185602086016132ee565b6129b781613489565b840191505092915050565b60006129cf602d83613209565b91506129da8261349a565b604082019050919050565b60006129f2601883613209565b91506129fd826134e9565b602082019050919050565b6000612a15602583613209565b9150612a2082613512565b604082019050919050565b6000612a38601583613209565b9150612a4382613561565b602082019050919050565b6000612a5b601483613209565b9150612a668261358a565b602082019050919050565b6000612a7e602383613209565b9150612a89826135b3565b604082019050919050565b6000612aa1603283613209565b9150612aac82613602565b604082019050919050565b6000612ac4602883613209565b9150612acf82613651565b604082019050919050565b6000612ae7601683613209565b9150612af2826136a0565b602082019050919050565b600061018083016000830151612b166000860182612d2b565b5060208301518482036020860152612b2e8282612950565b91505060408301518482036040860152612b488282612950565b9150506060830151612b5d6060860182612932565b506080830151612b7060808601826127ae565b5060a0830151612b8360a08601826127ae565b5060c083015184820360c0860152612b9b82826127cc565b91505060e0830151612bb060e0860182612ccd565b50610100830151612bc5610120860182612ccd565b50610120830151612bda610160860182612d2b565b508091505092915050565b600061018083016000830151612bfe6000860182612d2b565b5060208301518482036020860152612c168282612950565b91505060408301518482036040860152612c308282612950565b9150506060830151612c456060860182612932565b506080830151612c5860808601826127ae565b5060a0830151612c6b60a08601826127ae565b5060c083015184820360c0860152612c8382826127cc565b91505060e0830151612c9860e0860182612ccd565b50610100830151612cad610120860182612ccd565b50610120830151612cc2610160860182612d2b565b508091505092915050565b604082016000820151612ce36000850182612d2b565b506020820151612cf660208501826127ae565b50505050565b604082016000820151612d126000850182612d2b565b506020820151612d2560208501826127ae565b50505050565b612d348161329f565b82525050565b612d438161329f565b82525050565b6000602082019050612d5e60008301846127bd565b92915050565b6000606082019050612d7960008301866127bd565b612d8660208301856127bd565b612d936040830184612d3a565b949350505050565b6000604082019050612db060008301856127bd565b612dbd6020830184612d3a565b9392505050565b60006020820190508181036000830152612dde8184612841565b905092915050565b60006020820190508181036000830152612e0081846128b6565b905092915050565b6000602082019050612e1d6000830184612914565b92915050565b6000602082019050612e386000830184612923565b92915050565b60006020820190508181036000830152612e57816129c2565b9050919050565b60006020820190508181036000830152612e77816129e5565b9050919050565b60006020820190508181036000830152612e9781612a08565b9050919050565b60006020820190508181036000830152612eb781612a2b565b9050919050565b60006020820190508181036000830152612ed781612a4e565b9050919050565b60006020820190508181036000830152612ef781612a71565b9050919050565b60006020820190508181036000830152612f1781612a94565b9050919050565b60006020820190508181036000830152612f3781612ab7565b9050919050565b60006020820190508181036000830152612f5781612ada565b9050919050565b60006020820190508181036000830152612f788184612be5565b905092915050565b6000602082019050612f956000830184612d3a565b92915050565b6000604082019050612fb06000830185612d3a565b612fbd60208301846127bd565b9392505050565b6000606082019050612fd96000830186612d3a565b612fe660208301856127bd565b612ff360408301846127bd565b949350505050565b600061016082019050613011600083018c612d3a565b8181036020830152613023818b612989565b90508181036040830152613037818a612989565b90506130466060830189612941565b61305360808301886127bd565b61306060a08301876127bd565b61306d60c0830186612cfc565b61307b610100830185612cfc565b613089610140830184612d3a565b9a9950505050505050505050565b60006040820190506130ac6000830185612d3a565b6130b96020830184612d3a565b9392505050565b60006130ca6130db565b90506130d68282613353565b919050565b6000604051905090565b600067ffffffffffffffff821115613100576130ff61345a565b5b602082029050602081019050919050565b600067ffffffffffffffff82111561312c5761312b61345a565b5b61313582613489565b9050602081019050919050565b6000819050602082019050919050565b6000819050602082019050919050565b6000819050602082019050919050565b600081519050919050565b600081519050919050565b600081519050919050565b600081519050919050565b6000602082019050919050565b6000602082019050919050565b6000602082019050919050565b600082825260208201905092915050565b600082825260208201905092915050565b600082825260208201905092915050565b600082825260208201905092915050565b600082825260208201905092915050565b60006132258261329f565b91506132308361329f565b925082821015613243576132426133cd565b5b828203905092915050565b60006132598261327f565b9050919050565b60008115159050919050565b600081905061327a826136c9565b919050565b600073ffffffffffffffffffffffffffffffffffffffff82169050919050565b6000819050919050565b60006132b4826132bb565b9050919050565b60006132c68261327f565b9050919050565b60006132d88261326c565b9050919050565b82818337600083830152505050565b60005b8381101561330c5780820151818401526020810190506132f1565b8381111561331b576000848401525b50505050565b6000600282049050600182168061333957607f821691505b6020821081141561334d5761334c61342b565b5b50919050565b61335c82613489565b810181811067ffffffffffffffff8211171561337b5761337a61345a565b5b80604052505050565b600061338f8261329f565b91507fffffffffffffffffffffffffffffffffffffffffffffffffffffffffffffffff8214156133c2576133c16133cd565b5b600182019050919050565b7f4e487b7100000000000000000000000000000000000000000000000000000000600052601160045260246000fd5b7f4e487b7100000000000000000000000000000000000000000000000000000000600052602160045260246000fd5b7f4e487b7100000000000000000000000000000000000000000000000000000000600052602260045260246000fd5b7f4e487b7100000000000000000000000000000000000000000000000000000000600052604160045260246000fd5b6000601f19601f8301169050919050565b7f55736572206d75737420617070726f76652074686520616d6f756e74206f662060008201527f7468652061677265656d656e7400000000000000000000000000000000000000602082015250565b7f536b696c6c73206d757374206e6f7420626520656d7074790000000000000000600082015250565b7f4f6e6c7920746865206f776e65722063616e2063616c6c20746869732066756e60008201527f6374696f6e000000000000000000000000000000000000000000000000000000602082015250565b7f496e76616c6964207061796d656e7420746f6b656e0000000000000000000000600082015250565b7f496e76616c69642061677265656d656e74204944000000000000000000000000600082015250565b7f50726f66657373696f6e616c20616464726573732063616e6e6f74206265207a60008201527f65726f0000000000000000000000000000000000000000000000000000000000602082015250565b7f50726f66657373696f6e616c20616464726573732063616e6e6f74206265207460008201527f68652073616d6520617320636f6d70616e790000000000000000000000000000602082015250565b7f5061796d656e7420616d6f756e74206d7573742062652067726561746572207460008201527f68616e207a65726f000000000000000000000000000000000000000000000000602082015250565b7f496e76616c6964206665652070657263656e7461676500000000000000000000600082015250565b600281106136da576136d96133fc565b5b50565b6136e68161324e565b81146136f157600080fd5b50565b6136fd81613260565b811461370857600080fd5b50565b6137148161329f565b811461371f57600080fd5b5056fea26469706673582212204d9e4368db90c8956fef3145a69d2ef345ab9e98472c09afd2fed5b724f82f0064736f6c63430008010033",
  "linkReferences": {},
  "deployedLinkReferences": {}
}