{
  "_format": "hh-sol-artifact-1",
  "contractName": "AgreementContract",
  "sourceName": "contracts/AgreementContract.sol",
  "abi": [
    {
      "inputs": [
        {
          "internalType": "address",
          "name": "_kyodoTreasury",
          "type": "address"
        },
        {
          "internalType": "uint256",
          "name": "_kyodoProtocolFee",
          "type": "uint256"
        },
        {
          "internalType": "address",
          "name": "admin",
          "type": "address"
        }
      ],
      "stateMutability": "nonpayable",
      "type": "constructor"
    },
    {
      "anonymous": false,
      "inputs": [
        {
          "indexed": true,
          "internalType": "address",
          "name": "company",
          "type": "address"
        },
        {
          "indexed": true,
          "internalType": "address",
          "name": "professional",
          "type": "address"
        },
        {
          "indexed": false,
          "internalType": "uint256",
          "name": "agreementId",
          "type": "uint256"
        },
        {
          "indexed": false,
          "internalType": "uint256",
          "name": "amount",
          "type": "uint256"
        }
      ],
      "name": "AgreementCreated",
      "type": "event"
    },
    {
      "anonymous": false,
      "inputs": [
        {
          "indexed": true,
          "internalType": "address",
          "name": "new_admin",
          "type": "address"
        }
      ],
      "name": "NewAdminAdded",
      "type": "event"
    },
    {
      "anonymous": false,
      "inputs": [
        {
          "indexed": true,
          "internalType": "address",
          "name": "profile",
          "type": "address"
        }
      ],
      "name": "NewProfileAdded",
      "type": "event"
    },
    {
      "anonymous": false,
      "inputs": [
        {
          "indexed": false,
          "internalType": "address",
          "name": "account",
          "type": "address"
        }
      ],
      "name": "Paused",
      "type": "event"
    },
    {
      "anonymous": false,
      "inputs": [
        {
          "indexed": true,
          "internalType": "address",
          "name": "company",
          "type": "address"
        },
        {
          "indexed": true,
          "internalType": "address",
          "name": "professional",
          "type": "address"
        },
        {
          "indexed": false,
          "internalType": "uint256",
          "name": "agreementId",
          "type": "uint256"
        },
        {
          "indexed": false,
          "internalType": "uint256",
          "name": "amount",
          "type": "uint256"
        }
      ],
      "name": "PaymentMade",
      "type": "event"
    },
    {
      "anonymous": false,
      "inputs": [
        {
          "indexed": true,
          "internalType": "address",
          "name": "removed_admin",
          "type": "address"
        }
      ],
      "name": "RemovedAdmin",
      "type": "event"
    },
    {
      "anonymous": false,
      "inputs": [
        {
          "indexed": true,
          "internalType": "bytes32",
          "name": "role",
          "type": "bytes32"
        },
        {
          "indexed": true,
          "internalType": "bytes32",
          "name": "previousAdminRole",
          "type": "bytes32"
        },
        {
          "indexed": true,
          "internalType": "bytes32",
          "name": "newAdminRole",
          "type": "bytes32"
        }
      ],
      "name": "RoleAdminChanged",
      "type": "event"
    },
    {
      "anonymous": false,
      "inputs": [
        {
          "indexed": true,
          "internalType": "bytes32",
          "name": "role",
          "type": "bytes32"
        },
        {
          "indexed": true,
          "internalType": "address",
          "name": "account",
          "type": "address"
        },
        {
          "indexed": true,
          "internalType": "address",
          "name": "sender",
          "type": "address"
        }
      ],
      "name": "RoleGranted",
      "type": "event"
    },
    {
      "anonymous": false,
      "inputs": [
        {
          "indexed": true,
          "internalType": "bytes32",
          "name": "role",
          "type": "bytes32"
        },
        {
          "indexed": true,
          "internalType": "address",
          "name": "account",
          "type": "address"
        },
        {
          "indexed": true,
          "internalType": "address",
          "name": "sender",
          "type": "address"
        }
      ],
      "name": "RoleRevoked",
      "type": "event"
    },
    {
      "anonymous": false,
      "inputs": [
        {
          "indexed": false,
          "internalType": "address",
          "name": "account",
          "type": "address"
        }
      ],
      "name": "Unpaused",
      "type": "event"
    },
    {
      "inputs": [],
      "name": "CHANGE_PARAMETERS",
      "outputs": [
        {
          "internalType": "bytes32",
          "name": "",
          "type": "bytes32"
        }
      ],
      "stateMutability": "view",
      "type": "function"
    },
    {
      "inputs": [],
      "name": "DEFAULT_ADMIN_ROLE",
      "outputs": [
        {
          "internalType": "bytes32",
          "name": "",
          "type": "bytes32"
        }
      ],
      "stateMutability": "view",
      "type": "function"
    },
    {
      "inputs": [
        {
          "internalType": "address",
          "name": "",
          "type": "address"
        }
      ],
      "name": "acceptedPaymentTokens",
      "outputs": [
        {
          "internalType": "bool",
          "name": "",
          "type": "bool"
        }
      ],
      "stateMutability": "view",
      "type": "function"
    },
    {
      "inputs": [
        {
          "internalType": "address",
          "name": "_tokenAddress",
          "type": "address"
        }
      ],
      "name": "addAcceptedPaymentToken",
      "outputs": [],
      "stateMutability": "nonpayable",
      "type": "function"
    },
    {
      "inputs": [
        {
          "internalType": "address",
          "name": "account",
          "type": "address"
        }
      ],
      "name": "addAdmin",
      "outputs": [],
      "stateMutability": "nonpayable",
      "type": "function"
    },
    {
      "inputs": [
        {
          "internalType": "address",
          "name": "account",
          "type": "address"
        }
      ],
      "name": "addProfile",
      "outputs": [],
      "stateMutability": "nonpayable",
      "type": "function"
    },
    {
      "inputs": [
        {
          "internalType": "uint256",
          "name": "",
          "type": "uint256"
        },
        {
          "internalType": "uint256",
          "name": "",
          "type": "uint256"
        }
      ],
      "name": "agreementSkills",
      "outputs": [
        {
          "internalType": "string",
          "name": "name",
          "type": "string"
        },
        {
          "internalType": "uint256",
          "name": "level",
          "type": "uint256"
        }
      ],
      "stateMutability": "view",
      "type": "function"
    },
    {
      "inputs": [
        {
          "internalType": "uint256",
          "name": "",
          "type": "uint256"
        }
      ],
      "name": "agreements",
      "outputs": [
        {
          "internalType": "uint256",
          "name": "id",
          "type": "uint256"
        },
        {
          "internalType": "string",
          "name": "title",
          "type": "string"
        },
        {
          "internalType": "string",
          "name": "description",
          "type": "string"
        },
        {
          "internalType": "enum IAgreementContract.AgreementStatus",
          "name": "status",
          "type": "uint8"
        },
        {
          "internalType": "address",
          "name": "company",
          "type": "address"
        },
        {
          "internalType": "address",
          "name": "professional",
          "type": "address"
        },
        {
          "internalType": "uint256",
          "name": "paymentAmount",
          "type": "uint256"
        },
        {
          "internalType": "uint256",
          "name": "totalPaid",
          "type": "uint256"
        },
        {
          "internalType": "uint256",
          "name": "fee",
          "type": "uint256"
        }
      ],
      "stateMutability": "view",
      "type": "function"
    },
    {
      "inputs": [
        {
          "internalType": "address",
          "name": "",
          "type": "address"
        },
        {
          "internalType": "uint256",
          "name": "",
          "type": "uint256"
        }
      ],
      "name": "contractorAgreements",
      "outputs": [
        {
          "internalType": "uint256",
          "name": "",
          "type": "uint256"
        }
      ],
      "stateMutability": "view",
      "type": "function"
    },
    {
      "inputs": [
        {
          "internalType": "string",
          "name": "_title",
          "type": "string"
        },
        {
          "internalType": "string",
          "name": "_description",
          "type": "string"
        },
        {
          "internalType": "address",
          "name": "_professional",
          "type": "address"
        },
        {
          "components": [
            {
              "internalType": "string",
              "name": "name",
              "type": "string"
            },
            {
              "internalType": "uint256",
              "name": "level",
              "type": "uint256"
            }
          ],
          "internalType": "struct IAgreementContract.Skill[]",
          "name": "_skills",
          "type": "tuple[]"
        },
        {
          "internalType": "uint256",
          "name": "_paymentAmount",
          "type": "uint256"
        }
      ],
      "name": "createAgreement",
      "outputs": [],
      "stateMutability": "nonpayable",
      "type": "function"
    },
    {
      "inputs": [],
      "name": "feePercentage",
      "outputs": [
        {
          "internalType": "uint256",
          "name": "",
          "type": "uint256"
        }
      ],
      "stateMutability": "view",
      "type": "function"
    },
    {
      "inputs": [],
      "name": "getAcceptedPaymentTokens",
      "outputs": [
        {
          "internalType": "address",
          "name": "",
          "type": "address"
        }
      ],
      "stateMutability": "view",
      "type": "function"
    },
    {
      "inputs": [
        {
          "internalType": "uint256",
          "name": "_id",
          "type": "uint256"
        }
      ],
      "name": "getAgreementById",
      "outputs": [
        {
          "components": [
            {
              "internalType": "uint256",
              "name": "id",
              "type": "uint256"
            },
            {
              "internalType": "string",
              "name": "title",
              "type": "string"
            },
            {
              "internalType": "string",
              "name": "description",
              "type": "string"
            },
            {
              "internalType": "enum IAgreementContract.AgreementStatus",
              "name": "status",
              "type": "uint8"
            },
            {
              "internalType": "address",
              "name": "company",
              "type": "address"
            },
            {
              "internalType": "address",
              "name": "professional",
              "type": "address"
            },
            {
              "internalType": "uint256",
              "name": "paymentAmount",
              "type": "uint256"
            },
            {
              "internalType": "uint256",
              "name": "totalPaid",
              "type": "uint256"
            },
            {
              "internalType": "uint256",
              "name": "fee",
              "type": "uint256"
            }
          ],
          "internalType": "struct IAgreementContract.Agreement",
          "name": "",
          "type": "tuple"
        }
      ],
      "stateMutability": "view",
      "type": "function"
    },
    {
      "inputs": [],
      "name": "getAgreementCount",
      "outputs": [
        {
          "internalType": "uint256",
          "name": "",
          "type": "uint256"
        }
      ],
      "stateMutability": "view",
      "type": "function"
    },
    {
      "inputs": [],
      "name": "getAllAgreements",
      "outputs": [
        {
          "components": [
            {
              "internalType": "uint256",
              "name": "id",
              "type": "uint256"
            },
            {
              "internalType": "string",
              "name": "title",
              "type": "string"
            },
            {
              "internalType": "string",
              "name": "description",
              "type": "string"
            },
            {
              "internalType": "enum IAgreementContract.AgreementStatus",
              "name": "status",
              "type": "uint8"
            },
            {
              "internalType": "address",
              "name": "company",
              "type": "address"
            },
            {
              "internalType": "address",
              "name": "professional",
              "type": "address"
            },
            {
              "internalType": "uint256",
              "name": "paymentAmount",
              "type": "uint256"
            },
            {
              "internalType": "uint256",
              "name": "totalPaid",
              "type": "uint256"
            },
            {
              "internalType": "uint256",
              "name": "fee",
              "type": "uint256"
            }
          ],
          "internalType": "struct IAgreementContract.Agreement[]",
          "name": "",
          "type": "tuple[]"
        }
      ],
      "stateMutability": "view",
      "type": "function"
    },
    {
      "inputs": [
        {
          "internalType": "address",
          "name": "_contractor",
          "type": "address"
        }
      ],
      "name": "getContractorAgreementIds",
      "outputs": [
        {
          "internalType": "uint256[]",
          "name": "",
          "type": "uint256[]"
        }
      ],
      "stateMutability": "view",
      "type": "function"
    },
    {
      "inputs": [],
      "name": "getFee",
      "outputs": [
        {
          "internalType": "uint256",
          "name": "",
          "type": "uint256"
        }
      ],
      "stateMutability": "view",
      "type": "function"
    },
    {
      "inputs": [
        {
          "internalType": "address",
          "name": "_professional",
          "type": "address"
        }
      ],
      "name": "getProfessionalAgreementIds",
      "outputs": [
        {
          "internalType": "uint256[]",
          "name": "",
          "type": "uint256[]"
        }
      ],
      "stateMutability": "view",
      "type": "function"
    },
    {
      "inputs": [
        {
          "internalType": "bytes32",
          "name": "role",
          "type": "bytes32"
        }
      ],
      "name": "getRoleAdmin",
      "outputs": [
        {
          "internalType": "bytes32",
          "name": "",
          "type": "bytes32"
        }
      ],
      "stateMutability": "view",
      "type": "function"
    },
    {
      "inputs": [
        {
          "internalType": "uint256",
          "name": "_agreementId",
          "type": "uint256"
        }
      ],
      "name": "getSkillsByAgreementId",
      "outputs": [
        {
          "components": [
            {
              "internalType": "string",
              "name": "name",
              "type": "string"
            },
            {
              "internalType": "uint256",
              "name": "level",
              "type": "uint256"
            }
          ],
          "internalType": "struct IAgreementContract.Skill[]",
          "name": "",
          "type": "tuple[]"
        }
      ],
      "stateMutability": "view",
      "type": "function"
    },
    {
      "inputs": [
        {
          "internalType": "bytes32",
          "name": "role",
          "type": "bytes32"
        },
        {
          "internalType": "address",
          "name": "account",
          "type": "address"
        }
      ],
      "name": "grantRole",
      "outputs": [],
      "stateMutability": "nonpayable",
      "type": "function"
    },
    {
      "inputs": [
        {
          "internalType": "bytes32",
          "name": "role",
          "type": "bytes32"
        },
        {
          "internalType": "address",
          "name": "account",
          "type": "address"
        }
      ],
      "name": "hasRole",
      "outputs": [
        {
          "internalType": "bool",
          "name": "",
          "type": "bool"
        }
      ],
      "stateMutability": "view",
      "type": "function"
    },
    {
      "inputs": [],
      "name": "kyodoProtocolFee",
      "outputs": [
        {
          "internalType": "uint256",
          "name": "",
          "type": "uint256"
        }
      ],
      "stateMutability": "view",
      "type": "function"
    },
    {
      "inputs": [],
      "name": "kyodoTreasury",
      "outputs": [
        {
          "internalType": "address",
          "name": "",
          "type": "address"
        }
      ],
      "stateMutability": "view",
      "type": "function"
    },
    {
      "inputs": [
        {
          "internalType": "uint256[]",
          "name": "_agreementIds",
          "type": "uint256[]"
        },
        {
          "internalType": "uint256[]",
          "name": "_amountsToPay",
          "type": "uint256[]"
        },
        {
          "internalType": "address",
          "name": "_paymentAddress",
          "type": "address"
        }
      ],
      "name": "makePayment",
      "outputs": [],
      "stateMutability": "nonpayable",
      "type": "function"
    },
    {
      "inputs": [],
      "name": "nextAgreementId",
      "outputs": [
        {
          "internalType": "uint256",
          "name": "",
          "type": "uint256"
        }
      ],
      "stateMutability": "view",
      "type": "function"
    },
    {
      "inputs": [],
      "name": "pause",
      "outputs": [],
      "stateMutability": "nonpayable",
      "type": "function"
    },
    {
      "inputs": [],
      "name": "paused",
      "outputs": [
        {
          "internalType": "bool",
          "name": "",
          "type": "bool"
        }
      ],
      "stateMutability": "view",
      "type": "function"
    },
    {
      "inputs": [
        {
          "internalType": "address",
          "name": "account",
          "type": "address"
        }
      ],
      "name": "removeAdmin",
      "outputs": [],
      "stateMutability": "nonpayable",
      "type": "function"
    },
    {
      "inputs": [
        {
          "internalType": "address",
          "name": "token",
          "type": "address"
        }
      ],
      "name": "removePaymentToken",
      "outputs": [],
      "stateMutability": "nonpayable",
      "type": "function"
    },
    {
      "inputs": [
        {
          "internalType": "bytes32",
          "name": "role",
          "type": "bytes32"
        },
        {
          "internalType": "address",
          "name": "account",
          "type": "address"
        }
      ],
      "name": "renounceRole",
      "outputs": [],
      "stateMutability": "nonpayable",
      "type": "function"
    },
    {
      "inputs": [
        {
          "internalType": "bytes32",
          "name": "role",
          "type": "bytes32"
        },
        {
          "internalType": "address",
          "name": "account",
          "type": "address"
        }
      ],
      "name": "revokeRole",
      "outputs": [],
      "stateMutability": "nonpayable",
      "type": "function"
    },
    {
      "inputs": [
        {
          "internalType": "bytes4",
          "name": "interfaceId",
          "type": "bytes4"
        }
      ],
      "name": "supportsInterface",
      "outputs": [
        {
          "internalType": "bool",
          "name": "",
          "type": "bool"
        }
      ],
      "stateMutability": "view",
      "type": "function"
    },
    {
      "inputs": [
        {
          "internalType": "uint256",
          "name": "",
          "type": "uint256"
        }
      ],
      "name": "tokenAddresses",
      "outputs": [
        {
          "internalType": "address",
          "name": "",
          "type": "address"
        }
      ],
      "stateMutability": "view",
      "type": "function"
    },
    {
      "inputs": [],
      "name": "unpause",
      "outputs": [],
      "stateMutability": "nonpayable",
      "type": "function"
    },
    {
      "inputs": [
        {
          "internalType": "uint256",
          "name": "_kyodoProtocolFee",
          "type": "uint256"
        }
      ],
      "name": "updateFee",
      "outputs": [],
      "stateMutability": "nonpayable",
      "type": "function"
    }
  ],
  "bytecode": "0x608060405260016002553480156200001657600080fd5b50604051620049c9380380620049c983398181016040528101906200003c9190620002f9565b806000600160006101000a81548160ff0219169083151502179055506200006d6000801b82620000f160201b60201c565b6200009f7f73fd536265c26e6e13263018bc9d82a9b962a7857ae70dac847fd743f5e7153582620000f160201b60201c565b5082600960006101000a81548173ffffffffffffffffffffffffffffffffffffffff021916908373ffffffffffffffffffffffffffffffffffffffff16021790555081600b8190555050505062000355565b620001038282620001e260201b60201c565b620001de57600160008084815260200190815260200160002060000160008373ffffffffffffffffffffffffffffffffffffffff1673ffffffffffffffffffffffffffffffffffffffff16815260200190815260200160002060006101000a81548160ff021916908315150217905550620001836200024c60201b60201c565b73ffffffffffffffffffffffffffffffffffffffff168173ffffffffffffffffffffffffffffffffffffffff16837f2f8788117e7eff1d82e926ec794901d17c78024a50270940304540a733656f0d60405160405180910390a45b5050565b600080600084815260200190815260200160002060000160008373ffffffffffffffffffffffffffffffffffffffff1673ffffffffffffffffffffffffffffffffffffffff16815260200190815260200160002060009054906101000a900460ff16905092915050565b600033905090565b600080fd5b600073ffffffffffffffffffffffffffffffffffffffff82169050919050565b6000620002868262000259565b9050919050565b620002988162000279565b8114620002a457600080fd5b50565b600081519050620002b8816200028d565b92915050565b6000819050919050565b620002d381620002be565b8114620002df57600080fd5b50565b600081519050620002f381620002c8565b92915050565b60008060006060848603121562000315576200031462000254565b5b60006200032586828701620002a7565b93505060206200033886828701620002e2565b92505060406200034b86828701620002a7565b9150509250925092565b61466480620003656000396000f3fe608060405234801561001057600080fd5b506004361061021b5760003560e01c806377be3d2f11610125578063a5125421116100ad578063c9b99dab1161007c578063c9b99dab14610643578063ced72f8714610661578063d547741f1461067f578063e5df8b841461069b578063f38d215d146106cb5761021b565b8063a5125421146105a3578063a8613676146105bf578063b3f8cb00146105db578063bd14de961461060b5761021b565b80639012c4a8116100f45780639012c4a8146104fd57806391d1485414610519578063964bb4ab14610549578063a001ecdd14610567578063a217fddf146105855761021b565b806377be3d2f14610487578063792f3091146104a55780638456cb59146104c35780638ee0344f146104cd5761021b565b806336568abe116101a85780634e92fafd116101775780634e92fafd146103cf5780634f7cd72f146103ff578063573fb6241461041d5780635c975abb1461044d578063704802751461046b5761021b565b806336568abe1461035b5780633f4ba83a14610377578063484bb244146103815780634e6873c7146103b15761021b565b806313cda3b7116101ef57806313cda3b7146102a65780631785f53c146102c2578063248a9ca3146102de57806329db74931461030e5780632f2ff15d1461033f5761021b565b80628bed3e1461022057806301ffc9a71461023e5780630778c3581461026e57806310143a641461028a575b600080fd5b6102286106fb565b6040516102359190612993565b60405180910390f35b61025860048036038101906102539190612a1a565b610708565b6040516102659190612a62565b60405180910390f35b61028860048036038101906102839190612c60565b610782565b005b6102a4600480360381019061029f9190612ceb565b610c8c565b005b6102c060048036038101906102bb9190612ceb565b610d04565b005b6102dc60048036038101906102d79190612ceb565b610dd0565b005b6102f860048036038101906102f39190612d4e565b610e39565b6040516103059190612d8a565b60405180910390f35b61032860048036038101906103239190612da5565b610e58565b604051610336929190612e64565b60405180910390f35b61035960048036038101906103549190612e94565b610f21565b005b61037560048036038101906103709190612e94565b610f42565b005b61037f610fc5565b005b61039b60048036038101906103969190612ceb565b610fe5565b6040516103a89190612a62565b60405180910390f35b6103b9611005565b6040516103c69190613141565b60405180910390f35b6103e960048036038101906103e49190612ceb565b611298565b6040516103f69190613212565b60405180910390f35b61040761132f565b6040516104149190612d8a565b60405180910390f35b61043760048036038101906104329190613234565b611353565b604051610444919061332d565b60405180910390f35b610455611623565b6040516104629190612a62565b60405180910390f35b61048560048036038101906104809190612ceb565b61163a565b005b61048f6116a3565b60405161049c919061335e565b60405180910390f35b6104ad6116ea565b6040516104ba9190612993565b60405180910390f35b6104cb6116f0565b005b6104e760048036038101906104e29190612ceb565b611710565b6040516104f49190613212565b60405180910390f35b61051760048036038101906105129190613234565b6117a7565b005b610533600480360381019061052e9190612e94565b611811565b6040516105409190612a62565b60405180910390f35b61055161187b565b60405161055e919061335e565b60405180910390f35b61056f6118a1565b60405161057c9190612993565b60405180910390f35b61058d6118a7565b60405161059a9190612d8a565b60405180910390f35b6105bd60048036038101906105b89190612ceb565b6118ae565b005b6105d960048036038101906105d49190613585565b611917565b005b6105f560048036038101906105f09190613234565b611ef9565b6040516106029190613753565b60405180910390f35b61062560048036038101906106209190613234565b612007565b60405161063a99989796959493929190613784565b60405180910390f35b61064b6121c2565b6040516106589190612993565b60405180910390f35b6106696121c8565b6040516106769190612993565b60405180910390f35b61069960048036038101906106949190612e94565b6121d2565b005b6106b560048036038101906106b09190613234565b6121f3565b6040516106c2919061335e565b60405180910390f35b6106e560048036038101906106e0919061381f565b612232565b6040516106f29190612993565b60405180910390f35b6000600380549050905090565b60007f7965db0b000000000000000000000000000000000000000000000000000000007bffffffffffffffffffffffffffffffffffffffffffffffffffffffff1916827bffffffffffffffffffffffffffffffffffffffffffffffffffffffff1916148061077b575061077a82612263565b5b9050919050565b81518351146107c6576040517f08c379a00000000000000000000000000000000000000000000000000000000081526004016107bd906138ab565b60405180910390fd5b600660008273ffffffffffffffffffffffffffffffffffffffff1673ffffffffffffffffffffffffffffffffffffffff16815260200190815260200160002060009054906101000a900460ff16610852576040517f08c379a000000000000000000000000000000000000000000000000000000000815260040161084990613917565b60405180910390fd5b600081905060005b8451811015610c8557600085828151811061087857610877613937565b5b60200260200101519050600085838151811061089757610896613937565b5b602002602001015190506000821180156108b657506003805490508211155b6108f5576040517f08c379a00000000000000000000000000000000000000000000000000000000081526004016108ec906139b2565b60405180910390fd5b600060036001846109069190613a01565b8154811061091757610916613937565b5b906000526020600020906008020190506000806103e86109356121c8565b85028161094557610944613a35565b5b049150818401905060008773ffffffffffffffffffffffffffffffffffffffff1663dd62ed3e33306040518363ffffffff1660e01b815260040161098a929190613a64565b602060405180830381865afa1580156109a7573d6000803e3d6000fd5b505050506040513d601f19601f820116820180604052508101906109cb9190613aa2565b905081811015610a10576040517f08c379a0000000000000000000000000000000000000000000000000000000008152600401610a0790613b41565b60405180910390fd5b8773ffffffffffffffffffffffffffffffffffffffff166323b872dd3330856040518463ffffffff1660e01b8152600401610a4d93929190613b61565b6020604051808303816000875af1158015610a6c573d6000803e3d6000fd5b505050506040513d601f19601f82011682018060405250810190610a909190613bc4565b508773ffffffffffffffffffffffffffffffffffffffff1663a9059cbb8560040160009054906101000a900473ffffffffffffffffffffffffffffffffffffffff16876040518363ffffffff1660e01b8152600401610af0929190613bf1565b6020604051808303816000875af1158015610b0f573d6000803e3d6000fd5b505050506040513d601f19601f82011682018060405250810190610b339190613bc4565b508773ffffffffffffffffffffffffffffffffffffffff1663a9059cbb600960009054906101000a900473ffffffffffffffffffffffffffffffffffffffff16856040518363ffffffff1660e01b8152600401610b91929190613bf1565b6020604051808303816000875af1158015610bb0573d6000803e3d6000fd5b505050506040513d601f19601f82011682018060405250810190610bd49190613bc4565b508484600601600082825401925050819055508360040160009054906101000a900473ffffffffffffffffffffffffffffffffffffffff1673ffffffffffffffffffffffffffffffffffffffff163373ffffffffffffffffffffffffffffffffffffffff167f1f004c54eef332ef6912dae8f1775c102da23bec79ccf602eaaa072938e96b678888604051610c6a929190613c1a565b60405180910390a3505050505050808060010191505061085a565b5050505050565b610c946122cd565b610cbe7f73fd536265c26e6e13263018bc9d82a9b962a7857ae70dac847fd743f5e7153582612317565b8073ffffffffffffffffffffffffffffffffffffffff167f92364d7c14d8a26a040c77305dd885fcd5898051d1b1ead4189b09d5f091159060405160405180910390a250565b6000801b610d11816123f7565b6001600660008473ffffffffffffffffffffffffffffffffffffffff1673ffffffffffffffffffffffffffffffffffffffff16815260200190815260200160002060006101000a81548160ff0219169083151502179055506008829080600181540180825580915050600190039060005260206000200160009091909190916101000a81548173ffffffffffffffffffffffffffffffffffffffff021916908373ffffffffffffffffffffffffffffffffffffffff1602179055505050565b6000801b610ddd816123f7565b610de56122cd565b610df26000801b8361240b565b8173ffffffffffffffffffffffffffffffffffffffff167f3137a7fedbfedb7895dfa5a6812a4566dae9ded68d00aeec13c6ed1fa84a1c8060405160405180910390a25050565b6000806000838152602001908152602001600020600101549050919050565b60076020528160005260406000208181548110610e7457600080fd5b906000526020600020906002020160009150915050806000018054610e9890613c72565b80601f0160208091040260200160405190810160405280929190818152602001828054610ec490613c72565b8015610f115780601f10610ee657610100808354040283529160200191610f11565b820191906000526020600020905b815481529060010190602001808311610ef457829003601f168201915b5050505050908060010154905082565b610f2a82610e39565b610f33816123f7565b610f3d8383612317565b505050565b610f4a6124ec565b73ffffffffffffffffffffffffffffffffffffffff168173ffffffffffffffffffffffffffffffffffffffff1614610fb7576040517f08c379a0000000000000000000000000000000000000000000000000000000008152600401610fae90613d15565b60405180910390fd5b610fc1828261240b565b5050565b6000801b610fd2816123f7565b610fda6124f4565b610fe261253d565b50565b60066020528060005260406000206000915054906101000a900460ff1681565b60606003805480602002602001604051908101604052809291908181526020016000905b8282101561128f5783829060005260206000209060080201604051806101200160405290816000820154815260200160018201805461106790613c72565b80601f016020809104026020016040519081016040528092919081815260200182805461109390613c72565b80156110e05780601f106110b5576101008083540402835291602001916110e0565b820191906000526020600020905b8154815290600101906020018083116110c357829003601f168201915b505050505081526020016002820180546110f990613c72565b80601f016020809104026020016040519081016040528092919081815260200182805461112590613c72565b80156111725780601f1061114757610100808354040283529160200191611172565b820191906000526020600020905b81548152906001019060200180831161115557829003601f168201915b505050505081526020016003820160009054906101000a900460ff1660018111156111a05761119f612f59565b5b60018111156111b2576111b1612f59565b5b81526020016003820160019054906101000a900473ffffffffffffffffffffffffffffffffffffffff1673ffffffffffffffffffffffffffffffffffffffff1673ffffffffffffffffffffffffffffffffffffffff1681526020016004820160009054906101000a900473ffffffffffffffffffffffffffffffffffffffff1673ffffffffffffffffffffffffffffffffffffffff1673ffffffffffffffffffffffffffffffffffffffff168152602001600582015481526020016006820154815260200160078201548152505081526020019060010190611029565b50505050905090565b6060600560008373ffffffffffffffffffffffffffffffffffffffff1673ffffffffffffffffffffffffffffffffffffffff16815260200190815260200160002080548060200260200160405190810160405280929190818152602001828054801561132357602002820191906000526020600020905b81548152602001906001019080831161130f575b50505050509050919050565b7f73fd536265c26e6e13263018bc9d82a9b962a7857ae70dac847fd743f5e7153581565b61135b6128f0565b60008211801561137057506003805490508211155b6113af576040517f08c379a00000000000000000000000000000000000000000000000000000000081526004016113a6906139b2565b60405180910390fd5b60036001836113be9190613a01565b815481106113cf576113ce613937565b5b9060005260206000209060080201604051806101200160405290816000820154815260200160018201805461140390613c72565b80601f016020809104026020016040519081016040528092919081815260200182805461142f90613c72565b801561147c5780601f106114515761010080835404028352916020019161147c565b820191906000526020600020905b81548152906001019060200180831161145f57829003601f168201915b5050505050815260200160028201805461149590613c72565b80601f01602080910402602001604051908101604052809291908181526020018280546114c190613c72565b801561150e5780601f106114e35761010080835404028352916020019161150e565b820191906000526020600020905b8154815290600101906020018083116114f157829003601f168201915b505050505081526020016003820160009054906101000a900460ff16600181111561153c5761153b612f59565b5b600181111561154e5761154d612f59565b5b81526020016003820160019054906101000a900473ffffffffffffffffffffffffffffffffffffffff1673ffffffffffffffffffffffffffffffffffffffff1673ffffffffffffffffffffffffffffffffffffffff1681526020016004820160009054906101000a900473ffffffffffffffffffffffffffffffffffffffff1673ffffffffffffffffffffffffffffffffffffffff1673ffffffffffffffffffffffffffffffffffffffff16815260200160058201548152602001600682015481526020016007820154815250509050919050565b6000600160009054906101000a900460ff16905090565b6000801b611647816123f7565b61164f6122cd565b61165c6000801b83612317565b8173ffffffffffffffffffffffffffffffffffffffff167f2dbe9fb88463d989acccabbb6ee06901f83672eb78e04a11ff48dd8f69a27cda60405160405180910390a25050565b600060086000815481106116ba576116b9613937565b5b9060005260206000200160009054906101000a900473ffffffffffffffffffffffffffffffffffffffff16905090565b600b5481565b6000801b6116fd816123f7565b6117056122cd565b61170d6125a0565b50565b6060600460008373ffffffffffffffffffffffffffffffffffffffff1673ffffffffffffffffffffffffffffffffffffffff16815260200190815260200160002080548060200260200160405190810160405280929190818152602001828054801561179b57602002820191906000526020600020905b815481526020019060010190808311611787575b50505050509050919050565b6000801b6117b4816123f7565b600082101580156117c757506103e88211155b611806576040517f08c379a00000000000000000000000000000000000000000000000000000000081526004016117fd90613d81565b60405180910390fd5b81600b819055505050565b600080600084815260200190815260200160002060000160008373ffffffffffffffffffffffffffffffffffffffff1673ffffffffffffffffffffffffffffffffffffffff16815260200190815260200160002060009054906101000a900460ff16905092915050565b600960009054906101000a900473ffffffffffffffffffffffffffffffffffffffff1681565b600a5481565b6000801b81565b6000801b6118bb816123f7565b6000600660008473ffffffffffffffffffffffffffffffffffffffff1673ffffffffffffffffffffffffffffffffffffffff16815260200190815260200160002060006101000a81548160ff0219169083151502179055505050565b600073ffffffffffffffffffffffffffffffffffffffff168373ffffffffffffffffffffffffffffffffffffffff1603611986576040517f08c379a000000000000000000000000000000000000000000000000000000000815260040161197d90613e13565b60405180910390fd5b60008251116119ca576040517f08c379a00000000000000000000000000000000000000000000000000000000081526004016119c190613e7f565b60405180910390fd5b60008111611a0d576040517f08c379a0000000000000000000000000000000000000000000000000000000008152600401611a0490613f11565b60405180910390fd5b3373ffffffffffffffffffffffffffffffffffffffff168373ffffffffffffffffffffffffffffffffffffffff1603611a7b576040517f08c379a0000000000000000000000000000000000000000000000000000000008152600401611a7290613fa3565b60405180910390fd5b6000805b8351811015611ac157838181518110611a9b57611a9a613937565b5b60200260200101516020015182611ab29190613fc3565b91508080600101915050611a7f565b506064811115611b06576040517f08c379a0000000000000000000000000000000000000000000000000000000008152600401611afd90614069565b60405180910390fd5b6000604051806101200160405280600254815260200188815260200187815260200160006001811115611b3c57611b3b612f59565b5b81526020013373ffffffffffffffffffffffffffffffffffffffff1681526020018673ffffffffffffffffffffffffffffffffffffffff16815260200184815260200160008152602001611b8e6121c8565b815250905060005b8451811015611c5d576007600060025481526020019081526020016000206040518060400160405280878481518110611bd257611bd1613937565b5b6020026020010151600001518152602001878481518110611bf657611bf5613937565b5b60200260200101516020015181525090806001815401808255809150506001900390600052602060002090600202016000909190919091506000820151816000019081611c439190614235565b506020820151816001015550508080600101915050611b96565b506003819080600181540180825580915050600190039060005260206000209060080201600090919091909150600082015181600001556020820151816001019081611ca99190614235565b506040820151816002019081611cbf9190614235565b5060608201518160030160006101000a81548160ff02191690836001811115611ceb57611cea612f59565b5b021790555060808201518160030160016101000a81548173ffffffffffffffffffffffffffffffffffffffff021916908373ffffffffffffffffffffffffffffffffffffffff16021790555060a08201518160040160006101000a81548173ffffffffffffffffffffffffffffffffffffffff021916908373ffffffffffffffffffffffffffffffffffffffff16021790555060c0820151816005015560e0820151816006015561010082015181600701555050600460003373ffffffffffffffffffffffffffffffffffffffff1673ffffffffffffffffffffffffffffffffffffffff1681526020019081526020016000206002549080600181540180825580915050600190039060005260206000200160009091909190915055600560008673ffffffffffffffffffffffffffffffffffffffff1673ffffffffffffffffffffffffffffffffffffffff16815260200190815260200160002060025490806001815401808255809150506001900390600052602060002001600090919091909150558473ffffffffffffffffffffffffffffffffffffffff163373ffffffffffffffffffffffffffffffffffffffff167f4969d8f058da37f5b596425a39904e9a027ac23d1865d6efd5df5a5e24eef7de60025486604051611ed0929190613c1a565b60405180910390a360026000815480929190611eeb90614307565b919050555050505050505050565b606060076000838152602001908152602001600020805480602002602001604051908101604052809291908181526020016000905b82821015611ffc5783829060005260206000209060020201604051806040016040529081600082018054611f6190613c72565b80601f0160208091040260200160405190810160405280929190818152602001828054611f8d90613c72565b8015611fda5780601f10611faf57610100808354040283529160200191611fda565b820191906000526020600020905b815481529060010190602001808311611fbd57829003601f168201915b5050505050815260200160018201548152505081526020019060010190611f2e565b505050509050919050565b6003818154811061201757600080fd5b906000526020600020906008020160009150905080600001549080600101805461204090613c72565b80601f016020809104026020016040519081016040528092919081815260200182805461206c90613c72565b80156120b95780601f1061208e576101008083540402835291602001916120b9565b820191906000526020600020905b81548152906001019060200180831161209c57829003601f168201915b5050505050908060020180546120ce90613c72565b80601f01602080910402602001604051908101604052809291908181526020018280546120fa90613c72565b80156121475780601f1061211c57610100808354040283529160200191612147565b820191906000526020600020905b81548152906001019060200180831161212a57829003601f168201915b5050505050908060030160009054906101000a900460ff16908060030160019054906101000a900473ffffffffffffffffffffffffffffffffffffffff16908060040160009054906101000a900473ffffffffffffffffffffffffffffffffffffffff16908060050154908060060154908060070154905089565b60025481565b6000600b54905090565b6121db82610e39565b6121e4816123f7565b6121ee838361240b565b505050565b6008818154811061220357600080fd5b906000526020600020016000915054906101000a900473ffffffffffffffffffffffffffffffffffffffff1681565b6004602052816000526040600020818154811061224e57600080fd5b90600052602060002001600091509150505481565b60007f01ffc9a7000000000000000000000000000000000000000000000000000000007bffffffffffffffffffffffffffffffffffffffffffffffffffffffff1916827bffffffffffffffffffffffffffffffffffffffffffffffffffffffff1916149050919050565b6122d5611623565b15612315576040517f08c379a000000000000000000000000000000000000000000000000000000000815260040161230c9061439b565b60405180910390fd5b565b6123218282611811565b6123f357600160008084815260200190815260200160002060000160008373ffffffffffffffffffffffffffffffffffffffff1673ffffffffffffffffffffffffffffffffffffffff16815260200190815260200160002060006101000a81548160ff0219169083151502179055506123986124ec565b73ffffffffffffffffffffffffffffffffffffffff168173ffffffffffffffffffffffffffffffffffffffff16837f2f8788117e7eff1d82e926ec794901d17c78024a50270940304540a733656f0d60405160405180910390a45b5050565b612408816124036124ec565b612602565b50565b6124158282611811565b156124e857600080600084815260200190815260200160002060000160008373ffffffffffffffffffffffffffffffffffffffff1673ffffffffffffffffffffffffffffffffffffffff16815260200190815260200160002060006101000a81548160ff02191690831515021790555061248d6124ec565b73ffffffffffffffffffffffffffffffffffffffff168173ffffffffffffffffffffffffffffffffffffffff16837ff6391f5c32d9c69d2a47ea670b442974b53935d1edc7fd64eb21e047a839171b60405160405180910390a45b5050565b600033905090565b6124fc611623565b61253b576040517f08c379a000000000000000000000000000000000000000000000000000000000815260040161253290614407565b60405180910390fd5b565b6125456124f4565b6000600160006101000a81548160ff0219169083151502179055507f5db9ee0a495bf2e6ff9c91a7834c1ba4fdd244a5e8aa4e537bd38aeae4b073aa6125896124ec565b604051612596919061335e565b60405180910390a1565b6125a86122cd565b60018060006101000a81548160ff0219169083151502179055507f62e78cea01bee320cd4e420270b5ea74000d11b0c9f74754ebdbfc544b05a2586125eb6124ec565b6040516125f8919061335e565b60405180910390a1565b61260c8282611811565b6126835761261981612687565b6126278360001c60206126b4565b6040516020016126389291906144fb565b6040516020818303038152906040526040517f08c379a000000000000000000000000000000000000000000000000000000000815260040161267a9190614535565b60405180910390fd5b5050565b60606126ad8273ffffffffffffffffffffffffffffffffffffffff16601460ff166126b4565b9050919050565b6060600060028360026126c79190614557565b6126d19190613fc3565b67ffffffffffffffff8111156126ea576126e9612a93565b5b6040519080825280601f01601f19166020018201604052801561271c5781602001600182028036833780820191505090505b5090507f30000000000000000000000000000000000000000000000000000000000000008160008151811061275457612753613937565b5b60200101907effffffffffffffffffffffffffffffffffffffffffffffffffffffffffffff1916908160001a9053507f7800000000000000000000000000000000000000000000000000000000000000816001815181106127b8576127b7613937565b5b60200101907effffffffffffffffffffffffffffffffffffffffffffffffffffffffffffff1916908160001a905350600060018460026127f89190614557565b6128029190613fc3565b90505b60018111156128a2577f3031323334353637383961626364656600000000000000000000000000000000600f86166010811061284457612843613937565b5b1a60f81b82828151811061285b5761285a613937565b5b60200101907effffffffffffffffffffffffffffffffffffffffffffffffffffffffffffff1916908160001a905350600485901c94508061289b90614599565b9050612805565b50600084146128e6576040517f08c379a00000000000000000000000000000000000000000000000000000000081526004016128dd9061460e565b60405180910390fd5b8091505092915050565b6040518061012001604052806000815260200160608152602001606081526020016000600181111561292557612924612f59565b5b8152602001600073ffffffffffffffffffffffffffffffffffffffff168152602001600073ffffffffffffffffffffffffffffffffffffffff1681526020016000815260200160008152602001600081525090565b6000819050919050565b61298d8161297a565b82525050565b60006020820190506129a86000830184612984565b92915050565b6000604051905090565b600080fd5b600080fd5b60007fffffffff0000000000000000000000000000000000000000000000000000000082169050919050565b6129f7816129c2565b8114612a0257600080fd5b50565b600081359050612a14816129ee565b92915050565b600060208284031215612a3057612a2f6129b8565b5b6000612a3e84828501612a05565b91505092915050565b60008115159050919050565b612a5c81612a47565b82525050565b6000602082019050612a776000830184612a53565b92915050565b600080fd5b6000601f19601f8301169050919050565b7f4e487b7100000000000000000000000000000000000000000000000000000000600052604160045260246000fd5b612acb82612a82565b810181811067ffffffffffffffff82111715612aea57612ae9612a93565b5b80604052505050565b6000612afd6129ae565b9050612b098282612ac2565b919050565b600067ffffffffffffffff821115612b2957612b28612a93565b5b602082029050602081019050919050565b600080fd5b612b488161297a565b8114612b5357600080fd5b50565b600081359050612b6581612b3f565b92915050565b6000612b7e612b7984612b0e565b612af3565b90508083825260208201905060208402830185811115612ba157612ba0612b3a565b5b835b81811015612bca5780612bb68882612b56565b845260208401935050602081019050612ba3565b5050509392505050565b600082601f830112612be957612be8612a7d565b5b8135612bf9848260208601612b6b565b91505092915050565b600073ffffffffffffffffffffffffffffffffffffffff82169050919050565b6000612c2d82612c02565b9050919050565b612c3d81612c22565b8114612c4857600080fd5b50565b600081359050612c5a81612c34565b92915050565b600080600060608486031215612c7957612c786129b8565b5b600084013567ffffffffffffffff811115612c9757612c966129bd565b5b612ca386828701612bd4565b935050602084013567ffffffffffffffff811115612cc457612cc36129bd565b5b612cd086828701612bd4565b9250506040612ce186828701612c4b565b9150509250925092565b600060208284031215612d0157612d006129b8565b5b6000612d0f84828501612c4b565b91505092915050565b6000819050919050565b612d2b81612d18565b8114612d3657600080fd5b50565b600081359050612d4881612d22565b92915050565b600060208284031215612d6457612d636129b8565b5b6000612d7284828501612d39565b91505092915050565b612d8481612d18565b82525050565b6000602082019050612d9f6000830184612d7b565b92915050565b60008060408385031215612dbc57612dbb6129b8565b5b6000612dca85828601612b56565b9250506020612ddb85828601612b56565b9150509250929050565b600081519050919050565b600082825260208201905092915050565b60005b83811015612e1f578082015181840152602081019050612e04565b60008484015250505050565b6000612e3682612de5565b612e408185612df0565b9350612e50818560208601612e01565b612e5981612a82565b840191505092915050565b60006040820190508181036000830152612e7e8185612e2b565b9050612e8d6020830184612984565b9392505050565b60008060408385031215612eab57612eaa6129b8565b5b6000612eb985828601612d39565b9250506020612eca85828601612c4b565b9150509250929050565b600081519050919050565b600082825260208201905092915050565b6000819050602082019050919050565b612f098161297a565b82525050565b600082825260208201905092915050565b6000612f2b82612de5565b612f358185612f0f565b9350612f45818560208601612e01565b612f4e81612a82565b840191505092915050565b7f4e487b7100000000000000000000000000000000000000000000000000000000600052602160045260246000fd5b60028110612f9957612f98612f59565b5b50565b6000819050612faa82612f88565b919050565b6000612fba82612f9c565b9050919050565b612fca81612faf565b82525050565b612fd981612c22565b82525050565b600061012083016000830151612ff86000860182612f00565b50602083015184820360208601526130108282612f20565b9150506040830151848203604086015261302a8282612f20565b915050606083015161303f6060860182612fc1565b5060808301516130526080860182612fd0565b5060a083015161306560a0860182612fd0565b5060c083015161307860c0860182612f00565b5060e083015161308b60e0860182612f00565b506101008301516130a0610100860182612f00565b508091505092915050565b60006130b78383612fdf565b905092915050565b6000602082019050919050565b60006130d782612ed4565b6130e18185612edf565b9350836020820285016130f385612ef0565b8060005b8581101561312f578484038952815161311085826130ab565b945061311b836130bf565b925060208a019950506001810190506130f7565b50829750879550505050505092915050565b6000602082019050818103600083015261315b81846130cc565b905092915050565b600081519050919050565b600082825260208201905092915050565b6000819050602082019050919050565b600061319b8383612f00565b60208301905092915050565b6000602082019050919050565b60006131bf82613163565b6131c9818561316e565b93506131d48361317f565b8060005b838110156132055781516131ec888261318f565b97506131f7836131a7565b9250506001810190506131d8565b5085935050505092915050565b6000602082019050818103600083015261322c81846131b4565b905092915050565b60006020828403121561324a576132496129b8565b5b600061325884828501612b56565b91505092915050565b60006101208301600083015161327a6000860182612f00565b50602083015184820360208601526132928282612f20565b915050604083015184820360408601526132ac8282612f20565b91505060608301516132c16060860182612fc1565b5060808301516132d46080860182612fd0565b5060a08301516132e760a0860182612fd0565b5060c08301516132fa60c0860182612f00565b5060e083015161330d60e0860182612f00565b50610100830151613322610100860182612f00565b508091505092915050565b600060208201905081810360008301526133478184613261565b905092915050565b61335881612c22565b82525050565b6000602082019050613373600083018461334f565b92915050565b600080fd5b600067ffffffffffffffff82111561339957613398612a93565b5b6133a282612a82565b9050602081019050919050565b82818337600083830152505050565b60006133d16133cc8461337e565b612af3565b9050828152602081018484840111156133ed576133ec613379565b5b6133f88482856133af565b509392505050565b600082601f83011261341557613414612a7d565b5b81356134258482602086016133be565b91505092915050565b600067ffffffffffffffff82111561344957613448612a93565b5b602082029050602081019050919050565b600080fd5b600080fd5b60006040828403121561347a5761347961345a565b5b6134846040612af3565b9050600082013567ffffffffffffffff8111156134a4576134a361345f565b5b6134b084828501613400565b60008301525060206134c484828501612b56565b60208301525092915050565b60006134e36134de8461342e565b612af3565b9050808382526020820190506020840283018581111561350657613505612b3a565b5b835b8181101561354d57803567ffffffffffffffff81111561352b5761352a612a7d565b5b8086016135388982613464565b85526020850194505050602081019050613508565b5050509392505050565b600082601f83011261356c5761356b612a7d565b5b813561357c8482602086016134d0565b91505092915050565b600080600080600060a086880312156135a1576135a06129b8565b5b600086013567ffffffffffffffff8111156135bf576135be6129bd565b5b6135cb88828901613400565b955050602086013567ffffffffffffffff8111156135ec576135eb6129bd565b5b6135f888828901613400565b945050604061360988828901612c4b565b935050606086013567ffffffffffffffff81111561362a576136296129bd565b5b61363688828901613557565b925050608061364788828901612b56565b9150509295509295909350565b600081519050919050565b600082825260208201905092915050565b6000819050602082019050919050565b6000604083016000830151848203600086015261369d8282612f20565b91505060208301516136b26020860182612f00565b508091505092915050565b60006136c98383613680565b905092915050565b6000602082019050919050565b60006136e982613654565b6136f3818561365f565b93508360208202850161370585613670565b8060005b85811015613741578484038952815161372285826136bd565b945061372d836136d1565b925060208a01995050600181019050613709565b50829750879550505050505092915050565b6000602082019050818103600083015261376d81846136de565b905092915050565b61377e81612faf565b82525050565b60006101208201905061379a600083018c612984565b81810360208301526137ac818b612e2b565b905081810360408301526137c0818a612e2b565b90506137cf6060830189613775565b6137dc608083018861334f565b6137e960a083018761334f565b6137f660c0830186612984565b61380360e0830185612984565b613811610100830184612984565b9a9950505050505050505050565b60008060408385031215613836576138356129b8565b5b600061384485828601612c4b565b925050602061385585828601612b56565b9150509250929050565b7f417272617973206c656e677468206d69736d6174636800000000000000000000600082015250565b6000613895601683612df0565b91506138a08261385f565b602082019050919050565b600060208201905081810360008301526138c481613888565b9050919050565b7f496e76616c6964207061796d656e7420746f6b656e0000000000000000000000600082015250565b6000613901601583612df0565b915061390c826138cb565b602082019050919050565b60006020820190508181036000830152613930816138f4565b9050919050565b7f4e487b7100000000000000000000000000000000000000000000000000000000600052603260045260246000fd5b7f496e76616c69642061677265656d656e74204944000000000000000000000000600082015250565b600061399c601483612df0565b91506139a782613966565b602082019050919050565b600060208201905081810360008301526139cb8161398f565b9050919050565b7f4e487b7100000000000000000000000000000000000000000000000000000000600052601160045260246000fd5b6000613a0c8261297a565b9150613a178361297a565b9250828203905081811115613a2f57613a2e6139d2565b5b92915050565b7f4e487b7100000000000000000000000000000000000000000000000000000000600052601260045260246000fd5b6000604082019050613a79600083018561334f565b613a86602083018461334f565b9392505050565b600081519050613a9c81612b3f565b92915050565b600060208284031215613ab857613ab76129b8565b5b6000613ac684828501613a8d565b91505092915050565b7f55736572206d75737420617070726f76652074686520616d6f756e74206f662060008201527f7468652061677265656d656e7400000000000000000000000000000000000000602082015250565b6000613b2b602d83612df0565b9150613b3682613acf565b604082019050919050565b60006020820190508181036000830152613b5a81613b1e565b9050919050565b6000606082019050613b76600083018661334f565b613b83602083018561334f565b613b906040830184612984565b949350505050565b613ba181612a47565b8114613bac57600080fd5b50565b600081519050613bbe81613b98565b92915050565b600060208284031215613bda57613bd96129b8565b5b6000613be884828501613baf565b91505092915050565b6000604082019050613c06600083018561334f565b613c136020830184612984565b9392505050565b6000604082019050613c2f6000830185612984565b613c3c6020830184612984565b9392505050565b7f4e487b7100000000000000000000000000000000000000000000000000000000600052602260045260246000fd5b60006002820490506001821680613c8a57607f821691505b602082108103613c9d57613c9c613c43565b5b50919050565b7f416363657373436f6e74726f6c3a2063616e206f6e6c792072656e6f756e636560008201527f20726f6c657320666f722073656c660000000000000000000000000000000000602082015250565b6000613cff602f83612df0565b9150613d0a82613ca3565b604082019050919050565b60006020820190508181036000830152613d2e81613cf2565b9050919050565b7f496e76616c6964206b796f646f20747265617375727920666565000000000000600082015250565b6000613d6b601a83612df0565b9150613d7682613d35565b602082019050919050565b60006020820190508181036000830152613d9a81613d5e565b9050919050565b7f50726f66657373696f6e616c20616464726573732063616e6e6f74206265207a60008201527f65726f0000000000000000000000000000000000000000000000000000000000602082015250565b6000613dfd602383612df0565b9150613e0882613da1565b604082019050919050565b60006020820190508181036000830152613e2c81613df0565b9050919050565b7f536b696c6c73206d757374206e6f7420626520656d7074790000000000000000600082015250565b6000613e69601883612df0565b9150613e7482613e33565b602082019050919050565b60006020820190508181036000830152613e9881613e5c565b9050919050565b7f5061796d656e7420616d6f756e74206d7573742062652067726561746572207460008201527f68616e207a65726f000000000000000000000000000000000000000000000000602082015250565b6000613efb602883612df0565b9150613f0682613e9f565b604082019050919050565b60006020820190508181036000830152613f2a81613eee565b9050919050565b7f50726f66657373696f6e616c20616464726573732063616e6e6f74206265207460008201527f68652073616d6520617320636f6d70616e790000000000000000000000000000602082015250565b6000613f8d603283612df0565b9150613f9882613f31565b604082019050919050565b60006020820190508181036000830152613fbc81613f80565b9050919050565b6000613fce8261297a565b9150613fd98361297a565b9250828201905080821115613ff157613ff06139d2565b5b92915050565b7f546f74616c20736b696c6c206c6576656c2063616e6e6f74206578636565642060008201527f3130300000000000000000000000000000000000000000000000000000000000602082015250565b6000614053602383612df0565b915061405e82613ff7565b604082019050919050565b6000602082019050818103600083015261408281614046565b9050919050565b60008190508160005260206000209050919050565b60006020601f8301049050919050565b600082821b905092915050565b6000600883026140eb7fffffffffffffffffffffffffffffffffffffffffffffffffffffffffffffffff826140ae565b6140f586836140ae565b95508019841693508086168417925050509392505050565b6000819050919050565b600061413261412d6141288461297a565b61410d565b61297a565b9050919050565b6000819050919050565b61414c83614117565b61416061415882614139565b8484546140bb565b825550505050565b600090565b614175614168565b614180818484614143565b505050565b5b818110156141a45761419960008261416d565b600181019050614186565b5050565b601f8211156141e9576141ba81614089565b6141c38461409e565b810160208510156141d2578190505b6141e66141de8561409e565b830182614185565b50505b505050565b600082821c905092915050565b600061420c600019846008026141ee565b1980831691505092915050565b600061422583836141fb565b9150826002028217905092915050565b61423e82612de5565b67ffffffffffffffff81111561425757614256612a93565b5b6142618254613c72565b61426c8282856141a8565b600060209050601f83116001811461429f576000841561428d578287015190505b6142978582614219565b8655506142ff565b601f1984166142ad86614089565b60005b828110156142d5578489015182556001820191506020850194506020810190506142b0565b868310156142f257848901516142ee601f8916826141fb565b8355505b6001600288020188555050505b505050505050565b60006143128261297a565b91507fffffffffffffffffffffffffffffffffffffffffffffffffffffffffffffffff8203614344576143436139d2565b5b600182019050919050565b7f5061757361626c653a2070617573656400000000000000000000000000000000600082015250565b6000614385601083612df0565b91506143908261434f565b602082019050919050565b600060208201905081810360008301526143b481614378565b9050919050565b7f5061757361626c653a206e6f7420706175736564000000000000000000000000600082015250565b60006143f1601483612df0565b91506143fc826143bb565b602082019050919050565b60006020820190508181036000830152614420816143e4565b9050919050565b600081905092915050565b7f416363657373436f6e74726f6c3a206163636f756e7420000000000000000000600082015250565b6000614468601783614427565b915061447382614432565b601782019050919050565b600061448982612de5565b6144938185614427565b93506144a3818560208601612e01565b80840191505092915050565b7f206973206d697373696e6720726f6c6520000000000000000000000000000000600082015250565b60006144e5601183614427565b91506144f0826144af565b601182019050919050565b60006145068261445b565b9150614512828561447e565b915061451d826144d8565b9150614529828461447e565b91508190509392505050565b6000602082019050818103600083015261454f8184612e2b565b905092915050565b60006145628261297a565b915061456d8361297a565b925082820261457b8161297a565b91508282048414831517614592576145916139d2565b5b5092915050565b60006145a48261297a565b9150600082036145b7576145b66139d2565b5b600182039050919050565b7f537472696e67733a20686578206c656e67746820696e73756666696369656e74600082015250565b60006145f8602083612df0565b9150614603826145c2565b602082019050919050565b60006020820190508181036000830152614627816145eb565b905091905056fea26469706673582212203ac1c50238e0f92f25ccdc5abe46f2d6ee90ae6184a42b55b4e117c7c74f4b2164736f6c63430008170033",
  "linkReferences": {},
  "deployedLinkReferences": {}
}