{
  "_format": "hh-sol-artifact-1",
  "contractName": "AgreementContract",
  "sourceName": "contracts/AgreementContract.sol",
  "abi": [
    {
      "inputs": [
        {
          "internalType": "address",
          "name": "_kyodoTreasury",
          "type": "address"
        },
        {
          "internalType": "address",
          "name": "_communityDAO",
          "type": "address"
        },
        {
          "internalType": "address",
          "name": "admin",
          "type": "address"
        }
      ],
      "stateMutability": "nonpayable",
      "type": "constructor"
    },
    {
      "anonymous": false,
      "inputs": [
        {
          "indexed": true,
          "internalType": "address",
          "name": "company",
          "type": "address"
        },
        {
          "indexed": true,
          "internalType": "address",
          "name": "professional",
          "type": "address"
        },
        {
          "indexed": false,
          "internalType": "uint256",
          "name": "agreementId",
          "type": "uint256"
        },
        {
          "indexed": false,
          "internalType": "uint256",
          "name": "amount",
          "type": "uint256"
        }
      ],
      "name": "AgreementCreated",
      "type": "event"
    },
    {
      "anonymous": false,
      "inputs": [
        {
          "indexed": true,
          "internalType": "address",
          "name": "new_admin",
          "type": "address"
        }
      ],
      "name": "NewAdminAdded",
      "type": "event"
    },
    {
      "anonymous": false,
      "inputs": [
        {
          "indexed": true,
          "internalType": "address",
          "name": "profile",
          "type": "address"
        }
      ],
      "name": "NewProfileAdded",
      "type": "event"
    },
    {
      "anonymous": false,
      "inputs": [
        {
          "indexed": false,
          "internalType": "address",
          "name": "account",
          "type": "address"
        }
      ],
      "name": "Paused",
      "type": "event"
    },
    {
      "anonymous": false,
      "inputs": [
        {
          "indexed": true,
          "internalType": "address",
          "name": "company",
          "type": "address"
        },
        {
          "indexed": true,
          "internalType": "address",
          "name": "professional",
          "type": "address"
        },
        {
          "indexed": false,
          "internalType": "uint256",
          "name": "agreementId",
          "type": "uint256"
        },
        {
          "indexed": false,
          "internalType": "uint256",
          "name": "amount",
          "type": "uint256"
        }
      ],
      "name": "PaymentMade",
      "type": "event"
    },
    {
      "anonymous": false,
      "inputs": [
        {
          "indexed": true,
          "internalType": "address",
          "name": "removed_admin",
          "type": "address"
        }
      ],
      "name": "RemovedAdmin",
      "type": "event"
    },
    {
      "anonymous": false,
      "inputs": [
        {
          "indexed": true,
          "internalType": "bytes32",
          "name": "role",
          "type": "bytes32"
        },
        {
          "indexed": true,
          "internalType": "bytes32",
          "name": "previousAdminRole",
          "type": "bytes32"
        },
        {
          "indexed": true,
          "internalType": "bytes32",
          "name": "newAdminRole",
          "type": "bytes32"
        }
      ],
      "name": "RoleAdminChanged",
      "type": "event"
    },
    {
      "anonymous": false,
      "inputs": [
        {
          "indexed": true,
          "internalType": "bytes32",
          "name": "role",
          "type": "bytes32"
        },
        {
          "indexed": true,
          "internalType": "address",
          "name": "account",
          "type": "address"
        },
        {
          "indexed": true,
          "internalType": "address",
          "name": "sender",
          "type": "address"
        }
      ],
      "name": "RoleGranted",
      "type": "event"
    },
    {
      "anonymous": false,
      "inputs": [
        {
          "indexed": true,
          "internalType": "bytes32",
          "name": "role",
          "type": "bytes32"
        },
        {
          "indexed": true,
          "internalType": "address",
          "name": "account",
          "type": "address"
        },
        {
          "indexed": true,
          "internalType": "address",
          "name": "sender",
          "type": "address"
        }
      ],
      "name": "RoleRevoked",
      "type": "event"
    },
    {
      "anonymous": false,
      "inputs": [
        {
          "indexed": false,
          "internalType": "address",
          "name": "account",
          "type": "address"
        }
      ],
      "name": "Unpaused",
      "type": "event"
    },
    {
      "inputs": [],
      "name": "CHANGE_PARAMETERS",
      "outputs": [
        {
          "internalType": "bytes32",
          "name": "",
          "type": "bytes32"
        }
      ],
      "stateMutability": "view",
      "type": "function"
    },
    {
      "inputs": [],
      "name": "DEFAULT_ADMIN_ROLE",
      "outputs": [
        {
          "internalType": "bytes32",
          "name": "",
          "type": "bytes32"
        }
      ],
      "stateMutability": "view",
      "type": "function"
    },
    {
      "inputs": [],
      "name": "StableVault",
      "outputs": [
        {
          "internalType": "contract IStableVault",
          "name": "",
          "type": "address"
        }
      ],
      "stateMutability": "view",
      "type": "function"
    },
    {
      "inputs": [
        {
          "internalType": "address",
          "name": "",
          "type": "address"
        }
      ],
      "name": "acceptedPaymentTokens",
      "outputs": [
        {
          "internalType": "bool",
          "name": "",
          "type": "bool"
        }
      ],
      "stateMutability": "view",
      "type": "function"
    },
    {
      "inputs": [
        {
          "internalType": "address",
          "name": "_tokenAddress",
          "type": "address"
        }
      ],
      "name": "addAcceptedPaymentToken",
      "outputs": [],
      "stateMutability": "nonpayable",
      "type": "function"
    },
    {
      "inputs": [
        {
          "internalType": "address",
          "name": "account",
          "type": "address"
        }
      ],
      "name": "addAdmin",
      "outputs": [],
      "stateMutability": "nonpayable",
      "type": "function"
    },
    {
      "inputs": [
        {
          "internalType": "address",
          "name": "account",
          "type": "address"
        }
      ],
      "name": "addProfile",
      "outputs": [],
      "stateMutability": "nonpayable",
      "type": "function"
    },
    {
      "inputs": [
        {
          "internalType": "uint256",
          "name": "",
          "type": "uint256"
        },
        {
          "internalType": "uint256",
          "name": "",
          "type": "uint256"
        }
      ],
      "name": "agreementSkills",
      "outputs": [
        {
          "internalType": "string",
          "name": "name",
          "type": "string"
        },
        {
          "internalType": "uint256",
          "name": "level",
          "type": "uint256"
        }
      ],
      "stateMutability": "view",
      "type": "function"
    },
    {
      "inputs": [
        {
          "internalType": "uint256",
          "name": "",
          "type": "uint256"
        }
      ],
      "name": "agreements",
      "outputs": [
        {
          "internalType": "uint256",
          "name": "id",
          "type": "uint256"
        },
        {
          "internalType": "string",
          "name": "title",
          "type": "string"
        },
        {
          "internalType": "string",
          "name": "description",
          "type": "string"
        },
        {
          "internalType": "enum IAgreementContract.AgreementStatus",
          "name": "status",
          "type": "uint8"
        },
        {
          "internalType": "address",
          "name": "company",
          "type": "address"
        },
        {
          "internalType": "address",
          "name": "professional",
          "type": "address"
        },
        {
          "internalType": "uint256",
          "name": "paymentAmount",
          "type": "uint256"
        },
        {
          "internalType": "uint256",
          "name": "totalPaid",
          "type": "uint256"
        }
      ],
      "stateMutability": "view",
      "type": "function"
    },
    {
      "inputs": [],
      "name": "communityDAO",
      "outputs": [
        {
          "internalType": "address",
          "name": "",
          "type": "address"
        }
      ],
      "stateMutability": "view",
      "type": "function"
    },
    {
      "inputs": [],
      "name": "communityDAOFee",
      "outputs": [
        {
          "internalType": "uint256",
          "name": "",
          "type": "uint256"
        }
      ],
      "stateMutability": "view",
      "type": "function"
    },
    {
      "inputs": [
        {
          "internalType": "address",
          "name": "",
          "type": "address"
        },
        {
          "internalType": "uint256",
          "name": "",
          "type": "uint256"
        }
      ],
      "name": "contractorAgreements",
      "outputs": [
        {
          "internalType": "uint256",
          "name": "",
          "type": "uint256"
        }
      ],
      "stateMutability": "view",
      "type": "function"
    },
    {
      "inputs": [
        {
          "internalType": "string",
          "name": "_title",
          "type": "string"
        },
        {
          "internalType": "string",
          "name": "_description",
          "type": "string"
        },
        {
          "internalType": "address",
          "name": "_professional",
          "type": "address"
        },
        {
          "components": [
            {
              "internalType": "string",
              "name": "name",
              "type": "string"
            },
            {
              "internalType": "uint256",
              "name": "level",
              "type": "uint256"
            }
          ],
          "internalType": "struct IAgreementContract.Skill[]",
          "name": "_skills",
          "type": "tuple[]"
        },
        {
          "internalType": "uint256",
          "name": "_paymentAmount",
          "type": "uint256"
        }
      ],
      "name": "createAgreement",
      "outputs": [],
      "stateMutability": "nonpayable",
      "type": "function"
    },
    {
      "inputs": [],
      "name": "feePercentage",
      "outputs": [
        {
          "internalType": "uint256",
          "name": "",
          "type": "uint256"
        }
      ],
      "stateMutability": "view",
      "type": "function"
    },
    {
      "inputs": [],
      "name": "getAcceptedPaymentTokens",
      "outputs": [
        {
          "internalType": "address",
          "name": "",
          "type": "address"
        }
      ],
      "stateMutability": "view",
      "type": "function"
    },
    {
      "inputs": [
        {
          "internalType": "uint256",
          "name": "_id",
          "type": "uint256"
        }
      ],
      "name": "getAgreementById",
      "outputs": [
        {
          "components": [
            {
              "internalType": "uint256",
              "name": "id",
              "type": "uint256"
            },
            {
              "internalType": "string",
              "name": "title",
              "type": "string"
            },
            {
              "internalType": "string",
              "name": "description",
              "type": "string"
            },
            {
              "internalType": "enum IAgreementContract.AgreementStatus",
              "name": "status",
              "type": "uint8"
            },
            {
              "internalType": "address",
              "name": "company",
              "type": "address"
            },
            {
              "internalType": "address",
              "name": "professional",
              "type": "address"
            },
            {
              "internalType": "uint256",
              "name": "paymentAmount",
              "type": "uint256"
            },
            {
              "internalType": "uint256",
              "name": "totalPaid",
              "type": "uint256"
            }
          ],
          "internalType": "struct IAgreementContract.Agreement",
          "name": "",
          "type": "tuple"
        }
      ],
      "stateMutability": "view",
      "type": "function"
    },
    {
      "inputs": [],
      "name": "getAgreementCount",
      "outputs": [
        {
          "internalType": "uint256",
          "name": "",
          "type": "uint256"
        }
      ],
      "stateMutability": "view",
      "type": "function"
    },
    {
      "inputs": [],
      "name": "getAllAgreements",
      "outputs": [
        {
          "components": [
            {
              "internalType": "uint256",
              "name": "id",
              "type": "uint256"
            },
            {
              "internalType": "string",
              "name": "title",
              "type": "string"
            },
            {
              "internalType": "string",
              "name": "description",
              "type": "string"
            },
            {
              "internalType": "enum IAgreementContract.AgreementStatus",
              "name": "status",
              "type": "uint8"
            },
            {
              "internalType": "address",
              "name": "company",
              "type": "address"
            },
            {
              "internalType": "address",
              "name": "professional",
              "type": "address"
            },
            {
              "internalType": "uint256",
              "name": "paymentAmount",
              "type": "uint256"
            },
            {
              "internalType": "uint256",
              "name": "totalPaid",
              "type": "uint256"
            }
          ],
          "internalType": "struct IAgreementContract.Agreement[]",
          "name": "",
          "type": "tuple[]"
        }
      ],
      "stateMutability": "view",
      "type": "function"
    },
    {
      "inputs": [
        {
          "internalType": "address",
          "name": "_contractor",
          "type": "address"
        }
      ],
      "name": "getContractorAgreementIds",
      "outputs": [
        {
          "internalType": "uint256[]",
          "name": "",
          "type": "uint256[]"
        }
      ],
      "stateMutability": "view",
      "type": "function"
    },
    {
      "inputs": [
        {
          "internalType": "address",
          "name": "_professional",
          "type": "address"
        }
      ],
      "name": "getProfessionalAgreementIds",
      "outputs": [
        {
          "internalType": "uint256[]",
          "name": "",
          "type": "uint256[]"
        }
      ],
      "stateMutability": "view",
      "type": "function"
    },
    {
      "inputs": [
        {
          "internalType": "bytes32",
          "name": "role",
          "type": "bytes32"
        }
      ],
      "name": "getRoleAdmin",
      "outputs": [
        {
          "internalType": "bytes32",
          "name": "",
          "type": "bytes32"
        }
      ],
      "stateMutability": "view",
      "type": "function"
    },
    {
      "inputs": [
        {
          "internalType": "uint256",
          "name": "_agreementId",
          "type": "uint256"
        }
      ],
      "name": "getSkillsByAgreementId",
      "outputs": [
        {
          "components": [
            {
              "internalType": "string",
              "name": "name",
              "type": "string"
            },
            {
              "internalType": "uint256",
              "name": "level",
              "type": "uint256"
            }
          ],
          "internalType": "struct IAgreementContract.Skill[]",
          "name": "",
          "type": "tuple[]"
        }
      ],
      "stateMutability": "view",
      "type": "function"
    },
    {
      "inputs": [
        {
          "internalType": "bytes32",
          "name": "role",
          "type": "bytes32"
        },
        {
          "internalType": "address",
          "name": "account",
          "type": "address"
        }
      ],
      "name": "grantRole",
      "outputs": [],
      "stateMutability": "nonpayable",
      "type": "function"
    },
    {
      "inputs": [
        {
          "internalType": "bytes32",
          "name": "role",
          "type": "bytes32"
        },
        {
          "internalType": "address",
          "name": "account",
          "type": "address"
        }
      ],
      "name": "hasRole",
      "outputs": [
        {
          "internalType": "bool",
          "name": "",
          "type": "bool"
        }
      ],
      "stateMutability": "view",
      "type": "function"
    },
    {
      "inputs": [],
      "name": "kyodoTreasury",
      "outputs": [
        {
          "internalType": "address",
          "name": "",
          "type": "address"
        }
      ],
      "stateMutability": "view",
      "type": "function"
    },
    {
      "inputs": [],
      "name": "kyodoTreasuryFee",
      "outputs": [
        {
          "internalType": "uint256",
          "name": "",
          "type": "uint256"
        }
      ],
      "stateMutability": "view",
      "type": "function"
    },
    {
      "inputs": [
        {
          "internalType": "uint256",
          "name": "_agreementId",
          "type": "uint256"
        },
        {
          "internalType": "uint256",
          "name": "_amountToPay",
          "type": "uint256"
        },
        {
          "internalType": "address",
          "name": "_paymentAddress",
          "type": "address"
        }
      ],
      "name": "makePayment",
      "outputs": [],
      "stateMutability": "nonpayable",
      "type": "function"
    },
    {
      "inputs": [],
      "name": "nextAgreementId",
      "outputs": [
        {
          "internalType": "uint256",
          "name": "",
          "type": "uint256"
        }
      ],
      "stateMutability": "view",
      "type": "function"
    },
    {
      "inputs": [],
      "name": "pause",
      "outputs": [],
      "stateMutability": "nonpayable",
      "type": "function"
    },
    {
      "inputs": [],
      "name": "paused",
      "outputs": [
        {
          "internalType": "bool",
          "name": "",
          "type": "bool"
        }
      ],
      "stateMutability": "view",
      "type": "function"
    },
    {
      "inputs": [
        {
          "internalType": "address",
          "name": "account",
          "type": "address"
        }
      ],
      "name": "removeAdmin",
      "outputs": [],
      "stateMutability": "nonpayable",
      "type": "function"
    },
    {
      "inputs": [
        {
          "internalType": "address",
          "name": "token",
          "type": "address"
        }
      ],
      "name": "removePaymentToken",
      "outputs": [],
      "stateMutability": "nonpayable",
      "type": "function"
    },
    {
      "inputs": [
        {
          "internalType": "bytes32",
          "name": "role",
          "type": "bytes32"
        },
        {
          "internalType": "address",
          "name": "account",
          "type": "address"
        }
      ],
      "name": "renounceRole",
      "outputs": [],
      "stateMutability": "nonpayable",
      "type": "function"
    },
    {
      "inputs": [
        {
          "internalType": "bytes32",
          "name": "role",
          "type": "bytes32"
        },
        {
          "internalType": "address",
          "name": "account",
          "type": "address"
        }
      ],
      "name": "revokeRole",
      "outputs": [],
      "stateMutability": "nonpayable",
      "type": "function"
    },
    {
      "inputs": [
        {
          "internalType": "uint256",
          "name": "_feePercentage",
          "type": "uint256"
        },
        {
          "internalType": "uint256",
          "name": "_kyodoTreasuryFee",
          "type": "uint256"
        },
        {
          "internalType": "uint256",
          "name": "_communityDAOFee",
          "type": "uint256"
        }
      ],
      "name": "setFees",
      "outputs": [],
      "stateMutability": "nonpayable",
      "type": "function"
    },
    {
      "inputs": [
        {
          "internalType": "address",
          "name": "_StableVaultAddress",
          "type": "address"
        }
      ],
      "name": "setStableVaultAddress",
      "outputs": [],
      "stateMutability": "nonpayable",
      "type": "function"
    },
    {
      "inputs": [
        {
          "internalType": "bytes4",
          "name": "interfaceId",
          "type": "bytes4"
        }
      ],
      "name": "supportsInterface",
      "outputs": [
        {
          "internalType": "bool",
          "name": "",
          "type": "bool"
        }
      ],
      "stateMutability": "view",
      "type": "function"
    },
    {
      "inputs": [
        {
          "internalType": "uint256",
          "name": "",
          "type": "uint256"
        }
      ],
      "name": "tokenAddresses",
      "outputs": [
        {
          "internalType": "address",
          "name": "",
          "type": "address"
        }
      ],
      "stateMutability": "view",
      "type": "function"
    },
    {
      "inputs": [],
      "name": "unpause",
      "outputs": [],
      "stateMutability": "nonpayable",
      "type": "function"
    }
  ],
  "bytecode": "0x608060405260016002553480156200001657600080fd5b50604051620049343803806200493483398181016040528101906200003c9190620002f8565b806000600160006101000a81548160ff0219169083151502179055506200006d6000801b826200012b60201b60201c565b6200009f7f73fd536265c26e6e13263018bc9d82a9b962a7857ae70dac847fd743f5e71535826200012b60201b60201c565b5082600a60006101000a81548173ffffffffffffffffffffffffffffffffffffffff021916908373ffffffffffffffffffffffffffffffffffffffff16021790555081600b60006101000a81548173ffffffffffffffffffffffffffffffffffffffff021916908373ffffffffffffffffffffffffffffffffffffffff16021790555050505062000354565b6200013d82826200021c60201b60201c565b6200021857600160008084815260200190815260200160002060000160008373ffffffffffffffffffffffffffffffffffffffff1673ffffffffffffffffffffffffffffffffffffffff16815260200190815260200160002060006101000a81548160ff021916908315150217905550620001bd6200028660201b60201c565b73ffffffffffffffffffffffffffffffffffffffff168173ffffffffffffffffffffffffffffffffffffffff16837f2f8788117e7eff1d82e926ec794901d17c78024a50270940304540a733656f0d60405160405180910390a45b5050565b600080600084815260200190815260200160002060000160008373ffffffffffffffffffffffffffffffffffffffff1673ffffffffffffffffffffffffffffffffffffffff16815260200190815260200160002060009054906101000a900460ff16905092915050565b600033905090565b600080fd5b600073ffffffffffffffffffffffffffffffffffffffff82169050919050565b6000620002c08262000293565b9050919050565b620002d281620002b3565b8114620002de57600080fd5b50565b600081519050620002f281620002c7565b92915050565b6000806000606084860312156200031457620003136200028e565b5b60006200032486828701620002e1565b93505060206200033786828701620002e1565b92505060406200034a86828701620002e1565b9150509250925092565b6145d080620003646000396000f3fe608060405234801561001057600080fd5b506004361061023c5760003560e01c80638207546e1161013b578063b3f8cb00116100b8578063d547741f1161007c578063d547741f146106bd578063e5df8b84146106d9578063f2d64a9614610709578063f38d215d14610727578063fc3f5dff146107575761023c565b8063b3f8cb00146105fe578063bd14de961461062e578063c9b99dab14610665578063c9e9290514610683578063cec10c11146106a15761023c565b8063a001ecdd116100ff578063a001ecdd1461056e578063a06ee2db1461058c578063a217fddf146105a8578063a5125421146105c6578063a8613676146105e25761023c565b80638207546e146104c85780638456cb59146104e65780638ee0344f146104f057806391d1485414610520578063964bb4ab146105505761023c565b80633f4ba83a116101c9578063573fb6241161018d578063573fb624146104225780635c975abb14610452578063704802751461047057806377be3d2f1461048c5780637d239907146104aa5761023c565b80633f4ba83a1461037c578063484bb244146103865780634e6873c7146103b65780634e92fafd146103d45780634f7cd72f146104045761023c565b80631785f53c116102105780631785f53c146102c7578063248a9ca3146102e357806329db7493146103135780632f2ff15d1461034457806336568abe146103605761023c565b80628bed3e1461024157806301ffc9a71461025f57806310143a641461028f57806313cda3b7146102ab575b600080fd5b610249610773565b6040516102569190612aa2565b60405180910390f35b61027960048036038101906102749190612b29565b610780565b6040516102869190612b71565b60405180910390f35b6102a960048036038101906102a49190612bea565b6107fa565b005b6102c560048036038101906102c09190612bea565b610872565b005b6102e160048036038101906102dc9190612bea565b61093e565b005b6102fd60048036038101906102f89190612c4d565b6109a7565b60405161030a9190612c89565b60405180910390f35b61032d60048036038101906103289190612cd0565b6109c6565b60405161033b929190612da0565b60405180910390f35b61035e60048036038101906103599190612dd0565b610a8f565b005b61037a60048036038101906103759190612dd0565b610ab0565b005b610384610b33565b005b6103a0600480360381019061039b9190612bea565b610b53565b6040516103ad9190612b71565b60405180910390f35b6103be610b73565b6040516103cb9190613068565b60405180910390f35b6103ee60048036038101906103e99190612bea565b610dfc565b6040516103fb9190613139565b60405180910390f35b61040c610e93565b6040516104199190612c89565b60405180910390f35b61043c6004803603810190610437919061315b565b610eb7565b604051610449919061323f565b60405180910390f35b61045a61117d565b6040516104679190612b71565b60405180910390f35b61048a60048036038101906104859190612bea565b611194565b005b6104946111fd565b6040516104a19190613270565b60405180910390f35b6104b2611244565b6040516104bf9190612aa2565b60405180910390f35b6104d061124a565b6040516104dd9190613270565b60405180910390f35b6104ee611270565b005b61050a60048036038101906105059190612bea565b611290565b6040516105179190613139565b60405180910390f35b61053a60048036038101906105359190612dd0565b611327565b6040516105479190612b71565b60405180910390f35b610558611391565b6040516105659190613270565b60405180910390f35b6105766113b7565b6040516105839190612aa2565b60405180910390f35b6105a660048036038101906105a19190612bea565b6113bd565b005b6105b061140f565b6040516105bd9190612c89565b60405180910390f35b6105e060048036038101906105db9190612bea565b611416565b005b6105fc60048036038101906105f7919061351c565b61147f565b005b6106186004803603810190610613919061315b565b6119bd565b60405161062591906136ea565b60405180910390f35b6106486004803603810190610643919061315b565b611acb565b60405161065c98979695949392919061371b565b60405180910390f35b61066d611c80565b60405161067a9190612aa2565b60405180910390f35b61068b611c86565b6040516106989190612aa2565b60405180910390f35b6106bb60048036038101906106b691906137a7565b611c8c565b005b6106d760048036038101906106d29190612dd0565b611d06565b005b6106f360048036038101906106ee919061315b565b611d27565b6040516107009190613270565b60405180910390f35b610711611d66565b60405161071e9190613859565b60405180910390f35b610741600480360381019061073c9190613874565b611d8c565b60405161074e9190612aa2565b60405180910390f35b610771600480360381019061076c91906138b4565b611dbd565b005b6000600380549050905090565b60007f7965db0b000000000000000000000000000000000000000000000000000000007bffffffffffffffffffffffffffffffffffffffffffffffffffffffff1916827bffffffffffffffffffffffffffffffffffffffffffffffffffffffff191614806107f357506107f282612379565b5b9050919050565b6108026123e3565b61082c7f73fd536265c26e6e13263018bc9d82a9b962a7857ae70dac847fd743f5e715358261242d565b8073ffffffffffffffffffffffffffffffffffffffff167f92364d7c14d8a26a040c77305dd885fcd5898051d1b1ead4189b09d5f091159060405160405180910390a250565b6000801b61087f8161250d565b6001600660008473ffffffffffffffffffffffffffffffffffffffff1673ffffffffffffffffffffffffffffffffffffffff16815260200190815260200160002060006101000a81548160ff0219169083151502179055506008829080600181540180825580915050600190039060005260206000200160009091909190916101000a81548173ffffffffffffffffffffffffffffffffffffffff021916908373ffffffffffffffffffffffffffffffffffffffff1602179055505050565b6000801b61094b8161250d565b6109536123e3565b6109606000801b83612521565b8173ffffffffffffffffffffffffffffffffffffffff167f3137a7fedbfedb7895dfa5a6812a4566dae9ded68d00aeec13c6ed1fa84a1c8060405160405180910390a25050565b6000806000838152602001908152602001600020600101549050919050565b600760205281600052604060002081815481106109e257600080fd5b906000526020600020906002020160009150915050806000018054610a0690613936565b80601f0160208091040260200160405190810160405280929190818152602001828054610a3290613936565b8015610a7f5780601f10610a5457610100808354040283529160200191610a7f565b820191906000526020600020905b815481529060010190602001808311610a6257829003601f168201915b5050505050908060010154905082565b610a98826109a7565b610aa18161250d565b610aab838361242d565b505050565b610ab8612602565b73ffffffffffffffffffffffffffffffffffffffff168173ffffffffffffffffffffffffffffffffffffffff1614610b25576040517f08c379a0000000000000000000000000000000000000000000000000000000008152600401610b1c906139d9565b60405180910390fd5b610b2f8282612521565b5050565b6000801b610b408161250d565b610b4861260a565b610b50612653565b50565b60066020528060005260406000206000915054906101000a900460ff1681565b60606003805480602002602001604051908101604052809291908181526020016000905b82821015610df357838290600052602060002090600702016040518061010001604052908160008201548152602001600182018054610bd590613936565b80601f0160208091040260200160405190810160405280929190818152602001828054610c0190613936565b8015610c4e5780601f10610c2357610100808354040283529160200191610c4e565b820191906000526020600020905b815481529060010190602001808311610c3157829003601f168201915b50505050508152602001600282018054610c6790613936565b80601f0160208091040260200160405190810160405280929190818152602001828054610c9390613936565b8015610ce05780601f10610cb557610100808354040283529160200191610ce0565b820191906000526020600020905b815481529060010190602001808311610cc357829003601f168201915b505050505081526020016003820160009054906101000a900460ff166001811115610d0e57610d0d612e95565b5b6001811115610d2057610d1f612e95565b5b81526020016003820160019054906101000a900473ffffffffffffffffffffffffffffffffffffffff1673ffffffffffffffffffffffffffffffffffffffff1673ffffffffffffffffffffffffffffffffffffffff1681526020016004820160009054906101000a900473ffffffffffffffffffffffffffffffffffffffff1673ffffffffffffffffffffffffffffffffffffffff1673ffffffffffffffffffffffffffffffffffffffff1681526020016005820154815260200160068201548152505081526020019060010190610b97565b50505050905090565b6060600560008373ffffffffffffffffffffffffffffffffffffffff1673ffffffffffffffffffffffffffffffffffffffff168152602001908152602001600020805480602002602001604051908101604052809291908181526020018280548015610e8757602002820191906000526020600020905b815481526020019060010190808311610e73575b50505050509050919050565b7f73fd536265c26e6e13263018bc9d82a9b962a7857ae70dac847fd743f5e7153581565b610ebf612a06565b600082118015610ed457506003805490508211155b610f13576040517f08c379a0000000000000000000000000000000000000000000000000000000008152600401610f0a90613a45565b60405180910390fd5b6003600183610f229190613a94565b81548110610f3357610f32613ac8565b5b90600052602060002090600702016040518061010001604052908160008201548152602001600182018054610f6790613936565b80601f0160208091040260200160405190810160405280929190818152602001828054610f9390613936565b8015610fe05780601f10610fb557610100808354040283529160200191610fe0565b820191906000526020600020905b815481529060010190602001808311610fc357829003601f168201915b50505050508152602001600282018054610ff990613936565b80601f016020809104026020016040519081016040528092919081815260200182805461102590613936565b80156110725780601f1061104757610100808354040283529160200191611072565b820191906000526020600020905b81548152906001019060200180831161105557829003601f168201915b505050505081526020016003820160009054906101000a900460ff1660018111156110a05761109f612e95565b5b60018111156110b2576110b1612e95565b5b81526020016003820160019054906101000a900473ffffffffffffffffffffffffffffffffffffffff1673ffffffffffffffffffffffffffffffffffffffff1673ffffffffffffffffffffffffffffffffffffffff1681526020016004820160009054906101000a900473ffffffffffffffffffffffffffffffffffffffff1673ffffffffffffffffffffffffffffffffffffffff1673ffffffffffffffffffffffffffffffffffffffff168152602001600582015481526020016006820154815250509050919050565b6000600160009054906101000a900460ff16905090565b6000801b6111a18161250d565b6111a96123e3565b6111b66000801b8361242d565b8173ffffffffffffffffffffffffffffffffffffffff167f2dbe9fb88463d989acccabbb6ee06901f83672eb78e04a11ff48dd8f69a27cda60405160405180910390a25050565b6000600860008154811061121457611213613ac8565b5b9060005260206000200160009054906101000a900473ffffffffffffffffffffffffffffffffffffffff16905090565b600d5481565b600b60009054906101000a900473ffffffffffffffffffffffffffffffffffffffff1681565b6000801b61127d8161250d565b6112856123e3565b61128d6126b6565b50565b6060600460008373ffffffffffffffffffffffffffffffffffffffff1673ffffffffffffffffffffffffffffffffffffffff16815260200190815260200160002080548060200260200160405190810160405280929190818152602001828054801561131b57602002820191906000526020600020905b815481526020019060010190808311611307575b50505050509050919050565b600080600084815260200190815260200160002060000160008373ffffffffffffffffffffffffffffffffffffffff1673ffffffffffffffffffffffffffffffffffffffff16815260200190815260200160002060009054906101000a900460ff16905092915050565b600a60009054906101000a900473ffffffffffffffffffffffffffffffffffffffff1681565b600c5481565b6000801b6113ca8161250d565b81600960006101000a81548173ffffffffffffffffffffffffffffffffffffffff021916908373ffffffffffffffffffffffffffffffffffffffff1602179055505050565b6000801b81565b6000801b6114238161250d565b6000600660008473ffffffffffffffffffffffffffffffffffffffff1673ffffffffffffffffffffffffffffffffffffffff16815260200190815260200160002060006101000a81548160ff0219169083151502179055505050565b600073ffffffffffffffffffffffffffffffffffffffff168373ffffffffffffffffffffffffffffffffffffffff16036114ee576040517f08c379a00000000000000000000000000000000000000000000000000000000081526004016114e590613b69565b60405180910390fd5b6000825111611532576040517f08c379a000000000000000000000000000000000000000000000000000000000815260040161152990613bd5565b60405180910390fd5b60008111611575576040517f08c379a000000000000000000000000000000000000000000000000000000000815260040161156c90613c67565b60405180910390fd5b3373ffffffffffffffffffffffffffffffffffffffff168373ffffffffffffffffffffffffffffffffffffffff16036115e3576040517f08c379a00000000000000000000000000000000000000000000000000000000081526004016115da90613cf9565b60405180910390fd5b600060405180610100016040528060025481526020018781526020018681526020016000600181111561161957611618612e95565b5b81526020013373ffffffffffffffffffffffffffffffffffffffff1681526020018573ffffffffffffffffffffffffffffffffffffffff1681526020018381526020016000815250905060005b835181101561172d5760076000600254815260200190815260200160002060405180604001604052808684815181106116a2576116a1613ac8565b5b60200260200101516000015181526020018684815181106116c6576116c5613ac8565b5b602002602001015160200151815250908060018154018082558091505060019003906000526020600020906002020160009091909190915060008201518160000190816117139190613ebb565b506020820151816001015550508080600101915050611666565b5060038190806001815401808255809150506001900390600052602060002090600702016000909190919091506000820151816000015560208201518160010190816117799190613ebb565b50604082015181600201908161178f9190613ebb565b5060608201518160030160006101000a81548160ff021916908360018111156117bb576117ba612e95565b5b021790555060808201518160030160016101000a81548173ffffffffffffffffffffffffffffffffffffffff021916908373ffffffffffffffffffffffffffffffffffffffff16021790555060a08201518160040160006101000a81548173ffffffffffffffffffffffffffffffffffffffff021916908373ffffffffffffffffffffffffffffffffffffffff16021790555060c0820151816005015560e082015181600601555050600460003373ffffffffffffffffffffffffffffffffffffffff1673ffffffffffffffffffffffffffffffffffffffff1681526020019081526020016000206002549080600181540180825580915050600190039060005260206000200160009091909190915055600560008573ffffffffffffffffffffffffffffffffffffffff1673ffffffffffffffffffffffffffffffffffffffff16815260200190815260200160002060025490806001815401808255809150506001900390600052602060002001600090919091909150558373ffffffffffffffffffffffffffffffffffffffff163373ffffffffffffffffffffffffffffffffffffffff167f4969d8f058da37f5b596425a39904e9a027ac23d1865d6efd5df5a5e24eef7de60025485604051611995929190613f8d565b60405180910390a3600260008154809291906119b090613fb6565b9190505550505050505050565b606060076000838152602001908152602001600020805480602002602001604051908101604052809291908181526020016000905b82821015611ac05783829060005260206000209060020201604051806040016040529081600082018054611a2590613936565b80601f0160208091040260200160405190810160405280929190818152602001828054611a5190613936565b8015611a9e5780601f10611a7357610100808354040283529160200191611a9e565b820191906000526020600020905b815481529060010190602001808311611a8157829003601f168201915b50505050508152602001600182015481525050815260200190600101906119f2565b505050509050919050565b60038181548110611adb57600080fd5b9060005260206000209060070201600091509050806000015490806001018054611b0490613936565b80601f0160208091040260200160405190810160405280929190818152602001828054611b3090613936565b8015611b7d5780601f10611b5257610100808354040283529160200191611b7d565b820191906000526020600020905b815481529060010190602001808311611b6057829003601f168201915b505050505090806002018054611b9290613936565b80601f0160208091040260200160405190810160405280929190818152602001828054611bbe90613936565b8015611c0b5780601f10611be057610100808354040283529160200191611c0b565b820191906000526020600020905b815481529060010190602001808311611bee57829003601f168201915b5050505050908060030160009054906101000a900460ff16908060030160019054906101000a900473ffffffffffffffffffffffffffffffffffffffff16908060040160009054906101000a900473ffffffffffffffffffffffffffffffffffffffff16908060050154908060060154905088565b60025481565b600e5481565b6000801b611c998161250d565b60008410158015611cac57506103e88411155b611ceb576040517f08c379a0000000000000000000000000000000000000000000000000000000008152600401611ce29061404a565b60405180910390fd5b83600c8190555082600d8190555081600e8190555050505050565b611d0f826109a7565b611d188161250d565b611d228383612521565b505050565b60088181548110611d3757600080fd5b906000526020600020016000915054906101000a900473ffffffffffffffffffffffffffffffffffffffff1681565b600960009054906101000a900473ffffffffffffffffffffffffffffffffffffffff1681565b60046020528160005260406000208181548110611da857600080fd5b90600052602060002001600091509150505481565b600083118015611dd257506003805490508311155b611e11576040517f08c379a0000000000000000000000000000000000000000000000000000000008152600401611e0890613a45565b60405180910390fd5b600660008273ffffffffffffffffffffffffffffffffffffffff1673ffffffffffffffffffffffffffffffffffffffff16815260200190815260200160002060009054906101000a900460ff16611e9d576040517f08c379a0000000000000000000000000000000000000000000000000000000008152600401611e94906140b6565b60405180910390fd5b60006003600185611eae9190613a94565b81548110611ebf57611ebe613ac8565b5b906000526020600020906007020190506000806000806000808790506103e8600c54029550620f424089870281611ef957611ef86140d6565b5b0494506103e8600d54860281611f1257611f116140d6565b5b049350838503925084890391508073ffffffffffffffffffffffffffffffffffffffff166323b872dd33308c6040518463ffffffff1660e01b8152600401611f5c93929190614105565b6020604051808303816000875af1158015611f7b573d6000803e3d6000fd5b505050506040513d601f19601f82011682018060405250810190611f9f9190614168565b611fde576040517f08c379a0000000000000000000000000000000000000000000000000000000008152600401611fd590614207565b60405180910390fd5b8073ffffffffffffffffffffffffffffffffffffffff1663095ea7b3600960009054906101000a900473ffffffffffffffffffffffffffffffffffffffff168b6040518363ffffffff1660e01b815260040161203b929190614227565b6020604051808303816000875af115801561205a573d6000803e3d6000fd5b505050506040513d601f19601f8201168201806040525081019061207e9190614168565b50600960009054906101000a900473ffffffffffffffffffffffffffffffffffffffff1673ffffffffffffffffffffffffffffffffffffffff16632e2d298483838a60040160009054906101000a900473ffffffffffffffffffffffffffffffffffffffff166040518463ffffffff1660e01b815260040161210293929190614250565b6020604051808303816000875af1158015612121573d6000803e3d6000fd5b505050506040513d601f19601f820116820180604052508101906121459190614168565b50600960009054906101000a900473ffffffffffffffffffffffffffffffffffffffff1673ffffffffffffffffffffffffffffffffffffffff16632e2d29848583600a60009054906101000a900473ffffffffffffffffffffffffffffffffffffffff166040518463ffffffff1660e01b81526004016121c793929190614250565b6020604051808303816000875af11580156121e6573d6000803e3d6000fd5b505050506040513d601f19601f8201168201806040525081019061220a9190614168565b50600960009054906101000a900473ffffffffffffffffffffffffffffffffffffffff1673ffffffffffffffffffffffffffffffffffffffff16632e2d29848483600b60009054906101000a900473ffffffffffffffffffffffffffffffffffffffff166040518463ffffffff1660e01b815260040161228c93929190614250565b6020604051808303816000875af11580156122ab573d6000803e3d6000fd5b505050506040513d601f19601f820116820180604052508101906122cf9190614168565b508887600601600082825401925050819055508660040160009054906101000a900473ffffffffffffffffffffffffffffffffffffffff1673ffffffffffffffffffffffffffffffffffffffff163373ffffffffffffffffffffffffffffffffffffffff167f1f004c54eef332ef6912dae8f1775c102da23bec79ccf602eaaa072938e96b678c8c604051612365929190613f8d565b60405180910390a350505050505050505050565b60007f01ffc9a7000000000000000000000000000000000000000000000000000000007bffffffffffffffffffffffffffffffffffffffffffffffffffffffff1916827bffffffffffffffffffffffffffffffffffffffffffffffffffffffff1916149050919050565b6123eb61117d565b1561242b576040517f08c379a0000000000000000000000000000000000000000000000000000000008152600401612422906142d3565b60405180910390fd5b565b6124378282611327565b61250957600160008084815260200190815260200160002060000160008373ffffffffffffffffffffffffffffffffffffffff1673ffffffffffffffffffffffffffffffffffffffff16815260200190815260200160002060006101000a81548160ff0219169083151502179055506124ae612602565b73ffffffffffffffffffffffffffffffffffffffff168173ffffffffffffffffffffffffffffffffffffffff16837f2f8788117e7eff1d82e926ec794901d17c78024a50270940304540a733656f0d60405160405180910390a45b5050565b61251e81612519612602565b612718565b50565b61252b8282611327565b156125fe57600080600084815260200190815260200160002060000160008373ffffffffffffffffffffffffffffffffffffffff1673ffffffffffffffffffffffffffffffffffffffff16815260200190815260200160002060006101000a81548160ff0219169083151502179055506125a3612602565b73ffffffffffffffffffffffffffffffffffffffff168173ffffffffffffffffffffffffffffffffffffffff16837ff6391f5c32d9c69d2a47ea670b442974b53935d1edc7fd64eb21e047a839171b60405160405180910390a45b5050565b600033905090565b61261261117d565b612651576040517f08c379a00000000000000000000000000000000000000000000000000000000081526004016126489061433f565b60405180910390fd5b565b61265b61260a565b6000600160006101000a81548160ff0219169083151502179055507f5db9ee0a495bf2e6ff9c91a7834c1ba4fdd244a5e8aa4e537bd38aeae4b073aa61269f612602565b6040516126ac9190613270565b60405180910390a1565b6126be6123e3565b60018060006101000a81548160ff0219169083151502179055507f62e78cea01bee320cd4e420270b5ea74000d11b0c9f74754ebdbfc544b05a258612701612602565b60405161270e9190613270565b60405180910390a1565b6127228282611327565b6127995761272f8161279d565b61273d8360001c60206127ca565b60405160200161274e929190614433565b6040516020818303038152906040526040517f08c379a0000000000000000000000000000000000000000000000000000000008152600401612790919061446d565b60405180910390fd5b5050565b60606127c38273ffffffffffffffffffffffffffffffffffffffff16601460ff166127ca565b9050919050565b6060600060028360026127dd919061448f565b6127e791906144d1565b67ffffffffffffffff811115612800576127ff613295565b5b6040519080825280601f01601f1916602001820160405280156128325781602001600182028036833780820191505090505b5090507f30000000000000000000000000000000000000000000000000000000000000008160008151811061286a57612869613ac8565b5b60200101907effffffffffffffffffffffffffffffffffffffffffffffffffffffffffffff1916908160001a9053507f7800000000000000000000000000000000000000000000000000000000000000816001815181106128ce576128cd613ac8565b5b60200101907effffffffffffffffffffffffffffffffffffffffffffffffffffffffffffff1916908160001a9053506000600184600261290e919061448f565b61291891906144d1565b90505b60018111156129b8577f3031323334353637383961626364656600000000000000000000000000000000600f86166010811061295a57612959613ac8565b5b1a60f81b82828151811061297157612970613ac8565b5b60200101907effffffffffffffffffffffffffffffffffffffffffffffffffffffffffffff1916908160001a905350600485901c9450806129b190614505565b905061291b565b50600084146129fc576040517f08c379a00000000000000000000000000000000000000000000000000000000081526004016129f39061457a565b60405180910390fd5b8091505092915050565b60405180610100016040528060008152602001606081526020016060815260200160006001811115612a3b57612a3a612e95565b5b8152602001600073ffffffffffffffffffffffffffffffffffffffff168152602001600073ffffffffffffffffffffffffffffffffffffffff16815260200160008152602001600081525090565b6000819050919050565b612a9c81612a89565b82525050565b6000602082019050612ab76000830184612a93565b92915050565b6000604051905090565b600080fd5b600080fd5b60007fffffffff0000000000000000000000000000000000000000000000000000000082169050919050565b612b0681612ad1565b8114612b1157600080fd5b50565b600081359050612b2381612afd565b92915050565b600060208284031215612b3f57612b3e612ac7565b5b6000612b4d84828501612b14565b91505092915050565b60008115159050919050565b612b6b81612b56565b82525050565b6000602082019050612b866000830184612b62565b92915050565b600073ffffffffffffffffffffffffffffffffffffffff82169050919050565b6000612bb782612b8c565b9050919050565b612bc781612bac565b8114612bd257600080fd5b50565b600081359050612be481612bbe565b92915050565b600060208284031215612c0057612bff612ac7565b5b6000612c0e84828501612bd5565b91505092915050565b6000819050919050565b612c2a81612c17565b8114612c3557600080fd5b50565b600081359050612c4781612c21565b92915050565b600060208284031215612c6357612c62612ac7565b5b6000612c7184828501612c38565b91505092915050565b612c8381612c17565b82525050565b6000602082019050612c9e6000830184612c7a565b92915050565b612cad81612a89565b8114612cb857600080fd5b50565b600081359050612cca81612ca4565b92915050565b60008060408385031215612ce757612ce6612ac7565b5b6000612cf585828601612cbb565b9250506020612d0685828601612cbb565b9150509250929050565b600081519050919050565b600082825260208201905092915050565b60005b83811015612d4a578082015181840152602081019050612d2f565b60008484015250505050565b6000601f19601f8301169050919050565b6000612d7282612d10565b612d7c8185612d1b565b9350612d8c818560208601612d2c565b612d9581612d56565b840191505092915050565b60006040820190508181036000830152612dba8185612d67565b9050612dc96020830184612a93565b9392505050565b60008060408385031215612de757612de6612ac7565b5b6000612df585828601612c38565b9250506020612e0685828601612bd5565b9150509250929050565b600081519050919050565b600082825260208201905092915050565b6000819050602082019050919050565b612e4581612a89565b82525050565b600082825260208201905092915050565b6000612e6782612d10565b612e718185612e4b565b9350612e81818560208601612d2c565b612e8a81612d56565b840191505092915050565b7f4e487b7100000000000000000000000000000000000000000000000000000000600052602160045260246000fd5b60028110612ed557612ed4612e95565b5b50565b6000819050612ee682612ec4565b919050565b6000612ef682612ed8565b9050919050565b612f0681612eeb565b82525050565b612f1581612bac565b82525050565b600061010083016000830151612f346000860182612e3c565b5060208301518482036020860152612f4c8282612e5c565b91505060408301518482036040860152612f668282612e5c565b9150506060830151612f7b6060860182612efd565b506080830151612f8e6080860182612f0c565b5060a0830151612fa160a0860182612f0c565b5060c0830151612fb460c0860182612e3c565b5060e0830151612fc760e0860182612e3c565b508091505092915050565b6000612fde8383612f1b565b905092915050565b6000602082019050919050565b6000612ffe82612e10565b6130088185612e1b565b93508360208202850161301a85612e2c565b8060005b8581101561305657848403895281516130378582612fd2565b945061304283612fe6565b925060208a0199505060018101905061301e565b50829750879550505050505092915050565b600060208201905081810360008301526130828184612ff3565b905092915050565b600081519050919050565b600082825260208201905092915050565b6000819050602082019050919050565b60006130c28383612e3c565b60208301905092915050565b6000602082019050919050565b60006130e68261308a565b6130f08185613095565b93506130fb836130a6565b8060005b8381101561312c57815161311388826130b6565b975061311e836130ce565b9250506001810190506130ff565b5085935050505092915050565b6000602082019050818103600083015261315381846130db565b905092915050565b60006020828403121561317157613170612ac7565b5b600061317f84828501612cbb565b91505092915050565b6000610100830160008301516131a16000860182612e3c565b50602083015184820360208601526131b98282612e5c565b915050604083015184820360408601526131d38282612e5c565b91505060608301516131e86060860182612efd565b5060808301516131fb6080860182612f0c565b5060a083015161320e60a0860182612f0c565b5060c083015161322160c0860182612e3c565b5060e083015161323460e0860182612e3c565b508091505092915050565b600060208201905081810360008301526132598184613188565b905092915050565b61326a81612bac565b82525050565b60006020820190506132856000830184613261565b92915050565b600080fd5b600080fd5b7f4e487b7100000000000000000000000000000000000000000000000000000000600052604160045260246000fd5b6132cd82612d56565b810181811067ffffffffffffffff821117156132ec576132eb613295565b5b80604052505050565b60006132ff612abd565b905061330b82826132c4565b919050565b600067ffffffffffffffff82111561332b5761332a613295565b5b61333482612d56565b9050602081019050919050565b82818337600083830152505050565b600061336361335e84613310565b6132f5565b90508281526020810184848401111561337f5761337e613290565b5b61338a848285613341565b509392505050565b600082601f8301126133a7576133a661328b565b5b81356133b7848260208601613350565b91505092915050565b600067ffffffffffffffff8211156133db576133da613295565b5b602082029050602081019050919050565b600080fd5b600080fd5b600080fd5b600060408284031215613411576134106133f1565b5b61341b60406132f5565b9050600082013567ffffffffffffffff81111561343b5761343a6133f6565b5b61344784828501613392565b600083015250602061345b84828501612cbb565b60208301525092915050565b600061347a613475846133c0565b6132f5565b9050808382526020820190506020840283018581111561349d5761349c6133ec565b5b835b818110156134e457803567ffffffffffffffff8111156134c2576134c161328b565b5b8086016134cf89826133fb565b8552602085019450505060208101905061349f565b5050509392505050565b600082601f8301126135035761350261328b565b5b8135613513848260208601613467565b91505092915050565b600080600080600060a0868803121561353857613537612ac7565b5b600086013567ffffffffffffffff81111561355657613555612acc565b5b61356288828901613392565b955050602086013567ffffffffffffffff81111561358357613582612acc565b5b61358f88828901613392565b94505060406135a088828901612bd5565b935050606086013567ffffffffffffffff8111156135c1576135c0612acc565b5b6135cd888289016134ee565b92505060806135de88828901612cbb565b9150509295509295909350565b600081519050919050565b600082825260208201905092915050565b6000819050602082019050919050565b600060408301600083015184820360008601526136348282612e5c565b91505060208301516136496020860182612e3c565b508091505092915050565b60006136608383613617565b905092915050565b6000602082019050919050565b6000613680826135eb565b61368a81856135f6565b93508360208202850161369c85613607565b8060005b858110156136d857848403895281516136b98582613654565b94506136c483613668565b925060208a019950506001810190506136a0565b50829750879550505050505092915050565b600060208201905081810360008301526137048184613675565b905092915050565b61371581612eeb565b82525050565b600061010082019050613731600083018b612a93565b8181036020830152613743818a612d67565b905081810360408301526137578189612d67565b9050613766606083018861370c565b6137736080830187613261565b61378060a0830186613261565b61378d60c0830185612a93565b61379a60e0830184612a93565b9998505050505050505050565b6000806000606084860312156137c0576137bf612ac7565b5b60006137ce86828701612cbb565b93505060206137df86828701612cbb565b92505060406137f086828701612cbb565b9150509250925092565b6000819050919050565b600061381f61381a61381584612b8c565b6137fa565b612b8c565b9050919050565b600061383182613804565b9050919050565b600061384382613826565b9050919050565b61385381613838565b82525050565b600060208201905061386e600083018461384a565b92915050565b6000806040838503121561388b5761388a612ac7565b5b600061389985828601612bd5565b92505060206138aa85828601612cbb565b9150509250929050565b6000806000606084860312156138cd576138cc612ac7565b5b60006138db86828701612cbb565b93505060206138ec86828701612cbb565b92505060406138fd86828701612bd5565b9150509250925092565b7f4e487b7100000000000000000000000000000000000000000000000000000000600052602260045260246000fd5b6000600282049050600182168061394e57607f821691505b60208210810361396157613960613907565b5b50919050565b7f416363657373436f6e74726f6c3a2063616e206f6e6c792072656e6f756e636560008201527f20726f6c657320666f722073656c660000000000000000000000000000000000602082015250565b60006139c3602f83612d1b565b91506139ce82613967565b604082019050919050565b600060208201905081810360008301526139f2816139b6565b9050919050565b7f496e76616c69642061677265656d656e74204944000000000000000000000000600082015250565b6000613a2f601483612d1b565b9150613a3a826139f9565b602082019050919050565b60006020820190508181036000830152613a5e81613a22565b9050919050565b7f4e487b7100000000000000000000000000000000000000000000000000000000600052601160045260246000fd5b6000613a9f82612a89565b9150613aaa83612a89565b9250828203905081811115613ac257613ac1613a65565b5b92915050565b7f4e487b7100000000000000000000000000000000000000000000000000000000600052603260045260246000fd5b7f50726f66657373696f6e616c20616464726573732063616e6e6f74206265207a60008201527f65726f0000000000000000000000000000000000000000000000000000000000602082015250565b6000613b53602383612d1b565b9150613b5e82613af7565b604082019050919050565b60006020820190508181036000830152613b8281613b46565b9050919050565b7f536b696c6c73206d757374206e6f7420626520656d7074790000000000000000600082015250565b6000613bbf601883612d1b565b9150613bca82613b89565b602082019050919050565b60006020820190508181036000830152613bee81613bb2565b9050919050565b7f5061796d656e7420616d6f756e74206d7573742062652067726561746572207460008201527f68616e207a65726f000000000000000000000000000000000000000000000000602082015250565b6000613c51602883612d1b565b9150613c5c82613bf5565b604082019050919050565b60006020820190508181036000830152613c8081613c44565b9050919050565b7f50726f66657373696f6e616c20616464726573732063616e6e6f74206265207460008201527f68652073616d6520617320636f6d70616e790000000000000000000000000000602082015250565b6000613ce3603283612d1b565b9150613cee82613c87565b604082019050919050565b60006020820190508181036000830152613d1281613cd6565b9050919050565b60008190508160005260206000209050919050565b60006020601f8301049050919050565b600082821b905092915050565b600060088302613d7b7fffffffffffffffffffffffffffffffffffffffffffffffffffffffffffffffff82613d3e565b613d858683613d3e565b95508019841693508086168417925050509392505050565b6000613db8613db3613dae84612a89565b6137fa565b612a89565b9050919050565b6000819050919050565b613dd283613d9d565b613de6613dde82613dbf565b848454613d4b565b825550505050565b600090565b613dfb613dee565b613e06818484613dc9565b505050565b5b81811015613e2a57613e1f600082613df3565b600181019050613e0c565b5050565b601f821115613e6f57613e4081613d19565b613e4984613d2e565b81016020851015613e58578190505b613e6c613e6485613d2e565b830182613e0b565b50505b505050565b600082821c905092915050565b6000613e9260001984600802613e74565b1980831691505092915050565b6000613eab8383613e81565b9150826002028217905092915050565b613ec482612d10565b67ffffffffffffffff811115613edd57613edc613295565b5b613ee78254613936565b613ef2828285613e2e565b600060209050601f831160018114613f255760008415613f13578287015190505b613f1d8582613e9f565b865550613f85565b601f198416613f3386613d19565b60005b82811015613f5b57848901518255600182019150602085019450602081019050613f36565b86831015613f785784890151613f74601f891682613e81565b8355505b6001600288020188555050505b505050505050565b6000604082019050613fa26000830185612a93565b613faf6020830184612a93565b9392505050565b6000613fc182612a89565b91507fffffffffffffffffffffffffffffffffffffffffffffffffffffffffffffffff8203613ff357613ff2613a65565b5b600182019050919050565b7f496e76616c6964206665652070657263656e7461676500000000000000000000600082015250565b6000614034601683612d1b565b915061403f82613ffe565b602082019050919050565b6000602082019050818103600083015261406381614027565b9050919050565b7f496e76616c6964207061796d656e7420746f6b656e0000000000000000000000600082015250565b60006140a0601583612d1b565b91506140ab8261406a565b602082019050919050565b600060208201905081810360008301526140cf81614093565b9050919050565b7f4e487b7100000000000000000000000000000000000000000000000000000000600052601260045260246000fd5b600060608201905061411a6000830186613261565b6141276020830185613261565b6141346040830184612a93565b949350505050565b61414581612b56565b811461415057600080fd5b50565b6000815190506141628161413c565b92915050565b60006020828403121561417e5761417d612ac7565b5b600061418c84828501614153565b91505092915050565b7f55736572206d75737420617070726f76652074686520616d6f756e74206f662060008201527f7468652061677265656d656e7400000000000000000000000000000000000000602082015250565b60006141f1602d83612d1b565b91506141fc82614195565b604082019050919050565b60006020820190508181036000830152614220816141e4565b9050919050565b600060408201905061423c6000830185613261565b6142496020830184612a93565b9392505050565b60006060820190506142656000830186612a93565b6142726020830185613261565b61427f6040830184613261565b949350505050565b7f5061757361626c653a2070617573656400000000000000000000000000000000600082015250565b60006142bd601083612d1b565b91506142c882614287565b602082019050919050565b600060208201905081810360008301526142ec816142b0565b9050919050565b7f5061757361626c653a206e6f7420706175736564000000000000000000000000600082015250565b6000614329601483612d1b565b9150614334826142f3565b602082019050919050565b600060208201905081810360008301526143588161431c565b9050919050565b600081905092915050565b7f416363657373436f6e74726f6c3a206163636f756e7420000000000000000000600082015250565b60006143a060178361435f565b91506143ab8261436a565b601782019050919050565b60006143c182612d10565b6143cb818561435f565b93506143db818560208601612d2c565b80840191505092915050565b7f206973206d697373696e6720726f6c6520000000000000000000000000000000600082015250565b600061441d60118361435f565b9150614428826143e7565b601182019050919050565b600061443e82614393565b915061444a82856143b6565b915061445582614410565b915061446182846143b6565b91508190509392505050565b600060208201905081810360008301526144878184612d67565b905092915050565b600061449a82612a89565b91506144a583612a89565b92508282026144b381612a89565b915082820484148315176144ca576144c9613a65565b5b5092915050565b60006144dc82612a89565b91506144e783612a89565b92508282019050808211156144ff576144fe613a65565b5b92915050565b600061451082612a89565b91506000820361452357614522613a65565b5b600182039050919050565b7f537472696e67733a20686578206c656e67746820696e73756666696369656e74600082015250565b6000614564602083612d1b565b915061456f8261452e565b602082019050919050565b6000602082019050818103600083015261459381614557565b905091905056fea2646970667358221220b58d9cc953aa9c7508c920af032e6d70ee5cb3d0c9dce74fabcfc2b719ed8b5764736f6c63430008170033",
  "linkReferences": {},
  "deployedLinkReferences": {}
}