{
  "_format": "hh-sol-artifact-1",
  "contractName": "AgreementContract",
  "sourceName": "contracts/AgreementContract.sol",
  "abi": [
    {
      "inputs": [
        {
          "internalType": "address",
          "name": "_kyodoTreasury",
          "type": "address"
        },
        {
          "internalType": "uint256",
          "name": "_kyodoProtocolFee",
          "type": "uint256"
        },
        {
          "internalType": "address",
          "name": "admin",
          "type": "address"
        }
      ],
      "stateMutability": "nonpayable",
      "type": "constructor"
    },
    {
      "anonymous": false,
      "inputs": [
        {
          "indexed": true,
          "internalType": "address",
          "name": "company",
          "type": "address"
        },
        {
          "indexed": true,
          "internalType": "address",
          "name": "professional",
          "type": "address"
        },
        {
          "indexed": false,
          "internalType": "uint256",
          "name": "agreementId",
          "type": "uint256"
        },
        {
          "indexed": false,
          "internalType": "uint256",
          "name": "amount",
          "type": "uint256"
        }
      ],
      "name": "AgreementCreated",
      "type": "event"
    },
    {
      "anonymous": false,
      "inputs": [
        {
          "indexed": true,
          "internalType": "address",
          "name": "new_admin",
          "type": "address"
        }
      ],
      "name": "NewAdminAdded",
      "type": "event"
    },
    {
      "anonymous": false,
      "inputs": [
        {
          "indexed": true,
          "internalType": "address",
          "name": "profile",
          "type": "address"
        }
      ],
      "name": "NewProfileAdded",
      "type": "event"
    },
    {
      "anonymous": false,
      "inputs": [
        {
          "indexed": false,
          "internalType": "address",
          "name": "account",
          "type": "address"
        }
      ],
      "name": "Paused",
      "type": "event"
    },
    {
      "anonymous": false,
      "inputs": [
        {
          "indexed": true,
          "internalType": "address",
          "name": "company",
          "type": "address"
        },
        {
          "indexed": true,
          "internalType": "address",
          "name": "professional",
          "type": "address"
        },
        {
          "indexed": false,
          "internalType": "uint256",
          "name": "agreementId",
          "type": "uint256"
        },
        {
          "indexed": false,
          "internalType": "uint256",
          "name": "amount",
          "type": "uint256"
        }
      ],
      "name": "PaymentMade",
      "type": "event"
    },
    {
      "anonymous": false,
      "inputs": [
        {
          "indexed": true,
          "internalType": "address",
          "name": "removed_admin",
          "type": "address"
        }
      ],
      "name": "RemovedAdmin",
      "type": "event"
    },
    {
      "anonymous": false,
      "inputs": [
        {
          "indexed": true,
          "internalType": "bytes32",
          "name": "role",
          "type": "bytes32"
        },
        {
          "indexed": true,
          "internalType": "bytes32",
          "name": "previousAdminRole",
          "type": "bytes32"
        },
        {
          "indexed": true,
          "internalType": "bytes32",
          "name": "newAdminRole",
          "type": "bytes32"
        }
      ],
      "name": "RoleAdminChanged",
      "type": "event"
    },
    {
      "anonymous": false,
      "inputs": [
        {
          "indexed": true,
          "internalType": "bytes32",
          "name": "role",
          "type": "bytes32"
        },
        {
          "indexed": true,
          "internalType": "address",
          "name": "account",
          "type": "address"
        },
        {
          "indexed": true,
          "internalType": "address",
          "name": "sender",
          "type": "address"
        }
      ],
      "name": "RoleGranted",
      "type": "event"
    },
    {
      "anonymous": false,
      "inputs": [
        {
          "indexed": true,
          "internalType": "bytes32",
          "name": "role",
          "type": "bytes32"
        },
        {
          "indexed": true,
          "internalType": "address",
          "name": "account",
          "type": "address"
        },
        {
          "indexed": true,
          "internalType": "address",
          "name": "sender",
          "type": "address"
        }
      ],
      "name": "RoleRevoked",
      "type": "event"
    },
    {
      "anonymous": false,
      "inputs": [
        {
          "indexed": false,
          "internalType": "address",
          "name": "account",
          "type": "address"
        }
      ],
      "name": "Unpaused",
      "type": "event"
    },
    {
      "anonymous": false,
      "inputs": [
        {
          "indexed": true,
          "internalType": "address",
          "name": "user",
          "type": "address"
        },
        {
          "indexed": false,
          "internalType": "string",
          "name": "name",
          "type": "string"
        },
        {
          "indexed": false,
          "internalType": "string",
          "name": "taxDocument",
          "type": "string"
        }
      ],
      "name": "UserInfoStored",
      "type": "event"
    },
    {
      "inputs": [],
      "name": "CHANGE_PARAMETERS",
      "outputs": [
        {
          "internalType": "bytes32",
          "name": "",
          "type": "bytes32"
        }
      ],
      "stateMutability": "view",
      "type": "function"
    },
    {
      "inputs": [],
      "name": "DEFAULT_ADMIN_ROLE",
      "outputs": [
        {
          "internalType": "bytes32",
          "name": "",
          "type": "bytes32"
        }
      ],
      "stateMutability": "view",
      "type": "function"
    },
    {
      "inputs": [
        {
          "internalType": "address",
          "name": "",
          "type": "address"
        }
      ],
      "name": "acceptedPaymentTokens",
      "outputs": [
        {
          "internalType": "bool",
          "name": "",
          "type": "bool"
        }
      ],
      "stateMutability": "view",
      "type": "function"
    },
    {
      "inputs": [
        {
          "internalType": "address",
          "name": "_tokenAddress",
          "type": "address"
        }
      ],
      "name": "addAcceptedPaymentToken",
      "outputs": [],
      "stateMutability": "nonpayable",
      "type": "function"
    },
    {
      "inputs": [
        {
          "internalType": "address",
          "name": "account",
          "type": "address"
        }
      ],
      "name": "addAdmin",
      "outputs": [],
      "stateMutability": "nonpayable",
      "type": "function"
    },
    {
      "inputs": [
        {
          "internalType": "address",
          "name": "account",
          "type": "address"
        }
      ],
      "name": "addProfile",
      "outputs": [],
      "stateMutability": "nonpayable",
      "type": "function"
    },
    {
      "inputs": [
        {
          "internalType": "uint256",
          "name": "",
          "type": "uint256"
        },
        {
          "internalType": "uint256",
          "name": "",
          "type": "uint256"
        }
      ],
      "name": "agreementSkills",
      "outputs": [
        {
          "internalType": "string",
          "name": "name",
          "type": "string"
        },
        {
          "internalType": "uint256",
          "name": "level",
          "type": "uint256"
        }
      ],
      "stateMutability": "view",
      "type": "function"
    },
    {
      "inputs": [
        {
          "internalType": "uint256",
          "name": "",
          "type": "uint256"
        }
      ],
      "name": "agreements",
      "outputs": [
        {
          "internalType": "uint256",
          "name": "id",
          "type": "uint256"
        },
        {
          "internalType": "string",
          "name": "title",
          "type": "string"
        },
        {
          "internalType": "string",
          "name": "description",
          "type": "string"
        },
        {
          "internalType": "enum IAgreementContract.AgreementStatus",
          "name": "status",
          "type": "uint8"
        },
        {
          "internalType": "address",
          "name": "company",
          "type": "address"
        },
        {
          "internalType": "address",
          "name": "professional",
          "type": "address"
        },
        {
          "internalType": "uint256",
          "name": "paymentAmount",
          "type": "uint256"
        },
        {
          "internalType": "uint256",
          "name": "totalPaid",
          "type": "uint256"
        },
        {
          "internalType": "uint256",
          "name": "fee",
          "type": "uint256"
        }
      ],
      "stateMutability": "view",
      "type": "function"
    },
    {
      "inputs": [
        {
          "internalType": "address",
          "name": "",
          "type": "address"
        },
        {
          "internalType": "uint256",
          "name": "",
          "type": "uint256"
        }
      ],
      "name": "contractorAgreements",
      "outputs": [
        {
          "internalType": "uint256",
          "name": "",
          "type": "uint256"
        }
      ],
      "stateMutability": "view",
      "type": "function"
    },
    {
      "inputs": [
        {
          "internalType": "string",
          "name": "_title",
          "type": "string"
        },
        {
          "internalType": "string",
          "name": "_description",
          "type": "string"
        },
        {
          "internalType": "address",
          "name": "_professional",
          "type": "address"
        },
        {
          "components": [
            {
              "internalType": "string",
              "name": "name",
              "type": "string"
            },
            {
              "internalType": "uint256",
              "name": "level",
              "type": "uint256"
            }
          ],
          "internalType": "struct IAgreementContract.Skill[]",
          "name": "_skills",
          "type": "tuple[]"
        },
        {
          "internalType": "uint256",
          "name": "_paymentAmount",
          "type": "uint256"
        }
      ],
      "name": "createAgreement",
      "outputs": [],
      "stateMutability": "nonpayable",
      "type": "function"
    },
    {
      "inputs": [],
      "name": "feePercentage",
      "outputs": [
        {
          "internalType": "uint256",
          "name": "",
          "type": "uint256"
        }
      ],
      "stateMutability": "view",
      "type": "function"
    },
    {
      "inputs": [],
      "name": "getAcceptedPaymentTokens",
      "outputs": [
        {
          "internalType": "address",
          "name": "",
          "type": "address"
        }
      ],
      "stateMutability": "view",
      "type": "function"
    },
    {
      "inputs": [
        {
          "internalType": "uint256",
          "name": "_id",
          "type": "uint256"
        }
      ],
      "name": "getAgreementById",
      "outputs": [
        {
          "components": [
            {
              "internalType": "uint256",
              "name": "id",
              "type": "uint256"
            },
            {
              "internalType": "string",
              "name": "title",
              "type": "string"
            },
            {
              "internalType": "string",
              "name": "description",
              "type": "string"
            },
            {
              "internalType": "enum IAgreementContract.AgreementStatus",
              "name": "status",
              "type": "uint8"
            },
            {
              "internalType": "address",
              "name": "company",
              "type": "address"
            },
            {
              "internalType": "address",
              "name": "professional",
              "type": "address"
            },
            {
              "internalType": "uint256",
              "name": "paymentAmount",
              "type": "uint256"
            },
            {
              "internalType": "uint256",
              "name": "totalPaid",
              "type": "uint256"
            },
            {
              "internalType": "uint256",
              "name": "fee",
              "type": "uint256"
            }
          ],
          "internalType": "struct IAgreementContract.Agreement",
          "name": "",
          "type": "tuple"
        }
      ],
      "stateMutability": "view",
      "type": "function"
    },
    {
      "inputs": [],
      "name": "getAgreementCount",
      "outputs": [
        {
          "internalType": "uint256",
          "name": "",
          "type": "uint256"
        }
      ],
      "stateMutability": "view",
      "type": "function"
    },
    {
      "inputs": [],
      "name": "getAllAgreements",
      "outputs": [
        {
          "components": [
            {
              "internalType": "uint256",
              "name": "id",
              "type": "uint256"
            },
            {
              "internalType": "string",
              "name": "title",
              "type": "string"
            },
            {
              "internalType": "string",
              "name": "description",
              "type": "string"
            },
            {
              "internalType": "enum IAgreementContract.AgreementStatus",
              "name": "status",
              "type": "uint8"
            },
            {
              "internalType": "address",
              "name": "company",
              "type": "address"
            },
            {
              "internalType": "address",
              "name": "professional",
              "type": "address"
            },
            {
              "internalType": "uint256",
              "name": "paymentAmount",
              "type": "uint256"
            },
            {
              "internalType": "uint256",
              "name": "totalPaid",
              "type": "uint256"
            },
            {
              "internalType": "uint256",
              "name": "fee",
              "type": "uint256"
            }
          ],
          "internalType": "struct IAgreementContract.Agreement[]",
          "name": "",
          "type": "tuple[]"
        }
      ],
      "stateMutability": "view",
      "type": "function"
    },
    {
      "inputs": [
        {
          "internalType": "address",
          "name": "_contractor",
          "type": "address"
        }
      ],
      "name": "getContractorAgreementIds",
      "outputs": [
        {
          "internalType": "uint256[]",
          "name": "",
          "type": "uint256[]"
        }
      ],
      "stateMutability": "view",
      "type": "function"
    },
    {
      "inputs": [],
      "name": "getFee",
      "outputs": [
        {
          "internalType": "uint256",
          "name": "",
          "type": "uint256"
        }
      ],
      "stateMutability": "view",
      "type": "function"
    },
    {
      "inputs": [
        {
          "internalType": "address",
          "name": "_professional",
          "type": "address"
        }
      ],
      "name": "getProfessionalAgreementIds",
      "outputs": [
        {
          "internalType": "uint256[]",
          "name": "",
          "type": "uint256[]"
        }
      ],
      "stateMutability": "view",
      "type": "function"
    },
    {
      "inputs": [
        {
          "internalType": "bytes32",
          "name": "role",
          "type": "bytes32"
        }
      ],
      "name": "getRoleAdmin",
      "outputs": [
        {
          "internalType": "bytes32",
          "name": "",
          "type": "bytes32"
        }
      ],
      "stateMutability": "view",
      "type": "function"
    },
    {
      "inputs": [
        {
          "internalType": "uint256",
          "name": "_agreementId",
          "type": "uint256"
        }
      ],
      "name": "getSkillsByAgreementId",
      "outputs": [
        {
          "components": [
            {
              "internalType": "string",
              "name": "name",
              "type": "string"
            },
            {
              "internalType": "uint256",
              "name": "level",
              "type": "uint256"
            }
          ],
          "internalType": "struct IAgreementContract.Skill[]",
          "name": "",
          "type": "tuple[]"
        }
      ],
      "stateMutability": "view",
      "type": "function"
    },
    {
      "inputs": [
        {
          "internalType": "address",
          "name": "userAddress",
          "type": "address"
        }
      ],
      "name": "getUserInfo",
      "outputs": [
        {
          "internalType": "string",
          "name": "",
          "type": "string"
        },
        {
          "internalType": "string",
          "name": "",
          "type": "string"
        }
      ],
      "stateMutability": "view",
      "type": "function"
    },
    {
      "inputs": [
        {
          "internalType": "bytes32",
          "name": "role",
          "type": "bytes32"
        },
        {
          "internalType": "address",
          "name": "account",
          "type": "address"
        }
      ],
      "name": "grantRole",
      "outputs": [],
      "stateMutability": "nonpayable",
      "type": "function"
    },
    {
      "inputs": [
        {
          "internalType": "bytes32",
          "name": "role",
          "type": "bytes32"
        },
        {
          "internalType": "address",
          "name": "account",
          "type": "address"
        }
      ],
      "name": "hasRole",
      "outputs": [
        {
          "internalType": "bool",
          "name": "",
          "type": "bool"
        }
      ],
      "stateMutability": "view",
      "type": "function"
    },
    {
      "inputs": [],
      "name": "kyodoProtocolFee",
      "outputs": [
        {
          "internalType": "uint256",
          "name": "",
          "type": "uint256"
        }
      ],
      "stateMutability": "view",
      "type": "function"
    },
    {
      "inputs": [],
      "name": "kyodoTreasury",
      "outputs": [
        {
          "internalType": "address",
          "name": "",
          "type": "address"
        }
      ],
      "stateMutability": "view",
      "type": "function"
    },
    {
      "inputs": [
        {
          "internalType": "uint256[]",
          "name": "_agreementIds",
          "type": "uint256[]"
        },
        {
          "internalType": "uint256[]",
          "name": "_amountsToPay",
          "type": "uint256[]"
        },
        {
          "internalType": "address",
          "name": "_paymentAddress",
          "type": "address"
        }
      ],
      "name": "makePayment",
      "outputs": [],
      "stateMutability": "nonpayable",
      "type": "function"
    },
    {
      "inputs": [],
      "name": "nextAgreementId",
      "outputs": [
        {
          "internalType": "uint256",
          "name": "",
          "type": "uint256"
        }
      ],
      "stateMutability": "view",
      "type": "function"
    },
    {
      "inputs": [],
      "name": "pause",
      "outputs": [],
      "stateMutability": "nonpayable",
      "type": "function"
    },
    {
      "inputs": [],
      "name": "paused",
      "outputs": [
        {
          "internalType": "bool",
          "name": "",
          "type": "bool"
        }
      ],
      "stateMutability": "view",
      "type": "function"
    },
    {
      "inputs": [
        {
          "internalType": "address",
          "name": "account",
          "type": "address"
        }
      ],
      "name": "removeAdmin",
      "outputs": [],
      "stateMutability": "nonpayable",
      "type": "function"
    },
    {
      "inputs": [
        {
          "internalType": "address",
          "name": "token",
          "type": "address"
        }
      ],
      "name": "removePaymentToken",
      "outputs": [],
      "stateMutability": "nonpayable",
      "type": "function"
    },
    {
      "inputs": [
        {
          "internalType": "bytes32",
          "name": "role",
          "type": "bytes32"
        },
        {
          "internalType": "address",
          "name": "account",
          "type": "address"
        }
      ],
      "name": "renounceRole",
      "outputs": [],
      "stateMutability": "nonpayable",
      "type": "function"
    },
    {
      "inputs": [
        {
          "internalType": "bytes32",
          "name": "role",
          "type": "bytes32"
        },
        {
          "internalType": "address",
          "name": "account",
          "type": "address"
        }
      ],
      "name": "revokeRole",
      "outputs": [],
      "stateMutability": "nonpayable",
      "type": "function"
    },
    {
      "inputs": [
        {
          "internalType": "string",
          "name": "_name",
          "type": "string"
        },
        {
          "internalType": "string",
          "name": "_taxDocument",
          "type": "string"
        }
      ],
      "name": "storeUserInfo",
      "outputs": [],
      "stateMutability": "nonpayable",
      "type": "function"
    },
    {
      "inputs": [
        {
          "internalType": "bytes4",
          "name": "interfaceId",
          "type": "bytes4"
        }
      ],
      "name": "supportsInterface",
      "outputs": [
        {
          "internalType": "bool",
          "name": "",
          "type": "bool"
        }
      ],
      "stateMutability": "view",
      "type": "function"
    },
    {
      "inputs": [
        {
          "internalType": "uint256",
          "name": "",
          "type": "uint256"
        }
      ],
      "name": "tokenAddresses",
      "outputs": [
        {
          "internalType": "address",
          "name": "",
          "type": "address"
        }
      ],
      "stateMutability": "view",
      "type": "function"
    },
    {
      "inputs": [],
      "name": "unpause",
      "outputs": [],
      "stateMutability": "nonpayable",
      "type": "function"
    },
    {
      "inputs": [
        {
          "internalType": "uint256",
          "name": "_kyodoProtocolFee",
          "type": "uint256"
        }
      ],
      "name": "updateFee",
      "outputs": [],
      "stateMutability": "nonpayable",
      "type": "function"
    }
  ],
  "bytecode": "0x608060405260016002553480156200001657600080fd5b50604051620050203803806200502083398181016040528101906200003c9190620002f9565b806000600160006101000a81548160ff0219169083151502179055506200006d6000801b82620000f160201b60201c565b6200009f7f73fd536265c26e6e13263018bc9d82a9b962a7857ae70dac847fd743f5e7153582620000f160201b60201c565b5082600a60006101000a81548173ffffffffffffffffffffffffffffffffffffffff021916908373ffffffffffffffffffffffffffffffffffffffff16021790555081600c8190555050505062000355565b620001038282620001e260201b60201c565b620001de57600160008084815260200190815260200160002060000160008373ffffffffffffffffffffffffffffffffffffffff1673ffffffffffffffffffffffffffffffffffffffff16815260200190815260200160002060006101000a81548160ff021916908315150217905550620001836200024c60201b60201c565b73ffffffffffffffffffffffffffffffffffffffff168173ffffffffffffffffffffffffffffffffffffffff16837f2f8788117e7eff1d82e926ec794901d17c78024a50270940304540a733656f0d60405160405180910390a45b5050565b600080600084815260200190815260200160002060000160008373ffffffffffffffffffffffffffffffffffffffff1673ffffffffffffffffffffffffffffffffffffffff16815260200190815260200160002060009054906101000a900460ff16905092915050565b600033905090565b600080fd5b600073ffffffffffffffffffffffffffffffffffffffff82169050919050565b6000620002868262000259565b9050919050565b620002988162000279565b8114620002a457600080fd5b50565b600081519050620002b8816200028d565b92915050565b6000819050919050565b620002d381620002be565b8114620002df57600080fd5b50565b600081519050620002f381620002c8565b92915050565b60008060006060848603121562000315576200031462000254565b5b60006200032586828701620002a7565b93505060206200033886828701620002e2565b92505060406200034b86828701620002a7565b9150509250925092565b614cbb80620003656000396000f3fe608060405234801561001057600080fd5b50600436106102315760003560e01c80637048027511610130578063a217fddf116100b8578063c9b99dab1161007c578063c9b99dab146106a6578063ced72f87146106c4578063d547741f146106e2578063e5df8b84146106fe578063f38d215d1461072e57610231565b8063a217fddf146105e8578063a512542114610606578063a861367614610622578063b3f8cb001461063e578063bd14de961461066e57610231565b80638ee0344f116100ff5780638ee0344f146105305780639012c4a81461056057806391d148541461057c578063964bb4ab146105ac578063a001ecdd146105ca57610231565b806370480275146104ce57806377be3d2f146104ea578063792f3091146105085780638456cb591461052657610231565b806336568abe116101be5780634f7cd72f116101825780634f7cd72f14610415578063573fb624146104335780635c975abb146104635780635d0b8eba146104815780636386c1c71461049d57610231565b806336568abe146103715780633f4ba83a1461038d578063484bb244146103975780634e6873c7146103c75780634e92fafd146103e557610231565b806313cda3b71161020557806313cda3b7146102bc5780631785f53c146102d8578063248a9ca3146102f457806329db7493146103245780632f2ff15d1461035557610231565b80628bed3e1461023657806301ffc9a7146102545780630778c3581461028457806310143a64146102a0575b600080fd5b61023e61075e565b60405161024b9190612d8b565b60405180910390f35b61026e60048036038101906102699190612e12565b61076b565b60405161027b9190612e5a565b60405180910390f35b61029e60048036038101906102999190613058565b6107e5565b005b6102ba60048036038101906102b591906130e3565b610cef565b005b6102d660048036038101906102d191906130e3565b610d67565b005b6102f260048036038101906102ed91906130e3565b610e33565b005b61030e60048036038101906103099190613146565b610e9c565b60405161031b9190613182565b60405180910390f35b61033e6004803603810190610339919061319d565b610ebb565b60405161034c92919061325c565b60405180910390f35b61036f600480360381019061036a919061328c565b610f84565b005b61038b6004803603810190610386919061328c565b610fa5565b005b610395611028565b005b6103b160048036038101906103ac91906130e3565b611048565b6040516103be9190612e5a565b60405180910390f35b6103cf611068565b6040516103dc9190613539565b60405180910390f35b6103ff60048036038101906103fa91906130e3565b6112fb565b60405161040c919061360a565b60405180910390f35b61041d611392565b60405161042a9190613182565b60405180910390f35b61044d6004803603810190610448919061362c565b6113b6565b60405161045a9190613725565b60405180910390f35b61046b611686565b6040516104789190612e5a565b60405180910390f35b61049b600480360381019061049691906137fc565b61169d565b005b6104b760048036038101906104b291906130e3565b6117e1565b6040516104c5929190613874565b60405180910390f35b6104e860048036038101906104e391906130e3565b611a32565b005b6104f2611a9b565b6040516104ff91906138ba565b60405180910390f35b610510611ae2565b60405161051d9190612d8b565b60405180910390f35b61052e611ae8565b005b61054a600480360381019061054591906130e3565b611b08565b604051610557919061360a565b60405180910390f35b61057a6004803603810190610575919061362c565b611b9f565b005b6105966004803603810190610591919061328c565b611c09565b6040516105a39190612e5a565b60405180910390f35b6105b4611c73565b6040516105c191906138ba565b60405180910390f35b6105d2611c99565b6040516105df9190612d8b565b60405180910390f35b6105f0611c9f565b6040516105fd9190613182565b60405180910390f35b610620600480360381019061061b91906130e3565b611ca6565b005b61063c60048036038101906106379190613a2c565b611d0f565b005b6106586004803603810190610653919061362c565b6122f1565b6040516106659190613bfa565b60405180910390f35b6106886004803603810190610683919061362c565b6123ff565b60405161069d99989796959493929190613c2b565b60405180910390f35b6106ae6125ba565b6040516106bb9190612d8b565b60405180910390f35b6106cc6125c0565b6040516106d99190612d8b565b60405180910390f35b6106fc60048036038101906106f7919061328c565b6125ca565b005b6107186004803603810190610713919061362c565b6125eb565b60405161072591906138ba565b60405180910390f35b61074860048036038101906107439190613cc6565b61262a565b6040516107559190612d8b565b60405180910390f35b6000600380549050905090565b60007f7965db0b000000000000000000000000000000000000000000000000000000007bffffffffffffffffffffffffffffffffffffffffffffffffffffffff1916827bffffffffffffffffffffffffffffffffffffffffffffffffffffffff191614806107de57506107dd8261265b565b5b9050919050565b8151835114610829576040517f08c379a000000000000000000000000000000000000000000000000000000000815260040161082090613d52565b60405180910390fd5b600660008273ffffffffffffffffffffffffffffffffffffffff1673ffffffffffffffffffffffffffffffffffffffff16815260200190815260200160002060009054906101000a900460ff166108b5576040517f08c379a00000000000000000000000000000000000000000000000000000000081526004016108ac90613dbe565b60405180910390fd5b600081905060005b8451811015610ce85760008582815181106108db576108da613dde565b5b6020026020010151905060008583815181106108fa576108f9613dde565b5b6020026020010151905060008211801561091957506003805490508211155b610958576040517f08c379a000000000000000000000000000000000000000000000000000000000815260040161094f90613e59565b60405180910390fd5b600060036001846109699190613ea8565b8154811061097a57610979613dde565b5b906000526020600020906008020190506000806103e86109986125c0565b8502816109a8576109a7613edc565b5b049150818401905060008773ffffffffffffffffffffffffffffffffffffffff1663dd62ed3e33306040518363ffffffff1660e01b81526004016109ed929190613f0b565b602060405180830381865afa158015610a0a573d6000803e3d6000fd5b505050506040513d601f19601f82011682018060405250810190610a2e9190613f49565b905081811015610a73576040517f08c379a0000000000000000000000000000000000000000000000000000000008152600401610a6a90613fe8565b60405180910390fd5b8773ffffffffffffffffffffffffffffffffffffffff166323b872dd3330856040518463ffffffff1660e01b8152600401610ab093929190614008565b6020604051808303816000875af1158015610acf573d6000803e3d6000fd5b505050506040513d601f19601f82011682018060405250810190610af3919061406b565b508773ffffffffffffffffffffffffffffffffffffffff1663a9059cbb8560040160009054906101000a900473ffffffffffffffffffffffffffffffffffffffff16876040518363ffffffff1660e01b8152600401610b53929190614098565b6020604051808303816000875af1158015610b72573d6000803e3d6000fd5b505050506040513d601f19601f82011682018060405250810190610b96919061406b565b508773ffffffffffffffffffffffffffffffffffffffff1663a9059cbb600a60009054906101000a900473ffffffffffffffffffffffffffffffffffffffff16856040518363ffffffff1660e01b8152600401610bf4929190614098565b6020604051808303816000875af1158015610c13573d6000803e3d6000fd5b505050506040513d601f19601f82011682018060405250810190610c37919061406b565b508484600601600082825401925050819055508360040160009054906101000a900473ffffffffffffffffffffffffffffffffffffffff1673ffffffffffffffffffffffffffffffffffffffff163373ffffffffffffffffffffffffffffffffffffffff167f1f004c54eef332ef6912dae8f1775c102da23bec79ccf602eaaa072938e96b678888604051610ccd9291906140c1565b60405180910390a350505050505080806001019150506108bd565b5050505050565b610cf76126c5565b610d217f73fd536265c26e6e13263018bc9d82a9b962a7857ae70dac847fd743f5e715358261270f565b8073ffffffffffffffffffffffffffffffffffffffff167f92364d7c14d8a26a040c77305dd885fcd5898051d1b1ead4189b09d5f091159060405160405180910390a250565b6000801b610d74816127ef565b6001600660008473ffffffffffffffffffffffffffffffffffffffff1673ffffffffffffffffffffffffffffffffffffffff16815260200190815260200160002060006101000a81548160ff0219169083151502179055506009829080600181540180825580915050600190039060005260206000200160009091909190916101000a81548173ffffffffffffffffffffffffffffffffffffffff021916908373ffffffffffffffffffffffffffffffffffffffff1602179055505050565b6000801b610e40816127ef565b610e486126c5565b610e556000801b83612803565b8173ffffffffffffffffffffffffffffffffffffffff167f3137a7fedbfedb7895dfa5a6812a4566dae9ded68d00aeec13c6ed1fa84a1c8060405160405180910390a25050565b6000806000838152602001908152602001600020600101549050919050565b60076020528160005260406000208181548110610ed757600080fd5b906000526020600020906002020160009150915050806000018054610efb90614119565b80601f0160208091040260200160405190810160405280929190818152602001828054610f2790614119565b8015610f745780601f10610f4957610100808354040283529160200191610f74565b820191906000526020600020905b815481529060010190602001808311610f5757829003601f168201915b5050505050908060010154905082565b610f8d82610e9c565b610f96816127ef565b610fa0838361270f565b505050565b610fad6128e4565b73ffffffffffffffffffffffffffffffffffffffff168173ffffffffffffffffffffffffffffffffffffffff161461101a576040517f08c379a0000000000000000000000000000000000000000000000000000000008152600401611011906141bc565b60405180910390fd5b6110248282612803565b5050565b6000801b611035816127ef565b61103d6128ec565b611045612935565b50565b60066020528060005260406000206000915054906101000a900460ff1681565b60606003805480602002602001604051908101604052809291908181526020016000905b828210156112f2578382906000526020600020906008020160405180610120016040529081600082015481526020016001820180546110ca90614119565b80601f01602080910402602001604051908101604052809291908181526020018280546110f690614119565b80156111435780601f1061111857610100808354040283529160200191611143565b820191906000526020600020905b81548152906001019060200180831161112657829003601f168201915b5050505050815260200160028201805461115c90614119565b80601f016020809104026020016040519081016040528092919081815260200182805461118890614119565b80156111d55780601f106111aa576101008083540402835291602001916111d5565b820191906000526020600020905b8154815290600101906020018083116111b857829003601f168201915b505050505081526020016003820160009054906101000a900460ff16600181111561120357611202613351565b5b600181111561121557611214613351565b5b81526020016003820160019054906101000a900473ffffffffffffffffffffffffffffffffffffffff1673ffffffffffffffffffffffffffffffffffffffff1673ffffffffffffffffffffffffffffffffffffffff1681526020016004820160009054906101000a900473ffffffffffffffffffffffffffffffffffffffff1673ffffffffffffffffffffffffffffffffffffffff1673ffffffffffffffffffffffffffffffffffffffff16815260200160058201548152602001600682015481526020016007820154815250508152602001906001019061108c565b50505050905090565b6060600560008373ffffffffffffffffffffffffffffffffffffffff1673ffffffffffffffffffffffffffffffffffffffff16815260200190815260200160002080548060200260200160405190810160405280929190818152602001828054801561138657602002820191906000526020600020905b815481526020019060010190808311611372575b50505050509050919050565b7f73fd536265c26e6e13263018bc9d82a9b962a7857ae70dac847fd743f5e7153581565b6113be612ce8565b6000821180156113d357506003805490508211155b611412576040517f08c379a000000000000000000000000000000000000000000000000000000000815260040161140990613e59565b60405180910390fd5b60036001836114219190613ea8565b8154811061143257611431613dde565b5b9060005260206000209060080201604051806101200160405290816000820154815260200160018201805461146690614119565b80601f016020809104026020016040519081016040528092919081815260200182805461149290614119565b80156114df5780601f106114b4576101008083540402835291602001916114df565b820191906000526020600020905b8154815290600101906020018083116114c257829003601f168201915b505050505081526020016002820180546114f890614119565b80601f016020809104026020016040519081016040528092919081815260200182805461152490614119565b80156115715780601f1061154657610100808354040283529160200191611571565b820191906000526020600020905b81548152906001019060200180831161155457829003601f168201915b505050505081526020016003820160009054906101000a900460ff16600181111561159f5761159e613351565b5b60018111156115b1576115b0613351565b5b81526020016003820160019054906101000a900473ffffffffffffffffffffffffffffffffffffffff1673ffffffffffffffffffffffffffffffffffffffff1673ffffffffffffffffffffffffffffffffffffffff1681526020016004820160009054906101000a900473ffffffffffffffffffffffffffffffffffffffff1673ffffffffffffffffffffffffffffffffffffffff1673ffffffffffffffffffffffffffffffffffffffff16815260200160058201548152602001600682015481526020016007820154815250509050919050565b6000600160009054906101000a900460ff16905090565b60008251116116e1576040517f08c379a00000000000000000000000000000000000000000000000000000000081526004016116d890614228565b60405180910390fd5b6000815111611725576040517f08c379a000000000000000000000000000000000000000000000000000000000815260040161171c90614294565b60405180910390fd5b6000600860003373ffffffffffffffffffffffffffffffffffffffff1673ffffffffffffffffffffffffffffffffffffffff1681526020019081526020016000209050828160000190816117799190614460565b508181600101908161178b9190614460565b503373ffffffffffffffffffffffffffffffffffffffff167faec515a4e0346428fa81029bfca4d247e09e27360420ed245537ea4a499ab09e84846040516117d4929190613874565b60405180910390a2505050565b606080600073ffffffffffffffffffffffffffffffffffffffff168373ffffffffffffffffffffffffffffffffffffffff1603611853576040517f08c379a000000000000000000000000000000000000000000000000000000000815260040161184a9061457e565b60405180910390fd5b6000600860008573ffffffffffffffffffffffffffffffffffffffff1673ffffffffffffffffffffffffffffffffffffffff1681526020019081526020016000206040518060400160405290816000820180546118af90614119565b80601f01602080910402602001604051908101604052809291908181526020018280546118db90614119565b80156119285780601f106118fd57610100808354040283529160200191611928565b820191906000526020600020905b81548152906001019060200180831161190b57829003601f168201915b5050505050815260200160018201805461194190614119565b80601f016020809104026020016040519081016040528092919081815260200182805461196d90614119565b80156119ba5780601f1061198f576101008083540402835291602001916119ba565b820191906000526020600020905b81548152906001019060200180831161199d57829003601f168201915b505050505081525050905060008160000151511180156119df57506000816020015151115b611a1e576040517f08c379a0000000000000000000000000000000000000000000000000000000008152600401611a15906145ea565b60405180910390fd5b806000015181602001519250925050915091565b6000801b611a3f816127ef565b611a476126c5565b611a546000801b8361270f565b8173ffffffffffffffffffffffffffffffffffffffff167f2dbe9fb88463d989acccabbb6ee06901f83672eb78e04a11ff48dd8f69a27cda60405160405180910390a25050565b60006009600081548110611ab257611ab1613dde565b5b9060005260206000200160009054906101000a900473ffffffffffffffffffffffffffffffffffffffff16905090565b600c5481565b6000801b611af5816127ef565b611afd6126c5565b611b05612998565b50565b6060600460008373ffffffffffffffffffffffffffffffffffffffff1673ffffffffffffffffffffffffffffffffffffffff168152602001908152602001600020805480602002602001604051908101604052809291908181526020018280548015611b9357602002820191906000526020600020905b815481526020019060010190808311611b7f575b50505050509050919050565b6000801b611bac816127ef565b60008210158015611bbf57506103e88211155b611bfe576040517f08c379a0000000000000000000000000000000000000000000000000000000008152600401611bf590614656565b60405180910390fd5b81600c819055505050565b600080600084815260200190815260200160002060000160008373ffffffffffffffffffffffffffffffffffffffff1673ffffffffffffffffffffffffffffffffffffffff16815260200190815260200160002060009054906101000a900460ff16905092915050565b600a60009054906101000a900473ffffffffffffffffffffffffffffffffffffffff1681565b600b5481565b6000801b81565b6000801b611cb3816127ef565b6000600660008473ffffffffffffffffffffffffffffffffffffffff1673ffffffffffffffffffffffffffffffffffffffff16815260200190815260200160002060006101000a81548160ff0219169083151502179055505050565b600073ffffffffffffffffffffffffffffffffffffffff168373ffffffffffffffffffffffffffffffffffffffff1603611d7e576040517f08c379a0000000000000000000000000000000000000000000000000000000008152600401611d75906146e8565b60405180910390fd5b6000825111611dc2576040517f08c379a0000000000000000000000000000000000000000000000000000000008152600401611db990614754565b60405180910390fd5b60008111611e05576040517f08c379a0000000000000000000000000000000000000000000000000000000008152600401611dfc906147e6565b60405180910390fd5b3373ffffffffffffffffffffffffffffffffffffffff168373ffffffffffffffffffffffffffffffffffffffff1603611e73576040517f08c379a0000000000000000000000000000000000000000000000000000000008152600401611e6a90614878565b60405180910390fd5b6000805b8351811015611eb957838181518110611e9357611e92613dde565b5b60200260200101516020015182611eaa9190614898565b91508080600101915050611e77565b506064811115611efe576040517f08c379a0000000000000000000000000000000000000000000000000000000008152600401611ef59061493e565b60405180910390fd5b6000604051806101200160405280600254815260200188815260200187815260200160006001811115611f3457611f33613351565b5b81526020013373ffffffffffffffffffffffffffffffffffffffff1681526020018673ffffffffffffffffffffffffffffffffffffffff16815260200184815260200160008152602001611f866125c0565b815250905060005b8451811015612055576007600060025481526020019081526020016000206040518060400160405280878481518110611fca57611fc9613dde565b5b6020026020010151600001518152602001878481518110611fee57611fed613dde565b5b6020026020010151602001518152509080600181540180825580915050600190039060005260206000209060020201600090919091909150600082015181600001908161203b9190614460565b506020820151816001015550508080600101915050611f8e565b5060038190806001815401808255809150506001900390600052602060002090600802016000909190919091506000820151816000015560208201518160010190816120a19190614460565b5060408201518160020190816120b79190614460565b5060608201518160030160006101000a81548160ff021916908360018111156120e3576120e2613351565b5b021790555060808201518160030160016101000a81548173ffffffffffffffffffffffffffffffffffffffff021916908373ffffffffffffffffffffffffffffffffffffffff16021790555060a08201518160040160006101000a81548173ffffffffffffffffffffffffffffffffffffffff021916908373ffffffffffffffffffffffffffffffffffffffff16021790555060c0820151816005015560e0820151816006015561010082015181600701555050600460003373ffffffffffffffffffffffffffffffffffffffff1673ffffffffffffffffffffffffffffffffffffffff1681526020019081526020016000206002549080600181540180825580915050600190039060005260206000200160009091909190915055600560008673ffffffffffffffffffffffffffffffffffffffff1673ffffffffffffffffffffffffffffffffffffffff16815260200190815260200160002060025490806001815401808255809150506001900390600052602060002001600090919091909150558473ffffffffffffffffffffffffffffffffffffffff163373ffffffffffffffffffffffffffffffffffffffff167f4969d8f058da37f5b596425a39904e9a027ac23d1865d6efd5df5a5e24eef7de600254866040516122c89291906140c1565b60405180910390a3600260008154809291906122e39061495e565b919050555050505050505050565b606060076000838152602001908152602001600020805480602002602001604051908101604052809291908181526020016000905b828210156123f4578382906000526020600020906002020160405180604001604052908160008201805461235990614119565b80601f016020809104026020016040519081016040528092919081815260200182805461238590614119565b80156123d25780601f106123a7576101008083540402835291602001916123d2565b820191906000526020600020905b8154815290600101906020018083116123b557829003601f168201915b5050505050815260200160018201548152505081526020019060010190612326565b505050509050919050565b6003818154811061240f57600080fd5b906000526020600020906008020160009150905080600001549080600101805461243890614119565b80601f016020809104026020016040519081016040528092919081815260200182805461246490614119565b80156124b15780601f10612486576101008083540402835291602001916124b1565b820191906000526020600020905b81548152906001019060200180831161249457829003601f168201915b5050505050908060020180546124c690614119565b80601f01602080910402602001604051908101604052809291908181526020018280546124f290614119565b801561253f5780601f106125145761010080835404028352916020019161253f565b820191906000526020600020905b81548152906001019060200180831161252257829003601f168201915b5050505050908060030160009054906101000a900460ff16908060030160019054906101000a900473ffffffffffffffffffffffffffffffffffffffff16908060040160009054906101000a900473ffffffffffffffffffffffffffffffffffffffff16908060050154908060060154908060070154905089565b60025481565b6000600c54905090565b6125d382610e9c565b6125dc816127ef565b6125e68383612803565b505050565b600981815481106125fb57600080fd5b906000526020600020016000915054906101000a900473ffffffffffffffffffffffffffffffffffffffff1681565b6004602052816000526040600020818154811061264657600080fd5b90600052602060002001600091509150505481565b60007f01ffc9a7000000000000000000000000000000000000000000000000000000007bffffffffffffffffffffffffffffffffffffffffffffffffffffffff1916827bffffffffffffffffffffffffffffffffffffffffffffffffffffffff1916149050919050565b6126cd611686565b1561270d576040517f08c379a0000000000000000000000000000000000000000000000000000000008152600401612704906149f2565b60405180910390fd5b565b6127198282611c09565b6127eb57600160008084815260200190815260200160002060000160008373ffffffffffffffffffffffffffffffffffffffff1673ffffffffffffffffffffffffffffffffffffffff16815260200190815260200160002060006101000a81548160ff0219169083151502179055506127906128e4565b73ffffffffffffffffffffffffffffffffffffffff168173ffffffffffffffffffffffffffffffffffffffff16837f2f8788117e7eff1d82e926ec794901d17c78024a50270940304540a733656f0d60405160405180910390a45b5050565b612800816127fb6128e4565b6129fa565b50565b61280d8282611c09565b156128e057600080600084815260200190815260200160002060000160008373ffffffffffffffffffffffffffffffffffffffff1673ffffffffffffffffffffffffffffffffffffffff16815260200190815260200160002060006101000a81548160ff0219169083151502179055506128856128e4565b73ffffffffffffffffffffffffffffffffffffffff168173ffffffffffffffffffffffffffffffffffffffff16837ff6391f5c32d9c69d2a47ea670b442974b53935d1edc7fd64eb21e047a839171b60405160405180910390a45b5050565b600033905090565b6128f4611686565b612933576040517f08c379a000000000000000000000000000000000000000000000000000000000815260040161292a90614a5e565b60405180910390fd5b565b61293d6128ec565b6000600160006101000a81548160ff0219169083151502179055507f5db9ee0a495bf2e6ff9c91a7834c1ba4fdd244a5e8aa4e537bd38aeae4b073aa6129816128e4565b60405161298e91906138ba565b60405180910390a1565b6129a06126c5565b60018060006101000a81548160ff0219169083151502179055507f62e78cea01bee320cd4e420270b5ea74000d11b0c9f74754ebdbfc544b05a2586129e36128e4565b6040516129f091906138ba565b60405180910390a1565b612a048282611c09565b612a7b57612a1181612a7f565b612a1f8360001c6020612aac565b604051602001612a30929190614b52565b6040516020818303038152906040526040517f08c379a0000000000000000000000000000000000000000000000000000000008152600401612a729190614b8c565b60405180910390fd5b5050565b6060612aa58273ffffffffffffffffffffffffffffffffffffffff16601460ff16612aac565b9050919050565b606060006002836002612abf9190614bae565b612ac99190614898565b67ffffffffffffffff811115612ae257612ae1612e8b565b5b6040519080825280601f01601f191660200182016040528015612b145781602001600182028036833780820191505090505b5090507f300000000000000000000000000000000000000000000000000000000000000081600081518110612b4c57612b4b613dde565b5b60200101907effffffffffffffffffffffffffffffffffffffffffffffffffffffffffffff1916908160001a9053507f780000000000000000000000000000000000000000000000000000000000000081600181518110612bb057612baf613dde565b5b60200101907effffffffffffffffffffffffffffffffffffffffffffffffffffffffffffff1916908160001a90535060006001846002612bf09190614bae565b612bfa9190614898565b90505b6001811115612c9a577f3031323334353637383961626364656600000000000000000000000000000000600f861660108110612c3c57612c3b613dde565b5b1a60f81b828281518110612c5357612c52613dde565b5b60200101907effffffffffffffffffffffffffffffffffffffffffffffffffffffffffffff1916908160001a905350600485901c945080612c9390614bf0565b9050612bfd565b5060008414612cde576040517f08c379a0000000000000000000000000000000000000000000000000000000008152600401612cd590614c65565b60405180910390fd5b8091505092915050565b60405180610120016040528060008152602001606081526020016060815260200160006001811115612d1d57612d1c613351565b5b8152602001600073ffffffffffffffffffffffffffffffffffffffff168152602001600073ffffffffffffffffffffffffffffffffffffffff1681526020016000815260200160008152602001600081525090565b6000819050919050565b612d8581612d72565b82525050565b6000602082019050612da06000830184612d7c565b92915050565b6000604051905090565b600080fd5b600080fd5b60007fffffffff0000000000000000000000000000000000000000000000000000000082169050919050565b612def81612dba565b8114612dfa57600080fd5b50565b600081359050612e0c81612de6565b92915050565b600060208284031215612e2857612e27612db0565b5b6000612e3684828501612dfd565b91505092915050565b60008115159050919050565b612e5481612e3f565b82525050565b6000602082019050612e6f6000830184612e4b565b92915050565b600080fd5b6000601f19601f8301169050919050565b7f4e487b7100000000000000000000000000000000000000000000000000000000600052604160045260246000fd5b612ec382612e7a565b810181811067ffffffffffffffff82111715612ee257612ee1612e8b565b5b80604052505050565b6000612ef5612da6565b9050612f018282612eba565b919050565b600067ffffffffffffffff821115612f2157612f20612e8b565b5b602082029050602081019050919050565b600080fd5b612f4081612d72565b8114612f4b57600080fd5b50565b600081359050612f5d81612f37565b92915050565b6000612f76612f7184612f06565b612eeb565b90508083825260208201905060208402830185811115612f9957612f98612f32565b5b835b81811015612fc25780612fae8882612f4e565b845260208401935050602081019050612f9b565b5050509392505050565b600082601f830112612fe157612fe0612e75565b5b8135612ff1848260208601612f63565b91505092915050565b600073ffffffffffffffffffffffffffffffffffffffff82169050919050565b600061302582612ffa565b9050919050565b6130358161301a565b811461304057600080fd5b50565b6000813590506130528161302c565b92915050565b60008060006060848603121561307157613070612db0565b5b600084013567ffffffffffffffff81111561308f5761308e612db5565b5b61309b86828701612fcc565b935050602084013567ffffffffffffffff8111156130bc576130bb612db5565b5b6130c886828701612fcc565b92505060406130d986828701613043565b9150509250925092565b6000602082840312156130f9576130f8612db0565b5b600061310784828501613043565b91505092915050565b6000819050919050565b61312381613110565b811461312e57600080fd5b50565b6000813590506131408161311a565b92915050565b60006020828403121561315c5761315b612db0565b5b600061316a84828501613131565b91505092915050565b61317c81613110565b82525050565b60006020820190506131976000830184613173565b92915050565b600080604083850312156131b4576131b3612db0565b5b60006131c285828601612f4e565b92505060206131d385828601612f4e565b9150509250929050565b600081519050919050565b600082825260208201905092915050565b60005b838110156132175780820151818401526020810190506131fc565b60008484015250505050565b600061322e826131dd565b61323881856131e8565b93506132488185602086016131f9565b61325181612e7a565b840191505092915050565b600060408201905081810360008301526132768185613223565b90506132856020830184612d7c565b9392505050565b600080604083850312156132a3576132a2612db0565b5b60006132b185828601613131565b92505060206132c285828601613043565b9150509250929050565b600081519050919050565b600082825260208201905092915050565b6000819050602082019050919050565b61330181612d72565b82525050565b600082825260208201905092915050565b6000613323826131dd565b61332d8185613307565b935061333d8185602086016131f9565b61334681612e7a565b840191505092915050565b7f4e487b7100000000000000000000000000000000000000000000000000000000600052602160045260246000fd5b6002811061339157613390613351565b5b50565b60008190506133a282613380565b919050565b60006133b282613394565b9050919050565b6133c2816133a7565b82525050565b6133d18161301a565b82525050565b6000610120830160008301516133f060008601826132f8565b50602083015184820360208601526134088282613318565b915050604083015184820360408601526134228282613318565b915050606083015161343760608601826133b9565b50608083015161344a60808601826133c8565b5060a083015161345d60a08601826133c8565b5060c083015161347060c08601826132f8565b5060e083015161348360e08601826132f8565b506101008301516134986101008601826132f8565b508091505092915050565b60006134af83836133d7565b905092915050565b6000602082019050919050565b60006134cf826132cc565b6134d981856132d7565b9350836020820285016134eb856132e8565b8060005b85811015613527578484038952815161350885826134a3565b9450613513836134b7565b925060208a019950506001810190506134ef565b50829750879550505050505092915050565b6000602082019050818103600083015261355381846134c4565b905092915050565b600081519050919050565b600082825260208201905092915050565b6000819050602082019050919050565b600061359383836132f8565b60208301905092915050565b6000602082019050919050565b60006135b78261355b565b6135c18185613566565b93506135cc83613577565b8060005b838110156135fd5781516135e48882613587565b97506135ef8361359f565b9250506001810190506135d0565b5085935050505092915050565b6000602082019050818103600083015261362481846135ac565b905092915050565b60006020828403121561364257613641612db0565b5b600061365084828501612f4e565b91505092915050565b60006101208301600083015161367260008601826132f8565b506020830151848203602086015261368a8282613318565b915050604083015184820360408601526136a48282613318565b91505060608301516136b960608601826133b9565b5060808301516136cc60808601826133c8565b5060a08301516136df60a08601826133c8565b5060c08301516136f260c08601826132f8565b5060e083015161370560e08601826132f8565b5061010083015161371a6101008601826132f8565b508091505092915050565b6000602082019050818103600083015261373f8184613659565b905092915050565b600080fd5b600067ffffffffffffffff82111561376757613766612e8b565b5b61377082612e7a565b9050602081019050919050565b82818337600083830152505050565b600061379f61379a8461374c565b612eeb565b9050828152602081018484840111156137bb576137ba613747565b5b6137c684828561377d565b509392505050565b600082601f8301126137e3576137e2612e75565b5b81356137f384826020860161378c565b91505092915050565b6000806040838503121561381357613812612db0565b5b600083013567ffffffffffffffff81111561383157613830612db5565b5b61383d858286016137ce565b925050602083013567ffffffffffffffff81111561385e5761385d612db5565b5b61386a858286016137ce565b9150509250929050565b6000604082019050818103600083015261388e8185613223565b905081810360208301526138a28184613223565b90509392505050565b6138b48161301a565b82525050565b60006020820190506138cf60008301846138ab565b92915050565b600067ffffffffffffffff8211156138f0576138ef612e8b565b5b602082029050602081019050919050565b600080fd5b600080fd5b60006040828403121561392157613920613901565b5b61392b6040612eeb565b9050600082013567ffffffffffffffff81111561394b5761394a613906565b5b613957848285016137ce565b600083015250602061396b84828501612f4e565b60208301525092915050565b600061398a613985846138d5565b612eeb565b905080838252602082019050602084028301858111156139ad576139ac612f32565b5b835b818110156139f457803567ffffffffffffffff8111156139d2576139d1612e75565b5b8086016139df898261390b565b855260208501945050506020810190506139af565b5050509392505050565b600082601f830112613a1357613a12612e75565b5b8135613a23848260208601613977565b91505092915050565b600080600080600060a08688031215613a4857613a47612db0565b5b600086013567ffffffffffffffff811115613a6657613a65612db5565b5b613a72888289016137ce565b955050602086013567ffffffffffffffff811115613a9357613a92612db5565b5b613a9f888289016137ce565b9450506040613ab088828901613043565b935050606086013567ffffffffffffffff811115613ad157613ad0612db5565b5b613add888289016139fe565b9250506080613aee88828901612f4e565b9150509295509295909350565b600081519050919050565b600082825260208201905092915050565b6000819050602082019050919050565b60006040830160008301518482036000860152613b448282613318565b9150506020830151613b5960208601826132f8565b508091505092915050565b6000613b708383613b27565b905092915050565b6000602082019050919050565b6000613b9082613afb565b613b9a8185613b06565b935083602082028501613bac85613b17565b8060005b85811015613be85784840389528151613bc98582613b64565b9450613bd483613b78565b925060208a01995050600181019050613bb0565b50829750879550505050505092915050565b60006020820190508181036000830152613c148184613b85565b905092915050565b613c25816133a7565b82525050565b600061012082019050613c41600083018c612d7c565b8181036020830152613c53818b613223565b90508181036040830152613c67818a613223565b9050613c766060830189613c1c565b613c8360808301886138ab565b613c9060a08301876138ab565b613c9d60c0830186612d7c565b613caa60e0830185612d7c565b613cb8610100830184612d7c565b9a9950505050505050505050565b60008060408385031215613cdd57613cdc612db0565b5b6000613ceb85828601613043565b9250506020613cfc85828601612f4e565b9150509250929050565b7f417272617973206c656e677468206d69736d6174636800000000000000000000600082015250565b6000613d3c6016836131e8565b9150613d4782613d06565b602082019050919050565b60006020820190508181036000830152613d6b81613d2f565b9050919050565b7f496e76616c6964207061796d656e7420746f6b656e0000000000000000000000600082015250565b6000613da86015836131e8565b9150613db382613d72565b602082019050919050565b60006020820190508181036000830152613dd781613d9b565b9050919050565b7f4e487b7100000000000000000000000000000000000000000000000000000000600052603260045260246000fd5b7f496e76616c69642061677265656d656e74204944000000000000000000000000600082015250565b6000613e436014836131e8565b9150613e4e82613e0d565b602082019050919050565b60006020820190508181036000830152613e7281613e36565b9050919050565b7f4e487b7100000000000000000000000000000000000000000000000000000000600052601160045260246000fd5b6000613eb382612d72565b9150613ebe83612d72565b9250828203905081811115613ed657613ed5613e79565b5b92915050565b7f4e487b7100000000000000000000000000000000000000000000000000000000600052601260045260246000fd5b6000604082019050613f2060008301856138ab565b613f2d60208301846138ab565b9392505050565b600081519050613f4381612f37565b92915050565b600060208284031215613f5f57613f5e612db0565b5b6000613f6d84828501613f34565b91505092915050565b7f55736572206d75737420617070726f76652074686520616d6f756e74206f662060008201527f7468652061677265656d656e7400000000000000000000000000000000000000602082015250565b6000613fd2602d836131e8565b9150613fdd82613f76565b604082019050919050565b6000602082019050818103600083015261400181613fc5565b9050919050565b600060608201905061401d60008301866138ab565b61402a60208301856138ab565b6140376040830184612d7c565b949350505050565b61404881612e3f565b811461405357600080fd5b50565b6000815190506140658161403f565b92915050565b60006020828403121561408157614080612db0565b5b600061408f84828501614056565b91505092915050565b60006040820190506140ad60008301856138ab565b6140ba6020830184612d7c565b9392505050565b60006040820190506140d66000830185612d7c565b6140e36020830184612d7c565b9392505050565b7f4e487b7100000000000000000000000000000000000000000000000000000000600052602260045260246000fd5b6000600282049050600182168061413157607f821691505b602082108103614144576141436140ea565b5b50919050565b7f416363657373436f6e74726f6c3a2063616e206f6e6c792072656e6f756e636560008201527f20726f6c657320666f722073656c660000000000000000000000000000000000602082015250565b60006141a6602f836131e8565b91506141b18261414a565b604082019050919050565b600060208201905081810360008301526141d581614199565b9050919050565b7f4e616d6520697320726571756972656400000000000000000000000000000000600082015250565b60006142126010836131e8565b915061421d826141dc565b602082019050919050565b6000602082019050818103600083015261424181614205565b9050919050565b7f54617820646f63756d656e742069732072657175697265640000000000000000600082015250565b600061427e6018836131e8565b915061428982614248565b602082019050919050565b600060208201905081810360008301526142ad81614271565b9050919050565b60008190508160005260206000209050919050565b60006020601f8301049050919050565b600082821b905092915050565b6000600883026143167fffffffffffffffffffffffffffffffffffffffffffffffffffffffffffffffff826142d9565b61432086836142d9565b95508019841693508086168417925050509392505050565b6000819050919050565b600061435d61435861435384612d72565b614338565b612d72565b9050919050565b6000819050919050565b61437783614342565b61438b61438382614364565b8484546142e6565b825550505050565b600090565b6143a0614393565b6143ab81848461436e565b505050565b5b818110156143cf576143c4600082614398565b6001810190506143b1565b5050565b601f821115614414576143e5816142b4565b6143ee846142c9565b810160208510156143fd578190505b614411614409856142c9565b8301826143b0565b50505b505050565b600082821c905092915050565b600061443760001984600802614419565b1980831691505092915050565b60006144508383614426565b9150826002028217905092915050565b614469826131dd565b67ffffffffffffffff81111561448257614481612e8b565b5b61448c8254614119565b6144978282856143d3565b600060209050601f8311600181146144ca57600084156144b8578287015190505b6144c28582614444565b86555061452a565b601f1984166144d8866142b4565b60005b82811015614500578489015182556001820191506020850194506020810190506144db565b8683101561451d5784890151614519601f891682614426565b8355505b6001600288020188555050505b505050505050565b7f496e76616c696420616464726573730000000000000000000000000000000000600082015250565b6000614568600f836131e8565b915061457382614532565b602082019050919050565b600060208201905081810360008301526145978161455b565b9050919050565b7f5573657220646f6573206e6f7420657869737400000000000000000000000000600082015250565b60006145d46013836131e8565b91506145df8261459e565b602082019050919050565b60006020820190508181036000830152614603816145c7565b9050919050565b7f496e76616c6964206b796f646f20747265617375727920666565000000000000600082015250565b6000614640601a836131e8565b915061464b8261460a565b602082019050919050565b6000602082019050818103600083015261466f81614633565b9050919050565b7f50726f66657373696f6e616c20616464726573732063616e6e6f74206265207a60008201527f65726f0000000000000000000000000000000000000000000000000000000000602082015250565b60006146d26023836131e8565b91506146dd82614676565b604082019050919050565b60006020820190508181036000830152614701816146c5565b9050919050565b7f536b696c6c73206d757374206e6f7420626520656d7074790000000000000000600082015250565b600061473e6018836131e8565b915061474982614708565b602082019050919050565b6000602082019050818103600083015261476d81614731565b9050919050565b7f5061796d656e7420616d6f756e74206d7573742062652067726561746572207460008201527f68616e207a65726f000000000000000000000000000000000000000000000000602082015250565b60006147d06028836131e8565b91506147db82614774565b604082019050919050565b600060208201905081810360008301526147ff816147c3565b9050919050565b7f50726f66657373696f6e616c20616464726573732063616e6e6f74206265207460008201527f68652073616d6520617320636f6d70616e790000000000000000000000000000602082015250565b60006148626032836131e8565b915061486d82614806565b604082019050919050565b6000602082019050818103600083015261489181614855565b9050919050565b60006148a382612d72565b91506148ae83612d72565b92508282019050808211156148c6576148c5613e79565b5b92915050565b7f546f74616c20736b696c6c206c6576656c2063616e6e6f74206578636565642060008201527f3130300000000000000000000000000000000000000000000000000000000000602082015250565b60006149286023836131e8565b9150614933826148cc565b604082019050919050565b600060208201905081810360008301526149578161491b565b9050919050565b600061496982612d72565b91507fffffffffffffffffffffffffffffffffffffffffffffffffffffffffffffffff820361499b5761499a613e79565b5b600182019050919050565b7f5061757361626c653a2070617573656400000000000000000000000000000000600082015250565b60006149dc6010836131e8565b91506149e7826149a6565b602082019050919050565b60006020820190508181036000830152614a0b816149cf565b9050919050565b7f5061757361626c653a206e6f7420706175736564000000000000000000000000600082015250565b6000614a486014836131e8565b9150614a5382614a12565b602082019050919050565b60006020820190508181036000830152614a7781614a3b565b9050919050565b600081905092915050565b7f416363657373436f6e74726f6c3a206163636f756e7420000000000000000000600082015250565b6000614abf601783614a7e565b9150614aca82614a89565b601782019050919050565b6000614ae0826131dd565b614aea8185614a7e565b9350614afa8185602086016131f9565b80840191505092915050565b7f206973206d697373696e6720726f6c6520000000000000000000000000000000600082015250565b6000614b3c601183614a7e565b9150614b4782614b06565b601182019050919050565b6000614b5d82614ab2565b9150614b698285614ad5565b9150614b7482614b2f565b9150614b808284614ad5565b91508190509392505050565b60006020820190508181036000830152614ba68184613223565b905092915050565b6000614bb982612d72565b9150614bc483612d72565b9250828202614bd281612d72565b91508282048414831517614be957614be8613e79565b5b5092915050565b6000614bfb82612d72565b915060008203614c0e57614c0d613e79565b5b600182039050919050565b7f537472696e67733a20686578206c656e67746820696e73756666696369656e74600082015250565b6000614c4f6020836131e8565b9150614c5a82614c19565b602082019050919050565b60006020820190508181036000830152614c7e81614c42565b905091905056fea264697066735822122042c97ff1d1bc816ffa761b2f6dcc0bc8903211f391779eca57247ec8f8828bee64736f6c63430008170033",
  "linkReferences": {},
  "deployedLinkReferences": {}
}