{
  "_format": "hh-sol-artifact-1",
  "contractName": "AgreementContract",
  "sourceName": "contracts/AgreementContract.sol",
  "abi": [
    {
      "inputs": [
        {
          "internalType": "address",
          "name": "_kyodoTreasury",
          "type": "address"
        },
        {
          "internalType": "address",
          "name": "_communityDAO",
          "type": "address"
        },
        {
          "internalType": "address",
          "name": "admin",
          "type": "address"
        },
        {
          "internalType": "address",
          "name": "_router",
          "type": "address"
        },
        {
          "internalType": "address",
          "name": "_link",
          "type": "address"
        },
        {
          "internalType": "uint64",
          "name": "chainSelector",
          "type": "uint64"
        },
        {
          "internalType": "address",
          "name": "_stableVaultAddress",
          "type": "address"
        },
        {
          "internalType": "uint256[]",
          "name": "chainList",
          "type": "uint256[]"
        },
        {
          "internalType": "uint64[]",
          "name": "_chainSelectors",
          "type": "uint64[]"
        }
      ],
      "stateMutability": "nonpayable",
      "type": "constructor"
    },
    {
      "inputs": [],
      "name": "AccessControlBadConfirmation",
      "type": "error"
    },
    {
      "inputs": [
        {
          "internalType": "address",
          "name": "account",
          "type": "address"
        },
        {
          "internalType": "bytes32",
          "name": "neededRole",
          "type": "bytes32"
        }
      ],
      "name": "AccessControlUnauthorizedAccount",
      "type": "error"
    },
    {
      "inputs": [
        {
          "internalType": "uint64",
          "name": "destinationChainSelector",
          "type": "uint64"
        }
      ],
      "name": "DestinationChainNotWhitelisted",
      "type": "error"
    },
    {
      "inputs": [],
      "name": "EnforcedPause",
      "type": "error"
    },
    {
      "inputs": [],
      "name": "ExpectedPause",
      "type": "error"
    },
    {
      "inputs": [
        {
          "internalType": "uint256",
          "name": "currentBalance",
          "type": "uint256"
        },
        {
          "internalType": "uint256",
          "name": "calculatedFees",
          "type": "uint256"
        }
      ],
      "name": "NotEnoughBalance",
      "type": "error"
    },
    {
      "inputs": [],
      "name": "NothingToWithdraw",
      "type": "error"
    },
    {
      "inputs": [
        {
          "internalType": "address",
          "name": "owner",
          "type": "address"
        }
      ],
      "name": "OwnableInvalidOwner",
      "type": "error"
    },
    {
      "inputs": [
        {
          "internalType": "address",
          "name": "account",
          "type": "address"
        }
      ],
      "name": "OwnableUnauthorizedAccount",
      "type": "error"
    },
    {
      "anonymous": false,
      "inputs": [
        {
          "indexed": true,
          "internalType": "address",
          "name": "company",
          "type": "address"
        },
        {
          "indexed": true,
          "internalType": "address",
          "name": "professional",
          "type": "address"
        },
        {
          "indexed": false,
          "internalType": "uint256",
          "name": "agreementId",
          "type": "uint256"
        },
        {
          "indexed": false,
          "internalType": "uint256",
          "name": "amount",
          "type": "uint256"
        }
      ],
      "name": "AgreementCreated",
      "type": "event"
    },
    {
      "anonymous": false,
      "inputs": [
        {
          "indexed": true,
          "internalType": "address",
          "name": "user",
          "type": "address"
        },
        {
          "indexed": false,
          "internalType": "uint256",
          "name": "chainId",
          "type": "uint256"
        }
      ],
      "name": "ChainPreferenceDefined",
      "type": "event"
    },
    {
      "anonymous": false,
      "inputs": [
        {
          "indexed": true,
          "internalType": "address",
          "name": "new_admin",
          "type": "address"
        }
      ],
      "name": "NewAdminAdded",
      "type": "event"
    },
    {
      "anonymous": false,
      "inputs": [
        {
          "indexed": true,
          "internalType": "address",
          "name": "profile",
          "type": "address"
        }
      ],
      "name": "NewProfileAdded",
      "type": "event"
    },
    {
      "anonymous": false,
      "inputs": [
        {
          "indexed": true,
          "internalType": "address",
          "name": "previousOwner",
          "type": "address"
        },
        {
          "indexed": true,
          "internalType": "address",
          "name": "newOwner",
          "type": "address"
        }
      ],
      "name": "OwnershipTransferred",
      "type": "event"
    },
    {
      "anonymous": false,
      "inputs": [
        {
          "indexed": false,
          "internalType": "address",
          "name": "account",
          "type": "address"
        }
      ],
      "name": "Paused",
      "type": "event"
    },
    {
      "anonymous": false,
      "inputs": [
        {
          "indexed": false,
          "internalType": "uint256",
          "name": "targetChain",
          "type": "uint256"
        },
        {
          "indexed": true,
          "internalType": "address",
          "name": "company",
          "type": "address"
        },
        {
          "indexed": true,
          "internalType": "address",
          "name": "professional",
          "type": "address"
        },
        {
          "indexed": false,
          "internalType": "uint256",
          "name": "agreementId",
          "type": "uint256"
        },
        {
          "indexed": false,
          "internalType": "uint256",
          "name": "amount",
          "type": "uint256"
        }
      ],
      "name": "PaymentMade",
      "type": "event"
    },
    {
      "anonymous": false,
      "inputs": [
        {
          "indexed": true,
          "internalType": "address",
          "name": "removed_admin",
          "type": "address"
        }
      ],
      "name": "RemovedAdmin",
      "type": "event"
    },
    {
      "anonymous": false,
      "inputs": [
        {
          "indexed": true,
          "internalType": "bytes32",
          "name": "role",
          "type": "bytes32"
        },
        {
          "indexed": true,
          "internalType": "bytes32",
          "name": "previousAdminRole",
          "type": "bytes32"
        },
        {
          "indexed": true,
          "internalType": "bytes32",
          "name": "newAdminRole",
          "type": "bytes32"
        }
      ],
      "name": "RoleAdminChanged",
      "type": "event"
    },
    {
      "anonymous": false,
      "inputs": [
        {
          "indexed": true,
          "internalType": "bytes32",
          "name": "role",
          "type": "bytes32"
        },
        {
          "indexed": true,
          "internalType": "address",
          "name": "account",
          "type": "address"
        },
        {
          "indexed": true,
          "internalType": "address",
          "name": "sender",
          "type": "address"
        }
      ],
      "name": "RoleGranted",
      "type": "event"
    },
    {
      "anonymous": false,
      "inputs": [
        {
          "indexed": true,
          "internalType": "bytes32",
          "name": "role",
          "type": "bytes32"
        },
        {
          "indexed": true,
          "internalType": "address",
          "name": "account",
          "type": "address"
        },
        {
          "indexed": true,
          "internalType": "address",
          "name": "sender",
          "type": "address"
        }
      ],
      "name": "RoleRevoked",
      "type": "event"
    },
    {
      "anonymous": false,
      "inputs": [
        {
          "indexed": true,
          "internalType": "bytes32",
          "name": "messageId",
          "type": "bytes32"
        },
        {
          "indexed": true,
          "internalType": "uint64",
          "name": "destinationChainSelector",
          "type": "uint64"
        },
        {
          "indexed": false,
          "internalType": "address",
          "name": "receiver",
          "type": "address"
        },
        {
          "indexed": false,
          "internalType": "address",
          "name": "token",
          "type": "address"
        },
        {
          "indexed": false,
          "internalType": "uint256",
          "name": "tokenAmount",
          "type": "uint256"
        },
        {
          "indexed": false,
          "internalType": "address",
          "name": "feeToken",
          "type": "address"
        },
        {
          "indexed": false,
          "internalType": "uint256",
          "name": "fees",
          "type": "uint256"
        }
      ],
      "name": "TokensTransferred",
      "type": "event"
    },
    {
      "anonymous": false,
      "inputs": [
        {
          "indexed": false,
          "internalType": "address",
          "name": "account",
          "type": "address"
        }
      ],
      "name": "Unpaused",
      "type": "event"
    },
    {
      "inputs": [],
      "name": "CHANGE_PARAMETERS",
      "outputs": [
        {
          "internalType": "bytes32",
          "name": "",
          "type": "bytes32"
        }
      ],
      "stateMutability": "view",
      "type": "function"
    },
    {
      "inputs": [],
      "name": "DEFAULT_ADMIN_ROLE",
      "outputs": [
        {
          "internalType": "bytes32",
          "name": "",
          "type": "bytes32"
        }
      ],
      "stateMutability": "view",
      "type": "function"
    },
    {
      "inputs": [],
      "name": "StableVault",
      "outputs": [
        {
          "internalType": "contract IStableVault",
          "name": "",
          "type": "address"
        }
      ],
      "stateMutability": "view",
      "type": "function"
    },
    {
      "inputs": [
        {
          "internalType": "address",
          "name": "",
          "type": "address"
        }
      ],
      "name": "acceptedPaymentTokens",
      "outputs": [
        {
          "internalType": "bool",
          "name": "",
          "type": "bool"
        }
      ],
      "stateMutability": "view",
      "type": "function"
    },
    {
      "inputs": [
        {
          "internalType": "address",
          "name": "_tokenAddress",
          "type": "address"
        }
      ],
      "name": "addAcceptedPaymentToken",
      "outputs": [],
      "stateMutability": "nonpayable",
      "type": "function"
    },
    {
      "inputs": [
        {
          "internalType": "address",
          "name": "account",
          "type": "address"
        }
      ],
      "name": "addAdmin",
      "outputs": [],
      "stateMutability": "nonpayable",
      "type": "function"
    },
    {
      "inputs": [
        {
          "internalType": "address",
          "name": "account",
          "type": "address"
        }
      ],
      "name": "addProfile",
      "outputs": [],
      "stateMutability": "nonpayable",
      "type": "function"
    },
    {
      "inputs": [
        {
          "internalType": "uint256",
          "name": "",
          "type": "uint256"
        },
        {
          "internalType": "uint256",
          "name": "",
          "type": "uint256"
        }
      ],
      "name": "agreementSkills",
      "outputs": [
        {
          "internalType": "string",
          "name": "name",
          "type": "string"
        },
        {
          "internalType": "uint256",
          "name": "level",
          "type": "uint256"
        }
      ],
      "stateMutability": "view",
      "type": "function"
    },
    {
      "inputs": [
        {
          "internalType": "uint256",
          "name": "",
          "type": "uint256"
        }
      ],
      "name": "agreements",
      "outputs": [
        {
          "internalType": "uint256",
          "name": "id",
          "type": "uint256"
        },
        {
          "internalType": "string",
          "name": "title",
          "type": "string"
        },
        {
          "internalType": "string",
          "name": "description",
          "type": "string"
        },
        {
          "internalType": "enum IAgreementContract.AgreementStatus",
          "name": "status",
          "type": "uint8"
        },
        {
          "internalType": "address",
          "name": "company",
          "type": "address"
        },
        {
          "internalType": "address",
          "name": "professional",
          "type": "address"
        },
        {
          "internalType": "uint256",
          "name": "paymentAmount",
          "type": "uint256"
        },
        {
          "internalType": "uint256",
          "name": "totalPaid",
          "type": "uint256"
        }
      ],
      "stateMutability": "view",
      "type": "function"
    },
    {
      "inputs": [],
      "name": "communityDAO",
      "outputs": [
        {
          "internalType": "address",
          "name": "",
          "type": "address"
        }
      ],
      "stateMutability": "view",
      "type": "function"
    },
    {
      "inputs": [],
      "name": "communityDAOFee",
      "outputs": [
        {
          "internalType": "uint256",
          "name": "",
          "type": "uint256"
        }
      ],
      "stateMutability": "view",
      "type": "function"
    },
    {
      "inputs": [
        {
          "internalType": "address",
          "name": "",
          "type": "address"
        },
        {
          "internalType": "uint256",
          "name": "",
          "type": "uint256"
        }
      ],
      "name": "contractorAgreements",
      "outputs": [
        {
          "internalType": "uint256",
          "name": "",
          "type": "uint256"
        }
      ],
      "stateMutability": "view",
      "type": "function"
    },
    {
      "inputs": [
        {
          "internalType": "string",
          "name": "_title",
          "type": "string"
        },
        {
          "internalType": "string",
          "name": "_description",
          "type": "string"
        },
        {
          "internalType": "address",
          "name": "_professional",
          "type": "address"
        },
        {
          "components": [
            {
              "internalType": "string",
              "name": "name",
              "type": "string"
            },
            {
              "internalType": "uint256",
              "name": "level",
              "type": "uint256"
            }
          ],
          "internalType": "struct IAgreementContract.Skill[]",
          "name": "_skills",
          "type": "tuple[]"
        },
        {
          "internalType": "uint256",
          "name": "_paymentAmount",
          "type": "uint256"
        }
      ],
      "name": "createAgreement",
      "outputs": [],
      "stateMutability": "nonpayable",
      "type": "function"
    },
    {
      "inputs": [
        {
          "internalType": "uint256",
          "name": "",
          "type": "uint256"
        }
      ],
      "name": "crossChainCCIPConfigs",
      "outputs": [
        {
          "internalType": "uint64",
          "name": "chainSelector",
          "type": "uint64"
        },
        {
          "internalType": "address",
          "name": "vaultAddress",
          "type": "address"
        }
      ],
      "stateMutability": "view",
      "type": "function"
    },
    {
      "inputs": [
        {
          "internalType": "uint64",
          "name": "_destinationChainSelector",
          "type": "uint64"
        }
      ],
      "name": "denylistChain",
      "outputs": [],
      "stateMutability": "nonpayable",
      "type": "function"
    },
    {
      "inputs": [],
      "name": "feePercentage",
      "outputs": [
        {
          "internalType": "uint256",
          "name": "",
          "type": "uint256"
        }
      ],
      "stateMutability": "view",
      "type": "function"
    },
    {
      "inputs": [],
      "name": "getAcceptedPaymentTokens",
      "outputs": [
        {
          "internalType": "address",
          "name": "",
          "type": "address"
        }
      ],
      "stateMutability": "view",
      "type": "function"
    },
    {
      "inputs": [
        {
          "internalType": "uint256",
          "name": "_id",
          "type": "uint256"
        }
      ],
      "name": "getAgreementById",
      "outputs": [
        {
          "components": [
            {
              "internalType": "uint256",
              "name": "id",
              "type": "uint256"
            },
            {
              "internalType": "string",
              "name": "title",
              "type": "string"
            },
            {
              "internalType": "string",
              "name": "description",
              "type": "string"
            },
            {
              "internalType": "enum IAgreementContract.AgreementStatus",
              "name": "status",
              "type": "uint8"
            },
            {
              "internalType": "address",
              "name": "company",
              "type": "address"
            },
            {
              "internalType": "address",
              "name": "professional",
              "type": "address"
            },
            {
              "internalType": "uint256",
              "name": "paymentAmount",
              "type": "uint256"
            },
            {
              "internalType": "uint256",
              "name": "totalPaid",
              "type": "uint256"
            }
          ],
          "internalType": "struct IAgreementContract.Agreement",
          "name": "",
          "type": "tuple"
        }
      ],
      "stateMutability": "view",
      "type": "function"
    },
    {
      "inputs": [],
      "name": "getAgreementCount",
      "outputs": [
        {
          "internalType": "uint256",
          "name": "",
          "type": "uint256"
        }
      ],
      "stateMutability": "view",
      "type": "function"
    },
    {
      "inputs": [],
      "name": "getAllAgreements",
      "outputs": [
        {
          "components": [
            {
              "internalType": "uint256",
              "name": "id",
              "type": "uint256"
            },
            {
              "internalType": "string",
              "name": "title",
              "type": "string"
            },
            {
              "internalType": "string",
              "name": "description",
              "type": "string"
            },
            {
              "internalType": "enum IAgreementContract.AgreementStatus",
              "name": "status",
              "type": "uint8"
            },
            {
              "internalType": "address",
              "name": "company",
              "type": "address"
            },
            {
              "internalType": "address",
              "name": "professional",
              "type": "address"
            },
            {
              "internalType": "uint256",
              "name": "paymentAmount",
              "type": "uint256"
            },
            {
              "internalType": "uint256",
              "name": "totalPaid",
              "type": "uint256"
            }
          ],
          "internalType": "struct IAgreementContract.Agreement[]",
          "name": "",
          "type": "tuple[]"
        }
      ],
      "stateMutability": "view",
      "type": "function"
    },
    {
      "inputs": [],
      "name": "getChainID",
      "outputs": [
        {
          "internalType": "uint256",
          "name": "",
          "type": "uint256"
        }
      ],
      "stateMutability": "view",
      "type": "function"
    },
    {
      "inputs": [
        {
          "internalType": "address",
          "name": "_contractor",
          "type": "address"
        }
      ],
      "name": "getContractorAgreementIds",
      "outputs": [
        {
          "internalType": "uint256[]",
          "name": "",
          "type": "uint256[]"
        }
      ],
      "stateMutability": "view",
      "type": "function"
    },
    {
      "inputs": [
        {
          "internalType": "address",
          "name": "_professional",
          "type": "address"
        }
      ],
      "name": "getProfessionalAgreementIds",
      "outputs": [
        {
          "internalType": "uint256[]",
          "name": "",
          "type": "uint256[]"
        }
      ],
      "stateMutability": "view",
      "type": "function"
    },
    {
      "inputs": [
        {
          "internalType": "bytes32",
          "name": "role",
          "type": "bytes32"
        }
      ],
      "name": "getRoleAdmin",
      "outputs": [
        {
          "internalType": "bytes32",
          "name": "",
          "type": "bytes32"
        }
      ],
      "stateMutability": "view",
      "type": "function"
    },
    {
      "inputs": [
        {
          "internalType": "uint256",
          "name": "_agreementId",
          "type": "uint256"
        }
      ],
      "name": "getSkillsByAgreementId",
      "outputs": [
        {
          "components": [
            {
              "internalType": "string",
              "name": "name",
              "type": "string"
            },
            {
              "internalType": "uint256",
              "name": "level",
              "type": "uint256"
            }
          ],
          "internalType": "struct IAgreementContract.Skill[]",
          "name": "",
          "type": "tuple[]"
        }
      ],
      "stateMutability": "view",
      "type": "function"
    },
    {
      "inputs": [
        {
          "internalType": "bytes32",
          "name": "role",
          "type": "bytes32"
        },
        {
          "internalType": "address",
          "name": "account",
          "type": "address"
        }
      ],
      "name": "grantRole",
      "outputs": [],
      "stateMutability": "nonpayable",
      "type": "function"
    },
    {
      "inputs": [
        {
          "internalType": "bytes32",
          "name": "role",
          "type": "bytes32"
        },
        {
          "internalType": "address",
          "name": "account",
          "type": "address"
        }
      ],
      "name": "hasRole",
      "outputs": [
        {
          "internalType": "bool",
          "name": "",
          "type": "bool"
        }
      ],
      "stateMutability": "view",
      "type": "function"
    },
    {
      "inputs": [],
      "name": "kyodoTreasury",
      "outputs": [
        {
          "internalType": "address",
          "name": "",
          "type": "address"
        }
      ],
      "stateMutability": "view",
      "type": "function"
    },
    {
      "inputs": [],
      "name": "kyodoTreasuryFee",
      "outputs": [
        {
          "internalType": "uint256",
          "name": "",
          "type": "uint256"
        }
      ],
      "stateMutability": "view",
      "type": "function"
    },
    {
      "inputs": [
        {
          "internalType": "uint256",
          "name": "_agreementId",
          "type": "uint256"
        },
        {
          "internalType": "uint256",
          "name": "_amountToPay",
          "type": "uint256"
        },
        {
          "internalType": "address",
          "name": "_paymentAddress",
          "type": "address"
        }
      ],
      "name": "makePayment",
      "outputs": [],
      "stateMutability": "nonpayable",
      "type": "function"
    },
    {
      "inputs": [],
      "name": "nextAgreementId",
      "outputs": [
        {
          "internalType": "uint256",
          "name": "",
          "type": "uint256"
        }
      ],
      "stateMutability": "view",
      "type": "function"
    },
    {
      "inputs": [],
      "name": "owner",
      "outputs": [
        {
          "internalType": "address",
          "name": "",
          "type": "address"
        }
      ],
      "stateMutability": "view",
      "type": "function"
    },
    {
      "inputs": [],
      "name": "pause",
      "outputs": [],
      "stateMutability": "nonpayable",
      "type": "function"
    },
    {
      "inputs": [],
      "name": "paused",
      "outputs": [
        {
          "internalType": "bool",
          "name": "",
          "type": "bool"
        }
      ],
      "stateMutability": "view",
      "type": "function"
    },
    {
      "inputs": [
        {
          "internalType": "address",
          "name": "account",
          "type": "address"
        }
      ],
      "name": "removeAdmin",
      "outputs": [],
      "stateMutability": "nonpayable",
      "type": "function"
    },
    {
      "inputs": [
        {
          "internalType": "address",
          "name": "token",
          "type": "address"
        }
      ],
      "name": "removePaymentToken",
      "outputs": [],
      "stateMutability": "nonpayable",
      "type": "function"
    },
    {
      "inputs": [],
      "name": "renounceOwnership",
      "outputs": [],
      "stateMutability": "nonpayable",
      "type": "function"
    },
    {
      "inputs": [
        {
          "internalType": "bytes32",
          "name": "role",
          "type": "bytes32"
        },
        {
          "internalType": "address",
          "name": "callerConfirmation",
          "type": "address"
        }
      ],
      "name": "renounceRole",
      "outputs": [],
      "stateMutability": "nonpayable",
      "type": "function"
    },
    {
      "inputs": [
        {
          "internalType": "bytes32",
          "name": "role",
          "type": "bytes32"
        },
        {
          "internalType": "address",
          "name": "account",
          "type": "address"
        }
      ],
      "name": "revokeRole",
      "outputs": [],
      "stateMutability": "nonpayable",
      "type": "function"
    },
    {
      "inputs": [
        {
          "internalType": "uint256",
          "name": "chainId",
          "type": "uint256"
        },
        {
          "internalType": "uint64",
          "name": "chainSelector",
          "type": "uint64"
        },
        {
          "internalType": "address",
          "name": "vaultAddress",
          "type": "address"
        }
      ],
      "name": "setCrossChainConfigs",
      "outputs": [],
      "stateMutability": "nonpayable",
      "type": "function"
    },
    {
      "inputs": [
        {
          "internalType": "uint256",
          "name": "_feePercentage",
          "type": "uint256"
        },
        {
          "internalType": "uint256",
          "name": "_kyodoTreasuryFee",
          "type": "uint256"
        },
        {
          "internalType": "uint256",
          "name": "_communityDAOFee",
          "type": "uint256"
        }
      ],
      "name": "setFees",
      "outputs": [],
      "stateMutability": "nonpayable",
      "type": "function"
    },
    {
      "inputs": [
        {
          "internalType": "uint256",
          "name": "chainId",
          "type": "uint256"
        }
      ],
      "name": "setPreferredChain",
      "outputs": [],
      "stateMutability": "nonpayable",
      "type": "function"
    },
    {
      "inputs": [
        {
          "internalType": "address",
          "name": "_StableVaultAddress",
          "type": "address"
        }
      ],
      "name": "setStableVaultAddress",
      "outputs": [],
      "stateMutability": "nonpayable",
      "type": "function"
    },
    {
      "inputs": [
        {
          "internalType": "bytes4",
          "name": "interfaceId",
          "type": "bytes4"
        }
      ],
      "name": "supportsInterface",
      "outputs": [
        {
          "internalType": "bool",
          "name": "",
          "type": "bool"
        }
      ],
      "stateMutability": "view",
      "type": "function"
    },
    {
      "inputs": [
        {
          "internalType": "uint256",
          "name": "",
          "type": "uint256"
        }
      ],
      "name": "tokenAddresses",
      "outputs": [
        {
          "internalType": "address",
          "name": "",
          "type": "address"
        }
      ],
      "stateMutability": "view",
      "type": "function"
    },
    {
      "inputs": [
        {
          "internalType": "address",
          "name": "newOwner",
          "type": "address"
        }
      ],
      "name": "transferOwnership",
      "outputs": [],
      "stateMutability": "nonpayable",
      "type": "function"
    },
    {
      "inputs": [],
      "name": "unpause",
      "outputs": [],
      "stateMutability": "nonpayable",
      "type": "function"
    },
    {
      "inputs": [
        {
          "internalType": "address",
          "name": "",
          "type": "address"
        }
      ],
      "name": "userPreferredChain",
      "outputs": [
        {
          "internalType": "uint256",
          "name": "",
          "type": "uint256"
        }
      ],
      "stateMutability": "view",
      "type": "function"
    },
    {
      "inputs": [
        {
          "internalType": "uint64",
          "name": "_destinationChainSelector",
          "type": "uint64"
        }
      ],
      "name": "whitelistChain",
      "outputs": [],
      "stateMutability": "nonpayable",
      "type": "function"
    },
    {
      "inputs": [
        {
          "internalType": "uint64",
          "name": "",
          "type": "uint64"
        }
      ],
      "name": "whitelistedChains",
      "outputs": [
        {
          "internalType": "bool",
          "name": "",
          "type": "bool"
        }
      ],
      "stateMutability": "view",
      "type": "function"
    },
    {
      "inputs": [
        {
          "internalType": "address",
          "name": "_beneficiary",
          "type": "address"
        },
        {
          "internalType": "address",
          "name": "_token",
          "type": "address"
        }
      ],
      "name": "withdrawToken",
      "outputs": [],
      "stateMutability": "nonpayable",
      "type": "function"
    }
  ],
  "bytecode": "0x608060405260016005553480156200001657600080fd5b506040516200614a3803806200614a83398181016040528101906200003c919062000905565b83868689808b6000600160006101000a81548160ff021916908315150217905550620000726000801b826200038960201b60201c565b50620000a57f73fd536265c26e6e13263018bc9d82a9b962a7857ae70dac847fd743f5e71535826200038960201b60201c565b5050600073ffffffffffffffffffffffffffffffffffffffff168173ffffffffffffffffffffffffffffffffffffffff16036200011c5760006040517f1e4fbdf700000000000000000000000000000000000000000000000000000000815260040162000113919062000a33565b60405180910390fd5b6200012d816200048c60201b60201c565b5082600260006101000a81548173ffffffffffffffffffffffffffffffffffffffff021916908373ffffffffffffffffffffffffffffffffffffffff16021790555081600360006101000a81548173ffffffffffffffffffffffffffffffffffffffff021916908373ffffffffffffffffffffffffffffffffffffffff16021790555083600360146101000a81548167ffffffffffffffff021916908367ffffffffffffffff16021790555050505050805182511462000224576040517f08c379a00000000000000000000000000000000000000000000000000000000081526004016200021b9062000ad7565b60405180910390fd5b82600e60006101000a81548173ffffffffffffffffffffffffffffffffffffffff021916908373ffffffffffffffffffffffffffffffffffffffff16021790555088600f60006101000a81548173ffffffffffffffffffffffffffffffffffffffff021916908373ffffffffffffffffffffffffffffffffffffffff16021790555087601060006101000a81548173ffffffffffffffffffffffffffffffffffffffff021916908373ffffffffffffffffffffffffffffffffffffffff16021790555060005b825181101562000379578181815181106200030a576200030962000af9565b5b6020026020010151600760008584815181106200032c576200032b62000af9565b5b6020026020010151815260200190815260200160002060000160006101000a81548167ffffffffffffffff021916908367ffffffffffffffff1602179055508080600101915050620002ea565b5050505050505050505062000b28565b60006200039d83836200054f60201b60201c565b6200048157600160008085815260200190815260200160002060000160008473ffffffffffffffffffffffffffffffffffffffff1673ffffffffffffffffffffffffffffffffffffffff16815260200190815260200160002060006101000a81548160ff0219169083151502179055506200041d620005b960201b60201c565b73ffffffffffffffffffffffffffffffffffffffff168273ffffffffffffffffffffffffffffffffffffffff16847f2f8788117e7eff1d82e926ec794901d17c78024a50270940304540a733656f0d60405160405180910390a46001905062000486565b600090505b92915050565b600060018054906101000a900473ffffffffffffffffffffffffffffffffffffffff169050816001806101000a81548173ffffffffffffffffffffffffffffffffffffffff021916908373ffffffffffffffffffffffffffffffffffffffff1602179055508173ffffffffffffffffffffffffffffffffffffffff168173ffffffffffffffffffffffffffffffffffffffff167f8be0079c531659141344cd1fd0a4f28419497f9722a3daafe3b4186f6b6457e060405160405180910390a35050565b600080600084815260200190815260200160002060000160008373ffffffffffffffffffffffffffffffffffffffff1673ffffffffffffffffffffffffffffffffffffffff16815260200190815260200160002060009054906101000a900460ff16905092915050565b600033905090565b6000604051905090565b600080fd5b600080fd5b600073ffffffffffffffffffffffffffffffffffffffff82169050919050565b60006200060282620005d5565b9050919050565b6200061481620005f5565b81146200062057600080fd5b50565b600081519050620006348162000609565b92915050565b600067ffffffffffffffff82169050919050565b62000659816200063a565b81146200066557600080fd5b50565b60008151905062000679816200064e565b92915050565b600080fd5b6000601f19601f8301169050919050565b7f4e487b7100000000000000000000000000000000000000000000000000000000600052604160045260246000fd5b620006cf8262000684565b810181811067ffffffffffffffff82111715620006f157620006f062000695565b5b80604052505050565b600062000706620005c1565b9050620007148282620006c4565b919050565b600067ffffffffffffffff82111562000737576200073662000695565b5b602082029050602081019050919050565b600080fd5b6000819050919050565b62000762816200074d565b81146200076e57600080fd5b50565b600081519050620007828162000757565b92915050565b60006200079f620007998462000719565b620006fa565b90508083825260208201905060208402830185811115620007c557620007c462000748565b5b835b81811015620007f25780620007dd888262000771565b845260208401935050602081019050620007c7565b5050509392505050565b600082601f8301126200081457620008136200067f565b5b81516200082684826020860162000788565b91505092915050565b600067ffffffffffffffff8211156200084d576200084c62000695565b5b602082029050602081019050919050565b6000620008756200086f846200082f565b620006fa565b905080838252602082019050602084028301858111156200089b576200089a62000748565b5b835b81811015620008c85780620008b3888262000668565b8452602084019350506020810190506200089d565b5050509392505050565b600082601f830112620008ea57620008e96200067f565b5b8151620008fc8482602086016200085e565b91505092915050565b60008060008060008060008060006101208a8c0312156200092b576200092a620005cb565b5b60006200093b8c828d0162000623565b99505060206200094e8c828d0162000623565b9850506040620009618c828d0162000623565b9750506060620009748c828d0162000623565b9650506080620009878c828d0162000623565b95505060a06200099a8c828d0162000668565b94505060c0620009ad8c828d0162000623565b93505060e08a015167ffffffffffffffff811115620009d157620009d0620005d0565b5b620009df8c828d01620007fc565b9250506101008a015167ffffffffffffffff81111562000a045762000a03620005d0565b5b62000a128c828d01620008d2565b9150509295985092959850929598565b62000a2d81620005f5565b82525050565b600060208201905062000a4a600083018462000a22565b92915050565b600082825260208201905092915050565b7f436861696e6c69737420616e6420436861696e53656c6563746f7273206c656e60008201527f6774682073686f756c64206265207468652073616d652073697a652e00000000602082015250565b600062000abf603c8362000a50565b915062000acc8262000a61565b604082019050919050565b6000602082019050818103600083015262000af28162000ab0565b9050919050565b7f4e487b7100000000000000000000000000000000000000000000000000000000600052603260045260246000fd5b6156128062000b386000396000f3fe608060405234801561001057600080fd5b50600436106102f05760003560e01c80638207546e1161019d578063c391d858116100e9578063d547741f116100a2578063f2fde38b1161007c578063f2fde38b1461090d578063f38d215d14610929578063fc3f5dff14610959578063feb6b0cc14610975576102f0565b8063d547741f146108a3578063e5df8b84146108bf578063f2d64a96146108ef576102f0565b8063c391d858146107e3578063c9b99dab14610813578063c9e9290514610831578063ce6d88e51461084f578063cec10c111461086b578063d345ac7d14610887576102f0565b8063a001ecdd11610156578063a512542111610130578063a512542114610744578063a861367614610760578063b3f8cb001461077c578063bd14de96146107ac576102f0565b8063a001ecdd146106ec578063a06ee2db1461070a578063a217fddf14610726576102f0565b80638207546e146106285780638456cb59146106465780638da5cb5b146106505780638ee0344f1461066e57806391d148541461069e578063964bb4ab146106ce576102f0565b8063484bb2441161025c5780635c975abb11610215578063715018a6116101ef578063715018a6146105b2578063763574f6146105bc57806377be3d2f146105ec5780637d2399071461060a576102f0565b80635c975abb1461055c5780636334cb511461057a5780637048027514610596576102f0565b8063484bb244146104725780634e6873c7146104a25780634e92fafd146104c05780634f7cd72f146104f0578063564b81ef1461050e578063573fb6241461052c576102f0565b806329db7493116102ae57806329db7493146103c75780632f2ff15d146103f857806334625dcc1461041457806336568abe146104305780633aeac4e11461044c5780633f4ba83a14610468576102f0565b80628bed3e146102f557806301ffc9a71461031357806310143a641461034357806313cda3b71461035f5780631785f53c1461037b578063248a9ca314610397575b600080fd5b6102fd6109a6565b60405161030a91906138f2565b60405180910390f35b61032d60048036038101906103289190613979565b6109b3565b60405161033a91906139c1565b60405180910390f35b61035d60048036038101906103589190613a3a565b610a2d565b005b61037960048036038101906103749190613a3a565b610aa6565b005b61039560048036038101906103909190613a3a565b610b72565b005b6103b160048036038101906103ac9190613a9d565b610bdc565b6040516103be9190613ad9565b60405180910390f35b6103e160048036038101906103dc9190613b20565b610bfb565b6040516103ef929190613bf0565b60405180910390f35b610412600480360381019061040d9190613c20565b610cc4565b005b61042e60048036038101906104299190613ca0565b610ce6565b005b61044a60048036038101906104459190613c20565b610d31565b005b61046660048036038101906104619190613ccd565b610dac565b005b610470610ef0565b005b61048c60048036038101906104879190613a3a565b610f10565b60405161049991906139c1565b60405180910390f35b6104aa610f30565b6040516104b79190613f65565b60405180910390f35b6104da60048036038101906104d59190613a3a565b6111b9565b6040516104e79190614036565b60405180910390f35b6104f8611250565b6040516105059190613ad9565b60405180910390f35b610516611274565b60405161052391906138f2565b60405180910390f35b61054660048036038101906105419190614058565b611281565b604051610553919061413c565b60405180910390f35b610564611547565b60405161057191906139c1565b60405180910390f35b610594600480360381019061058f9190614058565b61155e565b005b6105b060048036038101906105ab9190613a3a565b6115f3565b005b6105ba61165d565b005b6105d660048036038101906105d19190613ca0565b611671565b6040516105e391906139c1565b60405180910390f35b6105f4611691565b604051610601919061416d565b60405180910390f35b6106126116d8565b60405161061f91906138f2565b60405180910390f35b6106306116de565b60405161063d919061416d565b60405180910390f35b61064e611704565b005b610658611724565b604051610665919061416d565b60405180910390f35b61068860048036038101906106839190613a3a565b61174c565b6040516106959190614036565b60405180910390f35b6106b860048036038101906106b39190613c20565b6117e3565b6040516106c591906139c1565b60405180910390f35b6106d661184d565b6040516106e3919061416d565b60405180910390f35b6106f4611873565b60405161070191906138f2565b60405180910390f35b610724600480360381019061071f9190613a3a565b611879565b005b61072e6118cb565b60405161073b9190613ad9565b60405180910390f35b61075e60048036038101906107599190613a3a565b6118d2565b005b61077a60048036038101906107759190614419565b61193b565b005b61079660048036038101906107919190614058565b611f05565b6040516107a391906145e7565b60405180910390f35b6107c660048036038101906107c19190614058565b612013565b6040516107da989796959493929190614618565b60405180910390f35b6107fd60048036038101906107f89190613a3a565b6121c8565b60405161080a91906138f2565b60405180910390f35b61081b6121e0565b60405161082891906138f2565b60405180910390f35b6108396121e6565b60405161084691906138f2565b60405180910390f35b610869600480360381019061086491906146a4565b6121ec565b005b610885600480360381019061088091906146f7565b61228b565b005b6108a1600480360381019061089c9190613ca0565b612305565b005b6108bd60048036038101906108b89190613c20565b612350565b005b6108d960048036038101906108d49190614058565b612372565b6040516108e6919061416d565b60405180910390f35b6108f76123b1565b60405161090491906147a9565b60405180910390f35b61092760048036038101906109229190613a3a565b6123d7565b005b610943600480360381019061093e91906147c4565b61245d565b60405161095091906138f2565b60405180910390f35b610973600480360381019061096e9190614804565b61248e565b005b61098f600480360381019061098a9190614058565b612b81565b60405161099d929190614866565b60405180910390f35b6000600680549050905090565b60007f7965db0b000000000000000000000000000000000000000000000000000000007bffffffffffffffffffffffffffffffffffffffffffffffffffffffff1916827bffffffffffffffffffffffffffffffffffffffffffffffffffffffff19161480610a265750610a2582612bd9565b5b9050919050565b610a35612c43565b610a5f7f73fd536265c26e6e13263018bc9d82a9b962a7857ae70dac847fd743f5e7153582612c84565b508073ffffffffffffffffffffffffffffffffffffffff167f92364d7c14d8a26a040c77305dd885fcd5898051d1b1ead4189b09d5f091159060405160405180910390a250565b6000801b610ab381612d75565b6001600b60008473ffffffffffffffffffffffffffffffffffffffff1673ffffffffffffffffffffffffffffffffffffffff16815260200190815260200160002060006101000a81548160ff021916908315150217905550600d829080600181540180825580915050600190039060005260206000200160009091909190916101000a81548173ffffffffffffffffffffffffffffffffffffffff021916908373ffffffffffffffffffffffffffffffffffffffff1602179055505050565b6000801b610b7f81612d75565b610b87612c43565b610b946000801b83612d89565b508173ffffffffffffffffffffffffffffffffffffffff167f3137a7fedbfedb7895dfa5a6812a4566dae9ded68d00aeec13c6ed1fa84a1c8060405160405180910390a25050565b6000806000838152602001908152602001600020600101549050919050565b600c6020528160005260406000208181548110610c1757600080fd5b906000526020600020906002020160009150915050806000018054610c3b906148be565b80601f0160208091040260200160405190810160405280929190818152602001828054610c67906148be565b8015610cb45780601f10610c8957610100808354040283529160200191610cb4565b820191906000526020600020905b815481529060010190602001808311610c9757829003601f168201915b5050505050908060010154905082565b610ccd82610bdc565b610cd681612d75565b610ce08383612c84565b50505050565b610cee612e7b565b6000600460008367ffffffffffffffff1667ffffffffffffffff16815260200190815260200160002060006101000a81548160ff02191690831515021790555050565b610d39612f02565b73ffffffffffffffffffffffffffffffffffffffff168173ffffffffffffffffffffffffffffffffffffffff1614610d9d576040517f6697b23200000000000000000000000000000000000000000000000000000000815260040160405180910390fd5b610da78282612d89565b505050565b610db4612e7b565b60008173ffffffffffffffffffffffffffffffffffffffff166370a08231306040518263ffffffff1660e01b8152600401610def919061416d565b602060405180830381865afa158015610e0c573d6000803e3d6000fd5b505050506040513d601f19601f82011682018060405250810190610e309190614904565b905060008103610e6c576040517fd0d04f6000000000000000000000000000000000000000000000000000000000815260040160405180910390fd5b8173ffffffffffffffffffffffffffffffffffffffff1663a9059cbb84836040518363ffffffff1660e01b8152600401610ea7929190614931565b6020604051808303816000875af1158015610ec6573d6000803e3d6000fd5b505050506040513d601f19601f82011682018060405250810190610eea9190614986565b50505050565b6000801b610efd81612d75565b610f05612f0a565b610f0d612f4a565b50565b600b6020528060005260406000206000915054906101000a900460ff1681565b60606006805480602002602001604051908101604052809291908181526020016000905b828210156111b057838290600052602060002090600702016040518061010001604052908160008201548152602001600182018054610f92906148be565b80601f0160208091040260200160405190810160405280929190818152602001828054610fbe906148be565b801561100b5780601f10610fe05761010080835404028352916020019161100b565b820191906000526020600020905b815481529060010190602001808311610fee57829003601f168201915b50505050508152602001600282018054611024906148be565b80601f0160208091040260200160405190810160405280929190818152602001828054611050906148be565b801561109d5780601f106110725761010080835404028352916020019161109d565b820191906000526020600020905b81548152906001019060200180831161108057829003601f168201915b505050505081526020016003820160009054906101000a900460ff1660018111156110cb576110ca613d92565b5b60018111156110dd576110dc613d92565b5b81526020016003820160019054906101000a900473ffffffffffffffffffffffffffffffffffffffff1673ffffffffffffffffffffffffffffffffffffffff1673ffffffffffffffffffffffffffffffffffffffff1681526020016004820160009054906101000a900473ffffffffffffffffffffffffffffffffffffffff1673ffffffffffffffffffffffffffffffffffffffff1673ffffffffffffffffffffffffffffffffffffffff1681526020016005820154815260200160068201548152505081526020019060010190610f54565b50505050905090565b6060600a60008373ffffffffffffffffffffffffffffffffffffffff1673ffffffffffffffffffffffffffffffffffffffff16815260200190815260200160002080548060200260200160405190810160405280929190818152602001828054801561124457602002820191906000526020600020905b815481526020019060010190808311611230575b50505050509050919050565b7f73fd536265c26e6e13263018bc9d82a9b962a7857ae70dac847fd743f5e7153581565b6000804690508091505090565b611289613826565b60008211801561129e57506006805490508211155b6112dd576040517f08c379a00000000000000000000000000000000000000000000000000000000081526004016112d4906149ff565b60405180910390fd5b60066001836112ec9190614a4e565b815481106112fd576112fc614a82565b5b90600052602060002090600702016040518061010001604052908160008201548152602001600182018054611331906148be565b80601f016020809104026020016040519081016040528092919081815260200182805461135d906148be565b80156113aa5780601f1061137f576101008083540402835291602001916113aa565b820191906000526020600020905b81548152906001019060200180831161138d57829003601f168201915b505050505081526020016002820180546113c3906148be565b80601f01602080910402602001604051908101604052809291908181526020018280546113ef906148be565b801561143c5780601f106114115761010080835404028352916020019161143c565b820191906000526020600020905b81548152906001019060200180831161141f57829003601f168201915b505050505081526020016003820160009054906101000a900460ff16600181111561146a57611469613d92565b5b600181111561147c5761147b613d92565b5b81526020016003820160019054906101000a900473ffffffffffffffffffffffffffffffffffffffff1673ffffffffffffffffffffffffffffffffffffffff1673ffffffffffffffffffffffffffffffffffffffff1681526020016004820160009054906101000a900473ffffffffffffffffffffffffffffffffffffffff1673ffffffffffffffffffffffffffffffffffffffff1673ffffffffffffffffffffffffffffffffffffffff168152602001600582015481526020016006820154815250509050919050565b6000600160009054906101000a900460ff16905090565b80600860003373ffffffffffffffffffffffffffffffffffffffff1673ffffffffffffffffffffffffffffffffffffffff168152602001908152602001600020819055503373ffffffffffffffffffffffffffffffffffffffff167fcd0e454cd0c61bff985ddc2ee02e03da06197ccca8a7917a9b87c0a00cfb60ea826040516115e891906138f2565b60405180910390a250565b6000801b61160081612d75565b611608612c43565b6116156000801b83612c84565b508173ffffffffffffffffffffffffffffffffffffffff167f2dbe9fb88463d989acccabbb6ee06901f83672eb78e04a11ff48dd8f69a27cda60405160405180910390a25050565b611665612e7b565b61166f6000612fad565b565b60046020528060005260406000206000915054906101000a900460ff1681565b6000600d6000815481106116a8576116a7614a82565b5b9060005260206000200160009054906101000a900473ffffffffffffffffffffffffffffffffffffffff16905090565b60125481565b601060009054906101000a900473ffffffffffffffffffffffffffffffffffffffff1681565b6000801b61171181612d75565b611719612c43565b611721613070565b50565b600060018054906101000a900473ffffffffffffffffffffffffffffffffffffffff16905090565b6060600960008373ffffffffffffffffffffffffffffffffffffffff1673ffffffffffffffffffffffffffffffffffffffff1681526020019081526020016000208054806020026020016040519081016040528092919081815260200182805480156117d757602002820191906000526020600020905b8154815260200190600101908083116117c3575b50505050509050919050565b600080600084815260200190815260200160002060000160008373ffffffffffffffffffffffffffffffffffffffff1673ffffffffffffffffffffffffffffffffffffffff16815260200190815260200160002060009054906101000a900460ff16905092915050565b600f60009054906101000a900473ffffffffffffffffffffffffffffffffffffffff1681565b60115481565b6000801b61188681612d75565b81600e60006101000a81548173ffffffffffffffffffffffffffffffffffffffff021916908373ffffffffffffffffffffffffffffffffffffffff1602179055505050565b6000801b81565b6000801b6118df81612d75565b6000600b60008473ffffffffffffffffffffffffffffffffffffffff1673ffffffffffffffffffffffffffffffffffffffff16815260200190815260200160002060006101000a81548160ff0219169083151502179055505050565b600073ffffffffffffffffffffffffffffffffffffffff168373ffffffffffffffffffffffffffffffffffffffff16036119aa576040517f08c379a00000000000000000000000000000000000000000000000000000000081526004016119a190614b23565b60405180910390fd5b60008251116119ee576040517f08c379a00000000000000000000000000000000000000000000000000000000081526004016119e590614b8f565b60405180910390fd5b60008111611a31576040517f08c379a0000000000000000000000000000000000000000000000000000000008152600401611a2890614c21565b60405180910390fd5b3373ffffffffffffffffffffffffffffffffffffffff168373ffffffffffffffffffffffffffffffffffffffff1603611a9f576040517f08c379a0000000000000000000000000000000000000000000000000000000008152600401611a9690614cb3565b60405180910390fd5b6000805b8351811015611ae557838181518110611abf57611abe614a82565b5b60200260200101516020015182611ad69190614cd3565b91508080600101915050611aa3565b506064811115611b2a576040517f08c379a0000000000000000000000000000000000000000000000000000000008152600401611b2190614d79565b60405180910390fd5b6000604051806101000160405280600554815260200188815260200187815260200160006001811115611b6057611b5f613d92565b5b81526020013373ffffffffffffffffffffffffffffffffffffffff1681526020018673ffffffffffffffffffffffffffffffffffffffff1681526020018481526020016000815250905060005b8451811015611c7457600c600060055481526020019081526020016000206040518060400160405280878481518110611be957611be8614a82565b5b6020026020010151600001518152602001878481518110611c0d57611c0c614a82565b5b60200260200101516020015181525090806001815401808255809150506001900390600052602060002090600202016000909190919091506000820151816000019081611c5a9190614f3b565b506020820151816001015550508080600101915050611bad565b506006819080600181540180825580915050600190039060005260206000209060070201600090919091909150600082015181600001556020820151816001019081611cc09190614f3b565b506040820151816002019081611cd69190614f3b565b5060608201518160030160006101000a81548160ff02191690836001811115611d0257611d01613d92565b5b021790555060808201518160030160016101000a81548173ffffffffffffffffffffffffffffffffffffffff021916908373ffffffffffffffffffffffffffffffffffffffff16021790555060a08201518160040160006101000a81548173ffffffffffffffffffffffffffffffffffffffff021916908373ffffffffffffffffffffffffffffffffffffffff16021790555060c0820151816005015560e082015181600601555050600960003373ffffffffffffffffffffffffffffffffffffffff1673ffffffffffffffffffffffffffffffffffffffff1681526020019081526020016000206005549080600181540180825580915050600190039060005260206000200160009091909190915055600a60008673ffffffffffffffffffffffffffffffffffffffff1673ffffffffffffffffffffffffffffffffffffffff16815260200190815260200160002060055490806001815401808255809150506001900390600052602060002001600090919091909150558473ffffffffffffffffffffffffffffffffffffffff163373ffffffffffffffffffffffffffffffffffffffff167f4969d8f058da37f5b596425a39904e9a027ac23d1865d6efd5df5a5e24eef7de60055486604051611edc92919061500d565b60405180910390a360056000815480929190611ef790615036565b919050555050505050505050565b6060600c6000838152602001908152602001600020805480602002602001604051908101604052809291908181526020016000905b828210156120085783829060005260206000209060020201604051806040016040529081600082018054611f6d906148be565b80601f0160208091040260200160405190810160405280929190818152602001828054611f99906148be565b8015611fe65780601f10611fbb57610100808354040283529160200191611fe6565b820191906000526020600020905b815481529060010190602001808311611fc957829003601f168201915b5050505050815260200160018201548152505081526020019060010190611f3a565b505050509050919050565b6006818154811061202357600080fd5b906000526020600020906007020160009150905080600001549080600101805461204c906148be565b80601f0160208091040260200160405190810160405280929190818152602001828054612078906148be565b80156120c55780601f1061209a576101008083540402835291602001916120c5565b820191906000526020600020905b8154815290600101906020018083116120a857829003601f168201915b5050505050908060020180546120da906148be565b80601f0160208091040260200160405190810160405280929190818152602001828054612106906148be565b80156121535780601f1061212857610100808354040283529160200191612153565b820191906000526020600020905b81548152906001019060200180831161213657829003601f168201915b5050505050908060030160009054906101000a900460ff16908060030160019054906101000a900473ffffffffffffffffffffffffffffffffffffffff16908060040160009054906101000a900473ffffffffffffffffffffffffffffffffffffffff16908060050154908060060154905088565b60086020528060005260406000206000915090505481565b60055481565b60135481565b6121f4612e7b565b816007600085815260200190815260200160002060000160006101000a81548167ffffffffffffffff021916908367ffffffffffffffff160217905550806007600085815260200190815260200160002060000160086101000a81548173ffffffffffffffffffffffffffffffffffffffff021916908373ffffffffffffffffffffffffffffffffffffffff160217905550505050565b6000801b61229881612d75565b600084101580156122ab57506103e88411155b6122ea576040517f08c379a00000000000000000000000000000000000000000000000000000000081526004016122e1906150ca565b60405180910390fd5b83601181905550826012819055508160138190555050505050565b61230d612e7b565b6001600460008367ffffffffffffffff1667ffffffffffffffff16815260200190815260200160002060006101000a81548160ff02191690831515021790555050565b61235982610bdc565b61236281612d75565b61236c8383612d89565b50505050565b600d818154811061238257600080fd5b906000526020600020016000915054906101000a900473ffffffffffffffffffffffffffffffffffffffff1681565b600e60009054906101000a900473ffffffffffffffffffffffffffffffffffffffff1681565b6123df612e7b565b600073ffffffffffffffffffffffffffffffffffffffff168173ffffffffffffffffffffffffffffffffffffffff16036124515760006040517f1e4fbdf7000000000000000000000000000000000000000000000000000000008152600401612448919061416d565b60405180910390fd5b61245a81612fad565b50565b6009602052816000526040600020818154811061247957600080fd5b90600052602060002001600091509150505481565b6000831180156124a357506006805490508311155b6124e2576040517f08c379a00000000000000000000000000000000000000000000000000000000081526004016124d9906149ff565b60405180910390fd5b600b60008273ffffffffffffffffffffffffffffffffffffffff1673ffffffffffffffffffffffffffffffffffffffff16815260200190815260200160002060009054906101000a900460ff1661256e576040517f08c379a000000000000000000000000000000000000000000000000000000000815260040161256590615136565b60405180910390fd5b6000600660018561257f9190614a4e565b815481106125905761258f614a82565b5b906000526020600020906007020190506000806000806000808790506103e8601154029550620f4240898702816125ca576125c9615156565b5b0494506103e86012548602816125e3576125e2615156565b5b049350838503925084890391508073ffffffffffffffffffffffffffffffffffffffff166323b872dd33308c6040518463ffffffff1660e01b815260040161262d93929190615185565b6020604051808303816000875af115801561264c573d6000803e3d6000fd5b505050506040513d601f19601f820116820180604052508101906126709190614986565b6126af576040517f08c379a00000000000000000000000000000000000000000000000000000000081526004016126a69061522e565b60405180910390fd5b8073ffffffffffffffffffffffffffffffffffffffff1663095ea7b3600e60009054906101000a900473ffffffffffffffffffffffffffffffffffffffff168b6040518363ffffffff1660e01b815260040161270c929190614931565b6020604051808303816000875af115801561272b573d6000803e3d6000fd5b505050506040513d601f19601f8201168201806040525081019061274f9190614986565b50600e60009054906101000a900473ffffffffffffffffffffffffffffffffffffffff1673ffffffffffffffffffffffffffffffffffffffff16632e2d29848583600f60009054906101000a900473ffffffffffffffffffffffffffffffffffffffff166040518463ffffffff1660e01b81526004016127d19392919061524e565b6020604051808303816000875af11580156127f0573d6000803e3d6000fd5b505050506040513d601f19601f820116820180604052508101906128149190614986565b50600e60009054906101000a900473ffffffffffffffffffffffffffffffffffffffff1673ffffffffffffffffffffffffffffffffffffffff16632e2d29848483601060009054906101000a900473ffffffffffffffffffffffffffffffffffffffff166040518463ffffffff1660e01b81526004016128969392919061524e565b6020604051808303816000875af11580156128b5573d6000803e3d6000fd5b505050506040513d601f19601f820116820180604052508101906128d99190614986565b506000600860008960040160009054906101000a900473ffffffffffffffffffffffffffffffffffffffff1673ffffffffffffffffffffffffffffffffffffffff1673ffffffffffffffffffffffffffffffffffffffff1681526020019081526020016000205490506000810361295557612952611274565b90505b61295d611274565b8103612a2f57600e60009054906101000a900473ffffffffffffffffffffffffffffffffffffffff1673ffffffffffffffffffffffffffffffffffffffff16632e2d298484848b60040160009054906101000a900473ffffffffffffffffffffffffffffffffffffffff166040518463ffffffff1660e01b81526004016129e69392919061524e565b6020604051808303816000875af1158015612a05573d6000803e3d6000fd5b505050506040513d601f19601f82011682018060405250810190612a299190614986565b50612ace565b60006007600083815260200190815260200160002060000160009054906101000a900467ffffffffffffffff16905060006007600084815260200190815260200160002060000160089054906101000a900473ffffffffffffffffffffffffffffffffffffffff169050612aca82828c60040160009054906101000a900473ffffffffffffffffffffffffffffffffffffffff168e896130d2565b5050505b8988600601600082825401925050819055508760040160009054906101000a900473ffffffffffffffffffffffffffffffffffffffff1673ffffffffffffffffffffffffffffffffffffffff163373ffffffffffffffffffffffffffffffffffffffff167f32aced27dfd49efcd31ceb0567a1ef533d2ab1481334c3f316047bf16fe1c8e8612b5b611274565b8e8e604051612b6c93929190615285565b60405180910390a35050505050505050505050565b60076020528060005260406000206000915090508060000160009054906101000a900467ffffffffffffffff16908060000160089054906101000a900473ffffffffffffffffffffffffffffffffffffffff16905082565b60007f01ffc9a7000000000000000000000000000000000000000000000000000000007bffffffffffffffffffffffffffffffffffffffffffffffffffffffff1916827bffffffffffffffffffffffffffffffffffffffffffffffffffffffff1916149050919050565b612c4b611547565b15612c82576040517fd93c066500000000000000000000000000000000000000000000000000000000815260040160405180910390fd5b565b6000612c9083836117e3565b612d6a57600160008085815260200190815260200160002060000160008473ffffffffffffffffffffffffffffffffffffffff1673ffffffffffffffffffffffffffffffffffffffff16815260200190815260200160002060006101000a81548160ff021916908315150217905550612d07612f02565b73ffffffffffffffffffffffffffffffffffffffff168273ffffffffffffffffffffffffffffffffffffffff16847f2f8788117e7eff1d82e926ec794901d17c78024a50270940304540a733656f0d60405160405180910390a460019050612d6f565b600090505b92915050565b612d8681612d81612f02565b613756565b50565b6000612d9583836117e3565b15612e7057600080600085815260200190815260200160002060000160008473ffffffffffffffffffffffffffffffffffffffff1673ffffffffffffffffffffffffffffffffffffffff16815260200190815260200160002060006101000a81548160ff021916908315150217905550612e0d612f02565b73ffffffffffffffffffffffffffffffffffffffff168273ffffffffffffffffffffffffffffffffffffffff16847ff6391f5c32d9c69d2a47ea670b442974b53935d1edc7fd64eb21e047a839171b60405160405180910390a460019050612e75565b600090505b92915050565b612e83612f02565b73ffffffffffffffffffffffffffffffffffffffff16612ea1611724565b73ffffffffffffffffffffffffffffffffffffffff1614612f0057612ec4612f02565b6040517f118cdaa7000000000000000000000000000000000000000000000000000000008152600401612ef7919061416d565b60405180910390fd5b565b600033905090565b612f12611547565b612f48576040517f8dfc202b00000000000000000000000000000000000000000000000000000000815260040160405180910390fd5b565b612f52612f0a565b6000600160006101000a81548160ff0219169083151502179055507f5db9ee0a495bf2e6ff9c91a7834c1ba4fdd244a5e8aa4e537bd38aeae4b073aa612f96612f02565b604051612fa3919061416d565b60405180910390a1565b600060018054906101000a900473ffffffffffffffffffffffffffffffffffffffff169050816001806101000a81548173ffffffffffffffffffffffffffffffffffffffff021916908373ffffffffffffffffffffffffffffffffffffffff1602179055508173ffffffffffffffffffffffffffffffffffffffff168173ffffffffffffffffffffffffffffffffffffffff167f8be0079c531659141344cd1fd0a4f28419497f9722a3daafe3b4186f6b6457e060405160405180910390a35050565b613078612c43565b60018060006101000a81548160ff0219169083151502179055507f62e78cea01bee320cd4e420270b5ea74000d11b0c9f74754ebdbfc544b05a2586130bb612f02565b6040516130c8919061416d565b60405180910390a1565b600085600460008267ffffffffffffffff1667ffffffffffffffff16815260200190815260200160002060009054906101000a900460ff1661314b57806040517f4651d51a00000000000000000000000000000000000000000000000000000000815260040161314291906152bc565b60405180910390fd5b6000600167ffffffffffffffff81111561316857613167614192565b5b6040519080825280602002602001820160405280156131a157816020015b61318e6138a9565b8152602001906001900390816131865790505b509050600060405180604001604052808773ffffffffffffffffffffffffffffffffffffffff16815260200186815250905080826000815181106131e8576131e7614a82565b5b602002602001018190525060006040518060a001604052808a604051602001613211919061416d565b604051602081830303815290604052815260200189604051602001613236919061416d565b6040516020818303038152906040528152602001848152602001600360009054906101000a900473ffffffffffffffffffffffffffffffffffffffff1673ffffffffffffffffffffffffffffffffffffffff1681526020016132b16040518060400160405280620dbba08152602001600015158152506137a7565b81525090506000600260009054906101000a900473ffffffffffffffffffffffffffffffffffffffff1673ffffffffffffffffffffffffffffffffffffffff166320487ded8c846040518363ffffffff1660e01b8152600401613315929190615495565b602060405180830381865afa158015613332573d6000803e3d6000fd5b505050506040513d601f19601f820116820180604052508101906133569190614904565b9050600360009054906101000a900473ffffffffffffffffffffffffffffffffffffffff1673ffffffffffffffffffffffffffffffffffffffff166370a08231306040518263ffffffff1660e01b81526004016133b3919061416d565b602060405180830381865afa1580156133d0573d6000803e3d6000fd5b505050506040513d601f19601f820116820180604052508101906133f49190614904565b8111156134d557600360009054906101000a900473ffffffffffffffffffffffffffffffffffffffff1673ffffffffffffffffffffffffffffffffffffffff166370a08231306040518263ffffffff1660e01b8152600401613456919061416d565b602060405180830381865afa158015613473573d6000803e3d6000fd5b505050506040513d601f19601f820116820180604052508101906134979190614904565b816040517f8f0f42060000000000000000000000000000000000000000000000000000000081526004016134cc92919061500d565b60405180910390fd5b600360009054906101000a900473ffffffffffffffffffffffffffffffffffffffff1673ffffffffffffffffffffffffffffffffffffffff1663095ea7b3600260009054906101000a900473ffffffffffffffffffffffffffffffffffffffff16836040518363ffffffff1660e01b8152600401613554929190614931565b6020604051808303816000875af1158015613573573d6000803e3d6000fd5b505050506040513d601f19601f820116820180604052508101906135979190614986565b508773ffffffffffffffffffffffffffffffffffffffff1663095ea7b3600260009054906101000a900473ffffffffffffffffffffffffffffffffffffffff16896040518363ffffffff1660e01b81526004016135f5929190614931565b6020604051808303816000875af1158015613614573d6000803e3d6000fd5b505050506040513d601f19601f820116820180604052508101906136389190614986565b50600260009054906101000a900473ffffffffffffffffffffffffffffffffffffffff1673ffffffffffffffffffffffffffffffffffffffff166396f4e9f98c846040518363ffffffff1660e01b8152600401613696929190615495565b6020604051808303816000875af11580156136b5573d6000803e3d6000fd5b505050506040513d601f19601f820116820180604052508101906136d991906154da565b95508a67ffffffffffffffff16867fc15fb748c32ba4eb29c1c311e78533f93b4425eab49ea87c6fe4279ecadca0438c8b8b600360009054906101000a900473ffffffffffffffffffffffffffffffffffffffff1687604051613740959493929190615507565b60405180910390a3505050505095945050505050565b61376082826117e3565b6137a35780826040517fe2517d3f00000000000000000000000000000000000000000000000000000000815260040161379a92919061555a565b60405180910390fd5b5050565b60606397a657c960e01b826040516024016137c291906155c1565b604051602081830303815290604052907bffffffffffffffffffffffffffffffffffffffffffffffffffffffff19166020820180517bffffffffffffffffffffffffffffffffffffffffffffffffffffffff83818316178352505050509050919050565b6040518061010001604052806000815260200160608152602001606081526020016000600181111561385b5761385a613d92565b5b8152602001600073ffffffffffffffffffffffffffffffffffffffff168152602001600073ffffffffffffffffffffffffffffffffffffffff16815260200160008152602001600081525090565b6040518060400160405280600073ffffffffffffffffffffffffffffffffffffffff168152602001600081525090565b6000819050919050565b6138ec816138d9565b82525050565b600060208201905061390760008301846138e3565b92915050565b6000604051905090565b600080fd5b600080fd5b60007fffffffff0000000000000000000000000000000000000000000000000000000082169050919050565b61395681613921565b811461396157600080fd5b50565b6000813590506139738161394d565b92915050565b60006020828403121561398f5761398e613917565b5b600061399d84828501613964565b91505092915050565b60008115159050919050565b6139bb816139a6565b82525050565b60006020820190506139d660008301846139b2565b92915050565b600073ffffffffffffffffffffffffffffffffffffffff82169050919050565b6000613a07826139dc565b9050919050565b613a17816139fc565b8114613a2257600080fd5b50565b600081359050613a3481613a0e565b92915050565b600060208284031215613a5057613a4f613917565b5b6000613a5e84828501613a25565b91505092915050565b6000819050919050565b613a7a81613a67565b8114613a8557600080fd5b50565b600081359050613a9781613a71565b92915050565b600060208284031215613ab357613ab2613917565b5b6000613ac184828501613a88565b91505092915050565b613ad381613a67565b82525050565b6000602082019050613aee6000830184613aca565b92915050565b613afd816138d9565b8114613b0857600080fd5b50565b600081359050613b1a81613af4565b92915050565b60008060408385031215613b3757613b36613917565b5b6000613b4585828601613b0b565b9250506020613b5685828601613b0b565b9150509250929050565b600081519050919050565b600082825260208201905092915050565b60005b83811015613b9a578082015181840152602081019050613b7f565b60008484015250505050565b6000601f19601f8301169050919050565b6000613bc282613b60565b613bcc8185613b6b565b9350613bdc818560208601613b7c565b613be581613ba6565b840191505092915050565b60006040820190508181036000830152613c0a8185613bb7565b9050613c1960208301846138e3565b9392505050565b60008060408385031215613c3757613c36613917565b5b6000613c4585828601613a88565b9250506020613c5685828601613a25565b9150509250929050565b600067ffffffffffffffff82169050919050565b613c7d81613c60565b8114613c8857600080fd5b50565b600081359050613c9a81613c74565b92915050565b600060208284031215613cb657613cb5613917565b5b6000613cc484828501613c8b565b91505092915050565b60008060408385031215613ce457613ce3613917565b5b6000613cf285828601613a25565b9250506020613d0385828601613a25565b9150509250929050565b600081519050919050565b600082825260208201905092915050565b6000819050602082019050919050565b613d42816138d9565b82525050565b600082825260208201905092915050565b6000613d6482613b60565b613d6e8185613d48565b9350613d7e818560208601613b7c565b613d8781613ba6565b840191505092915050565b7f4e487b7100000000000000000000000000000000000000000000000000000000600052602160045260246000fd5b60028110613dd257613dd1613d92565b5b50565b6000819050613de382613dc1565b919050565b6000613df382613dd5565b9050919050565b613e0381613de8565b82525050565b613e12816139fc565b82525050565b600061010083016000830151613e316000860182613d39565b5060208301518482036020860152613e498282613d59565b91505060408301518482036040860152613e638282613d59565b9150506060830151613e786060860182613dfa565b506080830151613e8b6080860182613e09565b5060a0830151613e9e60a0860182613e09565b5060c0830151613eb160c0860182613d39565b5060e0830151613ec460e0860182613d39565b508091505092915050565b6000613edb8383613e18565b905092915050565b6000602082019050919050565b6000613efb82613d0d565b613f058185613d18565b935083602082028501613f1785613d29565b8060005b85811015613f535784840389528151613f348582613ecf565b9450613f3f83613ee3565b925060208a01995050600181019050613f1b565b50829750879550505050505092915050565b60006020820190508181036000830152613f7f8184613ef0565b905092915050565b600081519050919050565b600082825260208201905092915050565b6000819050602082019050919050565b6000613fbf8383613d39565b60208301905092915050565b6000602082019050919050565b6000613fe382613f87565b613fed8185613f92565b9350613ff883613fa3565b8060005b838110156140295781516140108882613fb3565b975061401b83613fcb565b925050600181019050613ffc565b5085935050505092915050565b600060208201905081810360008301526140508184613fd8565b905092915050565b60006020828403121561406e5761406d613917565b5b600061407c84828501613b0b565b91505092915050565b60006101008301600083015161409e6000860182613d39565b50602083015184820360208601526140b68282613d59565b915050604083015184820360408601526140d08282613d59565b91505060608301516140e56060860182613dfa565b5060808301516140f86080860182613e09565b5060a083015161410b60a0860182613e09565b5060c083015161411e60c0860182613d39565b5060e083015161413160e0860182613d39565b508091505092915050565b600060208201905081810360008301526141568184614085565b905092915050565b614167816139fc565b82525050565b6000602082019050614182600083018461415e565b92915050565b600080fd5b600080fd5b7f4e487b7100000000000000000000000000000000000000000000000000000000600052604160045260246000fd5b6141ca82613ba6565b810181811067ffffffffffffffff821117156141e9576141e8614192565b5b80604052505050565b60006141fc61390d565b905061420882826141c1565b919050565b600067ffffffffffffffff82111561422857614227614192565b5b61423182613ba6565b9050602081019050919050565b82818337600083830152505050565b600061426061425b8461420d565b6141f2565b90508281526020810184848401111561427c5761427b61418d565b5b61428784828561423e565b509392505050565b600082601f8301126142a4576142a3614188565b5b81356142b484826020860161424d565b91505092915050565b600067ffffffffffffffff8211156142d8576142d7614192565b5b602082029050602081019050919050565b600080fd5b600080fd5b600080fd5b60006040828403121561430e5761430d6142ee565b5b61431860406141f2565b9050600082013567ffffffffffffffff811115614338576143376142f3565b5b6143448482850161428f565b600083015250602061435884828501613b0b565b60208301525092915050565b6000614377614372846142bd565b6141f2565b9050808382526020820190506020840283018581111561439a576143996142e9565b5b835b818110156143e157803567ffffffffffffffff8111156143bf576143be614188565b5b8086016143cc89826142f8565b8552602085019450505060208101905061439c565b5050509392505050565b600082601f830112614400576143ff614188565b5b8135614410848260208601614364565b91505092915050565b600080600080600060a0868803121561443557614434613917565b5b600086013567ffffffffffffffff8111156144535761445261391c565b5b61445f8882890161428f565b955050602086013567ffffffffffffffff8111156144805761447f61391c565b5b61448c8882890161428f565b945050604061449d88828901613a25565b935050606086013567ffffffffffffffff8111156144be576144bd61391c565b5b6144ca888289016143eb565b92505060806144db88828901613b0b565b9150509295509295909350565b600081519050919050565b600082825260208201905092915050565b6000819050602082019050919050565b600060408301600083015184820360008601526145318282613d59565b91505060208301516145466020860182613d39565b508091505092915050565b600061455d8383614514565b905092915050565b6000602082019050919050565b600061457d826144e8565b61458781856144f3565b93508360208202850161459985614504565b8060005b858110156145d557848403895281516145b68582614551565b94506145c183614565565b925060208a0199505060018101905061459d565b50829750879550505050505092915050565b600060208201905081810360008301526146018184614572565b905092915050565b61461281613de8565b82525050565b60006101008201905061462e600083018b6138e3565b8181036020830152614640818a613bb7565b905081810360408301526146548189613bb7565b90506146636060830188614609565b614670608083018761415e565b61467d60a083018661415e565b61468a60c08301856138e3565b61469760e08301846138e3565b9998505050505050505050565b6000806000606084860312156146bd576146bc613917565b5b60006146cb86828701613b0b565b93505060206146dc86828701613c8b565b92505060406146ed86828701613a25565b9150509250925092565b6000806000606084860312156147105761470f613917565b5b600061471e86828701613b0b565b935050602061472f86828701613b0b565b925050604061474086828701613b0b565b9150509250925092565b6000819050919050565b600061476f61476a614765846139dc565b61474a565b6139dc565b9050919050565b600061478182614754565b9050919050565b600061479382614776565b9050919050565b6147a381614788565b82525050565b60006020820190506147be600083018461479a565b92915050565b600080604083850312156147db576147da613917565b5b60006147e985828601613a25565b92505060206147fa85828601613b0b565b9150509250929050565b60008060006060848603121561481d5761481c613917565b5b600061482b86828701613b0b565b935050602061483c86828701613b0b565b925050604061484d86828701613a25565b9150509250925092565b61486081613c60565b82525050565b600060408201905061487b6000830185614857565b614888602083018461415e565b9392505050565b7f4e487b7100000000000000000000000000000000000000000000000000000000600052602260045260246000fd5b600060028204905060018216806148d657607f821691505b6020821081036148e9576148e861488f565b5b50919050565b6000815190506148fe81613af4565b92915050565b60006020828403121561491a57614919613917565b5b6000614928848285016148ef565b91505092915050565b6000604082019050614946600083018561415e565b61495360208301846138e3565b9392505050565b614963816139a6565b811461496e57600080fd5b50565b6000815190506149808161495a565b92915050565b60006020828403121561499c5761499b613917565b5b60006149aa84828501614971565b91505092915050565b7f496e76616c69642061677265656d656e74204944000000000000000000000000600082015250565b60006149e9601483613b6b565b91506149f4826149b3565b602082019050919050565b60006020820190508181036000830152614a18816149dc565b9050919050565b7f4e487b7100000000000000000000000000000000000000000000000000000000600052601160045260246000fd5b6000614a59826138d9565b9150614a64836138d9565b9250828203905081811115614a7c57614a7b614a1f565b5b92915050565b7f4e487b7100000000000000000000000000000000000000000000000000000000600052603260045260246000fd5b7f50726f66657373696f6e616c20616464726573732063616e6e6f74206265207a60008201527f65726f0000000000000000000000000000000000000000000000000000000000602082015250565b6000614b0d602383613b6b565b9150614b1882614ab1565b604082019050919050565b60006020820190508181036000830152614b3c81614b00565b9050919050565b7f536b696c6c73206d757374206e6f7420626520656d7074790000000000000000600082015250565b6000614b79601883613b6b565b9150614b8482614b43565b602082019050919050565b60006020820190508181036000830152614ba881614b6c565b9050919050565b7f5061796d656e7420616d6f756e74206d7573742062652067726561746572207460008201527f68616e207a65726f000000000000000000000000000000000000000000000000602082015250565b6000614c0b602883613b6b565b9150614c1682614baf565b604082019050919050565b60006020820190508181036000830152614c3a81614bfe565b9050919050565b7f50726f66657373696f6e616c20616464726573732063616e6e6f74206265207460008201527f68652073616d6520617320636f6d70616e790000000000000000000000000000602082015250565b6000614c9d603283613b6b565b9150614ca882614c41565b604082019050919050565b60006020820190508181036000830152614ccc81614c90565b9050919050565b6000614cde826138d9565b9150614ce9836138d9565b9250828201905080821115614d0157614d00614a1f565b5b92915050565b7f546f74616c20736b696c6c206c6576656c2063616e6e6f74206578636565642060008201527f3130300000000000000000000000000000000000000000000000000000000000602082015250565b6000614d63602383613b6b565b9150614d6e82614d07565b604082019050919050565b60006020820190508181036000830152614d9281614d56565b9050919050565b60008190508160005260206000209050919050565b60006020601f8301049050919050565b600082821b905092915050565b600060088302614dfb7fffffffffffffffffffffffffffffffffffffffffffffffffffffffffffffffff82614dbe565b614e058683614dbe565b95508019841693508086168417925050509392505050565b6000614e38614e33614e2e846138d9565b61474a565b6138d9565b9050919050565b6000819050919050565b614e5283614e1d565b614e66614e5e82614e3f565b848454614dcb565b825550505050565b600090565b614e7b614e6e565b614e86818484614e49565b505050565b5b81811015614eaa57614e9f600082614e73565b600181019050614e8c565b5050565b601f821115614eef57614ec081614d99565b614ec984614dae565b81016020851015614ed8578190505b614eec614ee485614dae565b830182614e8b565b50505b505050565b600082821c905092915050565b6000614f1260001984600802614ef4565b1980831691505092915050565b6000614f2b8383614f01565b9150826002028217905092915050565b614f4482613b60565b67ffffffffffffffff811115614f5d57614f5c614192565b5b614f6782546148be565b614f72828285614eae565b600060209050601f831160018114614fa55760008415614f93578287015190505b614f9d8582614f1f565b865550615005565b601f198416614fb386614d99565b60005b82811015614fdb57848901518255600182019150602085019450602081019050614fb6565b86831015614ff85784890151614ff4601f891682614f01565b8355505b6001600288020188555050505b505050505050565b600060408201905061502260008301856138e3565b61502f60208301846138e3565b9392505050565b6000615041826138d9565b91507fffffffffffffffffffffffffffffffffffffffffffffffffffffffffffffffff820361507357615072614a1f565b5b600182019050919050565b7f496e76616c6964206665652070657263656e7461676500000000000000000000600082015250565b60006150b4601683613b6b565b91506150bf8261507e565b602082019050919050565b600060208201905081810360008301526150e3816150a7565b9050919050565b7f496e76616c6964207061796d656e7420746f6b656e0000000000000000000000600082015250565b6000615120601583613b6b565b915061512b826150ea565b602082019050919050565b6000602082019050818103600083015261514f81615113565b9050919050565b7f4e487b7100000000000000000000000000000000000000000000000000000000600052601260045260246000fd5b600060608201905061519a600083018661415e565b6151a7602083018561415e565b6151b460408301846138e3565b949350505050565b7f55736572206d75737420617070726f76652074686520616d6f756e74206f662060008201527f7468652061677265656d656e7400000000000000000000000000000000000000602082015250565b6000615218602d83613b6b565b9150615223826151bc565b604082019050919050565b600060208201905081810360008301526152478161520b565b9050919050565b600060608201905061526360008301866138e3565b615270602083018561415e565b61527d604083018461415e565b949350505050565b600060608201905061529a60008301866138e3565b6152a760208301856138e3565b6152b460408301846138e3565b949350505050565b60006020820190506152d16000830184614857565b92915050565b600081519050919050565b600082825260208201905092915050565b60006152fe826152d7565b61530881856152e2565b9350615318818560208601613b7c565b61532181613ba6565b840191505092915050565b600081519050919050565b600082825260208201905092915050565b6000819050602082019050919050565b60408201600082015161536e6000850182613e09565b5060208201516153816020850182613d39565b50505050565b60006153938383615358565b60408301905092915050565b6000602082019050919050565b60006153b78261532c565b6153c18185615337565b93506153cc83615348565b8060005b838110156153fd5781516153e48882615387565b97506153ef8361539f565b9250506001810190506153d0565b5085935050505092915050565b600060a083016000830151848203600086015261542782826152f3565b9150506020830151848203602086015261544182826152f3565b9150506040830151848203604086015261545b82826153ac565b91505060608301516154706060860182613e09565b506080830151848203608086015261548882826152f3565b9150508091505092915050565b60006040820190506154aa6000830185614857565b81810360208301526154bc818461540a565b90509392505050565b6000815190506154d481613a71565b92915050565b6000602082840312156154f0576154ef613917565b5b60006154fe848285016154c5565b91505092915050565b600060a08201905061551c600083018861415e565b615529602083018761415e565b61553660408301866138e3565b615543606083018561415e565b61555060808301846138e3565b9695505050505050565b600060408201905061556f600083018561415e565b61557c6020830184613aca565b9392505050565b61558c816139a6565b82525050565b6040820160008201516155a86000850182613d39565b5060208201516155bb6020850182615583565b50505050565b60006040820190506155d66000830184615592565b9291505056fea2646970667358221220c5d57cbd161d0c0a00502c133bd0e72cc167ee60416044c314993a56dc89567264736f6c63430008170033",
  "linkReferences": {},
  "deployedLinkReferences": {}
}