{
  "_format": "hh-sol-artifact-1",
  "contractName": "AgreementContract",
  "sourceName": "contracts/AgreementContract.sol",
  "abi": [
    {
      "inputs": [
        {
          "internalType": "address",
          "name": "_kyodoTreasury",
          "type": "address"
        },
        {
          "internalType": "address",
          "name": "_communityDAO",
          "type": "address"
        },
        {
          "internalType": "address",
          "name": "admin",
          "type": "address"
        }
      ],
      "stateMutability": "nonpayable",
      "type": "constructor"
    },
    {
      "anonymous": false,
      "inputs": [
        {
          "indexed": true,
          "internalType": "address",
          "name": "company",
          "type": "address"
        },
        {
          "indexed": true,
          "internalType": "address",
          "name": "professional",
          "type": "address"
        },
        {
          "indexed": false,
          "internalType": "uint256",
          "name": "agreementId",
          "type": "uint256"
        },
        {
          "indexed": false,
          "internalType": "uint256",
          "name": "amount",
          "type": "uint256"
        }
      ],
      "name": "AgreementCreated",
      "type": "event"
    },
    {
      "anonymous": false,
      "inputs": [
        {
          "indexed": true,
          "internalType": "address",
          "name": "new_admin",
          "type": "address"
        }
      ],
      "name": "NewAdminAdded",
      "type": "event"
    },
    {
      "anonymous": false,
      "inputs": [
        {
          "indexed": true,
          "internalType": "address",
          "name": "profile",
          "type": "address"
        }
      ],
      "name": "NewProfileAdded",
      "type": "event"
    },
    {
      "anonymous": false,
      "inputs": [
        {
          "indexed": false,
          "internalType": "address",
          "name": "account",
          "type": "address"
        }
      ],
      "name": "Paused",
      "type": "event"
    },
    {
      "anonymous": false,
      "inputs": [
        {
          "indexed": true,
          "internalType": "address",
          "name": "company",
          "type": "address"
        },
        {
          "indexed": true,
          "internalType": "address",
          "name": "professional",
          "type": "address"
        },
        {
          "indexed": false,
          "internalType": "uint256",
          "name": "agreementId",
          "type": "uint256"
        },
        {
          "indexed": false,
          "internalType": "uint256",
          "name": "amount",
          "type": "uint256"
        }
      ],
      "name": "PaymentMade",
      "type": "event"
    },
    {
      "anonymous": false,
      "inputs": [
        {
          "indexed": true,
          "internalType": "address",
          "name": "removed_admin",
          "type": "address"
        }
      ],
      "name": "RemovedAdmin",
      "type": "event"
    },
    {
      "anonymous": false,
      "inputs": [
        {
          "indexed": true,
          "internalType": "bytes32",
          "name": "role",
          "type": "bytes32"
        },
        {
          "indexed": true,
          "internalType": "bytes32",
          "name": "previousAdminRole",
          "type": "bytes32"
        },
        {
          "indexed": true,
          "internalType": "bytes32",
          "name": "newAdminRole",
          "type": "bytes32"
        }
      ],
      "name": "RoleAdminChanged",
      "type": "event"
    },
    {
      "anonymous": false,
      "inputs": [
        {
          "indexed": true,
          "internalType": "bytes32",
          "name": "role",
          "type": "bytes32"
        },
        {
          "indexed": true,
          "internalType": "address",
          "name": "account",
          "type": "address"
        },
        {
          "indexed": true,
          "internalType": "address",
          "name": "sender",
          "type": "address"
        }
      ],
      "name": "RoleGranted",
      "type": "event"
    },
    {
      "anonymous": false,
      "inputs": [
        {
          "indexed": true,
          "internalType": "bytes32",
          "name": "role",
          "type": "bytes32"
        },
        {
          "indexed": true,
          "internalType": "address",
          "name": "account",
          "type": "address"
        },
        {
          "indexed": true,
          "internalType": "address",
          "name": "sender",
          "type": "address"
        }
      ],
      "name": "RoleRevoked",
      "type": "event"
    },
    {
      "anonymous": false,
      "inputs": [
        {
          "indexed": false,
          "internalType": "address",
          "name": "account",
          "type": "address"
        }
      ],
      "name": "Unpaused",
      "type": "event"
    },
    {
      "inputs": [],
      "name": "CHANGE_PARAMETERS",
      "outputs": [
        {
          "internalType": "bytes32",
          "name": "",
          "type": "bytes32"
        }
      ],
      "stateMutability": "view",
      "type": "function"
    },
    {
      "inputs": [],
      "name": "DEFAULT_ADMIN_ROLE",
      "outputs": [
        {
          "internalType": "bytes32",
          "name": "",
          "type": "bytes32"
        }
      ],
      "stateMutability": "view",
      "type": "function"
    },
    {
      "inputs": [],
      "name": "StableVault",
      "outputs": [
        {
          "internalType": "contract IStableVault",
          "name": "",
          "type": "address"
        }
      ],
      "stateMutability": "view",
      "type": "function"
    },
    {
      "inputs": [
        {
          "internalType": "address",
          "name": "",
          "type": "address"
        }
      ],
      "name": "acceptedPaymentTokens",
      "outputs": [
        {
          "internalType": "bool",
          "name": "",
          "type": "bool"
        }
      ],
      "stateMutability": "view",
      "type": "function"
    },
    {
      "inputs": [
        {
          "internalType": "address",
          "name": "_tokenAddress",
          "type": "address"
        }
      ],
      "name": "addAcceptedPaymentToken",
      "outputs": [],
      "stateMutability": "nonpayable",
      "type": "function"
    },
    {
      "inputs": [
        {
          "internalType": "address",
          "name": "account",
          "type": "address"
        }
      ],
      "name": "addAdmin",
      "outputs": [],
      "stateMutability": "nonpayable",
      "type": "function"
    },
    {
      "inputs": [
        {
          "internalType": "address",
          "name": "account",
          "type": "address"
        }
      ],
      "name": "addProfile",
      "outputs": [],
      "stateMutability": "nonpayable",
      "type": "function"
    },
    {
      "inputs": [
        {
          "internalType": "uint256",
          "name": "",
          "type": "uint256"
        },
        {
          "internalType": "uint256",
          "name": "",
          "type": "uint256"
        }
      ],
      "name": "agreementSkills",
      "outputs": [
        {
          "internalType": "string",
          "name": "name",
          "type": "string"
        },
        {
          "internalType": "uint256",
          "name": "level",
          "type": "uint256"
        }
      ],
      "stateMutability": "view",
      "type": "function"
    },
    {
      "inputs": [
        {
          "internalType": "uint256",
          "name": "",
          "type": "uint256"
        }
      ],
      "name": "agreements",
      "outputs": [
        {
          "internalType": "uint256",
          "name": "id",
          "type": "uint256"
        },
        {
          "internalType": "string",
          "name": "title",
          "type": "string"
        },
        {
          "internalType": "string",
          "name": "description",
          "type": "string"
        },
        {
          "internalType": "enum AgreementContract.AgreementStatus",
          "name": "status",
          "type": "uint8"
        },
        {
          "internalType": "address",
          "name": "company",
          "type": "address"
        },
        {
          "internalType": "address",
          "name": "professional",
          "type": "address"
        },
        {
          "internalType": "uint256",
          "name": "paymentAmount",
          "type": "uint256"
        },
        {
          "internalType": "uint256",
          "name": "totalPaid",
          "type": "uint256"
        }
      ],
      "stateMutability": "view",
      "type": "function"
    },
    {
      "inputs": [],
      "name": "communityDAO",
      "outputs": [
        {
          "internalType": "address",
          "name": "",
          "type": "address"
        }
      ],
      "stateMutability": "view",
      "type": "function"
    },
    {
      "inputs": [],
      "name": "communityDAOFee",
      "outputs": [
        {
          "internalType": "uint256",
          "name": "",
          "type": "uint256"
        }
      ],
      "stateMutability": "view",
      "type": "function"
    },
    {
      "inputs": [
        {
          "internalType": "address",
          "name": "",
          "type": "address"
        },
        {
          "internalType": "uint256",
          "name": "",
          "type": "uint256"
        }
      ],
      "name": "contractorAgreements",
      "outputs": [
        {
          "internalType": "uint256",
          "name": "",
          "type": "uint256"
        }
      ],
      "stateMutability": "view",
      "type": "function"
    },
    {
      "inputs": [
        {
          "internalType": "string",
          "name": "_title",
          "type": "string"
        },
        {
          "internalType": "string",
          "name": "_description",
          "type": "string"
        },
        {
          "internalType": "address",
          "name": "_professional",
          "type": "address"
        },
        {
          "components": [
            {
              "internalType": "string",
              "name": "name",
              "type": "string"
            },
            {
              "internalType": "uint256",
              "name": "level",
              "type": "uint256"
            }
          ],
          "internalType": "struct AgreementContract.Skill[]",
          "name": "_skills",
          "type": "tuple[]"
        },
        {
          "internalType": "uint256",
          "name": "_paymentAmount",
          "type": "uint256"
        }
      ],
      "name": "createAgreement",
      "outputs": [],
      "stateMutability": "nonpayable",
      "type": "function"
    },
    {
      "inputs": [],
      "name": "feePercentage",
      "outputs": [
        {
          "internalType": "uint256",
          "name": "",
          "type": "uint256"
        }
      ],
      "stateMutability": "view",
      "type": "function"
    },
    {
      "inputs": [],
      "name": "getAcceptedPaymentTokens",
      "outputs": [
        {
          "internalType": "address",
          "name": "",
          "type": "address"
        }
      ],
      "stateMutability": "view",
      "type": "function"
    },
    {
      "inputs": [
        {
          "internalType": "uint256",
          "name": "_id",
          "type": "uint256"
        }
      ],
      "name": "getAgreementById",
      "outputs": [
        {
          "components": [
            {
              "internalType": "uint256",
              "name": "id",
              "type": "uint256"
            },
            {
              "internalType": "string",
              "name": "title",
              "type": "string"
            },
            {
              "internalType": "string",
              "name": "description",
              "type": "string"
            },
            {
              "internalType": "enum AgreementContract.AgreementStatus",
              "name": "status",
              "type": "uint8"
            },
            {
              "internalType": "address",
              "name": "company",
              "type": "address"
            },
            {
              "internalType": "address",
              "name": "professional",
              "type": "address"
            },
            {
              "internalType": "uint256",
              "name": "paymentAmount",
              "type": "uint256"
            },
            {
              "internalType": "uint256",
              "name": "totalPaid",
              "type": "uint256"
            }
          ],
          "internalType": "struct AgreementContract.Agreement",
          "name": "",
          "type": "tuple"
        }
      ],
      "stateMutability": "view",
      "type": "function"
    },
    {
      "inputs": [],
      "name": "getAgreementCount",
      "outputs": [
        {
          "internalType": "uint256",
          "name": "",
          "type": "uint256"
        }
      ],
      "stateMutability": "view",
      "type": "function"
    },
    {
      "inputs": [],
      "name": "getAllAgreements",
      "outputs": [
        {
          "components": [
            {
              "internalType": "uint256",
              "name": "id",
              "type": "uint256"
            },
            {
              "internalType": "string",
              "name": "title",
              "type": "string"
            },
            {
              "internalType": "string",
              "name": "description",
              "type": "string"
            },
            {
              "internalType": "enum AgreementContract.AgreementStatus",
              "name": "status",
              "type": "uint8"
            },
            {
              "internalType": "address",
              "name": "company",
              "type": "address"
            },
            {
              "internalType": "address",
              "name": "professional",
              "type": "address"
            },
            {
              "internalType": "uint256",
              "name": "paymentAmount",
              "type": "uint256"
            },
            {
              "internalType": "uint256",
              "name": "totalPaid",
              "type": "uint256"
            }
          ],
          "internalType": "struct AgreementContract.Agreement[]",
          "name": "",
          "type": "tuple[]"
        }
      ],
      "stateMutability": "view",
      "type": "function"
    },
    {
      "inputs": [
        {
          "internalType": "address",
          "name": "_contractor",
          "type": "address"
        }
      ],
      "name": "getContractorAgreements",
      "outputs": [
        {
          "internalType": "uint256[]",
          "name": "",
          "type": "uint256[]"
        }
      ],
      "stateMutability": "view",
      "type": "function"
    },
    {
      "inputs": [
        {
          "internalType": "address",
          "name": "_professional",
          "type": "address"
        }
      ],
      "name": "getProfessionalAgreements",
      "outputs": [
        {
          "internalType": "uint256[]",
          "name": "",
          "type": "uint256[]"
        }
      ],
      "stateMutability": "view",
      "type": "function"
    },
    {
      "inputs": [
        {
          "internalType": "bytes32",
          "name": "role",
          "type": "bytes32"
        }
      ],
      "name": "getRoleAdmin",
      "outputs": [
        {
          "internalType": "bytes32",
          "name": "",
          "type": "bytes32"
        }
      ],
      "stateMutability": "view",
      "type": "function"
    },
    {
      "inputs": [
        {
          "internalType": "uint256",
          "name": "_agreementId",
          "type": "uint256"
        }
      ],
      "name": "getSkillsByAgreementId",
      "outputs": [
        {
          "components": [
            {
              "internalType": "string",
              "name": "name",
              "type": "string"
            },
            {
              "internalType": "uint256",
              "name": "level",
              "type": "uint256"
            }
          ],
          "internalType": "struct AgreementContract.Skill[]",
          "name": "",
          "type": "tuple[]"
        }
      ],
      "stateMutability": "view",
      "type": "function"
    },
    {
      "inputs": [
        {
          "internalType": "bytes32",
          "name": "role",
          "type": "bytes32"
        },
        {
          "internalType": "address",
          "name": "account",
          "type": "address"
        }
      ],
      "name": "grantRole",
      "outputs": [],
      "stateMutability": "nonpayable",
      "type": "function"
    },
    {
      "inputs": [
        {
          "internalType": "bytes32",
          "name": "role",
          "type": "bytes32"
        },
        {
          "internalType": "address",
          "name": "account",
          "type": "address"
        }
      ],
      "name": "hasRole",
      "outputs": [
        {
          "internalType": "bool",
          "name": "",
          "type": "bool"
        }
      ],
      "stateMutability": "view",
      "type": "function"
    },
    {
      "inputs": [],
      "name": "kyodoTreasury",
      "outputs": [
        {
          "internalType": "address",
          "name": "",
          "type": "address"
        }
      ],
      "stateMutability": "view",
      "type": "function"
    },
    {
      "inputs": [],
      "name": "kyodoTreasuryFee",
      "outputs": [
        {
          "internalType": "uint256",
          "name": "",
          "type": "uint256"
        }
      ],
      "stateMutability": "view",
      "type": "function"
    },
    {
      "inputs": [
        {
          "internalType": "uint256",
          "name": "_agreementId",
          "type": "uint256"
        },
        {
          "internalType": "uint256",
          "name": "_amountToPay",
          "type": "uint256"
        },
        {
          "internalType": "address",
          "name": "_paymentAddress",
          "type": "address"
        }
      ],
      "name": "makePayment",
      "outputs": [],
      "stateMutability": "nonpayable",
      "type": "function"
    },
    {
      "inputs": [],
      "name": "nextAgreementId",
      "outputs": [
        {
          "internalType": "uint256",
          "name": "",
          "type": "uint256"
        }
      ],
      "stateMutability": "view",
      "type": "function"
    },
    {
      "inputs": [],
      "name": "owner",
      "outputs": [
        {
          "internalType": "address",
          "name": "",
          "type": "address"
        }
      ],
      "stateMutability": "view",
      "type": "function"
    },
    {
      "inputs": [],
      "name": "pause",
      "outputs": [],
      "stateMutability": "nonpayable",
      "type": "function"
    },
    {
      "inputs": [],
      "name": "paused",
      "outputs": [
        {
          "internalType": "bool",
          "name": "",
          "type": "bool"
        }
      ],
      "stateMutability": "view",
      "type": "function"
    },
    {
      "inputs": [
        {
          "internalType": "address",
          "name": "account",
          "type": "address"
        }
      ],
      "name": "removeAdmin",
      "outputs": [],
      "stateMutability": "nonpayable",
      "type": "function"
    },
    {
      "inputs": [
        {
          "internalType": "address",
          "name": "token",
          "type": "address"
        }
      ],
      "name": "removePaymentToken",
      "outputs": [],
      "stateMutability": "nonpayable",
      "type": "function"
    },
    {
      "inputs": [
        {
          "internalType": "bytes32",
          "name": "role",
          "type": "bytes32"
        },
        {
          "internalType": "address",
          "name": "account",
          "type": "address"
        }
      ],
      "name": "renounceRole",
      "outputs": [],
      "stateMutability": "nonpayable",
      "type": "function"
    },
    {
      "inputs": [
        {
          "internalType": "bytes32",
          "name": "role",
          "type": "bytes32"
        },
        {
          "internalType": "address",
          "name": "account",
          "type": "address"
        }
      ],
      "name": "revokeRole",
      "outputs": [],
      "stateMutability": "nonpayable",
      "type": "function"
    },
    {
      "inputs": [
        {
          "internalType": "uint256",
          "name": "_feePercentage",
          "type": "uint256"
        },
        {
          "internalType": "uint256",
          "name": "_kyodoTreasuryFee",
          "type": "uint256"
        },
        {
          "internalType": "uint256",
          "name": "_communityDAOFee",
          "type": "uint256"
        }
      ],
      "name": "setFees",
      "outputs": [],
      "stateMutability": "nonpayable",
      "type": "function"
    },
    {
      "inputs": [
        {
          "internalType": "address",
          "name": "_StableVaultAddress",
          "type": "address"
        }
      ],
      "name": "setStableVaultAddress",
      "outputs": [],
      "stateMutability": "nonpayable",
      "type": "function"
    },
    {
      "inputs": [
        {
          "internalType": "bytes4",
          "name": "interfaceId",
          "type": "bytes4"
        }
      ],
      "name": "supportsInterface",
      "outputs": [
        {
          "internalType": "bool",
          "name": "",
          "type": "bool"
        }
      ],
      "stateMutability": "view",
      "type": "function"
    },
    {
      "inputs": [
        {
          "internalType": "uint256",
          "name": "",
          "type": "uint256"
        }
      ],
      "name": "tokenAddresses",
      "outputs": [
        {
          "internalType": "address",
          "name": "",
          "type": "address"
        }
      ],
      "stateMutability": "view",
      "type": "function"
    },
    {
      "inputs": [],
      "name": "unpause",
      "outputs": [],
      "stateMutability": "nonpayable",
      "type": "function"
    }
  ],
  "bytecode": "0x608060405260016002553480156200001657600080fd5b50604051620049943803806200499483398181016040528101906200003c919062000339565b806000600160006101000a81548160ff0219169083151502179055506200006d6000801b826200016c60201b60201c565b6200009f7f73fd536265c26e6e13263018bc9d82a9b962a7857ae70dac847fd743f5e71535826200016c60201b60201c565b5033600a60006101000a81548173ffffffffffffffffffffffffffffffffffffffff021916908373ffffffffffffffffffffffffffffffffffffffff16021790555082600b60006101000a81548173ffffffffffffffffffffffffffffffffffffffff021916908373ffffffffffffffffffffffffffffffffffffffff16021790555081600c60006101000a81548173ffffffffffffffffffffffffffffffffffffffff021916908373ffffffffffffffffffffffffffffffffffffffff16021790555050505062000395565b6200017e82826200025d60201b60201c565b6200025957600160008084815260200190815260200160002060000160008373ffffffffffffffffffffffffffffffffffffffff1673ffffffffffffffffffffffffffffffffffffffff16815260200190815260200160002060006101000a81548160ff021916908315150217905550620001fe620002c760201b60201c565b73ffffffffffffffffffffffffffffffffffffffff168173ffffffffffffffffffffffffffffffffffffffff16837f2f8788117e7eff1d82e926ec794901d17c78024a50270940304540a733656f0d60405160405180910390a45b5050565b600080600084815260200190815260200160002060000160008373ffffffffffffffffffffffffffffffffffffffff1673ffffffffffffffffffffffffffffffffffffffff16815260200190815260200160002060009054906101000a900460ff16905092915050565b600033905090565b600080fd5b600073ffffffffffffffffffffffffffffffffffffffff82169050919050565b60006200030182620002d4565b9050919050565b6200031381620002f4565b81146200031f57600080fd5b50565b600081519050620003338162000308565b92915050565b600080600060608486031215620003555762000354620002cf565b5b6000620003658682870162000322565b9350506020620003788682870162000322565b92505060406200038b8682870162000322565b9150509250925092565b6145ef80620003a56000396000f3fe608060405234801561001057600080fd5b50600436106102475760003560e01c80638207546e1161013b578063b3f8cb00116100b8578063d547741f1161007c578063d547741f146106e6578063e5df8b8414610702578063f2d64a9614610732578063f38d215d14610750578063fc3f5dff1461078057610247565b8063b3f8cb0014610627578063bd14de9614610657578063c9b99dab1461068e578063c9e92905146106ac578063cec10c11146106ca57610247565b8063a001ecdd116100ff578063a001ecdd14610597578063a06ee2db146105b5578063a217fddf146105d1578063a5125421146105ef578063a86136761461060b57610247565b80638207546e146105035780638456cb59146105215780638da5cb5b1461052b57806391d1485414610549578063964bb4ab1461057957610247565b8063395e5974116101c9578063573fb6241161018d578063573fb6241461045d5780635c975abb1461048d57806370480275146104ab57806377be3d2f146104c75780637d239907146104e557610247565b8063395e5974146103b75780633f4ba83a146103e7578063484bb244146103f15780634e6873c7146104215780634f7cd72f1461043f57610247565b80631785f53c116102105780631785f53c14610302578063248a9ca31461031e57806329db74931461034e5780632f2ff15d1461037f57806336568abe1461039b57610247565b80628bed3e1461024c57806301ffc9a71461026a5780630d1cc18d1461029a57806310143a64146102ca57806313cda3b7146102e6575b600080fd5b61025461079c565b6040516102619190612ac1565b60405180910390f35b610284600480360381019061027f9190612b48565b6107a9565b6040516102919190612b90565b60405180910390f35b6102b460048036038101906102af9190612c09565b610823565b6040516102c19190612cf4565b60405180910390f35b6102e460048036038101906102df9190612c09565b6108ba565b005b61030060048036038101906102fb9190612c09565b610932565b005b61031c60048036038101906103179190612c09565b6109fe565b005b61033860048036038101906103339190612d4c565b610a67565b6040516103459190612d88565b60405180910390f35b61036860048036038101906103639190612dcf565b610a86565b604051610376929190612e9f565b60405180910390f35b61039960048036038101906103949190612ecf565b610b4f565b005b6103b560048036038101906103b09190612ecf565b610b70565b005b6103d160048036038101906103cc9190612c09565b610bf3565b6040516103de9190612cf4565b60405180910390f35b6103ef610c8a565b005b61040b60048036038101906104069190612c09565b610caa565b6040516104189190612b90565b60405180910390f35b610429610cca565b6040516104369190613158565b60405180910390f35b610447610f53565b6040516104549190612d88565b60405180910390f35b6104776004803603810190610472919061317a565b610f77565b604051610484919061325e565b60405180910390f35b61049561123d565b6040516104a29190612b90565b60405180910390f35b6104c560048036038101906104c09190612c09565b611254565b005b6104cf6112bd565b6040516104dc919061328f565b60405180910390f35b6104ed611304565b6040516104fa9190612ac1565b60405180910390f35b61050b61130a565b604051610518919061328f565b60405180910390f35b610529611330565b005b610533611350565b604051610540919061328f565b60405180910390f35b610563600480360381019061055e9190612ecf565b611376565b6040516105709190612b90565b60405180910390f35b6105816113e0565b60405161058e919061328f565b60405180910390f35b61059f611406565b6040516105ac9190612ac1565b60405180910390f35b6105cf60048036038101906105ca9190612c09565b61140c565b005b6105d961145e565b6040516105e69190612d88565b60405180910390f35b61060960048036038101906106049190612c09565b611465565b005b6106256004803603810190610620919061353b565b6114ce565b005b610641600480360381019061063c919061317a565b611a12565b60405161064e9190613709565b60405180910390f35b610671600480360381019061066c919061317a565b611b20565b60405161068598979695949392919061373a565b60405180910390f35b610696611cd5565b6040516106a39190612ac1565b60405180910390f35b6106b4611cdb565b6040516106c19190612ac1565b60405180910390f35b6106e460048036038101906106df91906137c6565b611ce1565b005b61070060048036038101906106fb9190612ecf565b611d5b565b005b61071c6004803603810190610717919061317a565b611d7c565b604051610729919061328f565b60405180910390f35b61073a611dbb565b6040516107479190613878565b60405180910390f35b61076a60048036038101906107659190613893565b611de1565b6040516107779190612ac1565b60405180910390f35b61079a600480360381019061079591906138d3565b611e12565b005b6000600380549050905090565b60007f7965db0b000000000000000000000000000000000000000000000000000000007bffffffffffffffffffffffffffffffffffffffffffffffffffffffff1916827bffffffffffffffffffffffffffffffffffffffffffffffffffffffff1916148061081c575061081b82612398565b5b9050919050565b6060600460008373ffffffffffffffffffffffffffffffffffffffff1673ffffffffffffffffffffffffffffffffffffffff1681526020019081526020016000208054806020026020016040519081016040528092919081815260200182805480156108ae57602002820191906000526020600020905b81548152602001906001019080831161089a575b50505050509050919050565b6108c2612402565b6108ec7f73fd536265c26e6e13263018bc9d82a9b962a7857ae70dac847fd743f5e715358261244c565b8073ffffffffffffffffffffffffffffffffffffffff167f92364d7c14d8a26a040c77305dd885fcd5898051d1b1ead4189b09d5f091159060405160405180910390a250565b6000801b61093f8161252c565b6001600660008473ffffffffffffffffffffffffffffffffffffffff1673ffffffffffffffffffffffffffffffffffffffff16815260200190815260200160002060006101000a81548160ff0219169083151502179055506008829080600181540180825580915050600190039060005260206000200160009091909190916101000a81548173ffffffffffffffffffffffffffffffffffffffff021916908373ffffffffffffffffffffffffffffffffffffffff1602179055505050565b6000801b610a0b8161252c565b610a13612402565b610a206000801b83612540565b8173ffffffffffffffffffffffffffffffffffffffff167f3137a7fedbfedb7895dfa5a6812a4566dae9ded68d00aeec13c6ed1fa84a1c8060405160405180910390a25050565b6000806000838152602001908152602001600020600101549050919050565b60076020528160005260406000208181548110610aa257600080fd5b906000526020600020906002020160009150915050806000018054610ac690613955565b80601f0160208091040260200160405190810160405280929190818152602001828054610af290613955565b8015610b3f5780601f10610b1457610100808354040283529160200191610b3f565b820191906000526020600020905b815481529060010190602001808311610b2257829003601f168201915b5050505050908060010154905082565b610b5882610a67565b610b618161252c565b610b6b838361244c565b505050565b610b78612621565b73ffffffffffffffffffffffffffffffffffffffff168173ffffffffffffffffffffffffffffffffffffffff1614610be5576040517f08c379a0000000000000000000000000000000000000000000000000000000008152600401610bdc906139f8565b60405180910390fd5b610bef8282612540565b5050565b6060600560008373ffffffffffffffffffffffffffffffffffffffff1673ffffffffffffffffffffffffffffffffffffffff168152602001908152602001600020805480602002602001604051908101604052809291908181526020018280548015610c7e57602002820191906000526020600020905b815481526020019060010190808311610c6a575b50505050509050919050565b6000801b610c978161252c565b610c9f612629565b610ca7612672565b50565b60066020528060005260406000206000915054906101000a900460ff1681565b60606003805480602002602001604051908101604052809291908181526020016000905b82821015610f4a57838290600052602060002090600702016040518061010001604052908160008201548152602001600182018054610d2c90613955565b80601f0160208091040260200160405190810160405280929190818152602001828054610d5890613955565b8015610da55780601f10610d7a57610100808354040283529160200191610da5565b820191906000526020600020905b815481529060010190602001808311610d8857829003601f168201915b50505050508152602001600282018054610dbe90613955565b80601f0160208091040260200160405190810160405280929190818152602001828054610dea90613955565b8015610e375780601f10610e0c57610100808354040283529160200191610e37565b820191906000526020600020905b815481529060010190602001808311610e1a57829003601f168201915b505050505081526020016003820160009054906101000a900460ff166001811115610e6557610e64612f85565b5b6001811115610e7757610e76612f85565b5b81526020016003820160019054906101000a900473ffffffffffffffffffffffffffffffffffffffff1673ffffffffffffffffffffffffffffffffffffffff1673ffffffffffffffffffffffffffffffffffffffff1681526020016004820160009054906101000a900473ffffffffffffffffffffffffffffffffffffffff1673ffffffffffffffffffffffffffffffffffffffff1673ffffffffffffffffffffffffffffffffffffffff1681526020016005820154815260200160068201548152505081526020019060010190610cee565b50505050905090565b7f73fd536265c26e6e13263018bc9d82a9b962a7857ae70dac847fd743f5e7153581565b610f7f612a25565b600082118015610f9457506003805490508211155b610fd3576040517f08c379a0000000000000000000000000000000000000000000000000000000008152600401610fca90613a64565b60405180910390fd5b6003600183610fe29190613ab3565b81548110610ff357610ff2613ae7565b5b9060005260206000209060070201604051806101000160405290816000820154815260200160018201805461102790613955565b80601f016020809104026020016040519081016040528092919081815260200182805461105390613955565b80156110a05780601f10611075576101008083540402835291602001916110a0565b820191906000526020600020905b81548152906001019060200180831161108357829003601f168201915b505050505081526020016002820180546110b990613955565b80601f01602080910402602001604051908101604052809291908181526020018280546110e590613955565b80156111325780601f1061110757610100808354040283529160200191611132565b820191906000526020600020905b81548152906001019060200180831161111557829003601f168201915b505050505081526020016003820160009054906101000a900460ff1660018111156111605761115f612f85565b5b600181111561117257611171612f85565b5b81526020016003820160019054906101000a900473ffffffffffffffffffffffffffffffffffffffff1673ffffffffffffffffffffffffffffffffffffffff1673ffffffffffffffffffffffffffffffffffffffff1681526020016004820160009054906101000a900473ffffffffffffffffffffffffffffffffffffffff1673ffffffffffffffffffffffffffffffffffffffff1673ffffffffffffffffffffffffffffffffffffffff168152602001600582015481526020016006820154815250509050919050565b6000600160009054906101000a900460ff16905090565b6000801b6112618161252c565b611269612402565b6112766000801b8361244c565b8173ffffffffffffffffffffffffffffffffffffffff167f2dbe9fb88463d989acccabbb6ee06901f83672eb78e04a11ff48dd8f69a27cda60405160405180910390a25050565b600060086000815481106112d4576112d3613ae7565b5b9060005260206000200160009054906101000a900473ffffffffffffffffffffffffffffffffffffffff16905090565b600e5481565b600c60009054906101000a900473ffffffffffffffffffffffffffffffffffffffff1681565b6000801b61133d8161252c565b611345612402565b61134d6126d5565b50565b600a60009054906101000a900473ffffffffffffffffffffffffffffffffffffffff1681565b600080600084815260200190815260200160002060000160008373ffffffffffffffffffffffffffffffffffffffff1673ffffffffffffffffffffffffffffffffffffffff16815260200190815260200160002060009054906101000a900460ff16905092915050565b600b60009054906101000a900473ffffffffffffffffffffffffffffffffffffffff1681565b600d5481565b6000801b6114198161252c565b81600960006101000a81548173ffffffffffffffffffffffffffffffffffffffff021916908373ffffffffffffffffffffffffffffffffffffffff1602179055505050565b6000801b81565b6000801b6114728161252c565b6000600660008473ffffffffffffffffffffffffffffffffffffffff1673ffffffffffffffffffffffffffffffffffffffff16815260200190815260200160002060006101000a81548160ff0219169083151502179055505050565b600073ffffffffffffffffffffffffffffffffffffffff168373ffffffffffffffffffffffffffffffffffffffff160361153d576040517f08c379a000000000000000000000000000000000000000000000000000000000815260040161153490613b88565b60405180910390fd5b6000825111611581576040517f08c379a000000000000000000000000000000000000000000000000000000000815260040161157890613bf4565b60405180910390fd5b600081116115c4576040517f08c379a00000000000000000000000000000000000000000000000000000000081526004016115bb90613c86565b60405180910390fd5b3373ffffffffffffffffffffffffffffffffffffffff168373ffffffffffffffffffffffffffffffffffffffff1603611632576040517f08c379a000000000000000000000000000000000000000000000000000000000815260040161162990613d18565b60405180910390fd5b600060405180610100016040528060025481526020018781526020018681526020016000600181111561166857611667612f85565b5b81526020013373ffffffffffffffffffffffffffffffffffffffff1681526020018573ffffffffffffffffffffffffffffffffffffffff1681526020018381526020016000815250905060005b83518110156117825760076000600254815260200190815260200160002060405180604001604052808684815181106116f1576116f0613ae7565b5b602002602001015160000151815260200186848151811061171557611714613ae7565b5b602002602001015160200151815250908060018154018082558091505060019003906000526020600020906002020160009091909190915060008201518160000190816117629190613eda565b50602082015181600101555050808061177a90613fac565b9150506116b5565b5060038190806001815401808255809150506001900390600052602060002090600702016000909190919091506000820151816000015560208201518160010190816117ce9190613eda565b5060408201518160020190816117e49190613eda565b5060608201518160030160006101000a81548160ff021916908360018111156118105761180f612f85565b5b021790555060808201518160030160016101000a81548173ffffffffffffffffffffffffffffffffffffffff021916908373ffffffffffffffffffffffffffffffffffffffff16021790555060a08201518160040160006101000a81548173ffffffffffffffffffffffffffffffffffffffff021916908373ffffffffffffffffffffffffffffffffffffffff16021790555060c0820151816005015560e082015181600601555050600460003373ffffffffffffffffffffffffffffffffffffffff1673ffffffffffffffffffffffffffffffffffffffff1681526020019081526020016000206002549080600181540180825580915050600190039060005260206000200160009091909190915055600560008573ffffffffffffffffffffffffffffffffffffffff1673ffffffffffffffffffffffffffffffffffffffff16815260200190815260200160002060025490806001815401808255809150506001900390600052602060002001600090919091909150558373ffffffffffffffffffffffffffffffffffffffff163373ffffffffffffffffffffffffffffffffffffffff167f4969d8f058da37f5b596425a39904e9a027ac23d1865d6efd5df5a5e24eef7de600254856040516119ea929190613ff4565b60405180910390a360026000815480929190611a0590613fac565b9190505550505050505050565b606060076000838152602001908152602001600020805480602002602001604051908101604052809291908181526020016000905b82821015611b155783829060005260206000209060020201604051806040016040529081600082018054611a7a90613955565b80601f0160208091040260200160405190810160405280929190818152602001828054611aa690613955565b8015611af35780601f10611ac857610100808354040283529160200191611af3565b820191906000526020600020905b815481529060010190602001808311611ad657829003601f168201915b5050505050815260200160018201548152505081526020019060010190611a47565b505050509050919050565b60038181548110611b3057600080fd5b9060005260206000209060070201600091509050806000015490806001018054611b5990613955565b80601f0160208091040260200160405190810160405280929190818152602001828054611b8590613955565b8015611bd25780601f10611ba757610100808354040283529160200191611bd2565b820191906000526020600020905b815481529060010190602001808311611bb557829003601f168201915b505050505090806002018054611be790613955565b80601f0160208091040260200160405190810160405280929190818152602001828054611c1390613955565b8015611c605780601f10611c3557610100808354040283529160200191611c60565b820191906000526020600020905b815481529060010190602001808311611c4357829003601f168201915b5050505050908060030160009054906101000a900460ff16908060030160019054906101000a900473ffffffffffffffffffffffffffffffffffffffff16908060040160009054906101000a900473ffffffffffffffffffffffffffffffffffffffff16908060050154908060060154905088565b60025481565b600f5481565b6000801b611cee8161252c565b60008410158015611d0157506103e88411155b611d40576040517f08c379a0000000000000000000000000000000000000000000000000000000008152600401611d3790614069565b60405180910390fd5b83600d8190555082600e8190555081600f8190555050505050565b611d6482610a67565b611d6d8161252c565b611d778383612540565b505050565b60088181548110611d8c57600080fd5b906000526020600020016000915054906101000a900473ffffffffffffffffffffffffffffffffffffffff1681565b600960009054906101000a900473ffffffffffffffffffffffffffffffffffffffff1681565b60046020528160005260406000208181548110611dfd57600080fd5b90600052602060002001600091509150505481565b600083118015611e2757506003805490508311155b611e66576040517f08c379a0000000000000000000000000000000000000000000000000000000008152600401611e5d90613a64565b60405180910390fd5b600660008273ffffffffffffffffffffffffffffffffffffffff1673ffffffffffffffffffffffffffffffffffffffff16815260200190815260200160002060009054906101000a900460ff16611ef2576040517f08c379a0000000000000000000000000000000000000000000000000000000008152600401611ee9906140d5565b60405180910390fd5b60006003600185611f039190613ab3565b81548110611f1457611f13613ae7565b5b906000526020600020906007020190506000806000806000808790506103e8600d54029550620f424089870281611f4e57611f4d6140f5565b5b0494506103e8600e54860281611f6757611f666140f5565b5b049350838503925084890391508073ffffffffffffffffffffffffffffffffffffffff166323b872dd33308c6040518463ffffffff1660e01b8152600401611fb193929190614124565b6020604051808303816000875af1158015611fd0573d6000803e3d6000fd5b505050506040513d601f19601f82011682018060405250810190611ff49190614187565b612033576040517f08c379a000000000000000000000000000000000000000000000000000000000815260040161202a90614226565b60405180910390fd5b8073ffffffffffffffffffffffffffffffffffffffff1663095ea7b3600960009054906101000a900473ffffffffffffffffffffffffffffffffffffffff168b6040518363ffffffff1660e01b8152600401612090929190614246565b6020604051808303816000875af11580156120af573d6000803e3d6000fd5b505050506040513d601f19601f820116820180604052508101906120d39190614187565b50600960009054906101000a900473ffffffffffffffffffffffffffffffffffffffff1673ffffffffffffffffffffffffffffffffffffffff16632e2d298483838a60040160009054906101000a900473ffffffffffffffffffffffffffffffffffffffff166040518463ffffffff1660e01b81526004016121579392919061426f565b600060405180830381600087803b15801561217157600080fd5b505af1158015612185573d6000803e3d6000fd5b50505050600960009054906101000a900473ffffffffffffffffffffffffffffffffffffffff1673ffffffffffffffffffffffffffffffffffffffff16632e2d29848583600b60009054906101000a900473ffffffffffffffffffffffffffffffffffffffff166040518463ffffffff1660e01b815260040161220a9392919061426f565b600060405180830381600087803b15801561222457600080fd5b505af1158015612238573d6000803e3d6000fd5b50505050600960009054906101000a900473ffffffffffffffffffffffffffffffffffffffff1673ffffffffffffffffffffffffffffffffffffffff16632e2d29848483600c60009054906101000a900473ffffffffffffffffffffffffffffffffffffffff166040518463ffffffff1660e01b81526004016122bd9392919061426f565b600060405180830381600087803b1580156122d757600080fd5b505af11580156122eb573d6000803e3d6000fd5b505050508887600601600082825401925050819055508660040160009054906101000a900473ffffffffffffffffffffffffffffffffffffffff1673ffffffffffffffffffffffffffffffffffffffff163373ffffffffffffffffffffffffffffffffffffffff167f1f004c54eef332ef6912dae8f1775c102da23bec79ccf602eaaa072938e96b678c8c604051612384929190613ff4565b60405180910390a350505050505050505050565b60007f01ffc9a7000000000000000000000000000000000000000000000000000000007bffffffffffffffffffffffffffffffffffffffffffffffffffffffff1916827bffffffffffffffffffffffffffffffffffffffffffffffffffffffff1916149050919050565b61240a61123d565b1561244a576040517f08c379a0000000000000000000000000000000000000000000000000000000008152600401612441906142f2565b60405180910390fd5b565b6124568282611376565b61252857600160008084815260200190815260200160002060000160008373ffffffffffffffffffffffffffffffffffffffff1673ffffffffffffffffffffffffffffffffffffffff16815260200190815260200160002060006101000a81548160ff0219169083151502179055506124cd612621565b73ffffffffffffffffffffffffffffffffffffffff168173ffffffffffffffffffffffffffffffffffffffff16837f2f8788117e7eff1d82e926ec794901d17c78024a50270940304540a733656f0d60405160405180910390a45b5050565b61253d81612538612621565b612737565b50565b61254a8282611376565b1561261d57600080600084815260200190815260200160002060000160008373ffffffffffffffffffffffffffffffffffffffff1673ffffffffffffffffffffffffffffffffffffffff16815260200190815260200160002060006101000a81548160ff0219169083151502179055506125c2612621565b73ffffffffffffffffffffffffffffffffffffffff168173ffffffffffffffffffffffffffffffffffffffff16837ff6391f5c32d9c69d2a47ea670b442974b53935d1edc7fd64eb21e047a839171b60405160405180910390a45b5050565b600033905090565b61263161123d565b612670576040517f08c379a00000000000000000000000000000000000000000000000000000000081526004016126679061435e565b60405180910390fd5b565b61267a612629565b6000600160006101000a81548160ff0219169083151502179055507f5db9ee0a495bf2e6ff9c91a7834c1ba4fdd244a5e8aa4e537bd38aeae4b073aa6126be612621565b6040516126cb919061328f565b60405180910390a1565b6126dd612402565b60018060006101000a81548160ff0219169083151502179055507f62e78cea01bee320cd4e420270b5ea74000d11b0c9f74754ebdbfc544b05a258612720612621565b60405161272d919061328f565b60405180910390a1565b6127418282611376565b6127b85761274e816127bc565b61275c8360001c60206127e9565b60405160200161276d929190614452565b6040516020818303038152906040526040517f08c379a00000000000000000000000000000000000000000000000000000000081526004016127af919061448c565b60405180910390fd5b5050565b60606127e28273ffffffffffffffffffffffffffffffffffffffff16601460ff166127e9565b9050919050565b6060600060028360026127fc91906144ae565b61280691906144f0565b67ffffffffffffffff81111561281f5761281e6132b4565b5b6040519080825280601f01601f1916602001820160405280156128515781602001600182028036833780820191505090505b5090507f30000000000000000000000000000000000000000000000000000000000000008160008151811061288957612888613ae7565b5b60200101907effffffffffffffffffffffffffffffffffffffffffffffffffffffffffffff1916908160001a9053507f7800000000000000000000000000000000000000000000000000000000000000816001815181106128ed576128ec613ae7565b5b60200101907effffffffffffffffffffffffffffffffffffffffffffffffffffffffffffff1916908160001a9053506000600184600261292d91906144ae565b61293791906144f0565b90505b60018111156129d7577f3031323334353637383961626364656600000000000000000000000000000000600f86166010811061297957612978613ae7565b5b1a60f81b8282815181106129905761298f613ae7565b5b60200101907effffffffffffffffffffffffffffffffffffffffffffffffffffffffffffff1916908160001a905350600485901c9450806129d090614524565b905061293a565b5060008414612a1b576040517f08c379a0000000000000000000000000000000000000000000000000000000008152600401612a1290614599565b60405180910390fd5b8091505092915050565b60405180610100016040528060008152602001606081526020016060815260200160006001811115612a5a57612a59612f85565b5b8152602001600073ffffffffffffffffffffffffffffffffffffffff168152602001600073ffffffffffffffffffffffffffffffffffffffff16815260200160008152602001600081525090565b6000819050919050565b612abb81612aa8565b82525050565b6000602082019050612ad66000830184612ab2565b92915050565b6000604051905090565b600080fd5b600080fd5b60007fffffffff0000000000000000000000000000000000000000000000000000000082169050919050565b612b2581612af0565b8114612b3057600080fd5b50565b600081359050612b4281612b1c565b92915050565b600060208284031215612b5e57612b5d612ae6565b5b6000612b6c84828501612b33565b91505092915050565b60008115159050919050565b612b8a81612b75565b82525050565b6000602082019050612ba56000830184612b81565b92915050565b600073ffffffffffffffffffffffffffffffffffffffff82169050919050565b6000612bd682612bab565b9050919050565b612be681612bcb565b8114612bf157600080fd5b50565b600081359050612c0381612bdd565b92915050565b600060208284031215612c1f57612c1e612ae6565b5b6000612c2d84828501612bf4565b91505092915050565b600081519050919050565b600082825260208201905092915050565b6000819050602082019050919050565b612c6b81612aa8565b82525050565b6000612c7d8383612c62565b60208301905092915050565b6000602082019050919050565b6000612ca182612c36565b612cab8185612c41565b9350612cb683612c52565b8060005b83811015612ce7578151612cce8882612c71565b9750612cd983612c89565b925050600181019050612cba565b5085935050505092915050565b60006020820190508181036000830152612d0e8184612c96565b905092915050565b6000819050919050565b612d2981612d16565b8114612d3457600080fd5b50565b600081359050612d4681612d20565b92915050565b600060208284031215612d6257612d61612ae6565b5b6000612d7084828501612d37565b91505092915050565b612d8281612d16565b82525050565b6000602082019050612d9d6000830184612d79565b92915050565b612dac81612aa8565b8114612db757600080fd5b50565b600081359050612dc981612da3565b92915050565b60008060408385031215612de657612de5612ae6565b5b6000612df485828601612dba565b9250506020612e0585828601612dba565b9150509250929050565b600081519050919050565b600082825260208201905092915050565b60005b83811015612e49578082015181840152602081019050612e2e565b60008484015250505050565b6000601f19601f8301169050919050565b6000612e7182612e0f565b612e7b8185612e1a565b9350612e8b818560208601612e2b565b612e9481612e55565b840191505092915050565b60006040820190508181036000830152612eb98185612e66565b9050612ec86020830184612ab2565b9392505050565b60008060408385031215612ee657612ee5612ae6565b5b6000612ef485828601612d37565b9250506020612f0585828601612bf4565b9150509250929050565b600081519050919050565b600082825260208201905092915050565b6000819050602082019050919050565b600082825260208201905092915050565b6000612f5782612e0f565b612f618185612f3b565b9350612f71818560208601612e2b565b612f7a81612e55565b840191505092915050565b7f4e487b7100000000000000000000000000000000000000000000000000000000600052602160045260246000fd5b60028110612fc557612fc4612f85565b5b50565b6000819050612fd682612fb4565b919050565b6000612fe682612fc8565b9050919050565b612ff681612fdb565b82525050565b61300581612bcb565b82525050565b6000610100830160008301516130246000860182612c62565b506020830151848203602086015261303c8282612f4c565b915050604083015184820360408601526130568282612f4c565b915050606083015161306b6060860182612fed565b50608083015161307e6080860182612ffc565b5060a083015161309160a0860182612ffc565b5060c08301516130a460c0860182612c62565b5060e08301516130b760e0860182612c62565b508091505092915050565b60006130ce838361300b565b905092915050565b6000602082019050919050565b60006130ee82612f0f565b6130f88185612f1a565b93508360208202850161310a85612f2b565b8060005b85811015613146578484038952815161312785826130c2565b9450613132836130d6565b925060208a0199505060018101905061310e565b50829750879550505050505092915050565b6000602082019050818103600083015261317281846130e3565b905092915050565b6000602082840312156131905761318f612ae6565b5b600061319e84828501612dba565b91505092915050565b6000610100830160008301516131c06000860182612c62565b50602083015184820360208601526131d88282612f4c565b915050604083015184820360408601526131f28282612f4c565b91505060608301516132076060860182612fed565b50608083015161321a6080860182612ffc565b5060a083015161322d60a0860182612ffc565b5060c083015161324060c0860182612c62565b5060e083015161325360e0860182612c62565b508091505092915050565b6000602082019050818103600083015261327881846131a7565b905092915050565b61328981612bcb565b82525050565b60006020820190506132a46000830184613280565b92915050565b600080fd5b600080fd5b7f4e487b7100000000000000000000000000000000000000000000000000000000600052604160045260246000fd5b6132ec82612e55565b810181811067ffffffffffffffff8211171561330b5761330a6132b4565b5b80604052505050565b600061331e612adc565b905061332a82826132e3565b919050565b600067ffffffffffffffff82111561334a576133496132b4565b5b61335382612e55565b9050602081019050919050565b82818337600083830152505050565b600061338261337d8461332f565b613314565b90508281526020810184848401111561339e5761339d6132af565b5b6133a9848285613360565b509392505050565b600082601f8301126133c6576133c56132aa565b5b81356133d684826020860161336f565b91505092915050565b600067ffffffffffffffff8211156133fa576133f96132b4565b5b602082029050602081019050919050565b600080fd5b600080fd5b600080fd5b6000604082840312156134305761342f613410565b5b61343a6040613314565b9050600082013567ffffffffffffffff81111561345a57613459613415565b5b613466848285016133b1565b600083015250602061347a84828501612dba565b60208301525092915050565b6000613499613494846133df565b613314565b905080838252602082019050602084028301858111156134bc576134bb61340b565b5b835b8181101561350357803567ffffffffffffffff8111156134e1576134e06132aa565b5b8086016134ee898261341a565b855260208501945050506020810190506134be565b5050509392505050565b600082601f830112613522576135216132aa565b5b8135613532848260208601613486565b91505092915050565b600080600080600060a0868803121561355757613556612ae6565b5b600086013567ffffffffffffffff81111561357557613574612aeb565b5b613581888289016133b1565b955050602086013567ffffffffffffffff8111156135a2576135a1612aeb565b5b6135ae888289016133b1565b94505060406135bf88828901612bf4565b935050606086013567ffffffffffffffff8111156135e0576135df612aeb565b5b6135ec8882890161350d565b92505060806135fd88828901612dba565b9150509295509295909350565b600081519050919050565b600082825260208201905092915050565b6000819050602082019050919050565b600060408301600083015184820360008601526136538282612f4c565b91505060208301516136686020860182612c62565b508091505092915050565b600061367f8383613636565b905092915050565b6000602082019050919050565b600061369f8261360a565b6136a98185613615565b9350836020820285016136bb85613626565b8060005b858110156136f757848403895281516136d88582613673565b94506136e383613687565b925060208a019950506001810190506136bf565b50829750879550505050505092915050565b600060208201905081810360008301526137238184613694565b905092915050565b61373481612fdb565b82525050565b600061010082019050613750600083018b612ab2565b8181036020830152613762818a612e66565b905081810360408301526137768189612e66565b9050613785606083018861372b565b6137926080830187613280565b61379f60a0830186613280565b6137ac60c0830185612ab2565b6137b960e0830184612ab2565b9998505050505050505050565b6000806000606084860312156137df576137de612ae6565b5b60006137ed86828701612dba565b93505060206137fe86828701612dba565b925050604061380f86828701612dba565b9150509250925092565b6000819050919050565b600061383e61383961383484612bab565b613819565b612bab565b9050919050565b600061385082613823565b9050919050565b600061386282613845565b9050919050565b61387281613857565b82525050565b600060208201905061388d6000830184613869565b92915050565b600080604083850312156138aa576138a9612ae6565b5b60006138b885828601612bf4565b92505060206138c985828601612dba565b9150509250929050565b6000806000606084860312156138ec576138eb612ae6565b5b60006138fa86828701612dba565b935050602061390b86828701612dba565b925050604061391c86828701612bf4565b9150509250925092565b7f4e487b7100000000000000000000000000000000000000000000000000000000600052602260045260246000fd5b6000600282049050600182168061396d57607f821691505b6020821081036139805761397f613926565b5b50919050565b7f416363657373436f6e74726f6c3a2063616e206f6e6c792072656e6f756e636560008201527f20726f6c657320666f722073656c660000000000000000000000000000000000602082015250565b60006139e2602f83612e1a565b91506139ed82613986565b604082019050919050565b60006020820190508181036000830152613a11816139d5565b9050919050565b7f496e76616c69642061677265656d656e74204944000000000000000000000000600082015250565b6000613a4e601483612e1a565b9150613a5982613a18565b602082019050919050565b60006020820190508181036000830152613a7d81613a41565b9050919050565b7f4e487b7100000000000000000000000000000000000000000000000000000000600052601160045260246000fd5b6000613abe82612aa8565b9150613ac983612aa8565b9250828203905081811115613ae157613ae0613a84565b5b92915050565b7f4e487b7100000000000000000000000000000000000000000000000000000000600052603260045260246000fd5b7f50726f66657373696f6e616c20616464726573732063616e6e6f74206265207a60008201527f65726f0000000000000000000000000000000000000000000000000000000000602082015250565b6000613b72602383612e1a565b9150613b7d82613b16565b604082019050919050565b60006020820190508181036000830152613ba181613b65565b9050919050565b7f536b696c6c73206d757374206e6f7420626520656d7074790000000000000000600082015250565b6000613bde601883612e1a565b9150613be982613ba8565b602082019050919050565b60006020820190508181036000830152613c0d81613bd1565b9050919050565b7f5061796d656e7420616d6f756e74206d7573742062652067726561746572207460008201527f68616e207a65726f000000000000000000000000000000000000000000000000602082015250565b6000613c70602883612e1a565b9150613c7b82613c14565b604082019050919050565b60006020820190508181036000830152613c9f81613c63565b9050919050565b7f50726f66657373696f6e616c20616464726573732063616e6e6f74206265207460008201527f68652073616d6520617320636f6d70616e790000000000000000000000000000602082015250565b6000613d02603283612e1a565b9150613d0d82613ca6565b604082019050919050565b60006020820190508181036000830152613d3181613cf5565b9050919050565b60008190508160005260206000209050919050565b60006020601f8301049050919050565b600082821b905092915050565b600060088302613d9a7fffffffffffffffffffffffffffffffffffffffffffffffffffffffffffffffff82613d5d565b613da48683613d5d565b95508019841693508086168417925050509392505050565b6000613dd7613dd2613dcd84612aa8565b613819565b612aa8565b9050919050565b6000819050919050565b613df183613dbc565b613e05613dfd82613dde565b848454613d6a565b825550505050565b600090565b613e1a613e0d565b613e25818484613de8565b505050565b5b81811015613e4957613e3e600082613e12565b600181019050613e2b565b5050565b601f821115613e8e57613e5f81613d38565b613e6884613d4d565b81016020851015613e77578190505b613e8b613e8385613d4d565b830182613e2a565b50505b505050565b600082821c905092915050565b6000613eb160001984600802613e93565b1980831691505092915050565b6000613eca8383613ea0565b9150826002028217905092915050565b613ee382612e0f565b67ffffffffffffffff811115613efc57613efb6132b4565b5b613f068254613955565b613f11828285613e4d565b600060209050601f831160018114613f445760008415613f32578287015190505b613f3c8582613ebe565b865550613fa4565b601f198416613f5286613d38565b60005b82811015613f7a57848901518255600182019150602085019450602081019050613f55565b86831015613f975784890151613f93601f891682613ea0565b8355505b6001600288020188555050505b505050505050565b6000613fb782612aa8565b91507fffffffffffffffffffffffffffffffffffffffffffffffffffffffffffffffff8203613fe957613fe8613a84565b5b600182019050919050565b60006040820190506140096000830185612ab2565b6140166020830184612ab2565b9392505050565b7f496e76616c6964206665652070657263656e7461676500000000000000000000600082015250565b6000614053601683612e1a565b915061405e8261401d565b602082019050919050565b6000602082019050818103600083015261408281614046565b9050919050565b7f496e76616c6964207061796d656e7420746f6b656e0000000000000000000000600082015250565b60006140bf601583612e1a565b91506140ca82614089565b602082019050919050565b600060208201905081810360008301526140ee816140b2565b9050919050565b7f4e487b7100000000000000000000000000000000000000000000000000000000600052601260045260246000fd5b60006060820190506141396000830186613280565b6141466020830185613280565b6141536040830184612ab2565b949350505050565b61416481612b75565b811461416f57600080fd5b50565b6000815190506141818161415b565b92915050565b60006020828403121561419d5761419c612ae6565b5b60006141ab84828501614172565b91505092915050565b7f55736572206d75737420617070726f76652074686520616d6f756e74206f662060008201527f7468652061677265656d656e7400000000000000000000000000000000000000602082015250565b6000614210602d83612e1a565b915061421b826141b4565b604082019050919050565b6000602082019050818103600083015261423f81614203565b9050919050565b600060408201905061425b6000830185613280565b6142686020830184612ab2565b9392505050565b60006060820190506142846000830186612ab2565b6142916020830185613280565b61429e6040830184613280565b949350505050565b7f5061757361626c653a2070617573656400000000000000000000000000000000600082015250565b60006142dc601083612e1a565b91506142e7826142a6565b602082019050919050565b6000602082019050818103600083015261430b816142cf565b9050919050565b7f5061757361626c653a206e6f7420706175736564000000000000000000000000600082015250565b6000614348601483612e1a565b915061435382614312565b602082019050919050565b600060208201905081810360008301526143778161433b565b9050919050565b600081905092915050565b7f416363657373436f6e74726f6c3a206163636f756e7420000000000000000000600082015250565b60006143bf60178361437e565b91506143ca82614389565b601782019050919050565b60006143e082612e0f565b6143ea818561437e565b93506143fa818560208601612e2b565b80840191505092915050565b7f206973206d697373696e6720726f6c6520000000000000000000000000000000600082015250565b600061443c60118361437e565b915061444782614406565b601182019050919050565b600061445d826143b2565b915061446982856143d5565b91506144748261442f565b915061448082846143d5565b91508190509392505050565b600060208201905081810360008301526144a68184612e66565b905092915050565b60006144b982612aa8565b91506144c483612aa8565b92508282026144d281612aa8565b915082820484148315176144e9576144e8613a84565b5b5092915050565b60006144fb82612aa8565b915061450683612aa8565b925082820190508082111561451e5761451d613a84565b5b92915050565b600061452f82612aa8565b91506000820361454257614541613a84565b5b600182039050919050565b7f537472696e67733a20686578206c656e67746820696e73756666696369656e74600082015250565b6000614583602083612e1a565b915061458e8261454d565b602082019050919050565b600060208201905081810360008301526145b281614576565b905091905056fea26469706673582212206e1426134d41936bd49cd6c56602103167df2d5c4b226916f8dd9e88d755dc6364736f6c63430008140033",
  "linkReferences": {},
  "deployedLinkReferences": {}
}