{
  "_format": "hh-sol-artifact-1",
  "contractName": "AgreementContract",
  "sourceName": "contracts/AgreementContract.sol",
  "abi": [
    {
      "inputs": [
        {
          "internalType": "address",
          "name": "_kyodoTreasury",
          "type": "address"
        },
        {
          "internalType": "uint256",
          "name": "_kyodoProtocolFee",
          "type": "uint256"
        },
        {
          "internalType": "address",
          "name": "admin",
          "type": "address"
        }
      ],
      "stateMutability": "nonpayable",
      "type": "constructor"
    },
    {
      "anonymous": false,
      "inputs": [
        {
          "indexed": true,
          "internalType": "address",
          "name": "company",
          "type": "address"
        },
        {
          "indexed": true,
          "internalType": "address",
          "name": "professional",
          "type": "address"
        },
        {
          "indexed": false,
          "internalType": "uint256",
          "name": "agreementId",
          "type": "uint256"
        },
        {
          "indexed": false,
          "internalType": "uint256",
          "name": "amount",
          "type": "uint256"
        }
      ],
      "name": "AgreementCreated",
      "type": "event"
    },
    {
      "anonymous": false,
      "inputs": [
        {
          "indexed": true,
          "internalType": "address",
          "name": "new_admin",
          "type": "address"
        }
      ],
      "name": "NewAdminAdded",
      "type": "event"
    },
    {
      "anonymous": false,
      "inputs": [
        {
          "indexed": true,
          "internalType": "address",
          "name": "profile",
          "type": "address"
        }
      ],
      "name": "NewProfileAdded",
      "type": "event"
    },
    {
      "anonymous": false,
      "inputs": [
        {
          "indexed": false,
          "internalType": "address",
          "name": "account",
          "type": "address"
        }
      ],
      "name": "Paused",
      "type": "event"
    },
    {
      "anonymous": false,
      "inputs": [
        {
          "indexed": true,
          "internalType": "address",
          "name": "company",
          "type": "address"
        },
        {
          "indexed": true,
          "internalType": "address",
          "name": "professional",
          "type": "address"
        },
        {
          "indexed": false,
          "internalType": "uint256",
          "name": "agreementId",
          "type": "uint256"
        },
        {
          "indexed": false,
          "internalType": "uint256",
          "name": "amount",
          "type": "uint256"
        }
      ],
      "name": "PaymentMade",
      "type": "event"
    },
    {
      "anonymous": false,
      "inputs": [
        {
          "indexed": true,
          "internalType": "address",
          "name": "removed_admin",
          "type": "address"
        }
      ],
      "name": "RemovedAdmin",
      "type": "event"
    },
    {
      "anonymous": false,
      "inputs": [
        {
          "indexed": true,
          "internalType": "bytes32",
          "name": "role",
          "type": "bytes32"
        },
        {
          "indexed": true,
          "internalType": "bytes32",
          "name": "previousAdminRole",
          "type": "bytes32"
        },
        {
          "indexed": true,
          "internalType": "bytes32",
          "name": "newAdminRole",
          "type": "bytes32"
        }
      ],
      "name": "RoleAdminChanged",
      "type": "event"
    },
    {
      "anonymous": false,
      "inputs": [
        {
          "indexed": true,
          "internalType": "bytes32",
          "name": "role",
          "type": "bytes32"
        },
        {
          "indexed": true,
          "internalType": "address",
          "name": "account",
          "type": "address"
        },
        {
          "indexed": true,
          "internalType": "address",
          "name": "sender",
          "type": "address"
        }
      ],
      "name": "RoleGranted",
      "type": "event"
    },
    {
      "anonymous": false,
      "inputs": [
        {
          "indexed": true,
          "internalType": "bytes32",
          "name": "role",
          "type": "bytes32"
        },
        {
          "indexed": true,
          "internalType": "address",
          "name": "account",
          "type": "address"
        },
        {
          "indexed": true,
          "internalType": "address",
          "name": "sender",
          "type": "address"
        }
      ],
      "name": "RoleRevoked",
      "type": "event"
    },
    {
      "anonymous": false,
      "inputs": [
        {
          "indexed": false,
          "internalType": "address",
          "name": "account",
          "type": "address"
        }
      ],
      "name": "Unpaused",
      "type": "event"
    },
    {
      "inputs": [],
      "name": "CHANGE_PARAMETERS",
      "outputs": [
        {
          "internalType": "bytes32",
          "name": "",
          "type": "bytes32"
        }
      ],
      "stateMutability": "view",
      "type": "function"
    },
    {
      "inputs": [],
      "name": "DEFAULT_ADMIN_ROLE",
      "outputs": [
        {
          "internalType": "bytes32",
          "name": "",
          "type": "bytes32"
        }
      ],
      "stateMutability": "view",
      "type": "function"
    },
    {
      "inputs": [
        {
          "internalType": "address",
          "name": "",
          "type": "address"
        }
      ],
      "name": "acceptedPaymentTokens",
      "outputs": [
        {
          "internalType": "bool",
          "name": "",
          "type": "bool"
        }
      ],
      "stateMutability": "view",
      "type": "function"
    },
    {
      "inputs": [
        {
          "internalType": "address",
          "name": "_tokenAddress",
          "type": "address"
        }
      ],
      "name": "addAcceptedPaymentToken",
      "outputs": [],
      "stateMutability": "nonpayable",
      "type": "function"
    },
    {
      "inputs": [
        {
          "internalType": "address",
          "name": "account",
          "type": "address"
        }
      ],
      "name": "addAdmin",
      "outputs": [],
      "stateMutability": "nonpayable",
      "type": "function"
    },
    {
      "inputs": [
        {
          "internalType": "address",
          "name": "account",
          "type": "address"
        }
      ],
      "name": "addProfile",
      "outputs": [],
      "stateMutability": "nonpayable",
      "type": "function"
    },
    {
      "inputs": [
        {
          "internalType": "uint256",
          "name": "",
          "type": "uint256"
        },
        {
          "internalType": "uint256",
          "name": "",
          "type": "uint256"
        }
      ],
      "name": "agreementSkills",
      "outputs": [
        {
          "internalType": "string",
          "name": "name",
          "type": "string"
        },
        {
          "internalType": "uint256",
          "name": "level",
          "type": "uint256"
        }
      ],
      "stateMutability": "view",
      "type": "function"
    },
    {
      "inputs": [
        {
          "internalType": "uint256",
          "name": "",
          "type": "uint256"
        }
      ],
      "name": "agreements",
      "outputs": [
        {
          "internalType": "uint256",
          "name": "id",
          "type": "uint256"
        },
        {
          "internalType": "string",
          "name": "title",
          "type": "string"
        },
        {
          "internalType": "string",
          "name": "description",
          "type": "string"
        },
        {
          "internalType": "enum IAgreementContract.AgreementStatus",
          "name": "status",
          "type": "uint8"
        },
        {
          "internalType": "address",
          "name": "company",
          "type": "address"
        },
        {
          "internalType": "address",
          "name": "professional",
          "type": "address"
        },
        {
          "internalType": "uint256",
          "name": "paymentAmount",
          "type": "uint256"
        },
        {
          "internalType": "uint256",
          "name": "totalPaid",
          "type": "uint256"
        },
        {
          "internalType": "uint256",
          "name": "fee",
          "type": "uint256"
        }
      ],
      "stateMutability": "view",
      "type": "function"
    },
    {
      "inputs": [
        {
          "internalType": "address",
          "name": "",
          "type": "address"
        },
        {
          "internalType": "uint256",
          "name": "",
          "type": "uint256"
        }
      ],
      "name": "contractorAgreements",
      "outputs": [
        {
          "internalType": "uint256",
          "name": "",
          "type": "uint256"
        }
      ],
      "stateMutability": "view",
      "type": "function"
    },
    {
      "inputs": [
        {
          "internalType": "string",
          "name": "_title",
          "type": "string"
        },
        {
          "internalType": "string",
          "name": "_description",
          "type": "string"
        },
        {
          "internalType": "address",
          "name": "_professional",
          "type": "address"
        },
        {
          "components": [
            {
              "internalType": "string",
              "name": "name",
              "type": "string"
            },
            {
              "internalType": "uint256",
              "name": "level",
              "type": "uint256"
            }
          ],
          "internalType": "struct IAgreementContract.Skill[]",
          "name": "_skills",
          "type": "tuple[]"
        },
        {
          "internalType": "uint256",
          "name": "_paymentAmount",
          "type": "uint256"
        }
      ],
      "name": "createAgreement",
      "outputs": [],
      "stateMutability": "nonpayable",
      "type": "function"
    },
    {
      "inputs": [],
      "name": "feePercentage",
      "outputs": [
        {
          "internalType": "uint256",
          "name": "",
          "type": "uint256"
        }
      ],
      "stateMutability": "view",
      "type": "function"
    },
    {
      "inputs": [],
      "name": "getAcceptedPaymentTokens",
      "outputs": [
        {
          "internalType": "address",
          "name": "",
          "type": "address"
        }
      ],
      "stateMutability": "view",
      "type": "function"
    },
    {
      "inputs": [
        {
          "internalType": "uint256",
          "name": "_id",
          "type": "uint256"
        }
      ],
      "name": "getAgreementById",
      "outputs": [
        {
          "components": [
            {
              "internalType": "uint256",
              "name": "id",
              "type": "uint256"
            },
            {
              "internalType": "string",
              "name": "title",
              "type": "string"
            },
            {
              "internalType": "string",
              "name": "description",
              "type": "string"
            },
            {
              "internalType": "enum IAgreementContract.AgreementStatus",
              "name": "status",
              "type": "uint8"
            },
            {
              "internalType": "address",
              "name": "company",
              "type": "address"
            },
            {
              "internalType": "address",
              "name": "professional",
              "type": "address"
            },
            {
              "internalType": "uint256",
              "name": "paymentAmount",
              "type": "uint256"
            },
            {
              "internalType": "uint256",
              "name": "totalPaid",
              "type": "uint256"
            },
            {
              "internalType": "uint256",
              "name": "fee",
              "type": "uint256"
            }
          ],
          "internalType": "struct IAgreementContract.Agreement",
          "name": "",
          "type": "tuple"
        }
      ],
      "stateMutability": "view",
      "type": "function"
    },
    {
      "inputs": [],
      "name": "getAgreementCount",
      "outputs": [
        {
          "internalType": "uint256",
          "name": "",
          "type": "uint256"
        }
      ],
      "stateMutability": "view",
      "type": "function"
    },
    {
      "inputs": [],
      "name": "getAllAgreements",
      "outputs": [
        {
          "components": [
            {
              "internalType": "uint256",
              "name": "id",
              "type": "uint256"
            },
            {
              "internalType": "string",
              "name": "title",
              "type": "string"
            },
            {
              "internalType": "string",
              "name": "description",
              "type": "string"
            },
            {
              "internalType": "enum IAgreementContract.AgreementStatus",
              "name": "status",
              "type": "uint8"
            },
            {
              "internalType": "address",
              "name": "company",
              "type": "address"
            },
            {
              "internalType": "address",
              "name": "professional",
              "type": "address"
            },
            {
              "internalType": "uint256",
              "name": "paymentAmount",
              "type": "uint256"
            },
            {
              "internalType": "uint256",
              "name": "totalPaid",
              "type": "uint256"
            },
            {
              "internalType": "uint256",
              "name": "fee",
              "type": "uint256"
            }
          ],
          "internalType": "struct IAgreementContract.Agreement[]",
          "name": "",
          "type": "tuple[]"
        }
      ],
      "stateMutability": "view",
      "type": "function"
    },
    {
      "inputs": [
        {
          "internalType": "address",
          "name": "_contractor",
          "type": "address"
        }
      ],
      "name": "getContractorAgreementIds",
      "outputs": [
        {
          "internalType": "uint256[]",
          "name": "",
          "type": "uint256[]"
        }
      ],
      "stateMutability": "view",
      "type": "function"
    },
    {
      "inputs": [],
      "name": "getFee",
      "outputs": [
        {
          "internalType": "uint256",
          "name": "",
          "type": "uint256"
        }
      ],
      "stateMutability": "view",
      "type": "function"
    },
    {
      "inputs": [
        {
          "internalType": "address",
          "name": "_professional",
          "type": "address"
        }
      ],
      "name": "getProfessionalAgreementIds",
      "outputs": [
        {
          "internalType": "uint256[]",
          "name": "",
          "type": "uint256[]"
        }
      ],
      "stateMutability": "view",
      "type": "function"
    },
    {
      "inputs": [
        {
          "internalType": "bytes32",
          "name": "role",
          "type": "bytes32"
        }
      ],
      "name": "getRoleAdmin",
      "outputs": [
        {
          "internalType": "bytes32",
          "name": "",
          "type": "bytes32"
        }
      ],
      "stateMutability": "view",
      "type": "function"
    },
    {
      "inputs": [
        {
          "internalType": "uint256",
          "name": "_agreementId",
          "type": "uint256"
        }
      ],
      "name": "getSkillsByAgreementId",
      "outputs": [
        {
          "components": [
            {
              "internalType": "string",
              "name": "name",
              "type": "string"
            },
            {
              "internalType": "uint256",
              "name": "level",
              "type": "uint256"
            }
          ],
          "internalType": "struct IAgreementContract.Skill[]",
          "name": "",
          "type": "tuple[]"
        }
      ],
      "stateMutability": "view",
      "type": "function"
    },
    {
      "inputs": [
        {
          "internalType": "bytes32",
          "name": "role",
          "type": "bytes32"
        },
        {
          "internalType": "address",
          "name": "account",
          "type": "address"
        }
      ],
      "name": "grantRole",
      "outputs": [],
      "stateMutability": "nonpayable",
      "type": "function"
    },
    {
      "inputs": [
        {
          "internalType": "bytes32",
          "name": "role",
          "type": "bytes32"
        },
        {
          "internalType": "address",
          "name": "account",
          "type": "address"
        }
      ],
      "name": "hasRole",
      "outputs": [
        {
          "internalType": "bool",
          "name": "",
          "type": "bool"
        }
      ],
      "stateMutability": "view",
      "type": "function"
    },
    {
      "inputs": [],
      "name": "kyodoProtocolFee",
      "outputs": [
        {
          "internalType": "uint256",
          "name": "",
          "type": "uint256"
        }
      ],
      "stateMutability": "view",
      "type": "function"
    },
    {
      "inputs": [],
      "name": "kyodoTreasury",
      "outputs": [
        {
          "internalType": "address",
          "name": "",
          "type": "address"
        }
      ],
      "stateMutability": "view",
      "type": "function"
    },
    {
      "inputs": [
        {
          "internalType": "uint256",
          "name": "_agreementId",
          "type": "uint256"
        },
        {
          "internalType": "uint256",
          "name": "_amountToPay",
          "type": "uint256"
        },
        {
          "internalType": "address",
          "name": "_paymentAddress",
          "type": "address"
        }
      ],
      "name": "makePayment",
      "outputs": [],
      "stateMutability": "nonpayable",
      "type": "function"
    },
    {
      "inputs": [],
      "name": "nextAgreementId",
      "outputs": [
        {
          "internalType": "uint256",
          "name": "",
          "type": "uint256"
        }
      ],
      "stateMutability": "view",
      "type": "function"
    },
    {
      "inputs": [],
      "name": "pause",
      "outputs": [],
      "stateMutability": "nonpayable",
      "type": "function"
    },
    {
      "inputs": [],
      "name": "paused",
      "outputs": [
        {
          "internalType": "bool",
          "name": "",
          "type": "bool"
        }
      ],
      "stateMutability": "view",
      "type": "function"
    },
    {
      "inputs": [
        {
          "internalType": "address",
          "name": "account",
          "type": "address"
        }
      ],
      "name": "removeAdmin",
      "outputs": [],
      "stateMutability": "nonpayable",
      "type": "function"
    },
    {
      "inputs": [
        {
          "internalType": "address",
          "name": "token",
          "type": "address"
        }
      ],
      "name": "removePaymentToken",
      "outputs": [],
      "stateMutability": "nonpayable",
      "type": "function"
    },
    {
      "inputs": [
        {
          "internalType": "bytes32",
          "name": "role",
          "type": "bytes32"
        },
        {
          "internalType": "address",
          "name": "account",
          "type": "address"
        }
      ],
      "name": "renounceRole",
      "outputs": [],
      "stateMutability": "nonpayable",
      "type": "function"
    },
    {
      "inputs": [
        {
          "internalType": "bytes32",
          "name": "role",
          "type": "bytes32"
        },
        {
          "internalType": "address",
          "name": "account",
          "type": "address"
        }
      ],
      "name": "revokeRole",
      "outputs": [],
      "stateMutability": "nonpayable",
      "type": "function"
    },
    {
      "inputs": [
        {
          "internalType": "bytes4",
          "name": "interfaceId",
          "type": "bytes4"
        }
      ],
      "name": "supportsInterface",
      "outputs": [
        {
          "internalType": "bool",
          "name": "",
          "type": "bool"
        }
      ],
      "stateMutability": "view",
      "type": "function"
    },
    {
      "inputs": [
        {
          "internalType": "uint256",
          "name": "",
          "type": "uint256"
        }
      ],
      "name": "tokenAddresses",
      "outputs": [
        {
          "internalType": "address",
          "name": "",
          "type": "address"
        }
      ],
      "stateMutability": "view",
      "type": "function"
    },
    {
      "inputs": [],
      "name": "unpause",
      "outputs": [],
      "stateMutability": "nonpayable",
      "type": "function"
    },
    {
      "inputs": [
        {
          "internalType": "uint256",
          "name": "_kyodoProtocolFee",
          "type": "uint256"
        }
      ],
      "name": "updateFee",
      "outputs": [],
      "stateMutability": "nonpayable",
      "type": "function"
    }
  ],
  "bytecode": "0x608060405260016002553480156200001657600080fd5b50604051620047c4380380620047c483398181016040528101906200003c9190620002f9565b806000600160006101000a81548160ff0219169083151502179055506200006d6000801b82620000f160201b60201c565b6200009f7f73fd536265c26e6e13263018bc9d82a9b962a7857ae70dac847fd743f5e7153582620000f160201b60201c565b5082600960006101000a81548173ffffffffffffffffffffffffffffffffffffffff021916908373ffffffffffffffffffffffffffffffffffffffff16021790555081600b8190555050505062000355565b620001038282620001e260201b60201c565b620001de57600160008084815260200190815260200160002060000160008373ffffffffffffffffffffffffffffffffffffffff1673ffffffffffffffffffffffffffffffffffffffff16815260200190815260200160002060006101000a81548160ff021916908315150217905550620001836200024c60201b60201c565b73ffffffffffffffffffffffffffffffffffffffff168173ffffffffffffffffffffffffffffffffffffffff16837f2f8788117e7eff1d82e926ec794901d17c78024a50270940304540a733656f0d60405160405180910390a45b5050565b600080600084815260200190815260200160002060000160008373ffffffffffffffffffffffffffffffffffffffff1673ffffffffffffffffffffffffffffffffffffffff16815260200190815260200160002060009054906101000a900460ff16905092915050565b600033905090565b600080fd5b600073ffffffffffffffffffffffffffffffffffffffff82169050919050565b6000620002868262000259565b9050919050565b620002988162000279565b8114620002a457600080fd5b50565b600081519050620002b8816200028d565b92915050565b6000819050919050565b620002d381620002be565b8114620002df57600080fd5b50565b600081519050620002f381620002c8565b92915050565b60008060006060848603121562000315576200031462000254565b5b60006200032586828701620002a7565b93505060206200033886828701620002e2565b92505060406200034b86828701620002a7565b9150509250925092565b61445f80620003656000396000f3fe608060405234801561001057600080fd5b506004361061021b5760003560e01c8063792f309111610125578063a8613676116100ad578063ced72f871161007c578063ced72f8714610645578063d547741f14610663578063e5df8b841461067f578063f38d215d146106af578063fc3f5dff146106df5761021b565b8063a8613676146105a3578063b3f8cb00146105bf578063bd14de96146105ef578063c9b99dab146106275761021b565b806391d14854116100f457806391d14854146104fd578063964bb4ab1461052d578063a001ecdd1461054b578063a217fddf14610569578063a5125421146105875761021b565b8063792f3091146104895780638456cb59146104a75780638ee0344f146104b15780639012c4a8146104e15761021b565b80633f4ba83a116101a85780634f7cd72f116101775780634f7cd72f146103e3578063573fb624146104015780635c975abb14610431578063704802751461044f57806377be3d2f1461046b5761021b565b80633f4ba83a1461035b578063484bb244146103655780634e6873c7146103955780634e92fafd146103b35761021b565b80631785f53c116101ef5780631785f53c146102a6578063248a9ca3146102c257806329db7493146102f25780632f2ff15d1461032357806336568abe1461033f5761021b565b80628bed3e1461022057806301ffc9a71461023e57806310143a641461026e57806313cda3b71461028a575b600080fd5b6102286106fb565b60405161023591906128f5565b60405180910390f35b6102586004803603810190610253919061297c565b610708565b60405161026591906129c4565b60405180910390f35b61028860048036038101906102839190612a3d565b610782565b005b6102a4600480360381019061029f9190612a3d565b6107fa565b005b6102c060048036038101906102bb9190612a3d565b6108c6565b005b6102dc60048036038101906102d79190612aa0565b61092f565b6040516102e99190612adc565b60405180910390f35b61030c60048036038101906103079190612b23565b61094e565b60405161031a929190612bf3565b60405180910390f35b61033d60048036038101906103389190612c23565b610a17565b005b61035960048036038101906103549190612c23565b610a38565b005b610363610abb565b005b61037f600480360381019061037a9190612a3d565b610adb565b60405161038c91906129c4565b60405180910390f35b61039d610afb565b6040516103aa9190612ed0565b60405180910390f35b6103cd60048036038101906103c89190612a3d565b610d8e565b6040516103da9190612fa1565b60405180910390f35b6103eb610e25565b6040516103f89190612adc565b60405180910390f35b61041b60048036038101906104169190612fc3565b610e49565b60405161042891906130bc565b60405180910390f35b610439611119565b60405161044691906129c4565b60405180910390f35b61046960048036038101906104649190612a3d565b611130565b005b610473611199565b60405161048091906130ed565b60405180910390f35b6104916111e0565b60405161049e91906128f5565b60405180910390f35b6104af6111e6565b005b6104cb60048036038101906104c69190612a3d565b611206565b6040516104d89190612fa1565b60405180910390f35b6104fb60048036038101906104f69190612fc3565b61129d565b005b61051760048036038101906105129190612c23565b611307565b60405161052491906129c4565b60405180910390f35b610535611371565b60405161054291906130ed565b60405180910390f35b610553611397565b60405161056091906128f5565b60405180910390f35b61057161139d565b60405161057e9190612adc565b60405180910390f35b6105a1600480360381019061059c9190612a3d565b6113a4565b005b6105bd60048036038101906105b89190613399565b61140d565b005b6105d960048036038101906105d49190612fc3565b6119ef565b6040516105e69190613567565b60405180910390f35b61060960048036038101906106049190612fc3565b611afd565b60405161061e99989796959493929190613598565b60405180910390f35b61062f611cb8565b60405161063c91906128f5565b60405180910390f35b61064d611cbe565b60405161065a91906128f5565b60405180910390f35b61067d60048036038101906106789190612c23565b611cc8565b005b61069960048036038101906106949190612fc3565b611ce9565b6040516106a691906130ed565b60405180910390f35b6106c960048036038101906106c49190613633565b611d28565b6040516106d691906128f5565b60405180910390f35b6106f960048036038101906106f49190613673565b611d59565b005b6000600380549050905090565b60007f7965db0b000000000000000000000000000000000000000000000000000000007bffffffffffffffffffffffffffffffffffffffffffffffffffffffff1916827bffffffffffffffffffffffffffffffffffffffffffffffffffffffff1916148061077b575061077a826121c5565b5b9050919050565b61078a61222f565b6107b47f73fd536265c26e6e13263018bc9d82a9b962a7857ae70dac847fd743f5e7153582612279565b8073ffffffffffffffffffffffffffffffffffffffff167f92364d7c14d8a26a040c77305dd885fcd5898051d1b1ead4189b09d5f091159060405160405180910390a250565b6000801b61080781612359565b6001600660008473ffffffffffffffffffffffffffffffffffffffff1673ffffffffffffffffffffffffffffffffffffffff16815260200190815260200160002060006101000a81548160ff0219169083151502179055506008829080600181540180825580915050600190039060005260206000200160009091909190916101000a81548173ffffffffffffffffffffffffffffffffffffffff021916908373ffffffffffffffffffffffffffffffffffffffff1602179055505050565b6000801b6108d381612359565b6108db61222f565b6108e86000801b8361236d565b8173ffffffffffffffffffffffffffffffffffffffff167f3137a7fedbfedb7895dfa5a6812a4566dae9ded68d00aeec13c6ed1fa84a1c8060405160405180910390a25050565b6000806000838152602001908152602001600020600101549050919050565b6007602052816000526040600020818154811061096a57600080fd5b90600052602060002090600202016000915091505080600001805461098e906136f5565b80601f01602080910402602001604051908101604052809291908181526020018280546109ba906136f5565b8015610a075780601f106109dc57610100808354040283529160200191610a07565b820191906000526020600020905b8154815290600101906020018083116109ea57829003601f168201915b5050505050908060010154905082565b610a208261092f565b610a2981612359565b610a338383612279565b505050565b610a4061244e565b73ffffffffffffffffffffffffffffffffffffffff168173ffffffffffffffffffffffffffffffffffffffff1614610aad576040517f08c379a0000000000000000000000000000000000000000000000000000000008152600401610aa490613798565b60405180910390fd5b610ab7828261236d565b5050565b6000801b610ac881612359565b610ad0612456565b610ad861249f565b50565b60066020528060005260406000206000915054906101000a900460ff1681565b60606003805480602002602001604051908101604052809291908181526020016000905b82821015610d8557838290600052602060002090600802016040518061012001604052908160008201548152602001600182018054610b5d906136f5565b80601f0160208091040260200160405190810160405280929190818152602001828054610b89906136f5565b8015610bd65780601f10610bab57610100808354040283529160200191610bd6565b820191906000526020600020905b815481529060010190602001808311610bb957829003601f168201915b50505050508152602001600282018054610bef906136f5565b80601f0160208091040260200160405190810160405280929190818152602001828054610c1b906136f5565b8015610c685780601f10610c3d57610100808354040283529160200191610c68565b820191906000526020600020905b815481529060010190602001808311610c4b57829003601f168201915b505050505081526020016003820160009054906101000a900460ff166001811115610c9657610c95612ce8565b5b6001811115610ca857610ca7612ce8565b5b81526020016003820160019054906101000a900473ffffffffffffffffffffffffffffffffffffffff1673ffffffffffffffffffffffffffffffffffffffff1673ffffffffffffffffffffffffffffffffffffffff1681526020016004820160009054906101000a900473ffffffffffffffffffffffffffffffffffffffff1673ffffffffffffffffffffffffffffffffffffffff1673ffffffffffffffffffffffffffffffffffffffff168152602001600582015481526020016006820154815260200160078201548152505081526020019060010190610b1f565b50505050905090565b6060600560008373ffffffffffffffffffffffffffffffffffffffff1673ffffffffffffffffffffffffffffffffffffffff168152602001908152602001600020805480602002602001604051908101604052809291908181526020018280548015610e1957602002820191906000526020600020905b815481526020019060010190808311610e05575b50505050509050919050565b7f73fd536265c26e6e13263018bc9d82a9b962a7857ae70dac847fd743f5e7153581565b610e51612852565b600082118015610e6657506003805490508211155b610ea5576040517f08c379a0000000000000000000000000000000000000000000000000000000008152600401610e9c90613804565b60405180910390fd5b6003600183610eb49190613853565b81548110610ec557610ec4613887565b5b90600052602060002090600802016040518061012001604052908160008201548152602001600182018054610ef9906136f5565b80601f0160208091040260200160405190810160405280929190818152602001828054610f25906136f5565b8015610f725780601f10610f4757610100808354040283529160200191610f72565b820191906000526020600020905b815481529060010190602001808311610f5557829003601f168201915b50505050508152602001600282018054610f8b906136f5565b80601f0160208091040260200160405190810160405280929190818152602001828054610fb7906136f5565b80156110045780601f10610fd957610100808354040283529160200191611004565b820191906000526020600020905b815481529060010190602001808311610fe757829003601f168201915b505050505081526020016003820160009054906101000a900460ff16600181111561103257611031612ce8565b5b600181111561104457611043612ce8565b5b81526020016003820160019054906101000a900473ffffffffffffffffffffffffffffffffffffffff1673ffffffffffffffffffffffffffffffffffffffff1673ffffffffffffffffffffffffffffffffffffffff1681526020016004820160009054906101000a900473ffffffffffffffffffffffffffffffffffffffff1673ffffffffffffffffffffffffffffffffffffffff1673ffffffffffffffffffffffffffffffffffffffff16815260200160058201548152602001600682015481526020016007820154815250509050919050565b6000600160009054906101000a900460ff16905090565b6000801b61113d81612359565b61114561222f565b6111526000801b83612279565b8173ffffffffffffffffffffffffffffffffffffffff167f2dbe9fb88463d989acccabbb6ee06901f83672eb78e04a11ff48dd8f69a27cda60405160405180910390a25050565b600060086000815481106111b0576111af613887565b5b9060005260206000200160009054906101000a900473ffffffffffffffffffffffffffffffffffffffff16905090565b600b5481565b6000801b6111f381612359565b6111fb61222f565b611203612502565b50565b6060600460008373ffffffffffffffffffffffffffffffffffffffff1673ffffffffffffffffffffffffffffffffffffffff16815260200190815260200160002080548060200260200160405190810160405280929190818152602001828054801561129157602002820191906000526020600020905b81548152602001906001019080831161127d575b50505050509050919050565b6000801b6112aa81612359565b600082101580156112bd57506103e88211155b6112fc576040517f08c379a00000000000000000000000000000000000000000000000000000000081526004016112f390613902565b60405180910390fd5b81600b819055505050565b600080600084815260200190815260200160002060000160008373ffffffffffffffffffffffffffffffffffffffff1673ffffffffffffffffffffffffffffffffffffffff16815260200190815260200160002060009054906101000a900460ff16905092915050565b600960009054906101000a900473ffffffffffffffffffffffffffffffffffffffff1681565b600a5481565b6000801b81565b6000801b6113b181612359565b6000600660008473ffffffffffffffffffffffffffffffffffffffff1673ffffffffffffffffffffffffffffffffffffffff16815260200190815260200160002060006101000a81548160ff0219169083151502179055505050565b600073ffffffffffffffffffffffffffffffffffffffff168373ffffffffffffffffffffffffffffffffffffffff160361147c576040517f08c379a000000000000000000000000000000000000000000000000000000000815260040161147390613994565b60405180910390fd5b60008251116114c0576040517f08c379a00000000000000000000000000000000000000000000000000000000081526004016114b790613a00565b60405180910390fd5b60008111611503576040517f08c379a00000000000000000000000000000000000000000000000000000000081526004016114fa90613a92565b60405180910390fd5b3373ffffffffffffffffffffffffffffffffffffffff168373ffffffffffffffffffffffffffffffffffffffff1603611571576040517f08c379a000000000000000000000000000000000000000000000000000000000815260040161156890613b24565b60405180910390fd5b6000805b83518110156115b75783818151811061159157611590613887565b5b602002602001015160200151826115a89190613b44565b91508080600101915050611575565b5060648111156115fc576040517f08c379a00000000000000000000000000000000000000000000000000000000081526004016115f390613bea565b60405180910390fd5b600060405180610120016040528060025481526020018881526020018781526020016000600181111561163257611631612ce8565b5b81526020013373ffffffffffffffffffffffffffffffffffffffff1681526020018673ffffffffffffffffffffffffffffffffffffffff16815260200184815260200160008152602001611684611cbe565b815250905060005b84518110156117535760076000600254815260200190815260200160002060405180604001604052808784815181106116c8576116c7613887565b5b60200260200101516000015181526020018784815181106116ec576116eb613887565b5b602002602001015160200151815250908060018154018082558091505060019003906000526020600020906002020160009091909190915060008201518160000190816117399190613db6565b50602082015181600101555050808060010191505061168c565b50600381908060018154018082558091505060019003906000526020600020906008020160009091909190915060008201518160000155602082015181600101908161179f9190613db6565b5060408201518160020190816117b59190613db6565b5060608201518160030160006101000a81548160ff021916908360018111156117e1576117e0612ce8565b5b021790555060808201518160030160016101000a81548173ffffffffffffffffffffffffffffffffffffffff021916908373ffffffffffffffffffffffffffffffffffffffff16021790555060a08201518160040160006101000a81548173ffffffffffffffffffffffffffffffffffffffff021916908373ffffffffffffffffffffffffffffffffffffffff16021790555060c0820151816005015560e0820151816006015561010082015181600701555050600460003373ffffffffffffffffffffffffffffffffffffffff1673ffffffffffffffffffffffffffffffffffffffff1681526020019081526020016000206002549080600181540180825580915050600190039060005260206000200160009091909190915055600560008673ffffffffffffffffffffffffffffffffffffffff1673ffffffffffffffffffffffffffffffffffffffff16815260200190815260200160002060025490806001815401808255809150506001900390600052602060002001600090919091909150558473ffffffffffffffffffffffffffffffffffffffff163373ffffffffffffffffffffffffffffffffffffffff167f4969d8f058da37f5b596425a39904e9a027ac23d1865d6efd5df5a5e24eef7de600254866040516119c6929190613e88565b60405180910390a3600260008154809291906119e190613eb1565b919050555050505050505050565b606060076000838152602001908152602001600020805480602002602001604051908101604052809291908181526020016000905b82821015611af25783829060005260206000209060020201604051806040016040529081600082018054611a57906136f5565b80601f0160208091040260200160405190810160405280929190818152602001828054611a83906136f5565b8015611ad05780601f10611aa557610100808354040283529160200191611ad0565b820191906000526020600020905b815481529060010190602001808311611ab357829003601f168201915b5050505050815260200160018201548152505081526020019060010190611a24565b505050509050919050565b60038181548110611b0d57600080fd5b9060005260206000209060080201600091509050806000015490806001018054611b36906136f5565b80601f0160208091040260200160405190810160405280929190818152602001828054611b62906136f5565b8015611baf5780601f10611b8457610100808354040283529160200191611baf565b820191906000526020600020905b815481529060010190602001808311611b9257829003601f168201915b505050505090806002018054611bc4906136f5565b80601f0160208091040260200160405190810160405280929190818152602001828054611bf0906136f5565b8015611c3d5780601f10611c1257610100808354040283529160200191611c3d565b820191906000526020600020905b815481529060010190602001808311611c2057829003601f168201915b5050505050908060030160009054906101000a900460ff16908060030160019054906101000a900473ffffffffffffffffffffffffffffffffffffffff16908060040160009054906101000a900473ffffffffffffffffffffffffffffffffffffffff16908060050154908060060154908060070154905089565b60025481565b6000600b54905090565b611cd18261092f565b611cda81612359565b611ce4838361236d565b505050565b60088181548110611cf957600080fd5b906000526020600020016000915054906101000a900473ffffffffffffffffffffffffffffffffffffffff1681565b60046020528160005260406000208181548110611d4457600080fd5b90600052602060002001600091509150505481565b600083118015611d6e57506003805490508311155b611dad576040517f08c379a0000000000000000000000000000000000000000000000000000000008152600401611da490613804565b60405180910390fd5b600660008273ffffffffffffffffffffffffffffffffffffffff1673ffffffffffffffffffffffffffffffffffffffff16815260200190815260200160002060009054906101000a900460ff16611e39576040517f08c379a0000000000000000000000000000000000000000000000000000000008152600401611e3090613f45565b60405180910390fd5b60006003600185611e4a9190613853565b81548110611e5b57611e5a613887565b5b9060005260206000209060080201905060008060008490506103e8611e7e611cbe565b870281611e8e57611e8d613f65565b5b049250828601915060008173ffffffffffffffffffffffffffffffffffffffff1663dd62ed3e33306040518363ffffffff1660e01b8152600401611ed3929190613f94565b602060405180830381865afa158015611ef0573d6000803e3d6000fd5b505050506040513d601f19601f82011682018060405250810190611f149190613fd2565b905082811015611f59576040517f08c379a0000000000000000000000000000000000000000000000000000000008152600401611f5090614071565b60405180910390fd5b8173ffffffffffffffffffffffffffffffffffffffff166323b872dd3330866040518463ffffffff1660e01b8152600401611f9693929190614091565b6020604051808303816000875af1158015611fb5573d6000803e3d6000fd5b505050506040513d601f19601f82011682018060405250810190611fd991906140f4565b508173ffffffffffffffffffffffffffffffffffffffff1663a9059cbb8660040160009054906101000a900473ffffffffffffffffffffffffffffffffffffffff16896040518363ffffffff1660e01b8152600401612039929190614121565b6020604051808303816000875af1158015612058573d6000803e3d6000fd5b505050506040513d601f19601f8201168201806040525081019061207c91906140f4565b508173ffffffffffffffffffffffffffffffffffffffff1663a9059cbb600960009054906101000a900473ffffffffffffffffffffffffffffffffffffffff16866040518363ffffffff1660e01b81526004016120da929190614121565b6020604051808303816000875af11580156120f9573d6000803e3d6000fd5b505050506040513d601f19601f8201168201806040525081019061211d91906140f4565b508685600601600082825401925050819055508460040160009054906101000a900473ffffffffffffffffffffffffffffffffffffffff1673ffffffffffffffffffffffffffffffffffffffff163373ffffffffffffffffffffffffffffffffffffffff167f1f004c54eef332ef6912dae8f1775c102da23bec79ccf602eaaa072938e96b678a8a6040516121b3929190613e88565b60405180910390a35050505050505050565b60007f01ffc9a7000000000000000000000000000000000000000000000000000000007bffffffffffffffffffffffffffffffffffffffffffffffffffffffff1916827bffffffffffffffffffffffffffffffffffffffffffffffffffffffff1916149050919050565b612237611119565b15612277576040517f08c379a000000000000000000000000000000000000000000000000000000000815260040161226e90614196565b60405180910390fd5b565b6122838282611307565b61235557600160008084815260200190815260200160002060000160008373ffffffffffffffffffffffffffffffffffffffff1673ffffffffffffffffffffffffffffffffffffffff16815260200190815260200160002060006101000a81548160ff0219169083151502179055506122fa61244e565b73ffffffffffffffffffffffffffffffffffffffff168173ffffffffffffffffffffffffffffffffffffffff16837f2f8788117e7eff1d82e926ec794901d17c78024a50270940304540a733656f0d60405160405180910390a45b5050565b61236a8161236561244e565b612564565b50565b6123778282611307565b1561244a57600080600084815260200190815260200160002060000160008373ffffffffffffffffffffffffffffffffffffffff1673ffffffffffffffffffffffffffffffffffffffff16815260200190815260200160002060006101000a81548160ff0219169083151502179055506123ef61244e565b73ffffffffffffffffffffffffffffffffffffffff168173ffffffffffffffffffffffffffffffffffffffff16837ff6391f5c32d9c69d2a47ea670b442974b53935d1edc7fd64eb21e047a839171b60405160405180910390a45b5050565b600033905090565b61245e611119565b61249d576040517f08c379a000000000000000000000000000000000000000000000000000000000815260040161249490614202565b60405180910390fd5b565b6124a7612456565b6000600160006101000a81548160ff0219169083151502179055507f5db9ee0a495bf2e6ff9c91a7834c1ba4fdd244a5e8aa4e537bd38aeae4b073aa6124eb61244e565b6040516124f891906130ed565b60405180910390a1565b61250a61222f565b60018060006101000a81548160ff0219169083151502179055507f62e78cea01bee320cd4e420270b5ea74000d11b0c9f74754ebdbfc544b05a25861254d61244e565b60405161255a91906130ed565b60405180910390a1565b61256e8282611307565b6125e55761257b816125e9565b6125898360001c6020612616565b60405160200161259a9291906142f6565b6040516020818303038152906040526040517f08c379a00000000000000000000000000000000000000000000000000000000081526004016125dc9190614330565b60405180910390fd5b5050565b606061260f8273ffffffffffffffffffffffffffffffffffffffff16601460ff16612616565b9050919050565b6060600060028360026126299190614352565b6126339190613b44565b67ffffffffffffffff81111561264c5761264b613112565b5b6040519080825280601f01601f19166020018201604052801561267e5781602001600182028036833780820191505090505b5090507f3000000000000000000000000000000000000000000000000000000000000000816000815181106126b6576126b5613887565b5b60200101907effffffffffffffffffffffffffffffffffffffffffffffffffffffffffffff1916908160001a9053507f78000000000000000000000000000000000000000000000000000000000000008160018151811061271a57612719613887565b5b60200101907effffffffffffffffffffffffffffffffffffffffffffffffffffffffffffff1916908160001a9053506000600184600261275a9190614352565b6127649190613b44565b90505b6001811115612804577f3031323334353637383961626364656600000000000000000000000000000000600f8616601081106127a6576127a5613887565b5b1a60f81b8282815181106127bd576127bc613887565b5b60200101907effffffffffffffffffffffffffffffffffffffffffffffffffffffffffffff1916908160001a905350600485901c9450806127fd90614394565b9050612767565b5060008414612848576040517f08c379a000000000000000000000000000000000000000000000000000000000815260040161283f90614409565b60405180910390fd5b8091505092915050565b6040518061012001604052806000815260200160608152602001606081526020016000600181111561288757612886612ce8565b5b8152602001600073ffffffffffffffffffffffffffffffffffffffff168152602001600073ffffffffffffffffffffffffffffffffffffffff1681526020016000815260200160008152602001600081525090565b6000819050919050565b6128ef816128dc565b82525050565b600060208201905061290a60008301846128e6565b92915050565b6000604051905090565b600080fd5b600080fd5b60007fffffffff0000000000000000000000000000000000000000000000000000000082169050919050565b61295981612924565b811461296457600080fd5b50565b60008135905061297681612950565b92915050565b6000602082840312156129925761299161291a565b5b60006129a084828501612967565b91505092915050565b60008115159050919050565b6129be816129a9565b82525050565b60006020820190506129d960008301846129b5565b92915050565b600073ffffffffffffffffffffffffffffffffffffffff82169050919050565b6000612a0a826129df565b9050919050565b612a1a816129ff565b8114612a2557600080fd5b50565b600081359050612a3781612a11565b92915050565b600060208284031215612a5357612a5261291a565b5b6000612a6184828501612a28565b91505092915050565b6000819050919050565b612a7d81612a6a565b8114612a8857600080fd5b50565b600081359050612a9a81612a74565b92915050565b600060208284031215612ab657612ab561291a565b5b6000612ac484828501612a8b565b91505092915050565b612ad681612a6a565b82525050565b6000602082019050612af16000830184612acd565b92915050565b612b00816128dc565b8114612b0b57600080fd5b50565b600081359050612b1d81612af7565b92915050565b60008060408385031215612b3a57612b3961291a565b5b6000612b4885828601612b0e565b9250506020612b5985828601612b0e565b9150509250929050565b600081519050919050565b600082825260208201905092915050565b60005b83811015612b9d578082015181840152602081019050612b82565b60008484015250505050565b6000601f19601f8301169050919050565b6000612bc582612b63565b612bcf8185612b6e565b9350612bdf818560208601612b7f565b612be881612ba9565b840191505092915050565b60006040820190508181036000830152612c0d8185612bba565b9050612c1c60208301846128e6565b9392505050565b60008060408385031215612c3a57612c3961291a565b5b6000612c4885828601612a8b565b9250506020612c5985828601612a28565b9150509250929050565b600081519050919050565b600082825260208201905092915050565b6000819050602082019050919050565b612c98816128dc565b82525050565b600082825260208201905092915050565b6000612cba82612b63565b612cc48185612c9e565b9350612cd4818560208601612b7f565b612cdd81612ba9565b840191505092915050565b7f4e487b7100000000000000000000000000000000000000000000000000000000600052602160045260246000fd5b60028110612d2857612d27612ce8565b5b50565b6000819050612d3982612d17565b919050565b6000612d4982612d2b565b9050919050565b612d5981612d3e565b82525050565b612d68816129ff565b82525050565b600061012083016000830151612d876000860182612c8f565b5060208301518482036020860152612d9f8282612caf565b91505060408301518482036040860152612db98282612caf565b9150506060830151612dce6060860182612d50565b506080830151612de16080860182612d5f565b5060a0830151612df460a0860182612d5f565b5060c0830151612e0760c0860182612c8f565b5060e0830151612e1a60e0860182612c8f565b50610100830151612e2f610100860182612c8f565b508091505092915050565b6000612e468383612d6e565b905092915050565b6000602082019050919050565b6000612e6682612c63565b612e708185612c6e565b935083602082028501612e8285612c7f565b8060005b85811015612ebe5784840389528151612e9f8582612e3a565b9450612eaa83612e4e565b925060208a01995050600181019050612e86565b50829750879550505050505092915050565b60006020820190508181036000830152612eea8184612e5b565b905092915050565b600081519050919050565b600082825260208201905092915050565b6000819050602082019050919050565b6000612f2a8383612c8f565b60208301905092915050565b6000602082019050919050565b6000612f4e82612ef2565b612f588185612efd565b9350612f6383612f0e565b8060005b83811015612f94578151612f7b8882612f1e565b9750612f8683612f36565b925050600181019050612f67565b5085935050505092915050565b60006020820190508181036000830152612fbb8184612f43565b905092915050565b600060208284031215612fd957612fd861291a565b5b6000612fe784828501612b0e565b91505092915050565b6000610120830160008301516130096000860182612c8f565b50602083015184820360208601526130218282612caf565b9150506040830151848203604086015261303b8282612caf565b91505060608301516130506060860182612d50565b5060808301516130636080860182612d5f565b5060a083015161307660a0860182612d5f565b5060c083015161308960c0860182612c8f565b5060e083015161309c60e0860182612c8f565b506101008301516130b1610100860182612c8f565b508091505092915050565b600060208201905081810360008301526130d68184612ff0565b905092915050565b6130e7816129ff565b82525050565b600060208201905061310260008301846130de565b92915050565b600080fd5b600080fd5b7f4e487b7100000000000000000000000000000000000000000000000000000000600052604160045260246000fd5b61314a82612ba9565b810181811067ffffffffffffffff8211171561316957613168613112565b5b80604052505050565b600061317c612910565b90506131888282613141565b919050565b600067ffffffffffffffff8211156131a8576131a7613112565b5b6131b182612ba9565b9050602081019050919050565b82818337600083830152505050565b60006131e06131db8461318d565b613172565b9050828152602081018484840111156131fc576131fb61310d565b5b6132078482856131be565b509392505050565b600082601f83011261322457613223613108565b5b81356132348482602086016131cd565b91505092915050565b600067ffffffffffffffff82111561325857613257613112565b5b602082029050602081019050919050565b600080fd5b600080fd5b600080fd5b60006040828403121561328e5761328d61326e565b5b6132986040613172565b9050600082013567ffffffffffffffff8111156132b8576132b7613273565b5b6132c48482850161320f565b60008301525060206132d884828501612b0e565b60208301525092915050565b60006132f76132f28461323d565b613172565b9050808382526020820190506020840283018581111561331a57613319613269565b5b835b8181101561336157803567ffffffffffffffff81111561333f5761333e613108565b5b80860161334c8982613278565b8552602085019450505060208101905061331c565b5050509392505050565b600082601f8301126133805761337f613108565b5b81356133908482602086016132e4565b91505092915050565b600080600080600060a086880312156133b5576133b461291a565b5b600086013567ffffffffffffffff8111156133d3576133d261291f565b5b6133df8882890161320f565b955050602086013567ffffffffffffffff811115613400576133ff61291f565b5b61340c8882890161320f565b945050604061341d88828901612a28565b935050606086013567ffffffffffffffff81111561343e5761343d61291f565b5b61344a8882890161336b565b925050608061345b88828901612b0e565b9150509295509295909350565b600081519050919050565b600082825260208201905092915050565b6000819050602082019050919050565b600060408301600083015184820360008601526134b18282612caf565b91505060208301516134c66020860182612c8f565b508091505092915050565b60006134dd8383613494565b905092915050565b6000602082019050919050565b60006134fd82613468565b6135078185613473565b93508360208202850161351985613484565b8060005b85811015613555578484038952815161353685826134d1565b9450613541836134e5565b925060208a0199505060018101905061351d565b50829750879550505050505092915050565b6000602082019050818103600083015261358181846134f2565b905092915050565b61359281612d3e565b82525050565b6000610120820190506135ae600083018c6128e6565b81810360208301526135c0818b612bba565b905081810360408301526135d4818a612bba565b90506135e36060830189613589565b6135f060808301886130de565b6135fd60a08301876130de565b61360a60c08301866128e6565b61361760e08301856128e6565b6136256101008301846128e6565b9a9950505050505050505050565b6000806040838503121561364a5761364961291a565b5b600061365885828601612a28565b925050602061366985828601612b0e565b9150509250929050565b60008060006060848603121561368c5761368b61291a565b5b600061369a86828701612b0e565b93505060206136ab86828701612b0e565b92505060406136bc86828701612a28565b9150509250925092565b7f4e487b7100000000000000000000000000000000000000000000000000000000600052602260045260246000fd5b6000600282049050600182168061370d57607f821691505b6020821081036137205761371f6136c6565b5b50919050565b7f416363657373436f6e74726f6c3a2063616e206f6e6c792072656e6f756e636560008201527f20726f6c657320666f722073656c660000000000000000000000000000000000602082015250565b6000613782602f83612b6e565b915061378d82613726565b604082019050919050565b600060208201905081810360008301526137b181613775565b9050919050565b7f496e76616c69642061677265656d656e74204944000000000000000000000000600082015250565b60006137ee601483612b6e565b91506137f9826137b8565b602082019050919050565b6000602082019050818103600083015261381d816137e1565b9050919050565b7f4e487b7100000000000000000000000000000000000000000000000000000000600052601160045260246000fd5b600061385e826128dc565b9150613869836128dc565b925082820390508181111561388157613880613824565b5b92915050565b7f4e487b7100000000000000000000000000000000000000000000000000000000600052603260045260246000fd5b7f496e76616c6964206b796f646f20747265617375727920666565000000000000600082015250565b60006138ec601a83612b6e565b91506138f7826138b6565b602082019050919050565b6000602082019050818103600083015261391b816138df565b9050919050565b7f50726f66657373696f6e616c20616464726573732063616e6e6f74206265207a60008201527f65726f0000000000000000000000000000000000000000000000000000000000602082015250565b600061397e602383612b6e565b915061398982613922565b604082019050919050565b600060208201905081810360008301526139ad81613971565b9050919050565b7f536b696c6c73206d757374206e6f7420626520656d7074790000000000000000600082015250565b60006139ea601883612b6e565b91506139f5826139b4565b602082019050919050565b60006020820190508181036000830152613a19816139dd565b9050919050565b7f5061796d656e7420616d6f756e74206d7573742062652067726561746572207460008201527f68616e207a65726f000000000000000000000000000000000000000000000000602082015250565b6000613a7c602883612b6e565b9150613a8782613a20565b604082019050919050565b60006020820190508181036000830152613aab81613a6f565b9050919050565b7f50726f66657373696f6e616c20616464726573732063616e6e6f74206265207460008201527f68652073616d6520617320636f6d70616e790000000000000000000000000000602082015250565b6000613b0e603283612b6e565b9150613b1982613ab2565b604082019050919050565b60006020820190508181036000830152613b3d81613b01565b9050919050565b6000613b4f826128dc565b9150613b5a836128dc565b9250828201905080821115613b7257613b71613824565b5b92915050565b7f546f74616c20736b696c6c206c6576656c2063616e6e6f74206578636565642060008201527f3130300000000000000000000000000000000000000000000000000000000000602082015250565b6000613bd4602383612b6e565b9150613bdf82613b78565b604082019050919050565b60006020820190508181036000830152613c0381613bc7565b9050919050565b60008190508160005260206000209050919050565b60006020601f8301049050919050565b600082821b905092915050565b600060088302613c6c7fffffffffffffffffffffffffffffffffffffffffffffffffffffffffffffffff82613c2f565b613c768683613c2f565b95508019841693508086168417925050509392505050565b6000819050919050565b6000613cb3613cae613ca9846128dc565b613c8e565b6128dc565b9050919050565b6000819050919050565b613ccd83613c98565b613ce1613cd982613cba565b848454613c3c565b825550505050565b600090565b613cf6613ce9565b613d01818484613cc4565b505050565b5b81811015613d2557613d1a600082613cee565b600181019050613d07565b5050565b601f821115613d6a57613d3b81613c0a565b613d4484613c1f565b81016020851015613d53578190505b613d67613d5f85613c1f565b830182613d06565b50505b505050565b600082821c905092915050565b6000613d8d60001984600802613d6f565b1980831691505092915050565b6000613da68383613d7c565b9150826002028217905092915050565b613dbf82612b63565b67ffffffffffffffff811115613dd857613dd7613112565b5b613de282546136f5565b613ded828285613d29565b600060209050601f831160018114613e205760008415613e0e578287015190505b613e188582613d9a565b865550613e80565b601f198416613e2e86613c0a565b60005b82811015613e5657848901518255600182019150602085019450602081019050613e31565b86831015613e735784890151613e6f601f891682613d7c565b8355505b6001600288020188555050505b505050505050565b6000604082019050613e9d60008301856128e6565b613eaa60208301846128e6565b9392505050565b6000613ebc826128dc565b91507fffffffffffffffffffffffffffffffffffffffffffffffffffffffffffffffff8203613eee57613eed613824565b5b600182019050919050565b7f496e76616c6964207061796d656e7420746f6b656e0000000000000000000000600082015250565b6000613f2f601583612b6e565b9150613f3a82613ef9565b602082019050919050565b60006020820190508181036000830152613f5e81613f22565b9050919050565b7f4e487b7100000000000000000000000000000000000000000000000000000000600052601260045260246000fd5b6000604082019050613fa960008301856130de565b613fb660208301846130de565b9392505050565b600081519050613fcc81612af7565b92915050565b600060208284031215613fe857613fe761291a565b5b6000613ff684828501613fbd565b91505092915050565b7f55736572206d75737420617070726f76652074686520616d6f756e74206f662060008201527f7468652061677265656d656e7400000000000000000000000000000000000000602082015250565b600061405b602d83612b6e565b915061406682613fff565b604082019050919050565b6000602082019050818103600083015261408a8161404e565b9050919050565b60006060820190506140a660008301866130de565b6140b360208301856130de565b6140c060408301846128e6565b949350505050565b6140d1816129a9565b81146140dc57600080fd5b50565b6000815190506140ee816140c8565b92915050565b60006020828403121561410a5761410961291a565b5b6000614118848285016140df565b91505092915050565b600060408201905061413660008301856130de565b61414360208301846128e6565b9392505050565b7f5061757361626c653a2070617573656400000000000000000000000000000000600082015250565b6000614180601083612b6e565b915061418b8261414a565b602082019050919050565b600060208201905081810360008301526141af81614173565b9050919050565b7f5061757361626c653a206e6f7420706175736564000000000000000000000000600082015250565b60006141ec601483612b6e565b91506141f7826141b6565b602082019050919050565b6000602082019050818103600083015261421b816141df565b9050919050565b600081905092915050565b7f416363657373436f6e74726f6c3a206163636f756e7420000000000000000000600082015250565b6000614263601783614222565b915061426e8261422d565b601782019050919050565b600061428482612b63565b61428e8185614222565b935061429e818560208601612b7f565b80840191505092915050565b7f206973206d697373696e6720726f6c6520000000000000000000000000000000600082015250565b60006142e0601183614222565b91506142eb826142aa565b601182019050919050565b600061430182614256565b915061430d8285614279565b9150614318826142d3565b91506143248284614279565b91508190509392505050565b6000602082019050818103600083015261434a8184612bba565b905092915050565b600061435d826128dc565b9150614368836128dc565b9250828202614376816128dc565b9150828204841483151761438d5761438c613824565b5b5092915050565b600061439f826128dc565b9150600082036143b2576143b1613824565b5b600182039050919050565b7f537472696e67733a20686578206c656e67746820696e73756666696369656e74600082015250565b60006143f3602083612b6e565b91506143fe826143bd565b602082019050919050565b60006020820190508181036000830152614422816143e6565b905091905056fea2646970667358221220f5a468a04dc336c36c0c152d71a40e6e6f2d9db177cfbefefc5997fa55d2026064736f6c63430008170033",
  "linkReferences": {},
  "deployedLinkReferences": {}
}