{
  "_format": "hh-sol-artifact-1",
  "contractName": "AgreementContract",
  "sourceName": "contracts/AgreementContract.sol",
  "abi": [
    {
      "inputs": [
        {
          "internalType": "address",
          "name": "_kyodoTreasury",
          "type": "address"
        },
        {
          "internalType": "address",
          "name": "_communityDAO",
          "type": "address"
        }
      ],
      "stateMutability": "nonpayable",
      "type": "constructor"
    },
    {
      "anonymous": false,
      "inputs": [
        {
          "indexed": true,
          "internalType": "address",
          "name": "company",
          "type": "address"
        },
        {
          "indexed": true,
          "internalType": "address",
          "name": "professional",
          "type": "address"
        },
        {
          "indexed": false,
          "internalType": "uint256",
          "name": "agreementId",
          "type": "uint256"
        },
        {
          "indexed": false,
          "internalType": "uint256",
          "name": "amount",
          "type": "uint256"
        }
      ],
      "name": "AgreementCreated",
      "type": "event"
    },
    {
      "anonymous": false,
      "inputs": [
        {
          "indexed": true,
          "internalType": "address",
          "name": "company",
          "type": "address"
        },
        {
          "indexed": true,
          "internalType": "address",
          "name": "professional",
          "type": "address"
        },
        {
          "indexed": false,
          "internalType": "uint256",
          "name": "agreementId",
          "type": "uint256"
        },
        {
          "indexed": false,
          "internalType": "uint256",
          "name": "amount",
          "type": "uint256"
        }
      ],
      "name": "PaymentMade",
      "type": "event"
    },
    {
      "inputs": [],
      "name": "StableVault",
      "outputs": [
        {
          "internalType": "contract IStableVault",
          "name": "",
          "type": "address"
        }
      ],
      "stateMutability": "view",
      "type": "function"
    },
    {
      "inputs": [
        {
          "internalType": "address",
          "name": "",
          "type": "address"
        }
      ],
      "name": "acceptedPaymentTokens",
      "outputs": [
        {
          "internalType": "bool",
          "name": "",
          "type": "bool"
        }
      ],
      "stateMutability": "view",
      "type": "function"
    },
    {
      "inputs": [
        {
          "internalType": "address",
          "name": "_tokenAddress",
          "type": "address"
        }
      ],
      "name": "addAcceptedPaymentToken",
      "outputs": [],
      "stateMutability": "nonpayable",
      "type": "function"
    },
    {
      "inputs": [
        {
          "internalType": "uint256",
          "name": "",
          "type": "uint256"
        },
        {
          "internalType": "uint256",
          "name": "",
          "type": "uint256"
        }
      ],
      "name": "agreementSkills",
      "outputs": [
        {
          "internalType": "string",
          "name": "name",
          "type": "string"
        },
        {
          "internalType": "uint256",
          "name": "level",
          "type": "uint256"
        }
      ],
      "stateMutability": "view",
      "type": "function"
    },
    {
      "inputs": [
        {
          "internalType": "uint256",
          "name": "",
          "type": "uint256"
        }
      ],
      "name": "agreements",
      "outputs": [
        {
          "internalType": "uint256",
          "name": "id",
          "type": "uint256"
        },
        {
          "internalType": "string",
          "name": "title",
          "type": "string"
        },
        {
          "internalType": "string",
          "name": "description",
          "type": "string"
        },
        {
          "internalType": "enum AgreementContract.AgreementStatus",
          "name": "status",
          "type": "uint8"
        },
        {
          "internalType": "address",
          "name": "company",
          "type": "address"
        },
        {
          "internalType": "address",
          "name": "professional",
          "type": "address"
        },
        {
          "components": [
            {
              "internalType": "uint256",
              "name": "amount",
              "type": "uint256"
            },
            {
              "internalType": "address",
              "name": "tokenAddress",
              "type": "address"
            }
          ],
          "internalType": "struct AgreementContract.Token",
          "name": "tokenIncentive",
          "type": "tuple"
        },
        {
          "components": [
            {
              "internalType": "uint256",
              "name": "amount",
              "type": "uint256"
            },
            {
              "internalType": "address",
              "name": "tokenAddress",
              "type": "address"
            }
          ],
          "internalType": "struct AgreementContract.Token",
          "name": "payment",
          "type": "tuple"
        },
        {
          "internalType": "uint256",
          "name": "totalPaid",
          "type": "uint256"
        }
      ],
      "stateMutability": "view",
      "type": "function"
    },
    {
      "inputs": [],
      "name": "communityDAO",
      "outputs": [
        {
          "internalType": "address",
          "name": "",
          "type": "address"
        }
      ],
      "stateMutability": "view",
      "type": "function"
    },
    {
      "inputs": [],
      "name": "communityDAOFee",
      "outputs": [
        {
          "internalType": "uint256",
          "name": "",
          "type": "uint256"
        }
      ],
      "stateMutability": "view",
      "type": "function"
    },
    {
      "inputs": [
        {
          "internalType": "string",
          "name": "_title",
          "type": "string"
        },
        {
          "internalType": "string",
          "name": "_description",
          "type": "string"
        },
        {
          "internalType": "address",
          "name": "_professional",
          "type": "address"
        },
        {
          "components": [
            {
              "internalType": "string",
              "name": "name",
              "type": "string"
            },
            {
              "internalType": "uint256",
              "name": "level",
              "type": "uint256"
            }
          ],
          "internalType": "struct AgreementContract.Skill[]",
          "name": "_skills",
          "type": "tuple[]"
        },
        {
          "internalType": "uint256",
          "name": "_paymentAmount",
          "type": "uint256"
        }
      ],
      "name": "createAgreement",
      "outputs": [],
      "stateMutability": "nonpayable",
      "type": "function"
    },
    {
      "inputs": [],
      "name": "feePercentage",
      "outputs": [
        {
          "internalType": "uint256",
          "name": "",
          "type": "uint256"
        }
      ],
      "stateMutability": "view",
      "type": "function"
    },
    {
      "inputs": [
        {
          "internalType": "uint256",
          "name": "_id",
          "type": "uint256"
        }
      ],
      "name": "getAgreementById",
      "outputs": [
        {
          "components": [
            {
              "internalType": "uint256",
              "name": "id",
              "type": "uint256"
            },
            {
              "internalType": "string",
              "name": "title",
              "type": "string"
            },
            {
              "internalType": "string",
              "name": "description",
              "type": "string"
            },
            {
              "internalType": "enum AgreementContract.AgreementStatus",
              "name": "status",
              "type": "uint8"
            },
            {
              "internalType": "address",
              "name": "company",
              "type": "address"
            },
            {
              "internalType": "address",
              "name": "professional",
              "type": "address"
            },
            {
              "components": [
                {
                  "internalType": "uint256",
                  "name": "amount",
                  "type": "uint256"
                },
                {
                  "internalType": "address",
                  "name": "tokenAddress",
                  "type": "address"
                }
              ],
              "internalType": "struct AgreementContract.Token",
              "name": "tokenIncentive",
              "type": "tuple"
            },
            {
              "components": [
                {
                  "internalType": "uint256",
                  "name": "amount",
                  "type": "uint256"
                },
                {
                  "internalType": "address",
                  "name": "tokenAddress",
                  "type": "address"
                }
              ],
              "internalType": "struct AgreementContract.Token",
              "name": "payment",
              "type": "tuple"
            },
            {
              "internalType": "uint256",
              "name": "totalPaid",
              "type": "uint256"
            }
          ],
          "internalType": "struct AgreementContract.Agreement",
          "name": "",
          "type": "tuple"
        }
      ],
      "stateMutability": "view",
      "type": "function"
    },
    {
      "inputs": [],
      "name": "getAgreementCount",
      "outputs": [
        {
          "internalType": "uint256",
          "name": "",
          "type": "uint256"
        }
      ],
      "stateMutability": "view",
      "type": "function"
    },
    {
      "inputs": [],
      "name": "getAllAgreements",
      "outputs": [
        {
          "components": [
            {
              "internalType": "uint256",
              "name": "id",
              "type": "uint256"
            },
            {
              "internalType": "string",
              "name": "title",
              "type": "string"
            },
            {
              "internalType": "string",
              "name": "description",
              "type": "string"
            },
            {
              "internalType": "enum AgreementContract.AgreementStatus",
              "name": "status",
              "type": "uint8"
            },
            {
              "internalType": "address",
              "name": "company",
              "type": "address"
            },
            {
              "internalType": "address",
              "name": "professional",
              "type": "address"
            },
            {
              "components": [
                {
                  "internalType": "uint256",
                  "name": "amount",
                  "type": "uint256"
                },
                {
                  "internalType": "address",
                  "name": "tokenAddress",
                  "type": "address"
                }
              ],
              "internalType": "struct AgreementContract.Token",
              "name": "tokenIncentive",
              "type": "tuple"
            },
            {
              "components": [
                {
                  "internalType": "uint256",
                  "name": "amount",
                  "type": "uint256"
                },
                {
                  "internalType": "address",
                  "name": "tokenAddress",
                  "type": "address"
                }
              ],
              "internalType": "struct AgreementContract.Token",
              "name": "payment",
              "type": "tuple"
            },
            {
              "internalType": "uint256",
              "name": "totalPaid",
              "type": "uint256"
            }
          ],
          "internalType": "struct AgreementContract.Agreement[]",
          "name": "",
          "type": "tuple[]"
        }
      ],
      "stateMutability": "view",
      "type": "function"
    },
    {
      "inputs": [
        {
          "internalType": "uint256",
          "name": "_agreementId",
          "type": "uint256"
        }
      ],
      "name": "getSkillsByAgreementId",
      "outputs": [
        {
          "components": [
            {
              "internalType": "string",
              "name": "name",
              "type": "string"
            },
            {
              "internalType": "uint256",
              "name": "level",
              "type": "uint256"
            }
          ],
          "internalType": "struct AgreementContract.Skill[]",
          "name": "",
          "type": "tuple[]"
        }
      ],
      "stateMutability": "view",
      "type": "function"
    },
    {
      "inputs": [
        {
          "internalType": "address",
          "name": "_user",
          "type": "address"
        }
      ],
      "name": "getUserAgreements",
      "outputs": [
        {
          "internalType": "uint256[]",
          "name": "",
          "type": "uint256[]"
        }
      ],
      "stateMutability": "view",
      "type": "function"
    },
    {
      "inputs": [],
      "name": "kyodoTreasury",
      "outputs": [
        {
          "internalType": "address",
          "name": "",
          "type": "address"
        }
      ],
      "stateMutability": "view",
      "type": "function"
    },
    {
      "inputs": [],
      "name": "kyodoTreasuryFee",
      "outputs": [
        {
          "internalType": "uint256",
          "name": "",
          "type": "uint256"
        }
      ],
      "stateMutability": "view",
      "type": "function"
    },
    {
      "inputs": [
        {
          "internalType": "uint256",
          "name": "_agreementId",
          "type": "uint256"
        },
        {
          "internalType": "uint256",
          "name": "_amountToPay",
          "type": "uint256"
        },
        {
          "internalType": "address",
          "name": "_paymentAddress",
          "type": "address"
        }
      ],
      "name": "makePayment",
      "outputs": [],
      "stateMutability": "nonpayable",
      "type": "function"
    },
    {
      "inputs": [],
      "name": "nextAgreementId",
      "outputs": [
        {
          "internalType": "uint256",
          "name": "",
          "type": "uint256"
        }
      ],
      "stateMutability": "view",
      "type": "function"
    },
    {
      "inputs": [],
      "name": "owner",
      "outputs": [
        {
          "internalType": "address",
          "name": "",
          "type": "address"
        }
      ],
      "stateMutability": "view",
      "type": "function"
    },
    {
      "inputs": [
        {
          "internalType": "uint256",
          "name": "_feePercentage",
          "type": "uint256"
        },
        {
          "internalType": "uint256",
          "name": "_kyodoTreasuryFee",
          "type": "uint256"
        },
        {
          "internalType": "uint256",
          "name": "_communityDAOFee",
          "type": "uint256"
        }
      ],
      "name": "setFees",
      "outputs": [],
      "stateMutability": "nonpayable",
      "type": "function"
    },
    {
      "inputs": [
        {
          "internalType": "address",
          "name": "_StableVaultAddress",
          "type": "address"
        }
      ],
      "name": "setStableVaultAddress",
      "outputs": [],
      "stateMutability": "nonpayable",
      "type": "function"
    },
    {
      "inputs": [],
      "name": "tokenIncentive",
      "outputs": [
        {
          "internalType": "uint256",
          "name": "amount",
          "type": "uint256"
        },
        {
          "internalType": "address",
          "name": "tokenAddress",
          "type": "address"
        }
      ],
      "stateMutability": "view",
      "type": "function"
    },
    {
      "inputs": [
        {
          "internalType": "address",
          "name": "_newTokenAddress",
          "type": "address"
        },
        {
          "internalType": "uint256",
          "name": "_newAmount",
          "type": "uint256"
        }
      ],
      "name": "updateTokenIncentive",
      "outputs": [],
      "stateMutability": "nonpayable",
      "type": "function"
    },
    {
      "inputs": [
        {
          "internalType": "address",
          "name": "",
          "type": "address"
        },
        {
          "internalType": "uint256",
          "name": "",
          "type": "uint256"
        }
      ],
      "name": "userAgreements",
      "outputs": [
        {
          "internalType": "uint256",
          "name": "",
          "type": "uint256"
        }
      ],
      "stateMutability": "view",
      "type": "function"
    }
  ],
  "bytecode": "0x608060405260016000553480156200001657600080fd5b5060405162003ade38038062003ade83398181016040528101906200003c91906200011e565b33600860006101000a81548173ffffffffffffffffffffffffffffffffffffffff021916908373ffffffffffffffffffffffffffffffffffffffff16021790555081600960006101000a81548173ffffffffffffffffffffffffffffffffffffffff021916908373ffffffffffffffffffffffffffffffffffffffff16021790555080600a60006101000a81548173ffffffffffffffffffffffffffffffffffffffff021916908373ffffffffffffffffffffffffffffffffffffffff1602179055505050620001ad565b600081519050620001188162000193565b92915050565b600080604083850312156200013257600080fd5b6000620001428582860162000107565b9250506020620001558582860162000107565b9150509250929050565b60006200016c8262000173565b9050919050565b600073ffffffffffffffffffffffffffffffffffffffff82169050919050565b6200019e816200015f565b8114620001aa57600080fd5b50565b61392180620001bd6000396000f3fe608060405234801561001057600080fd5b50600436106101575760003560e01c8063964bb4ab116100c3578063bd14de961161007c578063bd14de96146103de578063c9b99dab14610416578063c9e9290514610434578063cec10c1114610452578063f2d64a961461046e578063fc3f5dff1461048c57610157565b8063964bb4ab1461030a578063a001ecdd14610328578063a06ee2db14610346578063a861367614610362578063adb9cae61461037e578063b3f8cb00146103ae57610157565b80634e6873c7116101155780634e6873c714610246578063573fb624146102645780637d239907146102945780637e698256146102b25780638207546e146102ce5780638da5cb5b146102ec57610157565b80628bed3e1461015c57806313cda3b71461017a578063242686051461019657806329db7493146101b5578063484bb244146101e65780634c27984e14610216575b600080fd5b6101646104a8565b6040516101719190613149565b60405180910390f35b610194600480360381019061018f919061268e565b6104b5565b005b61019e6105a0565b6040516101ac929190613164565b60405180910390f35b6101cf60048036038101906101ca9190612804565b6105d2565b6040516101dd929190612fd7565b60405180910390f35b61020060048036038101906101fb919061268e565b61069b565b60405161020d9190612fa1565b60405180910390f35b610230600480360381019061022b91906126b7565b6106bb565b60405161023d9190613149565b60405180910390f35b61024e6106ec565b60405161025b9190612f3b565b60405180910390f35b61027e600480360381019061027991906127db565b610a9f565b60405161028b9190613127565b60405180910390f35b61029c610eb4565b6040516102a99190613149565b60405180910390f35b6102cc60048036038101906102c791906126b7565b610eba565b005b6102d6610fcf565b6040516102e39190612ec0565b60405180910390f35b6102f4610ff5565b6040516103019190612ec0565b60405180910390f35b61031261101b565b60405161031f9190612ec0565b60405180910390f35b610330611041565b60405161033d9190613149565b60405180910390f35b610360600480360381019061035b919061268e565b611047565b005b61037c6004803603810190610377919061271c565b61111b565b005b6103986004803603810190610393919061268e565b6117f6565b6040516103a59190612f7f565b60405180910390f35b6103c860048036038101906103c391906127db565b61188d565b6040516103d59190612f5d565b60405180910390f35b6103f860048036038101906103f391906127db565b61199b565b60405161040d999897969594939291906131c4565b60405180910390f35b61041e611c2a565b60405161042b9190613149565b60405180910390f35b61043c611c30565b6040516104499190613149565b60405180910390f35b61046c6004803603810190610467919061288f565b611c36565b005b610476611d32565b6040516104839190612fbc565b60405180910390f35b6104a660048036038101906104a19190612840565b611d58565b005b6000600180549050905090565b600860009054906101000a900473ffffffffffffffffffffffffffffffffffffffff1673ffffffffffffffffffffffffffffffffffffffff163373ffffffffffffffffffffffffffffffffffffffff1614610545576040517f08c379a000000000000000000000000000000000000000000000000000000000815260040161053c90613047565b60405180910390fd5b6001600360008373ffffffffffffffffffffffffffffffffffffffff1673ffffffffffffffffffffffffffffffffffffffff16815260200190815260200160002060006101000a81548160ff02191690831515021790555050565b60058060000154908060010160009054906101000a900473ffffffffffffffffffffffffffffffffffffffff16905082565b600460205281600052604060002081815481106105ee57600080fd5b906000526020600020906002020160009150915050806000018054610612906134ea565b80601f016020809104026020016040519081016040528092919081815260200182805461063e906134ea565b801561068b5780601f106106605761010080835404028352916020019161068b565b820191906000526020600020905b81548152906001019060200180831161066e57829003601f168201915b5050505050908060010154905082565b60036020528060005260406000206000915054906101000a900460ff1681565b600260205281600052604060002081815481106106d757600080fd5b90600052602060002001600091509150505481565b60606001805480602002602001604051908101604052809291908181526020016000905b82821015610a9657838290600052602060002090600a0201604051806101200160405290816000820154815260200160018201805461074e906134ea565b80601f016020809104026020016040519081016040528092919081815260200182805461077a906134ea565b80156107c75780601f1061079c576101008083540402835291602001916107c7565b820191906000526020600020905b8154815290600101906020018083116107aa57829003601f168201915b505050505081526020016002820180546107e0906134ea565b80601f016020809104026020016040519081016040528092919081815260200182805461080c906134ea565b80156108595780601f1061082e57610100808354040283529160200191610859565b820191906000526020600020905b81548152906001019060200180831161083c57829003601f168201915b505050505081526020016003820160009054906101000a900460ff1660018111156108ad577f4e487b7100000000000000000000000000000000000000000000000000000000600052602160045260246000fd5b60018111156108e5577f4e487b7100000000000000000000000000000000000000000000000000000000600052602160045260246000fd5b81526020016003820160019054906101000a900473ffffffffffffffffffffffffffffffffffffffff1673ffffffffffffffffffffffffffffffffffffffff1673ffffffffffffffffffffffffffffffffffffffff1681526020016004820160009054906101000a900473ffffffffffffffffffffffffffffffffffffffff1673ffffffffffffffffffffffffffffffffffffffff1673ffffffffffffffffffffffffffffffffffffffff16815260200160058201604051806040016040529081600082015481526020016001820160009054906101000a900473ffffffffffffffffffffffffffffffffffffffff1673ffffffffffffffffffffffffffffffffffffffff1673ffffffffffffffffffffffffffffffffffffffff1681525050815260200160078201604051806040016040529081600082015481526020016001820160009054906101000a900473ffffffffffffffffffffffffffffffffffffffff1673ffffffffffffffffffffffffffffffffffffffff1673ffffffffffffffffffffffffffffffffffffffff1681525050815260200160098201548152505081526020019060010190610710565b50505050905090565b610aa761236d565b600082118015610abc57506001805490508211155b610afb576040517f08c379a0000000000000000000000000000000000000000000000000000000008152600401610af290613087565b60405180910390fd5b60018083610b0991906133e3565b81548110610b40577f4e487b7100000000000000000000000000000000000000000000000000000000600052603260045260246000fd5b90600052602060002090600a02016040518061012001604052908160008201548152602001600182018054610b74906134ea565b80601f0160208091040260200160405190810160405280929190818152602001828054610ba0906134ea565b8015610bed5780601f10610bc257610100808354040283529160200191610bed565b820191906000526020600020905b815481529060010190602001808311610bd057829003601f168201915b50505050508152602001600282018054610c06906134ea565b80601f0160208091040260200160405190810160405280929190818152602001828054610c32906134ea565b8015610c7f5780601f10610c5457610100808354040283529160200191610c7f565b820191906000526020600020905b815481529060010190602001808311610c6257829003601f168201915b505050505081526020016003820160009054906101000a900460ff166001811115610cd3577f4e487b7100000000000000000000000000000000000000000000000000000000600052602160045260246000fd5b6001811115610d0b577f4e487b7100000000000000000000000000000000000000000000000000000000600052602160045260246000fd5b81526020016003820160019054906101000a900473ffffffffffffffffffffffffffffffffffffffff1673ffffffffffffffffffffffffffffffffffffffff1673ffffffffffffffffffffffffffffffffffffffff1681526020016004820160009054906101000a900473ffffffffffffffffffffffffffffffffffffffff1673ffffffffffffffffffffffffffffffffffffffff1673ffffffffffffffffffffffffffffffffffffffff16815260200160058201604051806040016040529081600082015481526020016001820160009054906101000a900473ffffffffffffffffffffffffffffffffffffffff1673ffffffffffffffffffffffffffffffffffffffff1673ffffffffffffffffffffffffffffffffffffffff1681525050815260200160078201604051806040016040529081600082015481526020016001820160009054906101000a900473ffffffffffffffffffffffffffffffffffffffff1673ffffffffffffffffffffffffffffffffffffffff1673ffffffffffffffffffffffffffffffffffffffff168152505081526020016009820154815250509050919050565b600c5481565b600860009054906101000a900473ffffffffffffffffffffffffffffffffffffffff1673ffffffffffffffffffffffffffffffffffffffff163373ffffffffffffffffffffffffffffffffffffffff1614610f4a576040517f08c379a0000000000000000000000000000000000000000000000000000000008152600401610f4190613047565b60405180910390fd5b60405180604001604052808281526020018373ffffffffffffffffffffffffffffffffffffffff1681525060056000820151816000015560208201518160010160006101000a81548173ffffffffffffffffffffffffffffffffffffffff021916908373ffffffffffffffffffffffffffffffffffffffff1602179055509050505050565b600a60009054906101000a900473ffffffffffffffffffffffffffffffffffffffff1681565b600860009054906101000a900473ffffffffffffffffffffffffffffffffffffffff1681565b600960009054906101000a900473ffffffffffffffffffffffffffffffffffffffff1681565b600b5481565b600860009054906101000a900473ffffffffffffffffffffffffffffffffffffffff1673ffffffffffffffffffffffffffffffffffffffff163373ffffffffffffffffffffffffffffffffffffffff16146110d7576040517f08c379a00000000000000000000000000000000000000000000000000000000081526004016110ce90613047565b60405180910390fd5b80600760006101000a81548173ffffffffffffffffffffffffffffffffffffffff021916908373ffffffffffffffffffffffffffffffffffffffff16021790555050565b600073ffffffffffffffffffffffffffffffffffffffff168373ffffffffffffffffffffffffffffffffffffffff16141561118b576040517f08c379a0000000000000000000000000000000000000000000000000000000008152600401611182906130a7565b60405180910390fd5b60008251116111cf576040517f08c379a00000000000000000000000000000000000000000000000000000000081526004016111c690613027565b60405180910390fd5b60008111611212576040517f08c379a0000000000000000000000000000000000000000000000000000000008152600401611209906130e7565b60405180910390fd5b3373ffffffffffffffffffffffffffffffffffffffff168373ffffffffffffffffffffffffffffffffffffffff161415611281576040517f08c379a0000000000000000000000000000000000000000000000000000000008152600401611278906130c7565b60405180910390fd5b60006040518060400160405280838152602001600073ffffffffffffffffffffffffffffffffffffffff168152509050600060405180610120016040528060005481526020018881526020018781526020016000600181111561130d577f4e487b7100000000000000000000000000000000000000000000000000000000600052602160045260246000fd5b81526020013373ffffffffffffffffffffffffffffffffffffffff1681526020018673ffffffffffffffffffffffffffffffffffffffff1681526020016005604051806040016040529081600082015481526020016001820160009054906101000a900473ffffffffffffffffffffffffffffffffffffffff1673ffffffffffffffffffffffffffffffffffffffff1673ffffffffffffffffffffffffffffffffffffffff168152505081526020018381526020016000815250905060005b84518110156114eb576004600080548152602001908152602001600020604051806040016040528087848151811061142d577f4e487b7100000000000000000000000000000000000000000000000000000000600052603260045260246000fd5b6020026020010151600001518152602001878481518110611477577f4e487b7100000000000000000000000000000000000000000000000000000000600052603260045260246000fd5b602002602001015160200151815250908060018154018082558091505060019003906000526020600020906002020160009091909190915060008201518160000190805190602001906114cb929190612429565b5060208201518160010155505080806114e39061354d565b9150506113cc565b5060018190806001815401808255809150506001900390600052602060002090600a020160009091909190915060008201518160000155602082015181600101908051906020019061153e929190612429565b50604082015181600201908051906020019061155b929190612429565b5060608201518160030160006101000a81548160ff021916908360018111156115ad577f4e487b7100000000000000000000000000000000000000000000000000000000600052602160045260246000fd5b021790555060808201518160030160016101000a81548173ffffffffffffffffffffffffffffffffffffffff021916908373ffffffffffffffffffffffffffffffffffffffff16021790555060a08201518160040160006101000a81548173ffffffffffffffffffffffffffffffffffffffff021916908373ffffffffffffffffffffffffffffffffffffffff16021790555060c0820151816005016000820151816000015560208201518160010160006101000a81548173ffffffffffffffffffffffffffffffffffffffff021916908373ffffffffffffffffffffffffffffffffffffffff160217905550505060e0820151816007016000820151816000015560208201518160010160006101000a81548173ffffffffffffffffffffffffffffffffffffffff021916908373ffffffffffffffffffffffffffffffffffffffff160217905550505061010082015181600901555050600260003373ffffffffffffffffffffffffffffffffffffffff1673ffffffffffffffffffffffffffffffffffffffff16815260200190815260200160002060005490806001815401808255809150506001900390600052602060002001600090919091909150558473ffffffffffffffffffffffffffffffffffffffff163373ffffffffffffffffffffffffffffffffffffffff167f4969d8f058da37f5b596425a39904e9a027ac23d1865d6efd5df5a5e24eef7de600054866040516117ce929190613260565b60405180910390a36000808154809291906117e89061354d565b919050555050505050505050565b6060600260008373ffffffffffffffffffffffffffffffffffffffff1673ffffffffffffffffffffffffffffffffffffffff16815260200190815260200160002080548060200260200160405190810160405280929190818152602001828054801561188157602002820191906000526020600020905b81548152602001906001019080831161186d575b50505050509050919050565b606060046000838152602001908152602001600020805480602002602001604051908101604052809291908181526020016000905b8282101561199057838290600052602060002090600202016040518060400160405290816000820180546118f5906134ea565b80601f0160208091040260200160405190810160405280929190818152602001828054611921906134ea565b801561196e5780601f106119435761010080835404028352916020019161196e565b820191906000526020600020905b81548152906001019060200180831161195157829003601f168201915b50505050508152602001600182015481525050815260200190600101906118c2565b505050509050919050565b600181815481106119ab57600080fd5b90600052602060002090600a02016000915090508060000154908060010180546119d4906134ea565b80601f0160208091040260200160405190810160405280929190818152602001828054611a00906134ea565b8015611a4d5780601f10611a2257610100808354040283529160200191611a4d565b820191906000526020600020905b815481529060010190602001808311611a3057829003601f168201915b505050505090806002018054611a62906134ea565b80601f0160208091040260200160405190810160405280929190818152602001828054611a8e906134ea565b8015611adb5780601f10611ab057610100808354040283529160200191611adb565b820191906000526020600020905b815481529060010190602001808311611abe57829003601f168201915b5050505050908060030160009054906101000a900460ff16908060030160019054906101000a900473ffffffffffffffffffffffffffffffffffffffff16908060040160009054906101000a900473ffffffffffffffffffffffffffffffffffffffff169080600501604051806040016040529081600082015481526020016001820160009054906101000a900473ffffffffffffffffffffffffffffffffffffffff1673ffffffffffffffffffffffffffffffffffffffff1673ffffffffffffffffffffffffffffffffffffffff16815250509080600701604051806040016040529081600082015481526020016001820160009054906101000a900473ffffffffffffffffffffffffffffffffffffffff1673ffffffffffffffffffffffffffffffffffffffff1673ffffffffffffffffffffffffffffffffffffffff1681525050908060090154905089565b60005481565b600d5481565b600860009054906101000a900473ffffffffffffffffffffffffffffffffffffffff1673ffffffffffffffffffffffffffffffffffffffff163373ffffffffffffffffffffffffffffffffffffffff1614611cc6576040517f08c379a0000000000000000000000000000000000000000000000000000000008152600401611cbd90613047565b60405180910390fd5b60008310158015611cd957506103e88311155b611d18576040517f08c379a0000000000000000000000000000000000000000000000000000000008152600401611d0f90613107565b60405180910390fd5b82600b8190555081600c8190555080600d81905550505050565b600760009054906101000a900473ffffffffffffffffffffffffffffffffffffffff1681565b600083118015611d6d57506001805490508311155b611dac576040517f08c379a0000000000000000000000000000000000000000000000000000000008152600401611da390613087565b60405180910390fd5b600360008273ffffffffffffffffffffffffffffffffffffffff1673ffffffffffffffffffffffffffffffffffffffff16815260200190815260200160002060009054906101000a900460ff16611e38576040517f08c379a0000000000000000000000000000000000000000000000000000000008152600401611e2f90613067565b60405180910390fd5b600060018085611e4891906133e3565b81548110611e7f577f4e487b7100000000000000000000000000000000000000000000000000000000600052603260045260246000fd5b90600052602060002090600a020190506000806000806000808790506103e8600b54029550620f424089870281611edf577f4e487b7100000000000000000000000000000000000000000000000000000000600052601260045260246000fd5b0494506103e8600c54860281611f1e577f4e487b7100000000000000000000000000000000000000000000000000000000600052601260045260246000fd5b049350838503925084890391508073ffffffffffffffffffffffffffffffffffffffff166323b872dd33308c6040518463ffffffff1660e01b8152600401611f6893929190612edb565b602060405180830381600087803b158015611f8257600080fd5b505af1158015611f96573d6000803e3d6000fd5b505050506040513d601f19601f82011682018060405250810190611fba91906126f3565b611ff9576040517f08c379a0000000000000000000000000000000000000000000000000000000008152600401611ff090613007565b60405180910390fd5b8073ffffffffffffffffffffffffffffffffffffffff1663095ea7b3600760009054906101000a900473ffffffffffffffffffffffffffffffffffffffff168b6040518363ffffffff1660e01b8152600401612056929190612f12565b602060405180830381600087803b15801561207057600080fd5b505af1158015612084573d6000803e3d6000fd5b505050506040513d601f19601f820116820180604052508101906120a891906126f3565b50600760009054906101000a900473ffffffffffffffffffffffffffffffffffffffff1673ffffffffffffffffffffffffffffffffffffffff16632e2d298483838a60040160009054906101000a900473ffffffffffffffffffffffffffffffffffffffff166040518463ffffffff1660e01b815260040161212c9392919061318d565b600060405180830381600087803b15801561214657600080fd5b505af115801561215a573d6000803e3d6000fd5b50505050600760009054906101000a900473ffffffffffffffffffffffffffffffffffffffff1673ffffffffffffffffffffffffffffffffffffffff16632e2d29848583600960009054906101000a900473ffffffffffffffffffffffffffffffffffffffff166040518463ffffffff1660e01b81526004016121df9392919061318d565b600060405180830381600087803b1580156121f957600080fd5b505af115801561220d573d6000803e3d6000fd5b50505050600760009054906101000a900473ffffffffffffffffffffffffffffffffffffffff1673ffffffffffffffffffffffffffffffffffffffff16632e2d29848483600a60009054906101000a900473ffffffffffffffffffffffffffffffffffffffff166040518463ffffffff1660e01b81526004016122929392919061318d565b600060405180830381600087803b1580156122ac57600080fd5b505af11580156122c0573d6000803e3d6000fd5b505050508887600901600082825401925050819055508660040160009054906101000a900473ffffffffffffffffffffffffffffffffffffffff1673ffffffffffffffffffffffffffffffffffffffff163373ffffffffffffffffffffffffffffffffffffffff167f1f004c54eef332ef6912dae8f1775c102da23bec79ccf602eaaa072938e96b678c8c604051612359929190613260565b60405180910390a350505050505050505050565b604051806101200160405280600081526020016060815260200160608152602001600060018111156123c8577f4e487b7100000000000000000000000000000000000000000000000000000000600052602160045260246000fd5b8152602001600073ffffffffffffffffffffffffffffffffffffffff168152602001600073ffffffffffffffffffffffffffffffffffffffff16815260200161240f6124af565b815260200161241c6124af565b8152602001600081525090565b828054612435906134ea565b90600052602060002090601f016020900481019282612457576000855561249e565b82601f1061247057805160ff191683800117855561249e565b8280016001018555821561249e579182015b8281111561249d578251825591602001919060010190612482565b5b5090506124ab91906124df565b5090565b604051806040016040528060008152602001600073ffffffffffffffffffffffffffffffffffffffff1681525090565b5b808211156124f85760008160009055506001016124e0565b5090565b600061250f61250a846132ae565b613289565b9050808382526020820190508260005b8581101561254f57813585016125358882612615565b84526020840193506020830192505060018101905061251f565b5050509392505050565b600061256c612567846132da565b613289565b90508281526020810184848401111561258457600080fd5b61258f8482856134a8565b509392505050565b6000813590506125a6816138a6565b92915050565b600082601f8301126125bd57600080fd5b81356125cd8482602086016124fc565b91505092915050565b6000815190506125e5816138bd565b92915050565b600082601f8301126125fc57600080fd5b813561260c848260208601612559565b91505092915050565b60006040828403121561262757600080fd5b6126316040613289565b9050600082013567ffffffffffffffff81111561264d57600080fd5b612659848285016125eb565b600083015250602061266d84828501612679565b60208301525092915050565b600081359050612688816138d4565b92915050565b6000602082840312156126a057600080fd5b60006126ae84828501612597565b91505092915050565b600080604083850312156126ca57600080fd5b60006126d885828601612597565b92505060206126e985828601612679565b9150509250929050565b60006020828403121561270557600080fd5b6000612713848285016125d6565b91505092915050565b600080600080600060a0868803121561273457600080fd5b600086013567ffffffffffffffff81111561274e57600080fd5b61275a888289016125eb565b955050602086013567ffffffffffffffff81111561277757600080fd5b612783888289016125eb565b945050604061279488828901612597565b935050606086013567ffffffffffffffff8111156127b157600080fd5b6127bd888289016125ac565b92505060806127ce88828901612679565b9150509295509295909350565b6000602082840312156127ed57600080fd5b60006127fb84828501612679565b91505092915050565b6000806040838503121561281757600080fd5b600061282585828601612679565b925050602061283685828601612679565b9150509250929050565b60008060006060848603121561285557600080fd5b600061286386828701612679565b935050602061287486828701612679565b925050604061288586828701612597565b9150509250925092565b6000806000606084860312156128a457600080fd5b60006128b286828701612679565b93505060206128c386828701612679565b92505060406128d486828701612679565b9150509250925092565b60006128ea8383612c6d565b905092915050565b60006128fe8383612e07565b905092915050565b60006129128383612ea2565b60208301905092915050565b61292781613417565b82525050565b61293681613417565b82525050565b60006129478261333b565b612951818561338e565b9350836020820285016129638561330b565b8060005b8581101561299f578484038952815161298085826128de565b945061298b83613367565b925060208a01995050600181019050612967565b50829750879550505050505092915050565b60006129bc82613346565b6129c6818561339f565b9350836020820285016129d88561331b565b8060005b85811015612a1457848403895281516129f585826128f2565b9450612a0083613374565b925060208a019950506001810190506129dc565b50829750879550505050505092915050565b6000612a3182613351565b612a3b81856133b0565b9350612a468361332b565b8060005b83811015612a77578151612a5e8882612906565b9750612a6983613381565b925050600181019050612a4a565b5085935050505092915050565b612a8d81613429565b82525050565b612a9c81613472565b82525050565b612aab81613496565b82525050565b612aba81613496565b82525050565b6000612acb8261335c565b612ad581856133c1565b9350612ae58185602086016134b7565b612aee81613652565b840191505092915050565b6000612b048261335c565b612b0e81856133d2565b9350612b1e8185602086016134b7565b612b2781613652565b840191505092915050565b6000612b3f602d836133d2565b9150612b4a82613663565b604082019050919050565b6000612b626018836133d2565b9150612b6d826136b2565b602082019050919050565b6000612b856025836133d2565b9150612b90826136db565b604082019050919050565b6000612ba86015836133d2565b9150612bb38261372a565b602082019050919050565b6000612bcb6014836133d2565b9150612bd682613753565b602082019050919050565b6000612bee6023836133d2565b9150612bf98261377c565b604082019050919050565b6000612c116032836133d2565b9150612c1c826137cb565b604082019050919050565b6000612c346028836133d2565b9150612c3f8261381a565b604082019050919050565b6000612c576016836133d2565b9150612c6282613869565b602082019050919050565b600061016083016000830151612c866000860182612ea2565b5060208301518482036020860152612c9e8282612ac0565b91505060408301518482036040860152612cb88282612ac0565b9150506060830151612ccd6060860182612aa2565b506080830151612ce0608086018261291e565b5060a0830151612cf360a086018261291e565b5060c0830151612d0660c0860182612e44565b5060e0830151612d1a610100860182612e44565b50610100830151612d2f610140860182612ea2565b508091505092915050565b600061016083016000830151612d536000860182612ea2565b5060208301518482036020860152612d6b8282612ac0565b91505060408301518482036040860152612d858282612ac0565b9150506060830151612d9a6060860182612aa2565b506080830151612dad608086018261291e565b5060a0830151612dc060a086018261291e565b5060c0830151612dd360c0860182612e44565b5060e0830151612de7610100860182612e44565b50610100830151612dfc610140860182612ea2565b508091505092915050565b60006040830160008301518482036000860152612e248282612ac0565b9150506020830151612e396020860182612ea2565b508091505092915050565b604082016000820151612e5a6000850182612ea2565b506020820151612e6d602085018261291e565b50505050565b604082016000820151612e896000850182612ea2565b506020820151612e9c602085018261291e565b50505050565b612eab81613468565b82525050565b612eba81613468565b82525050565b6000602082019050612ed5600083018461292d565b92915050565b6000606082019050612ef0600083018661292d565b612efd602083018561292d565b612f0a6040830184612eb1565b949350505050565b6000604082019050612f27600083018561292d565b612f346020830184612eb1565b9392505050565b60006020820190508181036000830152612f55818461293c565b905092915050565b60006020820190508181036000830152612f7781846129b1565b905092915050565b60006020820190508181036000830152612f998184612a26565b905092915050565b6000602082019050612fb66000830184612a84565b92915050565b6000602082019050612fd16000830184612a93565b92915050565b60006040820190508181036000830152612ff18185612af9565b90506130006020830184612eb1565b9392505050565b6000602082019050818103600083015261302081612b32565b9050919050565b6000602082019050818103600083015261304081612b55565b9050919050565b6000602082019050818103600083015261306081612b78565b9050919050565b6000602082019050818103600083015261308081612b9b565b9050919050565b600060208201905081810360008301526130a081612bbe565b9050919050565b600060208201905081810360008301526130c081612be1565b9050919050565b600060208201905081810360008301526130e081612c04565b9050919050565b6000602082019050818103600083015261310081612c27565b9050919050565b6000602082019050818103600083015261312081612c4a565b9050919050565b600060208201905081810360008301526131418184612d3a565b905092915050565b600060208201905061315e6000830184612eb1565b92915050565b60006040820190506131796000830185612eb1565b613186602083018461292d565b9392505050565b60006060820190506131a26000830186612eb1565b6131af602083018561292d565b6131bc604083018461292d565b949350505050565b6000610160820190506131da600083018c612eb1565b81810360208301526131ec818b612af9565b90508181036040830152613200818a612af9565b905061320f6060830189612ab1565b61321c608083018861292d565b61322960a083018761292d565b61323660c0830186612e73565b613244610100830185612e73565b613252610140830184612eb1565b9a9950505050505050505050565b60006040820190506132756000830185612eb1565b6132826020830184612eb1565b9392505050565b60006132936132a4565b905061329f828261351c565b919050565b6000604051905090565b600067ffffffffffffffff8211156132c9576132c8613623565b5b602082029050602081019050919050565b600067ffffffffffffffff8211156132f5576132f4613623565b5b6132fe82613652565b9050602081019050919050565b6000819050602082019050919050565b6000819050602082019050919050565b6000819050602082019050919050565b600081519050919050565b600081519050919050565b600081519050919050565b600081519050919050565b6000602082019050919050565b6000602082019050919050565b6000602082019050919050565b600082825260208201905092915050565b600082825260208201905092915050565b600082825260208201905092915050565b600082825260208201905092915050565b600082825260208201905092915050565b60006133ee82613468565b91506133f983613468565b92508282101561340c5761340b613596565b5b828203905092915050565b600061342282613448565b9050919050565b60008115159050919050565b600081905061344382613892565b919050565b600073ffffffffffffffffffffffffffffffffffffffff82169050919050565b6000819050919050565b600061347d82613484565b9050919050565b600061348f82613448565b9050919050565b60006134a182613435565b9050919050565b82818337600083830152505050565b60005b838110156134d55780820151818401526020810190506134ba565b838111156134e4576000848401525b50505050565b6000600282049050600182168061350257607f821691505b60208210811415613516576135156135f4565b5b50919050565b61352582613652565b810181811067ffffffffffffffff8211171561354457613543613623565b5b80604052505050565b600061355882613468565b91507fffffffffffffffffffffffffffffffffffffffffffffffffffffffffffffffff82141561358b5761358a613596565b5b600182019050919050565b7f4e487b7100000000000000000000000000000000000000000000000000000000600052601160045260246000fd5b7f4e487b7100000000000000000000000000000000000000000000000000000000600052602160045260246000fd5b7f4e487b7100000000000000000000000000000000000000000000000000000000600052602260045260246000fd5b7f4e487b7100000000000000000000000000000000000000000000000000000000600052604160045260246000fd5b6000601f19601f8301169050919050565b7f55736572206d75737420617070726f76652074686520616d6f756e74206f662060008201527f7468652061677265656d656e7400000000000000000000000000000000000000602082015250565b7f536b696c6c73206d757374206e6f7420626520656d7074790000000000000000600082015250565b7f4f6e6c7920746865206f776e65722063616e2063616c6c20746869732066756e60008201527f6374696f6e000000000000000000000000000000000000000000000000000000602082015250565b7f496e76616c6964207061796d656e7420746f6b656e0000000000000000000000600082015250565b7f496e76616c69642061677265656d656e74204944000000000000000000000000600082015250565b7f50726f66657373696f6e616c20616464726573732063616e6e6f74206265207a60008201527f65726f0000000000000000000000000000000000000000000000000000000000602082015250565b7f50726f66657373696f6e616c20616464726573732063616e6e6f74206265207460008201527f68652073616d6520617320636f6d70616e790000000000000000000000000000602082015250565b7f5061796d656e7420616d6f756e74206d7573742062652067726561746572207460008201527f68616e207a65726f000000000000000000000000000000000000000000000000602082015250565b7f496e76616c6964206665652070657263656e7461676500000000000000000000600082015250565b600281106138a3576138a26135c5565b5b50565b6138af81613417565b81146138ba57600080fd5b50565b6138c681613429565b81146138d157600080fd5b50565b6138dd81613468565b81146138e857600080fd5b5056fea2646970667358221220f5782de793309649de476b84c7a5f4608fd979031c19cf36faf12e3f22b288f864736f6c63430008010033",
  "linkReferences": {},
  "deployedLinkReferences": {}
}