{
  "_format": "hh-sol-artifact-1",
  "contractName": "AgreementContract",
  "sourceName": "contracts/AgreementContract.sol",
  "abi": [
    {
      "inputs": [
        {
          "internalType": "address",
          "name": "_kyodoTreasury",
          "type": "address"
        },
        {
          "internalType": "address",
          "name": "_communityDAO",
          "type": "address"
        },
        {
          "internalType": "address",
          "name": "admin",
          "type": "address"
        }
      ],
      "stateMutability": "nonpayable",
      "type": "constructor"
    },
    {
      "anonymous": false,
      "inputs": [
        {
          "indexed": true,
          "internalType": "address",
          "name": "company",
          "type": "address"
        },
        {
          "indexed": true,
          "internalType": "address",
          "name": "professional",
          "type": "address"
        },
        {
          "indexed": false,
          "internalType": "uint256",
          "name": "agreementId",
          "type": "uint256"
        },
        {
          "indexed": false,
          "internalType": "uint256",
          "name": "amount",
          "type": "uint256"
        }
      ],
      "name": "AgreementCreated",
      "type": "event"
    },
    {
      "anonymous": false,
      "inputs": [
        {
          "indexed": true,
          "internalType": "address",
          "name": "new_admin",
          "type": "address"
        }
      ],
      "name": "NewAdminAdded",
      "type": "event"
    },
    {
      "anonymous": false,
      "inputs": [
        {
          "indexed": true,
          "internalType": "address",
          "name": "profile",
          "type": "address"
        }
      ],
      "name": "NewProfileAdded",
      "type": "event"
    },
    {
      "anonymous": false,
      "inputs": [
        {
          "indexed": false,
          "internalType": "address",
          "name": "account",
          "type": "address"
        }
      ],
      "name": "Paused",
      "type": "event"
    },
    {
      "anonymous": false,
      "inputs": [
        {
          "indexed": true,
          "internalType": "address",
          "name": "company",
          "type": "address"
        },
        {
          "indexed": true,
          "internalType": "address",
          "name": "professional",
          "type": "address"
        },
        {
          "indexed": false,
          "internalType": "uint256",
          "name": "agreementId",
          "type": "uint256"
        },
        {
          "indexed": false,
          "internalType": "uint256",
          "name": "amount",
          "type": "uint256"
        }
      ],
      "name": "PaymentMade",
      "type": "event"
    },
    {
      "anonymous": false,
      "inputs": [
        {
          "indexed": true,
          "internalType": "address",
          "name": "removed_admin",
          "type": "address"
        }
      ],
      "name": "RemovedAdmin",
      "type": "event"
    },
    {
      "anonymous": false,
      "inputs": [
        {
          "indexed": true,
          "internalType": "bytes32",
          "name": "role",
          "type": "bytes32"
        },
        {
          "indexed": true,
          "internalType": "bytes32",
          "name": "previousAdminRole",
          "type": "bytes32"
        },
        {
          "indexed": true,
          "internalType": "bytes32",
          "name": "newAdminRole",
          "type": "bytes32"
        }
      ],
      "name": "RoleAdminChanged",
      "type": "event"
    },
    {
      "anonymous": false,
      "inputs": [
        {
          "indexed": true,
          "internalType": "bytes32",
          "name": "role",
          "type": "bytes32"
        },
        {
          "indexed": true,
          "internalType": "address",
          "name": "account",
          "type": "address"
        },
        {
          "indexed": true,
          "internalType": "address",
          "name": "sender",
          "type": "address"
        }
      ],
      "name": "RoleGranted",
      "type": "event"
    },
    {
      "anonymous": false,
      "inputs": [
        {
          "indexed": true,
          "internalType": "bytes32",
          "name": "role",
          "type": "bytes32"
        },
        {
          "indexed": true,
          "internalType": "address",
          "name": "account",
          "type": "address"
        },
        {
          "indexed": true,
          "internalType": "address",
          "name": "sender",
          "type": "address"
        }
      ],
      "name": "RoleRevoked",
      "type": "event"
    },
    {
      "anonymous": false,
      "inputs": [
        {
          "indexed": false,
          "internalType": "address",
          "name": "account",
          "type": "address"
        }
      ],
      "name": "Unpaused",
      "type": "event"
    },
    {
      "inputs": [],
      "name": "CHANGE_PARAMETERS",
      "outputs": [
        {
          "internalType": "bytes32",
          "name": "",
          "type": "bytes32"
        }
      ],
      "stateMutability": "view",
      "type": "function"
    },
    {
      "inputs": [],
      "name": "DEFAULT_ADMIN_ROLE",
      "outputs": [
        {
          "internalType": "bytes32",
          "name": "",
          "type": "bytes32"
        }
      ],
      "stateMutability": "view",
      "type": "function"
    },
    {
      "inputs": [],
      "name": "StableVault",
      "outputs": [
        {
          "internalType": "contract IStableVault",
          "name": "",
          "type": "address"
        }
      ],
      "stateMutability": "view",
      "type": "function"
    },
    {
      "inputs": [
        {
          "internalType": "address",
          "name": "",
          "type": "address"
        }
      ],
      "name": "acceptedPaymentTokens",
      "outputs": [
        {
          "internalType": "bool",
          "name": "",
          "type": "bool"
        }
      ],
      "stateMutability": "view",
      "type": "function"
    },
    {
      "inputs": [
        {
          "internalType": "address",
          "name": "_tokenAddress",
          "type": "address"
        }
      ],
      "name": "addAcceptedPaymentToken",
      "outputs": [],
      "stateMutability": "nonpayable",
      "type": "function"
    },
    {
      "inputs": [
        {
          "internalType": "address",
          "name": "account",
          "type": "address"
        }
      ],
      "name": "addAdmin",
      "outputs": [],
      "stateMutability": "nonpayable",
      "type": "function"
    },
    {
      "inputs": [
        {
          "internalType": "address",
          "name": "account",
          "type": "address"
        }
      ],
      "name": "addProfile",
      "outputs": [],
      "stateMutability": "nonpayable",
      "type": "function"
    },
    {
      "inputs": [
        {
          "internalType": "uint256",
          "name": "",
          "type": "uint256"
        },
        {
          "internalType": "uint256",
          "name": "",
          "type": "uint256"
        }
      ],
      "name": "agreementSkills",
      "outputs": [
        {
          "internalType": "string",
          "name": "name",
          "type": "string"
        },
        {
          "internalType": "uint256",
          "name": "level",
          "type": "uint256"
        }
      ],
      "stateMutability": "view",
      "type": "function"
    },
    {
      "inputs": [
        {
          "internalType": "uint256",
          "name": "",
          "type": "uint256"
        }
      ],
      "name": "agreements",
      "outputs": [
        {
          "internalType": "uint256",
          "name": "id",
          "type": "uint256"
        },
        {
          "internalType": "string",
          "name": "title",
          "type": "string"
        },
        {
          "internalType": "string",
          "name": "description",
          "type": "string"
        },
        {
          "internalType": "enum AgreementContract.AgreementStatus",
          "name": "status",
          "type": "uint8"
        },
        {
          "internalType": "address",
          "name": "company",
          "type": "address"
        },
        {
          "internalType": "address",
          "name": "professional",
          "type": "address"
        },
        {
          "components": [
            {
              "internalType": "uint256",
              "name": "amount",
              "type": "uint256"
            },
            {
              "internalType": "address",
              "name": "tokenAddress",
              "type": "address"
            }
          ],
          "internalType": "struct AgreementContract.Token",
          "name": "tokenIncentive",
          "type": "tuple"
        },
        {
          "components": [
            {
              "internalType": "uint256",
              "name": "amount",
              "type": "uint256"
            },
            {
              "internalType": "address",
              "name": "tokenAddress",
              "type": "address"
            }
          ],
          "internalType": "struct AgreementContract.Token",
          "name": "payment",
          "type": "tuple"
        },
        {
          "internalType": "uint256",
          "name": "totalPaid",
          "type": "uint256"
        }
      ],
      "stateMutability": "view",
      "type": "function"
    },
    {
      "inputs": [],
      "name": "communityDAO",
      "outputs": [
        {
          "internalType": "address",
          "name": "",
          "type": "address"
        }
      ],
      "stateMutability": "view",
      "type": "function"
    },
    {
      "inputs": [],
      "name": "communityDAOFee",
      "outputs": [
        {
          "internalType": "uint256",
          "name": "",
          "type": "uint256"
        }
      ],
      "stateMutability": "view",
      "type": "function"
    },
    {
      "inputs": [
        {
          "internalType": "address",
          "name": "",
          "type": "address"
        },
        {
          "internalType": "uint256",
          "name": "",
          "type": "uint256"
        }
      ],
      "name": "contractorAgreements",
      "outputs": [
        {
          "internalType": "uint256",
          "name": "",
          "type": "uint256"
        }
      ],
      "stateMutability": "view",
      "type": "function"
    },
    {
      "inputs": [
        {
          "internalType": "string",
          "name": "_title",
          "type": "string"
        },
        {
          "internalType": "string",
          "name": "_description",
          "type": "string"
        },
        {
          "internalType": "address",
          "name": "_professional",
          "type": "address"
        },
        {
          "components": [
            {
              "internalType": "string",
              "name": "name",
              "type": "string"
            },
            {
              "internalType": "uint256",
              "name": "level",
              "type": "uint256"
            }
          ],
          "internalType": "struct AgreementContract.Skill[]",
          "name": "_skills",
          "type": "tuple[]"
        },
        {
          "internalType": "uint256",
          "name": "_paymentAmount",
          "type": "uint256"
        }
      ],
      "name": "createAgreement",
      "outputs": [],
      "stateMutability": "nonpayable",
      "type": "function"
    },
    {
      "inputs": [],
      "name": "feePercentage",
      "outputs": [
        {
          "internalType": "uint256",
          "name": "",
          "type": "uint256"
        }
      ],
      "stateMutability": "view",
      "type": "function"
    },
    {
      "inputs": [],
      "name": "getAcceptedPaymentTokens",
      "outputs": [
        {
          "internalType": "address",
          "name": "",
          "type": "address"
        }
      ],
      "stateMutability": "view",
      "type": "function"
    },
    {
      "inputs": [
        {
          "internalType": "uint256",
          "name": "_id",
          "type": "uint256"
        }
      ],
      "name": "getAgreementById",
      "outputs": [
        {
          "components": [
            {
              "internalType": "uint256",
              "name": "id",
              "type": "uint256"
            },
            {
              "internalType": "string",
              "name": "title",
              "type": "string"
            },
            {
              "internalType": "string",
              "name": "description",
              "type": "string"
            },
            {
              "internalType": "enum AgreementContract.AgreementStatus",
              "name": "status",
              "type": "uint8"
            },
            {
              "internalType": "address",
              "name": "company",
              "type": "address"
            },
            {
              "internalType": "address",
              "name": "professional",
              "type": "address"
            },
            {
              "components": [
                {
                  "internalType": "uint256",
                  "name": "amount",
                  "type": "uint256"
                },
                {
                  "internalType": "address",
                  "name": "tokenAddress",
                  "type": "address"
                }
              ],
              "internalType": "struct AgreementContract.Token",
              "name": "tokenIncentive",
              "type": "tuple"
            },
            {
              "components": [
                {
                  "internalType": "uint256",
                  "name": "amount",
                  "type": "uint256"
                },
                {
                  "internalType": "address",
                  "name": "tokenAddress",
                  "type": "address"
                }
              ],
              "internalType": "struct AgreementContract.Token",
              "name": "payment",
              "type": "tuple"
            },
            {
              "internalType": "uint256",
              "name": "totalPaid",
              "type": "uint256"
            }
          ],
          "internalType": "struct AgreementContract.Agreement",
          "name": "",
          "type": "tuple"
        }
      ],
      "stateMutability": "view",
      "type": "function"
    },
    {
      "inputs": [],
      "name": "getAgreementCount",
      "outputs": [
        {
          "internalType": "uint256",
          "name": "",
          "type": "uint256"
        }
      ],
      "stateMutability": "view",
      "type": "function"
    },
    {
      "inputs": [],
      "name": "getAllAgreements",
      "outputs": [
        {
          "components": [
            {
              "internalType": "uint256",
              "name": "id",
              "type": "uint256"
            },
            {
              "internalType": "string",
              "name": "title",
              "type": "string"
            },
            {
              "internalType": "string",
              "name": "description",
              "type": "string"
            },
            {
              "internalType": "enum AgreementContract.AgreementStatus",
              "name": "status",
              "type": "uint8"
            },
            {
              "internalType": "address",
              "name": "company",
              "type": "address"
            },
            {
              "internalType": "address",
              "name": "professional",
              "type": "address"
            },
            {
              "components": [
                {
                  "internalType": "uint256",
                  "name": "amount",
                  "type": "uint256"
                },
                {
                  "internalType": "address",
                  "name": "tokenAddress",
                  "type": "address"
                }
              ],
              "internalType": "struct AgreementContract.Token",
              "name": "tokenIncentive",
              "type": "tuple"
            },
            {
              "components": [
                {
                  "internalType": "uint256",
                  "name": "amount",
                  "type": "uint256"
                },
                {
                  "internalType": "address",
                  "name": "tokenAddress",
                  "type": "address"
                }
              ],
              "internalType": "struct AgreementContract.Token",
              "name": "payment",
              "type": "tuple"
            },
            {
              "internalType": "uint256",
              "name": "totalPaid",
              "type": "uint256"
            }
          ],
          "internalType": "struct AgreementContract.Agreement[]",
          "name": "",
          "type": "tuple[]"
        }
      ],
      "stateMutability": "view",
      "type": "function"
    },
    {
      "inputs": [
        {
          "internalType": "address",
          "name": "_contractor",
          "type": "address"
        }
      ],
      "name": "getContractorAgreements",
      "outputs": [
        {
          "internalType": "uint256[]",
          "name": "",
          "type": "uint256[]"
        }
      ],
      "stateMutability": "view",
      "type": "function"
    },
    {
      "inputs": [
        {
          "internalType": "address",
          "name": "_professional",
          "type": "address"
        }
      ],
      "name": "getProfessionalAgreements",
      "outputs": [
        {
          "internalType": "uint256[]",
          "name": "",
          "type": "uint256[]"
        }
      ],
      "stateMutability": "view",
      "type": "function"
    },
    {
      "inputs": [
        {
          "internalType": "bytes32",
          "name": "role",
          "type": "bytes32"
        }
      ],
      "name": "getRoleAdmin",
      "outputs": [
        {
          "internalType": "bytes32",
          "name": "",
          "type": "bytes32"
        }
      ],
      "stateMutability": "view",
      "type": "function"
    },
    {
      "inputs": [
        {
          "internalType": "uint256",
          "name": "_agreementId",
          "type": "uint256"
        }
      ],
      "name": "getSkillsByAgreementId",
      "outputs": [
        {
          "components": [
            {
              "internalType": "string",
              "name": "name",
              "type": "string"
            },
            {
              "internalType": "uint256",
              "name": "level",
              "type": "uint256"
            }
          ],
          "internalType": "struct AgreementContract.Skill[]",
          "name": "",
          "type": "tuple[]"
        }
      ],
      "stateMutability": "view",
      "type": "function"
    },
    {
      "inputs": [
        {
          "internalType": "bytes32",
          "name": "role",
          "type": "bytes32"
        },
        {
          "internalType": "address",
          "name": "account",
          "type": "address"
        }
      ],
      "name": "grantRole",
      "outputs": [],
      "stateMutability": "nonpayable",
      "type": "function"
    },
    {
      "inputs": [
        {
          "internalType": "bytes32",
          "name": "role",
          "type": "bytes32"
        },
        {
          "internalType": "address",
          "name": "account",
          "type": "address"
        }
      ],
      "name": "hasRole",
      "outputs": [
        {
          "internalType": "bool",
          "name": "",
          "type": "bool"
        }
      ],
      "stateMutability": "view",
      "type": "function"
    },
    {
      "inputs": [],
      "name": "kyodoTreasury",
      "outputs": [
        {
          "internalType": "address",
          "name": "",
          "type": "address"
        }
      ],
      "stateMutability": "view",
      "type": "function"
    },
    {
      "inputs": [],
      "name": "kyodoTreasuryFee",
      "outputs": [
        {
          "internalType": "uint256",
          "name": "",
          "type": "uint256"
        }
      ],
      "stateMutability": "view",
      "type": "function"
    },
    {
      "inputs": [
        {
          "internalType": "uint256",
          "name": "_agreementId",
          "type": "uint256"
        },
        {
          "internalType": "uint256",
          "name": "_amountToPay",
          "type": "uint256"
        },
        {
          "internalType": "address",
          "name": "_paymentAddress",
          "type": "address"
        }
      ],
      "name": "makePayment",
      "outputs": [],
      "stateMutability": "nonpayable",
      "type": "function"
    },
    {
      "inputs": [],
      "name": "nextAgreementId",
      "outputs": [
        {
          "internalType": "uint256",
          "name": "",
          "type": "uint256"
        }
      ],
      "stateMutability": "view",
      "type": "function"
    },
    {
      "inputs": [],
      "name": "owner",
      "outputs": [
        {
          "internalType": "address",
          "name": "",
          "type": "address"
        }
      ],
      "stateMutability": "view",
      "type": "function"
    },
    {
      "inputs": [],
      "name": "pause",
      "outputs": [],
      "stateMutability": "nonpayable",
      "type": "function"
    },
    {
      "inputs": [],
      "name": "paused",
      "outputs": [
        {
          "internalType": "bool",
          "name": "",
          "type": "bool"
        }
      ],
      "stateMutability": "view",
      "type": "function"
    },
    {
      "inputs": [
        {
          "internalType": "address",
          "name": "account",
          "type": "address"
        }
      ],
      "name": "removeAdmin",
      "outputs": [],
      "stateMutability": "nonpayable",
      "type": "function"
    },
    {
      "inputs": [
        {
          "internalType": "address",
          "name": "token",
          "type": "address"
        }
      ],
      "name": "removePaymentToken",
      "outputs": [],
      "stateMutability": "nonpayable",
      "type": "function"
    },
    {
      "inputs": [
        {
          "internalType": "bytes32",
          "name": "role",
          "type": "bytes32"
        },
        {
          "internalType": "address",
          "name": "account",
          "type": "address"
        }
      ],
      "name": "renounceRole",
      "outputs": [],
      "stateMutability": "nonpayable",
      "type": "function"
    },
    {
      "inputs": [
        {
          "internalType": "bytes32",
          "name": "role",
          "type": "bytes32"
        },
        {
          "internalType": "address",
          "name": "account",
          "type": "address"
        }
      ],
      "name": "revokeRole",
      "outputs": [],
      "stateMutability": "nonpayable",
      "type": "function"
    },
    {
      "inputs": [
        {
          "internalType": "uint256",
          "name": "_feePercentage",
          "type": "uint256"
        },
        {
          "internalType": "uint256",
          "name": "_kyodoTreasuryFee",
          "type": "uint256"
        },
        {
          "internalType": "uint256",
          "name": "_communityDAOFee",
          "type": "uint256"
        }
      ],
      "name": "setFees",
      "outputs": [],
      "stateMutability": "nonpayable",
      "type": "function"
    },
    {
      "inputs": [
        {
          "internalType": "address",
          "name": "_StableVaultAddress",
          "type": "address"
        }
      ],
      "name": "setStableVaultAddress",
      "outputs": [],
      "stateMutability": "nonpayable",
      "type": "function"
    },
    {
      "inputs": [
        {
          "internalType": "bytes4",
          "name": "interfaceId",
          "type": "bytes4"
        }
      ],
      "name": "supportsInterface",
      "outputs": [
        {
          "internalType": "bool",
          "name": "",
          "type": "bool"
        }
      ],
      "stateMutability": "view",
      "type": "function"
    },
    {
      "inputs": [
        {
          "internalType": "uint256",
          "name": "",
          "type": "uint256"
        }
      ],
      "name": "tokenAddresses",
      "outputs": [
        {
          "internalType": "address",
          "name": "",
          "type": "address"
        }
      ],
      "stateMutability": "view",
      "type": "function"
    },
    {
      "inputs": [],
      "name": "tokenIncentive",
      "outputs": [
        {
          "internalType": "uint256",
          "name": "amount",
          "type": "uint256"
        },
        {
          "internalType": "address",
          "name": "tokenAddress",
          "type": "address"
        }
      ],
      "stateMutability": "view",
      "type": "function"
    },
    {
      "inputs": [],
      "name": "unpause",
      "outputs": [],
      "stateMutability": "nonpayable",
      "type": "function"
    },
    {
      "inputs": [
        {
          "internalType": "address",
          "name": "_newTokenAddress",
          "type": "address"
        },
        {
          "internalType": "uint256",
          "name": "_newAmount",
          "type": "uint256"
        }
      ],
      "name": "updateTokenIncentive",
      "outputs": [],
      "stateMutability": "nonpayable",
      "type": "function"
    }
  ],
  "bytecode": "0x608060405260016002553480156200001657600080fd5b5060405162004f9938038062004f9983398181016040528101906200003c919062000339565b806000600160006101000a81548160ff0219169083151502179055506200006d6000801b826200016c60201b60201c565b6200009f7f73fd536265c26e6e13263018bc9d82a9b962a7857ae70dac847fd743f5e71535826200016c60201b60201c565b5033600c60006101000a81548173ffffffffffffffffffffffffffffffffffffffff021916908373ffffffffffffffffffffffffffffffffffffffff16021790555082600d60006101000a81548173ffffffffffffffffffffffffffffffffffffffff021916908373ffffffffffffffffffffffffffffffffffffffff16021790555081600e60006101000a81548173ffffffffffffffffffffffffffffffffffffffff021916908373ffffffffffffffffffffffffffffffffffffffff16021790555050505062000395565b6200017e82826200025d60201b60201c565b6200025957600160008084815260200190815260200160002060000160008373ffffffffffffffffffffffffffffffffffffffff1673ffffffffffffffffffffffffffffffffffffffff16815260200190815260200160002060006101000a81548160ff021916908315150217905550620001fe620002c760201b60201c565b73ffffffffffffffffffffffffffffffffffffffff168173ffffffffffffffffffffffffffffffffffffffff16837f2f8788117e7eff1d82e926ec794901d17c78024a50270940304540a733656f0d60405160405180910390a45b5050565b600080600084815260200190815260200160002060000160008373ffffffffffffffffffffffffffffffffffffffff1673ffffffffffffffffffffffffffffffffffffffff16815260200190815260200160002060009054906101000a900460ff16905092915050565b600033905090565b600080fd5b600073ffffffffffffffffffffffffffffffffffffffff82169050919050565b60006200030182620002d4565b9050919050565b6200031381620002f4565b81146200031f57600080fd5b50565b600081519050620003338162000308565b92915050565b600080600060608486031215620003555762000354620002cf565b5b6000620003658682870162000322565b9350506020620003788682870162000322565b92505060406200038b8682870162000322565b9150509250925092565b614bf480620003a56000396000f3fe608060405234801561001057600080fd5b506004361061025d5760003560e01c80637e69825611610146578063a8613676116100c3578063cec10c1111610087578063cec10c111461071c578063d547741f14610738578063e5df8b8414610754578063f2d64a9614610784578063f38d215d146107a2578063fc3f5dff146107d25761025d565b8063a86136761461065c578063b3f8cb0014610678578063bd14de96146106a8578063c9b99dab146106e0578063c9e92905146106fe5761025d565b8063964bb4ab1161010a578063964bb4ab146105ca578063a001ecdd146105e8578063a06ee2db14610606578063a217fddf14610622578063a5125421146106405761025d565b80637e698256146105385780638207546e146105545780638456cb59146105725780638da5cb5b1461057c57806391d148541461059a5761025d565b806336568abe116101df5780634f7cd72f116101a35780634f7cd72f14610474578063573fb624146104925780635c975abb146104c257806370480275146104e057806377be3d2f146104fc5780637d2399071461051a5761025d565b806336568abe146103d0578063395e5974146103ec5780633f4ba83a1461041c578063484bb244146104265780634e6873c7146104565761025d565b80631785f53c116102265780631785f53c146103185780632426860514610334578063248a9ca31461035357806329db7493146103835780632f2ff15d146103b45761025d565b80628bed3e1461026257806301ffc9a7146102805780630d1cc18d146102b057806310143a64146102e057806313cda3b7146102fc575b600080fd5b61026a6107ee565b6040516102779190613003565b60405180910390f35b61029a6004803603810190610295919061308a565b6107fb565b6040516102a791906130d2565b60405180910390f35b6102ca60048036038101906102c5919061314b565b610875565b6040516102d79190613236565b60405180910390f35b6102fa60048036038101906102f5919061314b565b61090c565b005b6103166004803603810190610311919061314b565b610984565b005b610332600480360381019061032d919061314b565b610a50565b005b61033c610ab9565b60405161034a929190613267565b60405180910390f35b61036d600480360381019061036891906132c6565b610aeb565b60405161037a9190613302565b60405180910390f35b61039d60048036038101906103989190613349565b610b0a565b6040516103ab929190613419565b60405180910390f35b6103ce60048036038101906103c99190613449565b610bd3565b005b6103ea60048036038101906103e59190613449565b610bf4565b005b6104066004803603810190610401919061314b565b610c77565b6040516104139190613236565b60405180910390f35b610424610d0e565b005b610440600480360381019061043b919061314b565b610d2e565b60405161044d91906130d2565b60405180910390f35b61045e610d4e565b60405161046b9190613717565b60405180910390f35b61047c6110b5565b6040516104899190613302565b60405180910390f35b6104ac60048036038101906104a79190613739565b6110d9565b6040516104b99190613833565b60405180910390f35b6104ca61147d565b6040516104d791906130d2565b60405180910390f35b6104fa60048036038101906104f5919061314b565b611494565b005b6105046114fd565b6040516105119190613855565b60405180910390f35b610522611544565b60405161052f9190613003565b60405180910390f35b610552600480360381019061054d9190613870565b61154a565b005b61055c6115dd565b6040516105699190613855565b60405180910390f35b61057a611603565b005b610584611623565b6040516105919190613855565b60405180910390f35b6105b460048036038101906105af9190613449565b611649565b6040516105c191906130d2565b60405180910390f35b6105d26116b3565b6040516105df9190613855565b60405180910390f35b6105f06116d9565b6040516105fd9190613003565b60405180910390f35b610620600480360381019061061b919061314b565b6116df565b005b61062a611731565b6040516106379190613302565b60405180910390f35b61065a6004803603810190610655919061314b565b611738565b005b61067660048036038101906106719190613b41565b6117a1565b005b610692600480360381019061068d9190613739565b611e37565b60405161069f9190613d0f565b60405180910390f35b6106c260048036038101906106bd9190613739565b611f45565b6040516106d799989796959493929190613d6f565b60405180910390f35b6106e86121d4565b6040516106f59190613003565b60405180910390f35b6107066121da565b6040516107139190613003565b60405180910390f35b61073660048036038101906107319190613e0b565b6121e0565b005b610752600480360381019061074d9190613449565b61225a565b005b61076e60048036038101906107699190613739565b61227b565b60405161077b9190613855565b60405180910390f35b61078c6122ba565b6040516107999190613ebd565b60405180910390f35b6107bc60048036038101906107b79190613870565b6122e0565b6040516107c99190613003565b60405180910390f35b6107ec60048036038101906107e79190613ed8565b612311565b005b6000600380549050905090565b60007f7965db0b000000000000000000000000000000000000000000000000000000007bffffffffffffffffffffffffffffffffffffffffffffffffffffffff1916827bffffffffffffffffffffffffffffffffffffffffffffffffffffffff1916148061086e575061086d82612897565b5b9050919050565b6060600460008373ffffffffffffffffffffffffffffffffffffffff1673ffffffffffffffffffffffffffffffffffffffff16815260200190815260200160002080548060200260200160405190810160405280929190818152602001828054801561090057602002820191906000526020600020905b8154815260200190600101908083116108ec575b50505050509050919050565b610914612901565b61093e7f73fd536265c26e6e13263018bc9d82a9b962a7857ae70dac847fd743f5e715358261294b565b8073ffffffffffffffffffffffffffffffffffffffff167f92364d7c14d8a26a040c77305dd885fcd5898051d1b1ead4189b09d5f091159060405160405180910390a250565b6000801b61099181612a2b565b6001600660008473ffffffffffffffffffffffffffffffffffffffff1673ffffffffffffffffffffffffffffffffffffffff16815260200190815260200160002060006101000a81548160ff0219169083151502179055506008829080600181540180825580915050600190039060005260206000200160009091909190916101000a81548173ffffffffffffffffffffffffffffffffffffffff021916908373ffffffffffffffffffffffffffffffffffffffff1602179055505050565b6000801b610a5d81612a2b565b610a65612901565b610a726000801b83612a3f565b8173ffffffffffffffffffffffffffffffffffffffff167f3137a7fedbfedb7895dfa5a6812a4566dae9ded68d00aeec13c6ed1fa84a1c8060405160405180910390a25050565b60098060000154908060010160009054906101000a900473ffffffffffffffffffffffffffffffffffffffff16905082565b6000806000838152602001908152602001600020600101549050919050565b60076020528160005260406000208181548110610b2657600080fd5b906000526020600020906002020160009150915050806000018054610b4a90613f5a565b80601f0160208091040260200160405190810160405280929190818152602001828054610b7690613f5a565b8015610bc35780601f10610b9857610100808354040283529160200191610bc3565b820191906000526020600020905b815481529060010190602001808311610ba657829003601f168201915b5050505050908060010154905082565b610bdc82610aeb565b610be581612a2b565b610bef838361294b565b505050565b610bfc612b20565b73ffffffffffffffffffffffffffffffffffffffff168173ffffffffffffffffffffffffffffffffffffffff1614610c69576040517f08c379a0000000000000000000000000000000000000000000000000000000008152600401610c6090613ffd565b60405180910390fd5b610c738282612a3f565b5050565b6060600560008373ffffffffffffffffffffffffffffffffffffffff1673ffffffffffffffffffffffffffffffffffffffff168152602001908152602001600020805480602002602001604051908101604052809291908181526020018280548015610d0257602002820191906000526020600020905b815481526020019060010190808311610cee575b50505050509050919050565b6000801b610d1b81612a2b565b610d23612b28565b610d2b612b71565b50565b60066020528060005260406000206000915054906101000a900460ff1681565b60606003805480602002602001604051908101604052809291908181526020016000905b828210156110ac57838290600052602060002090600a02016040518061012001604052908160008201548152602001600182018054610db090613f5a565b80601f0160208091040260200160405190810160405280929190818152602001828054610ddc90613f5a565b8015610e295780601f10610dfe57610100808354040283529160200191610e29565b820191906000526020600020905b815481529060010190602001808311610e0c57829003601f168201915b50505050508152602001600282018054610e4290613f5a565b80601f0160208091040260200160405190810160405280929190818152602001828054610e6e90613f5a565b8015610ebb5780601f10610e9057610100808354040283529160200191610ebb565b820191906000526020600020905b815481529060010190602001808311610e9e57829003601f168201915b505050505081526020016003820160009054906101000a900460ff166001811115610ee957610ee86134ff565b5b6001811115610efb57610efa6134ff565b5b81526020016003820160019054906101000a900473ffffffffffffffffffffffffffffffffffffffff1673ffffffffffffffffffffffffffffffffffffffff1673ffffffffffffffffffffffffffffffffffffffff1681526020016004820160009054906101000a900473ffffffffffffffffffffffffffffffffffffffff1673ffffffffffffffffffffffffffffffffffffffff1673ffffffffffffffffffffffffffffffffffffffff16815260200160058201604051806040016040529081600082015481526020016001820160009054906101000a900473ffffffffffffffffffffffffffffffffffffffff1673ffffffffffffffffffffffffffffffffffffffff1673ffffffffffffffffffffffffffffffffffffffff1681525050815260200160078201604051806040016040529081600082015481526020016001820160009054906101000a900473ffffffffffffffffffffffffffffffffffffffff1673ffffffffffffffffffffffffffffffffffffffff1673ffffffffffffffffffffffffffffffffffffffff1681525050815260200160098201548152505081526020019060010190610d72565b50505050905090565b7f73fd536265c26e6e13263018bc9d82a9b962a7857ae70dac847fd743f5e7153581565b6110e1612f24565b6000821180156110f657506003805490508211155b611135576040517f08c379a000000000000000000000000000000000000000000000000000000000815260040161112c90614069565b60405180910390fd5b600360018361114491906140b8565b81548110611155576111546140ec565b5b90600052602060002090600a0201604051806101200160405290816000820154815260200160018201805461118990613f5a565b80601f01602080910402602001604051908101604052809291908181526020018280546111b590613f5a565b80156112025780601f106111d757610100808354040283529160200191611202565b820191906000526020600020905b8154815290600101906020018083116111e557829003601f168201915b5050505050815260200160028201805461121b90613f5a565b80601f016020809104026020016040519081016040528092919081815260200182805461124790613f5a565b80156112945780601f1061126957610100808354040283529160200191611294565b820191906000526020600020905b81548152906001019060200180831161127757829003601f168201915b505050505081526020016003820160009054906101000a900460ff1660018111156112c2576112c16134ff565b5b60018111156112d4576112d36134ff565b5b81526020016003820160019054906101000a900473ffffffffffffffffffffffffffffffffffffffff1673ffffffffffffffffffffffffffffffffffffffff1673ffffffffffffffffffffffffffffffffffffffff1681526020016004820160009054906101000a900473ffffffffffffffffffffffffffffffffffffffff1673ffffffffffffffffffffffffffffffffffffffff1673ffffffffffffffffffffffffffffffffffffffff16815260200160058201604051806040016040529081600082015481526020016001820160009054906101000a900473ffffffffffffffffffffffffffffffffffffffff1673ffffffffffffffffffffffffffffffffffffffff1673ffffffffffffffffffffffffffffffffffffffff1681525050815260200160078201604051806040016040529081600082015481526020016001820160009054906101000a900473ffffffffffffffffffffffffffffffffffffffff1673ffffffffffffffffffffffffffffffffffffffff1673ffffffffffffffffffffffffffffffffffffffff168152505081526020016009820154815250509050919050565b6000600160009054906101000a900460ff16905090565b6000801b6114a181612a2b565b6114a9612901565b6114b66000801b8361294b565b8173ffffffffffffffffffffffffffffffffffffffff167f2dbe9fb88463d989acccabbb6ee06901f83672eb78e04a11ff48dd8f69a27cda60405160405180910390a25050565b60006008600081548110611514576115136140ec565b5b9060005260206000200160009054906101000a900473ffffffffffffffffffffffffffffffffffffffff16905090565b60105481565b6000801b61155781612a2b565b60405180604001604052808381526020018473ffffffffffffffffffffffffffffffffffffffff1681525060096000820151816000015560208201518160010160006101000a81548173ffffffffffffffffffffffffffffffffffffffff021916908373ffffffffffffffffffffffffffffffffffffffff160217905550905050505050565b600e60009054906101000a900473ffffffffffffffffffffffffffffffffffffffff1681565b6000801b61161081612a2b565b611618612901565b611620612bd4565b50565b600c60009054906101000a900473ffffffffffffffffffffffffffffffffffffffff1681565b600080600084815260200190815260200160002060000160008373ffffffffffffffffffffffffffffffffffffffff1673ffffffffffffffffffffffffffffffffffffffff16815260200190815260200160002060009054906101000a900460ff16905092915050565b600d60009054906101000a900473ffffffffffffffffffffffffffffffffffffffff1681565b600f5481565b6000801b6116ec81612a2b565b81600b60006101000a81548173ffffffffffffffffffffffffffffffffffffffff021916908373ffffffffffffffffffffffffffffffffffffffff1602179055505050565b6000801b81565b6000801b61174581612a2b565b6000600660008473ffffffffffffffffffffffffffffffffffffffff1673ffffffffffffffffffffffffffffffffffffffff16815260200190815260200160002060006101000a81548160ff0219169083151502179055505050565b600073ffffffffffffffffffffffffffffffffffffffff168373ffffffffffffffffffffffffffffffffffffffff1603611810576040517f08c379a00000000000000000000000000000000000000000000000000000000081526004016118079061418d565b60405180910390fd5b6000825111611854576040517f08c379a000000000000000000000000000000000000000000000000000000000815260040161184b906141f9565b60405180910390fd5b60008111611897576040517f08c379a000000000000000000000000000000000000000000000000000000000815260040161188e9061428b565b60405180910390fd5b3373ffffffffffffffffffffffffffffffffffffffff168373ffffffffffffffffffffffffffffffffffffffff1603611905576040517f08c379a00000000000000000000000000000000000000000000000000000000081526004016118fc9061431d565b60405180910390fd5b60006040518060400160405280838152602001600073ffffffffffffffffffffffffffffffffffffffff168152509050600060405180610120016040528060025481526020018881526020018781526020016000600181111561196b5761196a6134ff565b5b81526020013373ffffffffffffffffffffffffffffffffffffffff1681526020018673ffffffffffffffffffffffffffffffffffffffff1681526020016009604051806040016040529081600082015481526020016001820160009054906101000a900473ffffffffffffffffffffffffffffffffffffffff1673ffffffffffffffffffffffffffffffffffffffff1673ffffffffffffffffffffffffffffffffffffffff168152505081526020018381526020016000815250905060005b8451811015611af7576007600060025481526020019081526020016000206040518060400160405280878481518110611a6657611a656140ec565b5b6020026020010151600001518152602001878481518110611a8a57611a896140ec565b5b60200260200101516020015181525090806001815401808255809150506001900390600052602060002090600202016000909190919091506000820151816000019081611ad791906144df565b506020820151816001015550508080611aef906145b1565b915050611a2a565b5060038190806001815401808255809150506001900390600052602060002090600a0201600090919091909150600082015181600001556020820151816001019081611b4391906144df565b506040820151816002019081611b5991906144df565b5060608201518160030160006101000a81548160ff02191690836001811115611b8557611b846134ff565b5b021790555060808201518160030160016101000a81548173ffffffffffffffffffffffffffffffffffffffff021916908373ffffffffffffffffffffffffffffffffffffffff16021790555060a08201518160040160006101000a81548173ffffffffffffffffffffffffffffffffffffffff021916908373ffffffffffffffffffffffffffffffffffffffff16021790555060c0820151816005016000820151816000015560208201518160010160006101000a81548173ffffffffffffffffffffffffffffffffffffffff021916908373ffffffffffffffffffffffffffffffffffffffff160217905550505060e0820151816007016000820151816000015560208201518160010160006101000a81548173ffffffffffffffffffffffffffffffffffffffff021916908373ffffffffffffffffffffffffffffffffffffffff160217905550505061010082015181600901555050600460003373ffffffffffffffffffffffffffffffffffffffff1673ffffffffffffffffffffffffffffffffffffffff1681526020019081526020016000206002549080600181540180825580915050600190039060005260206000200160009091909190915055600560008673ffffffffffffffffffffffffffffffffffffffff1673ffffffffffffffffffffffffffffffffffffffff16815260200190815260200160002060025490806001815401808255809150506001900390600052602060002001600090919091909150558473ffffffffffffffffffffffffffffffffffffffff163373ffffffffffffffffffffffffffffffffffffffff167f4969d8f058da37f5b596425a39904e9a027ac23d1865d6efd5df5a5e24eef7de60025486604051611e0e9291906145f9565b60405180910390a360026000815480929190611e29906145b1565b919050555050505050505050565b606060076000838152602001908152602001600020805480602002602001604051908101604052809291908181526020016000905b82821015611f3a5783829060005260206000209060020201604051806040016040529081600082018054611e9f90613f5a565b80601f0160208091040260200160405190810160405280929190818152602001828054611ecb90613f5a565b8015611f185780601f10611eed57610100808354040283529160200191611f18565b820191906000526020600020905b815481529060010190602001808311611efb57829003601f168201915b5050505050815260200160018201548152505081526020019060010190611e6c565b505050509050919050565b60038181548110611f5557600080fd5b90600052602060002090600a0201600091509050806000015490806001018054611f7e90613f5a565b80601f0160208091040260200160405190810160405280929190818152602001828054611faa90613f5a565b8015611ff75780601f10611fcc57610100808354040283529160200191611ff7565b820191906000526020600020905b815481529060010190602001808311611fda57829003601f168201915b50505050509080600201805461200c90613f5a565b80601f016020809104026020016040519081016040528092919081815260200182805461203890613f5a565b80156120855780601f1061205a57610100808354040283529160200191612085565b820191906000526020600020905b81548152906001019060200180831161206857829003601f168201915b5050505050908060030160009054906101000a900460ff16908060030160019054906101000a900473ffffffffffffffffffffffffffffffffffffffff16908060040160009054906101000a900473ffffffffffffffffffffffffffffffffffffffff169080600501604051806040016040529081600082015481526020016001820160009054906101000a900473ffffffffffffffffffffffffffffffffffffffff1673ffffffffffffffffffffffffffffffffffffffff1673ffffffffffffffffffffffffffffffffffffffff16815250509080600701604051806040016040529081600082015481526020016001820160009054906101000a900473ffffffffffffffffffffffffffffffffffffffff1673ffffffffffffffffffffffffffffffffffffffff1673ffffffffffffffffffffffffffffffffffffffff1681525050908060090154905089565b60025481565b60115481565b6000801b6121ed81612a2b565b6000841015801561220057506103e88411155b61223f576040517f08c379a00000000000000000000000000000000000000000000000000000000081526004016122369061466e565b60405180910390fd5b83600f81905550826010819055508160118190555050505050565b61226382610aeb565b61226c81612a2b565b6122768383612a3f565b505050565b6008818154811061228b57600080fd5b906000526020600020016000915054906101000a900473ffffffffffffffffffffffffffffffffffffffff1681565b600b60009054906101000a900473ffffffffffffffffffffffffffffffffffffffff1681565b600460205281600052604060002081815481106122fc57600080fd5b90600052602060002001600091509150505481565b60008311801561232657506003805490508311155b612365576040517f08c379a000000000000000000000000000000000000000000000000000000000815260040161235c90614069565b60405180910390fd5b600660008273ffffffffffffffffffffffffffffffffffffffff1673ffffffffffffffffffffffffffffffffffffffff16815260200190815260200160002060009054906101000a900460ff166123f1576040517f08c379a00000000000000000000000000000000000000000000000000000000081526004016123e8906146da565b60405180910390fd5b6000600360018561240291906140b8565b81548110612413576124126140ec565b5b90600052602060002090600a020190506000806000806000808790506103e8600f54029550620f42408987028161244d5761244c6146fa565b5b0494506103e8601054860281612466576124656146fa565b5b049350838503925084890391508073ffffffffffffffffffffffffffffffffffffffff166323b872dd33308c6040518463ffffffff1660e01b81526004016124b093929190614729565b6020604051808303816000875af11580156124cf573d6000803e3d6000fd5b505050506040513d601f19601f820116820180604052508101906124f3919061478c565b612532576040517f08c379a00000000000000000000000000000000000000000000000000000000081526004016125299061482b565b60405180910390fd5b8073ffffffffffffffffffffffffffffffffffffffff1663095ea7b3600b60009054906101000a900473ffffffffffffffffffffffffffffffffffffffff168b6040518363ffffffff1660e01b815260040161258f92919061484b565b6020604051808303816000875af11580156125ae573d6000803e3d6000fd5b505050506040513d601f19601f820116820180604052508101906125d2919061478c565b50600b60009054906101000a900473ffffffffffffffffffffffffffffffffffffffff1673ffffffffffffffffffffffffffffffffffffffff16632e2d298483838a60040160009054906101000a900473ffffffffffffffffffffffffffffffffffffffff166040518463ffffffff1660e01b815260040161265693929190614874565b600060405180830381600087803b15801561267057600080fd5b505af1158015612684573d6000803e3d6000fd5b50505050600b60009054906101000a900473ffffffffffffffffffffffffffffffffffffffff1673ffffffffffffffffffffffffffffffffffffffff16632e2d29848583600d60009054906101000a900473ffffffffffffffffffffffffffffffffffffffff166040518463ffffffff1660e01b815260040161270993929190614874565b600060405180830381600087803b15801561272357600080fd5b505af1158015612737573d6000803e3d6000fd5b50505050600b60009054906101000a900473ffffffffffffffffffffffffffffffffffffffff1673ffffffffffffffffffffffffffffffffffffffff16632e2d29848483600e60009054906101000a900473ffffffffffffffffffffffffffffffffffffffff166040518463ffffffff1660e01b81526004016127bc93929190614874565b600060405180830381600087803b1580156127d657600080fd5b505af11580156127ea573d6000803e3d6000fd5b505050508887600901600082825401925050819055508660040160009054906101000a900473ffffffffffffffffffffffffffffffffffffffff1673ffffffffffffffffffffffffffffffffffffffff163373ffffffffffffffffffffffffffffffffffffffff167f1f004c54eef332ef6912dae8f1775c102da23bec79ccf602eaaa072938e96b678c8c6040516128839291906145f9565b60405180910390a350505050505050505050565b60007f01ffc9a7000000000000000000000000000000000000000000000000000000007bffffffffffffffffffffffffffffffffffffffffffffffffffffffff1916827bffffffffffffffffffffffffffffffffffffffffffffffffffffffff1916149050919050565b61290961147d565b15612949576040517f08c379a0000000000000000000000000000000000000000000000000000000008152600401612940906148f7565b60405180910390fd5b565b6129558282611649565b612a2757600160008084815260200190815260200160002060000160008373ffffffffffffffffffffffffffffffffffffffff1673ffffffffffffffffffffffffffffffffffffffff16815260200190815260200160002060006101000a81548160ff0219169083151502179055506129cc612b20565b73ffffffffffffffffffffffffffffffffffffffff168173ffffffffffffffffffffffffffffffffffffffff16837f2f8788117e7eff1d82e926ec794901d17c78024a50270940304540a733656f0d60405160405180910390a45b5050565b612a3c81612a37612b20565b612c36565b50565b612a498282611649565b15612b1c57600080600084815260200190815260200160002060000160008373ffffffffffffffffffffffffffffffffffffffff1673ffffffffffffffffffffffffffffffffffffffff16815260200190815260200160002060006101000a81548160ff021916908315150217905550612ac1612b20565b73ffffffffffffffffffffffffffffffffffffffff168173ffffffffffffffffffffffffffffffffffffffff16837ff6391f5c32d9c69d2a47ea670b442974b53935d1edc7fd64eb21e047a839171b60405160405180910390a45b5050565b600033905090565b612b3061147d565b612b6f576040517f08c379a0000000000000000000000000000000000000000000000000000000008152600401612b6690614963565b60405180910390fd5b565b612b79612b28565b6000600160006101000a81548160ff0219169083151502179055507f5db9ee0a495bf2e6ff9c91a7834c1ba4fdd244a5e8aa4e537bd38aeae4b073aa612bbd612b20565b604051612bca9190613855565b60405180910390a1565b612bdc612901565b60018060006101000a81548160ff0219169083151502179055507f62e78cea01bee320cd4e420270b5ea74000d11b0c9f74754ebdbfc544b05a258612c1f612b20565b604051612c2c9190613855565b60405180910390a1565b612c408282611649565b612cb757612c4d81612cbb565b612c5b8360001c6020612ce8565b604051602001612c6c929190614a57565b6040516020818303038152906040526040517f08c379a0000000000000000000000000000000000000000000000000000000008152600401612cae9190614a91565b60405180910390fd5b5050565b6060612ce18273ffffffffffffffffffffffffffffffffffffffff16601460ff16612ce8565b9050919050565b606060006002836002612cfb9190614ab3565b612d059190614af5565b67ffffffffffffffff811115612d1e57612d1d6138ba565b5b6040519080825280601f01601f191660200182016040528015612d505781602001600182028036833780820191505090505b5090507f300000000000000000000000000000000000000000000000000000000000000081600081518110612d8857612d876140ec565b5b60200101907effffffffffffffffffffffffffffffffffffffffffffffffffffffffffffff1916908160001a9053507f780000000000000000000000000000000000000000000000000000000000000081600181518110612dec57612deb6140ec565b5b60200101907effffffffffffffffffffffffffffffffffffffffffffffffffffffffffffff1916908160001a90535060006001846002612e2c9190614ab3565b612e369190614af5565b90505b6001811115612ed6577f3031323334353637383961626364656600000000000000000000000000000000600f861660108110612e7857612e776140ec565b5b1a60f81b828281518110612e8f57612e8e6140ec565b5b60200101907effffffffffffffffffffffffffffffffffffffffffffffffffffffffffffff1916908160001a905350600485901c945080612ecf90614b29565b9050612e39565b5060008414612f1a576040517f08c379a0000000000000000000000000000000000000000000000000000000008152600401612f1190614b9e565b60405180910390fd5b8091505092915050565b60405180610120016040528060008152602001606081526020016060815260200160006001811115612f5957612f586134ff565b5b8152602001600073ffffffffffffffffffffffffffffffffffffffff168152602001600073ffffffffffffffffffffffffffffffffffffffff168152602001612fa0612fba565b8152602001612fad612fba565b8152602001600081525090565b604051806040016040528060008152602001600073ffffffffffffffffffffffffffffffffffffffff1681525090565b6000819050919050565b612ffd81612fea565b82525050565b60006020820190506130186000830184612ff4565b92915050565b6000604051905090565b600080fd5b600080fd5b60007fffffffff0000000000000000000000000000000000000000000000000000000082169050919050565b61306781613032565b811461307257600080fd5b50565b6000813590506130848161305e565b92915050565b6000602082840312156130a05761309f613028565b5b60006130ae84828501613075565b91505092915050565b60008115159050919050565b6130cc816130b7565b82525050565b60006020820190506130e760008301846130c3565b92915050565b600073ffffffffffffffffffffffffffffffffffffffff82169050919050565b6000613118826130ed565b9050919050565b6131288161310d565b811461313357600080fd5b50565b6000813590506131458161311f565b92915050565b60006020828403121561316157613160613028565b5b600061316f84828501613136565b91505092915050565b600081519050919050565b600082825260208201905092915050565b6000819050602082019050919050565b6131ad81612fea565b82525050565b60006131bf83836131a4565b60208301905092915050565b6000602082019050919050565b60006131e382613178565b6131ed8185613183565b93506131f883613194565b8060005b8381101561322957815161321088826131b3565b975061321b836131cb565b9250506001810190506131fc565b5085935050505092915050565b6000602082019050818103600083015261325081846131d8565b905092915050565b6132618161310d565b82525050565b600060408201905061327c6000830185612ff4565b6132896020830184613258565b9392505050565b6000819050919050565b6132a381613290565b81146132ae57600080fd5b50565b6000813590506132c08161329a565b92915050565b6000602082840312156132dc576132db613028565b5b60006132ea848285016132b1565b91505092915050565b6132fc81613290565b82525050565b600060208201905061331760008301846132f3565b92915050565b61332681612fea565b811461333157600080fd5b50565b6000813590506133438161331d565b92915050565b600080604083850312156133605761335f613028565b5b600061336e85828601613334565b925050602061337f85828601613334565b9150509250929050565b600081519050919050565b600082825260208201905092915050565b60005b838110156133c35780820151818401526020810190506133a8565b60008484015250505050565b6000601f19601f8301169050919050565b60006133eb82613389565b6133f58185613394565b93506134058185602086016133a5565b61340e816133cf565b840191505092915050565b6000604082019050818103600083015261343381856133e0565b90506134426020830184612ff4565b9392505050565b600080604083850312156134605761345f613028565b5b600061346e858286016132b1565b925050602061347f85828601613136565b9150509250929050565b600081519050919050565b600082825260208201905092915050565b6000819050602082019050919050565b600082825260208201905092915050565b60006134d182613389565b6134db81856134b5565b93506134eb8185602086016133a5565b6134f4816133cf565b840191505092915050565b7f4e487b7100000000000000000000000000000000000000000000000000000000600052602160045260246000fd5b6002811061353f5761353e6134ff565b5b50565b60008190506135508261352e565b919050565b600061356082613542565b9050919050565b61357081613555565b82525050565b61357f8161310d565b82525050565b60408201600082015161359b60008501826131a4565b5060208201516135ae6020850182613576565b50505050565b6000610160830160008301516135cd60008601826131a4565b50602083015184820360208601526135e582826134c6565b915050604083015184820360408601526135ff82826134c6565b91505060608301516136146060860182613567565b5060808301516136276080860182613576565b5060a083015161363a60a0860182613576565b5060c083015161364d60c0860182613585565b5060e0830151613661610100860182613585565b506101008301516136766101408601826131a4565b508091505092915050565b600061368d83836135b4565b905092915050565b6000602082019050919050565b60006136ad82613489565b6136b78185613494565b9350836020820285016136c9856134a5565b8060005b8581101561370557848403895281516136e68582613681565b94506136f183613695565b925060208a019950506001810190506136cd565b50829750879550505050505092915050565b6000602082019050818103600083015261373181846136a2565b905092915050565b60006020828403121561374f5761374e613028565b5b600061375d84828501613334565b91505092915050565b60006101608301600083015161377f60008601826131a4565b506020830151848203602086015261379782826134c6565b915050604083015184820360408601526137b182826134c6565b91505060608301516137c66060860182613567565b5060808301516137d96080860182613576565b5060a08301516137ec60a0860182613576565b5060c08301516137ff60c0860182613585565b5060e0830151613813610100860182613585565b506101008301516138286101408601826131a4565b508091505092915050565b6000602082019050818103600083015261384d8184613766565b905092915050565b600060208201905061386a6000830184613258565b92915050565b6000806040838503121561388757613886613028565b5b600061389585828601613136565b92505060206138a685828601613334565b9150509250929050565b600080fd5b600080fd5b7f4e487b7100000000000000000000000000000000000000000000000000000000600052604160045260246000fd5b6138f2826133cf565b810181811067ffffffffffffffff82111715613911576139106138ba565b5b80604052505050565b600061392461301e565b905061393082826138e9565b919050565b600067ffffffffffffffff8211156139505761394f6138ba565b5b613959826133cf565b9050602081019050919050565b82818337600083830152505050565b600061398861398384613935565b61391a565b9050828152602081018484840111156139a4576139a36138b5565b5b6139af848285613966565b509392505050565b600082601f8301126139cc576139cb6138b0565b5b81356139dc848260208601613975565b91505092915050565b600067ffffffffffffffff821115613a00576139ff6138ba565b5b602082029050602081019050919050565b600080fd5b600080fd5b600080fd5b600060408284031215613a3657613a35613a16565b5b613a40604061391a565b9050600082013567ffffffffffffffff811115613a6057613a5f613a1b565b5b613a6c848285016139b7565b6000830152506020613a8084828501613334565b60208301525092915050565b6000613a9f613a9a846139e5565b61391a565b90508083825260208201905060208402830185811115613ac257613ac1613a11565b5b835b81811015613b0957803567ffffffffffffffff811115613ae757613ae66138b0565b5b808601613af48982613a20565b85526020850194505050602081019050613ac4565b5050509392505050565b600082601f830112613b2857613b276138b0565b5b8135613b38848260208601613a8c565b91505092915050565b600080600080600060a08688031215613b5d57613b5c613028565b5b600086013567ffffffffffffffff811115613b7b57613b7a61302d565b5b613b87888289016139b7565b955050602086013567ffffffffffffffff811115613ba857613ba761302d565b5b613bb4888289016139b7565b9450506040613bc588828901613136565b935050606086013567ffffffffffffffff811115613be657613be561302d565b5b613bf288828901613b13565b9250506080613c0388828901613334565b9150509295509295909350565b600081519050919050565b600082825260208201905092915050565b6000819050602082019050919050565b60006040830160008301518482036000860152613c5982826134c6565b9150506020830151613c6e60208601826131a4565b508091505092915050565b6000613c858383613c3c565b905092915050565b6000602082019050919050565b6000613ca582613c10565b613caf8185613c1b565b935083602082028501613cc185613c2c565b8060005b85811015613cfd5784840389528151613cde8582613c79565b9450613ce983613c8d565b925060208a01995050600181019050613cc5565b50829750879550505050505092915050565b60006020820190508181036000830152613d298184613c9a565b905092915050565b613d3a81613555565b82525050565b604082016000820151613d5660008501826131a4565b506020820151613d696020850182613576565b50505050565b600061016082019050613d85600083018c612ff4565b8181036020830152613d97818b6133e0565b90508181036040830152613dab818a6133e0565b9050613dba6060830189613d31565b613dc76080830188613258565b613dd460a0830187613258565b613de160c0830186613d40565b613def610100830185613d40565b613dfd610140830184612ff4565b9a9950505050505050505050565b600080600060608486031215613e2457613e23613028565b5b6000613e3286828701613334565b9350506020613e4386828701613334565b9250506040613e5486828701613334565b9150509250925092565b6000819050919050565b6000613e83613e7e613e79846130ed565b613e5e565b6130ed565b9050919050565b6000613e9582613e68565b9050919050565b6000613ea782613e8a565b9050919050565b613eb781613e9c565b82525050565b6000602082019050613ed26000830184613eae565b92915050565b600080600060608486031215613ef157613ef0613028565b5b6000613eff86828701613334565b9350506020613f1086828701613334565b9250506040613f2186828701613136565b9150509250925092565b7f4e487b7100000000000000000000000000000000000000000000000000000000600052602260045260246000fd5b60006002820490506001821680613f7257607f821691505b602082108103613f8557613f84613f2b565b5b50919050565b7f416363657373436f6e74726f6c3a2063616e206f6e6c792072656e6f756e636560008201527f20726f6c657320666f722073656c660000000000000000000000000000000000602082015250565b6000613fe7602f83613394565b9150613ff282613f8b565b604082019050919050565b6000602082019050818103600083015261401681613fda565b9050919050565b7f496e76616c69642061677265656d656e74204944000000000000000000000000600082015250565b6000614053601483613394565b915061405e8261401d565b602082019050919050565b6000602082019050818103600083015261408281614046565b9050919050565b7f4e487b7100000000000000000000000000000000000000000000000000000000600052601160045260246000fd5b60006140c382612fea565b91506140ce83612fea565b92508282039050818111156140e6576140e5614089565b5b92915050565b7f4e487b7100000000000000000000000000000000000000000000000000000000600052603260045260246000fd5b7f50726f66657373696f6e616c20616464726573732063616e6e6f74206265207a60008201527f65726f0000000000000000000000000000000000000000000000000000000000602082015250565b6000614177602383613394565b91506141828261411b565b604082019050919050565b600060208201905081810360008301526141a68161416a565b9050919050565b7f536b696c6c73206d757374206e6f7420626520656d7074790000000000000000600082015250565b60006141e3601883613394565b91506141ee826141ad565b602082019050919050565b60006020820190508181036000830152614212816141d6565b9050919050565b7f5061796d656e7420616d6f756e74206d7573742062652067726561746572207460008201527f68616e207a65726f000000000000000000000000000000000000000000000000602082015250565b6000614275602883613394565b915061428082614219565b604082019050919050565b600060208201905081810360008301526142a481614268565b9050919050565b7f50726f66657373696f6e616c20616464726573732063616e6e6f74206265207460008201527f68652073616d6520617320636f6d70616e790000000000000000000000000000602082015250565b6000614307603283613394565b9150614312826142ab565b604082019050919050565b60006020820190508181036000830152614336816142fa565b9050919050565b60008190508160005260206000209050919050565b60006020601f8301049050919050565b600082821b905092915050565b60006008830261439f7fffffffffffffffffffffffffffffffffffffffffffffffffffffffffffffffff82614362565b6143a98683614362565b95508019841693508086168417925050509392505050565b60006143dc6143d76143d284612fea565b613e5e565b612fea565b9050919050565b6000819050919050565b6143f6836143c1565b61440a614402826143e3565b84845461436f565b825550505050565b600090565b61441f614412565b61442a8184846143ed565b505050565b5b8181101561444e57614443600082614417565b600181019050614430565b5050565b601f821115614493576144648161433d565b61446d84614352565b8101602085101561447c578190505b61449061448885614352565b83018261442f565b50505b505050565b600082821c905092915050565b60006144b660001984600802614498565b1980831691505092915050565b60006144cf83836144a5565b9150826002028217905092915050565b6144e882613389565b67ffffffffffffffff811115614501576145006138ba565b5b61450b8254613f5a565b614516828285614452565b600060209050601f8311600181146145495760008415614537578287015190505b61454185826144c3565b8655506145a9565b601f1984166145578661433d565b60005b8281101561457f5784890151825560018201915060208501945060208101905061455a565b8683101561459c5784890151614598601f8916826144a5565b8355505b6001600288020188555050505b505050505050565b60006145bc82612fea565b91507fffffffffffffffffffffffffffffffffffffffffffffffffffffffffffffffff82036145ee576145ed614089565b5b600182019050919050565b600060408201905061460e6000830185612ff4565b61461b6020830184612ff4565b9392505050565b7f496e76616c6964206665652070657263656e7461676500000000000000000000600082015250565b6000614658601683613394565b915061466382614622565b602082019050919050565b600060208201905081810360008301526146878161464b565b9050919050565b7f496e76616c6964207061796d656e7420746f6b656e0000000000000000000000600082015250565b60006146c4601583613394565b91506146cf8261468e565b602082019050919050565b600060208201905081810360008301526146f3816146b7565b9050919050565b7f4e487b7100000000000000000000000000000000000000000000000000000000600052601260045260246000fd5b600060608201905061473e6000830186613258565b61474b6020830185613258565b6147586040830184612ff4565b949350505050565b614769816130b7565b811461477457600080fd5b50565b60008151905061478681614760565b92915050565b6000602082840312156147a2576147a1613028565b5b60006147b084828501614777565b91505092915050565b7f55736572206d75737420617070726f76652074686520616d6f756e74206f662060008201527f7468652061677265656d656e7400000000000000000000000000000000000000602082015250565b6000614815602d83613394565b9150614820826147b9565b604082019050919050565b6000602082019050818103600083015261484481614808565b9050919050565b60006040820190506148606000830185613258565b61486d6020830184612ff4565b9392505050565b60006060820190506148896000830186612ff4565b6148966020830185613258565b6148a36040830184613258565b949350505050565b7f5061757361626c653a2070617573656400000000000000000000000000000000600082015250565b60006148e1601083613394565b91506148ec826148ab565b602082019050919050565b60006020820190508181036000830152614910816148d4565b9050919050565b7f5061757361626c653a206e6f7420706175736564000000000000000000000000600082015250565b600061494d601483613394565b915061495882614917565b602082019050919050565b6000602082019050818103600083015261497c81614940565b9050919050565b600081905092915050565b7f416363657373436f6e74726f6c3a206163636f756e7420000000000000000000600082015250565b60006149c4601783614983565b91506149cf8261498e565b601782019050919050565b60006149e582613389565b6149ef8185614983565b93506149ff8185602086016133a5565b80840191505092915050565b7f206973206d697373696e6720726f6c6520000000000000000000000000000000600082015250565b6000614a41601183614983565b9150614a4c82614a0b565b601182019050919050565b6000614a62826149b7565b9150614a6e82856149da565b9150614a7982614a34565b9150614a8582846149da565b91508190509392505050565b60006020820190508181036000830152614aab81846133e0565b905092915050565b6000614abe82612fea565b9150614ac983612fea565b9250828202614ad781612fea565b91508282048414831517614aee57614aed614089565b5b5092915050565b6000614b0082612fea565b9150614b0b83612fea565b9250828201905080821115614b2357614b22614089565b5b92915050565b6000614b3482612fea565b915060008203614b4757614b46614089565b5b600182039050919050565b7f537472696e67733a20686578206c656e67746820696e73756666696369656e74600082015250565b6000614b88602083613394565b9150614b9382614b52565b602082019050919050565b60006020820190508181036000830152614bb781614b7b565b905091905056fea2646970667358221220745573cd9312fb17cce648a39d1437393c687bb2eb639c55e49f94c5143bd65c64736f6c63430008140033",
  "linkReferences": {},
  "deployedLinkReferences": {}
}