{
  "_format": "hh-sol-artifact-1",
  "contractName": "AgreementContract",
  "sourceName": "contracts/AgreementContract.sol",
  "abi": [
    {
      "inputs": [
        {
          "internalType": "address",
          "name": "_kyodoTreasury",
          "type": "address"
        },
        {
          "internalType": "address",
          "name": "_communityDAO",
          "type": "address"
        }
      ],
      "stateMutability": "nonpayable",
      "type": "constructor"
    },
    {
      "anonymous": false,
      "inputs": [
        {
          "indexed": true,
          "internalType": "address",
          "name": "company",
          "type": "address"
        },
        {
          "indexed": true,
          "internalType": "address",
          "name": "professional",
          "type": "address"
        },
        {
          "indexed": false,
          "internalType": "uint256",
          "name": "agreementId",
          "type": "uint256"
        },
        {
          "indexed": false,
          "internalType": "uint256",
          "name": "amount",
          "type": "uint256"
        }
      ],
      "name": "AgreementCreated",
      "type": "event"
    },
    {
      "anonymous": false,
      "inputs": [
        {
          "indexed": true,
          "internalType": "address",
          "name": "company",
          "type": "address"
        },
        {
          "indexed": true,
          "internalType": "address",
          "name": "professional",
          "type": "address"
        },
        {
          "indexed": false,
          "internalType": "uint256",
          "name": "agreementId",
          "type": "uint256"
        },
        {
          "indexed": false,
          "internalType": "uint256",
          "name": "amount",
          "type": "uint256"
        }
      ],
      "name": "PaymentMade",
      "type": "event"
    },
    {
      "inputs": [],
      "name": "StableVault",
      "outputs": [
        {
          "internalType": "contract IStableVault",
          "name": "",
          "type": "address"
        }
      ],
      "stateMutability": "view",
      "type": "function"
    },
    {
      "inputs": [
        {
          "internalType": "address",
          "name": "",
          "type": "address"
        }
      ],
      "name": "acceptedPaymentTokens",
      "outputs": [
        {
          "internalType": "bool",
          "name": "",
          "type": "bool"
        }
      ],
      "stateMutability": "view",
      "type": "function"
    },
    {
      "inputs": [
        {
          "internalType": "address",
          "name": "_tokenAddress",
          "type": "address"
        }
      ],
      "name": "addAcceptedPaymentToken",
      "outputs": [],
      "stateMutability": "nonpayable",
      "type": "function"
    },
    {
      "inputs": [
        {
          "internalType": "uint256",
          "name": "",
          "type": "uint256"
        },
        {
          "internalType": "uint256",
          "name": "",
          "type": "uint256"
        }
      ],
      "name": "agreementSkills",
      "outputs": [
        {
          "internalType": "string",
          "name": "name",
          "type": "string"
        },
        {
          "internalType": "uint256",
          "name": "level",
          "type": "uint256"
        }
      ],
      "stateMutability": "view",
      "type": "function"
    },
    {
      "inputs": [
        {
          "internalType": "uint256",
          "name": "",
          "type": "uint256"
        }
      ],
      "name": "agreements",
      "outputs": [
        {
          "internalType": "uint256",
          "name": "id",
          "type": "uint256"
        },
        {
          "internalType": "string",
          "name": "title",
          "type": "string"
        },
        {
          "internalType": "string",
          "name": "description",
          "type": "string"
        },
        {
          "internalType": "enum AgreementContract.AgreementStatus",
          "name": "status",
          "type": "uint8"
        },
        {
          "internalType": "address",
          "name": "company",
          "type": "address"
        },
        {
          "internalType": "address",
          "name": "professional",
          "type": "address"
        },
        {
          "components": [
            {
              "internalType": "uint256",
              "name": "amount",
              "type": "uint256"
            },
            {
              "internalType": "address",
              "name": "tokenAddress",
              "type": "address"
            }
          ],
          "internalType": "struct AgreementContract.Token",
          "name": "tokenIncentive",
          "type": "tuple"
        },
        {
          "components": [
            {
              "internalType": "uint256",
              "name": "amount",
              "type": "uint256"
            },
            {
              "internalType": "address",
              "name": "tokenAddress",
              "type": "address"
            }
          ],
          "internalType": "struct AgreementContract.Token",
          "name": "payment",
          "type": "tuple"
        },
        {
          "internalType": "uint256",
          "name": "totalPaid",
          "type": "uint256"
        }
      ],
      "stateMutability": "view",
      "type": "function"
    },
    {
      "inputs": [],
      "name": "communityDAO",
      "outputs": [
        {
          "internalType": "address",
          "name": "",
          "type": "address"
        }
      ],
      "stateMutability": "view",
      "type": "function"
    },
    {
      "inputs": [],
      "name": "communityDAOFee",
      "outputs": [
        {
          "internalType": "uint256",
          "name": "",
          "type": "uint256"
        }
      ],
      "stateMutability": "view",
      "type": "function"
    },
    {
      "inputs": [
        {
          "internalType": "address",
          "name": "",
          "type": "address"
        },
        {
          "internalType": "uint256",
          "name": "",
          "type": "uint256"
        }
      ],
      "name": "contractorAgreements",
      "outputs": [
        {
          "internalType": "uint256",
          "name": "",
          "type": "uint256"
        }
      ],
      "stateMutability": "view",
      "type": "function"
    },
    {
      "inputs": [
        {
          "internalType": "string",
          "name": "_title",
          "type": "string"
        },
        {
          "internalType": "string",
          "name": "_description",
          "type": "string"
        },
        {
          "internalType": "address",
          "name": "_professional",
          "type": "address"
        },
        {
          "components": [
            {
              "internalType": "string",
              "name": "name",
              "type": "string"
            },
            {
              "internalType": "uint256",
              "name": "level",
              "type": "uint256"
            }
          ],
          "internalType": "struct AgreementContract.Skill[]",
          "name": "_skills",
          "type": "tuple[]"
        },
        {
          "internalType": "uint256",
          "name": "_paymentAmount",
          "type": "uint256"
        }
      ],
      "name": "createAgreement",
      "outputs": [],
      "stateMutability": "nonpayable",
      "type": "function"
    },
    {
      "inputs": [],
      "name": "feePercentage",
      "outputs": [
        {
          "internalType": "uint256",
          "name": "",
          "type": "uint256"
        }
      ],
      "stateMutability": "view",
      "type": "function"
    },
    {
      "inputs": [
        {
          "internalType": "uint256",
          "name": "_id",
          "type": "uint256"
        }
      ],
      "name": "getAgreementById",
      "outputs": [
        {
          "components": [
            {
              "internalType": "uint256",
              "name": "id",
              "type": "uint256"
            },
            {
              "internalType": "string",
              "name": "title",
              "type": "string"
            },
            {
              "internalType": "string",
              "name": "description",
              "type": "string"
            },
            {
              "internalType": "enum AgreementContract.AgreementStatus",
              "name": "status",
              "type": "uint8"
            },
            {
              "internalType": "address",
              "name": "company",
              "type": "address"
            },
            {
              "internalType": "address",
              "name": "professional",
              "type": "address"
            },
            {
              "components": [
                {
                  "internalType": "uint256",
                  "name": "amount",
                  "type": "uint256"
                },
                {
                  "internalType": "address",
                  "name": "tokenAddress",
                  "type": "address"
                }
              ],
              "internalType": "struct AgreementContract.Token",
              "name": "tokenIncentive",
              "type": "tuple"
            },
            {
              "components": [
                {
                  "internalType": "uint256",
                  "name": "amount",
                  "type": "uint256"
                },
                {
                  "internalType": "address",
                  "name": "tokenAddress",
                  "type": "address"
                }
              ],
              "internalType": "struct AgreementContract.Token",
              "name": "payment",
              "type": "tuple"
            },
            {
              "internalType": "uint256",
              "name": "totalPaid",
              "type": "uint256"
            }
          ],
          "internalType": "struct AgreementContract.Agreement",
          "name": "",
          "type": "tuple"
        }
      ],
      "stateMutability": "view",
      "type": "function"
    },
    {
      "inputs": [],
      "name": "getAgreementCount",
      "outputs": [
        {
          "internalType": "uint256",
          "name": "",
          "type": "uint256"
        }
      ],
      "stateMutability": "view",
      "type": "function"
    },
    {
      "inputs": [],
      "name": "getAllAgreements",
      "outputs": [
        {
          "components": [
            {
              "internalType": "uint256",
              "name": "id",
              "type": "uint256"
            },
            {
              "internalType": "string",
              "name": "title",
              "type": "string"
            },
            {
              "internalType": "string",
              "name": "description",
              "type": "string"
            },
            {
              "internalType": "enum AgreementContract.AgreementStatus",
              "name": "status",
              "type": "uint8"
            },
            {
              "internalType": "address",
              "name": "company",
              "type": "address"
            },
            {
              "internalType": "address",
              "name": "professional",
              "type": "address"
            },
            {
              "components": [
                {
                  "internalType": "uint256",
                  "name": "amount",
                  "type": "uint256"
                },
                {
                  "internalType": "address",
                  "name": "tokenAddress",
                  "type": "address"
                }
              ],
              "internalType": "struct AgreementContract.Token",
              "name": "tokenIncentive",
              "type": "tuple"
            },
            {
              "components": [
                {
                  "internalType": "uint256",
                  "name": "amount",
                  "type": "uint256"
                },
                {
                  "internalType": "address",
                  "name": "tokenAddress",
                  "type": "address"
                }
              ],
              "internalType": "struct AgreementContract.Token",
              "name": "payment",
              "type": "tuple"
            },
            {
              "internalType": "uint256",
              "name": "totalPaid",
              "type": "uint256"
            }
          ],
          "internalType": "struct AgreementContract.Agreement[]",
          "name": "",
          "type": "tuple[]"
        }
      ],
      "stateMutability": "view",
      "type": "function"
    },
    {
      "inputs": [
        {
          "internalType": "address",
          "name": "_contractor",
          "type": "address"
        }
      ],
      "name": "getContractorAgreements",
      "outputs": [
        {
          "internalType": "uint256[]",
          "name": "",
          "type": "uint256[]"
        }
      ],
      "stateMutability": "view",
      "type": "function"
    },
    {
      "inputs": [
        {
          "internalType": "address",
          "name": "_professional",
          "type": "address"
        }
      ],
      "name": "getProfessionalAgreements",
      "outputs": [
        {
          "internalType": "uint256[]",
          "name": "",
          "type": "uint256[]"
        }
      ],
      "stateMutability": "view",
      "type": "function"
    },
    {
      "inputs": [
        {
          "internalType": "uint256",
          "name": "_agreementId",
          "type": "uint256"
        }
      ],
      "name": "getSkillsByAgreementId",
      "outputs": [
        {
          "components": [
            {
              "internalType": "string",
              "name": "name",
              "type": "string"
            },
            {
              "internalType": "uint256",
              "name": "level",
              "type": "uint256"
            }
          ],
          "internalType": "struct AgreementContract.Skill[]",
          "name": "",
          "type": "tuple[]"
        }
      ],
      "stateMutability": "view",
      "type": "function"
    },
    {
      "inputs": [],
      "name": "kyodoTreasury",
      "outputs": [
        {
          "internalType": "address",
          "name": "",
          "type": "address"
        }
      ],
      "stateMutability": "view",
      "type": "function"
    },
    {
      "inputs": [],
      "name": "kyodoTreasuryFee",
      "outputs": [
        {
          "internalType": "uint256",
          "name": "",
          "type": "uint256"
        }
      ],
      "stateMutability": "view",
      "type": "function"
    },
    {
      "inputs": [
        {
          "internalType": "uint256",
          "name": "_agreementId",
          "type": "uint256"
        },
        {
          "internalType": "uint256",
          "name": "_amountToPay",
          "type": "uint256"
        },
        {
          "internalType": "address",
          "name": "_paymentAddress",
          "type": "address"
        }
      ],
      "name": "makePayment",
      "outputs": [],
      "stateMutability": "nonpayable",
      "type": "function"
    },
    {
      "inputs": [],
      "name": "nextAgreementId",
      "outputs": [
        {
          "internalType": "uint256",
          "name": "",
          "type": "uint256"
        }
      ],
      "stateMutability": "view",
      "type": "function"
    },
    {
      "inputs": [],
      "name": "owner",
      "outputs": [
        {
          "internalType": "address",
          "name": "",
          "type": "address"
        }
      ],
      "stateMutability": "view",
      "type": "function"
    },
    {
      "inputs": [
        {
          "internalType": "uint256",
          "name": "_feePercentage",
          "type": "uint256"
        },
        {
          "internalType": "uint256",
          "name": "_kyodoTreasuryFee",
          "type": "uint256"
        },
        {
          "internalType": "uint256",
          "name": "_communityDAOFee",
          "type": "uint256"
        }
      ],
      "name": "setFees",
      "outputs": [],
      "stateMutability": "nonpayable",
      "type": "function"
    },
    {
      "inputs": [
        {
          "internalType": "address",
          "name": "_StableVaultAddress",
          "type": "address"
        }
      ],
      "name": "setStableVaultAddress",
      "outputs": [],
      "stateMutability": "nonpayable",
      "type": "function"
    },
    {
      "inputs": [],
      "name": "tokenIncentive",
      "outputs": [
        {
          "internalType": "uint256",
          "name": "amount",
          "type": "uint256"
        },
        {
          "internalType": "address",
          "name": "tokenAddress",
          "type": "address"
        }
      ],
      "stateMutability": "view",
      "type": "function"
    },
    {
      "inputs": [
        {
          "internalType": "address",
          "name": "_newTokenAddress",
          "type": "address"
        },
        {
          "internalType": "uint256",
          "name": "_newAmount",
          "type": "uint256"
        }
      ],
      "name": "updateTokenIncentive",
      "outputs": [],
      "stateMutability": "nonpayable",
      "type": "function"
    }
  ],
  "bytecode": "0x608060405260016000553480156200001657600080fd5b5060405162003c2838038062003c2883398181016040528101906200003c91906200011e565b33600960006101000a81548173ffffffffffffffffffffffffffffffffffffffff021916908373ffffffffffffffffffffffffffffffffffffffff16021790555081600a60006101000a81548173ffffffffffffffffffffffffffffffffffffffff021916908373ffffffffffffffffffffffffffffffffffffffff16021790555080600b60006101000a81548173ffffffffffffffffffffffffffffffffffffffff021916908373ffffffffffffffffffffffffffffffffffffffff1602179055505050620001ad565b600081519050620001188162000193565b92915050565b600080604083850312156200013257600080fd5b6000620001428582860162000107565b9250506020620001558582860162000107565b9150509250929050565b60006200016c8262000173565b9050919050565b600073ffffffffffffffffffffffffffffffffffffffff82169050919050565b6200019e816200015f565b8114620001aa57600080fd5b50565b613a6b80620001bd6000396000f3fe608060405234801561001057600080fd5b50600436106101725760003560e01c80638da5cb5b116100de578063bd14de9611610097578063cec10c1111610071578063cec10c111461046d578063f2d64a9614610489578063f38d215d146104a7578063fc3f5dff146104d757610172565b8063bd14de96146103f9578063c9b99dab14610431578063c9e929051461044f57610172565b80638da5cb5b14610337578063964bb4ab14610355578063a001ecdd14610373578063a06ee2db14610391578063a8613676146103ad578063b3f8cb00146103c957610172565b8063484bb24411610130578063484bb244146102615780634e6873c714610291578063573fb624146102af5780637d239907146102df5780637e698256146102fd5780638207546e1461031957610172565b80628bed3e146101775780630d1cc18d1461019557806313cda3b7146101c557806324268605146101e157806329db749314610200578063395e597414610231575b600080fd5b61017f6104f3565b60405161018c9190613293565b60405180910390f35b6101af60048036038101906101aa91906127d8565b610500565b6040516101bc91906130c9565b60405180910390f35b6101df60048036038101906101da91906127d8565b610597565b005b6101e9610682565b6040516101f79291906132ae565b60405180910390f35b61021a6004803603810190610215919061294e565b6106b4565b604051610228929190613121565b60405180910390f35b61024b600480360381019061024691906127d8565b61077d565b60405161025891906130c9565b60405180910390f35b61027b600480360381019061027691906127d8565b610814565b60405161028891906130eb565b60405180910390f35b610299610834565b6040516102a69190613085565b60405180910390f35b6102c960048036038101906102c49190612925565b610be7565b6040516102d69190613271565b60405180910390f35b6102e7610ffc565b6040516102f49190613293565b60405180910390f35b61031760048036038101906103129190612801565b611002565b005b610321611117565b60405161032e919061300a565b60405180910390f35b61033f61113d565b60405161034c919061300a565b60405180910390f35b61035d611163565b60405161036a919061300a565b60405180910390f35b61037b611189565b6040516103889190613293565b60405180910390f35b6103ab60048036038101906103a691906127d8565b61118f565b005b6103c760048036038101906103c29190612866565b611263565b005b6103e360048036038101906103de9190612925565b6119a6565b6040516103f091906130a7565b60405180910390f35b610413600480360381019061040e9190612925565b611ab4565b6040516104289998979695949392919061330e565b60405180910390f35b610439611d43565b6040516104469190613293565b60405180910390f35b610457611d49565b6040516104649190613293565b60405180910390f35b610487600480360381019061048291906129d9565b611d4f565b005b610491611e4b565b60405161049e9190613106565b60405180910390f35b6104c160048036038101906104bc9190612801565b611e71565b6040516104ce9190613293565b60405180910390f35b6104f160048036038101906104ec919061298a565b611ea2565b005b6000600180549050905090565b6060600260008373ffffffffffffffffffffffffffffffffffffffff1673ffffffffffffffffffffffffffffffffffffffff16815260200190815260200160002080548060200260200160405190810160405280929190818152602001828054801561058b57602002820191906000526020600020905b815481526020019060010190808311610577575b50505050509050919050565b600960009054906101000a900473ffffffffffffffffffffffffffffffffffffffff1673ffffffffffffffffffffffffffffffffffffffff163373ffffffffffffffffffffffffffffffffffffffff1614610627576040517f08c379a000000000000000000000000000000000000000000000000000000000815260040161061e90613191565b60405180910390fd5b6001600460008373ffffffffffffffffffffffffffffffffffffffff1673ffffffffffffffffffffffffffffffffffffffff16815260200190815260200160002060006101000a81548160ff02191690831515021790555050565b60068060000154908060010160009054906101000a900473ffffffffffffffffffffffffffffffffffffffff16905082565b600560205281600052604060002081815481106106d057600080fd5b9060005260206000209060020201600091509150508060000180546106f490613634565b80601f016020809104026020016040519081016040528092919081815260200182805461072090613634565b801561076d5780601f106107425761010080835404028352916020019161076d565b820191906000526020600020905b81548152906001019060200180831161075057829003601f168201915b5050505050908060010154905082565b6060600360008373ffffffffffffffffffffffffffffffffffffffff1673ffffffffffffffffffffffffffffffffffffffff16815260200190815260200160002080548060200260200160405190810160405280929190818152602001828054801561080857602002820191906000526020600020905b8154815260200190600101908083116107f4575b50505050509050919050565b60046020528060005260406000206000915054906101000a900460ff1681565b60606001805480602002602001604051908101604052809291908181526020016000905b82821015610bde57838290600052602060002090600a0201604051806101200160405290816000820154815260200160018201805461089690613634565b80601f01602080910402602001604051908101604052809291908181526020018280546108c290613634565b801561090f5780601f106108e45761010080835404028352916020019161090f565b820191906000526020600020905b8154815290600101906020018083116108f257829003601f168201915b5050505050815260200160028201805461092890613634565b80601f016020809104026020016040519081016040528092919081815260200182805461095490613634565b80156109a15780601f10610976576101008083540402835291602001916109a1565b820191906000526020600020905b81548152906001019060200180831161098457829003601f168201915b505050505081526020016003820160009054906101000a900460ff1660018111156109f5577f4e487b7100000000000000000000000000000000000000000000000000000000600052602160045260246000fd5b6001811115610a2d577f4e487b7100000000000000000000000000000000000000000000000000000000600052602160045260246000fd5b81526020016003820160019054906101000a900473ffffffffffffffffffffffffffffffffffffffff1673ffffffffffffffffffffffffffffffffffffffff1673ffffffffffffffffffffffffffffffffffffffff1681526020016004820160009054906101000a900473ffffffffffffffffffffffffffffffffffffffff1673ffffffffffffffffffffffffffffffffffffffff1673ffffffffffffffffffffffffffffffffffffffff16815260200160058201604051806040016040529081600082015481526020016001820160009054906101000a900473ffffffffffffffffffffffffffffffffffffffff1673ffffffffffffffffffffffffffffffffffffffff1673ffffffffffffffffffffffffffffffffffffffff1681525050815260200160078201604051806040016040529081600082015481526020016001820160009054906101000a900473ffffffffffffffffffffffffffffffffffffffff1673ffffffffffffffffffffffffffffffffffffffff1673ffffffffffffffffffffffffffffffffffffffff1681525050815260200160098201548152505081526020019060010190610858565b50505050905090565b610bef6124b7565b600082118015610c0457506001805490508211155b610c43576040517f08c379a0000000000000000000000000000000000000000000000000000000008152600401610c3a906131d1565b60405180910390fd5b60018083610c51919061352d565b81548110610c88577f4e487b7100000000000000000000000000000000000000000000000000000000600052603260045260246000fd5b90600052602060002090600a02016040518061012001604052908160008201548152602001600182018054610cbc90613634565b80601f0160208091040260200160405190810160405280929190818152602001828054610ce890613634565b8015610d355780601f10610d0a57610100808354040283529160200191610d35565b820191906000526020600020905b815481529060010190602001808311610d1857829003601f168201915b50505050508152602001600282018054610d4e90613634565b80601f0160208091040260200160405190810160405280929190818152602001828054610d7a90613634565b8015610dc75780601f10610d9c57610100808354040283529160200191610dc7565b820191906000526020600020905b815481529060010190602001808311610daa57829003601f168201915b505050505081526020016003820160009054906101000a900460ff166001811115610e1b577f4e487b7100000000000000000000000000000000000000000000000000000000600052602160045260246000fd5b6001811115610e53577f4e487b7100000000000000000000000000000000000000000000000000000000600052602160045260246000fd5b81526020016003820160019054906101000a900473ffffffffffffffffffffffffffffffffffffffff1673ffffffffffffffffffffffffffffffffffffffff1673ffffffffffffffffffffffffffffffffffffffff1681526020016004820160009054906101000a900473ffffffffffffffffffffffffffffffffffffffff1673ffffffffffffffffffffffffffffffffffffffff1673ffffffffffffffffffffffffffffffffffffffff16815260200160058201604051806040016040529081600082015481526020016001820160009054906101000a900473ffffffffffffffffffffffffffffffffffffffff1673ffffffffffffffffffffffffffffffffffffffff1673ffffffffffffffffffffffffffffffffffffffff1681525050815260200160078201604051806040016040529081600082015481526020016001820160009054906101000a900473ffffffffffffffffffffffffffffffffffffffff1673ffffffffffffffffffffffffffffffffffffffff1673ffffffffffffffffffffffffffffffffffffffff168152505081526020016009820154815250509050919050565b600d5481565b600960009054906101000a900473ffffffffffffffffffffffffffffffffffffffff1673ffffffffffffffffffffffffffffffffffffffff163373ffffffffffffffffffffffffffffffffffffffff1614611092576040517f08c379a000000000000000000000000000000000000000000000000000000000815260040161108990613191565b60405180910390fd5b60405180604001604052808281526020018373ffffffffffffffffffffffffffffffffffffffff1681525060066000820151816000015560208201518160010160006101000a81548173ffffffffffffffffffffffffffffffffffffffff021916908373ffffffffffffffffffffffffffffffffffffffff1602179055509050505050565b600b60009054906101000a900473ffffffffffffffffffffffffffffffffffffffff1681565b600960009054906101000a900473ffffffffffffffffffffffffffffffffffffffff1681565b600a60009054906101000a900473ffffffffffffffffffffffffffffffffffffffff1681565b600c5481565b600960009054906101000a900473ffffffffffffffffffffffffffffffffffffffff1673ffffffffffffffffffffffffffffffffffffffff163373ffffffffffffffffffffffffffffffffffffffff161461121f576040517f08c379a000000000000000000000000000000000000000000000000000000000815260040161121690613191565b60405180910390fd5b80600860006101000a81548173ffffffffffffffffffffffffffffffffffffffff021916908373ffffffffffffffffffffffffffffffffffffffff16021790555050565b600073ffffffffffffffffffffffffffffffffffffffff168373ffffffffffffffffffffffffffffffffffffffff1614156112d3576040517f08c379a00000000000000000000000000000000000000000000000000000000081526004016112ca906131f1565b60405180910390fd5b6000825111611317576040517f08c379a000000000000000000000000000000000000000000000000000000000815260040161130e90613171565b60405180910390fd5b6000811161135a576040517f08c379a000000000000000000000000000000000000000000000000000000000815260040161135190613231565b60405180910390fd5b3373ffffffffffffffffffffffffffffffffffffffff168373ffffffffffffffffffffffffffffffffffffffff1614156113c9576040517f08c379a00000000000000000000000000000000000000000000000000000000081526004016113c090613211565b60405180910390fd5b60006040518060400160405280838152602001600073ffffffffffffffffffffffffffffffffffffffff1681525090506000604051806101200160405280600054815260200188815260200187815260200160006001811115611455577f4e487b7100000000000000000000000000000000000000000000000000000000600052602160045260246000fd5b81526020013373ffffffffffffffffffffffffffffffffffffffff1681526020018673ffffffffffffffffffffffffffffffffffffffff1681526020016006604051806040016040529081600082015481526020016001820160009054906101000a900473ffffffffffffffffffffffffffffffffffffffff1673ffffffffffffffffffffffffffffffffffffffff1673ffffffffffffffffffffffffffffffffffffffff168152505081526020018381526020016000815250905060005b84518110156116335760056000805481526020019081526020016000206040518060400160405280878481518110611575577f4e487b7100000000000000000000000000000000000000000000000000000000600052603260045260246000fd5b60200260200101516000015181526020018784815181106115bf577f4e487b7100000000000000000000000000000000000000000000000000000000600052603260045260246000fd5b60200260200101516020015181525090806001815401808255809150506001900390600052602060002090600202016000909190919091506000820151816000019080519060200190611613929190612573565b50602082015181600101555050808061162b90613697565b915050611514565b5060018190806001815401808255809150506001900390600052602060002090600a0201600090919091909150600082015181600001556020820151816001019080519060200190611686929190612573565b5060408201518160020190805190602001906116a3929190612573565b5060608201518160030160006101000a81548160ff021916908360018111156116f5577f4e487b7100000000000000000000000000000000000000000000000000000000600052602160045260246000fd5b021790555060808201518160030160016101000a81548173ffffffffffffffffffffffffffffffffffffffff021916908373ffffffffffffffffffffffffffffffffffffffff16021790555060a08201518160040160006101000a81548173ffffffffffffffffffffffffffffffffffffffff021916908373ffffffffffffffffffffffffffffffffffffffff16021790555060c0820151816005016000820151816000015560208201518160010160006101000a81548173ffffffffffffffffffffffffffffffffffffffff021916908373ffffffffffffffffffffffffffffffffffffffff160217905550505060e0820151816007016000820151816000015560208201518160010160006101000a81548173ffffffffffffffffffffffffffffffffffffffff021916908373ffffffffffffffffffffffffffffffffffffffff160217905550505061010082015181600901555050600260003373ffffffffffffffffffffffffffffffffffffffff1673ffffffffffffffffffffffffffffffffffffffff1681526020019081526020016000206000549080600181540180825580915050600190039060005260206000200160009091909190915055600360008673ffffffffffffffffffffffffffffffffffffffff1673ffffffffffffffffffffffffffffffffffffffff16815260200190815260200160002060005490806001815401808255809150506001900390600052602060002001600090919091909150558473ffffffffffffffffffffffffffffffffffffffff163373ffffffffffffffffffffffffffffffffffffffff167f4969d8f058da37f5b596425a39904e9a027ac23d1865d6efd5df5a5e24eef7de6000548660405161197e9291906133aa565b60405180910390a360008081548092919061199890613697565b919050555050505050505050565b606060056000838152602001908152602001600020805480602002602001604051908101604052809291908181526020016000905b82821015611aa95783829060005260206000209060020201604051806040016040529081600082018054611a0e90613634565b80601f0160208091040260200160405190810160405280929190818152602001828054611a3a90613634565b8015611a875780601f10611a5c57610100808354040283529160200191611a87565b820191906000526020600020905b815481529060010190602001808311611a6a57829003601f168201915b50505050508152602001600182015481525050815260200190600101906119db565b505050509050919050565b60018181548110611ac457600080fd5b90600052602060002090600a0201600091509050806000015490806001018054611aed90613634565b80601f0160208091040260200160405190810160405280929190818152602001828054611b1990613634565b8015611b665780601f10611b3b57610100808354040283529160200191611b66565b820191906000526020600020905b815481529060010190602001808311611b4957829003601f168201915b505050505090806002018054611b7b90613634565b80601f0160208091040260200160405190810160405280929190818152602001828054611ba790613634565b8015611bf45780601f10611bc957610100808354040283529160200191611bf4565b820191906000526020600020905b815481529060010190602001808311611bd757829003601f168201915b5050505050908060030160009054906101000a900460ff16908060030160019054906101000a900473ffffffffffffffffffffffffffffffffffffffff16908060040160009054906101000a900473ffffffffffffffffffffffffffffffffffffffff169080600501604051806040016040529081600082015481526020016001820160009054906101000a900473ffffffffffffffffffffffffffffffffffffffff1673ffffffffffffffffffffffffffffffffffffffff1673ffffffffffffffffffffffffffffffffffffffff16815250509080600701604051806040016040529081600082015481526020016001820160009054906101000a900473ffffffffffffffffffffffffffffffffffffffff1673ffffffffffffffffffffffffffffffffffffffff1673ffffffffffffffffffffffffffffffffffffffff1681525050908060090154905089565b60005481565b600e5481565b600960009054906101000a900473ffffffffffffffffffffffffffffffffffffffff1673ffffffffffffffffffffffffffffffffffffffff163373ffffffffffffffffffffffffffffffffffffffff1614611ddf576040517f08c379a0000000000000000000000000000000000000000000000000000000008152600401611dd690613191565b60405180910390fd5b60008310158015611df257506103e88311155b611e31576040517f08c379a0000000000000000000000000000000000000000000000000000000008152600401611e2890613251565b60405180910390fd5b82600c8190555081600d8190555080600e81905550505050565b600860009054906101000a900473ffffffffffffffffffffffffffffffffffffffff1681565b60026020528160005260406000208181548110611e8d57600080fd5b90600052602060002001600091509150505481565b600083118015611eb757506001805490508311155b611ef6576040517f08c379a0000000000000000000000000000000000000000000000000000000008152600401611eed906131d1565b60405180910390fd5b600460008273ffffffffffffffffffffffffffffffffffffffff1673ffffffffffffffffffffffffffffffffffffffff16815260200190815260200160002060009054906101000a900460ff16611f82576040517f08c379a0000000000000000000000000000000000000000000000000000000008152600401611f79906131b1565b60405180910390fd5b600060018085611f92919061352d565b81548110611fc9577f4e487b7100000000000000000000000000000000000000000000000000000000600052603260045260246000fd5b90600052602060002090600a020190506000806000806000808790506103e8600c54029550620f424089870281612029577f4e487b7100000000000000000000000000000000000000000000000000000000600052601260045260246000fd5b0494506103e8600d54860281612068577f4e487b7100000000000000000000000000000000000000000000000000000000600052601260045260246000fd5b049350838503925084890391508073ffffffffffffffffffffffffffffffffffffffff166323b872dd33308c6040518463ffffffff1660e01b81526004016120b293929190613025565b602060405180830381600087803b1580156120cc57600080fd5b505af11580156120e0573d6000803e3d6000fd5b505050506040513d601f19601f82011682018060405250810190612104919061283d565b612143576040517f08c379a000000000000000000000000000000000000000000000000000000000815260040161213a90613151565b60405180910390fd5b8073ffffffffffffffffffffffffffffffffffffffff1663095ea7b3600860009054906101000a900473ffffffffffffffffffffffffffffffffffffffff168b6040518363ffffffff1660e01b81526004016121a092919061305c565b602060405180830381600087803b1580156121ba57600080fd5b505af11580156121ce573d6000803e3d6000fd5b505050506040513d601f19601f820116820180604052508101906121f2919061283d565b50600860009054906101000a900473ffffffffffffffffffffffffffffffffffffffff1673ffffffffffffffffffffffffffffffffffffffff16632e2d298483838a60040160009054906101000a900473ffffffffffffffffffffffffffffffffffffffff166040518463ffffffff1660e01b8152600401612276939291906132d7565b600060405180830381600087803b15801561229057600080fd5b505af11580156122a4573d6000803e3d6000fd5b50505050600860009054906101000a900473ffffffffffffffffffffffffffffffffffffffff1673ffffffffffffffffffffffffffffffffffffffff16632e2d29848583600a60009054906101000a900473ffffffffffffffffffffffffffffffffffffffff166040518463ffffffff1660e01b8152600401612329939291906132d7565b600060405180830381600087803b15801561234357600080fd5b505af1158015612357573d6000803e3d6000fd5b50505050600860009054906101000a900473ffffffffffffffffffffffffffffffffffffffff1673ffffffffffffffffffffffffffffffffffffffff16632e2d29848483600b60009054906101000a900473ffffffffffffffffffffffffffffffffffffffff166040518463ffffffff1660e01b81526004016123dc939291906132d7565b600060405180830381600087803b1580156123f657600080fd5b505af115801561240a573d6000803e3d6000fd5b505050508887600901600082825401925050819055508660040160009054906101000a900473ffffffffffffffffffffffffffffffffffffffff1673ffffffffffffffffffffffffffffffffffffffff163373ffffffffffffffffffffffffffffffffffffffff167f1f004c54eef332ef6912dae8f1775c102da23bec79ccf602eaaa072938e96b678c8c6040516124a39291906133aa565b60405180910390a350505050505050505050565b60405180610120016040528060008152602001606081526020016060815260200160006001811115612512577f4e487b7100000000000000000000000000000000000000000000000000000000600052602160045260246000fd5b8152602001600073ffffffffffffffffffffffffffffffffffffffff168152602001600073ffffffffffffffffffffffffffffffffffffffff1681526020016125596125f9565b81526020016125666125f9565b8152602001600081525090565b82805461257f90613634565b90600052602060002090601f0160209004810192826125a157600085556125e8565b82601f106125ba57805160ff19168380011785556125e8565b828001600101855582156125e8579182015b828111156125e75782518255916020019190600101906125cc565b5b5090506125f59190612629565b5090565b604051806040016040528060008152602001600073ffffffffffffffffffffffffffffffffffffffff1681525090565b5b8082111561264257600081600090555060010161262a565b5090565b6000612659612654846133f8565b6133d3565b9050808382526020820190508260005b85811015612699578135850161267f888261275f565b845260208401935060208301925050600181019050612669565b5050509392505050565b60006126b66126b184613424565b6133d3565b9050828152602081018484840111156126ce57600080fd5b6126d98482856135f2565b509392505050565b6000813590506126f0816139f0565b92915050565b600082601f83011261270757600080fd5b8135612717848260208601612646565b91505092915050565b60008151905061272f81613a07565b92915050565b600082601f83011261274657600080fd5b81356127568482602086016126a3565b91505092915050565b60006040828403121561277157600080fd5b61277b60406133d3565b9050600082013567ffffffffffffffff81111561279757600080fd5b6127a384828501612735565b60008301525060206127b7848285016127c3565b60208301525092915050565b6000813590506127d281613a1e565b92915050565b6000602082840312156127ea57600080fd5b60006127f8848285016126e1565b91505092915050565b6000806040838503121561281457600080fd5b6000612822858286016126e1565b9250506020612833858286016127c3565b9150509250929050565b60006020828403121561284f57600080fd5b600061285d84828501612720565b91505092915050565b600080600080600060a0868803121561287e57600080fd5b600086013567ffffffffffffffff81111561289857600080fd5b6128a488828901612735565b955050602086013567ffffffffffffffff8111156128c157600080fd5b6128cd88828901612735565b94505060406128de888289016126e1565b935050606086013567ffffffffffffffff8111156128fb57600080fd5b612907888289016126f6565b9250506080612918888289016127c3565b9150509295509295909350565b60006020828403121561293757600080fd5b6000612945848285016127c3565b91505092915050565b6000806040838503121561296157600080fd5b600061296f858286016127c3565b9250506020612980858286016127c3565b9150509250929050565b60008060006060848603121561299f57600080fd5b60006129ad868287016127c3565b93505060206129be868287016127c3565b92505060406129cf868287016126e1565b9150509250925092565b6000806000606084860312156129ee57600080fd5b60006129fc868287016127c3565b9350506020612a0d868287016127c3565b9250506040612a1e868287016127c3565b9150509250925092565b6000612a348383612db7565b905092915050565b6000612a488383612f51565b905092915050565b6000612a5c8383612fec565b60208301905092915050565b612a7181613561565b82525050565b612a8081613561565b82525050565b6000612a9182613485565b612a9b81856134d8565b935083602082028501612aad85613455565b8060005b85811015612ae95784840389528151612aca8582612a28565b9450612ad5836134b1565b925060208a01995050600181019050612ab1565b50829750879550505050505092915050565b6000612b0682613490565b612b1081856134e9565b935083602082028501612b2285613465565b8060005b85811015612b5e5784840389528151612b3f8582612a3c565b9450612b4a836134be565b925060208a01995050600181019050612b26565b50829750879550505050505092915050565b6000612b7b8261349b565b612b8581856134fa565b9350612b9083613475565b8060005b83811015612bc1578151612ba88882612a50565b9750612bb3836134cb565b925050600181019050612b94565b5085935050505092915050565b612bd781613573565b82525050565b612be6816135bc565b82525050565b612bf5816135e0565b82525050565b612c04816135e0565b82525050565b6000612c15826134a6565b612c1f818561350b565b9350612c2f818560208601613601565b612c388161379c565b840191505092915050565b6000612c4e826134a6565b612c58818561351c565b9350612c68818560208601613601565b612c718161379c565b840191505092915050565b6000612c89602d8361351c565b9150612c94826137ad565b604082019050919050565b6000612cac60188361351c565b9150612cb7826137fc565b602082019050919050565b6000612ccf60258361351c565b9150612cda82613825565b604082019050919050565b6000612cf260158361351c565b9150612cfd82613874565b602082019050919050565b6000612d1560148361351c565b9150612d208261389d565b602082019050919050565b6000612d3860238361351c565b9150612d43826138c6565b604082019050919050565b6000612d5b60328361351c565b9150612d6682613915565b604082019050919050565b6000612d7e60288361351c565b9150612d8982613964565b604082019050919050565b6000612da160168361351c565b9150612dac826139b3565b602082019050919050565b600061016083016000830151612dd06000860182612fec565b5060208301518482036020860152612de88282612c0a565b91505060408301518482036040860152612e028282612c0a565b9150506060830151612e176060860182612bec565b506080830151612e2a6080860182612a68565b5060a0830151612e3d60a0860182612a68565b5060c0830151612e5060c0860182612f8e565b5060e0830151612e64610100860182612f8e565b50610100830151612e79610140860182612fec565b508091505092915050565b600061016083016000830151612e9d6000860182612fec565b5060208301518482036020860152612eb58282612c0a565b91505060408301518482036040860152612ecf8282612c0a565b9150506060830151612ee46060860182612bec565b506080830151612ef76080860182612a68565b5060a0830151612f0a60a0860182612a68565b5060c0830151612f1d60c0860182612f8e565b5060e0830151612f31610100860182612f8e565b50610100830151612f46610140860182612fec565b508091505092915050565b60006040830160008301518482036000860152612f6e8282612c0a565b9150506020830151612f836020860182612fec565b508091505092915050565b604082016000820151612fa46000850182612fec565b506020820151612fb76020850182612a68565b50505050565b604082016000820151612fd36000850182612fec565b506020820151612fe66020850182612a68565b50505050565b612ff5816135b2565b82525050565b613004816135b2565b82525050565b600060208201905061301f6000830184612a77565b92915050565b600060608201905061303a6000830186612a77565b6130476020830185612a77565b6130546040830184612ffb565b949350505050565b60006040820190506130716000830185612a77565b61307e6020830184612ffb565b9392505050565b6000602082019050818103600083015261309f8184612a86565b905092915050565b600060208201905081810360008301526130c18184612afb565b905092915050565b600060208201905081810360008301526130e38184612b70565b905092915050565b60006020820190506131006000830184612bce565b92915050565b600060208201905061311b6000830184612bdd565b92915050565b6000604082019050818103600083015261313b8185612c43565b905061314a6020830184612ffb565b9392505050565b6000602082019050818103600083015261316a81612c7c565b9050919050565b6000602082019050818103600083015261318a81612c9f565b9050919050565b600060208201905081810360008301526131aa81612cc2565b9050919050565b600060208201905081810360008301526131ca81612ce5565b9050919050565b600060208201905081810360008301526131ea81612d08565b9050919050565b6000602082019050818103600083015261320a81612d2b565b9050919050565b6000602082019050818103600083015261322a81612d4e565b9050919050565b6000602082019050818103600083015261324a81612d71565b9050919050565b6000602082019050818103600083015261326a81612d94565b9050919050565b6000602082019050818103600083015261328b8184612e84565b905092915050565b60006020820190506132a86000830184612ffb565b92915050565b60006040820190506132c36000830185612ffb565b6132d06020830184612a77565b9392505050565b60006060820190506132ec6000830186612ffb565b6132f96020830185612a77565b6133066040830184612a77565b949350505050565b600061016082019050613324600083018c612ffb565b8181036020830152613336818b612c43565b9050818103604083015261334a818a612c43565b90506133596060830189612bfb565b6133666080830188612a77565b61337360a0830187612a77565b61338060c0830186612fbd565b61338e610100830185612fbd565b61339c610140830184612ffb565b9a9950505050505050505050565b60006040820190506133bf6000830185612ffb565b6133cc6020830184612ffb565b9392505050565b60006133dd6133ee565b90506133e98282613666565b919050565b6000604051905090565b600067ffffffffffffffff8211156134135761341261376d565b5b602082029050602081019050919050565b600067ffffffffffffffff82111561343f5761343e61376d565b5b6134488261379c565b9050602081019050919050565b6000819050602082019050919050565b6000819050602082019050919050565b6000819050602082019050919050565b600081519050919050565b600081519050919050565b600081519050919050565b600081519050919050565b6000602082019050919050565b6000602082019050919050565b6000602082019050919050565b600082825260208201905092915050565b600082825260208201905092915050565b600082825260208201905092915050565b600082825260208201905092915050565b600082825260208201905092915050565b6000613538826135b2565b9150613543836135b2565b925082821015613556576135556136e0565b5b828203905092915050565b600061356c82613592565b9050919050565b60008115159050919050565b600081905061358d826139dc565b919050565b600073ffffffffffffffffffffffffffffffffffffffff82169050919050565b6000819050919050565b60006135c7826135ce565b9050919050565b60006135d982613592565b9050919050565b60006135eb8261357f565b9050919050565b82818337600083830152505050565b60005b8381101561361f578082015181840152602081019050613604565b8381111561362e576000848401525b50505050565b6000600282049050600182168061364c57607f821691505b602082108114156136605761365f61373e565b5b50919050565b61366f8261379c565b810181811067ffffffffffffffff8211171561368e5761368d61376d565b5b80604052505050565b60006136a2826135b2565b91507fffffffffffffffffffffffffffffffffffffffffffffffffffffffffffffffff8214156136d5576136d46136e0565b5b600182019050919050565b7f4e487b7100000000000000000000000000000000000000000000000000000000600052601160045260246000fd5b7f4e487b7100000000000000000000000000000000000000000000000000000000600052602160045260246000fd5b7f4e487b7100000000000000000000000000000000000000000000000000000000600052602260045260246000fd5b7f4e487b7100000000000000000000000000000000000000000000000000000000600052604160045260246000fd5b6000601f19601f8301169050919050565b7f55736572206d75737420617070726f76652074686520616d6f756e74206f662060008201527f7468652061677265656d656e7400000000000000000000000000000000000000602082015250565b7f536b696c6c73206d757374206e6f7420626520656d7074790000000000000000600082015250565b7f4f6e6c7920746865206f776e65722063616e2063616c6c20746869732066756e60008201527f6374696f6e000000000000000000000000000000000000000000000000000000602082015250565b7f496e76616c6964207061796d656e7420746f6b656e0000000000000000000000600082015250565b7f496e76616c69642061677265656d656e74204944000000000000000000000000600082015250565b7f50726f66657373696f6e616c20616464726573732063616e6e6f74206265207a60008201527f65726f0000000000000000000000000000000000000000000000000000000000602082015250565b7f50726f66657373696f6e616c20616464726573732063616e6e6f74206265207460008201527f68652073616d6520617320636f6d70616e790000000000000000000000000000602082015250565b7f5061796d656e7420616d6f756e74206d7573742062652067726561746572207460008201527f68616e207a65726f000000000000000000000000000000000000000000000000602082015250565b7f496e76616c6964206665652070657263656e7461676500000000000000000000600082015250565b600281106139ed576139ec61370f565b5b50565b6139f981613561565b8114613a0457600080fd5b50565b613a1081613573565b8114613a1b57600080fd5b50565b613a27816135b2565b8114613a3257600080fd5b5056fea26469706673582212200925fe04f049dafd181629b897c85411d11d97d983f5b88ea21c8773b04238cb64736f6c63430008010033",
  "linkReferences": {},
  "deployedLinkReferences": {}
}