{
  "_format": "hh-sol-artifact-1",
  "contractName": "AgreementContract",
  "sourceName": "contracts/AgreementContract.sol",
  "abi": [
    {
      "inputs": [
        {
          "internalType": "address",
          "name": "_kyodoTreasury",
          "type": "address"
        },
        {
          "internalType": "address",
          "name": "_communityDAO",
          "type": "address"
        },
        {
          "internalType": "address",
          "name": "admin",
          "type": "address"
        }
      ],
      "stateMutability": "nonpayable",
      "type": "constructor"
    },
    {
      "anonymous": false,
      "inputs": [
        {
          "indexed": true,
          "internalType": "address",
          "name": "company",
          "type": "address"
        },
        {
          "indexed": true,
          "internalType": "address",
          "name": "professional",
          "type": "address"
        },
        {
          "indexed": false,
          "internalType": "uint256",
          "name": "agreementId",
          "type": "uint256"
        },
        {
          "indexed": false,
          "internalType": "uint256",
          "name": "amount",
          "type": "uint256"
        }
      ],
      "name": "AgreementCreated",
      "type": "event"
    },
    {
      "anonymous": false,
      "inputs": [
        {
          "indexed": true,
          "internalType": "address",
          "name": "new_admin",
          "type": "address"
        }
      ],
      "name": "NewAdminAdded",
      "type": "event"
    },
    {
      "anonymous": false,
      "inputs": [
        {
          "indexed": true,
          "internalType": "address",
          "name": "profile",
          "type": "address"
        }
      ],
      "name": "NewProfileAdded",
      "type": "event"
    },
    {
      "anonymous": false,
      "inputs": [
        {
          "indexed": false,
          "internalType": "address",
          "name": "account",
          "type": "address"
        }
      ],
      "name": "Paused",
      "type": "event"
    },
    {
      "anonymous": false,
      "inputs": [
        {
          "indexed": true,
          "internalType": "address",
          "name": "company",
          "type": "address"
        },
        {
          "indexed": true,
          "internalType": "address",
          "name": "professional",
          "type": "address"
        },
        {
          "indexed": false,
          "internalType": "uint256",
          "name": "agreementId",
          "type": "uint256"
        },
        {
          "indexed": false,
          "internalType": "uint256",
          "name": "amount",
          "type": "uint256"
        }
      ],
      "name": "PaymentMade",
      "type": "event"
    },
    {
      "anonymous": false,
      "inputs": [
        {
          "indexed": true,
          "internalType": "address",
          "name": "removed_admin",
          "type": "address"
        }
      ],
      "name": "RemovedAdmin",
      "type": "event"
    },
    {
      "anonymous": false,
      "inputs": [
        {
          "indexed": true,
          "internalType": "bytes32",
          "name": "role",
          "type": "bytes32"
        },
        {
          "indexed": true,
          "internalType": "bytes32",
          "name": "previousAdminRole",
          "type": "bytes32"
        },
        {
          "indexed": true,
          "internalType": "bytes32",
          "name": "newAdminRole",
          "type": "bytes32"
        }
      ],
      "name": "RoleAdminChanged",
      "type": "event"
    },
    {
      "anonymous": false,
      "inputs": [
        {
          "indexed": true,
          "internalType": "bytes32",
          "name": "role",
          "type": "bytes32"
        },
        {
          "indexed": true,
          "internalType": "address",
          "name": "account",
          "type": "address"
        },
        {
          "indexed": true,
          "internalType": "address",
          "name": "sender",
          "type": "address"
        }
      ],
      "name": "RoleGranted",
      "type": "event"
    },
    {
      "anonymous": false,
      "inputs": [
        {
          "indexed": true,
          "internalType": "bytes32",
          "name": "role",
          "type": "bytes32"
        },
        {
          "indexed": true,
          "internalType": "address",
          "name": "account",
          "type": "address"
        },
        {
          "indexed": true,
          "internalType": "address",
          "name": "sender",
          "type": "address"
        }
      ],
      "name": "RoleRevoked",
      "type": "event"
    },
    {
      "anonymous": false,
      "inputs": [
        {
          "indexed": false,
          "internalType": "address",
          "name": "account",
          "type": "address"
        }
      ],
      "name": "Unpaused",
      "type": "event"
    },
    {
      "inputs": [],
      "name": "CHANGE_PARAMETERS",
      "outputs": [
        {
          "internalType": "bytes32",
          "name": "",
          "type": "bytes32"
        }
      ],
      "stateMutability": "view",
      "type": "function"
    },
    {
      "inputs": [],
      "name": "DEFAULT_ADMIN_ROLE",
      "outputs": [
        {
          "internalType": "bytes32",
          "name": "",
          "type": "bytes32"
        }
      ],
      "stateMutability": "view",
      "type": "function"
    },
    {
      "inputs": [
        {
          "internalType": "address",
          "name": "",
          "type": "address"
        }
      ],
      "name": "acceptedPaymentTokens",
      "outputs": [
        {
          "internalType": "bool",
          "name": "",
          "type": "bool"
        }
      ],
      "stateMutability": "view",
      "type": "function"
    },
    {
      "inputs": [
        {
          "internalType": "address",
          "name": "_tokenAddress",
          "type": "address"
        }
      ],
      "name": "addAcceptedPaymentToken",
      "outputs": [],
      "stateMutability": "nonpayable",
      "type": "function"
    },
    {
      "inputs": [
        {
          "internalType": "address",
          "name": "account",
          "type": "address"
        }
      ],
      "name": "addAdmin",
      "outputs": [],
      "stateMutability": "nonpayable",
      "type": "function"
    },
    {
      "inputs": [
        {
          "internalType": "address",
          "name": "account",
          "type": "address"
        }
      ],
      "name": "addProfile",
      "outputs": [],
      "stateMutability": "nonpayable",
      "type": "function"
    },
    {
      "inputs": [
        {
          "internalType": "uint256",
          "name": "",
          "type": "uint256"
        },
        {
          "internalType": "uint256",
          "name": "",
          "type": "uint256"
        }
      ],
      "name": "agreementSkills",
      "outputs": [
        {
          "internalType": "string",
          "name": "name",
          "type": "string"
        },
        {
          "internalType": "uint256",
          "name": "level",
          "type": "uint256"
        }
      ],
      "stateMutability": "view",
      "type": "function"
    },
    {
      "inputs": [
        {
          "internalType": "uint256",
          "name": "",
          "type": "uint256"
        }
      ],
      "name": "agreements",
      "outputs": [
        {
          "internalType": "uint256",
          "name": "id",
          "type": "uint256"
        },
        {
          "internalType": "string",
          "name": "title",
          "type": "string"
        },
        {
          "internalType": "string",
          "name": "description",
          "type": "string"
        },
        {
          "internalType": "enum IAgreementContract.AgreementStatus",
          "name": "status",
          "type": "uint8"
        },
        {
          "internalType": "address",
          "name": "company",
          "type": "address"
        },
        {
          "internalType": "address",
          "name": "professional",
          "type": "address"
        },
        {
          "internalType": "uint256",
          "name": "paymentAmount",
          "type": "uint256"
        },
        {
          "internalType": "uint256",
          "name": "totalPaid",
          "type": "uint256"
        }
      ],
      "stateMutability": "view",
      "type": "function"
    },
    {
      "inputs": [],
      "name": "communityDAO",
      "outputs": [
        {
          "internalType": "address",
          "name": "",
          "type": "address"
        }
      ],
      "stateMutability": "view",
      "type": "function"
    },
    {
      "inputs": [],
      "name": "communityDAOFee",
      "outputs": [
        {
          "internalType": "uint256",
          "name": "",
          "type": "uint256"
        }
      ],
      "stateMutability": "view",
      "type": "function"
    },
    {
      "inputs": [
        {
          "internalType": "address",
          "name": "",
          "type": "address"
        },
        {
          "internalType": "uint256",
          "name": "",
          "type": "uint256"
        }
      ],
      "name": "contractorAgreements",
      "outputs": [
        {
          "internalType": "uint256",
          "name": "",
          "type": "uint256"
        }
      ],
      "stateMutability": "view",
      "type": "function"
    },
    {
      "inputs": [
        {
          "internalType": "string",
          "name": "_title",
          "type": "string"
        },
        {
          "internalType": "string",
          "name": "_description",
          "type": "string"
        },
        {
          "internalType": "address",
          "name": "_professional",
          "type": "address"
        },
        {
          "components": [
            {
              "internalType": "string",
              "name": "name",
              "type": "string"
            },
            {
              "internalType": "uint256",
              "name": "level",
              "type": "uint256"
            }
          ],
          "internalType": "struct IAgreementContract.Skill[]",
          "name": "_skills",
          "type": "tuple[]"
        },
        {
          "internalType": "uint256",
          "name": "_paymentAmount",
          "type": "uint256"
        }
      ],
      "name": "createAgreement",
      "outputs": [],
      "stateMutability": "nonpayable",
      "type": "function"
    },
    {
      "inputs": [],
      "name": "feePercentage",
      "outputs": [
        {
          "internalType": "uint256",
          "name": "",
          "type": "uint256"
        }
      ],
      "stateMutability": "view",
      "type": "function"
    },
    {
      "inputs": [],
      "name": "getAcceptedPaymentTokens",
      "outputs": [
        {
          "internalType": "address",
          "name": "",
          "type": "address"
        }
      ],
      "stateMutability": "view",
      "type": "function"
    },
    {
      "inputs": [
        {
          "internalType": "uint256",
          "name": "_id",
          "type": "uint256"
        }
      ],
      "name": "getAgreementById",
      "outputs": [
        {
          "components": [
            {
              "internalType": "uint256",
              "name": "id",
              "type": "uint256"
            },
            {
              "internalType": "string",
              "name": "title",
              "type": "string"
            },
            {
              "internalType": "string",
              "name": "description",
              "type": "string"
            },
            {
              "internalType": "enum IAgreementContract.AgreementStatus",
              "name": "status",
              "type": "uint8"
            },
            {
              "internalType": "address",
              "name": "company",
              "type": "address"
            },
            {
              "internalType": "address",
              "name": "professional",
              "type": "address"
            },
            {
              "internalType": "uint256",
              "name": "paymentAmount",
              "type": "uint256"
            },
            {
              "internalType": "uint256",
              "name": "totalPaid",
              "type": "uint256"
            }
          ],
          "internalType": "struct IAgreementContract.Agreement",
          "name": "",
          "type": "tuple"
        }
      ],
      "stateMutability": "view",
      "type": "function"
    },
    {
      "inputs": [],
      "name": "getAgreementCount",
      "outputs": [
        {
          "internalType": "uint256",
          "name": "",
          "type": "uint256"
        }
      ],
      "stateMutability": "view",
      "type": "function"
    },
    {
      "inputs": [],
      "name": "getAllAgreements",
      "outputs": [
        {
          "components": [
            {
              "internalType": "uint256",
              "name": "id",
              "type": "uint256"
            },
            {
              "internalType": "string",
              "name": "title",
              "type": "string"
            },
            {
              "internalType": "string",
              "name": "description",
              "type": "string"
            },
            {
              "internalType": "enum IAgreementContract.AgreementStatus",
              "name": "status",
              "type": "uint8"
            },
            {
              "internalType": "address",
              "name": "company",
              "type": "address"
            },
            {
              "internalType": "address",
              "name": "professional",
              "type": "address"
            },
            {
              "internalType": "uint256",
              "name": "paymentAmount",
              "type": "uint256"
            },
            {
              "internalType": "uint256",
              "name": "totalPaid",
              "type": "uint256"
            }
          ],
          "internalType": "struct IAgreementContract.Agreement[]",
          "name": "",
          "type": "tuple[]"
        }
      ],
      "stateMutability": "view",
      "type": "function"
    },
    {
      "inputs": [
        {
          "internalType": "address",
          "name": "_contractor",
          "type": "address"
        }
      ],
      "name": "getContractorAgreementIds",
      "outputs": [
        {
          "internalType": "uint256[]",
          "name": "",
          "type": "uint256[]"
        }
      ],
      "stateMutability": "view",
      "type": "function"
    },
    {
      "inputs": [
        {
          "internalType": "address",
          "name": "_professional",
          "type": "address"
        }
      ],
      "name": "getProfessionalAgreementIds",
      "outputs": [
        {
          "internalType": "uint256[]",
          "name": "",
          "type": "uint256[]"
        }
      ],
      "stateMutability": "view",
      "type": "function"
    },
    {
      "inputs": [
        {
          "internalType": "bytes32",
          "name": "role",
          "type": "bytes32"
        }
      ],
      "name": "getRoleAdmin",
      "outputs": [
        {
          "internalType": "bytes32",
          "name": "",
          "type": "bytes32"
        }
      ],
      "stateMutability": "view",
      "type": "function"
    },
    {
      "inputs": [
        {
          "internalType": "uint256",
          "name": "_agreementId",
          "type": "uint256"
        }
      ],
      "name": "getSkillsByAgreementId",
      "outputs": [
        {
          "components": [
            {
              "internalType": "string",
              "name": "name",
              "type": "string"
            },
            {
              "internalType": "uint256",
              "name": "level",
              "type": "uint256"
            }
          ],
          "internalType": "struct IAgreementContract.Skill[]",
          "name": "",
          "type": "tuple[]"
        }
      ],
      "stateMutability": "view",
      "type": "function"
    },
    {
      "inputs": [
        {
          "internalType": "bytes32",
          "name": "role",
          "type": "bytes32"
        },
        {
          "internalType": "address",
          "name": "account",
          "type": "address"
        }
      ],
      "name": "grantRole",
      "outputs": [],
      "stateMutability": "nonpayable",
      "type": "function"
    },
    {
      "inputs": [
        {
          "internalType": "bytes32",
          "name": "role",
          "type": "bytes32"
        },
        {
          "internalType": "address",
          "name": "account",
          "type": "address"
        }
      ],
      "name": "hasRole",
      "outputs": [
        {
          "internalType": "bool",
          "name": "",
          "type": "bool"
        }
      ],
      "stateMutability": "view",
      "type": "function"
    },
    {
      "inputs": [],
      "name": "kyodoTreasury",
      "outputs": [
        {
          "internalType": "address",
          "name": "",
          "type": "address"
        }
      ],
      "stateMutability": "view",
      "type": "function"
    },
    {
      "inputs": [],
      "name": "kyodoTreasuryFee",
      "outputs": [
        {
          "internalType": "uint256",
          "name": "",
          "type": "uint256"
        }
      ],
      "stateMutability": "view",
      "type": "function"
    },
    {
      "inputs": [
        {
          "internalType": "uint256",
          "name": "_agreementId",
          "type": "uint256"
        },
        {
          "internalType": "uint256",
          "name": "_amountToPay",
          "type": "uint256"
        },
        {
          "internalType": "address",
          "name": "_paymentAddress",
          "type": "address"
        }
      ],
      "name": "makePayment",
      "outputs": [],
      "stateMutability": "nonpayable",
      "type": "function"
    },
    {
      "inputs": [],
      "name": "nextAgreementId",
      "outputs": [
        {
          "internalType": "uint256",
          "name": "",
          "type": "uint256"
        }
      ],
      "stateMutability": "view",
      "type": "function"
    },
    {
      "inputs": [],
      "name": "pause",
      "outputs": [],
      "stateMutability": "nonpayable",
      "type": "function"
    },
    {
      "inputs": [],
      "name": "paused",
      "outputs": [
        {
          "internalType": "bool",
          "name": "",
          "type": "bool"
        }
      ],
      "stateMutability": "view",
      "type": "function"
    },
    {
      "inputs": [
        {
          "internalType": "address",
          "name": "account",
          "type": "address"
        }
      ],
      "name": "removeAdmin",
      "outputs": [],
      "stateMutability": "nonpayable",
      "type": "function"
    },
    {
      "inputs": [
        {
          "internalType": "address",
          "name": "token",
          "type": "address"
        }
      ],
      "name": "removePaymentToken",
      "outputs": [],
      "stateMutability": "nonpayable",
      "type": "function"
    },
    {
      "inputs": [
        {
          "internalType": "bytes32",
          "name": "role",
          "type": "bytes32"
        },
        {
          "internalType": "address",
          "name": "account",
          "type": "address"
        }
      ],
      "name": "renounceRole",
      "outputs": [],
      "stateMutability": "nonpayable",
      "type": "function"
    },
    {
      "inputs": [
        {
          "internalType": "bytes32",
          "name": "role",
          "type": "bytes32"
        },
        {
          "internalType": "address",
          "name": "account",
          "type": "address"
        }
      ],
      "name": "revokeRole",
      "outputs": [],
      "stateMutability": "nonpayable",
      "type": "function"
    },
    {
      "inputs": [
        {
          "internalType": "uint256",
          "name": "_feePercentage",
          "type": "uint256"
        },
        {
          "internalType": "uint256",
          "name": "_kyodoTreasuryFee",
          "type": "uint256"
        },
        {
          "internalType": "uint256",
          "name": "_communityDAOFee",
          "type": "uint256"
        }
      ],
      "name": "setFees",
      "outputs": [],
      "stateMutability": "nonpayable",
      "type": "function"
    },
    {
      "inputs": [
        {
          "internalType": "bytes4",
          "name": "interfaceId",
          "type": "bytes4"
        }
      ],
      "name": "supportsInterface",
      "outputs": [
        {
          "internalType": "bool",
          "name": "",
          "type": "bool"
        }
      ],
      "stateMutability": "view",
      "type": "function"
    },
    {
      "inputs": [
        {
          "internalType": "uint256",
          "name": "",
          "type": "uint256"
        }
      ],
      "name": "tokenAddresses",
      "outputs": [
        {
          "internalType": "address",
          "name": "",
          "type": "address"
        }
      ],
      "stateMutability": "view",
      "type": "function"
    },
    {
      "inputs": [],
      "name": "unpause",
      "outputs": [],
      "stateMutability": "nonpayable",
      "type": "function"
    }
  ],
  "bytecode": "0x608060405260016002553480156200001657600080fd5b50604051620048c1380380620048c183398181016040528101906200003c9190620002f8565b806000600160006101000a81548160ff0219169083151502179055506200006d6000801b826200012b60201b60201c565b6200009f7f73fd536265c26e6e13263018bc9d82a9b962a7857ae70dac847fd743f5e71535826200012b60201b60201c565b5082600960006101000a81548173ffffffffffffffffffffffffffffffffffffffff021916908373ffffffffffffffffffffffffffffffffffffffff16021790555081600a60006101000a81548173ffffffffffffffffffffffffffffffffffffffff021916908373ffffffffffffffffffffffffffffffffffffffff16021790555050505062000354565b6200013d82826200021c60201b60201c565b6200021857600160008084815260200190815260200160002060000160008373ffffffffffffffffffffffffffffffffffffffff1673ffffffffffffffffffffffffffffffffffffffff16815260200190815260200160002060006101000a81548160ff021916908315150217905550620001bd6200028660201b60201c565b73ffffffffffffffffffffffffffffffffffffffff168173ffffffffffffffffffffffffffffffffffffffff16837f2f8788117e7eff1d82e926ec794901d17c78024a50270940304540a733656f0d60405160405180910390a45b5050565b600080600084815260200190815260200160002060000160008373ffffffffffffffffffffffffffffffffffffffff1673ffffffffffffffffffffffffffffffffffffffff16815260200190815260200160002060009054906101000a900460ff16905092915050565b600033905090565b600080fd5b600073ffffffffffffffffffffffffffffffffffffffff82169050919050565b6000620002c08262000293565b9050919050565b620002d281620002b3565b8114620002de57600080fd5b50565b600081519050620002f281620002c7565b92915050565b6000806000606084860312156200031457620003136200028e565b5b60006200032486828701620002e1565b93505060206200033786828701620002e1565b92505060406200034a86828701620002e1565b9150509250925092565b61455d80620003646000396000f3fe608060405234801561001057600080fd5b50600436106102265760003560e01c80637d23990711610130578063a8613676116100b8578063cec10c111161007c578063cec10c111461066f578063d547741f1461068b578063e5df8b84146106a7578063f38d215d146106d7578063fc3f5dff1461070757610226565b8063a8613676146105b0578063b3f8cb00146105cc578063bd14de96146105fc578063c9b99dab14610633578063c9e929051461065157610226565b806391d14854116100ff57806391d148541461050a578063964bb4ab1461053a578063a001ecdd14610558578063a217fddf14610576578063a51254211461059457610226565b80637d239907146104945780638207546e146104b25780638456cb59146104d05780638ee0344f146104da57610226565b80633f4ba83a116101b35780634f7cd72f116101825780634f7cd72f146103ee578063573fb6241461040c5780635c975abb1461043c578063704802751461045a57806377be3d2f1461047657610226565b80633f4ba83a14610366578063484bb244146103705780634e6873c7146103a05780634e92fafd146103be57610226565b80631785f53c116101fa5780631785f53c146102b1578063248a9ca3146102cd57806329db7493146102fd5780632f2ff15d1461032e57806336568abe1461034a57610226565b80628bed3e1461022b57806301ffc9a71461024957806310143a641461027957806313cda3b714610295575b600080fd5b610233610723565b60405161024091906129d9565b60405180910390f35b610263600480360381019061025e9190612a60565b610730565b6040516102709190612aa8565b60405180910390f35b610293600480360381019061028e9190612b21565b6107aa565b005b6102af60048036038101906102aa9190612b21565b610822565b005b6102cb60048036038101906102c69190612b21565b6108ee565b005b6102e760048036038101906102e29190612b84565b610957565b6040516102f49190612bc0565b60405180910390f35b61031760048036038101906103129190612c07565b610976565b604051610325929190612cd7565b60405180910390f35b61034860048036038101906103439190612d07565b610a3f565b005b610364600480360381019061035f9190612d07565b610a60565b005b61036e610ae3565b005b61038a60048036038101906103859190612b21565b610b03565b6040516103979190612aa8565b60405180910390f35b6103a8610b23565b6040516103b59190612f9f565b60405180910390f35b6103d860048036038101906103d39190612b21565b610dac565b6040516103e59190613070565b60405180910390f35b6103f6610e43565b6040516104039190612bc0565b60405180910390f35b61042660048036038101906104219190613092565b610e67565b6040516104339190613176565b60405180910390f35b61044461112d565b6040516104519190612aa8565b60405180910390f35b610474600480360381019061046f9190612b21565b611144565b005b61047e6111ad565b60405161048b91906131a7565b60405180910390f35b61049c6111f4565b6040516104a991906129d9565b60405180910390f35b6104ba6111fa565b6040516104c791906131a7565b60405180910390f35b6104d8611220565b005b6104f460048036038101906104ef9190612b21565b611240565b6040516105019190613070565b60405180910390f35b610524600480360381019061051f9190612d07565b6112d7565b6040516105319190612aa8565b60405180910390f35b610542611341565b60405161054f91906131a7565b60405180910390f35b610560611367565b60405161056d91906129d9565b60405180910390f35b61057e61136d565b60405161058b9190612bc0565b60405180910390f35b6105ae60048036038101906105a99190612b21565b611374565b005b6105ca60048036038101906105c59190613453565b6113dd565b005b6105e660048036038101906105e19190613092565b6119a7565b6040516105f39190613621565b60405180910390f35b61061660048036038101906106119190613092565b611ab5565b60405161062a989796959493929190613652565b60405180910390f35b61063b611c6a565b60405161064891906129d9565b60405180910390f35b610659611c70565b60405161066691906129d9565b60405180910390f35b610689600480360381019061068491906136de565b611c76565b005b6106a560048036038101906106a09190612d07565b611cf0565b005b6106c160048036038101906106bc9190613092565b611d11565b6040516106ce91906131a7565b60405180910390f35b6106f160048036038101906106ec9190613731565b611d50565b6040516106fe91906129d9565b60405180910390f35b610721600480360381019061071c9190613771565b611d81565b005b6000600380549050905090565b60007f7965db0b000000000000000000000000000000000000000000000000000000007bffffffffffffffffffffffffffffffffffffffffffffffffffffffff1916827bffffffffffffffffffffffffffffffffffffffffffffffffffffffff191614806107a357506107a2826122b0565b5b9050919050565b6107b261231a565b6107dc7f73fd536265c26e6e13263018bc9d82a9b962a7857ae70dac847fd743f5e7153582612364565b8073ffffffffffffffffffffffffffffffffffffffff167f92364d7c14d8a26a040c77305dd885fcd5898051d1b1ead4189b09d5f091159060405160405180910390a250565b6000801b61082f81612444565b6001600660008473ffffffffffffffffffffffffffffffffffffffff1673ffffffffffffffffffffffffffffffffffffffff16815260200190815260200160002060006101000a81548160ff0219169083151502179055506008829080600181540180825580915050600190039060005260206000200160009091909190916101000a81548173ffffffffffffffffffffffffffffffffffffffff021916908373ffffffffffffffffffffffffffffffffffffffff1602179055505050565b6000801b6108fb81612444565b61090361231a565b6109106000801b83612458565b8173ffffffffffffffffffffffffffffffffffffffff167f3137a7fedbfedb7895dfa5a6812a4566dae9ded68d00aeec13c6ed1fa84a1c8060405160405180910390a25050565b6000806000838152602001908152602001600020600101549050919050565b6007602052816000526040600020818154811061099257600080fd5b9060005260206000209060020201600091509150508060000180546109b6906137f3565b80601f01602080910402602001604051908101604052809291908181526020018280546109e2906137f3565b8015610a2f5780601f10610a0457610100808354040283529160200191610a2f565b820191906000526020600020905b815481529060010190602001808311610a1257829003601f168201915b5050505050908060010154905082565b610a4882610957565b610a5181612444565b610a5b8383612364565b505050565b610a68612539565b73ffffffffffffffffffffffffffffffffffffffff168173ffffffffffffffffffffffffffffffffffffffff1614610ad5576040517f08c379a0000000000000000000000000000000000000000000000000000000008152600401610acc90613896565b60405180910390fd5b610adf8282612458565b5050565b6000801b610af081612444565b610af8612541565b610b0061258a565b50565b60066020528060005260406000206000915054906101000a900460ff1681565b60606003805480602002602001604051908101604052809291908181526020016000905b82821015610da357838290600052602060002090600702016040518061010001604052908160008201548152602001600182018054610b85906137f3565b80601f0160208091040260200160405190810160405280929190818152602001828054610bb1906137f3565b8015610bfe5780601f10610bd357610100808354040283529160200191610bfe565b820191906000526020600020905b815481529060010190602001808311610be157829003601f168201915b50505050508152602001600282018054610c17906137f3565b80601f0160208091040260200160405190810160405280929190818152602001828054610c43906137f3565b8015610c905780601f10610c6557610100808354040283529160200191610c90565b820191906000526020600020905b815481529060010190602001808311610c7357829003601f168201915b505050505081526020016003820160009054906101000a900460ff166001811115610cbe57610cbd612dcc565b5b6001811115610cd057610ccf612dcc565b5b81526020016003820160019054906101000a900473ffffffffffffffffffffffffffffffffffffffff1673ffffffffffffffffffffffffffffffffffffffff1673ffffffffffffffffffffffffffffffffffffffff1681526020016004820160009054906101000a900473ffffffffffffffffffffffffffffffffffffffff1673ffffffffffffffffffffffffffffffffffffffff1673ffffffffffffffffffffffffffffffffffffffff1681526020016005820154815260200160068201548152505081526020019060010190610b47565b50505050905090565b6060600560008373ffffffffffffffffffffffffffffffffffffffff1673ffffffffffffffffffffffffffffffffffffffff168152602001908152602001600020805480602002602001604051908101604052809291908181526020018280548015610e3757602002820191906000526020600020905b815481526020019060010190808311610e23575b50505050509050919050565b7f73fd536265c26e6e13263018bc9d82a9b962a7857ae70dac847fd743f5e7153581565b610e6f61293d565b600082118015610e8457506003805490508211155b610ec3576040517f08c379a0000000000000000000000000000000000000000000000000000000008152600401610eba90613902565b60405180910390fd5b6003600183610ed29190613951565b81548110610ee357610ee2613985565b5b90600052602060002090600702016040518061010001604052908160008201548152602001600182018054610f17906137f3565b80601f0160208091040260200160405190810160405280929190818152602001828054610f43906137f3565b8015610f905780601f10610f6557610100808354040283529160200191610f90565b820191906000526020600020905b815481529060010190602001808311610f7357829003601f168201915b50505050508152602001600282018054610fa9906137f3565b80601f0160208091040260200160405190810160405280929190818152602001828054610fd5906137f3565b80156110225780601f10610ff757610100808354040283529160200191611022565b820191906000526020600020905b81548152906001019060200180831161100557829003601f168201915b505050505081526020016003820160009054906101000a900460ff1660018111156110505761104f612dcc565b5b600181111561106257611061612dcc565b5b81526020016003820160019054906101000a900473ffffffffffffffffffffffffffffffffffffffff1673ffffffffffffffffffffffffffffffffffffffff1673ffffffffffffffffffffffffffffffffffffffff1681526020016004820160009054906101000a900473ffffffffffffffffffffffffffffffffffffffff1673ffffffffffffffffffffffffffffffffffffffff1673ffffffffffffffffffffffffffffffffffffffff168152602001600582015481526020016006820154815250509050919050565b6000600160009054906101000a900460ff16905090565b6000801b61115181612444565b61115961231a565b6111666000801b83612364565b8173ffffffffffffffffffffffffffffffffffffffff167f2dbe9fb88463d989acccabbb6ee06901f83672eb78e04a11ff48dd8f69a27cda60405160405180910390a25050565b600060086000815481106111c4576111c3613985565b5b9060005260206000200160009054906101000a900473ffffffffffffffffffffffffffffffffffffffff16905090565b600c5481565b600a60009054906101000a900473ffffffffffffffffffffffffffffffffffffffff1681565b6000801b61122d81612444565b61123561231a565b61123d6125ed565b50565b6060600460008373ffffffffffffffffffffffffffffffffffffffff1673ffffffffffffffffffffffffffffffffffffffff1681526020019081526020016000208054806020026020016040519081016040528092919081815260200182805480156112cb57602002820191906000526020600020905b8154815260200190600101908083116112b7575b50505050509050919050565b600080600084815260200190815260200160002060000160008373ffffffffffffffffffffffffffffffffffffffff1673ffffffffffffffffffffffffffffffffffffffff16815260200190815260200160002060009054906101000a900460ff16905092915050565b600960009054906101000a900473ffffffffffffffffffffffffffffffffffffffff1681565b600b5481565b6000801b81565b6000801b61138181612444565b6000600660008473ffffffffffffffffffffffffffffffffffffffff1673ffffffffffffffffffffffffffffffffffffffff16815260200190815260200160002060006101000a81548160ff0219169083151502179055505050565b600073ffffffffffffffffffffffffffffffffffffffff168373ffffffffffffffffffffffffffffffffffffffff160361144c576040517f08c379a000000000000000000000000000000000000000000000000000000000815260040161144390613a26565b60405180910390fd5b6000825111611490576040517f08c379a000000000000000000000000000000000000000000000000000000000815260040161148790613a92565b60405180910390fd5b600081116114d3576040517f08c379a00000000000000000000000000000000000000000000000000000000081526004016114ca90613b24565b60405180910390fd5b3373ffffffffffffffffffffffffffffffffffffffff168373ffffffffffffffffffffffffffffffffffffffff1603611541576040517f08c379a000000000000000000000000000000000000000000000000000000000815260040161153890613bb6565b60405180910390fd5b6000805b83518110156115875783818151811061156157611560613985565b5b602002602001015160200151826115789190613bd6565b91508080600101915050611545565b5060648111156115cc576040517f08c379a00000000000000000000000000000000000000000000000000000000081526004016115c390613c7c565b60405180910390fd5b600060405180610100016040528060025481526020018881526020018781526020016000600181111561160257611601612dcc565b5b81526020013373ffffffffffffffffffffffffffffffffffffffff1681526020018673ffffffffffffffffffffffffffffffffffffffff1681526020018481526020016000815250905060005b845181101561171657600760006002548152602001908152602001600020604051806040016040528087848151811061168b5761168a613985565b5b60200260200101516000015181526020018784815181106116af576116ae613985565b5b602002602001015160200151815250908060018154018082558091505060019003906000526020600020906002020160009091909190915060008201518160000190816116fc9190613e48565b50602082015181600101555050808060010191505061164f565b5060038190806001815401808255809150506001900390600052602060002090600702016000909190919091506000820151816000015560208201518160010190816117629190613e48565b5060408201518160020190816117789190613e48565b5060608201518160030160006101000a81548160ff021916908360018111156117a4576117a3612dcc565b5b021790555060808201518160030160016101000a81548173ffffffffffffffffffffffffffffffffffffffff021916908373ffffffffffffffffffffffffffffffffffffffff16021790555060a08201518160040160006101000a81548173ffffffffffffffffffffffffffffffffffffffff021916908373ffffffffffffffffffffffffffffffffffffffff16021790555060c0820151816005015560e082015181600601555050600460003373ffffffffffffffffffffffffffffffffffffffff1673ffffffffffffffffffffffffffffffffffffffff1681526020019081526020016000206002549080600181540180825580915050600190039060005260206000200160009091909190915055600560008673ffffffffffffffffffffffffffffffffffffffff1673ffffffffffffffffffffffffffffffffffffffff16815260200190815260200160002060025490806001815401808255809150506001900390600052602060002001600090919091909150558473ffffffffffffffffffffffffffffffffffffffff163373ffffffffffffffffffffffffffffffffffffffff167f4969d8f058da37f5b596425a39904e9a027ac23d1865d6efd5df5a5e24eef7de6002548660405161197e929190613f1a565b60405180910390a36002600081548092919061199990613f43565b919050555050505050505050565b606060076000838152602001908152602001600020805480602002602001604051908101604052809291908181526020016000905b82821015611aaa5783829060005260206000209060020201604051806040016040529081600082018054611a0f906137f3565b80601f0160208091040260200160405190810160405280929190818152602001828054611a3b906137f3565b8015611a885780601f10611a5d57610100808354040283529160200191611a88565b820191906000526020600020905b815481529060010190602001808311611a6b57829003601f168201915b50505050508152602001600182015481525050815260200190600101906119dc565b505050509050919050565b60038181548110611ac557600080fd5b9060005260206000209060070201600091509050806000015490806001018054611aee906137f3565b80601f0160208091040260200160405190810160405280929190818152602001828054611b1a906137f3565b8015611b675780601f10611b3c57610100808354040283529160200191611b67565b820191906000526020600020905b815481529060010190602001808311611b4a57829003601f168201915b505050505090806002018054611b7c906137f3565b80601f0160208091040260200160405190810160405280929190818152602001828054611ba8906137f3565b8015611bf55780601f10611bca57610100808354040283529160200191611bf5565b820191906000526020600020905b815481529060010190602001808311611bd857829003601f168201915b5050505050908060030160009054906101000a900460ff16908060030160019054906101000a900473ffffffffffffffffffffffffffffffffffffffff16908060040160009054906101000a900473ffffffffffffffffffffffffffffffffffffffff16908060050154908060060154905088565b60025481565b600d5481565b6000801b611c8381612444565b60008410158015611c9657506103e88411155b611cd5576040517f08c379a0000000000000000000000000000000000000000000000000000000008152600401611ccc90613fd7565b60405180910390fd5b83600b8190555082600c8190555081600d8190555050505050565b611cf982610957565b611d0281612444565b611d0c8383612458565b505050565b60088181548110611d2157600080fd5b906000526020600020016000915054906101000a900473ffffffffffffffffffffffffffffffffffffffff1681565b60046020528160005260406000208181548110611d6c57600080fd5b90600052602060002001600091509150505481565b600083118015611d9657506003805490508311155b611dd5576040517f08c379a0000000000000000000000000000000000000000000000000000000008152600401611dcc90613902565b60405180910390fd5b600660008273ffffffffffffffffffffffffffffffffffffffff1673ffffffffffffffffffffffffffffffffffffffff16815260200190815260200160002060009054906101000a900460ff16611e61576040517f08c379a0000000000000000000000000000000000000000000000000000000008152600401611e5890614043565b60405180910390fd5b60006003600185611e729190613951565b81548110611e8357611e82613985565b5b906000526020600020906007020190506000806000806000808790506103e8600b54029550620f424089870281611ebd57611ebc614063565b5b0494506103e8600c54860281611ed657611ed5614063565b5b04935083850392508489019150818173ffffffffffffffffffffffffffffffffffffffff1663dd62ed3e33306040518363ffffffff1660e01b8152600401611f1f929190614092565b602060405180830381865afa158015611f3c573d6000803e3d6000fd5b505050506040513d601f19601f82011682018060405250810190611f6091906140d0565b1015611fa1576040517f08c379a0000000000000000000000000000000000000000000000000000000008152600401611f989061416f565b60405180910390fd5b8073ffffffffffffffffffffffffffffffffffffffff166323b872dd3330856040518463ffffffff1660e01b8152600401611fde9392919061418f565b6020604051808303816000875af1158015611ffd573d6000803e3d6000fd5b505050506040513d601f19601f8201168201806040525081019061202191906141f2565b508073ffffffffffffffffffffffffffffffffffffffff1663a9059cbb8860040160009054906101000a900473ffffffffffffffffffffffffffffffffffffffff168b6040518363ffffffff1660e01b815260040161208192919061421f565b6020604051808303816000875af11580156120a0573d6000803e3d6000fd5b505050506040513d601f19601f820116820180604052508101906120c491906141f2565b508073ffffffffffffffffffffffffffffffffffffffff1663a9059cbb600960009054906101000a900473ffffffffffffffffffffffffffffffffffffffff16866040518363ffffffff1660e01b815260040161212292919061421f565b6020604051808303816000875af1158015612141573d6000803e3d6000fd5b505050506040513d601f19601f8201168201806040525081019061216591906141f2565b508073ffffffffffffffffffffffffffffffffffffffff1663a9059cbb600a60009054906101000a900473ffffffffffffffffffffffffffffffffffffffff16856040518363ffffffff1660e01b81526004016121c392919061421f565b6020604051808303816000875af11580156121e2573d6000803e3d6000fd5b505050506040513d601f19601f8201168201806040525081019061220691906141f2565b508887600601600082825401925050819055508660040160009054906101000a900473ffffffffffffffffffffffffffffffffffffffff1673ffffffffffffffffffffffffffffffffffffffff163373ffffffffffffffffffffffffffffffffffffffff167f1f004c54eef332ef6912dae8f1775c102da23bec79ccf602eaaa072938e96b678c8c60405161229c929190613f1a565b60405180910390a350505050505050505050565b60007f01ffc9a7000000000000000000000000000000000000000000000000000000007bffffffffffffffffffffffffffffffffffffffffffffffffffffffff1916827bffffffffffffffffffffffffffffffffffffffffffffffffffffffff1916149050919050565b61232261112d565b15612362576040517f08c379a000000000000000000000000000000000000000000000000000000000815260040161235990614294565b60405180910390fd5b565b61236e82826112d7565b61244057600160008084815260200190815260200160002060000160008373ffffffffffffffffffffffffffffffffffffffff1673ffffffffffffffffffffffffffffffffffffffff16815260200190815260200160002060006101000a81548160ff0219169083151502179055506123e5612539565b73ffffffffffffffffffffffffffffffffffffffff168173ffffffffffffffffffffffffffffffffffffffff16837f2f8788117e7eff1d82e926ec794901d17c78024a50270940304540a733656f0d60405160405180910390a45b5050565b61245581612450612539565b61264f565b50565b61246282826112d7565b1561253557600080600084815260200190815260200160002060000160008373ffffffffffffffffffffffffffffffffffffffff1673ffffffffffffffffffffffffffffffffffffffff16815260200190815260200160002060006101000a81548160ff0219169083151502179055506124da612539565b73ffffffffffffffffffffffffffffffffffffffff168173ffffffffffffffffffffffffffffffffffffffff16837ff6391f5c32d9c69d2a47ea670b442974b53935d1edc7fd64eb21e047a839171b60405160405180910390a45b5050565b600033905090565b61254961112d565b612588576040517f08c379a000000000000000000000000000000000000000000000000000000000815260040161257f90614300565b60405180910390fd5b565b612592612541565b6000600160006101000a81548160ff0219169083151502179055507f5db9ee0a495bf2e6ff9c91a7834c1ba4fdd244a5e8aa4e537bd38aeae4b073aa6125d6612539565b6040516125e391906131a7565b60405180910390a1565b6125f561231a565b60018060006101000a81548160ff0219169083151502179055507f62e78cea01bee320cd4e420270b5ea74000d11b0c9f74754ebdbfc544b05a258612638612539565b60405161264591906131a7565b60405180910390a1565b61265982826112d7565b6126d057612666816126d4565b6126748360001c6020612701565b6040516020016126859291906143f4565b6040516020818303038152906040526040517f08c379a00000000000000000000000000000000000000000000000000000000081526004016126c7919061442e565b60405180910390fd5b5050565b60606126fa8273ffffffffffffffffffffffffffffffffffffffff16601460ff16612701565b9050919050565b6060600060028360026127149190614450565b61271e9190613bd6565b67ffffffffffffffff811115612737576127366131cc565b5b6040519080825280601f01601f1916602001820160405280156127695781602001600182028036833780820191505090505b5090507f3000000000000000000000000000000000000000000000000000000000000000816000815181106127a1576127a0613985565b5b60200101907effffffffffffffffffffffffffffffffffffffffffffffffffffffffffffff1916908160001a9053507f78000000000000000000000000000000000000000000000000000000000000008160018151811061280557612804613985565b5b60200101907effffffffffffffffffffffffffffffffffffffffffffffffffffffffffffff1916908160001a905350600060018460026128459190614450565b61284f9190613bd6565b90505b60018111156128ef577f3031323334353637383961626364656600000000000000000000000000000000600f86166010811061289157612890613985565b5b1a60f81b8282815181106128a8576128a7613985565b5b60200101907effffffffffffffffffffffffffffffffffffffffffffffffffffffffffffff1916908160001a905350600485901c9450806128e890614492565b9050612852565b5060008414612933576040517f08c379a000000000000000000000000000000000000000000000000000000000815260040161292a90614507565b60405180910390fd5b8091505092915050565b6040518061010001604052806000815260200160608152602001606081526020016000600181111561297257612971612dcc565b5b8152602001600073ffffffffffffffffffffffffffffffffffffffff168152602001600073ffffffffffffffffffffffffffffffffffffffff16815260200160008152602001600081525090565b6000819050919050565b6129d3816129c0565b82525050565b60006020820190506129ee60008301846129ca565b92915050565b6000604051905090565b600080fd5b600080fd5b60007fffffffff0000000000000000000000000000000000000000000000000000000082169050919050565b612a3d81612a08565b8114612a4857600080fd5b50565b600081359050612a5a81612a34565b92915050565b600060208284031215612a7657612a756129fe565b5b6000612a8484828501612a4b565b91505092915050565b60008115159050919050565b612aa281612a8d565b82525050565b6000602082019050612abd6000830184612a99565b92915050565b600073ffffffffffffffffffffffffffffffffffffffff82169050919050565b6000612aee82612ac3565b9050919050565b612afe81612ae3565b8114612b0957600080fd5b50565b600081359050612b1b81612af5565b92915050565b600060208284031215612b3757612b366129fe565b5b6000612b4584828501612b0c565b91505092915050565b6000819050919050565b612b6181612b4e565b8114612b6c57600080fd5b50565b600081359050612b7e81612b58565b92915050565b600060208284031215612b9a57612b996129fe565b5b6000612ba884828501612b6f565b91505092915050565b612bba81612b4e565b82525050565b6000602082019050612bd56000830184612bb1565b92915050565b612be4816129c0565b8114612bef57600080fd5b50565b600081359050612c0181612bdb565b92915050565b60008060408385031215612c1e57612c1d6129fe565b5b6000612c2c85828601612bf2565b9250506020612c3d85828601612bf2565b9150509250929050565b600081519050919050565b600082825260208201905092915050565b60005b83811015612c81578082015181840152602081019050612c66565b60008484015250505050565b6000601f19601f8301169050919050565b6000612ca982612c47565b612cb38185612c52565b9350612cc3818560208601612c63565b612ccc81612c8d565b840191505092915050565b60006040820190508181036000830152612cf18185612c9e565b9050612d0060208301846129ca565b9392505050565b60008060408385031215612d1e57612d1d6129fe565b5b6000612d2c85828601612b6f565b9250506020612d3d85828601612b0c565b9150509250929050565b600081519050919050565b600082825260208201905092915050565b6000819050602082019050919050565b612d7c816129c0565b82525050565b600082825260208201905092915050565b6000612d9e82612c47565b612da88185612d82565b9350612db8818560208601612c63565b612dc181612c8d565b840191505092915050565b7f4e487b7100000000000000000000000000000000000000000000000000000000600052602160045260246000fd5b60028110612e0c57612e0b612dcc565b5b50565b6000819050612e1d82612dfb565b919050565b6000612e2d82612e0f565b9050919050565b612e3d81612e22565b82525050565b612e4c81612ae3565b82525050565b600061010083016000830151612e6b6000860182612d73565b5060208301518482036020860152612e838282612d93565b91505060408301518482036040860152612e9d8282612d93565b9150506060830151612eb26060860182612e34565b506080830151612ec56080860182612e43565b5060a0830151612ed860a0860182612e43565b5060c0830151612eeb60c0860182612d73565b5060e0830151612efe60e0860182612d73565b508091505092915050565b6000612f158383612e52565b905092915050565b6000602082019050919050565b6000612f3582612d47565b612f3f8185612d52565b935083602082028501612f5185612d63565b8060005b85811015612f8d5784840389528151612f6e8582612f09565b9450612f7983612f1d565b925060208a01995050600181019050612f55565b50829750879550505050505092915050565b60006020820190508181036000830152612fb98184612f2a565b905092915050565b600081519050919050565b600082825260208201905092915050565b6000819050602082019050919050565b6000612ff98383612d73565b60208301905092915050565b6000602082019050919050565b600061301d82612fc1565b6130278185612fcc565b935061303283612fdd565b8060005b8381101561306357815161304a8882612fed565b975061305583613005565b925050600181019050613036565b5085935050505092915050565b6000602082019050818103600083015261308a8184613012565b905092915050565b6000602082840312156130a8576130a76129fe565b5b60006130b684828501612bf2565b91505092915050565b6000610100830160008301516130d86000860182612d73565b50602083015184820360208601526130f08282612d93565b9150506040830151848203604086015261310a8282612d93565b915050606083015161311f6060860182612e34565b5060808301516131326080860182612e43565b5060a083015161314560a0860182612e43565b5060c083015161315860c0860182612d73565b5060e083015161316b60e0860182612d73565b508091505092915050565b6000602082019050818103600083015261319081846130bf565b905092915050565b6131a181612ae3565b82525050565b60006020820190506131bc6000830184613198565b92915050565b600080fd5b600080fd5b7f4e487b7100000000000000000000000000000000000000000000000000000000600052604160045260246000fd5b61320482612c8d565b810181811067ffffffffffffffff82111715613223576132226131cc565b5b80604052505050565b60006132366129f4565b905061324282826131fb565b919050565b600067ffffffffffffffff821115613262576132616131cc565b5b61326b82612c8d565b9050602081019050919050565b82818337600083830152505050565b600061329a61329584613247565b61322c565b9050828152602081018484840111156132b6576132b56131c7565b5b6132c1848285613278565b509392505050565b600082601f8301126132de576132dd6131c2565b5b81356132ee848260208601613287565b91505092915050565b600067ffffffffffffffff821115613312576133116131cc565b5b602082029050602081019050919050565b600080fd5b600080fd5b600080fd5b60006040828403121561334857613347613328565b5b613352604061322c565b9050600082013567ffffffffffffffff8111156133725761337161332d565b5b61337e848285016132c9565b600083015250602061339284828501612bf2565b60208301525092915050565b60006133b16133ac846132f7565b61322c565b905080838252602082019050602084028301858111156133d4576133d3613323565b5b835b8181101561341b57803567ffffffffffffffff8111156133f9576133f86131c2565b5b8086016134068982613332565b855260208501945050506020810190506133d6565b5050509392505050565b600082601f83011261343a576134396131c2565b5b813561344a84826020860161339e565b91505092915050565b600080600080600060a0868803121561346f5761346e6129fe565b5b600086013567ffffffffffffffff81111561348d5761348c612a03565b5b613499888289016132c9565b955050602086013567ffffffffffffffff8111156134ba576134b9612a03565b5b6134c6888289016132c9565b94505060406134d788828901612b0c565b935050606086013567ffffffffffffffff8111156134f8576134f7612a03565b5b61350488828901613425565b925050608061351588828901612bf2565b9150509295509295909350565b600081519050919050565b600082825260208201905092915050565b6000819050602082019050919050565b6000604083016000830151848203600086015261356b8282612d93565b91505060208301516135806020860182612d73565b508091505092915050565b6000613597838361354e565b905092915050565b6000602082019050919050565b60006135b782613522565b6135c1818561352d565b9350836020820285016135d38561353e565b8060005b8581101561360f57848403895281516135f0858261358b565b94506135fb8361359f565b925060208a019950506001810190506135d7565b50829750879550505050505092915050565b6000602082019050818103600083015261363b81846135ac565b905092915050565b61364c81612e22565b82525050565b600061010082019050613668600083018b6129ca565b818103602083015261367a818a612c9e565b9050818103604083015261368e8189612c9e565b905061369d6060830188613643565b6136aa6080830187613198565b6136b760a0830186613198565b6136c460c08301856129ca565b6136d160e08301846129ca565b9998505050505050505050565b6000806000606084860312156136f7576136f66129fe565b5b600061370586828701612bf2565b935050602061371686828701612bf2565b925050604061372786828701612bf2565b9150509250925092565b60008060408385031215613748576137476129fe565b5b600061375685828601612b0c565b925050602061376785828601612bf2565b9150509250929050565b60008060006060848603121561378a576137896129fe565b5b600061379886828701612bf2565b93505060206137a986828701612bf2565b92505060406137ba86828701612b0c565b9150509250925092565b7f4e487b7100000000000000000000000000000000000000000000000000000000600052602260045260246000fd5b6000600282049050600182168061380b57607f821691505b60208210810361381e5761381d6137c4565b5b50919050565b7f416363657373436f6e74726f6c3a2063616e206f6e6c792072656e6f756e636560008201527f20726f6c657320666f722073656c660000000000000000000000000000000000602082015250565b6000613880602f83612c52565b915061388b82613824565b604082019050919050565b600060208201905081810360008301526138af81613873565b9050919050565b7f496e76616c69642061677265656d656e74204944000000000000000000000000600082015250565b60006138ec601483612c52565b91506138f7826138b6565b602082019050919050565b6000602082019050818103600083015261391b816138df565b9050919050565b7f4e487b7100000000000000000000000000000000000000000000000000000000600052601160045260246000fd5b600061395c826129c0565b9150613967836129c0565b925082820390508181111561397f5761397e613922565b5b92915050565b7f4e487b7100000000000000000000000000000000000000000000000000000000600052603260045260246000fd5b7f50726f66657373696f6e616c20616464726573732063616e6e6f74206265207a60008201527f65726f0000000000000000000000000000000000000000000000000000000000602082015250565b6000613a10602383612c52565b9150613a1b826139b4565b604082019050919050565b60006020820190508181036000830152613a3f81613a03565b9050919050565b7f536b696c6c73206d757374206e6f7420626520656d7074790000000000000000600082015250565b6000613a7c601883612c52565b9150613a8782613a46565b602082019050919050565b60006020820190508181036000830152613aab81613a6f565b9050919050565b7f5061796d656e7420616d6f756e74206d7573742062652067726561746572207460008201527f68616e207a65726f000000000000000000000000000000000000000000000000602082015250565b6000613b0e602883612c52565b9150613b1982613ab2565b604082019050919050565b60006020820190508181036000830152613b3d81613b01565b9050919050565b7f50726f66657373696f6e616c20616464726573732063616e6e6f74206265207460008201527f68652073616d6520617320636f6d70616e790000000000000000000000000000602082015250565b6000613ba0603283612c52565b9150613bab82613b44565b604082019050919050565b60006020820190508181036000830152613bcf81613b93565b9050919050565b6000613be1826129c0565b9150613bec836129c0565b9250828201905080821115613c0457613c03613922565b5b92915050565b7f546f74616c20736b696c6c206c6576656c2063616e6e6f74206578636565642060008201527f3130300000000000000000000000000000000000000000000000000000000000602082015250565b6000613c66602383612c52565b9150613c7182613c0a565b604082019050919050565b60006020820190508181036000830152613c9581613c59565b9050919050565b60008190508160005260206000209050919050565b60006020601f8301049050919050565b600082821b905092915050565b600060088302613cfe7fffffffffffffffffffffffffffffffffffffffffffffffffffffffffffffffff82613cc1565b613d088683613cc1565b95508019841693508086168417925050509392505050565b6000819050919050565b6000613d45613d40613d3b846129c0565b613d20565b6129c0565b9050919050565b6000819050919050565b613d5f83613d2a565b613d73613d6b82613d4c565b848454613cce565b825550505050565b600090565b613d88613d7b565b613d93818484613d56565b505050565b5b81811015613db757613dac600082613d80565b600181019050613d99565b5050565b601f821115613dfc57613dcd81613c9c565b613dd684613cb1565b81016020851015613de5578190505b613df9613df185613cb1565b830182613d98565b50505b505050565b600082821c905092915050565b6000613e1f60001984600802613e01565b1980831691505092915050565b6000613e388383613e0e565b9150826002028217905092915050565b613e5182612c47565b67ffffffffffffffff811115613e6a57613e696131cc565b5b613e7482546137f3565b613e7f828285613dbb565b600060209050601f831160018114613eb25760008415613ea0578287015190505b613eaa8582613e2c565b865550613f12565b601f198416613ec086613c9c565b60005b82811015613ee857848901518255600182019150602085019450602081019050613ec3565b86831015613f055784890151613f01601f891682613e0e565b8355505b6001600288020188555050505b505050505050565b6000604082019050613f2f60008301856129ca565b613f3c60208301846129ca565b9392505050565b6000613f4e826129c0565b91507fffffffffffffffffffffffffffffffffffffffffffffffffffffffffffffffff8203613f8057613f7f613922565b5b600182019050919050565b7f496e76616c6964206665652070657263656e7461676500000000000000000000600082015250565b6000613fc1601683612c52565b9150613fcc82613f8b565b602082019050919050565b60006020820190508181036000830152613ff081613fb4565b9050919050565b7f496e76616c6964207061796d656e7420746f6b656e0000000000000000000000600082015250565b600061402d601583612c52565b915061403882613ff7565b602082019050919050565b6000602082019050818103600083015261405c81614020565b9050919050565b7f4e487b7100000000000000000000000000000000000000000000000000000000600052601260045260246000fd5b60006040820190506140a76000830185613198565b6140b46020830184613198565b9392505050565b6000815190506140ca81612bdb565b92915050565b6000602082840312156140e6576140e56129fe565b5b60006140f4848285016140bb565b91505092915050565b7f55736572206d75737420617070726f76652074686520616d6f756e74206f662060008201527f7468652061677265656d656e7400000000000000000000000000000000000000602082015250565b6000614159602d83612c52565b9150614164826140fd565b604082019050919050565b600060208201905081810360008301526141888161414c565b9050919050565b60006060820190506141a46000830186613198565b6141b16020830185613198565b6141be60408301846129ca565b949350505050565b6141cf81612a8d565b81146141da57600080fd5b50565b6000815190506141ec816141c6565b92915050565b600060208284031215614208576142076129fe565b5b6000614216848285016141dd565b91505092915050565b60006040820190506142346000830185613198565b61424160208301846129ca565b9392505050565b7f5061757361626c653a2070617573656400000000000000000000000000000000600082015250565b600061427e601083612c52565b915061428982614248565b602082019050919050565b600060208201905081810360008301526142ad81614271565b9050919050565b7f5061757361626c653a206e6f7420706175736564000000000000000000000000600082015250565b60006142ea601483612c52565b91506142f5826142b4565b602082019050919050565b60006020820190508181036000830152614319816142dd565b9050919050565b600081905092915050565b7f416363657373436f6e74726f6c3a206163636f756e7420000000000000000000600082015250565b6000614361601783614320565b915061436c8261432b565b601782019050919050565b600061438282612c47565b61438c8185614320565b935061439c818560208601612c63565b80840191505092915050565b7f206973206d697373696e6720726f6c6520000000000000000000000000000000600082015250565b60006143de601183614320565b91506143e9826143a8565b601182019050919050565b60006143ff82614354565b915061440b8285614377565b9150614416826143d1565b91506144228284614377565b91508190509392505050565b600060208201905081810360008301526144488184612c9e565b905092915050565b600061445b826129c0565b9150614466836129c0565b9250828202614474816129c0565b9150828204841483151761448b5761448a613922565b5b5092915050565b600061449d826129c0565b9150600082036144b0576144af613922565b5b600182039050919050565b7f537472696e67733a20686578206c656e67746820696e73756666696369656e74600082015250565b60006144f1602083612c52565b91506144fc826144bb565b602082019050919050565b60006020820190508181036000830152614520816144e4565b905091905056fea264697066735822122050f3f66f2f28ba86293d2e200ec9fd2c6d0c8d7923679c143e04bc265b8e3c7d64736f6c63430008170033",
  "linkReferences": {},
  "deployedLinkReferences": {}
}