{
  "_format": "hh-sol-artifact-1",
  "contractName": "KyodoRegistry",
  "sourceName": "contracts/KyodoRegistry.sol",
  "abi": [
    {
      "inputs": [
        {
          "internalType": "address",
          "name": "admin",
          "type": "address"
        }
      ],
      "stateMutability": "nonpayable",
      "type": "constructor"
    },
    {
      "anonymous": false,
      "inputs": [
        {
          "indexed": true,
          "internalType": "address",
          "name": "new_admin",
          "type": "address"
        }
      ],
      "name": "NewAdminAdded",
      "type": "event"
    },
    {
      "anonymous": false,
      "inputs": [
        {
          "indexed": true,
          "internalType": "address",
          "name": "profile",
          "type": "address"
        }
      ],
      "name": "NewProfileAdded",
      "type": "event"
    },
    {
      "anonymous": false,
      "inputs": [
        {
          "indexed": false,
          "internalType": "address",
          "name": "account",
          "type": "address"
        }
      ],
      "name": "Paused",
      "type": "event"
    },
    {
      "anonymous": false,
      "inputs": [
        {
          "indexed": true,
          "internalType": "bytes32",
          "name": "key",
          "type": "bytes32"
        },
        {
          "indexed": false,
          "internalType": "address",
          "name": "value",
          "type": "address"
        },
        {
          "indexed": false,
          "internalType": "uint256",
          "name": "blockNumber",
          "type": "uint256"
        }
      ],
      "name": "RegistryCreated",
      "type": "event"
    },
    {
      "anonymous": false,
      "inputs": [
        {
          "indexed": true,
          "internalType": "bytes32",
          "name": "key",
          "type": "bytes32"
        },
        {
          "indexed": false,
          "internalType": "address",
          "name": "value",
          "type": "address"
        },
        {
          "indexed": false,
          "internalType": "uint256",
          "name": "blockNumber",
          "type": "uint256"
        }
      ],
      "name": "RegistryUpdated",
      "type": "event"
    },
    {
      "anonymous": false,
      "inputs": [
        {
          "indexed": true,
          "internalType": "address",
          "name": "removed_admin",
          "type": "address"
        }
      ],
      "name": "RemovedAdmin",
      "type": "event"
    },
    {
      "anonymous": false,
      "inputs": [
        {
          "indexed": true,
          "internalType": "bytes32",
          "name": "role",
          "type": "bytes32"
        },
        {
          "indexed": true,
          "internalType": "bytes32",
          "name": "previousAdminRole",
          "type": "bytes32"
        },
        {
          "indexed": true,
          "internalType": "bytes32",
          "name": "newAdminRole",
          "type": "bytes32"
        }
      ],
      "name": "RoleAdminChanged",
      "type": "event"
    },
    {
      "anonymous": false,
      "inputs": [
        {
          "indexed": true,
          "internalType": "bytes32",
          "name": "role",
          "type": "bytes32"
        },
        {
          "indexed": true,
          "internalType": "address",
          "name": "account",
          "type": "address"
        },
        {
          "indexed": true,
          "internalType": "address",
          "name": "sender",
          "type": "address"
        }
      ],
      "name": "RoleGranted",
      "type": "event"
    },
    {
      "anonymous": false,
      "inputs": [
        {
          "indexed": true,
          "internalType": "bytes32",
          "name": "role",
          "type": "bytes32"
        },
        {
          "indexed": true,
          "internalType": "address",
          "name": "account",
          "type": "address"
        },
        {
          "indexed": true,
          "internalType": "address",
          "name": "sender",
          "type": "address"
        }
      ],
      "name": "RoleRevoked",
      "type": "event"
    },
    {
      "anonymous": false,
      "inputs": [
        {
          "indexed": false,
          "internalType": "address",
          "name": "account",
          "type": "address"
        }
      ],
      "name": "Unpaused",
      "type": "event"
    },
    {
      "inputs": [],
      "name": "CHANGE_PARAMETERS",
      "outputs": [
        {
          "internalType": "bytes32",
          "name": "",
          "type": "bytes32"
        }
      ],
      "stateMutability": "view",
      "type": "function"
    },
    {
      "inputs": [],
      "name": "DEFAULT_ADMIN_ROLE",
      "outputs": [
        {
          "internalType": "bytes32",
          "name": "",
          "type": "bytes32"
        }
      ],
      "stateMutability": "view",
      "type": "function"
    },
    {
      "inputs": [
        {
          "internalType": "address",
          "name": "account",
          "type": "address"
        }
      ],
      "name": "addAdmin",
      "outputs": [],
      "stateMutability": "nonpayable",
      "type": "function"
    },
    {
      "inputs": [
        {
          "internalType": "address",
          "name": "account",
          "type": "address"
        }
      ],
      "name": "addProfile",
      "outputs": [],
      "stateMutability": "nonpayable",
      "type": "function"
    },
    {
      "inputs": [
        {
          "internalType": "string",
          "name": "registry",
          "type": "string"
        },
        {
          "internalType": "address",
          "name": "value",
          "type": "address"
        },
        {
          "internalType": "uint256",
          "name": "blockNumber",
          "type": "uint256"
        }
      ],
      "name": "createRegistry",
      "outputs": [],
      "stateMutability": "nonpayable",
      "type": "function"
    },
    {
      "inputs": [
        {
          "internalType": "string",
          "name": "registry",
          "type": "string"
        }
      ],
      "name": "getBlockDeployment",
      "outputs": [
        {
          "internalType": "uint256",
          "name": "",
          "type": "uint256"
        }
      ],
      "stateMutability": "view",
      "type": "function"
    },
    {
      "inputs": [
        {
          "internalType": "string",
          "name": "registry",
          "type": "string"
        }
      ],
      "name": "getRegistry",
      "outputs": [
        {
          "internalType": "address",
          "name": "",
          "type": "address"
        }
      ],
      "stateMutability": "view",
      "type": "function"
    },
    {
      "inputs": [
        {
          "internalType": "bytes32",
          "name": "role",
          "type": "bytes32"
        }
      ],
      "name": "getRoleAdmin",
      "outputs": [
        {
          "internalType": "bytes32",
          "name": "",
          "type": "bytes32"
        }
      ],
      "stateMutability": "view",
      "type": "function"
    },
    {
      "inputs": [
        {
          "internalType": "bytes32",
          "name": "role",
          "type": "bytes32"
        },
        {
          "internalType": "address",
          "name": "account",
          "type": "address"
        }
      ],
      "name": "grantRole",
      "outputs": [],
      "stateMutability": "nonpayable",
      "type": "function"
    },
    {
      "inputs": [
        {
          "internalType": "bytes32",
          "name": "role",
          "type": "bytes32"
        },
        {
          "internalType": "address",
          "name": "account",
          "type": "address"
        }
      ],
      "name": "hasRole",
      "outputs": [
        {
          "internalType": "bool",
          "name": "",
          "type": "bool"
        }
      ],
      "stateMutability": "view",
      "type": "function"
    },
    {
      "inputs": [],
      "name": "pause",
      "outputs": [],
      "stateMutability": "nonpayable",
      "type": "function"
    },
    {
      "inputs": [],
      "name": "paused",
      "outputs": [
        {
          "internalType": "bool",
          "name": "",
          "type": "bool"
        }
      ],
      "stateMutability": "view",
      "type": "function"
    },
    {
      "inputs": [
        {
          "internalType": "address",
          "name": "account",
          "type": "address"
        }
      ],
      "name": "removeAdmin",
      "outputs": [],
      "stateMutability": "nonpayable",
      "type": "function"
    },
    {
      "inputs": [
        {
          "internalType": "bytes32",
          "name": "role",
          "type": "bytes32"
        },
        {
          "internalType": "address",
          "name": "account",
          "type": "address"
        }
      ],
      "name": "renounceRole",
      "outputs": [],
      "stateMutability": "nonpayable",
      "type": "function"
    },
    {
      "inputs": [
        {
          "internalType": "bytes32",
          "name": "role",
          "type": "bytes32"
        },
        {
          "internalType": "address",
          "name": "account",
          "type": "address"
        }
      ],
      "name": "revokeRole",
      "outputs": [],
      "stateMutability": "nonpayable",
      "type": "function"
    },
    {
      "inputs": [
        {
          "internalType": "bytes4",
          "name": "interfaceId",
          "type": "bytes4"
        }
      ],
      "name": "supportsInterface",
      "outputs": [
        {
          "internalType": "bool",
          "name": "",
          "type": "bool"
        }
      ],
      "stateMutability": "view",
      "type": "function"
    },
    {
      "inputs": [],
      "name": "unpause",
      "outputs": [],
      "stateMutability": "nonpayable",
      "type": "function"
    },
    {
      "inputs": [
        {
          "internalType": "string",
          "name": "registry",
          "type": "string"
        },
        {
          "internalType": "address",
          "name": "value",
          "type": "address"
        },
        {
          "internalType": "uint256",
          "name": "blockNumber",
          "type": "uint256"
        }
      ],
      "name": "updateRegistry",
      "outputs": [],
      "stateMutability": "nonpayable",
      "type": "function"
    }
  ],
  "bytecode": "0x60806040523480156200001157600080fd5b5060405162001eef38038062001eef83398181016040528101906200003791906200026f565b806000600160006101000a81548160ff021916908315150217905550620000686000801b82620000a260201b60201c565b6200009a7f73fd536265c26e6e13263018bc9d82a9b962a7857ae70dac847fd743f5e7153582620000a260201b60201c565b5050620002a1565b620000b482826200019360201b60201c565b6200018f57600160008084815260200190815260200160002060000160008373ffffffffffffffffffffffffffffffffffffffff1673ffffffffffffffffffffffffffffffffffffffff16815260200190815260200160002060006101000a81548160ff02191690831515021790555062000134620001fd60201b60201c565b73ffffffffffffffffffffffffffffffffffffffff168173ffffffffffffffffffffffffffffffffffffffff16837f2f8788117e7eff1d82e926ec794901d17c78024a50270940304540a733656f0d60405160405180910390a45b5050565b600080600084815260200190815260200160002060000160008373ffffffffffffffffffffffffffffffffffffffff1673ffffffffffffffffffffffffffffffffffffffff16815260200190815260200160002060009054906101000a900460ff16905092915050565b600033905090565b600080fd5b600073ffffffffffffffffffffffffffffffffffffffff82169050919050565b600062000237826200020a565b9050919050565b62000249816200022a565b81146200025557600080fd5b50565b60008151905062000269816200023e565b92915050565b60006020828403121562000288576200028762000205565b5b6000620002988482850162000258565b91505092915050565b611c3e80620002b16000396000f3fe608060405234801561001057600080fd5b50600436106101165760003560e01c8063617b291e116100a257806391d148541161007157806391d14854146102a357806392af8731146102d3578063a217fddf146102ef578063d02bca621461030d578063d547741f1461033d57610116565b8063617b291e14610231578063684cba3714610261578063704802751461027d5780638456cb591461029957610116565b80632f2ff15d116100e95780632f2ff15d146101b357806336568abe146101cf5780633f4ba83a146101eb5780634f7cd72f146101f55780635c975abb1461021357610116565b806301ffc9a71461011b57806310143a641461014b5780631785f53c14610167578063248a9ca314610183575b600080fd5b6101356004803603810190610130919061122b565b610359565b6040516101429190611273565b60405180910390f35b610165600480360381019061016091906112ec565b6103d3565b005b610181600480360381019061017c91906112ec565b61044b565b005b61019d6004803603810190610198919061134f565b6104b4565b6040516101aa919061138b565b60405180910390f35b6101cd60048036038101906101c891906113a6565b6104d3565b005b6101e960048036038101906101e491906113a6565b6104f4565b005b6101f3610577565b005b6101fd610597565b60405161020a919061138b565b60405180910390f35b61021b6105bb565b6040516102289190611273565b60405180910390f35b61024b6004803603810190610246919061152c565b6105d2565b6040516102589190611584565b60405180910390f35b61027b600480360381019061027691906115d5565b6106af565b005b610297600480360381019061029291906112ec565b61083c565b005b6102a16108a5565b005b6102bd60048036038101906102b891906113a6565b6108c5565b6040516102ca9190611273565b60405180910390f35b6102ed60048036038101906102e891906115d5565b61092f565b005b6102f7610abc565b604051610304919061138b565b60405180910390f35b6103276004803603810190610322919061152c565b610ac3565b6040516103349190611653565b60405180910390f35b610357600480360381019061035291906113a6565b610b11565b005b60007f7965db0b000000000000000000000000000000000000000000000000000000007bffffffffffffffffffffffffffffffffffffffffffffffffffffffff1916827bffffffffffffffffffffffffffffffffffffffffffffffffffffffff191614806103cc57506103cb82610b32565b5b9050919050565b6103db610b9c565b6104057f73fd536265c26e6e13263018bc9d82a9b962a7857ae70dac847fd743f5e7153582610be6565b8073ffffffffffffffffffffffffffffffffffffffff167f92364d7c14d8a26a040c77305dd885fcd5898051d1b1ead4189b09d5f091159060405160405180910390a250565b6000801b61045881610cc6565b610460610b9c565b61046d6000801b83610cda565b8173ffffffffffffffffffffffffffffffffffffffff167f3137a7fedbfedb7895dfa5a6812a4566dae9ded68d00aeec13c6ed1fa84a1c8060405160405180910390a25050565b6000806000838152602001908152602001600020600101549050919050565b6104dc826104b4565b6104e581610cc6565b6104ef8383610be6565b505050565b6104fc610dbb565b73ffffffffffffffffffffffffffffffffffffffff168173ffffffffffffffffffffffffffffffffffffffff1614610569576040517f08c379a0000000000000000000000000000000000000000000000000000000008152600401610560906116f1565b60405180910390fd5b6105738282610cda565b5050565b6000801b61058481610cc6565b61058c610dc3565b610594610e0c565b50565b7f73fd536265c26e6e13263018bc9d82a9b962a7857ae70dac847fd743f5e7153581565b6000600160009054906101000a900460ff16905090565b600080826040516020016105e69190611782565b60405160208183030381529060405280519060200120905060006002600083815260200190815260200160002060009054906101000a900473ffffffffffffffffffffffffffffffffffffffff169050600073ffffffffffffffffffffffffffffffffffffffff168173ffffffffffffffffffffffffffffffffffffffff16036106a5576040517f08c379a000000000000000000000000000000000000000000000000000000000815260040161069c906117e5565b60405180910390fd5b8092505050919050565b6000801b6106bc81610cc6565b6106c4610b9c565b6000846040516020016106d79190611782565b604051602081830303815290604052805190602001209050600073ffffffffffffffffffffffffffffffffffffffff166002600083815260200190815260200160002060009054906101000a900473ffffffffffffffffffffffffffffffffffffffff1673ffffffffffffffffffffffffffffffffffffffff1614610791576040517f08c379a000000000000000000000000000000000000000000000000000000000815260040161078890611851565b60405180910390fd5b836002600083815260200190815260200160002060006101000a81548173ffffffffffffffffffffffffffffffffffffffff021916908373ffffffffffffffffffffffffffffffffffffffff160217905550826003600083815260200190815260200160002081905550807f040ef4dd7302d3cc34516765d9720b711ad958c19d6b3c33066fe6f7a868d3ff858560405161082d929190611871565b60405180910390a25050505050565b6000801b61084981610cc6565b610851610b9c565b61085e6000801b83610be6565b8173ffffffffffffffffffffffffffffffffffffffff167f2dbe9fb88463d989acccabbb6ee06901f83672eb78e04a11ff48dd8f69a27cda60405160405180910390a25050565b6000801b6108b281610cc6565b6108ba610b9c565b6108c2610e6f565b50565b600080600084815260200190815260200160002060000160008373ffffffffffffffffffffffffffffffffffffffff1673ffffffffffffffffffffffffffffffffffffffff16815260200190815260200160002060009054906101000a900460ff16905092915050565b6000801b61093c81610cc6565b610944610b9c565b6000846040516020016109579190611782565b604051602081830303815290604052805190602001209050600073ffffffffffffffffffffffffffffffffffffffff166002600083815260200190815260200160002060009054906101000a900473ffffffffffffffffffffffffffffffffffffffff1673ffffffffffffffffffffffffffffffffffffffff1603610a11576040517f08c379a0000000000000000000000000000000000000000000000000000000008152600401610a08906117e5565b60405180910390fd5b836002600083815260200190815260200160002060006101000a81548173ffffffffffffffffffffffffffffffffffffffff021916908373ffffffffffffffffffffffffffffffffffffffff160217905550826003600083815260200190815260200160002081905550807fd1f24324b60aeffb34d2fd20a947fd6571648fc94bc4c1bf4193af3890a1d0848585604051610aad929190611871565b60405180910390a25050505050565b6000801b81565b60008082604051602001610ad79190611782565b6040516020818303038152906040528051906020012090506000600360008381526020019081526020016000205490508092505050919050565b610b1a826104b4565b610b2381610cc6565b610b2d8383610cda565b505050565b60007f01ffc9a7000000000000000000000000000000000000000000000000000000007bffffffffffffffffffffffffffffffffffffffffffffffffffffffff1916827bffffffffffffffffffffffffffffffffffffffffffffffffffffffff1916149050919050565b610ba46105bb565b15610be4576040517f08c379a0000000000000000000000000000000000000000000000000000000008152600401610bdb906118e6565b60405180910390fd5b565b610bf082826108c5565b610cc257600160008084815260200190815260200160002060000160008373ffffffffffffffffffffffffffffffffffffffff1673ffffffffffffffffffffffffffffffffffffffff16815260200190815260200160002060006101000a81548160ff021916908315150217905550610c67610dbb565b73ffffffffffffffffffffffffffffffffffffffff168173ffffffffffffffffffffffffffffffffffffffff16837f2f8788117e7eff1d82e926ec794901d17c78024a50270940304540a733656f0d60405160405180910390a45b5050565b610cd781610cd2610dbb565b610ed1565b50565b610ce482826108c5565b15610db757600080600084815260200190815260200160002060000160008373ffffffffffffffffffffffffffffffffffffffff1673ffffffffffffffffffffffffffffffffffffffff16815260200190815260200160002060006101000a81548160ff021916908315150217905550610d5c610dbb565b73ffffffffffffffffffffffffffffffffffffffff168173ffffffffffffffffffffffffffffffffffffffff16837ff6391f5c32d9c69d2a47ea670b442974b53935d1edc7fd64eb21e047a839171b60405160405180910390a45b5050565b600033905090565b610dcb6105bb565b610e0a576040517f08c379a0000000000000000000000000000000000000000000000000000000008152600401610e0190611952565b60405180910390fd5b565b610e14610dc3565b6000600160006101000a81548160ff0219169083151502179055507f5db9ee0a495bf2e6ff9c91a7834c1ba4fdd244a5e8aa4e537bd38aeae4b073aa610e58610dbb565b604051610e659190611584565b60405180910390a1565b610e77610b9c565b60018060006101000a81548160ff0219169083151502179055507f62e78cea01bee320cd4e420270b5ea74000d11b0c9f74754ebdbfc544b05a258610eba610dbb565b604051610ec79190611584565b60405180910390a1565b610edb82826108c5565b610f5257610ee881610f56565b610ef68360001c6020610f83565b604051602001610f07929190611a0a565b6040516020818303038152906040526040517f08c379a0000000000000000000000000000000000000000000000000000000008152600401610f499190611a7d565b60405180910390fd5b5050565b6060610f7c8273ffffffffffffffffffffffffffffffffffffffff16601460ff16610f83565b9050919050565b606060006002836002610f969190611ace565b610fa09190611b10565b67ffffffffffffffff811115610fb957610fb8611401565b5b6040519080825280601f01601f191660200182016040528015610feb5781602001600182028036833780820191505090505b5090507f30000000000000000000000000000000000000000000000000000000000000008160008151811061102357611022611b44565b5b60200101907effffffffffffffffffffffffffffffffffffffffffffffffffffffffffffff1916908160001a9053507f78000000000000000000000000000000000000000000000000000000000000008160018151811061108757611086611b44565b5b60200101907effffffffffffffffffffffffffffffffffffffffffffffffffffffffffffff1916908160001a905350600060018460026110c79190611ace565b6110d19190611b10565b90505b6001811115611171577f3031323334353637383961626364656600000000000000000000000000000000600f86166010811061111357611112611b44565b5b1a60f81b82828151811061112a57611129611b44565b5b60200101907effffffffffffffffffffffffffffffffffffffffffffffffffffffffffffff1916908160001a905350600485901c94508061116a90611b73565b90506110d4565b50600084146111b5576040517f08c379a00000000000000000000000000000000000000000000000000000000081526004016111ac90611be8565b60405180910390fd5b8091505092915050565b6000604051905090565b600080fd5b600080fd5b60007fffffffff0000000000000000000000000000000000000000000000000000000082169050919050565b611208816111d3565b811461121357600080fd5b50565b600081359050611225816111ff565b92915050565b600060208284031215611241576112406111c9565b5b600061124f84828501611216565b91505092915050565b60008115159050919050565b61126d81611258565b82525050565b60006020820190506112886000830184611264565b92915050565b600073ffffffffffffffffffffffffffffffffffffffff82169050919050565b60006112b98261128e565b9050919050565b6112c9816112ae565b81146112d457600080fd5b50565b6000813590506112e6816112c0565b92915050565b600060208284031215611302576113016111c9565b5b6000611310848285016112d7565b91505092915050565b6000819050919050565b61132c81611319565b811461133757600080fd5b50565b60008135905061134981611323565b92915050565b600060208284031215611365576113646111c9565b5b60006113738482850161133a565b91505092915050565b61138581611319565b82525050565b60006020820190506113a0600083018461137c565b92915050565b600080604083850312156113bd576113bc6111c9565b5b60006113cb8582860161133a565b92505060206113dc858286016112d7565b9150509250929050565b600080fd5b600080fd5b6000601f19601f8301169050919050565b7f4e487b7100000000000000000000000000000000000000000000000000000000600052604160045260246000fd5b611439826113f0565b810181811067ffffffffffffffff8211171561145857611457611401565b5b80604052505050565b600061146b6111bf565b90506114778282611430565b919050565b600067ffffffffffffffff82111561149757611496611401565b5b6114a0826113f0565b9050602081019050919050565b82818337600083830152505050565b60006114cf6114ca8461147c565b611461565b9050828152602081018484840111156114eb576114ea6113eb565b5b6114f68482856114ad565b509392505050565b600082601f830112611513576115126113e6565b5b81356115238482602086016114bc565b91505092915050565b600060208284031215611542576115416111c9565b5b600082013567ffffffffffffffff8111156115605761155f6111ce565b5b61156c848285016114fe565b91505092915050565b61157e816112ae565b82525050565b60006020820190506115996000830184611575565b92915050565b6000819050919050565b6115b28161159f565b81146115bd57600080fd5b50565b6000813590506115cf816115a9565b92915050565b6000806000606084860312156115ee576115ed6111c9565b5b600084013567ffffffffffffffff81111561160c5761160b6111ce565b5b611618868287016114fe565b9350506020611629868287016112d7565b925050604061163a868287016115c0565b9150509250925092565b61164d8161159f565b82525050565b60006020820190506116686000830184611644565b92915050565b600082825260208201905092915050565b7f416363657373436f6e74726f6c3a2063616e206f6e6c792072656e6f756e636560008201527f20726f6c657320666f722073656c660000000000000000000000000000000000602082015250565b60006116db602f8361166e565b91506116e68261167f565b604082019050919050565b6000602082019050818103600083015261170a816116ce565b9050919050565b600081519050919050565b600081905092915050565b60005b8381101561174557808201518184015260208101905061172a565b60008484015250505050565b600061175c82611711565b611766818561171c565b9350611776818560208601611727565b80840191505092915050565b600061178e8284611751565b915081905092915050565b7f526567697374727920646f6573206e6f74206578697374730000000000000000600082015250565b60006117cf60188361166e565b91506117da82611799565b602082019050919050565b600060208201905081810360008301526117fe816117c2565b9050919050565b7f54686520726567697374727920616c7265616479206578697374730000000000600082015250565b600061183b601b8361166e565b915061184682611805565b602082019050919050565b6000602082019050818103600083015261186a8161182e565b9050919050565b60006040820190506118866000830185611575565b6118936020830184611644565b9392505050565b7f5061757361626c653a2070617573656400000000000000000000000000000000600082015250565b60006118d060108361166e565b91506118db8261189a565b602082019050919050565b600060208201905081810360008301526118ff816118c3565b9050919050565b7f5061757361626c653a206e6f7420706175736564000000000000000000000000600082015250565b600061193c60148361166e565b915061194782611906565b602082019050919050565b6000602082019050818103600083015261196b8161192f565b9050919050565b7f416363657373436f6e74726f6c3a206163636f756e7420000000000000000000600082015250565b60006119a860178361171c565b91506119b382611972565b601782019050919050565b7f206973206d697373696e6720726f6c6520000000000000000000000000000000600082015250565b60006119f460118361171c565b91506119ff826119be565b601182019050919050565b6000611a158261199b565b9150611a218285611751565b9150611a2c826119e7565b9150611a388284611751565b91508190509392505050565b6000611a4f82611711565b611a59818561166e565b9350611a69818560208601611727565b611a72816113f0565b840191505092915050565b60006020820190508181036000830152611a978184611a44565b905092915050565b7f4e487b7100000000000000000000000000000000000000000000000000000000600052601160045260246000fd5b6000611ad98261159f565b9150611ae48361159f565b9250828202611af28161159f565b91508282048414831517611b0957611b08611a9f565b5b5092915050565b6000611b1b8261159f565b9150611b268361159f565b9250828201905080821115611b3e57611b3d611a9f565b5b92915050565b7f4e487b7100000000000000000000000000000000000000000000000000000000600052603260045260246000fd5b6000611b7e8261159f565b915060008203611b9157611b90611a9f565b5b600182039050919050565b7f537472696e67733a20686578206c656e67746820696e73756666696369656e74600082015250565b6000611bd260208361166e565b9150611bdd82611b9c565b602082019050919050565b60006020820190508181036000830152611c0181611bc5565b905091905056fea264697066735822122038d6ba1ee1062235011f4b452341a4f4a6178eac256ee17a906241654e8c2cf864736f6c63430008170033",
  "linkReferences": {},
  "deployedLinkReferences": {}
}