{
  "_format": "hh-sol-artifact-1",
  "contractName": "KyodoRegistry",
  "sourceName": "contracts/KyodoRegistry.sol",
  "abi": [
    {
      "inputs": [
        {
          "internalType": "address",
          "name": "admin",
          "type": "address"
        }
      ],
      "stateMutability": "nonpayable",
      "type": "constructor"
    },
    {
      "anonymous": false,
      "inputs": [
        {
          "indexed": true,
          "internalType": "address",
          "name": "new_admin",
          "type": "address"
        }
      ],
      "name": "NewAdminAdded",
      "type": "event"
    },
    {
      "anonymous": false,
      "inputs": [
        {
          "indexed": true,
          "internalType": "address",
          "name": "profile",
          "type": "address"
        }
      ],
      "name": "NewProfileAdded",
      "type": "event"
    },
    {
      "anonymous": false,
      "inputs": [
        {
          "indexed": false,
          "internalType": "address",
          "name": "account",
          "type": "address"
        }
      ],
      "name": "Paused",
      "type": "event"
    },
    {
      "anonymous": false,
      "inputs": [
        {
          "indexed": true,
          "internalType": "bytes32",
          "name": "key",
          "type": "bytes32"
        },
        {
          "indexed": false,
          "internalType": "address",
          "name": "value",
          "type": "address"
        }
      ],
      "name": "RegistryCreated",
      "type": "event"
    },
    {
      "anonymous": false,
      "inputs": [
        {
          "indexed": true,
          "internalType": "bytes32",
          "name": "key",
          "type": "bytes32"
        },
        {
          "indexed": false,
          "internalType": "address",
          "name": "value",
          "type": "address"
        }
      ],
      "name": "RegistryUpdated",
      "type": "event"
    },
    {
      "anonymous": false,
      "inputs": [
        {
          "indexed": true,
          "internalType": "address",
          "name": "removed_admin",
          "type": "address"
        }
      ],
      "name": "RemovedAdmin",
      "type": "event"
    },
    {
      "anonymous": false,
      "inputs": [
        {
          "indexed": true,
          "internalType": "bytes32",
          "name": "role",
          "type": "bytes32"
        },
        {
          "indexed": true,
          "internalType": "bytes32",
          "name": "previousAdminRole",
          "type": "bytes32"
        },
        {
          "indexed": true,
          "internalType": "bytes32",
          "name": "newAdminRole",
          "type": "bytes32"
        }
      ],
      "name": "RoleAdminChanged",
      "type": "event"
    },
    {
      "anonymous": false,
      "inputs": [
        {
          "indexed": true,
          "internalType": "bytes32",
          "name": "role",
          "type": "bytes32"
        },
        {
          "indexed": true,
          "internalType": "address",
          "name": "account",
          "type": "address"
        },
        {
          "indexed": true,
          "internalType": "address",
          "name": "sender",
          "type": "address"
        }
      ],
      "name": "RoleGranted",
      "type": "event"
    },
    {
      "anonymous": false,
      "inputs": [
        {
          "indexed": true,
          "internalType": "bytes32",
          "name": "role",
          "type": "bytes32"
        },
        {
          "indexed": true,
          "internalType": "address",
          "name": "account",
          "type": "address"
        },
        {
          "indexed": true,
          "internalType": "address",
          "name": "sender",
          "type": "address"
        }
      ],
      "name": "RoleRevoked",
      "type": "event"
    },
    {
      "anonymous": false,
      "inputs": [
        {
          "indexed": false,
          "internalType": "address",
          "name": "account",
          "type": "address"
        }
      ],
      "name": "Unpaused",
      "type": "event"
    },
    {
      "inputs": [],
      "name": "CHANGE_PARAMETERS",
      "outputs": [
        {
          "internalType": "bytes32",
          "name": "",
          "type": "bytes32"
        }
      ],
      "stateMutability": "view",
      "type": "function"
    },
    {
      "inputs": [],
      "name": "DEFAULT_ADMIN_ROLE",
      "outputs": [
        {
          "internalType": "bytes32",
          "name": "",
          "type": "bytes32"
        }
      ],
      "stateMutability": "view",
      "type": "function"
    },
    {
      "inputs": [
        {
          "internalType": "address",
          "name": "account",
          "type": "address"
        }
      ],
      "name": "addAdmin",
      "outputs": [],
      "stateMutability": "nonpayable",
      "type": "function"
    },
    {
      "inputs": [
        {
          "internalType": "address",
          "name": "account",
          "type": "address"
        }
      ],
      "name": "addProfile",
      "outputs": [],
      "stateMutability": "nonpayable",
      "type": "function"
    },
    {
      "inputs": [
        {
          "internalType": "string",
          "name": "registry",
          "type": "string"
        },
        {
          "internalType": "address",
          "name": "value",
          "type": "address"
        }
      ],
      "name": "createRegistry",
      "outputs": [],
      "stateMutability": "nonpayable",
      "type": "function"
    },
    {
      "inputs": [
        {
          "internalType": "string",
          "name": "registry",
          "type": "string"
        }
      ],
      "name": "getRegistry",
      "outputs": [
        {
          "internalType": "address",
          "name": "",
          "type": "address"
        }
      ],
      "stateMutability": "view",
      "type": "function"
    },
    {
      "inputs": [
        {
          "internalType": "bytes32",
          "name": "role",
          "type": "bytes32"
        }
      ],
      "name": "getRoleAdmin",
      "outputs": [
        {
          "internalType": "bytes32",
          "name": "",
          "type": "bytes32"
        }
      ],
      "stateMutability": "view",
      "type": "function"
    },
    {
      "inputs": [
        {
          "internalType": "bytes32",
          "name": "role",
          "type": "bytes32"
        },
        {
          "internalType": "address",
          "name": "account",
          "type": "address"
        }
      ],
      "name": "grantRole",
      "outputs": [],
      "stateMutability": "nonpayable",
      "type": "function"
    },
    {
      "inputs": [
        {
          "internalType": "bytes32",
          "name": "role",
          "type": "bytes32"
        },
        {
          "internalType": "address",
          "name": "account",
          "type": "address"
        }
      ],
      "name": "hasRole",
      "outputs": [
        {
          "internalType": "bool",
          "name": "",
          "type": "bool"
        }
      ],
      "stateMutability": "view",
      "type": "function"
    },
    {
      "inputs": [],
      "name": "pause",
      "outputs": [],
      "stateMutability": "nonpayable",
      "type": "function"
    },
    {
      "inputs": [],
      "name": "paused",
      "outputs": [
        {
          "internalType": "bool",
          "name": "",
          "type": "bool"
        }
      ],
      "stateMutability": "view",
      "type": "function"
    },
    {
      "inputs": [
        {
          "internalType": "address",
          "name": "account",
          "type": "address"
        }
      ],
      "name": "removeAdmin",
      "outputs": [],
      "stateMutability": "nonpayable",
      "type": "function"
    },
    {
      "inputs": [
        {
          "internalType": "bytes32",
          "name": "role",
          "type": "bytes32"
        },
        {
          "internalType": "address",
          "name": "account",
          "type": "address"
        }
      ],
      "name": "renounceRole",
      "outputs": [],
      "stateMutability": "nonpayable",
      "type": "function"
    },
    {
      "inputs": [
        {
          "internalType": "bytes32",
          "name": "role",
          "type": "bytes32"
        },
        {
          "internalType": "address",
          "name": "account",
          "type": "address"
        }
      ],
      "name": "revokeRole",
      "outputs": [],
      "stateMutability": "nonpayable",
      "type": "function"
    },
    {
      "inputs": [
        {
          "internalType": "bytes4",
          "name": "interfaceId",
          "type": "bytes4"
        }
      ],
      "name": "supportsInterface",
      "outputs": [
        {
          "internalType": "bool",
          "name": "",
          "type": "bool"
        }
      ],
      "stateMutability": "view",
      "type": "function"
    },
    {
      "inputs": [],
      "name": "unpause",
      "outputs": [],
      "stateMutability": "nonpayable",
      "type": "function"
    },
    {
      "inputs": [
        {
          "internalType": "string",
          "name": "registry",
          "type": "string"
        },
        {
          "internalType": "address",
          "name": "value",
          "type": "address"
        }
      ],
      "name": "updateRegistry",
      "outputs": [],
      "stateMutability": "nonpayable",
      "type": "function"
    }
  ],
  "bytecode": "0x60806040523480156200001157600080fd5b506040516200203038038062002030833981810160405281019062000037919062000232565b806000600160006101000a81548160ff021916908315150217905550620000686000801b82620000a260201b60201c565b6200009a7f73fd536265c26e6e13263018bc9d82a9b962a7857ae70dac847fd743f5e7153582620000a260201b60201c565b5050620002ac565b620000b48282620000b860201b60201c565b5050565b620000ca8282620001a960201b60201c565b620001a557600160008084815260200190815260200160002060000160008373ffffffffffffffffffffffffffffffffffffffff1673ffffffffffffffffffffffffffffffffffffffff16815260200190815260200160002060006101000a81548160ff0219169083151502179055506200014a6200021360201b60201c565b73ffffffffffffffffffffffffffffffffffffffff168173ffffffffffffffffffffffffffffffffffffffff16837f2f8788117e7eff1d82e926ec794901d17c78024a50270940304540a733656f0d60405160405180910390a45b5050565b600080600084815260200190815260200160002060000160008373ffffffffffffffffffffffffffffffffffffffff1673ffffffffffffffffffffffffffffffffffffffff16815260200190815260200160002060009054906101000a900460ff16905092915050565b600033905090565b6000815190506200022c8162000292565b92915050565b6000602082840312156200024557600080fd5b600062000255848285016200021b565b91505092915050565b60006200026b8262000272565b9050919050565b600073ffffffffffffffffffffffffffffffffffffffff82169050919050565b6200029d816200025e565b8114620002a957600080fd5b50565b611d7480620002bc6000396000f3fe608060405234801561001057600080fd5b506004361061010b5760003560e01c80634f7cd72f116100a25780638456cb59116100715780638456cb591461028e57806391d1485414610298578063a217fddf146102c8578063d547741f146102e6578063fa206c14146103025761010b565b80634f7cd72f146102065780635c975abb14610224578063617b291e1461024257806370480275146102725761010b565b80632f2ff15d116100de5780632f2ff15d146101a857806336568abe146101c45780633f4ba83a146101e05780634568f665146101ea5761010b565b806301ffc9a71461011057806310143a64146101405780631785f53c1461015c578063248a9ca314610178575b600080fd5b61012a60048036038101906101259190611477565b61031e565b6040516101379190611773565b60405180910390f35b61015a600480360381019061015591906113e9565b610398565b005b610176600480360381019061017191906113e9565b610410565b005b610192600480360381019061018d9190611412565b6104b7565b60405161019f919061178e565b60405180910390f35b6101c260048036038101906101bd919061143b565b6104d6565b005b6101de60048036038101906101d9919061143b565b6104f7565b005b6101e861057a565b005b61020460048036038101906101ff91906114e1565b6105d8565b005b61020e610789565b60405161021b919061178e565b60405180910390f35b61022c6107ad565b6040516102399190611773565b60405180910390f35b61025c600480360381019061025791906114a0565b6107c4565b6040516102699190611758565b60405180910390f35b61028c600480360381019061028791906113e9565b6108a2565b005b610296610949565b005b6102b260048036038101906102ad919061143b565b6109a7565b6040516102bf9190611773565b60405180910390f35b6102d0610a11565b6040516102dd919061178e565b60405180910390f35b61030060048036038101906102fb919061143b565b610a18565b005b61031c600480360381019061031791906114e1565b610a39565b005b60007f7965db0b000000000000000000000000000000000000000000000000000000007bffffffffffffffffffffffffffffffffffffffffffffffffffffffff1916827bffffffffffffffffffffffffffffffffffffffffffffffffffffffff19161480610391575061039082610be9565b5b9050919050565b6103a0610c53565b6103ca7f73fd536265c26e6e13263018bc9d82a9b962a7857ae70dac847fd743f5e7153582610c9d565b8073ffffffffffffffffffffffffffffffffffffffff167f92364d7c14d8a26a040c77305dd885fcd5898051d1b1ead4189b09d5f091159060405160405180910390a250565b61041d6000801b336109a7565b61045c576040517f08c379a00000000000000000000000000000000000000000000000000000000081526004016104539061186b565b60405180910390fd5b610464610c53565b6104716000801b82610cab565b8073ffffffffffffffffffffffffffffffffffffffff167f3137a7fedbfedb7895dfa5a6812a4566dae9ded68d00aeec13c6ed1fa84a1c8060405160405180910390a250565b6000806000838152602001908152602001600020600101549050919050565b6104df826104b7565b6104e881610d8c565b6104f28383610da0565b505050565b6104ff610e80565b73ffffffffffffffffffffffffffffffffffffffff168173ffffffffffffffffffffffffffffffffffffffff161461056c576040517f08c379a00000000000000000000000000000000000000000000000000000000081526004016105639061188b565b60405180910390fd5b6105768282610cab565b5050565b6105876000801b336109a7565b6105c6576040517f08c379a00000000000000000000000000000000000000000000000000000000081526004016105bd9061186b565b60405180910390fd5b6105ce610e88565b6105d6610ed1565b565b6105e56000801b336109a7565b610624576040517f08c379a000000000000000000000000000000000000000000000000000000000815260040161061b9061186b565b60405180910390fd5b61062c610c53565b60008260405160200161063f9190611707565b604051602081830303815290604052805190602001209050600073ffffffffffffffffffffffffffffffffffffffff166002600083815260200190815260200160002060009054906101000a900473ffffffffffffffffffffffffffffffffffffffff1673ffffffffffffffffffffffffffffffffffffffff1614156106fa576040517f08c379a00000000000000000000000000000000000000000000000000000000081526004016106f1906117cb565b60405180910390fd5b816002600083815260200190815260200160002060006101000a81548173ffffffffffffffffffffffffffffffffffffffff021916908373ffffffffffffffffffffffffffffffffffffffff160217905550807f60d79b067258ea9c14eca8a23caf9de667903176279e5ad0d951cc02ef750a3c8360405161077c9190611758565b60405180910390a2505050565b7f73fd536265c26e6e13263018bc9d82a9b962a7857ae70dac847fd743f5e7153581565b6000600160009054906101000a900460ff16905090565b600080826040516020016107d89190611707565b60405160208183030381529060405280519060200120905060006002600083815260200190815260200160002060009054906101000a900473ffffffffffffffffffffffffffffffffffffffff169050600073ffffffffffffffffffffffffffffffffffffffff168173ffffffffffffffffffffffffffffffffffffffff161415610898576040517f08c379a000000000000000000000000000000000000000000000000000000000815260040161088f906117cb565b60405180910390fd5b8092505050919050565b6108af6000801b336109a7565b6108ee576040517f08c379a00000000000000000000000000000000000000000000000000000000081526004016108e59061186b565b60405180910390fd5b6108f6610c53565b6109036000801b82610c9d565b8073ffffffffffffffffffffffffffffffffffffffff167f2dbe9fb88463d989acccabbb6ee06901f83672eb78e04a11ff48dd8f69a27cda60405160405180910390a250565b6109566000801b336109a7565b610995576040517f08c379a000000000000000000000000000000000000000000000000000000000815260040161098c9061186b565b60405180910390fd5b61099d610c53565b6109a5610f34565b565b600080600084815260200190815260200160002060000160008373ffffffffffffffffffffffffffffffffffffffff1673ffffffffffffffffffffffffffffffffffffffff16815260200190815260200160002060009054906101000a900460ff16905092915050565b6000801b81565b610a21826104b7565b610a2a81610d8c565b610a348383610cab565b505050565b610a466000801b336109a7565b610a85576040517f08c379a0000000000000000000000000000000000000000000000000000000008152600401610a7c9061186b565b60405180910390fd5b610a8d610c53565b600082604051602001610aa09190611707565b604051602081830303815290604052805190602001209050600073ffffffffffffffffffffffffffffffffffffffff166002600083815260200190815260200160002060009054906101000a900473ffffffffffffffffffffffffffffffffffffffff1673ffffffffffffffffffffffffffffffffffffffff1614610b5a576040517f08c379a0000000000000000000000000000000000000000000000000000000008152600401610b519061184b565b60405180910390fd5b816002600083815260200190815260200160002060006101000a81548173ffffffffffffffffffffffffffffffffffffffff021916908373ffffffffffffffffffffffffffffffffffffffff160217905550807fa140b56e76f87d96e567935525246932ee183fd9dd7ae7a2ae594e2074a0888e83604051610bdc9190611758565b60405180910390a2505050565b60007f01ffc9a7000000000000000000000000000000000000000000000000000000007bffffffffffffffffffffffffffffffffffffffffffffffffffffffff1916827bffffffffffffffffffffffffffffffffffffffffffffffffffffffff1916149050919050565b610c5b6107ad565b15610c9b576040517f08c379a0000000000000000000000000000000000000000000000000000000008152600401610c929061182b565b60405180910390fd5b565b610ca78282610da0565b5050565b610cb582826109a7565b15610d8857600080600084815260200190815260200160002060000160008373ffffffffffffffffffffffffffffffffffffffff1673ffffffffffffffffffffffffffffffffffffffff16815260200190815260200160002060006101000a81548160ff021916908315150217905550610d2d610e80565b73ffffffffffffffffffffffffffffffffffffffff168173ffffffffffffffffffffffffffffffffffffffff16837ff6391f5c32d9c69d2a47ea670b442974b53935d1edc7fd64eb21e047a839171b60405160405180910390a45b5050565b610d9d81610d98610e80565b610f96565b50565b610daa82826109a7565b610e7c57600160008084815260200190815260200160002060000160008373ffffffffffffffffffffffffffffffffffffffff1673ffffffffffffffffffffffffffffffffffffffff16815260200190815260200160002060006101000a81548160ff021916908315150217905550610e21610e80565b73ffffffffffffffffffffffffffffffffffffffff168173ffffffffffffffffffffffffffffffffffffffff16837f2f8788117e7eff1d82e926ec794901d17c78024a50270940304540a733656f0d60405160405180910390a45b5050565b600033905090565b610e906107ad565b610ecf576040517f08c379a0000000000000000000000000000000000000000000000000000000008152600401610ec69061180b565b60405180910390fd5b565b610ed9610e88565b6000600160006101000a81548160ff0219169083151502179055507f5db9ee0a495bf2e6ff9c91a7834c1ba4fdd244a5e8aa4e537bd38aeae4b073aa610f1d610e80565b604051610f2a9190611758565b60405180910390a1565b610f3c610c53565b60018060006101000a81548160ff0219169083151502179055507f62e78cea01bee320cd4e420270b5ea74000d11b0c9f74754ebdbfc544b05a258610f7f610e80565b604051610f8c9190611758565b60405180910390a1565b610fa082826109a7565b61101757610fad8161101b565b610fbb8360001c6020611048565b604051602001610fcc92919061171e565b6040516020818303038152906040526040517f08c379a000000000000000000000000000000000000000000000000000000000815260040161100e91906117a9565b60405180910390fd5b5050565b60606110418273ffffffffffffffffffffffffffffffffffffffff16601460ff16611048565b9050919050565b60606000600283600261105b919061197e565b6110659190611928565b67ffffffffffffffff8111156110a4577f4e487b7100000000000000000000000000000000000000000000000000000000600052604160045260246000fd5b6040519080825280601f01601f1916602001820160405280156110d65781602001600182028036833780820191505090505b5090507f300000000000000000000000000000000000000000000000000000000000000081600081518110611134577f4e487b7100000000000000000000000000000000000000000000000000000000600052603260045260246000fd5b60200101907effffffffffffffffffffffffffffffffffffffffffffffffffffffffffffff1916908160001a9053507f7800000000000000000000000000000000000000000000000000000000000000816001815181106111be577f4e487b7100000000000000000000000000000000000000000000000000000000600052603260045260246000fd5b60200101907effffffffffffffffffffffffffffffffffffffffffffffffffffffffffffff1916908160001a905350600060018460026111fe919061197e565b6112089190611928565b90505b60018111156112f4577f3031323334353637383961626364656600000000000000000000000000000000600f861660108110611270577f4e487b7100000000000000000000000000000000000000000000000000000000600052603260045260246000fd5b1a60f81b8282815181106112ad577f4e487b7100000000000000000000000000000000000000000000000000000000600052603260045260246000fd5b60200101907effffffffffffffffffffffffffffffffffffffffffffffffffffffffffffff1916908160001a905350600485901c9450806112ed90611a98565b905061120b565b5060008414611338576040517f08c379a000000000000000000000000000000000000000000000000000000000815260040161132f906117eb565b60405180910390fd5b8091505092915050565b6000611355611350846118d0565b6118ab565b90508281526020810184848401111561136d57600080fd5b611378848285611a56565b509392505050565b60008135905061138f81611cf9565b92915050565b6000813590506113a481611d10565b92915050565b6000813590506113b981611d27565b92915050565b600082601f8301126113d057600080fd5b81356113e0848260208601611342565b91505092915050565b6000602082840312156113fb57600080fd5b600061140984828501611380565b91505092915050565b60006020828403121561142457600080fd5b600061143284828501611395565b91505092915050565b6000806040838503121561144e57600080fd5b600061145c85828601611395565b925050602061146d85828601611380565b9150509250929050565b60006020828403121561148957600080fd5b6000611497848285016113aa565b91505092915050565b6000602082840312156114b257600080fd5b600082013567ffffffffffffffff8111156114cc57600080fd5b6114d8848285016113bf565b91505092915050565b600080604083850312156114f457600080fd5b600083013567ffffffffffffffff81111561150e57600080fd5b61151a858286016113bf565b925050602061152b85828601611380565b9150509250929050565b61153e816119d8565b82525050565b61154d816119ea565b82525050565b61155c816119f6565b82525050565b600061156d82611901565b611577818561190c565b9350611587818560208601611a65565b61159081611b51565b840191505092915050565b60006115a682611901565b6115b0818561191d565b93506115c0818560208601611a65565b80840191505092915050565b60006115d960188361190c565b91506115e482611b62565b602082019050919050565b60006115fc60208361190c565b915061160782611b8b565b602082019050919050565b600061161f60148361190c565b915061162a82611bb4565b602082019050919050565b600061164260108361190c565b915061164d82611bdd565b602082019050919050565b6000611665601b8361190c565b915061167082611c06565b602082019050919050565b600061168860168361190c565b915061169382611c2f565b602082019050919050565b60006116ab60178361191d565b91506116b682611c58565b601782019050919050565b60006116ce60118361191d565b91506116d982611c81565b601182019050919050565b60006116f1602f8361190c565b91506116fc82611caa565b604082019050919050565b6000611713828461159b565b915081905092915050565b60006117298261169e565b9150611735828561159b565b9150611740826116c1565b915061174c828461159b565b91508190509392505050565b600060208201905061176d6000830184611535565b92915050565b60006020820190506117886000830184611544565b92915050565b60006020820190506117a36000830184611553565b92915050565b600060208201905081810360008301526117c38184611562565b905092915050565b600060208201905081810360008301526117e4816115cc565b9050919050565b60006020820190508181036000830152611804816115ef565b9050919050565b6000602082019050818103600083015261182481611612565b9050919050565b6000602082019050818103600083015261184481611635565b9050919050565b6000602082019050818103600083015261186481611658565b9050919050565b600060208201905081810360008301526118848161167b565b9050919050565b600060208201905081810360008301526118a4816116e4565b9050919050565b60006118b56118c6565b90506118c18282611ac2565b919050565b6000604051905090565b600067ffffffffffffffff8211156118eb576118ea611b22565b5b6118f482611b51565b9050602081019050919050565b600081519050919050565b600082825260208201905092915050565b600081905092915050565b600061193382611a4c565b915061193e83611a4c565b9250827fffffffffffffffffffffffffffffffffffffffffffffffffffffffffffffffff0382111561197357611972611af3565b5b828201905092915050565b600061198982611a4c565b915061199483611a4c565b9250817fffffffffffffffffffffffffffffffffffffffffffffffffffffffffffffffff04831182151516156119cd576119cc611af3565b5b828202905092915050565b60006119e382611a2c565b9050919050565b60008115159050919050565b6000819050919050565b60007fffffffff0000000000000000000000000000000000000000000000000000000082169050919050565b600073ffffffffffffffffffffffffffffffffffffffff82169050919050565b6000819050919050565b82818337600083830152505050565b60005b83811015611a83578082015181840152602081019050611a68565b83811115611a92576000848401525b50505050565b6000611aa382611a4c565b91506000821415611ab757611ab6611af3565b5b600182039050919050565b611acb82611b51565b810181811067ffffffffffffffff82111715611aea57611ae9611b22565b5b80604052505050565b7f4e487b7100000000000000000000000000000000000000000000000000000000600052601160045260246000fd5b7f4e487b7100000000000000000000000000000000000000000000000000000000600052604160045260246000fd5b6000601f19601f8301169050919050565b7f526567697374727920646f6573206e6f74206578697374730000000000000000600082015250565b7f537472696e67733a20686578206c656e67746820696e73756666696369656e74600082015250565b7f5061757361626c653a206e6f7420706175736564000000000000000000000000600082015250565b7f5061757361626c653a2070617573656400000000000000000000000000000000600082015250565b7f54686520726567697374727920616c7265616479206578697374730000000000600082015250565b7f43616c6c6572206973206e6f7420616e2041646d696e00000000000000000000600082015250565b7f416363657373436f6e74726f6c3a206163636f756e7420000000000000000000600082015250565b7f206973206d697373696e6720726f6c6520000000000000000000000000000000600082015250565b7f416363657373436f6e74726f6c3a2063616e206f6e6c792072656e6f756e636560008201527f20726f6c657320666f722073656c660000000000000000000000000000000000602082015250565b611d02816119d8565b8114611d0d57600080fd5b50565b611d19816119f6565b8114611d2457600080fd5b50565b611d3081611a00565b8114611d3b57600080fd5b5056fea2646970667358221220f053bc7015cd18d88a51a4211e922b79edb3c3acd0314f7f229937ef6574b95064736f6c63430008010033",
  "linkReferences": {},
  "deployedLinkReferences": {}
}