{
  "_format": "hh-sol-artifact-1",
  "contractName": "StableVault",
  "sourceName": "contracts/StableVault.sol",
  "abi": [
    {
      "inputs": [
        {
          "internalType": "address",
          "name": "admin",
          "type": "address"
        },
        {
          "internalType": "string",
          "name": "tokenName",
          "type": "string"
        },
        {
          "internalType": "string",
          "name": "tokenSymbol",
          "type": "string"
        }
      ],
      "stateMutability": "nonpayable",
      "type": "constructor"
    },
    {
      "anonymous": false,
      "inputs": [
        {
          "indexed": true,
          "internalType": "address",
          "name": "owner",
          "type": "address"
        },
        {
          "indexed": true,
          "internalType": "address",
          "name": "spender",
          "type": "address"
        },
        {
          "indexed": false,
          "internalType": "uint256",
          "name": "value",
          "type": "uint256"
        }
      ],
      "name": "Approval",
      "type": "event"
    },
    {
      "anonymous": false,
      "inputs": [
        {
          "indexed": false,
          "internalType": "uint256",
          "name": "_vaultBalance",
          "type": "uint256"
        }
      ],
      "name": "BalanceUpdated",
      "type": "event"
    },
    {
      "anonymous": false,
      "inputs": [
        {
          "indexed": true,
          "internalType": "address",
          "name": "user",
          "type": "address"
        },
        {
          "indexed": false,
          "internalType": "address",
          "name": "asset",
          "type": "address"
        },
        {
          "indexed": false,
          "internalType": "uint256",
          "name": "amount",
          "type": "uint256"
        }
      ],
      "name": "DepositAave",
      "type": "event"
    },
    {
      "anonymous": false,
      "inputs": [
        {
          "indexed": true,
          "internalType": "address",
          "name": "new_admin",
          "type": "address"
        }
      ],
      "name": "NewAdminAdded",
      "type": "event"
    },
    {
      "anonymous": false,
      "inputs": [
        {
          "indexed": true,
          "internalType": "address",
          "name": "profile",
          "type": "address"
        }
      ],
      "name": "NewProfileAdded",
      "type": "event"
    },
    {
      "anonymous": false,
      "inputs": [
        {
          "indexed": false,
          "internalType": "address",
          "name": "account",
          "type": "address"
        }
      ],
      "name": "Paused",
      "type": "event"
    },
    {
      "anonymous": false,
      "inputs": [
        {
          "indexed": true,
          "internalType": "address",
          "name": "removed_admin",
          "type": "address"
        }
      ],
      "name": "RemovedAdmin",
      "type": "event"
    },
    {
      "anonymous": false,
      "inputs": [
        {
          "indexed": true,
          "internalType": "bytes32",
          "name": "role",
          "type": "bytes32"
        },
        {
          "indexed": true,
          "internalType": "bytes32",
          "name": "previousAdminRole",
          "type": "bytes32"
        },
        {
          "indexed": true,
          "internalType": "bytes32",
          "name": "newAdminRole",
          "type": "bytes32"
        }
      ],
      "name": "RoleAdminChanged",
      "type": "event"
    },
    {
      "anonymous": false,
      "inputs": [
        {
          "indexed": true,
          "internalType": "bytes32",
          "name": "role",
          "type": "bytes32"
        },
        {
          "indexed": true,
          "internalType": "address",
          "name": "account",
          "type": "address"
        },
        {
          "indexed": true,
          "internalType": "address",
          "name": "sender",
          "type": "address"
        }
      ],
      "name": "RoleGranted",
      "type": "event"
    },
    {
      "anonymous": false,
      "inputs": [
        {
          "indexed": true,
          "internalType": "bytes32",
          "name": "role",
          "type": "bytes32"
        },
        {
          "indexed": true,
          "internalType": "address",
          "name": "account",
          "type": "address"
        },
        {
          "indexed": true,
          "internalType": "address",
          "name": "sender",
          "type": "address"
        }
      ],
      "name": "RoleRevoked",
      "type": "event"
    },
    {
      "anonymous": false,
      "inputs": [
        {
          "indexed": true,
          "internalType": "address",
          "name": "from",
          "type": "address"
        },
        {
          "indexed": true,
          "internalType": "address",
          "name": "to",
          "type": "address"
        },
        {
          "indexed": false,
          "internalType": "uint256",
          "name": "value",
          "type": "uint256"
        }
      ],
      "name": "Transfer",
      "type": "event"
    },
    {
      "anonymous": false,
      "inputs": [
        {
          "indexed": false,
          "internalType": "address",
          "name": "account",
          "type": "address"
        }
      ],
      "name": "Unpaused",
      "type": "event"
    },
    {
      "anonymous": false,
      "inputs": [
        {
          "indexed": true,
          "internalType": "address",
          "name": "user",
          "type": "address"
        },
        {
          "indexed": false,
          "internalType": "uint256",
          "name": "amount",
          "type": "uint256"
        },
        {
          "indexed": true,
          "internalType": "address",
          "name": "asset",
          "type": "address"
        }
      ],
      "name": "Withdrawal",
      "type": "event"
    },
    {
      "inputs": [],
      "name": "CHANGE_PARAMETERS",
      "outputs": [
        {
          "internalType": "bytes32",
          "name": "",
          "type": "bytes32"
        }
      ],
      "stateMutability": "view",
      "type": "function"
    },
    {
      "inputs": [],
      "name": "DEFAULT_ADMIN_ROLE",
      "outputs": [
        {
          "internalType": "bytes32",
          "name": "",
          "type": "bytes32"
        }
      ],
      "stateMutability": "view",
      "type": "function"
    },
    {
      "inputs": [
        {
          "internalType": "address",
          "name": "account",
          "type": "address"
        }
      ],
      "name": "addAdmin",
      "outputs": [],
      "stateMutability": "nonpayable",
      "type": "function"
    },
    {
      "inputs": [
        {
          "internalType": "address",
          "name": "account",
          "type": "address"
        }
      ],
      "name": "addProfile",
      "outputs": [],
      "stateMutability": "nonpayable",
      "type": "function"
    },
    {
      "inputs": [
        {
          "internalType": "address",
          "name": "owner",
          "type": "address"
        },
        {
          "internalType": "address",
          "name": "spender",
          "type": "address"
        }
      ],
      "name": "allowance",
      "outputs": [
        {
          "internalType": "uint256",
          "name": "",
          "type": "uint256"
        }
      ],
      "stateMutability": "view",
      "type": "function"
    },
    {
      "inputs": [
        {
          "internalType": "address",
          "name": "spender",
          "type": "address"
        },
        {
          "internalType": "uint256",
          "name": "amount",
          "type": "uint256"
        }
      ],
      "name": "approve",
      "outputs": [
        {
          "internalType": "bool",
          "name": "",
          "type": "bool"
        }
      ],
      "stateMutability": "nonpayable",
      "type": "function"
    },
    {
      "inputs": [
        {
          "internalType": "address",
          "name": "account",
          "type": "address"
        }
      ],
      "name": "balanceOf",
      "outputs": [
        {
          "internalType": "uint256",
          "name": "",
          "type": "uint256"
        }
      ],
      "stateMutability": "view",
      "type": "function"
    },
    {
      "inputs": [],
      "name": "decimals",
      "outputs": [
        {
          "internalType": "uint8",
          "name": "",
          "type": "uint8"
        }
      ],
      "stateMutability": "view",
      "type": "function"
    },
    {
      "inputs": [
        {
          "internalType": "address",
          "name": "spender",
          "type": "address"
        },
        {
          "internalType": "uint256",
          "name": "subtractedValue",
          "type": "uint256"
        }
      ],
      "name": "decreaseAllowance",
      "outputs": [
        {
          "internalType": "bool",
          "name": "",
          "type": "bool"
        }
      ],
      "stateMutability": "nonpayable",
      "type": "function"
    },
    {
      "inputs": [
        {
          "internalType": "uint256",
          "name": "amount",
          "type": "uint256"
        },
        {
          "internalType": "address",
          "name": "_asset",
          "type": "address"
        },
        {
          "internalType": "address",
          "name": "_beneficiary",
          "type": "address"
        }
      ],
      "name": "deposit",
      "outputs": [
        {
          "internalType": "bool",
          "name": "",
          "type": "bool"
        }
      ],
      "stateMutability": "nonpayable",
      "type": "function"
    },
    {
      "inputs": [
        {
          "internalType": "address",
          "name": "_asset",
          "type": "address"
        }
      ],
      "name": "getAaveBalance",
      "outputs": [
        {
          "internalType": "uint256",
          "name": "",
          "type": "uint256"
        }
      ],
      "stateMutability": "view",
      "type": "function"
    },
    {
      "inputs": [],
      "name": "getChainID",
      "outputs": [
        {
          "internalType": "uint256",
          "name": "",
          "type": "uint256"
        }
      ],
      "stateMutability": "view",
      "type": "function"
    },
    {
      "inputs": [
        {
          "internalType": "bytes32",
          "name": "role",
          "type": "bytes32"
        }
      ],
      "name": "getRoleAdmin",
      "outputs": [
        {
          "internalType": "bytes32",
          "name": "",
          "type": "bytes32"
        }
      ],
      "stateMutability": "view",
      "type": "function"
    },
    {
      "inputs": [
        {
          "internalType": "bytes32",
          "name": "role",
          "type": "bytes32"
        },
        {
          "internalType": "address",
          "name": "account",
          "type": "address"
        }
      ],
      "name": "grantRole",
      "outputs": [],
      "stateMutability": "nonpayable",
      "type": "function"
    },
    {
      "inputs": [
        {
          "internalType": "bytes32",
          "name": "role",
          "type": "bytes32"
        },
        {
          "internalType": "address",
          "name": "account",
          "type": "address"
        }
      ],
      "name": "hasRole",
      "outputs": [
        {
          "internalType": "bool",
          "name": "",
          "type": "bool"
        }
      ],
      "stateMutability": "view",
      "type": "function"
    },
    {
      "inputs": [
        {
          "internalType": "address",
          "name": "spender",
          "type": "address"
        },
        {
          "internalType": "uint256",
          "name": "addedValue",
          "type": "uint256"
        }
      ],
      "name": "increaseAllowance",
      "outputs": [
        {
          "internalType": "bool",
          "name": "",
          "type": "bool"
        }
      ],
      "stateMutability": "nonpayable",
      "type": "function"
    },
    {
      "inputs": [
        {
          "internalType": "string",
          "name": "functionName",
          "type": "string"
        }
      ],
      "name": "isValidNetworkForFunction",
      "outputs": [
        {
          "internalType": "bool",
          "name": "",
          "type": "bool"
        }
      ],
      "stateMutability": "view",
      "type": "function"
    },
    {
      "inputs": [],
      "name": "name",
      "outputs": [
        {
          "internalType": "string",
          "name": "",
          "type": "string"
        }
      ],
      "stateMutability": "view",
      "type": "function"
    },
    {
      "inputs": [],
      "name": "pause",
      "outputs": [],
      "stateMutability": "nonpayable",
      "type": "function"
    },
    {
      "inputs": [],
      "name": "paused",
      "outputs": [
        {
          "internalType": "bool",
          "name": "",
          "type": "bool"
        }
      ],
      "stateMutability": "view",
      "type": "function"
    },
    {
      "inputs": [
        {
          "internalType": "address",
          "name": "account",
          "type": "address"
        }
      ],
      "name": "removeAdmin",
      "outputs": [],
      "stateMutability": "nonpayable",
      "type": "function"
    },
    {
      "inputs": [
        {
          "internalType": "bytes32",
          "name": "role",
          "type": "bytes32"
        },
        {
          "internalType": "address",
          "name": "account",
          "type": "address"
        }
      ],
      "name": "renounceRole",
      "outputs": [],
      "stateMutability": "nonpayable",
      "type": "function"
    },
    {
      "inputs": [
        {
          "internalType": "bytes32",
          "name": "role",
          "type": "bytes32"
        },
        {
          "internalType": "address",
          "name": "account",
          "type": "address"
        }
      ],
      "name": "revokeRole",
      "outputs": [],
      "stateMutability": "nonpayable",
      "type": "function"
    },
    {
      "inputs": [
        {
          "internalType": "address",
          "name": "_AAVE_DATA_PROVIDER",
          "type": "address"
        },
        {
          "internalType": "address",
          "name": "_AAVE_INCENTIVES_CONTROLLER",
          "type": "address"
        },
        {
          "internalType": "address",
          "name": "_AAVE_LENDING_POOL",
          "type": "address"
        }
      ],
      "name": "setAaveSettings",
      "outputs": [],
      "stateMutability": "nonpayable",
      "type": "function"
    },
    {
      "inputs": [
        {
          "internalType": "bool",
          "name": "useCompound",
          "type": "bool"
        },
        {
          "internalType": "address",
          "name": "wallet",
          "type": "address"
        }
      ],
      "name": "setUserCompoundPreference",
      "outputs": [],
      "stateMutability": "nonpayable",
      "type": "function"
    },
    {
      "inputs": [
        {
          "internalType": "bytes4",
          "name": "interfaceId",
          "type": "bytes4"
        }
      ],
      "name": "supportsInterface",
      "outputs": [
        {
          "internalType": "bool",
          "name": "",
          "type": "bool"
        }
      ],
      "stateMutability": "view",
      "type": "function"
    },
    {
      "inputs": [],
      "name": "symbol",
      "outputs": [
        {
          "internalType": "string",
          "name": "",
          "type": "string"
        }
      ],
      "stateMutability": "view",
      "type": "function"
    },
    {
      "inputs": [],
      "name": "totalSupply",
      "outputs": [
        {
          "internalType": "uint256",
          "name": "",
          "type": "uint256"
        }
      ],
      "stateMutability": "view",
      "type": "function"
    },
    {
      "inputs": [
        {
          "internalType": "address",
          "name": "to",
          "type": "address"
        },
        {
          "internalType": "uint256",
          "name": "amount",
          "type": "uint256"
        }
      ],
      "name": "transfer",
      "outputs": [
        {
          "internalType": "bool",
          "name": "",
          "type": "bool"
        }
      ],
      "stateMutability": "nonpayable",
      "type": "function"
    },
    {
      "inputs": [
        {
          "internalType": "address",
          "name": "from",
          "type": "address"
        },
        {
          "internalType": "address",
          "name": "to",
          "type": "address"
        },
        {
          "internalType": "uint256",
          "name": "amount",
          "type": "uint256"
        }
      ],
      "name": "transferFrom",
      "outputs": [
        {
          "internalType": "bool",
          "name": "",
          "type": "bool"
        }
      ],
      "stateMutability": "nonpayable",
      "type": "function"
    },
    {
      "inputs": [],
      "name": "unpause",
      "outputs": [],
      "stateMutability": "nonpayable",
      "type": "function"
    },
    {
      "inputs": [
        {
          "internalType": "string",
          "name": "functionName",
          "type": "string"
        },
        {
          "internalType": "uint256[]",
          "name": "chainIDs",
          "type": "uint256[]"
        }
      ],
      "name": "updateValidNetworks",
      "outputs": [],
      "stateMutability": "nonpayable",
      "type": "function"
    },
    {
      "inputs": [
        {
          "internalType": "address",
          "name": "",
          "type": "address"
        }
      ],
      "name": "userSetCompound",
      "outputs": [
        {
          "internalType": "bool",
          "name": "",
          "type": "bool"
        }
      ],
      "stateMutability": "view",
      "type": "function"
    },
    {
      "inputs": [
        {
          "internalType": "string",
          "name": "",
          "type": "string"
        },
        {
          "internalType": "uint256",
          "name": "",
          "type": "uint256"
        }
      ],
      "name": "validNetworks",
      "outputs": [
        {
          "internalType": "bool",
          "name": "",
          "type": "bool"
        }
      ],
      "stateMutability": "view",
      "type": "function"
    },
    {
      "inputs": [],
      "name": "vaultBalance",
      "outputs": [
        {
          "internalType": "uint256",
          "name": "",
          "type": "uint256"
        }
      ],
      "stateMutability": "view",
      "type": "function"
    },
    {
      "inputs": [
        {
          "internalType": "uint256",
          "name": "amount",
          "type": "uint256"
        },
        {
          "internalType": "address",
          "name": "_asset",
          "type": "address"
        }
      ],
      "name": "withdraw",
      "outputs": [
        {
          "internalType": "bool",
          "name": "",
          "type": "bool"
        }
      ],
      "stateMutability": "nonpayable",
      "type": "function"
    }
  ],
  "bytecode": "0x60806040523480156200001157600080fd5b5060405162004da538038062004da5833981810160405281019062000037919062000430565b81818460016000819055506000600260006101000a81548160ff021916908315150217905550620000726000801b82620000d460201b60201c565b620000a47f73fd536265c26e6e13263018bc9d82a9b962a7857ae70dac847fd743f5e7153582620000d460201b60201c565b508160069081620000b6919062000715565b508060079081620000c8919062000715565b505050505050620007fc565b620000e68282620001c560201b60201c565b620001c157600180600084815260200190815260200160002060000160008373ffffffffffffffffffffffffffffffffffffffff1673ffffffffffffffffffffffffffffffffffffffff16815260200190815260200160002060006101000a81548160ff021916908315150217905550620001666200023060201b60201c565b73ffffffffffffffffffffffffffffffffffffffff168173ffffffffffffffffffffffffffffffffffffffff16837f2f8788117e7eff1d82e926ec794901d17c78024a50270940304540a733656f0d60405160405180910390a45b5050565b60006001600084815260200190815260200160002060000160008373ffffffffffffffffffffffffffffffffffffffff1673ffffffffffffffffffffffffffffffffffffffff16815260200190815260200160002060009054906101000a900460ff16905092915050565b600033905090565b6000604051905090565b600080fd5b600080fd5b600073ffffffffffffffffffffffffffffffffffffffff82169050919050565b600062000279826200024c565b9050919050565b6200028b816200026c565b81146200029757600080fd5b50565b600081519050620002ab8162000280565b92915050565b600080fd5b600080fd5b6000601f19601f8301169050919050565b7f4e487b7100000000000000000000000000000000000000000000000000000000600052604160045260246000fd5b6200030682620002bb565b810181811067ffffffffffffffff82111715620003285762000327620002cc565b5b80604052505050565b60006200033d62000238565b90506200034b8282620002fb565b919050565b600067ffffffffffffffff8211156200036e576200036d620002cc565b5b6200037982620002bb565b9050602081019050919050565b60005b83811015620003a657808201518184015260208101905062000389565b60008484015250505050565b6000620003c9620003c38462000350565b62000331565b905082815260208101848484011115620003e857620003e7620002b6565b5b620003f584828562000386565b509392505050565b600082601f830112620004155762000414620002b1565b5b815162000427848260208601620003b2565b91505092915050565b6000806000606084860312156200044c576200044b62000242565b5b60006200045c868287016200029a565b935050602084015167ffffffffffffffff81111562000480576200047f62000247565b5b6200048e86828701620003fd565b925050604084015167ffffffffffffffff811115620004b257620004b162000247565b5b620004c086828701620003fd565b9150509250925092565b600081519050919050565b7f4e487b7100000000000000000000000000000000000000000000000000000000600052602260045260246000fd5b600060028204905060018216806200051d57607f821691505b602082108103620005335762000532620004d5565b5b50919050565b60008190508160005260206000209050919050565b60006020601f8301049050919050565b600082821b905092915050565b6000600883026200059d7fffffffffffffffffffffffffffffffffffffffffffffffffffffffffffffffff826200055e565b620005a986836200055e565b95508019841693508086168417925050509392505050565b6000819050919050565b6000819050919050565b6000620005f6620005f0620005ea84620005c1565b620005cb565b620005c1565b9050919050565b6000819050919050565b6200061283620005d5565b6200062a6200062182620005fd565b8484546200056b565b825550505050565b600090565b6200064162000632565b6200064e81848462000607565b505050565b5b8181101562000676576200066a60008262000637565b60018101905062000654565b5050565b601f821115620006c5576200068f8162000539565b6200069a846200054e565b81016020851015620006aa578190505b620006c2620006b9856200054e565b83018262000653565b50505b505050565b600082821c905092915050565b6000620006ea60001984600802620006ca565b1980831691505092915050565b6000620007058383620006d7565b9150826002028217905092915050565b6200072082620004ca565b67ffffffffffffffff8111156200073c576200073b620002cc565b5b62000748825462000504565b620007558282856200067a565b600060209050601f8311600181146200078d576000841562000778578287015190505b620007848582620006f7565b865550620007f4565b601f1984166200079d8662000539565b60005b82811015620007c757848901518255600182019150602085019450602081019050620007a0565b86831015620007e75784890151620007e3601f891682620006d7565b8355505b6001600288020188555050505b505050505050565b614599806200080c6000396000f3fe608060405234801561001057600080fd5b506004361061021b5760003560e01c80633f4ba83a1161012557806395d89b41116100ad578063a9059cbb1161007c578063a9059cbb1461068a578063d14eaf2b146106ba578063d547741f146106d6578063dd62ed3e146106f2578063fd1a9166146107225761021b565b806395d89b41146105ee578063a217fddf1461060c578063a457c2d71461062a578063a806c4571461065a5761021b565b806370480275116100f4578063704802751461053857806370a08231146105545780638456cb59146105845780638ac466481461058e57806391d14854146105be5761021b565b80633f4ba83a146104d45780634f7cd72f146104de578063564b81ef146104fc5780635c975abb1461051a5761021b565b806323b872dd116101a85780632f2ff15d116101775780632f2ff15d1461041e578063313ce5671461043a57806331e8cab21461045857806336568abe1461048857806339509351146104a45761021b565b806323b872dd1461035e578063248a9ca31461038e5780632c05ad27146103be5780632e2d2984146103ee5761021b565b80630bf6cc08116101ef5780630bf6cc08146102ce57806310143a64146102ec5780631785f53c1461030857806318160ddd14610324578063190d7d82146103425761021b565b8062f714ce1461022057806301ffc9a71461025057806306fdde0314610280578063095ea7b31461029e575b600080fd5b61023a60048036038101906102359190612c04565b61073e565b6040516102479190612c5f565b60405180910390f35b61026a60048036038101906102659190612cd2565b61085e565b6040516102779190612c5f565b60405180910390f35b6102886108d8565b6040516102959190612d8f565b60405180910390f35b6102b860048036038101906102b39190612db1565b61096a565b6040516102c59190612c5f565b60405180910390f35b6102d661098d565b6040516102e39190612e00565b60405180910390f35b61030660048036038101906103019190612e1b565b610997565b005b610322600480360381019061031d9190612e1b565b610a0f565b005b61032c610a78565b6040516103399190612e00565b60405180910390f35b61035c60048036038101906103579190612e74565b610a82565b005b61037860048036038101906103739190612eb4565b610b46565b6040516103859190612c5f565b60405180910390f35b6103a860048036038101906103a39190612f3d565b610b75565b6040516103b59190612f79565b60405180910390f35b6103d860048036038101906103d391906130c9565b610b95565b6040516103e59190612c5f565b60405180910390f35b61040860048036038101906104039190613112565b610be2565b6040516104159190612c5f565b60405180910390f35b61043860048036038101906104339190613165565b610cb3565b005b610442610cd4565b60405161044f91906131c1565b60405180910390f35b610472600480360381019061046d9190612e1b565b610cdd565b60405161047f9190612e00565b60405180910390f35b6104a2600480360381019061049d9190613165565b610e05565b005b6104be60048036038101906104b99190612db1565b610e88565b6040516104cb9190612c5f565b60405180910390f35b6104dc610ebf565b005b6104e6610edf565b6040516104f39190612f79565b60405180910390f35b610504610f03565b6040516105119190612e00565b60405180910390f35b610522610f10565b60405161052f9190612c5f565b60405180910390f35b610552600480360381019061054d9190612e1b565b610f27565b005b61056e60048036038101906105699190612e1b565b610f90565b60405161057b9190612e00565b60405180910390f35b61058c610fd9565b005b6105a860048036038101906105a391906131dc565b610ff9565b6040516105b59190612c5f565b60405180910390f35b6105d860048036038101906105d39190613165565b61103e565b6040516105e59190612c5f565b60405180910390f35b6105f66110a9565b6040516106039190612d8f565b60405180910390f35b61061461113b565b6040516106219190612f79565b60405180910390f35b610644600480360381019061063f9190612db1565b611142565b6040516106519190612c5f565b60405180910390f35b610674600480360381019061066f9190612e1b565b6111b9565b6040516106819190612c5f565b60405180910390f35b6106a4600480360381019061069f9190612db1565b6111d9565b6040516106b19190612c5f565b60405180910390f35b6106d460048036038101906106cf9190613238565b6111fc565b005b6106f060048036038101906106eb9190613165565b6112d2565b005b61070c6004803603810190610707919061328b565b6112f3565b6040516107199190612e00565b60405180910390f35b61073c60048036038101906107379190613393565b61137a565b005b6000610748611468565b6107506114b7565b600061075c8484611501565b90508061076833610f90565b10156107a9576040517f08c379a00000000000000000000000000000000000000000000000000000000081526004016107a090613457565b60405180910390fd5b6107b333826115be565b6107de33858573ffffffffffffffffffffffffffffffffffffffff1661178d9092919063ffffffff16565b6107e781611813565b8273ffffffffffffffffffffffffffffffffffffffff163373ffffffffffffffffffffffffffffffffffffffff167e1a143d5b175701cb3246058ffac3d63945192075a926ff73a19930f09d587a836040516108439190612e00565b60405180910390a360019150506108586118a2565b92915050565b60007f7965db0b000000000000000000000000000000000000000000000000000000007bffffffffffffffffffffffffffffffffffffffffffffffffffffffff1916827bffffffffffffffffffffffffffffffffffffffffffffffffffffffff191614806108d157506108d0826118ac565b5b9050919050565b6060600680546108e7906134a6565b80601f0160208091040260200160405190810160405280929190818152602001828054610913906134a6565b80156109605780601f1061093557610100808354040283529160200191610960565b820191906000526020600020905b81548152906001019060200180831161094357829003601f168201915b5050505050905090565b600080610975611916565b905061098281858561191e565b600191505092915050565b6000600854905090565b61099f6114b7565b6109c97f73fd536265c26e6e13263018bc9d82a9b962a7857ae70dac847fd743f5e7153582611ae7565b8073ffffffffffffffffffffffffffffffffffffffff167f92364d7c14d8a26a040c77305dd885fcd5898051d1b1ead4189b09d5f091159060405160405180910390a250565b6000801b610a1c81611bc7565b610a246114b7565b610a316000801b83611bdb565b8173ffffffffffffffffffffffffffffffffffffffff167f3137a7fedbfedb7895dfa5a6812a4566dae9ded68d00aeec13c6ed1fa84a1c8060405160405180910390a25050565b6000600554905090565b610aac7f73fd536265c26e6e13263018bc9d82a9b962a7857ae70dac847fd743f5e715353361103e565b610aeb576040517f08c379a0000000000000000000000000000000000000000000000000000000008152600401610ae290613523565b60405180910390fd5b81600960008373ffffffffffffffffffffffffffffffffffffffff1673ffffffffffffffffffffffffffffffffffffffff16815260200190815260200160002060006101000a81548160ff0219169083151502179055505050565b600080610b51611916565b9050610b5e858285611cbd565b610b69858585611d49565b60019150509392505050565b600060016000838152602001908152602001600020600101549050919050565b6000600a82604051610ba7919061357f565b90815260200160405180910390206000610bbf610f03565b815260200190815260200160002060009054906101000a900460ff169050919050565b6000610bec611468565b610bf46114b7565b6000610c008585611501565b9050610c2f3330878773ffffffffffffffffffffffffffffffffffffffff16611fc2909392919063ffffffff16565b610c39838261204b565b610c42816121a2565b600960008473ffffffffffffffffffffffffffffffffffffffff1673ffffffffffffffffffffffffffffffffffffffff16815260200190815260200160002060009054906101000a900460ff1615610c9f57610c9e84866121ec565b5b6001915050610cac6118a2565b9392505050565b610cbc82610b75565b610cc581611bc7565b610ccf8383611ae7565b505050565b60006012905090565b600080600d60009054906101000a900473ffffffffffffffffffffffffffffffffffffffff1673ffffffffffffffffffffffffffffffffffffffff1663d2493b6c846040518263ffffffff1660e01b8152600401610d3b91906135a5565b606060405180830381865afa158015610d58573d6000803e3d6000fd5b505050506040513d601f19601f82011682018060405250810190610d7c91906135d5565b905050809150508073ffffffffffffffffffffffffffffffffffffffff166370a08231306040518263ffffffff1660e01b8152600401610dbc91906135a5565b602060405180830381865afa158015610dd9573d6000803e3d6000fd5b505050506040513d601f19601f82011682018060405250810190610dfd919061363d565b915050919050565b610e0d611916565b73ffffffffffffffffffffffffffffffffffffffff168173ffffffffffffffffffffffffffffffffffffffff1614610e7a576040517f08c379a0000000000000000000000000000000000000000000000000000000008152600401610e71906136dc565b60405180910390fd5b610e848282611bdb565b5050565b600080610e93611916565b9050610eb4818585610ea585896112f3565b610eaf919061372b565b61191e565b600191505092915050565b6000801b610ecc81611bc7565b610ed4612371565b610edc6123ba565b50565b7f73fd536265c26e6e13263018bc9d82a9b962a7857ae70dac847fd743f5e7153581565b6000804690508091505090565b6000600260009054906101000a900460ff16905090565b6000801b610f3481611bc7565b610f3c6114b7565b610f496000801b83611ae7565b8173ffffffffffffffffffffffffffffffffffffffff167f2dbe9fb88463d989acccabbb6ee06901f83672eb78e04a11ff48dd8f69a27cda60405160405180910390a25050565b6000600360008373ffffffffffffffffffffffffffffffffffffffff1673ffffffffffffffffffffffffffffffffffffffff168152602001908152602001600020549050919050565b6000801b610fe681611bc7565b610fee6114b7565b610ff661241d565b50565b600a828051602081018201805184825260208301602085012081835280955050505050506020528060005260406000206000915091509054906101000a900460ff1681565b60006001600084815260200190815260200160002060000160008373ffffffffffffffffffffffffffffffffffffffff1673ffffffffffffffffffffffffffffffffffffffff16815260200190815260200160002060009054906101000a900460ff16905092915050565b6060600780546110b8906134a6565b80601f01602080910402602001604051908101604052809291908181526020018280546110e4906134a6565b80156111315780601f1061110657610100808354040283529160200191611131565b820191906000526020600020905b81548152906001019060200180831161111457829003601f168201915b5050505050905090565b6000801b81565b60008061114d611916565b9050600061115b82866112f3565b9050838110156111a0576040517f08c379a0000000000000000000000000000000000000000000000000000000008152600401611197906137d1565b60405180910390fd5b6111ad828686840361191e565b60019250505092915050565b60096020528060005260406000206000915054906101000a900460ff1681565b6000806111e4611916565b90506111f1818585611d49565b600191505092915050565b6000801b61120981611bc7565b83600d60006101000a81548173ffffffffffffffffffffffffffffffffffffffff021916908373ffffffffffffffffffffffffffffffffffffffff16021790555082600c60006101000a81548173ffffffffffffffffffffffffffffffffffffffff021916908373ffffffffffffffffffffffffffffffffffffffff16021790555081600b60006101000a81548173ffffffffffffffffffffffffffffffffffffffff021916908373ffffffffffffffffffffffffffffffffffffffff16021790555050505050565b6112db82610b75565b6112e481611bc7565b6112ee8383611bdb565b505050565b6000600460008473ffffffffffffffffffffffffffffffffffffffff1673ffffffffffffffffffffffffffffffffffffffff16815260200190815260200160002060008373ffffffffffffffffffffffffffffffffffffffff1673ffffffffffffffffffffffffffffffffffffffff16815260200190815260200160002054905092915050565b60005b60ff8110156113e1576000600a84604051611398919061357f565b9081526020016040518091039020600083815260200190815260200160002060006101000a81548160ff02191690831515021790555080806113d9906137f1565b91505061137d565b5060005b8151811015611463576001600a84604051611400919061357f565b9081526020016040518091039020600084848151811061142357611422613839565b5b6020026020010151815260200190815260200160002060006101000a81548160ff021916908315150217905550808061145b906137f1565b9150506113e5565b505050565b6002600054036114ad576040517f08c379a00000000000000000000000000000000000000000000000000000000081526004016114a4906138b4565b60405180910390fd5b6002600081905550565b6114bf610f10565b156114ff576040517f08c379a00000000000000000000000000000000000000000000000000000000081526004016114f690613920565b60405180910390fd5b565b6000808273ffffffffffffffffffffffffffffffffffffffff1663313ce5676040518163ffffffff1660e01b8152600401602060405180830381865afa15801561154f573d6000803e3d6000fd5b505050506040513d601f19601f82011682018060405250810190611573919061396c565b60ff169050601281146115b45760128111156115a75760128103600a0a848161159f5761159e613999565b5b0493506115b3565b80601203600a0a840293505b5b8391505092915050565b600073ffffffffffffffffffffffffffffffffffffffff168273ffffffffffffffffffffffffffffffffffffffff160361162d576040517f08c379a000000000000000000000000000000000000000000000000000000000815260040161162490613a3a565b60405180910390fd5b61163982600083612480565b6000600360008473ffffffffffffffffffffffffffffffffffffffff1673ffffffffffffffffffffffffffffffffffffffff168152602001908152602001600020549050818110156116c0576040517f08c379a00000000000000000000000000000000000000000000000000000000081526004016116b790613acc565b60405180910390fd5b818103600360008573ffffffffffffffffffffffffffffffffffffffff1673ffffffffffffffffffffffffffffffffffffffff1681526020019081526020016000208190555081600560008282540392505081905550600073ffffffffffffffffffffffffffffffffffffffff168373ffffffffffffffffffffffffffffffffffffffff167fddf252ad1be2c89b69c2b068fc378daa952ba7f163c4a11628f55a4df523b3ef846040516117749190612e00565b60405180910390a361178883600084612485565b505050565b61180e8363a9059cbb60e01b84846040516024016117ac929190613aec565b604051602081830303815290604052907bffffffffffffffffffffffffffffffffffffffffffffffffffffffff19166020820180517bffffffffffffffffffffffffffffffffffffffffffffffffffffffff838183161783525050505061248a565b505050565b806008541015611858576040517f08c379a000000000000000000000000000000000000000000000000000000000815260040161184f90613b61565b60405180910390fd5b806008600082825403925050819055507f04be25a4c0fe4c39136ca055daaac08ac6b3041b2e1f2a1b698bac12f1cbdc4a816040516118979190612e00565b60405180910390a150565b6001600081905550565b60007f01ffc9a7000000000000000000000000000000000000000000000000000000007bffffffffffffffffffffffffffffffffffffffffffffffffffffffff1916827bffffffffffffffffffffffffffffffffffffffffffffffffffffffff1916149050919050565b600033905090565b600073ffffffffffffffffffffffffffffffffffffffff168373ffffffffffffffffffffffffffffffffffffffff160361198d576040517f08c379a000000000000000000000000000000000000000000000000000000000815260040161198490613bf3565b60405180910390fd5b600073ffffffffffffffffffffffffffffffffffffffff168273ffffffffffffffffffffffffffffffffffffffff16036119fc576040517f08c379a00000000000000000000000000000000000000000000000000000000081526004016119f390613c85565b60405180910390fd5b80600460008573ffffffffffffffffffffffffffffffffffffffff1673ffffffffffffffffffffffffffffffffffffffff16815260200190815260200160002060008473ffffffffffffffffffffffffffffffffffffffff1673ffffffffffffffffffffffffffffffffffffffff168152602001908152602001600020819055508173ffffffffffffffffffffffffffffffffffffffff168373ffffffffffffffffffffffffffffffffffffffff167f8c5be1e5ebec7d5bd14f71427d1e84f3dd0314c0f7b2291e5b200ac8c7c3b92583604051611ada9190612e00565b60405180910390a3505050565b611af1828261103e565b611bc357600180600084815260200190815260200160002060000160008373ffffffffffffffffffffffffffffffffffffffff1673ffffffffffffffffffffffffffffffffffffffff16815260200190815260200160002060006101000a81548160ff021916908315150217905550611b68611916565b73ffffffffffffffffffffffffffffffffffffffff168173ffffffffffffffffffffffffffffffffffffffff16837f2f8788117e7eff1d82e926ec794901d17c78024a50270940304540a733656f0d60405160405180910390a45b5050565b611bd881611bd3611916565b612552565b50565b611be5828261103e565b15611cb95760006001600084815260200190815260200160002060000160008373ffffffffffffffffffffffffffffffffffffffff1673ffffffffffffffffffffffffffffffffffffffff16815260200190815260200160002060006101000a81548160ff021916908315150217905550611c5e611916565b73ffffffffffffffffffffffffffffffffffffffff168173ffffffffffffffffffffffffffffffffffffffff16837ff6391f5c32d9c69d2a47ea670b442974b53935d1edc7fd64eb21e047a839171b60405160405180910390a45b5050565b6000611cc984846112f3565b90507fffffffffffffffffffffffffffffffffffffffffffffffffffffffffffffffff8114611d435781811015611d35576040517f08c379a0000000000000000000000000000000000000000000000000000000008152600401611d2c90613cf1565b60405180910390fd5b611d42848484840361191e565b5b50505050565b600073ffffffffffffffffffffffffffffffffffffffff168373ffffffffffffffffffffffffffffffffffffffff1603611db8576040517f08c379a0000000000000000000000000000000000000000000000000000000008152600401611daf90613d83565b60405180910390fd5b600073ffffffffffffffffffffffffffffffffffffffff168273ffffffffffffffffffffffffffffffffffffffff1603611e27576040517f08c379a0000000000000000000000000000000000000000000000000000000008152600401611e1e90613e15565b60405180910390fd5b611e32838383612480565b6000600360008573ffffffffffffffffffffffffffffffffffffffff1673ffffffffffffffffffffffffffffffffffffffff16815260200190815260200160002054905081811015611eb9576040517f08c379a0000000000000000000000000000000000000000000000000000000008152600401611eb090613ea7565b60405180910390fd5b818103600360008673ffffffffffffffffffffffffffffffffffffffff1673ffffffffffffffffffffffffffffffffffffffff1681526020019081526020016000208190555081600360008573ffffffffffffffffffffffffffffffffffffffff1673ffffffffffffffffffffffffffffffffffffffff168152602001908152602001600020600082825401925050819055508273ffffffffffffffffffffffffffffffffffffffff168473ffffffffffffffffffffffffffffffffffffffff167fddf252ad1be2c89b69c2b068fc378daa952ba7f163c4a11628f55a4df523b3ef84604051611fa99190612e00565b60405180910390a3611fbc848484612485565b50505050565b612045846323b872dd60e01b858585604051602401611fe393929190613ec7565b604051602081830303815290604052907bffffffffffffffffffffffffffffffffffffffffffffffffffffffff19166020820180517bffffffffffffffffffffffffffffffffffffffffffffffffffffffff838183161783525050505061248a565b50505050565b600073ffffffffffffffffffffffffffffffffffffffff168273ffffffffffffffffffffffffffffffffffffffff16036120ba576040517f08c379a00000000000000000000000000000000000000000000000000000000081526004016120b190613f4a565b60405180910390fd5b6120c660008383612480565b80600560008282546120d8919061372b565b9250508190555080600360008473ffffffffffffffffffffffffffffffffffffffff1673ffffffffffffffffffffffffffffffffffffffff168152602001908152602001600020600082825401925050819055508173ffffffffffffffffffffffffffffffffffffffff16600073ffffffffffffffffffffffffffffffffffffffff167fddf252ad1be2c89b69c2b068fc378daa952ba7f163c4a11628f55a4df523b3ef8360405161218a9190612e00565b60405180910390a361219e60008383612485565b5050565b806008600082825401925050819055507f04be25a4c0fe4c39136ca055daaac08ac6b3041b2e1f2a1b698bac12f1cbdc4a816040516121e19190612e00565b60405180910390a150565b6121f46114b7565b600a60405161220290613fb6565b9081526020016040518091039020600061221a610f03565b815260200190815260200160002060009054906101000a900460ff161561236d57612288600b60009054906101000a900473ffffffffffffffffffffffffffffffffffffffff16828473ffffffffffffffffffffffffffffffffffffffff166125d79092919063ffffffff16565b600b60009054906101000a900473ffffffffffffffffffffffffffffffffffffffff1673ffffffffffffffffffffffffffffffffffffffff1663e8eda9df83833060006040518563ffffffff1660e01b81526004016122ea949392919061401e565b600060405180830381600087803b15801561230457600080fd5b505af1158015612318573d6000803e3d6000fd5b505050503373ffffffffffffffffffffffffffffffffffffffff167f9338e52d14f0c6df29d1a2a35d95c167710f00f789049c562e7ded11476d5d398383604051612364929190613aec565b60405180910390a25b5050565b612379610f10565b6123b8576040517f08c379a00000000000000000000000000000000000000000000000000000000081526004016123af906140af565b60405180910390fd5b565b6123c2612371565b6000600260006101000a81548160ff0219169083151502179055507f5db9ee0a495bf2e6ff9c91a7834c1ba4fdd244a5e8aa4e537bd38aeae4b073aa612406611916565b60405161241391906135a5565b60405180910390a1565b6124256114b7565b6001600260006101000a81548160ff0219169083151502179055507f62e78cea01bee320cd4e420270b5ea74000d11b0c9f74754ebdbfc544b05a258612469611916565b60405161247691906135a5565b60405180910390a1565b505050565b505050565b60006124ec826040518060400160405280602081526020017f5361666545524332303a206c6f772d6c6576656c2063616c6c206661696c65648152508573ffffffffffffffffffffffffffffffffffffffff166127269092919063ffffffff16565b905060008151148061250e57508080602001905181019061250d91906140e4565b5b61254d576040517f08c379a000000000000000000000000000000000000000000000000000000000815260040161254490614183565b60405180910390fd5b505050565b61255c828261103e565b6125d3576125698161273e565b6125778360001c602061276b565b60405160200161258892919061423b565b6040516020818303038152906040526040517f08c379a00000000000000000000000000000000000000000000000000000000081526004016125ca9190612d8f565b60405180910390fd5b5050565b6000811480612661575060008373ffffffffffffffffffffffffffffffffffffffff1663dd62ed3e30856040518363ffffffff1660e01b815260040161261e929190614275565b602060405180830381865afa15801561263b573d6000803e3d6000fd5b505050506040513d601f19601f8201168201806040525081019061265f919061363d565b145b6126a0576040517f08c379a000000000000000000000000000000000000000000000000000000000815260040161269790614310565b60405180910390fd5b6127218363095ea7b360e01b84846040516024016126bf929190613aec565b604051602081830303815290604052907bffffffffffffffffffffffffffffffffffffffffffffffffffffffff19166020820180517bffffffffffffffffffffffffffffffffffffffffffffffffffffffff838183161783525050505061248a565b505050565b606061273584846000856129a7565b90509392505050565b60606127648273ffffffffffffffffffffffffffffffffffffffff16601460ff1661276b565b9050919050565b60606000600283600261277e9190614330565b612788919061372b565b67ffffffffffffffff8111156127a1576127a0612f9e565b5b6040519080825280601f01601f1916602001820160405280156127d35781602001600182028036833780820191505090505b5090507f30000000000000000000000000000000000000000000000000000000000000008160008151811061280b5761280a613839565b5b60200101907effffffffffffffffffffffffffffffffffffffffffffffffffffffffffffff1916908160001a9053507f78000000000000000000000000000000000000000000000000000000000000008160018151811061286f5761286e613839565b5b60200101907effffffffffffffffffffffffffffffffffffffffffffffffffffffffffffff1916908160001a905350600060018460026128af9190614330565b6128b9919061372b565b90505b6001811115612959577f3031323334353637383961626364656600000000000000000000000000000000600f8616601081106128fb576128fa613839565b5b1a60f81b82828151811061291257612911613839565b5b60200101907effffffffffffffffffffffffffffffffffffffffffffffffffffffffffffff1916908160001a905350600485901c94508061295290614372565b90506128bc565b506000841461299d576040517f08c379a0000000000000000000000000000000000000000000000000000000008152600401612994906143e7565b60405180910390fd5b8091505092915050565b6060824710156129ec576040517f08c379a00000000000000000000000000000000000000000000000000000000081526004016129e390614479565b60405180910390fd5b6000808673ffffffffffffffffffffffffffffffffffffffff168587604051612a1591906144e0565b60006040518083038185875af1925050503d8060008114612a52576040519150601f19603f3d011682016040523d82523d6000602084013e612a57565b606091505b5091509150612a6887838387612a74565b92505050949350505050565b60608315612ad6576000835103612ace57612a8e85612ae9565b612acd576040517f08c379a0000000000000000000000000000000000000000000000000000000008152600401612ac490614543565b60405180910390fd5b5b829050612ae1565b612ae08383612b0c565b5b949350505050565b6000808273ffffffffffffffffffffffffffffffffffffffff163b119050919050565b600082511115612b1f5781518083602001fd5b806040517f08c379a0000000000000000000000000000000000000000000000000000000008152600401612b539190612d8f565b60405180910390fd5b6000604051905090565b600080fd5b600080fd5b6000819050919050565b612b8381612b70565b8114612b8e57600080fd5b50565b600081359050612ba081612b7a565b92915050565b600073ffffffffffffffffffffffffffffffffffffffff82169050919050565b6000612bd182612ba6565b9050919050565b612be181612bc6565b8114612bec57600080fd5b50565b600081359050612bfe81612bd8565b92915050565b60008060408385031215612c1b57612c1a612b66565b5b6000612c2985828601612b91565b9250506020612c3a85828601612bef565b9150509250929050565b60008115159050919050565b612c5981612c44565b82525050565b6000602082019050612c746000830184612c50565b92915050565b60007fffffffff0000000000000000000000000000000000000000000000000000000082169050919050565b612caf81612c7a565b8114612cba57600080fd5b50565b600081359050612ccc81612ca6565b92915050565b600060208284031215612ce857612ce7612b66565b5b6000612cf684828501612cbd565b91505092915050565b600081519050919050565b600082825260208201905092915050565b60005b83811015612d39578082015181840152602081019050612d1e565b60008484015250505050565b6000601f19601f8301169050919050565b6000612d6182612cff565b612d6b8185612d0a565b9350612d7b818560208601612d1b565b612d8481612d45565b840191505092915050565b60006020820190508181036000830152612da98184612d56565b905092915050565b60008060408385031215612dc857612dc7612b66565b5b6000612dd685828601612bef565b9250506020612de785828601612b91565b9150509250929050565b612dfa81612b70565b82525050565b6000602082019050612e156000830184612df1565b92915050565b600060208284031215612e3157612e30612b66565b5b6000612e3f84828501612bef565b91505092915050565b612e5181612c44565b8114612e5c57600080fd5b50565b600081359050612e6e81612e48565b92915050565b60008060408385031215612e8b57612e8a612b66565b5b6000612e9985828601612e5f565b9250506020612eaa85828601612bef565b9150509250929050565b600080600060608486031215612ecd57612ecc612b66565b5b6000612edb86828701612bef565b9350506020612eec86828701612bef565b9250506040612efd86828701612b91565b9150509250925092565b6000819050919050565b612f1a81612f07565b8114612f2557600080fd5b50565b600081359050612f3781612f11565b92915050565b600060208284031215612f5357612f52612b66565b5b6000612f6184828501612f28565b91505092915050565b612f7381612f07565b82525050565b6000602082019050612f8e6000830184612f6a565b92915050565b600080fd5b600080fd5b7f4e487b7100000000000000000000000000000000000000000000000000000000600052604160045260246000fd5b612fd682612d45565b810181811067ffffffffffffffff82111715612ff557612ff4612f9e565b5b80604052505050565b6000613008612b5c565b90506130148282612fcd565b919050565b600067ffffffffffffffff82111561303457613033612f9e565b5b61303d82612d45565b9050602081019050919050565b82818337600083830152505050565b600061306c61306784613019565b612ffe565b90508281526020810184848401111561308857613087612f99565b5b61309384828561304a565b509392505050565b600082601f8301126130b0576130af612f94565b5b81356130c0848260208601613059565b91505092915050565b6000602082840312156130df576130de612b66565b5b600082013567ffffffffffffffff8111156130fd576130fc612b6b565b5b6131098482850161309b565b91505092915050565b60008060006060848603121561312b5761312a612b66565b5b600061313986828701612b91565b935050602061314a86828701612bef565b925050604061315b86828701612bef565b9150509250925092565b6000806040838503121561317c5761317b612b66565b5b600061318a85828601612f28565b925050602061319b85828601612bef565b9150509250929050565b600060ff82169050919050565b6131bb816131a5565b82525050565b60006020820190506131d660008301846131b2565b92915050565b600080604083850312156131f3576131f2612b66565b5b600083013567ffffffffffffffff81111561321157613210612b6b565b5b61321d8582860161309b565b925050602061322e85828601612b91565b9150509250929050565b60008060006060848603121561325157613250612b66565b5b600061325f86828701612bef565b935050602061327086828701612bef565b925050604061328186828701612bef565b9150509250925092565b600080604083850312156132a2576132a1612b66565b5b60006132b085828601612bef565b92505060206132c185828601612bef565b9150509250929050565b600067ffffffffffffffff8211156132e6576132e5612f9e565b5b602082029050602081019050919050565b600080fd5b600061330f61330a846132cb565b612ffe565b90508083825260208201905060208402830185811115613332576133316132f7565b5b835b8181101561335b57806133478882612b91565b845260208401935050602081019050613334565b5050509392505050565b600082601f83011261337a57613379612f94565b5b813561338a8482602086016132fc565b91505092915050565b600080604083850312156133aa576133a9612b66565b5b600083013567ffffffffffffffff8111156133c8576133c7612b6b565b5b6133d48582860161309b565b925050602083013567ffffffffffffffff8111156133f5576133f4612b6b565b5b61340185828601613365565b9150509250929050565b7f496e73756666696369656e742062616c616e6365000000000000000000000000600082015250565b6000613441601483612d0a565b915061344c8261340b565b602082019050919050565b6000602082019050818103600083015261347081613434565b9050919050565b7f4e487b7100000000000000000000000000000000000000000000000000000000600052602260045260246000fd5b600060028204905060018216806134be57607f821691505b6020821081036134d1576134d0613477565b5b50919050565b7f43616c6c6572206973206e6f7420617574686f72697a65640000000000000000600082015250565b600061350d601883612d0a565b9150613518826134d7565b602082019050919050565b6000602082019050818103600083015261353c81613500565b9050919050565b600081905092915050565b600061355982612cff565b6135638185613543565b9350613573818560208601612d1b565b80840191505092915050565b600061358b828461354e565b915081905092915050565b61359f81612bc6565b82525050565b60006020820190506135ba6000830184613596565b92915050565b6000815190506135cf81612bd8565b92915050565b6000806000606084860312156135ee576135ed612b66565b5b60006135fc868287016135c0565b935050602061360d868287016135c0565b925050604061361e868287016135c0565b9150509250925092565b60008151905061363781612b7a565b92915050565b60006020828403121561365357613652612b66565b5b600061366184828501613628565b91505092915050565b7f416363657373436f6e74726f6c3a2063616e206f6e6c792072656e6f756e636560008201527f20726f6c657320666f722073656c660000000000000000000000000000000000602082015250565b60006136c6602f83612d0a565b91506136d18261366a565b604082019050919050565b600060208201905081810360008301526136f5816136b9565b9050919050565b7f4e487b7100000000000000000000000000000000000000000000000000000000600052601160045260246000fd5b600061373682612b70565b915061374183612b70565b9250828201905080821115613759576137586136fc565b5b92915050565b7f45524332303a2064656372656173656420616c6c6f77616e63652062656c6f7760008201527f207a65726f000000000000000000000000000000000000000000000000000000602082015250565b60006137bb602583612d0a565b91506137c68261375f565b604082019050919050565b600060208201905081810360008301526137ea816137ae565b9050919050565b60006137fc82612b70565b91507fffffffffffffffffffffffffffffffffffffffffffffffffffffffffffffffff820361382e5761382d6136fc565b5b600182019050919050565b7f4e487b7100000000000000000000000000000000000000000000000000000000600052603260045260246000fd5b7f5265656e7472616e637947756172643a207265656e7472616e742063616c6c00600082015250565b600061389e601f83612d0a565b91506138a982613868565b602082019050919050565b600060208201905081810360008301526138cd81613891565b9050919050565b7f5061757361626c653a2070617573656400000000000000000000000000000000600082015250565b600061390a601083612d0a565b9150613915826138d4565b602082019050919050565b60006020820190508181036000830152613939816138fd565b9050919050565b613949816131a5565b811461395457600080fd5b50565b60008151905061396681613940565b92915050565b60006020828403121561398257613981612b66565b5b600061399084828501613957565b91505092915050565b7f4e487b7100000000000000000000000000000000000000000000000000000000600052601260045260246000fd5b7f45524332303a206275726e2066726f6d20746865207a65726f2061646472657360008201527f7300000000000000000000000000000000000000000000000000000000000000602082015250565b6000613a24602183612d0a565b9150613a2f826139c8565b604082019050919050565b60006020820190508181036000830152613a5381613a17565b9050919050565b7f45524332303a206275726e20616d6f756e7420657863656564732062616c616e60008201527f6365000000000000000000000000000000000000000000000000000000000000602082015250565b6000613ab6602283612d0a565b9150613ac182613a5a565b604082019050919050565b60006020820190508181036000830152613ae581613aa9565b9050919050565b6000604082019050613b016000830185613596565b613b0e6020830184612df1565b9392505050565b7f496e73756666696369656e74207661756c742062616c616e6365000000000000600082015250565b6000613b4b601a83612d0a565b9150613b5682613b15565b602082019050919050565b60006020820190508181036000830152613b7a81613b3e565b9050919050565b7f45524332303a20617070726f76652066726f6d20746865207a65726f2061646460008201527f7265737300000000000000000000000000000000000000000000000000000000602082015250565b6000613bdd602483612d0a565b9150613be882613b81565b604082019050919050565b60006020820190508181036000830152613c0c81613bd0565b9050919050565b7f45524332303a20617070726f766520746f20746865207a65726f20616464726560008201527f7373000000000000000000000000000000000000000000000000000000000000602082015250565b6000613c6f602283612d0a565b9150613c7a82613c13565b604082019050919050565b60006020820190508181036000830152613c9e81613c62565b9050919050565b7f45524332303a20696e73756666696369656e7420616c6c6f77616e6365000000600082015250565b6000613cdb601d83612d0a565b9150613ce682613ca5565b602082019050919050565b60006020820190508181036000830152613d0a81613cce565b9050919050565b7f45524332303a207472616e736665722066726f6d20746865207a65726f20616460008201527f6472657373000000000000000000000000000000000000000000000000000000602082015250565b6000613d6d602583612d0a565b9150613d7882613d11565b604082019050919050565b60006020820190508181036000830152613d9c81613d60565b9050919050565b7f45524332303a207472616e7366657220746f20746865207a65726f206164647260008201527f6573730000000000000000000000000000000000000000000000000000000000602082015250565b6000613dff602383612d0a565b9150613e0a82613da3565b604082019050919050565b60006020820190508181036000830152613e2e81613df2565b9050919050565b7f45524332303a207472616e7366657220616d6f756e742065786365656473206260008201527f616c616e63650000000000000000000000000000000000000000000000000000602082015250565b6000613e91602683612d0a565b9150613e9c82613e35565b604082019050919050565b60006020820190508181036000830152613ec081613e84565b9050919050565b6000606082019050613edc6000830186613596565b613ee96020830185613596565b613ef66040830184612df1565b949350505050565b7f45524332303a206d696e7420746f20746865207a65726f206164647265737300600082015250565b6000613f34601f83612d0a565b9150613f3f82613efe565b602082019050919050565b60006020820190508181036000830152613f6381613f27565b9050919050565b7f6465706f73697441617665000000000000000000000000000000000000000000600082015250565b6000613fa0600b83613543565b9150613fab82613f6a565b600b82019050919050565b6000613fc182613f93565b9150819050919050565b6000819050919050565b600061ffff82169050919050565b6000819050919050565b6000614008614003613ffe84613fcb565b613fe3565b613fd5565b9050919050565b61401881613fed565b82525050565b60006080820190506140336000830187613596565b6140406020830186612df1565b61404d6040830185613596565b61405a606083018461400f565b95945050505050565b7f5061757361626c653a206e6f7420706175736564000000000000000000000000600082015250565b6000614099601483612d0a565b91506140a482614063565b602082019050919050565b600060208201905081810360008301526140c88161408c565b9050919050565b6000815190506140de81612e48565b92915050565b6000602082840312156140fa576140f9612b66565b5b6000614108848285016140cf565b91505092915050565b7f5361666545524332303a204552433230206f7065726174696f6e20646964206e60008201527f6f74207375636365656400000000000000000000000000000000000000000000602082015250565b600061416d602a83612d0a565b915061417882614111565b604082019050919050565b6000602082019050818103600083015261419c81614160565b9050919050565b7f416363657373436f6e74726f6c3a206163636f756e7420000000000000000000600082015250565b60006141d9601783613543565b91506141e4826141a3565b601782019050919050565b7f206973206d697373696e6720726f6c6520000000000000000000000000000000600082015250565b6000614225601183613543565b9150614230826141ef565b601182019050919050565b6000614246826141cc565b9150614252828561354e565b915061425d82614218565b9150614269828461354e565b91508190509392505050565b600060408201905061428a6000830185613596565b6142976020830184613596565b9392505050565b7f5361666545524332303a20617070726f76652066726f6d206e6f6e2d7a65726f60008201527f20746f206e6f6e2d7a65726f20616c6c6f77616e636500000000000000000000602082015250565b60006142fa603683612d0a565b91506143058261429e565b604082019050919050565b60006020820190508181036000830152614329816142ed565b9050919050565b600061433b82612b70565b915061434683612b70565b925082820261435481612b70565b9150828204841483151761436b5761436a6136fc565b5b5092915050565b600061437d82612b70565b9150600082036143905761438f6136fc565b5b600182039050919050565b7f537472696e67733a20686578206c656e67746820696e73756666696369656e74600082015250565b60006143d1602083612d0a565b91506143dc8261439b565b602082019050919050565b60006020820190508181036000830152614400816143c4565b9050919050565b7f416464726573733a20696e73756666696369656e742062616c616e636520666f60008201527f722063616c6c0000000000000000000000000000000000000000000000000000602082015250565b6000614463602683612d0a565b915061446e82614407565b604082019050919050565b6000602082019050818103600083015261449281614456565b9050919050565b600081519050919050565b600081905092915050565b60006144ba82614499565b6144c481856144a4565b93506144d4818560208601612d1b565b80840191505092915050565b60006144ec82846144af565b915081905092915050565b7f416464726573733a2063616c6c20746f206e6f6e2d636f6e7472616374000000600082015250565b600061452d601d83612d0a565b9150614538826144f7565b602082019050919050565b6000602082019050818103600083015261455c81614520565b905091905056fea26469706673582212200899eb07cc8ffecc891589dd208bd9d20d335dd6e69d51a02ec0f9a4710d311464736f6c63430008140033",
  "linkReferences": {},
  "deployedLinkReferences": {}
}