{
  "_format": "hh-sol-artifact-1",
  "contractName": "StableVault",
  "sourceName": "contracts/StableVault.sol",
  "abi": [
    {
      "inputs": [
        {
          "internalType": "address",
          "name": "admin",
          "type": "address"
        },
        {
          "internalType": "string",
          "name": "tokenName",
          "type": "string"
        },
        {
          "internalType": "string",
          "name": "tokenSymbol",
          "type": "string"
        }
      ],
      "stateMutability": "nonpayable",
      "type": "constructor"
    },
    {
      "anonymous": false,
      "inputs": [
        {
          "indexed": true,
          "internalType": "address",
          "name": "owner",
          "type": "address"
        },
        {
          "indexed": true,
          "internalType": "address",
          "name": "spender",
          "type": "address"
        },
        {
          "indexed": false,
          "internalType": "uint256",
          "name": "value",
          "type": "uint256"
        }
      ],
      "name": "Approval",
      "type": "event"
    },
    {
      "anonymous": false,
      "inputs": [
        {
          "indexed": false,
          "internalType": "uint256",
          "name": "_vaultBalance",
          "type": "uint256"
        }
      ],
      "name": "BalanceUpdated",
      "type": "event"
    },
    {
      "anonymous": false,
      "inputs": [
        {
          "indexed": true,
          "internalType": "address",
          "name": "user",
          "type": "address"
        },
        {
          "indexed": false,
          "internalType": "address",
          "name": "asset",
          "type": "address"
        },
        {
          "indexed": false,
          "internalType": "uint256",
          "name": "amount",
          "type": "uint256"
        }
      ],
      "name": "DepositAave",
      "type": "event"
    },
    {
      "anonymous": false,
      "inputs": [
        {
          "indexed": true,
          "internalType": "address",
          "name": "new_admin",
          "type": "address"
        }
      ],
      "name": "NewAdminAdded",
      "type": "event"
    },
    {
      "anonymous": false,
      "inputs": [
        {
          "indexed": true,
          "internalType": "address",
          "name": "profile",
          "type": "address"
        }
      ],
      "name": "NewProfileAdded",
      "type": "event"
    },
    {
      "anonymous": false,
      "inputs": [
        {
          "indexed": false,
          "internalType": "address",
          "name": "account",
          "type": "address"
        }
      ],
      "name": "Paused",
      "type": "event"
    },
    {
      "anonymous": false,
      "inputs": [
        {
          "indexed": true,
          "internalType": "address",
          "name": "removed_admin",
          "type": "address"
        }
      ],
      "name": "RemovedAdmin",
      "type": "event"
    },
    {
      "anonymous": false,
      "inputs": [
        {
          "indexed": true,
          "internalType": "bytes32",
          "name": "role",
          "type": "bytes32"
        },
        {
          "indexed": true,
          "internalType": "bytes32",
          "name": "previousAdminRole",
          "type": "bytes32"
        },
        {
          "indexed": true,
          "internalType": "bytes32",
          "name": "newAdminRole",
          "type": "bytes32"
        }
      ],
      "name": "RoleAdminChanged",
      "type": "event"
    },
    {
      "anonymous": false,
      "inputs": [
        {
          "indexed": true,
          "internalType": "bytes32",
          "name": "role",
          "type": "bytes32"
        },
        {
          "indexed": true,
          "internalType": "address",
          "name": "account",
          "type": "address"
        },
        {
          "indexed": true,
          "internalType": "address",
          "name": "sender",
          "type": "address"
        }
      ],
      "name": "RoleGranted",
      "type": "event"
    },
    {
      "anonymous": false,
      "inputs": [
        {
          "indexed": true,
          "internalType": "bytes32",
          "name": "role",
          "type": "bytes32"
        },
        {
          "indexed": true,
          "internalType": "address",
          "name": "account",
          "type": "address"
        },
        {
          "indexed": true,
          "internalType": "address",
          "name": "sender",
          "type": "address"
        }
      ],
      "name": "RoleRevoked",
      "type": "event"
    },
    {
      "anonymous": false,
      "inputs": [
        {
          "indexed": true,
          "internalType": "address",
          "name": "from",
          "type": "address"
        },
        {
          "indexed": true,
          "internalType": "address",
          "name": "to",
          "type": "address"
        },
        {
          "indexed": false,
          "internalType": "uint256",
          "name": "value",
          "type": "uint256"
        }
      ],
      "name": "Transfer",
      "type": "event"
    },
    {
      "anonymous": false,
      "inputs": [
        {
          "indexed": false,
          "internalType": "address",
          "name": "account",
          "type": "address"
        }
      ],
      "name": "Unpaused",
      "type": "event"
    },
    {
      "anonymous": false,
      "inputs": [
        {
          "indexed": true,
          "internalType": "address",
          "name": "user",
          "type": "address"
        },
        {
          "indexed": false,
          "internalType": "uint256",
          "name": "amount",
          "type": "uint256"
        },
        {
          "indexed": true,
          "internalType": "address",
          "name": "asset",
          "type": "address"
        }
      ],
      "name": "Withdrawal",
      "type": "event"
    },
    {
      "inputs": [],
      "name": "CHANGE_PARAMETERS",
      "outputs": [
        {
          "internalType": "bytes32",
          "name": "",
          "type": "bytes32"
        }
      ],
      "stateMutability": "view",
      "type": "function"
    },
    {
      "inputs": [],
      "name": "DEFAULT_ADMIN_ROLE",
      "outputs": [
        {
          "internalType": "bytes32",
          "name": "",
          "type": "bytes32"
        }
      ],
      "stateMutability": "view",
      "type": "function"
    },
    {
      "inputs": [
        {
          "internalType": "address",
          "name": "account",
          "type": "address"
        }
      ],
      "name": "addAdmin",
      "outputs": [],
      "stateMutability": "nonpayable",
      "type": "function"
    },
    {
      "inputs": [
        {
          "internalType": "address",
          "name": "account",
          "type": "address"
        }
      ],
      "name": "addProfile",
      "outputs": [],
      "stateMutability": "nonpayable",
      "type": "function"
    },
    {
      "inputs": [
        {
          "internalType": "address",
          "name": "owner",
          "type": "address"
        },
        {
          "internalType": "address",
          "name": "spender",
          "type": "address"
        }
      ],
      "name": "allowance",
      "outputs": [
        {
          "internalType": "uint256",
          "name": "",
          "type": "uint256"
        }
      ],
      "stateMutability": "view",
      "type": "function"
    },
    {
      "inputs": [
        {
          "internalType": "address",
          "name": "spender",
          "type": "address"
        },
        {
          "internalType": "uint256",
          "name": "amount",
          "type": "uint256"
        }
      ],
      "name": "approve",
      "outputs": [
        {
          "internalType": "bool",
          "name": "",
          "type": "bool"
        }
      ],
      "stateMutability": "nonpayable",
      "type": "function"
    },
    {
      "inputs": [
        {
          "internalType": "address",
          "name": "account",
          "type": "address"
        }
      ],
      "name": "balanceOf",
      "outputs": [
        {
          "internalType": "uint256",
          "name": "",
          "type": "uint256"
        }
      ],
      "stateMutability": "view",
      "type": "function"
    },
    {
      "inputs": [],
      "name": "decimals",
      "outputs": [
        {
          "internalType": "uint8",
          "name": "",
          "type": "uint8"
        }
      ],
      "stateMutability": "view",
      "type": "function"
    },
    {
      "inputs": [
        {
          "internalType": "address",
          "name": "spender",
          "type": "address"
        },
        {
          "internalType": "uint256",
          "name": "subtractedValue",
          "type": "uint256"
        }
      ],
      "name": "decreaseAllowance",
      "outputs": [
        {
          "internalType": "bool",
          "name": "",
          "type": "bool"
        }
      ],
      "stateMutability": "nonpayable",
      "type": "function"
    },
    {
      "inputs": [
        {
          "internalType": "uint256",
          "name": "amount",
          "type": "uint256"
        },
        {
          "internalType": "address",
          "name": "_asset",
          "type": "address"
        },
        {
          "internalType": "address",
          "name": "_beneficiary",
          "type": "address"
        }
      ],
      "name": "deposit",
      "outputs": [
        {
          "internalType": "bool",
          "name": "",
          "type": "bool"
        }
      ],
      "stateMutability": "nonpayable",
      "type": "function"
    },
    {
      "inputs": [
        {
          "internalType": "address",
          "name": "_asset",
          "type": "address"
        }
      ],
      "name": "getAaveBalance",
      "outputs": [
        {
          "internalType": "uint256",
          "name": "",
          "type": "uint256"
        }
      ],
      "stateMutability": "view",
      "type": "function"
    },
    {
      "inputs": [],
      "name": "getChainID",
      "outputs": [
        {
          "internalType": "uint256",
          "name": "",
          "type": "uint256"
        }
      ],
      "stateMutability": "view",
      "type": "function"
    },
    {
      "inputs": [
        {
          "internalType": "bytes32",
          "name": "role",
          "type": "bytes32"
        }
      ],
      "name": "getRoleAdmin",
      "outputs": [
        {
          "internalType": "bytes32",
          "name": "",
          "type": "bytes32"
        }
      ],
      "stateMutability": "view",
      "type": "function"
    },
    {
      "inputs": [
        {
          "internalType": "bytes32",
          "name": "role",
          "type": "bytes32"
        },
        {
          "internalType": "address",
          "name": "account",
          "type": "address"
        }
      ],
      "name": "grantRole",
      "outputs": [],
      "stateMutability": "nonpayable",
      "type": "function"
    },
    {
      "inputs": [
        {
          "internalType": "bytes32",
          "name": "role",
          "type": "bytes32"
        },
        {
          "internalType": "address",
          "name": "account",
          "type": "address"
        }
      ],
      "name": "hasRole",
      "outputs": [
        {
          "internalType": "bool",
          "name": "",
          "type": "bool"
        }
      ],
      "stateMutability": "view",
      "type": "function"
    },
    {
      "inputs": [
        {
          "internalType": "address",
          "name": "spender",
          "type": "address"
        },
        {
          "internalType": "uint256",
          "name": "addedValue",
          "type": "uint256"
        }
      ],
      "name": "increaseAllowance",
      "outputs": [
        {
          "internalType": "bool",
          "name": "",
          "type": "bool"
        }
      ],
      "stateMutability": "nonpayable",
      "type": "function"
    },
    {
      "inputs": [
        {
          "internalType": "string",
          "name": "functionName",
          "type": "string"
        }
      ],
      "name": "isValidNetworkForFunction",
      "outputs": [
        {
          "internalType": "bool",
          "name": "",
          "type": "bool"
        }
      ],
      "stateMutability": "view",
      "type": "function"
    },
    {
      "inputs": [],
      "name": "name",
      "outputs": [
        {
          "internalType": "string",
          "name": "",
          "type": "string"
        }
      ],
      "stateMutability": "view",
      "type": "function"
    },
    {
      "inputs": [],
      "name": "pause",
      "outputs": [],
      "stateMutability": "nonpayable",
      "type": "function"
    },
    {
      "inputs": [],
      "name": "paused",
      "outputs": [
        {
          "internalType": "bool",
          "name": "",
          "type": "bool"
        }
      ],
      "stateMutability": "view",
      "type": "function"
    },
    {
      "inputs": [
        {
          "internalType": "address",
          "name": "account",
          "type": "address"
        }
      ],
      "name": "removeAdmin",
      "outputs": [],
      "stateMutability": "nonpayable",
      "type": "function"
    },
    {
      "inputs": [
        {
          "internalType": "bytes32",
          "name": "role",
          "type": "bytes32"
        },
        {
          "internalType": "address",
          "name": "account",
          "type": "address"
        }
      ],
      "name": "renounceRole",
      "outputs": [],
      "stateMutability": "nonpayable",
      "type": "function"
    },
    {
      "inputs": [
        {
          "internalType": "bytes32",
          "name": "role",
          "type": "bytes32"
        },
        {
          "internalType": "address",
          "name": "account",
          "type": "address"
        }
      ],
      "name": "revokeRole",
      "outputs": [],
      "stateMutability": "nonpayable",
      "type": "function"
    },
    {
      "inputs": [
        {
          "internalType": "address",
          "name": "_AAVE_DATA_PROVIDER",
          "type": "address"
        },
        {
          "internalType": "address",
          "name": "_AAVE_INCENTIVES_CONTROLLER",
          "type": "address"
        },
        {
          "internalType": "address",
          "name": "_AAVE_LENDING_POOL",
          "type": "address"
        }
      ],
      "name": "setAaveSettings",
      "outputs": [],
      "stateMutability": "nonpayable",
      "type": "function"
    },
    {
      "inputs": [
        {
          "internalType": "bool",
          "name": "useCompound",
          "type": "bool"
        },
        {
          "internalType": "address",
          "name": "wallet",
          "type": "address"
        }
      ],
      "name": "setUserCompoundPreference",
      "outputs": [],
      "stateMutability": "nonpayable",
      "type": "function"
    },
    {
      "inputs": [
        {
          "internalType": "bytes4",
          "name": "interfaceId",
          "type": "bytes4"
        }
      ],
      "name": "supportsInterface",
      "outputs": [
        {
          "internalType": "bool",
          "name": "",
          "type": "bool"
        }
      ],
      "stateMutability": "view",
      "type": "function"
    },
    {
      "inputs": [],
      "name": "symbol",
      "outputs": [
        {
          "internalType": "string",
          "name": "",
          "type": "string"
        }
      ],
      "stateMutability": "view",
      "type": "function"
    },
    {
      "inputs": [],
      "name": "totalSupply",
      "outputs": [
        {
          "internalType": "uint256",
          "name": "",
          "type": "uint256"
        }
      ],
      "stateMutability": "view",
      "type": "function"
    },
    {
      "inputs": [
        {
          "internalType": "address",
          "name": "to",
          "type": "address"
        },
        {
          "internalType": "uint256",
          "name": "amount",
          "type": "uint256"
        }
      ],
      "name": "transfer",
      "outputs": [
        {
          "internalType": "bool",
          "name": "",
          "type": "bool"
        }
      ],
      "stateMutability": "nonpayable",
      "type": "function"
    },
    {
      "inputs": [
        {
          "internalType": "address",
          "name": "from",
          "type": "address"
        },
        {
          "internalType": "address",
          "name": "to",
          "type": "address"
        },
        {
          "internalType": "uint256",
          "name": "amount",
          "type": "uint256"
        }
      ],
      "name": "transferFrom",
      "outputs": [
        {
          "internalType": "bool",
          "name": "",
          "type": "bool"
        }
      ],
      "stateMutability": "nonpayable",
      "type": "function"
    },
    {
      "inputs": [],
      "name": "unpause",
      "outputs": [],
      "stateMutability": "nonpayable",
      "type": "function"
    },
    {
      "inputs": [
        {
          "internalType": "string",
          "name": "functionName",
          "type": "string"
        },
        {
          "internalType": "uint256[]",
          "name": "chainIDs",
          "type": "uint256[]"
        }
      ],
      "name": "updateValidNetworks",
      "outputs": [],
      "stateMutability": "nonpayable",
      "type": "function"
    },
    {
      "inputs": [
        {
          "internalType": "address",
          "name": "",
          "type": "address"
        }
      ],
      "name": "userSetCompound",
      "outputs": [
        {
          "internalType": "bool",
          "name": "",
          "type": "bool"
        }
      ],
      "stateMutability": "view",
      "type": "function"
    },
    {
      "inputs": [
        {
          "internalType": "string",
          "name": "",
          "type": "string"
        },
        {
          "internalType": "uint256",
          "name": "",
          "type": "uint256"
        }
      ],
      "name": "validNetworks",
      "outputs": [
        {
          "internalType": "bool",
          "name": "",
          "type": "bool"
        }
      ],
      "stateMutability": "view",
      "type": "function"
    },
    {
      "inputs": [],
      "name": "vaultBalance",
      "outputs": [
        {
          "internalType": "uint256",
          "name": "",
          "type": "uint256"
        }
      ],
      "stateMutability": "view",
      "type": "function"
    },
    {
      "inputs": [
        {
          "internalType": "uint256",
          "name": "amount",
          "type": "uint256"
        },
        {
          "internalType": "address",
          "name": "_asset",
          "type": "address"
        }
      ],
      "name": "withdraw",
      "outputs": [
        {
          "internalType": "bool",
          "name": "",
          "type": "bool"
        }
      ],
      "stateMutability": "nonpayable",
      "type": "function"
    }
  ],
  "bytecode": "0x60806040523480156200001157600080fd5b5060405162004d5138038062004d51833981810160405281019062000037919062000430565b81818460016000819055506000600260006101000a81548160ff021916908315150217905550620000726000801b82620000d460201b60201c565b620000a47f73fd536265c26e6e13263018bc9d82a9b962a7857ae70dac847fd743f5e7153582620000d460201b60201c565b508160069081620000b6919062000715565b508060079081620000c8919062000715565b505050505050620007fc565b620000e68282620001c560201b60201c565b620001c157600180600084815260200190815260200160002060000160008373ffffffffffffffffffffffffffffffffffffffff1673ffffffffffffffffffffffffffffffffffffffff16815260200190815260200160002060006101000a81548160ff021916908315150217905550620001666200023060201b60201c565b73ffffffffffffffffffffffffffffffffffffffff168173ffffffffffffffffffffffffffffffffffffffff16837f2f8788117e7eff1d82e926ec794901d17c78024a50270940304540a733656f0d60405160405180910390a45b5050565b60006001600084815260200190815260200160002060000160008373ffffffffffffffffffffffffffffffffffffffff1673ffffffffffffffffffffffffffffffffffffffff16815260200190815260200160002060009054906101000a900460ff16905092915050565b600033905090565b6000604051905090565b600080fd5b600080fd5b600073ffffffffffffffffffffffffffffffffffffffff82169050919050565b600062000279826200024c565b9050919050565b6200028b816200026c565b81146200029757600080fd5b50565b600081519050620002ab8162000280565b92915050565b600080fd5b600080fd5b6000601f19601f8301169050919050565b7f4e487b7100000000000000000000000000000000000000000000000000000000600052604160045260246000fd5b6200030682620002bb565b810181811067ffffffffffffffff82111715620003285762000327620002cc565b5b80604052505050565b60006200033d62000238565b90506200034b8282620002fb565b919050565b600067ffffffffffffffff8211156200036e576200036d620002cc565b5b6200037982620002bb565b9050602081019050919050565b60005b83811015620003a657808201518184015260208101905062000389565b60008484015250505050565b6000620003c9620003c38462000350565b62000331565b905082815260208101848484011115620003e857620003e7620002b6565b5b620003f584828562000386565b509392505050565b600082601f830112620004155762000414620002b1565b5b815162000427848260208601620003b2565b91505092915050565b6000806000606084860312156200044c576200044b62000242565b5b60006200045c868287016200029a565b935050602084015167ffffffffffffffff81111562000480576200047f62000247565b5b6200048e86828701620003fd565b925050604084015167ffffffffffffffff811115620004b257620004b162000247565b5b620004c086828701620003fd565b9150509250925092565b600081519050919050565b7f4e487b7100000000000000000000000000000000000000000000000000000000600052602260045260246000fd5b600060028204905060018216806200051d57607f821691505b602082108103620005335762000532620004d5565b5b50919050565b60008190508160005260206000209050919050565b60006020601f8301049050919050565b600082821b905092915050565b6000600883026200059d7fffffffffffffffffffffffffffffffffffffffffffffffffffffffffffffffff826200055e565b620005a986836200055e565b95508019841693508086168417925050509392505050565b6000819050919050565b6000819050919050565b6000620005f6620005f0620005ea84620005c1565b620005cb565b620005c1565b9050919050565b6000819050919050565b6200061283620005d5565b6200062a6200062182620005fd565b8484546200056b565b825550505050565b600090565b6200064162000632565b6200064e81848462000607565b505050565b5b8181101562000676576200066a60008262000637565b60018101905062000654565b5050565b601f821115620006c5576200068f8162000539565b6200069a846200054e565b81016020851015620006aa578190505b620006c2620006b9856200054e565b83018262000653565b50505b505050565b600082821c905092915050565b6000620006ea60001984600802620006ca565b1980831691505092915050565b6000620007058383620006d7565b9150826002028217905092915050565b6200072082620004ca565b67ffffffffffffffff8111156200073c576200073b620002cc565b5b62000748825462000504565b620007558282856200067a565b600060209050601f8311600181146200078d576000841562000778578287015190505b620007848582620006f7565b865550620007f4565b601f1984166200079d8662000539565b60005b82811015620007c757848901518255600182019150602085019450602081019050620007a0565b86831015620007e75784890151620007e3601f891682620006d7565b8355505b6001600288020188555050505b505050505050565b614545806200080c6000396000f3fe608060405234801561001057600080fd5b506004361061021b5760003560e01c80633f4ba83a1161012557806395d89b41116100ad578063a9059cbb1161007c578063a9059cbb1461068a578063d14eaf2b146106ba578063d547741f146106d6578063dd62ed3e146106f2578063fd1a9166146107225761021b565b806395d89b41146105ee578063a217fddf1461060c578063a457c2d71461062a578063a806c4571461065a5761021b565b806370480275116100f4578063704802751461053857806370a08231146105545780638456cb59146105845780638ac466481461058e57806391d14854146105be5761021b565b80633f4ba83a146104d45780634f7cd72f146104de578063564b81ef146104fc5780635c975abb1461051a5761021b565b806323b872dd116101a85780632f2ff15d116101775780632f2ff15d1461041e578063313ce5671461043a57806331e8cab21461045857806336568abe1461048857806339509351146104a45761021b565b806323b872dd1461035e578063248a9ca31461038e5780632c05ad27146103be5780632e2d2984146103ee5761021b565b80630bf6cc08116101ef5780630bf6cc08146102ce57806310143a64146102ec5780631785f53c1461030857806318160ddd14610324578063190d7d82146103425761021b565b8062f714ce1461022057806301ffc9a71461025057806306fdde0314610280578063095ea7b31461029e575b600080fd5b61023a60048036038101906102359190612bf8565b61073e565b6040516102479190612c53565b60405180910390f35b61026a60048036038101906102659190612cc6565b61085e565b6040516102779190612c53565b60405180910390f35b6102886108d8565b6040516102959190612d83565b60405180910390f35b6102b860048036038101906102b39190612da5565b61096a565b6040516102c59190612c53565b60405180910390f35b6102d661098d565b6040516102e39190612df4565b60405180910390f35b61030660048036038101906103019190612e0f565b610997565b005b610322600480360381019061031d9190612e0f565b610a0f565b005b61032c610a78565b6040516103399190612df4565b60405180910390f35b61035c60048036038101906103579190612e68565b610a82565b005b61037860048036038101906103739190612ea8565b610b46565b6040516103859190612c53565b60405180910390f35b6103a860048036038101906103a39190612f31565b610b75565b6040516103b59190612f6d565b60405180910390f35b6103d860048036038101906103d391906130bd565b610b95565b6040516103e59190612c53565b60405180910390f35b61040860048036038101906104039190613106565b610be2565b6040516104159190612c53565b60405180910390f35b61043860048036038101906104339190613159565b610cb3565b005b610442610cd4565b60405161044f91906131b5565b60405180910390f35b610472600480360381019061046d9190612e0f565b610cdd565b60405161047f9190612df4565b60405180910390f35b6104a2600480360381019061049d9190613159565b610e05565b005b6104be60048036038101906104b99190612da5565b610e88565b6040516104cb9190612c53565b60405180910390f35b6104dc610ebf565b005b6104e6610edf565b6040516104f39190612f6d565b60405180910390f35b610504610f03565b6040516105119190612df4565b60405180910390f35b610522610f10565b60405161052f9190612c53565b60405180910390f35b610552600480360381019061054d9190612e0f565b610f27565b005b61056e60048036038101906105699190612e0f565b610f90565b60405161057b9190612df4565b60405180910390f35b61058c610fd9565b005b6105a860048036038101906105a391906131d0565b610ff9565b6040516105b59190612c53565b60405180910390f35b6105d860048036038101906105d39190613159565b61103e565b6040516105e59190612c53565b60405180910390f35b6105f66110a9565b6040516106039190612d83565b60405180910390f35b61061461113b565b6040516106219190612f6d565b60405180910390f35b610644600480360381019061063f9190612da5565b611142565b6040516106519190612c53565b60405180910390f35b610674600480360381019061066f9190612e0f565b6111b9565b6040516106819190612c53565b60405180910390f35b6106a4600480360381019061069f9190612da5565b6111d9565b6040516106b19190612c53565b60405180910390f35b6106d460048036038101906106cf919061322c565b6111fc565b005b6106f060048036038101906106eb9190613159565b6112d2565b005b61070c6004803603810190610707919061327f565b6112f3565b6040516107199190612df4565b60405180910390f35b61073c60048036038101906107379190613387565b61137a565b005b600061074861145c565b6107506114ab565b600061075c84846114f5565b90508061076833610f90565b10156107a9576040517f08c379a00000000000000000000000000000000000000000000000000000000081526004016107a09061344b565b60405180910390fd5b6107b333826115b2565b6107de33858573ffffffffffffffffffffffffffffffffffffffff166117819092919063ffffffff16565b6107e781611807565b8273ffffffffffffffffffffffffffffffffffffffff163373ffffffffffffffffffffffffffffffffffffffff167e1a143d5b175701cb3246058ffac3d63945192075a926ff73a19930f09d587a836040516108439190612df4565b60405180910390a36001915050610858611896565b92915050565b60007f7965db0b000000000000000000000000000000000000000000000000000000007bffffffffffffffffffffffffffffffffffffffffffffffffffffffff1916827bffffffffffffffffffffffffffffffffffffffffffffffffffffffff191614806108d157506108d0826118a0565b5b9050919050565b6060600680546108e79061349a565b80601f01602080910402602001604051908101604052809291908181526020018280546109139061349a565b80156109605780601f1061093557610100808354040283529160200191610960565b820191906000526020600020905b81548152906001019060200180831161094357829003601f168201915b5050505050905090565b60008061097561190a565b9050610982818585611912565b600191505092915050565b6000600854905090565b61099f6114ab565b6109c97f73fd536265c26e6e13263018bc9d82a9b962a7857ae70dac847fd743f5e7153582611adb565b8073ffffffffffffffffffffffffffffffffffffffff167f92364d7c14d8a26a040c77305dd885fcd5898051d1b1ead4189b09d5f091159060405160405180910390a250565b6000801b610a1c81611bbb565b610a246114ab565b610a316000801b83611bcf565b8173ffffffffffffffffffffffffffffffffffffffff167f3137a7fedbfedb7895dfa5a6812a4566dae9ded68d00aeec13c6ed1fa84a1c8060405160405180910390a25050565b6000600554905090565b610aac7f73fd536265c26e6e13263018bc9d82a9b962a7857ae70dac847fd743f5e715353361103e565b610aeb576040517f08c379a0000000000000000000000000000000000000000000000000000000008152600401610ae290613517565b60405180910390fd5b81600960008373ffffffffffffffffffffffffffffffffffffffff1673ffffffffffffffffffffffffffffffffffffffff16815260200190815260200160002060006101000a81548160ff0219169083151502179055505050565b600080610b5161190a565b9050610b5e858285611cb1565b610b69858585611d3d565b60019150509392505050565b600060016000838152602001908152602001600020600101549050919050565b6000600a82604051610ba79190613573565b90815260200160405180910390206000610bbf610f03565b815260200190815260200160002060009054906101000a900460ff169050919050565b6000610bec61145c565b610bf46114ab565b6000610c0085856114f5565b9050610c2f3330878773ffffffffffffffffffffffffffffffffffffffff16611fb6909392919063ffffffff16565b610c39838261203f565b610c4281612196565b600960008473ffffffffffffffffffffffffffffffffffffffff1673ffffffffffffffffffffffffffffffffffffffff16815260200190815260200160002060009054906101000a900460ff1615610c9f57610c9e84866121e0565b5b6001915050610cac611896565b9392505050565b610cbc82610b75565b610cc581611bbb565b610ccf8383611adb565b505050565b60006012905090565b600080600d60009054906101000a900473ffffffffffffffffffffffffffffffffffffffff1673ffffffffffffffffffffffffffffffffffffffff1663d2493b6c846040518263ffffffff1660e01b8152600401610d3b9190613599565b606060405180830381865afa158015610d58573d6000803e3d6000fd5b505050506040513d601f19601f82011682018060405250810190610d7c91906135c9565b905050809150508073ffffffffffffffffffffffffffffffffffffffff166370a08231306040518263ffffffff1660e01b8152600401610dbc9190613599565b602060405180830381865afa158015610dd9573d6000803e3d6000fd5b505050506040513d601f19601f82011682018060405250810190610dfd9190613631565b915050919050565b610e0d61190a565b73ffffffffffffffffffffffffffffffffffffffff168173ffffffffffffffffffffffffffffffffffffffff1614610e7a576040517f08c379a0000000000000000000000000000000000000000000000000000000008152600401610e71906136d0565b60405180910390fd5b610e848282611bcf565b5050565b600080610e9361190a565b9050610eb4818585610ea585896112f3565b610eaf919061371f565b611912565b600191505092915050565b6000801b610ecc81611bbb565b610ed4612365565b610edc6123ae565b50565b7f73fd536265c26e6e13263018bc9d82a9b962a7857ae70dac847fd743f5e7153581565b6000804690508091505090565b6000600260009054906101000a900460ff16905090565b6000801b610f3481611bbb565b610f3c6114ab565b610f496000801b83611adb565b8173ffffffffffffffffffffffffffffffffffffffff167f2dbe9fb88463d989acccabbb6ee06901f83672eb78e04a11ff48dd8f69a27cda60405160405180910390a25050565b6000600360008373ffffffffffffffffffffffffffffffffffffffff1673ffffffffffffffffffffffffffffffffffffffff168152602001908152602001600020549050919050565b6000801b610fe681611bbb565b610fee6114ab565b610ff6612411565b50565b600a828051602081018201805184825260208301602085012081835280955050505050506020528060005260406000206000915091509054906101000a900460ff1681565b60006001600084815260200190815260200160002060000160008373ffffffffffffffffffffffffffffffffffffffff1673ffffffffffffffffffffffffffffffffffffffff16815260200190815260200160002060009054906101000a900460ff16905092915050565b6060600780546110b89061349a565b80601f01602080910402602001604051908101604052809291908181526020018280546110e49061349a565b80156111315780601f1061110657610100808354040283529160200191611131565b820191906000526020600020905b81548152906001019060200180831161111457829003601f168201915b5050505050905090565b6000801b81565b60008061114d61190a565b9050600061115b82866112f3565b9050838110156111a0576040517f08c379a0000000000000000000000000000000000000000000000000000000008152600401611197906137c5565b60405180910390fd5b6111ad8286868403611912565b60019250505092915050565b60096020528060005260406000206000915054906101000a900460ff1681565b6000806111e461190a565b90506111f1818585611d3d565b600191505092915050565b6000801b61120981611bbb565b83600d60006101000a81548173ffffffffffffffffffffffffffffffffffffffff021916908373ffffffffffffffffffffffffffffffffffffffff16021790555082600c60006101000a81548173ffffffffffffffffffffffffffffffffffffffff021916908373ffffffffffffffffffffffffffffffffffffffff16021790555081600b60006101000a81548173ffffffffffffffffffffffffffffffffffffffff021916908373ffffffffffffffffffffffffffffffffffffffff16021790555050505050565b6112db82610b75565b6112e481611bbb565b6112ee8383611bcf565b505050565b6000600460008473ffffffffffffffffffffffffffffffffffffffff1673ffffffffffffffffffffffffffffffffffffffff16815260200190815260200160002060008373ffffffffffffffffffffffffffffffffffffffff1673ffffffffffffffffffffffffffffffffffffffff16815260200190815260200160002054905092915050565b60005b60ff8110156113db576000600a846040516113989190613573565b9081526020016040518091039020600083815260200190815260200160002060006101000a81548160ff021916908315150217905550808060010191505061137d565b5060005b8151811015611457576001600a846040516113fa9190613573565b9081526020016040518091039020600084848151811061141d5761141c6137e5565b5b6020026020010151815260200190815260200160002060006101000a81548160ff02191690831515021790555080806001019150506113df565b505050565b6002600054036114a1576040517f08c379a000000000000000000000000000000000000000000000000000000000815260040161149890613860565b60405180910390fd5b6002600081905550565b6114b3610f10565b156114f3576040517f08c379a00000000000000000000000000000000000000000000000000000000081526004016114ea906138cc565b60405180910390fd5b565b6000808273ffffffffffffffffffffffffffffffffffffffff1663313ce5676040518163ffffffff1660e01b8152600401602060405180830381865afa158015611543573d6000803e3d6000fd5b505050506040513d601f19601f820116820180604052508101906115679190613918565b60ff169050601281146115a857601281111561159b5760128103600a0a848161159357611592613945565b5b0493506115a7565b80601203600a0a840293505b5b8391505092915050565b600073ffffffffffffffffffffffffffffffffffffffff168273ffffffffffffffffffffffffffffffffffffffff1603611621576040517f08c379a0000000000000000000000000000000000000000000000000000000008152600401611618906139e6565b60405180910390fd5b61162d82600083612474565b6000600360008473ffffffffffffffffffffffffffffffffffffffff1673ffffffffffffffffffffffffffffffffffffffff168152602001908152602001600020549050818110156116b4576040517f08c379a00000000000000000000000000000000000000000000000000000000081526004016116ab90613a78565b60405180910390fd5b818103600360008573ffffffffffffffffffffffffffffffffffffffff1673ffffffffffffffffffffffffffffffffffffffff1681526020019081526020016000208190555081600560008282540392505081905550600073ffffffffffffffffffffffffffffffffffffffff168373ffffffffffffffffffffffffffffffffffffffff167fddf252ad1be2c89b69c2b068fc378daa952ba7f163c4a11628f55a4df523b3ef846040516117689190612df4565b60405180910390a361177c83600084612479565b505050565b6118028363a9059cbb60e01b84846040516024016117a0929190613a98565b604051602081830303815290604052907bffffffffffffffffffffffffffffffffffffffffffffffffffffffff19166020820180517bffffffffffffffffffffffffffffffffffffffffffffffffffffffff838183161783525050505061247e565b505050565b80600854101561184c576040517f08c379a000000000000000000000000000000000000000000000000000000000815260040161184390613b0d565b60405180910390fd5b806008600082825403925050819055507f04be25a4c0fe4c39136ca055daaac08ac6b3041b2e1f2a1b698bac12f1cbdc4a8160405161188b9190612df4565b60405180910390a150565b6001600081905550565b60007f01ffc9a7000000000000000000000000000000000000000000000000000000007bffffffffffffffffffffffffffffffffffffffffffffffffffffffff1916827bffffffffffffffffffffffffffffffffffffffffffffffffffffffff1916149050919050565b600033905090565b600073ffffffffffffffffffffffffffffffffffffffff168373ffffffffffffffffffffffffffffffffffffffff1603611981576040517f08c379a000000000000000000000000000000000000000000000000000000000815260040161197890613b9f565b60405180910390fd5b600073ffffffffffffffffffffffffffffffffffffffff168273ffffffffffffffffffffffffffffffffffffffff16036119f0576040517f08c379a00000000000000000000000000000000000000000000000000000000081526004016119e790613c31565b60405180910390fd5b80600460008573ffffffffffffffffffffffffffffffffffffffff1673ffffffffffffffffffffffffffffffffffffffff16815260200190815260200160002060008473ffffffffffffffffffffffffffffffffffffffff1673ffffffffffffffffffffffffffffffffffffffff168152602001908152602001600020819055508173ffffffffffffffffffffffffffffffffffffffff168373ffffffffffffffffffffffffffffffffffffffff167f8c5be1e5ebec7d5bd14f71427d1e84f3dd0314c0f7b2291e5b200ac8c7c3b92583604051611ace9190612df4565b60405180910390a3505050565b611ae5828261103e565b611bb757600180600084815260200190815260200160002060000160008373ffffffffffffffffffffffffffffffffffffffff1673ffffffffffffffffffffffffffffffffffffffff16815260200190815260200160002060006101000a81548160ff021916908315150217905550611b5c61190a565b73ffffffffffffffffffffffffffffffffffffffff168173ffffffffffffffffffffffffffffffffffffffff16837f2f8788117e7eff1d82e926ec794901d17c78024a50270940304540a733656f0d60405160405180910390a45b5050565b611bcc81611bc761190a565b612546565b50565b611bd9828261103e565b15611cad5760006001600084815260200190815260200160002060000160008373ffffffffffffffffffffffffffffffffffffffff1673ffffffffffffffffffffffffffffffffffffffff16815260200190815260200160002060006101000a81548160ff021916908315150217905550611c5261190a565b73ffffffffffffffffffffffffffffffffffffffff168173ffffffffffffffffffffffffffffffffffffffff16837ff6391f5c32d9c69d2a47ea670b442974b53935d1edc7fd64eb21e047a839171b60405160405180910390a45b5050565b6000611cbd84846112f3565b90507fffffffffffffffffffffffffffffffffffffffffffffffffffffffffffffffff8114611d375781811015611d29576040517f08c379a0000000000000000000000000000000000000000000000000000000008152600401611d2090613c9d565b60405180910390fd5b611d368484848403611912565b5b50505050565b600073ffffffffffffffffffffffffffffffffffffffff168373ffffffffffffffffffffffffffffffffffffffff1603611dac576040517f08c379a0000000000000000000000000000000000000000000000000000000008152600401611da390613d2f565b60405180910390fd5b600073ffffffffffffffffffffffffffffffffffffffff168273ffffffffffffffffffffffffffffffffffffffff1603611e1b576040517f08c379a0000000000000000000000000000000000000000000000000000000008152600401611e1290613dc1565b60405180910390fd5b611e26838383612474565b6000600360008573ffffffffffffffffffffffffffffffffffffffff1673ffffffffffffffffffffffffffffffffffffffff16815260200190815260200160002054905081811015611ead576040517f08c379a0000000000000000000000000000000000000000000000000000000008152600401611ea490613e53565b60405180910390fd5b818103600360008673ffffffffffffffffffffffffffffffffffffffff1673ffffffffffffffffffffffffffffffffffffffff1681526020019081526020016000208190555081600360008573ffffffffffffffffffffffffffffffffffffffff1673ffffffffffffffffffffffffffffffffffffffff168152602001908152602001600020600082825401925050819055508273ffffffffffffffffffffffffffffffffffffffff168473ffffffffffffffffffffffffffffffffffffffff167fddf252ad1be2c89b69c2b068fc378daa952ba7f163c4a11628f55a4df523b3ef84604051611f9d9190612df4565b60405180910390a3611fb0848484612479565b50505050565b612039846323b872dd60e01b858585604051602401611fd793929190613e73565b604051602081830303815290604052907bffffffffffffffffffffffffffffffffffffffffffffffffffffffff19166020820180517bffffffffffffffffffffffffffffffffffffffffffffffffffffffff838183161783525050505061247e565b50505050565b600073ffffffffffffffffffffffffffffffffffffffff168273ffffffffffffffffffffffffffffffffffffffff16036120ae576040517f08c379a00000000000000000000000000000000000000000000000000000000081526004016120a590613ef6565b60405180910390fd5b6120ba60008383612474565b80600560008282546120cc919061371f565b9250508190555080600360008473ffffffffffffffffffffffffffffffffffffffff1673ffffffffffffffffffffffffffffffffffffffff168152602001908152602001600020600082825401925050819055508173ffffffffffffffffffffffffffffffffffffffff16600073ffffffffffffffffffffffffffffffffffffffff167fddf252ad1be2c89b69c2b068fc378daa952ba7f163c4a11628f55a4df523b3ef8360405161217e9190612df4565b60405180910390a361219260008383612479565b5050565b806008600082825401925050819055507f04be25a4c0fe4c39136ca055daaac08ac6b3041b2e1f2a1b698bac12f1cbdc4a816040516121d59190612df4565b60405180910390a150565b6121e86114ab565b600a6040516121f690613f62565b9081526020016040518091039020600061220e610f03565b815260200190815260200160002060009054906101000a900460ff16156123615761227c600b60009054906101000a900473ffffffffffffffffffffffffffffffffffffffff16828473ffffffffffffffffffffffffffffffffffffffff166125cb9092919063ffffffff16565b600b60009054906101000a900473ffffffffffffffffffffffffffffffffffffffff1673ffffffffffffffffffffffffffffffffffffffff1663e8eda9df83833060006040518563ffffffff1660e01b81526004016122de9493929190613fca565b600060405180830381600087803b1580156122f857600080fd5b505af115801561230c573d6000803e3d6000fd5b505050503373ffffffffffffffffffffffffffffffffffffffff167f9338e52d14f0c6df29d1a2a35d95c167710f00f789049c562e7ded11476d5d398383604051612358929190613a98565b60405180910390a25b5050565b61236d610f10565b6123ac576040517f08c379a00000000000000000000000000000000000000000000000000000000081526004016123a39061405b565b60405180910390fd5b565b6123b6612365565b6000600260006101000a81548160ff0219169083151502179055507f5db9ee0a495bf2e6ff9c91a7834c1ba4fdd244a5e8aa4e537bd38aeae4b073aa6123fa61190a565b6040516124079190613599565b60405180910390a1565b6124196114ab565b6001600260006101000a81548160ff0219169083151502179055507f62e78cea01bee320cd4e420270b5ea74000d11b0c9f74754ebdbfc544b05a25861245d61190a565b60405161246a9190613599565b60405180910390a1565b505050565b505050565b60006124e0826040518060400160405280602081526020017f5361666545524332303a206c6f772d6c6576656c2063616c6c206661696c65648152508573ffffffffffffffffffffffffffffffffffffffff1661271a9092919063ffffffff16565b90506000815114806125025750808060200190518101906125019190614090565b5b612541576040517f08c379a00000000000000000000000000000000000000000000000000000000081526004016125389061412f565b60405180910390fd5b505050565b612550828261103e565b6125c75761255d81612732565b61256b8360001c602061275f565b60405160200161257c9291906141e7565b6040516020818303038152906040526040517f08c379a00000000000000000000000000000000000000000000000000000000081526004016125be9190612d83565b60405180910390fd5b5050565b6000811480612655575060008373ffffffffffffffffffffffffffffffffffffffff1663dd62ed3e30856040518363ffffffff1660e01b8152600401612612929190614221565b602060405180830381865afa15801561262f573d6000803e3d6000fd5b505050506040513d601f19601f820116820180604052508101906126539190613631565b145b612694576040517f08c379a000000000000000000000000000000000000000000000000000000000815260040161268b906142bc565b60405180910390fd5b6127158363095ea7b360e01b84846040516024016126b3929190613a98565b604051602081830303815290604052907bffffffffffffffffffffffffffffffffffffffffffffffffffffffff19166020820180517bffffffffffffffffffffffffffffffffffffffffffffffffffffffff838183161783525050505061247e565b505050565b6060612729848460008561299b565b90509392505050565b60606127588273ffffffffffffffffffffffffffffffffffffffff16601460ff1661275f565b9050919050565b60606000600283600261277291906142dc565b61277c919061371f565b67ffffffffffffffff81111561279557612794612f92565b5b6040519080825280601f01601f1916602001820160405280156127c75781602001600182028036833780820191505090505b5090507f3000000000000000000000000000000000000000000000000000000000000000816000815181106127ff576127fe6137e5565b5b60200101907effffffffffffffffffffffffffffffffffffffffffffffffffffffffffffff1916908160001a9053507f780000000000000000000000000000000000000000000000000000000000000081600181518110612863576128626137e5565b5b60200101907effffffffffffffffffffffffffffffffffffffffffffffffffffffffffffff1916908160001a905350600060018460026128a391906142dc565b6128ad919061371f565b90505b600181111561294d577f3031323334353637383961626364656600000000000000000000000000000000600f8616601081106128ef576128ee6137e5565b5b1a60f81b828281518110612906576129056137e5565b5b60200101907effffffffffffffffffffffffffffffffffffffffffffffffffffffffffffff1916908160001a905350600485901c9450806129469061431e565b90506128b0565b5060008414612991576040517f08c379a000000000000000000000000000000000000000000000000000000000815260040161298890614393565b60405180910390fd5b8091505092915050565b6060824710156129e0576040517f08c379a00000000000000000000000000000000000000000000000000000000081526004016129d790614425565b60405180910390fd5b6000808673ffffffffffffffffffffffffffffffffffffffff168587604051612a09919061448c565b60006040518083038185875af1925050503d8060008114612a46576040519150601f19603f3d011682016040523d82523d6000602084013e612a4b565b606091505b5091509150612a5c87838387612a68565b92505050949350505050565b60608315612aca576000835103612ac257612a8285612add565b612ac1576040517f08c379a0000000000000000000000000000000000000000000000000000000008152600401612ab8906144ef565b60405180910390fd5b5b829050612ad5565b612ad48383612b00565b5b949350505050565b6000808273ffffffffffffffffffffffffffffffffffffffff163b119050919050565b600082511115612b135781518083602001fd5b806040517f08c379a0000000000000000000000000000000000000000000000000000000008152600401612b479190612d83565b60405180910390fd5b6000604051905090565b600080fd5b600080fd5b6000819050919050565b612b7781612b64565b8114612b8257600080fd5b50565b600081359050612b9481612b6e565b92915050565b600073ffffffffffffffffffffffffffffffffffffffff82169050919050565b6000612bc582612b9a565b9050919050565b612bd581612bba565b8114612be057600080fd5b50565b600081359050612bf281612bcc565b92915050565b60008060408385031215612c0f57612c0e612b5a565b5b6000612c1d85828601612b85565b9250506020612c2e85828601612be3565b9150509250929050565b60008115159050919050565b612c4d81612c38565b82525050565b6000602082019050612c686000830184612c44565b92915050565b60007fffffffff0000000000000000000000000000000000000000000000000000000082169050919050565b612ca381612c6e565b8114612cae57600080fd5b50565b600081359050612cc081612c9a565b92915050565b600060208284031215612cdc57612cdb612b5a565b5b6000612cea84828501612cb1565b91505092915050565b600081519050919050565b600082825260208201905092915050565b60005b83811015612d2d578082015181840152602081019050612d12565b60008484015250505050565b6000601f19601f8301169050919050565b6000612d5582612cf3565b612d5f8185612cfe565b9350612d6f818560208601612d0f565b612d7881612d39565b840191505092915050565b60006020820190508181036000830152612d9d8184612d4a565b905092915050565b60008060408385031215612dbc57612dbb612b5a565b5b6000612dca85828601612be3565b9250506020612ddb85828601612b85565b9150509250929050565b612dee81612b64565b82525050565b6000602082019050612e096000830184612de5565b92915050565b600060208284031215612e2557612e24612b5a565b5b6000612e3384828501612be3565b91505092915050565b612e4581612c38565b8114612e5057600080fd5b50565b600081359050612e6281612e3c565b92915050565b60008060408385031215612e7f57612e7e612b5a565b5b6000612e8d85828601612e53565b9250506020612e9e85828601612be3565b9150509250929050565b600080600060608486031215612ec157612ec0612b5a565b5b6000612ecf86828701612be3565b9350506020612ee086828701612be3565b9250506040612ef186828701612b85565b9150509250925092565b6000819050919050565b612f0e81612efb565b8114612f1957600080fd5b50565b600081359050612f2b81612f05565b92915050565b600060208284031215612f4757612f46612b5a565b5b6000612f5584828501612f1c565b91505092915050565b612f6781612efb565b82525050565b6000602082019050612f826000830184612f5e565b92915050565b600080fd5b600080fd5b7f4e487b7100000000000000000000000000000000000000000000000000000000600052604160045260246000fd5b612fca82612d39565b810181811067ffffffffffffffff82111715612fe957612fe8612f92565b5b80604052505050565b6000612ffc612b50565b90506130088282612fc1565b919050565b600067ffffffffffffffff82111561302857613027612f92565b5b61303182612d39565b9050602081019050919050565b82818337600083830152505050565b600061306061305b8461300d565b612ff2565b90508281526020810184848401111561307c5761307b612f8d565b5b61308784828561303e565b509392505050565b600082601f8301126130a4576130a3612f88565b5b81356130b484826020860161304d565b91505092915050565b6000602082840312156130d3576130d2612b5a565b5b600082013567ffffffffffffffff8111156130f1576130f0612b5f565b5b6130fd8482850161308f565b91505092915050565b60008060006060848603121561311f5761311e612b5a565b5b600061312d86828701612b85565b935050602061313e86828701612be3565b925050604061314f86828701612be3565b9150509250925092565b600080604083850312156131705761316f612b5a565b5b600061317e85828601612f1c565b925050602061318f85828601612be3565b9150509250929050565b600060ff82169050919050565b6131af81613199565b82525050565b60006020820190506131ca60008301846131a6565b92915050565b600080604083850312156131e7576131e6612b5a565b5b600083013567ffffffffffffffff81111561320557613204612b5f565b5b6132118582860161308f565b925050602061322285828601612b85565b9150509250929050565b60008060006060848603121561324557613244612b5a565b5b600061325386828701612be3565b935050602061326486828701612be3565b925050604061327586828701612be3565b9150509250925092565b6000806040838503121561329657613295612b5a565b5b60006132a485828601612be3565b92505060206132b585828601612be3565b9150509250929050565b600067ffffffffffffffff8211156132da576132d9612f92565b5b602082029050602081019050919050565b600080fd5b60006133036132fe846132bf565b612ff2565b90508083825260208201905060208402830185811115613326576133256132eb565b5b835b8181101561334f578061333b8882612b85565b845260208401935050602081019050613328565b5050509392505050565b600082601f83011261336e5761336d612f88565b5b813561337e8482602086016132f0565b91505092915050565b6000806040838503121561339e5761339d612b5a565b5b600083013567ffffffffffffffff8111156133bc576133bb612b5f565b5b6133c88582860161308f565b925050602083013567ffffffffffffffff8111156133e9576133e8612b5f565b5b6133f585828601613359565b9150509250929050565b7f496e73756666696369656e742062616c616e6365000000000000000000000000600082015250565b6000613435601483612cfe565b9150613440826133ff565b602082019050919050565b6000602082019050818103600083015261346481613428565b9050919050565b7f4e487b7100000000000000000000000000000000000000000000000000000000600052602260045260246000fd5b600060028204905060018216806134b257607f821691505b6020821081036134c5576134c461346b565b5b50919050565b7f43616c6c6572206973206e6f7420617574686f72697a65640000000000000000600082015250565b6000613501601883612cfe565b915061350c826134cb565b602082019050919050565b60006020820190508181036000830152613530816134f4565b9050919050565b600081905092915050565b600061354d82612cf3565b6135578185613537565b9350613567818560208601612d0f565b80840191505092915050565b600061357f8284613542565b915081905092915050565b61359381612bba565b82525050565b60006020820190506135ae600083018461358a565b92915050565b6000815190506135c381612bcc565b92915050565b6000806000606084860312156135e2576135e1612b5a565b5b60006135f0868287016135b4565b9350506020613601868287016135b4565b9250506040613612868287016135b4565b9150509250925092565b60008151905061362b81612b6e565b92915050565b60006020828403121561364757613646612b5a565b5b60006136558482850161361c565b91505092915050565b7f416363657373436f6e74726f6c3a2063616e206f6e6c792072656e6f756e636560008201527f20726f6c657320666f722073656c660000000000000000000000000000000000602082015250565b60006136ba602f83612cfe565b91506136c58261365e565b604082019050919050565b600060208201905081810360008301526136e9816136ad565b9050919050565b7f4e487b7100000000000000000000000000000000000000000000000000000000600052601160045260246000fd5b600061372a82612b64565b915061373583612b64565b925082820190508082111561374d5761374c6136f0565b5b92915050565b7f45524332303a2064656372656173656420616c6c6f77616e63652062656c6f7760008201527f207a65726f000000000000000000000000000000000000000000000000000000602082015250565b60006137af602583612cfe565b91506137ba82613753565b604082019050919050565b600060208201905081810360008301526137de816137a2565b9050919050565b7f4e487b7100000000000000000000000000000000000000000000000000000000600052603260045260246000fd5b7f5265656e7472616e637947756172643a207265656e7472616e742063616c6c00600082015250565b600061384a601f83612cfe565b915061385582613814565b602082019050919050565b600060208201905081810360008301526138798161383d565b9050919050565b7f5061757361626c653a2070617573656400000000000000000000000000000000600082015250565b60006138b6601083612cfe565b91506138c182613880565b602082019050919050565b600060208201905081810360008301526138e5816138a9565b9050919050565b6138f581613199565b811461390057600080fd5b50565b600081519050613912816138ec565b92915050565b60006020828403121561392e5761392d612b5a565b5b600061393c84828501613903565b91505092915050565b7f4e487b7100000000000000000000000000000000000000000000000000000000600052601260045260246000fd5b7f45524332303a206275726e2066726f6d20746865207a65726f2061646472657360008201527f7300000000000000000000000000000000000000000000000000000000000000602082015250565b60006139d0602183612cfe565b91506139db82613974565b604082019050919050565b600060208201905081810360008301526139ff816139c3565b9050919050565b7f45524332303a206275726e20616d6f756e7420657863656564732062616c616e60008201527f6365000000000000000000000000000000000000000000000000000000000000602082015250565b6000613a62602283612cfe565b9150613a6d82613a06565b604082019050919050565b60006020820190508181036000830152613a9181613a55565b9050919050565b6000604082019050613aad600083018561358a565b613aba6020830184612de5565b9392505050565b7f496e73756666696369656e74207661756c742062616c616e6365000000000000600082015250565b6000613af7601a83612cfe565b9150613b0282613ac1565b602082019050919050565b60006020820190508181036000830152613b2681613aea565b9050919050565b7f45524332303a20617070726f76652066726f6d20746865207a65726f2061646460008201527f7265737300000000000000000000000000000000000000000000000000000000602082015250565b6000613b89602483612cfe565b9150613b9482613b2d565b604082019050919050565b60006020820190508181036000830152613bb881613b7c565b9050919050565b7f45524332303a20617070726f766520746f20746865207a65726f20616464726560008201527f7373000000000000000000000000000000000000000000000000000000000000602082015250565b6000613c1b602283612cfe565b9150613c2682613bbf565b604082019050919050565b60006020820190508181036000830152613c4a81613c0e565b9050919050565b7f45524332303a20696e73756666696369656e7420616c6c6f77616e6365000000600082015250565b6000613c87601d83612cfe565b9150613c9282613c51565b602082019050919050565b60006020820190508181036000830152613cb681613c7a565b9050919050565b7f45524332303a207472616e736665722066726f6d20746865207a65726f20616460008201527f6472657373000000000000000000000000000000000000000000000000000000602082015250565b6000613d19602583612cfe565b9150613d2482613cbd565b604082019050919050565b60006020820190508181036000830152613d4881613d0c565b9050919050565b7f45524332303a207472616e7366657220746f20746865207a65726f206164647260008201527f6573730000000000000000000000000000000000000000000000000000000000602082015250565b6000613dab602383612cfe565b9150613db682613d4f565b604082019050919050565b60006020820190508181036000830152613dda81613d9e565b9050919050565b7f45524332303a207472616e7366657220616d6f756e742065786365656473206260008201527f616c616e63650000000000000000000000000000000000000000000000000000602082015250565b6000613e3d602683612cfe565b9150613e4882613de1565b604082019050919050565b60006020820190508181036000830152613e6c81613e30565b9050919050565b6000606082019050613e88600083018661358a565b613e95602083018561358a565b613ea26040830184612de5565b949350505050565b7f45524332303a206d696e7420746f20746865207a65726f206164647265737300600082015250565b6000613ee0601f83612cfe565b9150613eeb82613eaa565b602082019050919050565b60006020820190508181036000830152613f0f81613ed3565b9050919050565b7f6465706f73697441617665000000000000000000000000000000000000000000600082015250565b6000613f4c600b83613537565b9150613f5782613f16565b600b82019050919050565b6000613f6d82613f3f565b9150819050919050565b6000819050919050565b600061ffff82169050919050565b6000819050919050565b6000613fb4613faf613faa84613f77565b613f8f565b613f81565b9050919050565b613fc481613f99565b82525050565b6000608082019050613fdf600083018761358a565b613fec6020830186612de5565b613ff9604083018561358a565b6140066060830184613fbb565b95945050505050565b7f5061757361626c653a206e6f7420706175736564000000000000000000000000600082015250565b6000614045601483612cfe565b91506140508261400f565b602082019050919050565b6000602082019050818103600083015261407481614038565b9050919050565b60008151905061408a81612e3c565b92915050565b6000602082840312156140a6576140a5612b5a565b5b60006140b48482850161407b565b91505092915050565b7f5361666545524332303a204552433230206f7065726174696f6e20646964206e60008201527f6f74207375636365656400000000000000000000000000000000000000000000602082015250565b6000614119602a83612cfe565b9150614124826140bd565b604082019050919050565b600060208201905081810360008301526141488161410c565b9050919050565b7f416363657373436f6e74726f6c3a206163636f756e7420000000000000000000600082015250565b6000614185601783613537565b91506141908261414f565b601782019050919050565b7f206973206d697373696e6720726f6c6520000000000000000000000000000000600082015250565b60006141d1601183613537565b91506141dc8261419b565b601182019050919050565b60006141f282614178565b91506141fe8285613542565b9150614209826141c4565b91506142158284613542565b91508190509392505050565b6000604082019050614236600083018561358a565b614243602083018461358a565b9392505050565b7f5361666545524332303a20617070726f76652066726f6d206e6f6e2d7a65726f60008201527f20746f206e6f6e2d7a65726f20616c6c6f77616e636500000000000000000000602082015250565b60006142a6603683612cfe565b91506142b18261424a565b604082019050919050565b600060208201905081810360008301526142d581614299565b9050919050565b60006142e782612b64565b91506142f283612b64565b925082820261430081612b64565b91508282048414831517614317576143166136f0565b5b5092915050565b600061432982612b64565b91506000820361433c5761433b6136f0565b5b600182039050919050565b7f537472696e67733a20686578206c656e67746820696e73756666696369656e74600082015250565b600061437d602083612cfe565b915061438882614347565b602082019050919050565b600060208201905081810360008301526143ac81614370565b9050919050565b7f416464726573733a20696e73756666696369656e742062616c616e636520666f60008201527f722063616c6c0000000000000000000000000000000000000000000000000000602082015250565b600061440f602683612cfe565b915061441a826143b3565b604082019050919050565b6000602082019050818103600083015261443e81614402565b9050919050565b600081519050919050565b600081905092915050565b600061446682614445565b6144708185614450565b9350614480818560208601612d0f565b80840191505092915050565b6000614498828461445b565b915081905092915050565b7f416464726573733a2063616c6c20746f206e6f6e2d636f6e7472616374000000600082015250565b60006144d9601d83612cfe565b91506144e4826144a3565b602082019050919050565b60006020820190508181036000830152614508816144cc565b905091905056fea26469706673582212208fabb44a0399f9b6fa592f637e67a46ae4face6b59239a4c9bec178f05387ee764736f6c63430008170033",
  "linkReferences": {},
  "deployedLinkReferences": {}
}