{
  "_format": "hh-sol-artifact-1",
  "contractName": "AgreementContract",
  "sourceName": "contracts/AgreementContract.sol",
  "abi": [
    {
      "inputs": [
        {
          "internalType": "uint256",
          "name": "",
          "type": "uint256"
        }
      ],
      "name": "agreements",
      "outputs": [
        {
          "internalType": "uint256",
          "name": "id",
          "type": "uint256"
        },
        {
          "internalType": "string",
          "name": "title",
          "type": "string"
        },
        {
          "internalType": "string",
          "name": "description",
          "type": "string"
        },
        {
          "internalType": "enum AgreementContract.AgreementStatus",
          "name": "status",
          "type": "uint8"
        },
        {
          "internalType": "address",
          "name": "company",
          "type": "address"
        },
        {
          "internalType": "address",
          "name": "developer",
          "type": "address"
        },
        {
          "components": [
            {
              "internalType": "uint256",
              "name": "amount",
              "type": "uint256"
            },
            {
              "internalType": "address",
              "name": "tokenAddress",
              "type": "address"
            }
          ],
          "internalType": "struct AgreementContract.Token",
          "name": "tokenIncentive",
          "type": "tuple"
        },
        {
          "components": [
            {
              "internalType": "uint256",
              "name": "amount",
              "type": "uint256"
            },
            {
              "internalType": "address",
              "name": "tokenAddress",
              "type": "address"
            }
          ],
          "internalType": "struct AgreementContract.Token",
          "name": "payment",
          "type": "tuple"
        }
      ],
      "stateMutability": "view",
      "type": "function"
    },
    {
      "inputs": [
        {
          "internalType": "string",
          "name": "_title",
          "type": "string"
        },
        {
          "internalType": "string",
          "name": "_description",
          "type": "string"
        },
        {
          "internalType": "address",
          "name": "_developer",
          "type": "address"
        },
        {
          "internalType": "string[]",
          "name": "_skills",
          "type": "string[]"
        },
        {
          "internalType": "uint256",
          "name": "_incentiveAmount",
          "type": "uint256"
        },
        {
          "internalType": "address",
          "name": "_incentiveAddress",
          "type": "address"
        },
        {
          "internalType": "uint256",
          "name": "_paymentAmount",
          "type": "uint256"
        },
        {
          "internalType": "address",
          "name": "_paymentAddress",
          "type": "address"
        }
      ],
      "name": "createAgreement",
      "outputs": [],
      "stateMutability": "nonpayable",
      "type": "function"
    },
    {
      "inputs": [],
      "name": "getAgreementCount",
      "outputs": [
        {
          "internalType": "uint256",
          "name": "",
          "type": "uint256"
        }
      ],
      "stateMutability": "view",
      "type": "function"
    },
    {
      "inputs": [],
      "name": "getAllAgreements",
      "outputs": [
        {
          "components": [
            {
              "internalType": "uint256",
              "name": "id",
              "type": "uint256"
            },
            {
              "internalType": "string",
              "name": "title",
              "type": "string"
            },
            {
              "internalType": "string",
              "name": "description",
              "type": "string"
            },
            {
              "internalType": "enum AgreementContract.AgreementStatus",
              "name": "status",
              "type": "uint8"
            },
            {
              "internalType": "address",
              "name": "company",
              "type": "address"
            },
            {
              "internalType": "address",
              "name": "developer",
              "type": "address"
            },
            {
              "internalType": "string[]",
              "name": "skills",
              "type": "string[]"
            },
            {
              "components": [
                {
                  "internalType": "uint256",
                  "name": "amount",
                  "type": "uint256"
                },
                {
                  "internalType": "address",
                  "name": "tokenAddress",
                  "type": "address"
                }
              ],
              "internalType": "struct AgreementContract.Token",
              "name": "tokenIncentive",
              "type": "tuple"
            },
            {
              "components": [
                {
                  "internalType": "uint256",
                  "name": "amount",
                  "type": "uint256"
                },
                {
                  "internalType": "address",
                  "name": "tokenAddress",
                  "type": "address"
                }
              ],
              "internalType": "struct AgreementContract.Token",
              "name": "payment",
              "type": "tuple"
            }
          ],
          "internalType": "struct AgreementContract.Agreement[]",
          "name": "",
          "type": "tuple[]"
        }
      ],
      "stateMutability": "view",
      "type": "function"
    },
    {
      "inputs": [],
      "name": "nextAgreementId",
      "outputs": [
        {
          "internalType": "uint256",
          "name": "",
          "type": "uint256"
        }
      ],
      "stateMutability": "view",
      "type": "function"
    }
  ],
  "bytecode": "0x6080604052600160005534801561001557600080fd5b50611b88806100256000396000f3fe608060405234801561001057600080fd5b50600436106100565760003560e01c80628bed3e1461005b5780634e6873c714610079578063bd14de9614610097578063c9b99dab146100ce578063efa83c58146100ec575b600080fd5b610063610108565b6040516100709190610d05565b60405180910390f35b610081610115565b60405161008e91906110fd565b60405180910390f35b6100b160048036038101906100ac919061115f565b61054b565b6040516100c5989796959493929190611223565b60405180910390f35b6100d66107d4565b6040516100e39190610d05565b60405180910390f35b610106600480360381019061010191906114f7565b6107da565b005b6000600180549050905090565b60606001805480602002602001604051908101604052809291908181526020016000905b8282101561054257838290600052602060002090600a0201604051806101200160405290816000820154815260200160018201805461017790611630565b80601f01602080910402602001604051908101604052809291908181526020018280546101a390611630565b80156101f05780601f106101c5576101008083540402835291602001916101f0565b820191906000526020600020905b8154815290600101906020018083116101d357829003601f168201915b5050505050815260200160028201805461020990611630565b80601f016020809104026020016040519081016040528092919081815260200182805461023590611630565b80156102825780601f1061025757610100808354040283529160200191610282565b820191906000526020600020905b81548152906001019060200180831161026557829003601f168201915b505050505081526020016003820160009054906101000a900460ff1660028111156102b0576102af610deb565b5b60028111156102c2576102c1610deb565b5b81526020016003820160019054906101000a900473ffffffffffffffffffffffffffffffffffffffff1673ffffffffffffffffffffffffffffffffffffffff1673ffffffffffffffffffffffffffffffffffffffff1681526020016004820160009054906101000a900473ffffffffffffffffffffffffffffffffffffffff1673ffffffffffffffffffffffffffffffffffffffff1673ffffffffffffffffffffffffffffffffffffffff16815260200160058201805480602002602001604051908101604052809291908181526020016000905b828210156104435783829060005260206000200180546103b690611630565b80601f01602080910402602001604051908101604052809291908181526020018280546103e290611630565b801561042f5780601f106104045761010080835404028352916020019161042f565b820191906000526020600020905b81548152906001019060200180831161041257829003601f168201915b505050505081526020019060010190610397565b50505050815260200160068201604051806040016040529081600082015481526020016001820160009054906101000a900473ffffffffffffffffffffffffffffffffffffffff1673ffffffffffffffffffffffffffffffffffffffff1673ffffffffffffffffffffffffffffffffffffffff1681525050815260200160088201604051806040016040529081600082015481526020016001820160009054906101000a900473ffffffffffffffffffffffffffffffffffffffff1673ffffffffffffffffffffffffffffffffffffffff1673ffffffffffffffffffffffffffffffffffffffff16815250508152505081526020019060010190610139565b50505050905090565b6001818154811061055b57600080fd5b90600052602060002090600a020160009150905080600001549080600101805461058490611630565b80601f01602080910402602001604051908101604052809291908181526020018280546105b090611630565b80156105fd5780601f106105d2576101008083540402835291602001916105fd565b820191906000526020600020905b8154815290600101906020018083116105e057829003601f168201915b50505050509080600201805461061290611630565b80601f016020809104026020016040519081016040528092919081815260200182805461063e90611630565b801561068b5780601f106106605761010080835404028352916020019161068b565b820191906000526020600020905b81548152906001019060200180831161066e57829003601f168201915b5050505050908060030160009054906101000a900460ff16908060030160019054906101000a900473ffffffffffffffffffffffffffffffffffffffff16908060040160009054906101000a900473ffffffffffffffffffffffffffffffffffffffff169080600601604051806040016040529081600082015481526020016001820160009054906101000a900473ffffffffffffffffffffffffffffffffffffffff1673ffffffffffffffffffffffffffffffffffffffff1673ffffffffffffffffffffffffffffffffffffffff16815250509080600801604051806040016040529081600082015481526020016001820160009054906101000a900473ffffffffffffffffffffffffffffffffffffffff1673ffffffffffffffffffffffffffffffffffffffff1673ffffffffffffffffffffffffffffffffffffffff1681525050905088565b60005481565b600073ffffffffffffffffffffffffffffffffffffffff168673ffffffffffffffffffffffffffffffffffffffff1603610849576040517f08c379a0000000000000000000000000000000000000000000000000000000008152600401610840906116ad565b60405180910390fd5b600085511161088d576040517f08c379a000000000000000000000000000000000000000000000000000000000815260040161088490611719565b60405180910390fd5b600084116108d0576040517f08c379a00000000000000000000000000000000000000000000000000000000081526004016108c7906117ab565b60405180910390fd5b60008211610913576040517f08c379a000000000000000000000000000000000000000000000000000000000815260040161090a9061183d565b60405180910390fd5b600060405180604001604052808681526020018573ffffffffffffffffffffffffffffffffffffffff168152509050600060405180604001604052808581526020018473ffffffffffffffffffffffffffffffffffffffff168152509050600060405180610120016040528060005481526020018c81526020018b8152602001600060028111156109a7576109a6610deb565b5b81526020013373ffffffffffffffffffffffffffffffffffffffff1681526020018a73ffffffffffffffffffffffffffffffffffffffff16815260200189815260200184815260200183815250905060018190806001815401808255809150506001900390600052602060002090600a0201600090919091909150600082015181600001556020820151816001019081610a419190611a09565b506040820151816002019081610a579190611a09565b5060608201518160030160006101000a81548160ff02191690836002811115610a8357610a82610deb565b5b021790555060808201518160030160016101000a81548173ffffffffffffffffffffffffffffffffffffffff021916908373ffffffffffffffffffffffffffffffffffffffff16021790555060a08201518160040160006101000a81548173ffffffffffffffffffffffffffffffffffffffff021916908373ffffffffffffffffffffffffffffffffffffffff16021790555060c0820151816005019080519060200190610b32929190610c12565b5060e0820151816006016000820151816000015560208201518160010160006101000a81548173ffffffffffffffffffffffffffffffffffffffff021916908373ffffffffffffffffffffffffffffffffffffffff1602179055505050610100820151816008016000820151816000015560208201518160010160006101000a81548173ffffffffffffffffffffffffffffffffffffffff021916908373ffffffffffffffffffffffffffffffffffffffff16021790555050505050600080815480929190610c0090611b0a565b91905055505050505050505050505050565b828054828255906000526020600020908101928215610c5a579160200282015b82811115610c59578251829081610c499190611a09565b5091602001919060010190610c32565b5b509050610c679190610c6b565b5090565b5b80821115610c8b5760008181610c829190610c8f565b50600101610c6c565b5090565b508054610c9b90611630565b6000825580601f10610cad5750610ccc565b601f016020900490600052602060002090810190610ccb9190610ccf565b5b50565b5b80821115610ce8576000816000905550600101610cd0565b5090565b6000819050919050565b610cff81610cec565b82525050565b6000602082019050610d1a6000830184610cf6565b92915050565b600081519050919050565b600082825260208201905092915050565b6000819050602082019050919050565b610d5581610cec565b82525050565b600081519050919050565b600082825260208201905092915050565b60005b83811015610d95578082015181840152602081019050610d7a565b60008484015250505050565b6000601f19601f8301169050919050565b6000610dbd82610d5b565b610dc78185610d66565b9350610dd7818560208601610d77565b610de081610da1565b840191505092915050565b7f4e487b7100000000000000000000000000000000000000000000000000000000600052602160045260246000fd5b60038110610e2b57610e2a610deb565b5b50565b6000819050610e3c82610e1a565b919050565b6000610e4c82610e2e565b9050919050565b610e5c81610e41565b82525050565b600073ffffffffffffffffffffffffffffffffffffffff82169050919050565b6000610e8d82610e62565b9050919050565b610e9d81610e82565b82525050565b600081519050919050565b600082825260208201905092915050565b6000819050602082019050919050565b6000610edb8383610db2565b905092915050565b6000602082019050919050565b6000610efb82610ea3565b610f058185610eae565b935083602082028501610f1785610ebf565b8060005b85811015610f535784840389528151610f348582610ecf565b9450610f3f83610ee3565b925060208a01995050600181019050610f1b565b50829750879550505050505092915050565b604082016000820151610f7b6000850182610d4c565b506020820151610f8e6020850182610e94565b50505050565b600061016083016000830151610fad6000860182610d4c565b5060208301518482036020860152610fc58282610db2565b91505060408301518482036040860152610fdf8282610db2565b9150506060830151610ff46060860182610e53565b5060808301516110076080860182610e94565b5060a083015161101a60a0860182610e94565b5060c083015184820360c08601526110328282610ef0565b91505060e083015161104760e0860182610f65565b5061010083015161105c610120860182610f65565b508091505092915050565b60006110738383610f94565b905092915050565b6000602082019050919050565b600061109382610d20565b61109d8185610d2b565b9350836020820285016110af85610d3c565b8060005b858110156110eb57848403895281516110cc8582611067565b94506110d78361107b565b925060208a019950506001810190506110b3565b50829750879550505050505092915050565b600060208201905081810360008301526111178184611088565b905092915050565b6000604051905090565b600080fd5b600080fd5b61113c81610cec565b811461114757600080fd5b50565b60008135905061115981611133565b92915050565b60006020828403121561117557611174611129565b5b60006111838482850161114a565b91505092915050565b600082825260208201905092915050565b60006111a882610d5b565b6111b2818561118c565b93506111c2818560208601610d77565b6111cb81610da1565b840191505092915050565b6111df81610e41565b82525050565b6111ee81610e82565b82525050565b60408201600082015161120a6000850182610d4c565b50602082015161121d6020850182610e94565b50505050565b600061014082019050611239600083018b610cf6565b818103602083015261124b818a61119d565b9050818103604083015261125f818961119d565b905061126e60608301886111d6565b61127b60808301876111e5565b61128860a08301866111e5565b61129560c08301856111f4565b6112a36101008301846111f4565b9998505050505050505050565b600080fd5b600080fd5b7f4e487b7100000000000000000000000000000000000000000000000000000000600052604160045260246000fd5b6112f282610da1565b810181811067ffffffffffffffff82111715611311576113106112ba565b5b80604052505050565b600061132461111f565b905061133082826112e9565b919050565b600067ffffffffffffffff8211156113505761134f6112ba565b5b61135982610da1565b9050602081019050919050565b82818337600083830152505050565b600061138861138384611335565b61131a565b9050828152602081018484840111156113a4576113a36112b5565b5b6113af848285611366565b509392505050565b600082601f8301126113cc576113cb6112b0565b5b81356113dc848260208601611375565b91505092915050565b6113ee81610e82565b81146113f957600080fd5b50565b60008135905061140b816113e5565b92915050565b600067ffffffffffffffff82111561142c5761142b6112ba565b5b602082029050602081019050919050565b600080fd5b600061145561145084611411565b61131a565b905080838252602082019050602084028301858111156114785761147761143d565b5b835b818110156114bf57803567ffffffffffffffff81111561149d5761149c6112b0565b5b8086016114aa89826113b7565b8552602085019450505060208101905061147a565b5050509392505050565b600082601f8301126114de576114dd6112b0565b5b81356114ee848260208601611442565b91505092915050565b600080600080600080600080610100898b03121561151857611517611129565b5b600089013567ffffffffffffffff8111156115365761153561112e565b5b6115428b828c016113b7565b985050602089013567ffffffffffffffff8111156115635761156261112e565b5b61156f8b828c016113b7565b97505060406115808b828c016113fc565b965050606089013567ffffffffffffffff8111156115a1576115a061112e565b5b6115ad8b828c016114c9565b95505060806115be8b828c0161114a565b94505060a06115cf8b828c016113fc565b93505060c06115e08b828c0161114a565b92505060e06115f18b828c016113fc565b9150509295985092959890939650565b7f4e487b7100000000000000000000000000000000000000000000000000000000600052602260045260246000fd5b6000600282049050600182168061164857607f821691505b60208210810361165b5761165a611601565b5b50919050565b7f446576656c6f70657220616464726573732063616e6e6f74206265207a65726f600082015250565b600061169760208361118c565b91506116a282611661565b602082019050919050565b600060208201905081810360008301526116c68161168a565b9050919050565b7f536b696c6c73206d757374206e6f7420626520656d7074790000000000000000600082015250565b600061170360188361118c565b915061170e826116cd565b602082019050919050565b60006020820190508181036000830152611732816116f6565b9050919050565b7f496e63656e7469766520616d6f756e74206d757374206265206772656174657260008201527f207468616e207a65726f00000000000000000000000000000000000000000000602082015250565b6000611795602a8361118c565b91506117a082611739565b604082019050919050565b600060208201905081810360008301526117c481611788565b9050919050565b7f5061796d656e7420616d6f756e74206d7573742062652067726561746572207460008201527f68616e207a65726f000000000000000000000000000000000000000000000000602082015250565b600061182760288361118c565b9150611832826117cb565b604082019050919050565b600060208201905081810360008301526118568161181a565b9050919050565b60008190508160005260206000209050919050565b60006020601f8301049050919050565b600082821b905092915050565b6000600883026118bf7fffffffffffffffffffffffffffffffffffffffffffffffffffffffffffffffff82611882565b6118c98683611882565b95508019841693508086168417925050509392505050565b6000819050919050565b60006119066119016118fc84610cec565b6118e1565b610cec565b9050919050565b6000819050919050565b611920836118eb565b61193461192c8261190d565b84845461188f565b825550505050565b600090565b61194961193c565b611954818484611917565b505050565b5b818110156119785761196d600082611941565b60018101905061195a565b5050565b601f8211156119bd5761198e8161185d565b61199784611872565b810160208510156119a6578190505b6119ba6119b285611872565b830182611959565b50505b505050565b600082821c905092915050565b60006119e0600019846008026119c2565b1980831691505092915050565b60006119f983836119cf565b9150826002028217905092915050565b611a1282610d5b565b67ffffffffffffffff811115611a2b57611a2a6112ba565b5b611a358254611630565b611a4082828561197c565b600060209050601f831160018114611a735760008415611a61578287015190505b611a6b85826119ed565b865550611ad3565b601f198416611a818661185d565b60005b82811015611aa957848901518255600182019150602085019450602081019050611a84565b86831015611ac65784890151611ac2601f8916826119cf565b8355505b6001600288020188555050505b505050505050565b7f4e487b7100000000000000000000000000000000000000000000000000000000600052601160045260246000fd5b6000611b1582610cec565b91507fffffffffffffffffffffffffffffffffffffffffffffffffffffffffffffffff8203611b4757611b46611adb565b5b60018201905091905056fea26469706673582212206464f8d06e56d4fc6b715a19fa55cc5a9918cd88a4998eed76c7d713cafcf4ad64736f6c63430008130033",
  "linkReferences": {},
  "deployedLinkReferences": {}
}