{
  "_format": "hh-sol-artifact-1",
  "contractName": "AgreementContract",
  "sourceName": "contracts/AgreementContract.sol",
  "abi": [
    {
      "inputs": [],
      "stateMutability": "nonpayable",
      "type": "constructor"
    },
    {
      "inputs": [
        {
          "internalType": "address",
          "name": "",
          "type": "address"
        }
      ],
      "name": "acceptedPaymentTokens",
      "outputs": [
        {
          "internalType": "bool",
          "name": "",
          "type": "bool"
        }
      ],
      "stateMutability": "view",
      "type": "function"
    },
    {
      "inputs": [
        {
          "internalType": "address",
          "name": "_tokenAddress",
          "type": "address"
        }
      ],
      "name": "addAcceptedPaymentToken",
      "outputs": [],
      "stateMutability": "nonpayable",
      "type": "function"
    },
    {
      "inputs": [
        {
          "internalType": "uint256",
          "name": "",
          "type": "uint256"
        }
      ],
      "name": "agreements",
      "outputs": [
        {
          "internalType": "uint256",
          "name": "id",
          "type": "uint256"
        },
        {
          "internalType": "string",
          "name": "title",
          "type": "string"
        },
        {
          "internalType": "string",
          "name": "description",
          "type": "string"
        },
        {
          "internalType": "enum AgreementContract.AgreementStatus",
          "name": "status",
          "type": "uint8"
        },
        {
          "internalType": "address",
          "name": "company",
          "type": "address"
        },
        {
          "internalType": "address",
          "name": "developer",
          "type": "address"
        },
        {
          "components": [
            {
              "internalType": "uint256",
              "name": "amount",
              "type": "uint256"
            },
            {
              "internalType": "address",
              "name": "tokenAddress",
              "type": "address"
            }
          ],
          "internalType": "struct AgreementContract.Token",
          "name": "tokenIncentive",
          "type": "tuple"
        },
        {
          "components": [
            {
              "internalType": "uint256",
              "name": "amount",
              "type": "uint256"
            },
            {
              "internalType": "address",
              "name": "tokenAddress",
              "type": "address"
            }
          ],
          "internalType": "struct AgreementContract.Token",
          "name": "payment",
          "type": "tuple"
        }
      ],
      "stateMutability": "view",
      "type": "function"
    },
    {
      "inputs": [
        {
          "internalType": "string",
          "name": "_title",
          "type": "string"
        },
        {
          "internalType": "string",
          "name": "_description",
          "type": "string"
        },
        {
          "internalType": "address",
          "name": "_developer",
          "type": "address"
        },
        {
          "internalType": "string[]",
          "name": "_skills",
          "type": "string[]"
        },
        {
          "internalType": "uint256",
          "name": "_paymentAmount",
          "type": "uint256"
        },
        {
          "internalType": "address",
          "name": "_paymentAddress",
          "type": "address"
        }
      ],
      "name": "createAgreement",
      "outputs": [],
      "stateMutability": "nonpayable",
      "type": "function"
    },
    {
      "inputs": [
        {
          "internalType": "uint256",
          "name": "_id",
          "type": "uint256"
        }
      ],
      "name": "getAgreementById",
      "outputs": [
        {
          "components": [
            {
              "internalType": "uint256",
              "name": "id",
              "type": "uint256"
            },
            {
              "internalType": "string",
              "name": "title",
              "type": "string"
            },
            {
              "internalType": "string",
              "name": "description",
              "type": "string"
            },
            {
              "internalType": "enum AgreementContract.AgreementStatus",
              "name": "status",
              "type": "uint8"
            },
            {
              "internalType": "address",
              "name": "company",
              "type": "address"
            },
            {
              "internalType": "address",
              "name": "developer",
              "type": "address"
            },
            {
              "internalType": "string[]",
              "name": "skills",
              "type": "string[]"
            },
            {
              "components": [
                {
                  "internalType": "uint256",
                  "name": "amount",
                  "type": "uint256"
                },
                {
                  "internalType": "address",
                  "name": "tokenAddress",
                  "type": "address"
                }
              ],
              "internalType": "struct AgreementContract.Token",
              "name": "tokenIncentive",
              "type": "tuple"
            },
            {
              "components": [
                {
                  "internalType": "uint256",
                  "name": "amount",
                  "type": "uint256"
                },
                {
                  "internalType": "address",
                  "name": "tokenAddress",
                  "type": "address"
                }
              ],
              "internalType": "struct AgreementContract.Token",
              "name": "payment",
              "type": "tuple"
            }
          ],
          "internalType": "struct AgreementContract.Agreement",
          "name": "",
          "type": "tuple"
        }
      ],
      "stateMutability": "view",
      "type": "function"
    },
    {
      "inputs": [],
      "name": "getAgreementCount",
      "outputs": [
        {
          "internalType": "uint256",
          "name": "",
          "type": "uint256"
        }
      ],
      "stateMutability": "view",
      "type": "function"
    },
    {
      "inputs": [],
      "name": "getAllAgreements",
      "outputs": [
        {
          "components": [
            {
              "internalType": "uint256",
              "name": "id",
              "type": "uint256"
            },
            {
              "internalType": "string",
              "name": "title",
              "type": "string"
            },
            {
              "internalType": "string",
              "name": "description",
              "type": "string"
            },
            {
              "internalType": "enum AgreementContract.AgreementStatus",
              "name": "status",
              "type": "uint8"
            },
            {
              "internalType": "address",
              "name": "company",
              "type": "address"
            },
            {
              "internalType": "address",
              "name": "developer",
              "type": "address"
            },
            {
              "internalType": "string[]",
              "name": "skills",
              "type": "string[]"
            },
            {
              "components": [
                {
                  "internalType": "uint256",
                  "name": "amount",
                  "type": "uint256"
                },
                {
                  "internalType": "address",
                  "name": "tokenAddress",
                  "type": "address"
                }
              ],
              "internalType": "struct AgreementContract.Token",
              "name": "tokenIncentive",
              "type": "tuple"
            },
            {
              "components": [
                {
                  "internalType": "uint256",
                  "name": "amount",
                  "type": "uint256"
                },
                {
                  "internalType": "address",
                  "name": "tokenAddress",
                  "type": "address"
                }
              ],
              "internalType": "struct AgreementContract.Token",
              "name": "payment",
              "type": "tuple"
            }
          ],
          "internalType": "struct AgreementContract.Agreement[]",
          "name": "",
          "type": "tuple[]"
        }
      ],
      "stateMutability": "view",
      "type": "function"
    },
    {
      "inputs": [
        {
          "internalType": "address",
          "name": "_user",
          "type": "address"
        }
      ],
      "name": "getUserAgreements",
      "outputs": [
        {
          "internalType": "uint256[]",
          "name": "",
          "type": "uint256[]"
        }
      ],
      "stateMutability": "view",
      "type": "function"
    },
    {
      "inputs": [],
      "name": "nextAgreementId",
      "outputs": [
        {
          "internalType": "uint256",
          "name": "",
          "type": "uint256"
        }
      ],
      "stateMutability": "view",
      "type": "function"
    },
    {
      "inputs": [],
      "name": "owner",
      "outputs": [
        {
          "internalType": "address",
          "name": "",
          "type": "address"
        }
      ],
      "stateMutability": "view",
      "type": "function"
    },
    {
      "inputs": [],
      "name": "tokenIncentive",
      "outputs": [
        {
          "internalType": "uint256",
          "name": "amount",
          "type": "uint256"
        },
        {
          "internalType": "address",
          "name": "tokenAddress",
          "type": "address"
        }
      ],
      "stateMutability": "view",
      "type": "function"
    },
    {
      "inputs": [
        {
          "internalType": "address",
          "name": "_newTokenAddress",
          "type": "address"
        },
        {
          "internalType": "uint256",
          "name": "_newAmount",
          "type": "uint256"
        }
      ],
      "name": "updateTokenIncentive",
      "outputs": [],
      "stateMutability": "nonpayable",
      "type": "function"
    },
    {
      "inputs": [
        {
          "internalType": "address",
          "name": "",
          "type": "address"
        },
        {
          "internalType": "uint256",
          "name": "",
          "type": "uint256"
        }
      ],
      "name": "userAgreements",
      "outputs": [
        {
          "internalType": "uint256",
          "name": "",
          "type": "uint256"
        }
      ],
      "stateMutability": "view",
      "type": "function"
    }
  ],
  "bytecode": "0x6080604052600160005534801561001557600080fd5b5033600660006101000a81548173ffffffffffffffffffffffffffffffffffffffff021916908373ffffffffffffffffffffffffffffffffffffffff160217905550612a57806100666000396000f3fe608060405234801561001057600080fd5b50600436106100ce5760003560e01c80634e6873c71161008c5780638da5cb5b116100665780638da5cb5b14610212578063adb9cae614610230578063bd14de9614610260578063c9b99dab14610297576100ce565b80634e6873c7146101a8578063573fb624146101c65780637e698256146101f6576100ce565b80628bed3e146100d357806313cda3b7146100f15780631686acfe1461010d5780632426860514610129578063484bb244146101485780634c27984e14610178575b600080fd5b6100db6102b5565b6040516100e89190611815565b60405180910390f35b61010b600480360381019061010691906118a2565b6102c2565b005b61012760048036038101906101229190611b27565b6103ad565b005b6101316108d0565b60405161013f929190611c17565b60405180910390f35b610162600480360381019061015d91906118a2565b610902565b60405161016f9190611c5b565b60405180910390f35b610192600480360381019061018d9190611c76565b610922565b60405161019f9190611815565b60405180910390f35b6101b0610953565b6040516101bd9190612050565b60405180910390f35b6101e060048036038101906101db9190612072565b610d89565b6040516101ed9190612172565b60405180910390f35b610210600480360381019061020b9190611c76565b6111fb565b005b61021a611310565b6040516102279190612194565b60405180910390f35b61024a600480360381019061024591906118a2565b611336565b604051610257919061225e565b60405180910390f35b61027a60048036038101906102759190612072565b6113cd565b60405161028e989796959493929190612308565b60405180910390f35b61029f611656565b6040516102ac9190611815565b60405180910390f35b6000600180549050905090565b600660009054906101000a900473ffffffffffffffffffffffffffffffffffffffff1673ffffffffffffffffffffffffffffffffffffffff163373ffffffffffffffffffffffffffffffffffffffff1614610352576040517f08c379a000000000000000000000000000000000000000000000000000000000815260040161034990612407565b60405180910390fd5b6001600360008373ffffffffffffffffffffffffffffffffffffffff1673ffffffffffffffffffffffffffffffffffffffff16815260200190815260200160002060006101000a81548160ff02191690831515021790555050565b600073ffffffffffffffffffffffffffffffffffffffff168473ffffffffffffffffffffffffffffffffffffffff160361041c576040517f08c379a000000000000000000000000000000000000000000000000000000000815260040161041390612473565b60405180910390fd5b6000835111610460576040517f08c379a0000000000000000000000000000000000000000000000000000000008152600401610457906124df565b60405180910390fd5b600082116104a3576040517f08c379a000000000000000000000000000000000000000000000000000000000815260040161049a90612571565b60405180910390fd5b600360008273ffffffffffffffffffffffffffffffffffffffff1673ffffffffffffffffffffffffffffffffffffffff16815260200190815260200160002060009054906101000a900460ff1661052f576040517f08c379a0000000000000000000000000000000000000000000000000000000008152600401610526906125dd565b60405180910390fd5b600060405180604001604052808481526020018373ffffffffffffffffffffffffffffffffffffffff168152509050600060405180610120016040528060005481526020018981526020018881526020016000600281111561059457610593611d70565b5b81526020013373ffffffffffffffffffffffffffffffffffffffff1681526020018773ffffffffffffffffffffffffffffffffffffffff1681526020018681526020016004604051806040016040529081600082015481526020016001820160009054906101000a900473ffffffffffffffffffffffffffffffffffffffff1673ffffffffffffffffffffffffffffffffffffffff1673ffffffffffffffffffffffffffffffffffffffff1681525050815260200183815250905060018190806001815401808255809150506001900390600052602060002090600a020160009091909190915060008201518160000155602082015181600101908161069a9190612809565b5060408201518160020190816106b09190612809565b5060608201518160030160006101000a81548160ff021916908360028111156106dc576106db611d70565b5b021790555060808201518160030160016101000a81548173ffffffffffffffffffffffffffffffffffffffff021916908373ffffffffffffffffffffffffffffffffffffffff16021790555060a08201518160040160006101000a81548173ffffffffffffffffffffffffffffffffffffffff021916908373ffffffffffffffffffffffffffffffffffffffff16021790555060c082015181600501908051906020019061078b92919061165c565b5060e0820151816006016000820151816000015560208201518160010160006101000a81548173ffffffffffffffffffffffffffffffffffffffff021916908373ffffffffffffffffffffffffffffffffffffffff1602179055505050610100820151816008016000820151816000015560208201518160010160006101000a81548173ffffffffffffffffffffffffffffffffffffffff021916908373ffffffffffffffffffffffffffffffffffffffff16021790555050505050600260003373ffffffffffffffffffffffffffffffffffffffff1673ffffffffffffffffffffffffffffffffffffffff16815260200190815260200160002060005490806001815401808255809150506001900390600052602060002001600090919091909150556000808154809291906108c19061290a565b91905055505050505050505050565b60048060000154908060010160009054906101000a900473ffffffffffffffffffffffffffffffffffffffff16905082565b60036020528060005260406000206000915054906101000a900460ff1681565b6002602052816000526040600020818154811061093e57600080fd5b90600052602060002001600091509150505481565b60606001805480602002602001604051908101604052809291908181526020016000905b82821015610d8057838290600052602060002090600a020160405180610120016040529081600082015481526020016001820180546109b59061262c565b80601f01602080910402602001604051908101604052809291908181526020018280546109e19061262c565b8015610a2e5780601f10610a0357610100808354040283529160200191610a2e565b820191906000526020600020905b815481529060010190602001808311610a1157829003601f168201915b50505050508152602001600282018054610a479061262c565b80601f0160208091040260200160405190810160405280929190818152602001828054610a739061262c565b8015610ac05780601f10610a9557610100808354040283529160200191610ac0565b820191906000526020600020905b815481529060010190602001808311610aa357829003601f168201915b505050505081526020016003820160009054906101000a900460ff166002811115610aee57610aed611d70565b5b6002811115610b0057610aff611d70565b5b81526020016003820160019054906101000a900473ffffffffffffffffffffffffffffffffffffffff1673ffffffffffffffffffffffffffffffffffffffff1673ffffffffffffffffffffffffffffffffffffffff1681526020016004820160009054906101000a900473ffffffffffffffffffffffffffffffffffffffff1673ffffffffffffffffffffffffffffffffffffffff1673ffffffffffffffffffffffffffffffffffffffff16815260200160058201805480602002602001604051908101604052809291908181526020016000905b82821015610c81578382906000526020600020018054610bf49061262c565b80601f0160208091040260200160405190810160405280929190818152602001828054610c209061262c565b8015610c6d5780601f10610c4257610100808354040283529160200191610c6d565b820191906000526020600020905b815481529060010190602001808311610c5057829003601f168201915b505050505081526020019060010190610bd5565b50505050815260200160068201604051806040016040529081600082015481526020016001820160009054906101000a900473ffffffffffffffffffffffffffffffffffffffff1673ffffffffffffffffffffffffffffffffffffffff1673ffffffffffffffffffffffffffffffffffffffff1681525050815260200160088201604051806040016040529081600082015481526020016001820160009054906101000a900473ffffffffffffffffffffffffffffffffffffffff1673ffffffffffffffffffffffffffffffffffffffff1673ffffffffffffffffffffffffffffffffffffffff16815250508152505081526020019060010190610977565b50505050905090565b610d916116b5565b600082118015610da657506001805490508211155b610de5576040517f08c379a0000000000000000000000000000000000000000000000000000000008152600401610ddc9061299e565b60405180910390fd5b60018083610df391906129be565b81548110610e0457610e036129f2565b5b90600052602060002090600a02016040518061012001604052908160008201548152602001600182018054610e389061262c565b80601f0160208091040260200160405190810160405280929190818152602001828054610e649061262c565b8015610eb15780601f10610e8657610100808354040283529160200191610eb1565b820191906000526020600020905b815481529060010190602001808311610e9457829003601f168201915b50505050508152602001600282018054610eca9061262c565b80601f0160208091040260200160405190810160405280929190818152602001828054610ef69061262c565b8015610f435780601f10610f1857610100808354040283529160200191610f43565b820191906000526020600020905b815481529060010190602001808311610f2657829003601f168201915b505050505081526020016003820160009054906101000a900460ff166002811115610f7157610f70611d70565b5b6002811115610f8357610f82611d70565b5b81526020016003820160019054906101000a900473ffffffffffffffffffffffffffffffffffffffff1673ffffffffffffffffffffffffffffffffffffffff1673ffffffffffffffffffffffffffffffffffffffff1681526020016004820160009054906101000a900473ffffffffffffffffffffffffffffffffffffffff1673ffffffffffffffffffffffffffffffffffffffff1673ffffffffffffffffffffffffffffffffffffffff16815260200160058201805480602002602001604051908101604052809291908181526020016000905b828210156111045783829060005260206000200180546110779061262c565b80601f01602080910402602001604051908101604052809291908181526020018280546110a39061262c565b80156110f05780601f106110c5576101008083540402835291602001916110f0565b820191906000526020600020905b8154815290600101906020018083116110d357829003601f168201915b505050505081526020019060010190611058565b50505050815260200160068201604051806040016040529081600082015481526020016001820160009054906101000a900473ffffffffffffffffffffffffffffffffffffffff1673ffffffffffffffffffffffffffffffffffffffff1673ffffffffffffffffffffffffffffffffffffffff1681525050815260200160088201604051806040016040529081600082015481526020016001820160009054906101000a900473ffffffffffffffffffffffffffffffffffffffff1673ffffffffffffffffffffffffffffffffffffffff1673ffffffffffffffffffffffffffffffffffffffff1681525050815250509050919050565b600660009054906101000a900473ffffffffffffffffffffffffffffffffffffffff1673ffffffffffffffffffffffffffffffffffffffff163373ffffffffffffffffffffffffffffffffffffffff161461128b576040517f08c379a000000000000000000000000000000000000000000000000000000000815260040161128290612407565b60405180910390fd5b60405180604001604052808281526020018373ffffffffffffffffffffffffffffffffffffffff1681525060046000820151816000015560208201518160010160006101000a81548173ffffffffffffffffffffffffffffffffffffffff021916908373ffffffffffffffffffffffffffffffffffffffff1602179055509050505050565b600660009054906101000a900473ffffffffffffffffffffffffffffffffffffffff1681565b6060600260008373ffffffffffffffffffffffffffffffffffffffff1673ffffffffffffffffffffffffffffffffffffffff1681526020019081526020016000208054806020026020016040519081016040528092919081815260200182805480156113c157602002820191906000526020600020905b8154815260200190600101908083116113ad575b50505050509050919050565b600181815481106113dd57600080fd5b90600052602060002090600a02016000915090508060000154908060010180546114069061262c565b80601f01602080910402602001604051908101604052809291908181526020018280546114329061262c565b801561147f5780601f106114545761010080835404028352916020019161147f565b820191906000526020600020905b81548152906001019060200180831161146257829003601f168201915b5050505050908060020180546114949061262c565b80601f01602080910402602001604051908101604052809291908181526020018280546114c09061262c565b801561150d5780601f106114e25761010080835404028352916020019161150d565b820191906000526020600020905b8154815290600101906020018083116114f057829003601f168201915b5050505050908060030160009054906101000a900460ff16908060030160019054906101000a900473ffffffffffffffffffffffffffffffffffffffff16908060040160009054906101000a900473ffffffffffffffffffffffffffffffffffffffff169080600601604051806040016040529081600082015481526020016001820160009054906101000a900473ffffffffffffffffffffffffffffffffffffffff1673ffffffffffffffffffffffffffffffffffffffff1673ffffffffffffffffffffffffffffffffffffffff16815250509080600801604051806040016040529081600082015481526020016001820160009054906101000a900473ffffffffffffffffffffffffffffffffffffffff1673ffffffffffffffffffffffffffffffffffffffff1673ffffffffffffffffffffffffffffffffffffffff1681525050905088565b60005481565b8280548282559060005260206000209081019282156116a4579160200282015b828111156116a35782518290816116939190612809565b509160200191906001019061167c565b5b5090506116b1919061174b565b5090565b604051806101200160405280600081526020016060815260200160608152602001600060028111156116ea576116e9611d70565b5b8152602001600073ffffffffffffffffffffffffffffffffffffffff168152602001600073ffffffffffffffffffffffffffffffffffffffff1681526020016060815260200161173861176f565b815260200161174561176f565b81525090565b5b8082111561176b5760008181611762919061179f565b5060010161174c565b5090565b604051806040016040528060008152602001600073ffffffffffffffffffffffffffffffffffffffff1681525090565b5080546117ab9061262c565b6000825580601f106117bd57506117dc565b601f0160209004906000526020600020908101906117db91906117df565b5b50565b5b808211156117f85760008160009055506001016117e0565b5090565b6000819050919050565b61180f816117fc565b82525050565b600060208201905061182a6000830184611806565b92915050565b6000604051905090565b600080fd5b600080fd5b600073ffffffffffffffffffffffffffffffffffffffff82169050919050565b600061186f82611844565b9050919050565b61187f81611864565b811461188a57600080fd5b50565b60008135905061189c81611876565b92915050565b6000602082840312156118b8576118b761183a565b5b60006118c68482850161188d565b91505092915050565b600080fd5b600080fd5b6000601f19601f8301169050919050565b7f4e487b7100000000000000000000000000000000000000000000000000000000600052604160045260246000fd5b611922826118d9565b810181811067ffffffffffffffff82111715611941576119406118ea565b5b80604052505050565b6000611954611830565b90506119608282611919565b919050565b600067ffffffffffffffff8211156119805761197f6118ea565b5b611989826118d9565b9050602081019050919050565b82818337600083830152505050565b60006119b86119b384611965565b61194a565b9050828152602081018484840111156119d4576119d36118d4565b5b6119df848285611996565b509392505050565b600082601f8301126119fc576119fb6118cf565b5b8135611a0c8482602086016119a5565b91505092915050565b600067ffffffffffffffff821115611a3057611a2f6118ea565b5b602082029050602081019050919050565b600080fd5b6000611a59611a5484611a15565b61194a565b90508083825260208201905060208402830185811115611a7c57611a7b611a41565b5b835b81811015611ac357803567ffffffffffffffff811115611aa157611aa06118cf565b5b808601611aae89826119e7565b85526020850194505050602081019050611a7e565b5050509392505050565b600082601f830112611ae257611ae16118cf565b5b8135611af2848260208601611a46565b91505092915050565b611b04816117fc565b8114611b0f57600080fd5b50565b600081359050611b2181611afb565b92915050565b60008060008060008060c08789031215611b4457611b4361183a565b5b600087013567ffffffffffffffff811115611b6257611b6161183f565b5b611b6e89828a016119e7565b965050602087013567ffffffffffffffff811115611b8f57611b8e61183f565b5b611b9b89828a016119e7565b9550506040611bac89828a0161188d565b945050606087013567ffffffffffffffff811115611bcd57611bcc61183f565b5b611bd989828a01611acd565b9350506080611bea89828a01611b12565b92505060a0611bfb89828a0161188d565b9150509295509295509295565b611c1181611864565b82525050565b6000604082019050611c2c6000830185611806565b611c396020830184611c08565b9392505050565b60008115159050919050565b611c5581611c40565b82525050565b6000602082019050611c706000830184611c4c565b92915050565b60008060408385031215611c8d57611c8c61183a565b5b6000611c9b8582860161188d565b9250506020611cac85828601611b12565b9150509250929050565b600081519050919050565b600082825260208201905092915050565b6000819050602082019050919050565b611ceb816117fc565b82525050565b600081519050919050565b600082825260208201905092915050565b60005b83811015611d2b578082015181840152602081019050611d10565b60008484015250505050565b6000611d4282611cf1565b611d4c8185611cfc565b9350611d5c818560208601611d0d565b611d65816118d9565b840191505092915050565b7f4e487b7100000000000000000000000000000000000000000000000000000000600052602160045260246000fd5b60038110611db057611daf611d70565b5b50565b6000819050611dc182611d9f565b919050565b6000611dd182611db3565b9050919050565b611de181611dc6565b82525050565b611df081611864565b82525050565b600081519050919050565b600082825260208201905092915050565b6000819050602082019050919050565b6000611e2e8383611d37565b905092915050565b6000602082019050919050565b6000611e4e82611df6565b611e588185611e01565b935083602082028501611e6a85611e12565b8060005b85811015611ea65784840389528151611e878582611e22565b9450611e9283611e36565b925060208a01995050600181019050611e6e565b50829750879550505050505092915050565b604082016000820151611ece6000850182611ce2565b506020820151611ee16020850182611de7565b50505050565b600061016083016000830151611f006000860182611ce2565b5060208301518482036020860152611f188282611d37565b91505060408301518482036040860152611f328282611d37565b9150506060830151611f476060860182611dd8565b506080830151611f5a6080860182611de7565b5060a0830151611f6d60a0860182611de7565b5060c083015184820360c0860152611f858282611e43565b91505060e0830151611f9a60e0860182611eb8565b50610100830151611faf610120860182611eb8565b508091505092915050565b6000611fc68383611ee7565b905092915050565b6000602082019050919050565b6000611fe682611cb6565b611ff08185611cc1565b93508360208202850161200285611cd2565b8060005b8581101561203e578484038952815161201f8582611fba565b945061202a83611fce565b925060208a01995050600181019050612006565b50829750879550505050505092915050565b6000602082019050818103600083015261206a8184611fdb565b905092915050565b6000602082840312156120885761208761183a565b5b600061209684828501611b12565b91505092915050565b6000610160830160008301516120b86000860182611ce2565b50602083015184820360208601526120d08282611d37565b915050604083015184820360408601526120ea8282611d37565b91505060608301516120ff6060860182611dd8565b5060808301516121126080860182611de7565b5060a083015161212560a0860182611de7565b5060c083015184820360c086015261213d8282611e43565b91505060e083015161215260e0860182611eb8565b50610100830151612167610120860182611eb8565b508091505092915050565b6000602082019050818103600083015261218c818461209f565b905092915050565b60006020820190506121a96000830184611c08565b92915050565b600081519050919050565b600082825260208201905092915050565b6000819050602082019050919050565b60006121e78383611ce2565b60208301905092915050565b6000602082019050919050565b600061220b826121af565b61221581856121ba565b9350612220836121cb565b8060005b8381101561225157815161223888826121db565b9750612243836121f3565b925050600181019050612224565b5085935050505092915050565b600060208201905081810360008301526122788184612200565b905092915050565b600082825260208201905092915050565b600061229c82611cf1565b6122a68185612280565b93506122b6818560208601611d0d565b6122bf816118d9565b840191505092915050565b6122d381611dc6565b82525050565b6040820160008201516122ef6000850182611ce2565b5060208201516123026020850182611de7565b50505050565b60006101408201905061231e600083018b611806565b8181036020830152612330818a612291565b905081810360408301526123448189612291565b905061235360608301886122ca565b6123606080830187611c08565b61236d60a0830186611c08565b61237a60c08301856122d9565b6123886101008301846122d9565b9998505050505050505050565b7f4f6e6c7920746865206f776e65722063616e2063616c6c20746869732066756e60008201527f6374696f6e000000000000000000000000000000000000000000000000000000602082015250565b60006123f1602583612280565b91506123fc82612395565b604082019050919050565b60006020820190508181036000830152612420816123e4565b9050919050565b7f446576656c6f70657220616464726573732063616e6e6f74206265207a65726f600082015250565b600061245d602083612280565b915061246882612427565b602082019050919050565b6000602082019050818103600083015261248c81612450565b9050919050565b7f536b696c6c73206d757374206e6f7420626520656d7074790000000000000000600082015250565b60006124c9601883612280565b91506124d482612493565b602082019050919050565b600060208201905081810360008301526124f8816124bc565b9050919050565b7f5061796d656e7420616d6f756e74206d7573742062652067726561746572207460008201527f68616e207a65726f000000000000000000000000000000000000000000000000602082015250565b600061255b602883612280565b9150612566826124ff565b604082019050919050565b6000602082019050818103600083015261258a8161254e565b9050919050565b7f496e76616c6964207061796d656e7420746f6b656e0000000000000000000000600082015250565b60006125c7601583612280565b91506125d282612591565b602082019050919050565b600060208201905081810360008301526125f6816125ba565b9050919050565b7f4e487b7100000000000000000000000000000000000000000000000000000000600052602260045260246000fd5b6000600282049050600182168061264457607f821691505b602082108103612657576126566125fd565b5b50919050565b60008190508160005260206000209050919050565b60006020601f8301049050919050565b600082821b905092915050565b6000600883026126bf7fffffffffffffffffffffffffffffffffffffffffffffffffffffffffffffffff82612682565b6126c98683612682565b95508019841693508086168417925050509392505050565b6000819050919050565b60006127066127016126fc846117fc565b6126e1565b6117fc565b9050919050565b6000819050919050565b612720836126eb565b61273461272c8261270d565b84845461268f565b825550505050565b600090565b61274961273c565b612754818484612717565b505050565b5b818110156127785761276d600082612741565b60018101905061275a565b5050565b601f8211156127bd5761278e8161265d565b61279784612672565b810160208510156127a6578190505b6127ba6127b285612672565b830182612759565b50505b505050565b600082821c905092915050565b60006127e0600019846008026127c2565b1980831691505092915050565b60006127f983836127cf565b9150826002028217905092915050565b61281282611cf1565b67ffffffffffffffff81111561282b5761282a6118ea565b5b612835825461262c565b61284082828561277c565b600060209050601f8311600181146128735760008415612861578287015190505b61286b85826127ed565b8655506128d3565b601f1984166128818661265d565b60005b828110156128a957848901518255600182019150602085019450602081019050612884565b868310156128c657848901516128c2601f8916826127cf565b8355505b6001600288020188555050505b505050505050565b7f4e487b7100000000000000000000000000000000000000000000000000000000600052601160045260246000fd5b6000612915826117fc565b91507fffffffffffffffffffffffffffffffffffffffffffffffffffffffffffffffff8203612947576129466128db565b5b600182019050919050565b7f496e76616c69642061677265656d656e74204944000000000000000000000000600082015250565b6000612988601483612280565b915061299382612952565b602082019050919050565b600060208201905081810360008301526129b78161297b565b9050919050565b60006129c9826117fc565b91506129d4836117fc565b92508282039050818111156129ec576129eb6128db565b5b92915050565b7f4e487b7100000000000000000000000000000000000000000000000000000000600052603260045260246000fdfea2646970667358221220495434668ea77126f6ea90bb74358fbe488fb09933600adcdadbe1e95f31ac2c64736f6c63430008130033",
  "linkReferences": {},
  "deployedLinkReferences": {}
}