{
  "_format": "hh-sol-artifact-1",
  "contractName": "AgreementContract",
  "sourceName": "contracts/AgreementContract.sol",
  "abi": [
    {
      "inputs": [
        {
          "internalType": "uint256",
          "name": "",
          "type": "uint256"
        }
      ],
      "name": "agreements",
      "outputs": [
        {
          "internalType": "uint256",
          "name": "id",
          "type": "uint256"
        },
        {
          "internalType": "string",
          "name": "title",
          "type": "string"
        },
        {
          "internalType": "string",
          "name": "description",
          "type": "string"
        },
        {
          "internalType": "enum AgreementContract.AgreementStatus",
          "name": "status",
          "type": "uint8"
        },
        {
          "internalType": "address",
          "name": "company",
          "type": "address"
        },
        {
          "internalType": "address",
          "name": "developer",
          "type": "address"
        },
        {
          "components": [
            {
              "internalType": "uint256",
              "name": "amount",
              "type": "uint256"
            },
            {
              "internalType": "address",
              "name": "tokenAddress",
              "type": "address"
            }
          ],
          "internalType": "struct AgreementContract.Token",
          "name": "tokenIncentive",
          "type": "tuple"
        },
        {
          "components": [
            {
              "internalType": "uint256",
              "name": "amount",
              "type": "uint256"
            },
            {
              "internalType": "address",
              "name": "tokenAddress",
              "type": "address"
            }
          ],
          "internalType": "struct AgreementContract.Token",
          "name": "payment",
          "type": "tuple"
        }
      ],
      "stateMutability": "view",
      "type": "function"
    },
    {
      "inputs": [
        {
          "internalType": "string",
          "name": "_title",
          "type": "string"
        },
        {
          "internalType": "string",
          "name": "_description",
          "type": "string"
        },
        {
          "internalType": "address",
          "name": "_developer",
          "type": "address"
        },
        {
          "internalType": "string[]",
          "name": "_skills",
          "type": "string[]"
        },
        {
          "internalType": "uint256",
          "name": "_incentiveAmount",
          "type": "uint256"
        },
        {
          "internalType": "address",
          "name": "_incentiveAddress",
          "type": "address"
        },
        {
          "internalType": "uint256",
          "name": "_paymentAmount",
          "type": "uint256"
        },
        {
          "internalType": "address",
          "name": "_paymentAddress",
          "type": "address"
        }
      ],
      "name": "createAgreement",
      "outputs": [],
      "stateMutability": "nonpayable",
      "type": "function"
    },
    {
      "inputs": [
        {
          "internalType": "uint256",
          "name": "_id",
          "type": "uint256"
        }
      ],
      "name": "getAgreementById",
      "outputs": [
        {
          "components": [
            {
              "internalType": "uint256",
              "name": "id",
              "type": "uint256"
            },
            {
              "internalType": "string",
              "name": "title",
              "type": "string"
            },
            {
              "internalType": "string",
              "name": "description",
              "type": "string"
            },
            {
              "internalType": "enum AgreementContract.AgreementStatus",
              "name": "status",
              "type": "uint8"
            },
            {
              "internalType": "address",
              "name": "company",
              "type": "address"
            },
            {
              "internalType": "address",
              "name": "developer",
              "type": "address"
            },
            {
              "internalType": "string[]",
              "name": "skills",
              "type": "string[]"
            },
            {
              "components": [
                {
                  "internalType": "uint256",
                  "name": "amount",
                  "type": "uint256"
                },
                {
                  "internalType": "address",
                  "name": "tokenAddress",
                  "type": "address"
                }
              ],
              "internalType": "struct AgreementContract.Token",
              "name": "tokenIncentive",
              "type": "tuple"
            },
            {
              "components": [
                {
                  "internalType": "uint256",
                  "name": "amount",
                  "type": "uint256"
                },
                {
                  "internalType": "address",
                  "name": "tokenAddress",
                  "type": "address"
                }
              ],
              "internalType": "struct AgreementContract.Token",
              "name": "payment",
              "type": "tuple"
            }
          ],
          "internalType": "struct AgreementContract.Agreement",
          "name": "",
          "type": "tuple"
        }
      ],
      "stateMutability": "view",
      "type": "function"
    },
    {
      "inputs": [],
      "name": "getAgreementCount",
      "outputs": [
        {
          "internalType": "uint256",
          "name": "",
          "type": "uint256"
        }
      ],
      "stateMutability": "view",
      "type": "function"
    },
    {
      "inputs": [],
      "name": "getAllAgreements",
      "outputs": [
        {
          "components": [
            {
              "internalType": "uint256",
              "name": "id",
              "type": "uint256"
            },
            {
              "internalType": "string",
              "name": "title",
              "type": "string"
            },
            {
              "internalType": "string",
              "name": "description",
              "type": "string"
            },
            {
              "internalType": "enum AgreementContract.AgreementStatus",
              "name": "status",
              "type": "uint8"
            },
            {
              "internalType": "address",
              "name": "company",
              "type": "address"
            },
            {
              "internalType": "address",
              "name": "developer",
              "type": "address"
            },
            {
              "internalType": "string[]",
              "name": "skills",
              "type": "string[]"
            },
            {
              "components": [
                {
                  "internalType": "uint256",
                  "name": "amount",
                  "type": "uint256"
                },
                {
                  "internalType": "address",
                  "name": "tokenAddress",
                  "type": "address"
                }
              ],
              "internalType": "struct AgreementContract.Token",
              "name": "tokenIncentive",
              "type": "tuple"
            },
            {
              "components": [
                {
                  "internalType": "uint256",
                  "name": "amount",
                  "type": "uint256"
                },
                {
                  "internalType": "address",
                  "name": "tokenAddress",
                  "type": "address"
                }
              ],
              "internalType": "struct AgreementContract.Token",
              "name": "payment",
              "type": "tuple"
            }
          ],
          "internalType": "struct AgreementContract.Agreement[]",
          "name": "",
          "type": "tuple[]"
        }
      ],
      "stateMutability": "view",
      "type": "function"
    },
    {
      "inputs": [
        {
          "internalType": "address",
          "name": "_user",
          "type": "address"
        }
      ],
      "name": "getUserAgreements",
      "outputs": [
        {
          "internalType": "uint256[]",
          "name": "",
          "type": "uint256[]"
        }
      ],
      "stateMutability": "view",
      "type": "function"
    },
    {
      "inputs": [],
      "name": "nextAgreementId",
      "outputs": [
        {
          "internalType": "uint256",
          "name": "",
          "type": "uint256"
        }
      ],
      "stateMutability": "view",
      "type": "function"
    },
    {
      "inputs": [
        {
          "internalType": "address",
          "name": "",
          "type": "address"
        },
        {
          "internalType": "uint256",
          "name": "",
          "type": "uint256"
        }
      ],
      "name": "userAgreements",
      "outputs": [
        {
          "internalType": "uint256",
          "name": "",
          "type": "uint256"
        }
      ],
      "stateMutability": "view",
      "type": "function"
    }
  ],
  "bytecode": "0x6080604052600160005534801561001557600080fd5b506125b3806100256000396000f3fe608060405234801561001057600080fd5b50600436106100875760003560e01c8063adb9cae61161005b578063adb9cae614610128578063bd14de9614610158578063c9b99dab1461018f578063efa83c58146101ad57610087565b80628bed3e1461008c5780634c27984e146100aa5780634e6873c7146100da578063573fb624146100f8575b600080fd5b6100946101c9565b6040516100a1919061142e565b60405180910390f35b6100c460048036038101906100bf91906114e7565b6101d6565b6040516100d1919061142e565b60405180910390f35b6100e2610207565b6040516100ef91906118d2565b60405180910390f35b610112600480360381019061010d91906118f4565b61063d565b60405161011f91906119f4565b60405180910390f35b610142600480360381019061013d9190611a16565b610aaf565b60405161014f9190611af2565b60405180910390f35b610172600480360381019061016d91906118f4565b610b46565b604051610186989796959493929190611bab565b60405180910390f35b610197610dcf565b6040516101a4919061142e565b60405180910390f35b6101c760048036038101906101c29190611e53565b610dd5565b005b6000600180549050905090565b600260205281600052604060002081815481106101f257600080fd5b90600052602060002001600091509150505481565b60606001805480602002602001604051908101604052809291908181526020016000905b8282101561063457838290600052602060002090600a0201604051806101200160405290816000820154815260200160018201805461026990611f8c565b80601f016020809104026020016040519081016040528092919081815260200182805461029590611f8c565b80156102e25780601f106102b7576101008083540402835291602001916102e2565b820191906000526020600020905b8154815290600101906020018083116102c557829003601f168201915b505050505081526020016002820180546102fb90611f8c565b80601f016020809104026020016040519081016040528092919081815260200182805461032790611f8c565b80156103745780601f1061034957610100808354040283529160200191610374565b820191906000526020600020905b81548152906001019060200180831161035757829003601f168201915b505050505081526020016003820160009054906101000a900460ff1660028111156103a2576103a16115f2565b5b60028111156103b4576103b36115f2565b5b81526020016003820160019054906101000a900473ffffffffffffffffffffffffffffffffffffffff1673ffffffffffffffffffffffffffffffffffffffff1673ffffffffffffffffffffffffffffffffffffffff1681526020016004820160009054906101000a900473ffffffffffffffffffffffffffffffffffffffff1673ffffffffffffffffffffffffffffffffffffffff1673ffffffffffffffffffffffffffffffffffffffff16815260200160058201805480602002602001604051908101604052809291908181526020016000905b828210156105355783829060005260206000200180546104a890611f8c565b80601f01602080910402602001604051908101604052809291908181526020018280546104d490611f8c565b80156105215780601f106104f657610100808354040283529160200191610521565b820191906000526020600020905b81548152906001019060200180831161050457829003601f168201915b505050505081526020019060010190610489565b50505050815260200160068201604051806040016040529081600082015481526020016001820160009054906101000a900473ffffffffffffffffffffffffffffffffffffffff1673ffffffffffffffffffffffffffffffffffffffff1673ffffffffffffffffffffffffffffffffffffffff1681525050815260200160088201604051806040016040529081600082015481526020016001820160009054906101000a900473ffffffffffffffffffffffffffffffffffffffff1673ffffffffffffffffffffffffffffffffffffffff1673ffffffffffffffffffffffffffffffffffffffff1681525050815250508152602001906001019061022b565b50505050905090565b610645611275565b60008211801561065a57506001805490508211155b610699576040517f08c379a000000000000000000000000000000000000000000000000000000000815260040161069090612009565b60405180910390fd5b600180836106a79190612058565b815481106106b8576106b761208c565b5b90600052602060002090600a020160405180610120016040529081600082015481526020016001820180546106ec90611f8c565b80601f016020809104026020016040519081016040528092919081815260200182805461071890611f8c565b80156107655780601f1061073a57610100808354040283529160200191610765565b820191906000526020600020905b81548152906001019060200180831161074857829003601f168201915b5050505050815260200160028201805461077e90611f8c565b80601f01602080910402602001604051908101604052809291908181526020018280546107aa90611f8c565b80156107f75780601f106107cc576101008083540402835291602001916107f7565b820191906000526020600020905b8154815290600101906020018083116107da57829003601f168201915b505050505081526020016003820160009054906101000a900460ff166002811115610825576108246115f2565b5b6002811115610837576108366115f2565b5b81526020016003820160019054906101000a900473ffffffffffffffffffffffffffffffffffffffff1673ffffffffffffffffffffffffffffffffffffffff1673ffffffffffffffffffffffffffffffffffffffff1681526020016004820160009054906101000a900473ffffffffffffffffffffffffffffffffffffffff1673ffffffffffffffffffffffffffffffffffffffff1673ffffffffffffffffffffffffffffffffffffffff16815260200160058201805480602002602001604051908101604052809291908181526020016000905b828210156109b857838290600052602060002001805461092b90611f8c565b80601f016020809104026020016040519081016040528092919081815260200182805461095790611f8c565b80156109a45780601f10610979576101008083540402835291602001916109a4565b820191906000526020600020905b81548152906001019060200180831161098757829003601f168201915b50505050508152602001906001019061090c565b50505050815260200160068201604051806040016040529081600082015481526020016001820160009054906101000a900473ffffffffffffffffffffffffffffffffffffffff1673ffffffffffffffffffffffffffffffffffffffff1673ffffffffffffffffffffffffffffffffffffffff1681525050815260200160088201604051806040016040529081600082015481526020016001820160009054906101000a900473ffffffffffffffffffffffffffffffffffffffff1673ffffffffffffffffffffffffffffffffffffffff1673ffffffffffffffffffffffffffffffffffffffff1681525050815250509050919050565b6060600260008373ffffffffffffffffffffffffffffffffffffffff1673ffffffffffffffffffffffffffffffffffffffff168152602001908152602001600020805480602002602001604051908101604052809291908181526020018280548015610b3a57602002820191906000526020600020905b815481526020019060010190808311610b26575b50505050509050919050565b60018181548110610b5657600080fd5b90600052602060002090600a0201600091509050806000015490806001018054610b7f90611f8c565b80601f0160208091040260200160405190810160405280929190818152602001828054610bab90611f8c565b8015610bf85780601f10610bcd57610100808354040283529160200191610bf8565b820191906000526020600020905b815481529060010190602001808311610bdb57829003601f168201915b505050505090806002018054610c0d90611f8c565b80601f0160208091040260200160405190810160405280929190818152602001828054610c3990611f8c565b8015610c865780601f10610c5b57610100808354040283529160200191610c86565b820191906000526020600020905b815481529060010190602001808311610c6957829003601f168201915b5050505050908060030160009054906101000a900460ff16908060030160019054906101000a900473ffffffffffffffffffffffffffffffffffffffff16908060040160009054906101000a900473ffffffffffffffffffffffffffffffffffffffff169080600601604051806040016040529081600082015481526020016001820160009054906101000a900473ffffffffffffffffffffffffffffffffffffffff1673ffffffffffffffffffffffffffffffffffffffff1673ffffffffffffffffffffffffffffffffffffffff16815250509080600801604051806040016040529081600082015481526020016001820160009054906101000a900473ffffffffffffffffffffffffffffffffffffffff1673ffffffffffffffffffffffffffffffffffffffff1673ffffffffffffffffffffffffffffffffffffffff1681525050905088565b60005481565b600073ffffffffffffffffffffffffffffffffffffffff168673ffffffffffffffffffffffffffffffffffffffff1603610e44576040517f08c379a0000000000000000000000000000000000000000000000000000000008152600401610e3b90612107565b60405180910390fd5b6000855111610e88576040517f08c379a0000000000000000000000000000000000000000000000000000000008152600401610e7f90612173565b60405180910390fd5b60008411610ecb576040517f08c379a0000000000000000000000000000000000000000000000000000000008152600401610ec290612205565b60405180910390fd5b60008211610f0e576040517f08c379a0000000000000000000000000000000000000000000000000000000008152600401610f0590612297565b60405180910390fd5b600060405180604001604052808681526020018573ffffffffffffffffffffffffffffffffffffffff168152509050600060405180604001604052808581526020018473ffffffffffffffffffffffffffffffffffffffff168152509050600060405180610120016040528060005481526020018c81526020018b815260200160006002811115610fa257610fa16115f2565b5b81526020013373ffffffffffffffffffffffffffffffffffffffff1681526020018a73ffffffffffffffffffffffffffffffffffffffff16815260200189815260200184815260200183815250905060018190806001815401808255809150506001900390600052602060002090600a020160009091909190915060008201518160000155602082015181600101908161103c9190612463565b5060408201518160020190816110529190612463565b5060608201518160030160006101000a81548160ff0219169083600281111561107e5761107d6115f2565b5b021790555060808201518160030160016101000a81548173ffffffffffffffffffffffffffffffffffffffff021916908373ffffffffffffffffffffffffffffffffffffffff16021790555060a08201518160040160006101000a81548173ffffffffffffffffffffffffffffffffffffffff021916908373ffffffffffffffffffffffffffffffffffffffff16021790555060c082015181600501908051906020019061112d92919061130b565b5060e0820151816006016000820151816000015560208201518160010160006101000a81548173ffffffffffffffffffffffffffffffffffffffff021916908373ffffffffffffffffffffffffffffffffffffffff1602179055505050610100820151816008016000820151816000015560208201518160010160006101000a81548173ffffffffffffffffffffffffffffffffffffffff021916908373ffffffffffffffffffffffffffffffffffffffff16021790555050505050600260003373ffffffffffffffffffffffffffffffffffffffff1673ffffffffffffffffffffffffffffffffffffffff168152602001908152602001600020600054908060018154018082558091505060019003906000526020600020016000909190919091505560008081548092919061126390612535565b91905055505050505050505050505050565b604051806101200160405280600081526020016060815260200160608152602001600060028111156112aa576112a96115f2565b5b8152602001600073ffffffffffffffffffffffffffffffffffffffff168152602001600073ffffffffffffffffffffffffffffffffffffffff168152602001606081526020016112f8611364565b8152602001611305611364565b81525090565b828054828255906000526020600020908101928215611353579160200282015b828111156113525782518290816113429190612463565b509160200191906001019061132b565b5b5090506113609190611394565b5090565b604051806040016040528060008152602001600073ffffffffffffffffffffffffffffffffffffffff1681525090565b5b808211156113b457600081816113ab91906113b8565b50600101611395565b5090565b5080546113c490611f8c565b6000825580601f106113d657506113f5565b601f0160209004906000526020600020908101906113f491906113f8565b5b50565b5b808211156114115760008160009055506001016113f9565b5090565b6000819050919050565b61142881611415565b82525050565b6000602082019050611443600083018461141f565b92915050565b6000604051905090565b600080fd5b600080fd5b600073ffffffffffffffffffffffffffffffffffffffff82169050919050565b60006114888261145d565b9050919050565b6114988161147d565b81146114a357600080fd5b50565b6000813590506114b58161148f565b92915050565b6114c481611415565b81146114cf57600080fd5b50565b6000813590506114e1816114bb565b92915050565b600080604083850312156114fe576114fd611453565b5b600061150c858286016114a6565b925050602061151d858286016114d2565b9150509250929050565b600081519050919050565b600082825260208201905092915050565b6000819050602082019050919050565b61155c81611415565b82525050565b600081519050919050565b600082825260208201905092915050565b60005b8381101561159c578082015181840152602081019050611581565b60008484015250505050565b6000601f19601f8301169050919050565b60006115c482611562565b6115ce818561156d565b93506115de81856020860161157e565b6115e7816115a8565b840191505092915050565b7f4e487b7100000000000000000000000000000000000000000000000000000000600052602160045260246000fd5b60038110611632576116316115f2565b5b50565b600081905061164382611621565b919050565b600061165382611635565b9050919050565b61166381611648565b82525050565b6116728161147d565b82525050565b600081519050919050565b600082825260208201905092915050565b6000819050602082019050919050565b60006116b083836115b9565b905092915050565b6000602082019050919050565b60006116d082611678565b6116da8185611683565b9350836020820285016116ec85611694565b8060005b85811015611728578484038952815161170985826116a4565b9450611714836116b8565b925060208a019950506001810190506116f0565b50829750879550505050505092915050565b6040820160008201516117506000850182611553565b5060208201516117636020850182611669565b50505050565b6000610160830160008301516117826000860182611553565b506020830151848203602086015261179a82826115b9565b915050604083015184820360408601526117b482826115b9565b91505060608301516117c9606086018261165a565b5060808301516117dc6080860182611669565b5060a08301516117ef60a0860182611669565b5060c083015184820360c086015261180782826116c5565b91505060e083015161181c60e086018261173a565b5061010083015161183161012086018261173a565b508091505092915050565b60006118488383611769565b905092915050565b6000602082019050919050565b600061186882611527565b6118728185611532565b93508360208202850161188485611543565b8060005b858110156118c057848403895281516118a1858261183c565b94506118ac83611850565b925060208a01995050600181019050611888565b50829750879550505050505092915050565b600060208201905081810360008301526118ec818461185d565b905092915050565b60006020828403121561190a57611909611453565b5b6000611918848285016114d2565b91505092915050565b60006101608301600083015161193a6000860182611553565b506020830151848203602086015261195282826115b9565b9150506040830151848203604086015261196c82826115b9565b9150506060830151611981606086018261165a565b5060808301516119946080860182611669565b5060a08301516119a760a0860182611669565b5060c083015184820360c08601526119bf82826116c5565b91505060e08301516119d460e086018261173a565b506101008301516119e961012086018261173a565b508091505092915050565b60006020820190508181036000830152611a0e8184611921565b905092915050565b600060208284031215611a2c57611a2b611453565b5b6000611a3a848285016114a6565b91505092915050565b600081519050919050565b600082825260208201905092915050565b6000819050602082019050919050565b6000611a7b8383611553565b60208301905092915050565b6000602082019050919050565b6000611a9f82611a43565b611aa98185611a4e565b9350611ab483611a5f565b8060005b83811015611ae5578151611acc8882611a6f565b9750611ad783611a87565b925050600181019050611ab8565b5085935050505092915050565b60006020820190508181036000830152611b0c8184611a94565b905092915050565b600082825260208201905092915050565b6000611b3082611562565b611b3a8185611b14565b9350611b4a81856020860161157e565b611b53816115a8565b840191505092915050565b611b6781611648565b82525050565b611b768161147d565b82525050565b604082016000820151611b926000850182611553565b506020820151611ba56020850182611669565b50505050565b600061014082019050611bc1600083018b61141f565b8181036020830152611bd3818a611b25565b90508181036040830152611be78189611b25565b9050611bf66060830188611b5e565b611c036080830187611b6d565b611c1060a0830186611b6d565b611c1d60c0830185611b7c565b611c2b610100830184611b7c565b9998505050505050505050565b600080fd5b600080fd5b7f4e487b7100000000000000000000000000000000000000000000000000000000600052604160045260246000fd5b611c7a826115a8565b810181811067ffffffffffffffff82111715611c9957611c98611c42565b5b80604052505050565b6000611cac611449565b9050611cb88282611c71565b919050565b600067ffffffffffffffff821115611cd857611cd7611c42565b5b611ce1826115a8565b9050602081019050919050565b82818337600083830152505050565b6000611d10611d0b84611cbd565b611ca2565b905082815260208101848484011115611d2c57611d2b611c3d565b5b611d37848285611cee565b509392505050565b600082601f830112611d5457611d53611c38565b5b8135611d64848260208601611cfd565b91505092915050565b600067ffffffffffffffff821115611d8857611d87611c42565b5b602082029050602081019050919050565b600080fd5b6000611db1611dac84611d6d565b611ca2565b90508083825260208201905060208402830185811115611dd457611dd3611d99565b5b835b81811015611e1b57803567ffffffffffffffff811115611df957611df8611c38565b5b808601611e068982611d3f565b85526020850194505050602081019050611dd6565b5050509392505050565b600082601f830112611e3a57611e39611c38565b5b8135611e4a848260208601611d9e565b91505092915050565b600080600080600080600080610100898b031215611e7457611e73611453565b5b600089013567ffffffffffffffff811115611e9257611e91611458565b5b611e9e8b828c01611d3f565b985050602089013567ffffffffffffffff811115611ebf57611ebe611458565b5b611ecb8b828c01611d3f565b9750506040611edc8b828c016114a6565b965050606089013567ffffffffffffffff811115611efd57611efc611458565b5b611f098b828c01611e25565b9550506080611f1a8b828c016114d2565b94505060a0611f2b8b828c016114a6565b93505060c0611f3c8b828c016114d2565b92505060e0611f4d8b828c016114a6565b9150509295985092959890939650565b7f4e487b7100000000000000000000000000000000000000000000000000000000600052602260045260246000fd5b60006002820490506001821680611fa457607f821691505b602082108103611fb757611fb6611f5d565b5b50919050565b7f496e76616c69642061677265656d656e74204944000000000000000000000000600082015250565b6000611ff3601483611b14565b9150611ffe82611fbd565b602082019050919050565b6000602082019050818103600083015261202281611fe6565b9050919050565b7f4e487b7100000000000000000000000000000000000000000000000000000000600052601160045260246000fd5b600061206382611415565b915061206e83611415565b925082820390508181111561208657612085612029565b5b92915050565b7f4e487b7100000000000000000000000000000000000000000000000000000000600052603260045260246000fd5b7f446576656c6f70657220616464726573732063616e6e6f74206265207a65726f600082015250565b60006120f1602083611b14565b91506120fc826120bb565b602082019050919050565b60006020820190508181036000830152612120816120e4565b9050919050565b7f536b696c6c73206d757374206e6f7420626520656d7074790000000000000000600082015250565b600061215d601883611b14565b915061216882612127565b602082019050919050565b6000602082019050818103600083015261218c81612150565b9050919050565b7f496e63656e7469766520616d6f756e74206d757374206265206772656174657260008201527f207468616e207a65726f00000000000000000000000000000000000000000000602082015250565b60006121ef602a83611b14565b91506121fa82612193565b604082019050919050565b6000602082019050818103600083015261221e816121e2565b9050919050565b7f5061796d656e7420616d6f756e74206d7573742062652067726561746572207460008201527f68616e207a65726f000000000000000000000000000000000000000000000000602082015250565b6000612281602883611b14565b915061228c82612225565b604082019050919050565b600060208201905081810360008301526122b081612274565b9050919050565b60008190508160005260206000209050919050565b60006020601f8301049050919050565b600082821b905092915050565b6000600883026123197fffffffffffffffffffffffffffffffffffffffffffffffffffffffffffffffff826122dc565b61232386836122dc565b95508019841693508086168417925050509392505050565b6000819050919050565b600061236061235b61235684611415565b61233b565b611415565b9050919050565b6000819050919050565b61237a83612345565b61238e61238682612367565b8484546122e9565b825550505050565b600090565b6123a3612396565b6123ae818484612371565b505050565b5b818110156123d2576123c760008261239b565b6001810190506123b4565b5050565b601f821115612417576123e8816122b7565b6123f1846122cc565b81016020851015612400578190505b61241461240c856122cc565b8301826123b3565b50505b505050565b600082821c905092915050565b600061243a6000198460080261241c565b1980831691505092915050565b60006124538383612429565b9150826002028217905092915050565b61246c82611562565b67ffffffffffffffff81111561248557612484611c42565b5b61248f8254611f8c565b61249a8282856123d6565b600060209050601f8311600181146124cd57600084156124bb578287015190505b6124c58582612447565b86555061252d565b601f1984166124db866122b7565b60005b82811015612503578489015182556001820191506020850194506020810190506124de565b86831015612520578489015161251c601f891682612429565b8355505b6001600288020188555050505b505050505050565b600061254082611415565b91507fffffffffffffffffffffffffffffffffffffffffffffffffffffffffffffffff820361257257612571612029565b5b60018201905091905056fea264697066735822122005c84edc906dd56575c63004f686ed3022cacb3c2f59a1bf345beb9ecfed9c0764736f6c63430008130033",
  "linkReferences": {},
  "deployedLinkReferences": {}
}