{
  "_format": "hh-sol-artifact-1",
  "contractName": "AgreementContract",
  "sourceName": "contracts/AgreementContract.sol",
  "abi": [
    {
      "inputs": [],
      "stateMutability": "nonpayable",
      "type": "constructor"
    },
    {
      "inputs": [
        {
          "internalType": "address",
          "name": "",
          "type": "address"
        }
      ],
      "name": "acceptedPaymentTokens",
      "outputs": [
        {
          "internalType": "bool",
          "name": "",
          "type": "bool"
        }
      ],
      "stateMutability": "view",
      "type": "function"
    },
    {
      "inputs": [
        {
          "internalType": "address",
          "name": "_tokenAddress",
          "type": "address"
        }
      ],
      "name": "addAcceptedPaymentToken",
      "outputs": [],
      "stateMutability": "nonpayable",
      "type": "function"
    },
    {
      "inputs": [
        {
          "internalType": "uint256",
          "name": "",
          "type": "uint256"
        }
      ],
      "name": "agreements",
      "outputs": [
        {
          "internalType": "uint256",
          "name": "id",
          "type": "uint256"
        },
        {
          "internalType": "string",
          "name": "title",
          "type": "string"
        },
        {
          "internalType": "string",
          "name": "description",
          "type": "string"
        },
        {
          "internalType": "enum AgreementContract.AgreementStatus",
          "name": "status",
          "type": "uint8"
        },
        {
          "internalType": "address",
          "name": "company",
          "type": "address"
        },
        {
          "internalType": "address",
          "name": "developer",
          "type": "address"
        },
        {
          "components": [
            {
              "internalType": "uint256",
              "name": "amount",
              "type": "uint256"
            },
            {
              "internalType": "address",
              "name": "tokenAddress",
              "type": "address"
            }
          ],
          "internalType": "struct AgreementContract.Token",
          "name": "tokenIncentive",
          "type": "tuple"
        },
        {
          "components": [
            {
              "internalType": "uint256",
              "name": "amount",
              "type": "uint256"
            },
            {
              "internalType": "address",
              "name": "tokenAddress",
              "type": "address"
            }
          ],
          "internalType": "struct AgreementContract.Token",
          "name": "payment",
          "type": "tuple"
        }
      ],
      "stateMutability": "view",
      "type": "function"
    },
    {
      "inputs": [],
      "name": "communityDAO",
      "outputs": [
        {
          "internalType": "address",
          "name": "",
          "type": "address"
        }
      ],
      "stateMutability": "view",
      "type": "function"
    },
    {
      "inputs": [],
      "name": "communityDAOFee",
      "outputs": [
        {
          "internalType": "uint256",
          "name": "",
          "type": "uint256"
        }
      ],
      "stateMutability": "view",
      "type": "function"
    },
    {
      "inputs": [
        {
          "internalType": "string",
          "name": "_title",
          "type": "string"
        },
        {
          "internalType": "string",
          "name": "_description",
          "type": "string"
        },
        {
          "internalType": "address",
          "name": "_developer",
          "type": "address"
        },
        {
          "internalType": "string[]",
          "name": "_skills",
          "type": "string[]"
        },
        {
          "internalType": "uint256",
          "name": "_paymentAmount",
          "type": "uint256"
        },
        {
          "internalType": "address",
          "name": "_paymentAddress",
          "type": "address"
        }
      ],
      "name": "createAgreement",
      "outputs": [],
      "stateMutability": "nonpayable",
      "type": "function"
    },
    {
      "inputs": [],
      "name": "feePercentage",
      "outputs": [
        {
          "internalType": "uint256",
          "name": "",
          "type": "uint256"
        }
      ],
      "stateMutability": "view",
      "type": "function"
    },
    {
      "inputs": [
        {
          "internalType": "uint256",
          "name": "_id",
          "type": "uint256"
        }
      ],
      "name": "getAgreementById",
      "outputs": [
        {
          "components": [
            {
              "internalType": "uint256",
              "name": "id",
              "type": "uint256"
            },
            {
              "internalType": "string",
              "name": "title",
              "type": "string"
            },
            {
              "internalType": "string",
              "name": "description",
              "type": "string"
            },
            {
              "internalType": "enum AgreementContract.AgreementStatus",
              "name": "status",
              "type": "uint8"
            },
            {
              "internalType": "address",
              "name": "company",
              "type": "address"
            },
            {
              "internalType": "address",
              "name": "developer",
              "type": "address"
            },
            {
              "internalType": "string[]",
              "name": "skills",
              "type": "string[]"
            },
            {
              "components": [
                {
                  "internalType": "uint256",
                  "name": "amount",
                  "type": "uint256"
                },
                {
                  "internalType": "address",
                  "name": "tokenAddress",
                  "type": "address"
                }
              ],
              "internalType": "struct AgreementContract.Token",
              "name": "tokenIncentive",
              "type": "tuple"
            },
            {
              "components": [
                {
                  "internalType": "uint256",
                  "name": "amount",
                  "type": "uint256"
                },
                {
                  "internalType": "address",
                  "name": "tokenAddress",
                  "type": "address"
                }
              ],
              "internalType": "struct AgreementContract.Token",
              "name": "payment",
              "type": "tuple"
            }
          ],
          "internalType": "struct AgreementContract.Agreement",
          "name": "",
          "type": "tuple"
        }
      ],
      "stateMutability": "view",
      "type": "function"
    },
    {
      "inputs": [],
      "name": "getAgreementCount",
      "outputs": [
        {
          "internalType": "uint256",
          "name": "",
          "type": "uint256"
        }
      ],
      "stateMutability": "view",
      "type": "function"
    },
    {
      "inputs": [],
      "name": "getAllAgreements",
      "outputs": [
        {
          "components": [
            {
              "internalType": "uint256",
              "name": "id",
              "type": "uint256"
            },
            {
              "internalType": "string",
              "name": "title",
              "type": "string"
            },
            {
              "internalType": "string",
              "name": "description",
              "type": "string"
            },
            {
              "internalType": "enum AgreementContract.AgreementStatus",
              "name": "status",
              "type": "uint8"
            },
            {
              "internalType": "address",
              "name": "company",
              "type": "address"
            },
            {
              "internalType": "address",
              "name": "developer",
              "type": "address"
            },
            {
              "internalType": "string[]",
              "name": "skills",
              "type": "string[]"
            },
            {
              "components": [
                {
                  "internalType": "uint256",
                  "name": "amount",
                  "type": "uint256"
                },
                {
                  "internalType": "address",
                  "name": "tokenAddress",
                  "type": "address"
                }
              ],
              "internalType": "struct AgreementContract.Token",
              "name": "tokenIncentive",
              "type": "tuple"
            },
            {
              "components": [
                {
                  "internalType": "uint256",
                  "name": "amount",
                  "type": "uint256"
                },
                {
                  "internalType": "address",
                  "name": "tokenAddress",
                  "type": "address"
                }
              ],
              "internalType": "struct AgreementContract.Token",
              "name": "payment",
              "type": "tuple"
            }
          ],
          "internalType": "struct AgreementContract.Agreement[]",
          "name": "",
          "type": "tuple[]"
        }
      ],
      "stateMutability": "view",
      "type": "function"
    },
    {
      "inputs": [
        {
          "internalType": "address",
          "name": "_user",
          "type": "address"
        }
      ],
      "name": "getUserAgreements",
      "outputs": [
        {
          "internalType": "uint256[]",
          "name": "",
          "type": "uint256[]"
        }
      ],
      "stateMutability": "view",
      "type": "function"
    },
    {
      "inputs": [],
      "name": "kyodoTreasury",
      "outputs": [
        {
          "internalType": "address",
          "name": "",
          "type": "address"
        }
      ],
      "stateMutability": "view",
      "type": "function"
    },
    {
      "inputs": [],
      "name": "kyodoTreasuryFee",
      "outputs": [
        {
          "internalType": "uint256",
          "name": "",
          "type": "uint256"
        }
      ],
      "stateMutability": "view",
      "type": "function"
    },
    {
      "inputs": [
        {
          "internalType": "uint256",
          "name": "_agreementId",
          "type": "uint256"
        }
      ],
      "name": "makePayment",
      "outputs": [],
      "stateMutability": "nonpayable",
      "type": "function"
    },
    {
      "inputs": [],
      "name": "nextAgreementId",
      "outputs": [
        {
          "internalType": "uint256",
          "name": "",
          "type": "uint256"
        }
      ],
      "stateMutability": "view",
      "type": "function"
    },
    {
      "inputs": [],
      "name": "owner",
      "outputs": [
        {
          "internalType": "address",
          "name": "",
          "type": "address"
        }
      ],
      "stateMutability": "view",
      "type": "function"
    },
    {
      "inputs": [
        {
          "internalType": "uint256",
          "name": "_feePercentage",
          "type": "uint256"
        },
        {
          "internalType": "uint256",
          "name": "_kyodoTreasuryFee",
          "type": "uint256"
        },
        {
          "internalType": "uint256",
          "name": "_communityDAOFee",
          "type": "uint256"
        }
      ],
      "name": "setFees",
      "outputs": [],
      "stateMutability": "nonpayable",
      "type": "function"
    },
    {
      "inputs": [],
      "name": "tokenIncentive",
      "outputs": [
        {
          "internalType": "uint256",
          "name": "amount",
          "type": "uint256"
        },
        {
          "internalType": "address",
          "name": "tokenAddress",
          "type": "address"
        }
      ],
      "stateMutability": "view",
      "type": "function"
    },
    {
      "inputs": [
        {
          "internalType": "address",
          "name": "_newTokenAddress",
          "type": "address"
        },
        {
          "internalType": "uint256",
          "name": "_newAmount",
          "type": "uint256"
        }
      ],
      "name": "updateTokenIncentive",
      "outputs": [],
      "stateMutability": "nonpayable",
      "type": "function"
    },
    {
      "inputs": [
        {
          "internalType": "address",
          "name": "",
          "type": "address"
        },
        {
          "internalType": "uint256",
          "name": "",
          "type": "uint256"
        }
      ],
      "name": "userAgreements",
      "outputs": [
        {
          "internalType": "uint256",
          "name": "",
          "type": "uint256"
        }
      ],
      "stateMutability": "view",
      "type": "function"
    }
  ],
  "bytecode": "0x6080604052600160005573516e98eb5c1d826fcca399b8d8b13bd8e4e12bc8600760006101000a81548173ffffffffffffffffffffffffffffffffffffffff021916908373ffffffffffffffffffffffffffffffffffffffff1602179055507319e776e2ff69d8e6600c776d3f1ef4586606805f600860006101000a81548173ffffffffffffffffffffffffffffffffffffffff021916908373ffffffffffffffffffffffffffffffffffffffff1602179055503480156100bf57600080fd5b5033600660006101000a81548173ffffffffffffffffffffffffffffffffffffffff021916908373ffffffffffffffffffffffffffffffffffffffff1602179055506133e0806101106000396000f3fe608060405234801561001057600080fd5b506004361061012b5760003560e01c80637e698256116100ad578063adb9cae611610071578063adb9cae614610321578063bd14de9614610351578063c9b99dab14610388578063c9e92905146103a6578063cec10c11146103c45761012b565b80637e6982561461028d5780638207546e146102a95780638da5cb5b146102c7578063964bb4ab146102e5578063a001ecdd146103035761012b565b80634c27984e116100f45780634c27984e146101d55780634e6873c7146102055780635114cb5214610223578063573fb6241461023f5780637d2399071461026f5761012b565b80628bed3e1461013057806313cda3b71461014e5780631686acfe1461016a5780632426860514610186578063484bb244146101a5575b600080fd5b6101386103e0565b6040516101459190611ef9565b60405180910390f35b61016860048036038101906101639190611f86565b6103ed565b005b610184600480360381019061017f919061220b565b6104d8565b005b61018e6109fb565b60405161019c9291906122fb565b60405180910390f35b6101bf60048036038101906101ba9190611f86565b610a2d565b6040516101cc919061233f565b60405180910390f35b6101ef60048036038101906101ea919061235a565b610a4d565b6040516101fc9190611ef9565b60405180910390f35b61020d610a7e565b60405161021a9190612734565b60405180910390f35b61023d60048036038101906102389190612756565b610eb4565b005b61025960048036038101906102549190612756565b611313565b6040516102669190612856565b60405180910390f35b610277611785565b6040516102849190611ef9565b60405180910390f35b6102a760048036038101906102a2919061235a565b61178b565b005b6102b16118a0565b6040516102be9190612878565b60405180910390f35b6102cf6118c6565b6040516102dc9190612878565b60405180910390f35b6102ed6118ec565b6040516102fa9190612878565b60405180910390f35b61030b611912565b6040516103189190611ef9565b60405180910390f35b61033b60048036038101906103369190611f86565b611918565b6040516103489190612942565b60405180910390f35b61036b60048036038101906103669190612756565b6119af565b60405161037f9897969594939291906129ec565b60405180910390f35b610390611c38565b60405161039d9190611ef9565b60405180910390f35b6103ae611c3e565b6040516103bb9190611ef9565b60405180910390f35b6103de60048036038101906103d99190612a79565b611c44565b005b6000600180549050905090565b600660009054906101000a900473ffffffffffffffffffffffffffffffffffffffff1673ffffffffffffffffffffffffffffffffffffffff163373ffffffffffffffffffffffffffffffffffffffff161461047d576040517f08c379a000000000000000000000000000000000000000000000000000000000815260040161047490612b3e565b60405180910390fd5b6001600360008373ffffffffffffffffffffffffffffffffffffffff1673ffffffffffffffffffffffffffffffffffffffff16815260200190815260200160002060006101000a81548160ff02191690831515021790555050565b600073ffffffffffffffffffffffffffffffffffffffff168473ffffffffffffffffffffffffffffffffffffffff1603610547576040517f08c379a000000000000000000000000000000000000000000000000000000000815260040161053e90612baa565b60405180910390fd5b600083511161058b576040517f08c379a000000000000000000000000000000000000000000000000000000000815260040161058290612c16565b60405180910390fd5b600082116105ce576040517f08c379a00000000000000000000000000000000000000000000000000000000081526004016105c590612ca8565b60405180910390fd5b600360008273ffffffffffffffffffffffffffffffffffffffff1673ffffffffffffffffffffffffffffffffffffffff16815260200190815260200160002060009054906101000a900460ff1661065a576040517f08c379a000000000000000000000000000000000000000000000000000000000815260040161065190612d14565b60405180910390fd5b600060405180604001604052808481526020018373ffffffffffffffffffffffffffffffffffffffff16815250905060006040518061012001604052806000548152602001898152602001888152602001600060018111156106bf576106be612454565b5b81526020013373ffffffffffffffffffffffffffffffffffffffff1681526020018773ffffffffffffffffffffffffffffffffffffffff1681526020018681526020016004604051806040016040529081600082015481526020016001820160009054906101000a900473ffffffffffffffffffffffffffffffffffffffff1673ffffffffffffffffffffffffffffffffffffffff1673ffffffffffffffffffffffffffffffffffffffff1681525050815260200183815250905060018190806001815401808255809150506001900390600052602060002090600a02016000909190919091506000820151816000015560208201518160010190816107c59190612f40565b5060408201518160020190816107db9190612f40565b5060608201518160030160006101000a81548160ff0219169083600181111561080757610806612454565b5b021790555060808201518160030160016101000a81548173ffffffffffffffffffffffffffffffffffffffff021916908373ffffffffffffffffffffffffffffffffffffffff16021790555060a08201518160040160006101000a81548173ffffffffffffffffffffffffffffffffffffffff021916908373ffffffffffffffffffffffffffffffffffffffff16021790555060c08201518160050190805190602001906108b6929190611d40565b5060e0820151816006016000820151816000015560208201518160010160006101000a81548173ffffffffffffffffffffffffffffffffffffffff021916908373ffffffffffffffffffffffffffffffffffffffff1602179055505050610100820151816008016000820151816000015560208201518160010160006101000a81548173ffffffffffffffffffffffffffffffffffffffff021916908373ffffffffffffffffffffffffffffffffffffffff16021790555050505050600260003373ffffffffffffffffffffffffffffffffffffffff1673ffffffffffffffffffffffffffffffffffffffff16815260200190815260200160002060005490806001815401808255809150506001900390600052602060002001600090919091909150556000808154809291906109ec90613041565b91905055505050505050505050565b60048060000154908060010160009054906101000a900473ffffffffffffffffffffffffffffffffffffffff16905082565b60036020528060005260406000206000915054906101000a900460ff1681565b60026020528160005260406000208181548110610a6957600080fd5b90600052602060002001600091509150505481565b60606001805480602002602001604051908101604052809291908181526020016000905b82821015610eab57838290600052602060002090600a02016040518061012001604052908160008201548152602001600182018054610ae090612d63565b80601f0160208091040260200160405190810160405280929190818152602001828054610b0c90612d63565b8015610b595780601f10610b2e57610100808354040283529160200191610b59565b820191906000526020600020905b815481529060010190602001808311610b3c57829003601f168201915b50505050508152602001600282018054610b7290612d63565b80601f0160208091040260200160405190810160405280929190818152602001828054610b9e90612d63565b8015610beb5780601f10610bc057610100808354040283529160200191610beb565b820191906000526020600020905b815481529060010190602001808311610bce57829003601f168201915b505050505081526020016003820160009054906101000a900460ff166001811115610c1957610c18612454565b5b6001811115610c2b57610c2a612454565b5b81526020016003820160019054906101000a900473ffffffffffffffffffffffffffffffffffffffff1673ffffffffffffffffffffffffffffffffffffffff1673ffffffffffffffffffffffffffffffffffffffff1681526020016004820160009054906101000a900473ffffffffffffffffffffffffffffffffffffffff1673ffffffffffffffffffffffffffffffffffffffff1673ffffffffffffffffffffffffffffffffffffffff16815260200160058201805480602002602001604051908101604052809291908181526020016000905b82821015610dac578382906000526020600020018054610d1f90612d63565b80601f0160208091040260200160405190810160405280929190818152602001828054610d4b90612d63565b8015610d985780601f10610d6d57610100808354040283529160200191610d98565b820191906000526020600020905b815481529060010190602001808311610d7b57829003601f168201915b505050505081526020019060010190610d00565b50505050815260200160068201604051806040016040529081600082015481526020016001820160009054906101000a900473ffffffffffffffffffffffffffffffffffffffff1673ffffffffffffffffffffffffffffffffffffffff1673ffffffffffffffffffffffffffffffffffffffff1681525050815260200160088201604051806040016040529081600082015481526020016001820160009054906101000a900473ffffffffffffffffffffffffffffffffffffffff1673ffffffffffffffffffffffffffffffffffffffff1673ffffffffffffffffffffffffffffffffffffffff16815250508152505081526020019060010190610aa2565b50505050905090565b600081118015610ec957506001805490508111155b610f08576040517f08c379a0000000000000000000000000000000000000000000000000000000008152600401610eff906130d5565b60405180910390fd5b600060018083610f1891906130f5565b81548110610f2957610f28613129565b5b90600052602060002090600a020190506000806000806000806001811115610f5457610f53612454565b5b8660030160009054906101000a900460ff166001811115610f7857610f77612454565b5b14610fb8576040517f08c379a0000000000000000000000000000000000000000000000000000000008152600401610faf906131a4565b60405180910390fd5b600086600801905060008160010160009054906101000a900473ffffffffffffffffffffffffffffffffffffffff1690506000826000015490506103e8600954029750620f4240818902816110105761100f6131c4565b5b0496506103e8600a54880281611029576110286131c4565b5b049550858703945086810393508173ffffffffffffffffffffffffffffffffffffffff166323b872dd3330846040518463ffffffff1660e01b8152600401611073939291906131f3565b6020604051808303816000875af1158015611092573d6000803e3d6000fd5b505050506040513d601f19601f820116820180604052508101906110b69190613256565b6110f5576040517f08c379a00000000000000000000000000000000000000000000000000000000081526004016110ec906132f5565b60405180910390fd5b8173ffffffffffffffffffffffffffffffffffffffff1663a9059cbb600760009054906101000a900473ffffffffffffffffffffffffffffffffffffffff16886040518363ffffffff1660e01b8152600401611152929190613315565b6020604051808303816000875af1158015611171573d6000803e3d6000fd5b505050506040513d601f19601f820116820180604052508101906111959190613256565b508173ffffffffffffffffffffffffffffffffffffffff1663a9059cbb600860009054906101000a900473ffffffffffffffffffffffffffffffffffffffff16876040518363ffffffff1660e01b81526004016111f3929190613315565b6020604051808303816000875af1158015611212573d6000803e3d6000fd5b505050506040513d601f19601f820116820180604052508101906112369190613256565b508173ffffffffffffffffffffffffffffffffffffffff1663a9059cbb8a60040160009054906101000a900473ffffffffffffffffffffffffffffffffffffffff16866040518363ffffffff1660e01b8152600401611296929190613315565b6020604051808303816000875af11580156112b5573d6000803e3d6000fd5b505050506040513d601f19601f820116820180604052508101906112d99190613256565b5060018960030160006101000a81548160ff0219169083600181111561130257611301612454565b5b021790555050505050505050505050565b61131b611d99565b60008211801561133057506001805490508211155b61136f576040517f08c379a0000000000000000000000000000000000000000000000000000000008152600401611366906130d5565b60405180910390fd5b6001808361137d91906130f5565b8154811061138e5761138d613129565b5b90600052602060002090600a020160405180610120016040529081600082015481526020016001820180546113c290612d63565b80601f01602080910402602001604051908101604052809291908181526020018280546113ee90612d63565b801561143b5780601f106114105761010080835404028352916020019161143b565b820191906000526020600020905b81548152906001019060200180831161141e57829003601f168201915b5050505050815260200160028201805461145490612d63565b80601f016020809104026020016040519081016040528092919081815260200182805461148090612d63565b80156114cd5780601f106114a2576101008083540402835291602001916114cd565b820191906000526020600020905b8154815290600101906020018083116114b057829003601f168201915b505050505081526020016003820160009054906101000a900460ff1660018111156114fb576114fa612454565b5b600181111561150d5761150c612454565b5b81526020016003820160019054906101000a900473ffffffffffffffffffffffffffffffffffffffff1673ffffffffffffffffffffffffffffffffffffffff1673ffffffffffffffffffffffffffffffffffffffff1681526020016004820160009054906101000a900473ffffffffffffffffffffffffffffffffffffffff1673ffffffffffffffffffffffffffffffffffffffff1673ffffffffffffffffffffffffffffffffffffffff16815260200160058201805480602002602001604051908101604052809291908181526020016000905b8282101561168e57838290600052602060002001805461160190612d63565b80601f016020809104026020016040519081016040528092919081815260200182805461162d90612d63565b801561167a5780601f1061164f5761010080835404028352916020019161167a565b820191906000526020600020905b81548152906001019060200180831161165d57829003601f168201915b5050505050815260200190600101906115e2565b50505050815260200160068201604051806040016040529081600082015481526020016001820160009054906101000a900473ffffffffffffffffffffffffffffffffffffffff1673ffffffffffffffffffffffffffffffffffffffff1673ffffffffffffffffffffffffffffffffffffffff1681525050815260200160088201604051806040016040529081600082015481526020016001820160009054906101000a900473ffffffffffffffffffffffffffffffffffffffff1673ffffffffffffffffffffffffffffffffffffffff1673ffffffffffffffffffffffffffffffffffffffff1681525050815250509050919050565b600a5481565b600660009054906101000a900473ffffffffffffffffffffffffffffffffffffffff1673ffffffffffffffffffffffffffffffffffffffff163373ffffffffffffffffffffffffffffffffffffffff161461181b576040517f08c379a000000000000000000000000000000000000000000000000000000000815260040161181290612b3e565b60405180910390fd5b60405180604001604052808281526020018373ffffffffffffffffffffffffffffffffffffffff1681525060046000820151816000015560208201518160010160006101000a81548173ffffffffffffffffffffffffffffffffffffffff021916908373ffffffffffffffffffffffffffffffffffffffff1602179055509050505050565b600860009054906101000a900473ffffffffffffffffffffffffffffffffffffffff1681565b600660009054906101000a900473ffffffffffffffffffffffffffffffffffffffff1681565b600760009054906101000a900473ffffffffffffffffffffffffffffffffffffffff1681565b60095481565b6060600260008373ffffffffffffffffffffffffffffffffffffffff1673ffffffffffffffffffffffffffffffffffffffff1681526020019081526020016000208054806020026020016040519081016040528092919081815260200182805480156119a357602002820191906000526020600020905b81548152602001906001019080831161198f575b50505050509050919050565b600181815481106119bf57600080fd5b90600052602060002090600a02016000915090508060000154908060010180546119e890612d63565b80601f0160208091040260200160405190810160405280929190818152602001828054611a1490612d63565b8015611a615780601f10611a3657610100808354040283529160200191611a61565b820191906000526020600020905b815481529060010190602001808311611a4457829003601f168201915b505050505090806002018054611a7690612d63565b80601f0160208091040260200160405190810160405280929190818152602001828054611aa290612d63565b8015611aef5780601f10611ac457610100808354040283529160200191611aef565b820191906000526020600020905b815481529060010190602001808311611ad257829003601f168201915b5050505050908060030160009054906101000a900460ff16908060030160019054906101000a900473ffffffffffffffffffffffffffffffffffffffff16908060040160009054906101000a900473ffffffffffffffffffffffffffffffffffffffff169080600601604051806040016040529081600082015481526020016001820160009054906101000a900473ffffffffffffffffffffffffffffffffffffffff1673ffffffffffffffffffffffffffffffffffffffff1673ffffffffffffffffffffffffffffffffffffffff16815250509080600801604051806040016040529081600082015481526020016001820160009054906101000a900473ffffffffffffffffffffffffffffffffffffffff1673ffffffffffffffffffffffffffffffffffffffff1673ffffffffffffffffffffffffffffffffffffffff1681525050905088565b60005481565b600b5481565b600660009054906101000a900473ffffffffffffffffffffffffffffffffffffffff1673ffffffffffffffffffffffffffffffffffffffff163373ffffffffffffffffffffffffffffffffffffffff1614611cd4576040517f08c379a0000000000000000000000000000000000000000000000000000000008152600401611ccb90612b3e565b60405180910390fd5b60008310158015611ce757506127108311155b611d26576040517f08c379a0000000000000000000000000000000000000000000000000000000008152600401611d1d9061338a565b60405180910390fd5b8260098190555081600a8190555080600b81905550505050565b828054828255906000526020600020908101928215611d88579160200282015b82811115611d87578251829081611d779190612f40565b5091602001919060010190611d60565b5b509050611d959190611e2f565b5090565b60405180610120016040528060008152602001606081526020016060815260200160006001811115611dce57611dcd612454565b5b8152602001600073ffffffffffffffffffffffffffffffffffffffff168152602001600073ffffffffffffffffffffffffffffffffffffffff16815260200160608152602001611e1c611e53565b8152602001611e29611e53565b81525090565b5b80821115611e4f5760008181611e469190611e83565b50600101611e30565b5090565b604051806040016040528060008152602001600073ffffffffffffffffffffffffffffffffffffffff1681525090565b508054611e8f90612d63565b6000825580601f10611ea15750611ec0565b601f016020900490600052602060002090810190611ebf9190611ec3565b5b50565b5b80821115611edc576000816000905550600101611ec4565b5090565b6000819050919050565b611ef381611ee0565b82525050565b6000602082019050611f0e6000830184611eea565b92915050565b6000604051905090565b600080fd5b600080fd5b600073ffffffffffffffffffffffffffffffffffffffff82169050919050565b6000611f5382611f28565b9050919050565b611f6381611f48565b8114611f6e57600080fd5b50565b600081359050611f8081611f5a565b92915050565b600060208284031215611f9c57611f9b611f1e565b5b6000611faa84828501611f71565b91505092915050565b600080fd5b600080fd5b6000601f19601f8301169050919050565b7f4e487b7100000000000000000000000000000000000000000000000000000000600052604160045260246000fd5b61200682611fbd565b810181811067ffffffffffffffff8211171561202557612024611fce565b5b80604052505050565b6000612038611f14565b90506120448282611ffd565b919050565b600067ffffffffffffffff82111561206457612063611fce565b5b61206d82611fbd565b9050602081019050919050565b82818337600083830152505050565b600061209c61209784612049565b61202e565b9050828152602081018484840111156120b8576120b7611fb8565b5b6120c384828561207a565b509392505050565b600082601f8301126120e0576120df611fb3565b5b81356120f0848260208601612089565b91505092915050565b600067ffffffffffffffff82111561211457612113611fce565b5b602082029050602081019050919050565b600080fd5b600061213d612138846120f9565b61202e565b905080838252602082019050602084028301858111156121605761215f612125565b5b835b818110156121a757803567ffffffffffffffff81111561218557612184611fb3565b5b80860161219289826120cb565b85526020850194505050602081019050612162565b5050509392505050565b600082601f8301126121c6576121c5611fb3565b5b81356121d684826020860161212a565b91505092915050565b6121e881611ee0565b81146121f357600080fd5b50565b600081359050612205816121df565b92915050565b60008060008060008060c0878903121561222857612227611f1e565b5b600087013567ffffffffffffffff81111561224657612245611f23565b5b61225289828a016120cb565b965050602087013567ffffffffffffffff81111561227357612272611f23565b5b61227f89828a016120cb565b955050604061229089828a01611f71565b945050606087013567ffffffffffffffff8111156122b1576122b0611f23565b5b6122bd89828a016121b1565b93505060806122ce89828a016121f6565b92505060a06122df89828a01611f71565b9150509295509295509295565b6122f581611f48565b82525050565b60006040820190506123106000830185611eea565b61231d60208301846122ec565b9392505050565b60008115159050919050565b61233981612324565b82525050565b60006020820190506123546000830184612330565b92915050565b6000806040838503121561237157612370611f1e565b5b600061237f85828601611f71565b9250506020612390858286016121f6565b9150509250929050565b600081519050919050565b600082825260208201905092915050565b6000819050602082019050919050565b6123cf81611ee0565b82525050565b600081519050919050565b600082825260208201905092915050565b60005b8381101561240f5780820151818401526020810190506123f4565b60008484015250505050565b6000612426826123d5565b61243081856123e0565b93506124408185602086016123f1565b61244981611fbd565b840191505092915050565b7f4e487b7100000000000000000000000000000000000000000000000000000000600052602160045260246000fd5b6002811061249457612493612454565b5b50565b60008190506124a582612483565b919050565b60006124b582612497565b9050919050565b6124c5816124aa565b82525050565b6124d481611f48565b82525050565b600081519050919050565b600082825260208201905092915050565b6000819050602082019050919050565b6000612512838361241b565b905092915050565b6000602082019050919050565b6000612532826124da565b61253c81856124e5565b93508360208202850161254e856124f6565b8060005b8581101561258a578484038952815161256b8582612506565b94506125768361251a565b925060208a01995050600181019050612552565b50829750879550505050505092915050565b6040820160008201516125b260008501826123c6565b5060208201516125c560208501826124cb565b50505050565b6000610160830160008301516125e460008601826123c6565b50602083015184820360208601526125fc828261241b565b91505060408301518482036040860152612616828261241b565b915050606083015161262b60608601826124bc565b50608083015161263e60808601826124cb565b5060a083015161265160a08601826124cb565b5060c083015184820360c08601526126698282612527565b91505060e083015161267e60e086018261259c565b5061010083015161269361012086018261259c565b508091505092915050565b60006126aa83836125cb565b905092915050565b6000602082019050919050565b60006126ca8261239a565b6126d481856123a5565b9350836020820285016126e6856123b6565b8060005b858110156127225784840389528151612703858261269e565b945061270e836126b2565b925060208a019950506001810190506126ea565b50829750879550505050505092915050565b6000602082019050818103600083015261274e81846126bf565b905092915050565b60006020828403121561276c5761276b611f1e565b5b600061277a848285016121f6565b91505092915050565b60006101608301600083015161279c60008601826123c6565b50602083015184820360208601526127b4828261241b565b915050604083015184820360408601526127ce828261241b565b91505060608301516127e360608601826124bc565b5060808301516127f660808601826124cb565b5060a083015161280960a08601826124cb565b5060c083015184820360c08601526128218282612527565b91505060e083015161283660e086018261259c565b5061010083015161284b61012086018261259c565b508091505092915050565b600060208201905081810360008301526128708184612783565b905092915050565b600060208201905061288d60008301846122ec565b92915050565b600081519050919050565b600082825260208201905092915050565b6000819050602082019050919050565b60006128cb83836123c6565b60208301905092915050565b6000602082019050919050565b60006128ef82612893565b6128f9818561289e565b9350612904836128af565b8060005b8381101561293557815161291c88826128bf565b9750612927836128d7565b925050600181019050612908565b5085935050505092915050565b6000602082019050818103600083015261295c81846128e4565b905092915050565b600082825260208201905092915050565b6000612980826123d5565b61298a8185612964565b935061299a8185602086016123f1565b6129a381611fbd565b840191505092915050565b6129b7816124aa565b82525050565b6040820160008201516129d360008501826123c6565b5060208201516129e660208501826124cb565b50505050565b600061014082019050612a02600083018b611eea565b8181036020830152612a14818a612975565b90508181036040830152612a288189612975565b9050612a3760608301886129ae565b612a4460808301876122ec565b612a5160a08301866122ec565b612a5e60c08301856129bd565b612a6c6101008301846129bd565b9998505050505050505050565b600080600060608486031215612a9257612a91611f1e565b5b6000612aa0868287016121f6565b9350506020612ab1868287016121f6565b9250506040612ac2868287016121f6565b9150509250925092565b7f4f6e6c7920746865206f776e65722063616e2063616c6c20746869732066756e60008201527f6374696f6e000000000000000000000000000000000000000000000000000000602082015250565b6000612b28602583612964565b9150612b3382612acc565b604082019050919050565b60006020820190508181036000830152612b5781612b1b565b9050919050565b7f446576656c6f70657220616464726573732063616e6e6f74206265207a65726f600082015250565b6000612b94602083612964565b9150612b9f82612b5e565b602082019050919050565b60006020820190508181036000830152612bc381612b87565b9050919050565b7f536b696c6c73206d757374206e6f7420626520656d7074790000000000000000600082015250565b6000612c00601883612964565b9150612c0b82612bca565b602082019050919050565b60006020820190508181036000830152612c2f81612bf3565b9050919050565b7f5061796d656e7420616d6f756e74206d7573742062652067726561746572207460008201527f68616e207a65726f000000000000000000000000000000000000000000000000602082015250565b6000612c92602883612964565b9150612c9d82612c36565b604082019050919050565b60006020820190508181036000830152612cc181612c85565b9050919050565b7f496e76616c6964207061796d656e7420746f6b656e0000000000000000000000600082015250565b6000612cfe601583612964565b9150612d0982612cc8565b602082019050919050565b60006020820190508181036000830152612d2d81612cf1565b9050919050565b7f4e487b7100000000000000000000000000000000000000000000000000000000600052602260045260246000fd5b60006002820490506001821680612d7b57607f821691505b602082108103612d8e57612d8d612d34565b5b50919050565b60008190508160005260206000209050919050565b60006020601f8301049050919050565b600082821b905092915050565b600060088302612df67fffffffffffffffffffffffffffffffffffffffffffffffffffffffffffffffff82612db9565b612e008683612db9565b95508019841693508086168417925050509392505050565b6000819050919050565b6000612e3d612e38612e3384611ee0565b612e18565b611ee0565b9050919050565b6000819050919050565b612e5783612e22565b612e6b612e6382612e44565b848454612dc6565b825550505050565b600090565b612e80612e73565b612e8b818484612e4e565b505050565b5b81811015612eaf57612ea4600082612e78565b600181019050612e91565b5050565b601f821115612ef457612ec581612d94565b612ece84612da9565b81016020851015612edd578190505b612ef1612ee985612da9565b830182612e90565b50505b505050565b600082821c905092915050565b6000612f1760001984600802612ef9565b1980831691505092915050565b6000612f308383612f06565b9150826002028217905092915050565b612f49826123d5565b67ffffffffffffffff811115612f6257612f61611fce565b5b612f6c8254612d63565b612f77828285612eb3565b600060209050601f831160018114612faa5760008415612f98578287015190505b612fa28582612f24565b86555061300a565b601f198416612fb886612d94565b60005b82811015612fe057848901518255600182019150602085019450602081019050612fbb565b86831015612ffd5784890151612ff9601f891682612f06565b8355505b6001600288020188555050505b505050505050565b7f4e487b7100000000000000000000000000000000000000000000000000000000600052601160045260246000fd5b600061304c82611ee0565b91507fffffffffffffffffffffffffffffffffffffffffffffffffffffffffffffffff820361307e5761307d613012565b5b600182019050919050565b7f496e76616c69642061677265656d656e74204944000000000000000000000000600082015250565b60006130bf601483612964565b91506130ca82613089565b602082019050919050565b600060208201905081810360008301526130ee816130b2565b9050919050565b600061310082611ee0565b915061310b83611ee0565b925082820390508181111561312357613122613012565b5b92915050565b7f4e487b7100000000000000000000000000000000000000000000000000000000600052603260045260246000fd5b7f41677265656d656e74206973206e6f7420616374697665000000000000000000600082015250565b600061318e601783612964565b915061319982613158565b602082019050919050565b600060208201905081810360008301526131bd81613181565b9050919050565b7f4e487b7100000000000000000000000000000000000000000000000000000000600052601260045260246000fd5b600060608201905061320860008301866122ec565b61321560208301856122ec565b6132226040830184611eea565b949350505050565b61323381612324565b811461323e57600080fd5b50565b6000815190506132508161322a565b92915050565b60006020828403121561326c5761326b611f1e565b5b600061327a84828501613241565b91505092915050565b7f55736572206d75737420617070726f76652074686520616d6f756e74206f662060008201527f7468652061677265656d656e7400000000000000000000000000000000000000602082015250565b60006132df602d83612964565b91506132ea82613283565b604082019050919050565b6000602082019050818103600083015261330e816132d2565b9050919050565b600060408201905061332a60008301856122ec565b6133376020830184611eea565b9392505050565b7f496e76616c6964206665652070657263656e7461676500000000000000000000600082015250565b6000613374601683612964565b915061337f8261333e565b602082019050919050565b600060208201905081810360008301526133a381613367565b905091905056fea2646970667358221220b4e4e4f0945623b403bcdcc561d83306d5754a37c17fa1d19c6dae6e49004b4f64736f6c63430008130033",
  "linkReferences": {},
  "deployedLinkReferences": {}
}