{
  "_format": "hh-sol-artifact-1",
  "contractName": "UserRegistry",
  "sourceName": "contracts/UserRegistry.sol",
  "abi": [
    {
      "anonymous": false,
      "inputs": [
        {
          "indexed": true,
          "internalType": "address",
          "name": "userAddress",
          "type": "address"
        },
        {
          "indexed": false,
          "internalType": "string",
          "name": "name",
          "type": "string"
        },
        {
          "indexed": false,
          "internalType": "string",
          "name": "whatsapp",
          "type": "string"
        }
      ],
      "name": "UserRegistered",
      "type": "event"
    },
    {
      "inputs": [
        {
          "internalType": "address",
          "name": "_userAddress",
          "type": "address"
        }
      ],
      "name": "getUser",
      "outputs": [
        {
          "internalType": "string",
          "name": "",
          "type": "string"
        },
        {
          "internalType": "string",
          "name": "",
          "type": "string"
        }
      ],
      "stateMutability": "view",
      "type": "function"
    },
    {
      "inputs": [
        {
          "internalType": "string",
          "name": "_name",
          "type": "string"
        },
        {
          "internalType": "string",
          "name": "_whatsapp",
          "type": "string"
        }
      ],
      "name": "register",
      "outputs": [],
      "stateMutability": "nonpayable",
      "type": "function"
    }
  ],
  "bytecode": "0x608060405234801561001057600080fd5b50610b98806100206000396000f3fe608060405234801561001057600080fd5b50600436106100365760003560e01c80633ffbd47f1461003b5780636f77926b14610057575b600080fd5b610055600480360381019061005091906104bd565b610088565b005b610071600480360381019061006c919061059c565b61027e565b60405161007f929190610659565b60405180910390f35b600084849050116100ce576040517f08c379a00000000000000000000000000000000000000000000000000000000081526004016100c5906106dc565b60405180910390fd5b60008282905011610114576040517f08c379a000000000000000000000000000000000000000000000000000000000815260040161010b90610748565b60405180910390fd5b6000604051806040016040528086868080601f016020809104026020016040519081016040528093929190818152602001838380828437600081840152601f19601f82011690508083019250505050505050815260200184848080601f016020809104026020016040519081016040528093929190818152602001838380828437600081840152601f19601f820116905080830192505050505050508152509050806000803373ffffffffffffffffffffffffffffffffffffffff1673ffffffffffffffffffffffffffffffffffffffff168152602001908152602001600020600082015181600001908161020991906109ad565b50602082015181600101908161021f91906109ad565b509050503373ffffffffffffffffffffffffffffffffffffffff167f92822564bab8864c3a47b34e8d23fbce5c46234eb5da261f94087b995ac0f33b8686868660405161026f9493929190610abb565b60405180910390a25050505050565b60608060008060008573ffffffffffffffffffffffffffffffffffffffff1673ffffffffffffffffffffffffffffffffffffffff1681526020019081526020016000206040518060400160405290816000820180546102dc906107c6565b80601f0160208091040260200160405190810160405280929190818152602001828054610308906107c6565b80156103555780601f1061032a57610100808354040283529160200191610355565b820191906000526020600020905b81548152906001019060200180831161033857829003601f168201915b5050505050815260200160018201805461036e906107c6565b80601f016020809104026020016040519081016040528092919081815260200182805461039a906107c6565b80156103e75780601f106103bc576101008083540402835291602001916103e7565b820191906000526020600020905b8154815290600101906020018083116103ca57829003601f168201915b505050505081525050905060008160000151511161043a576040517f08c379a000000000000000000000000000000000000000000000000000000000815260040161043190610b42565b60405180910390fd5b806000015181602001519250925050915091565b600080fd5b600080fd5b600080fd5b600080fd5b600080fd5b60008083601f84011261047d5761047c610458565b5b8235905067ffffffffffffffff81111561049a5761049961045d565b5b6020830191508360018202830111156104b6576104b5610462565b5b9250929050565b600080600080604085870312156104d7576104d661044e565b5b600085013567ffffffffffffffff8111156104f5576104f4610453565b5b61050187828801610467565b9450945050602085013567ffffffffffffffff81111561052457610523610453565b5b61053087828801610467565b925092505092959194509250565b600073ffffffffffffffffffffffffffffffffffffffff82169050919050565b60006105698261053e565b9050919050565b6105798161055e565b811461058457600080fd5b50565b60008135905061059681610570565b92915050565b6000602082840312156105b2576105b161044e565b5b60006105c084828501610587565b91505092915050565b600081519050919050565b600082825260208201905092915050565b60005b838110156106035780820151818401526020810190506105e8565b60008484015250505050565b6000601f19601f8301169050919050565b600061062b826105c9565b61063581856105d4565b93506106458185602086016105e5565b61064e8161060f565b840191505092915050565b600060408201905081810360008301526106738185610620565b905081810360208301526106878184610620565b90509392505050565b7f4e616d652063616e6e6f7420626520656d707479000000000000000000000000600082015250565b60006106c66014836105d4565b91506106d182610690565b602082019050919050565b600060208201905081810360008301526106f5816106b9565b9050919050565b7f57686174736170702063616e6e6f7420626520656d7074790000000000000000600082015250565b60006107326018836105d4565b915061073d826106fc565b602082019050919050565b6000602082019050818103600083015261076181610725565b9050919050565b7f4e487b7100000000000000000000000000000000000000000000000000000000600052604160045260246000fd5b7f4e487b7100000000000000000000000000000000000000000000000000000000600052602260045260246000fd5b600060028204905060018216806107de57607f821691505b6020821081036107f1576107f0610797565b5b50919050565b60008190508160005260206000209050919050565b60006020601f8301049050919050565b600082821b905092915050565b6000600883026108597fffffffffffffffffffffffffffffffffffffffffffffffffffffffffffffffff8261081c565b610863868361081c565b95508019841693508086168417925050509392505050565b6000819050919050565b6000819050919050565b60006108aa6108a56108a08461087b565b610885565b61087b565b9050919050565b6000819050919050565b6108c48361088f565b6108d86108d0826108b1565b848454610829565b825550505050565b600090565b6108ed6108e0565b6108f88184846108bb565b505050565b5b8181101561091c576109116000826108e5565b6001810190506108fe565b5050565b601f82111561096157610932816107f7565b61093b8461080c565b8101602085101561094a578190505b61095e6109568561080c565b8301826108fd565b50505b505050565b600082821c905092915050565b600061098460001984600802610966565b1980831691505092915050565b600061099d8383610973565b9150826002028217905092915050565b6109b6826105c9565b67ffffffffffffffff8111156109cf576109ce610768565b5b6109d982546107c6565b6109e4828285610920565b600060209050601f831160018114610a175760008415610a05578287015190505b610a0f8582610991565b865550610a77565b601f198416610a25866107f7565b60005b82811015610a4d57848901518255600182019150602085019450602081019050610a28565b86831015610a6a5784890151610a66601f891682610973565b8355505b6001600288020188555050505b505050505050565b82818337600083830152505050565b6000610a9a83856105d4565b9350610aa7838584610a7f565b610ab08361060f565b840190509392505050565b60006040820190508181036000830152610ad6818688610a8e565b90508181036020830152610aeb818486610a8e565b905095945050505050565b7f55736572206e6f7420666f756e64000000000000000000000000000000000000600082015250565b6000610b2c600e836105d4565b9150610b3782610af6565b602082019050919050565b60006020820190508181036000830152610b5b81610b1f565b905091905056fea2646970667358221220ffe67de9f38758e33e3e29a575703c089deff08229dadfafc433e52133f2bc9864736f6c63430008110033",
  "linkReferences": {},
  "deployedLinkReferences": {}
}