{
  "_format": "hh-sol-artifact-1",
  "contractName": "AgreementContract",
  "sourceName": "contracts/AgreementContract.sol",
  "abi": [
    {
      "inputs": [
        {
          "internalType": "address",
          "name": "_kyodoTreasury",
          "type": "address"
        },
        {
          "internalType": "address",
          "name": "_communityDAO",
          "type": "address"
        }
      ],
      "stateMutability": "nonpayable",
      "type": "constructor"
    },
    {
      "inputs": [
        {
          "internalType": "address",
          "name": "",
          "type": "address"
        }
      ],
      "name": "acceptedPaymentTokens",
      "outputs": [
        {
          "internalType": "bool",
          "name": "",
          "type": "bool"
        }
      ],
      "stateMutability": "view",
      "type": "function"
    },
    {
      "inputs": [
        {
          "internalType": "address",
          "name": "_tokenAddress",
          "type": "address"
        }
      ],
      "name": "addAcceptedPaymentToken",
      "outputs": [],
      "stateMutability": "nonpayable",
      "type": "function"
    },
    {
      "inputs": [
        {
          "internalType": "uint256",
          "name": "",
          "type": "uint256"
        }
      ],
      "name": "agreements",
      "outputs": [
        {
          "internalType": "uint256",
          "name": "id",
          "type": "uint256"
        },
        {
          "internalType": "string",
          "name": "title",
          "type": "string"
        },
        {
          "internalType": "string",
          "name": "description",
          "type": "string"
        },
        {
          "internalType": "enum AgreementContract.AgreementStatus",
          "name": "status",
          "type": "uint8"
        },
        {
          "internalType": "address",
          "name": "company",
          "type": "address"
        },
        {
          "internalType": "address",
          "name": "developer",
          "type": "address"
        },
        {
          "components": [
            {
              "internalType": "uint256",
              "name": "amount",
              "type": "uint256"
            },
            {
              "internalType": "address",
              "name": "tokenAddress",
              "type": "address"
            }
          ],
          "internalType": "struct AgreementContract.Token",
          "name": "tokenIncentive",
          "type": "tuple"
        },
        {
          "components": [
            {
              "internalType": "uint256",
              "name": "amount",
              "type": "uint256"
            },
            {
              "internalType": "address",
              "name": "tokenAddress",
              "type": "address"
            }
          ],
          "internalType": "struct AgreementContract.Token",
          "name": "payment",
          "type": "tuple"
        },
        {
          "internalType": "uint256",
          "name": "totalPaid",
          "type": "uint256"
        }
      ],
      "stateMutability": "view",
      "type": "function"
    },
    {
      "inputs": [],
      "name": "communityDAO",
      "outputs": [
        {
          "internalType": "address",
          "name": "",
          "type": "address"
        }
      ],
      "stateMutability": "view",
      "type": "function"
    },
    {
      "inputs": [],
      "name": "communityDAOFee",
      "outputs": [
        {
          "internalType": "uint256",
          "name": "",
          "type": "uint256"
        }
      ],
      "stateMutability": "view",
      "type": "function"
    },
    {
      "inputs": [
        {
          "internalType": "string",
          "name": "_title",
          "type": "string"
        },
        {
          "internalType": "string",
          "name": "_description",
          "type": "string"
        },
        {
          "internalType": "address",
          "name": "_developer",
          "type": "address"
        },
        {
          "internalType": "string[]",
          "name": "_skills",
          "type": "string[]"
        },
        {
          "internalType": "uint256",
          "name": "_paymentAmount",
          "type": "uint256"
        },
        {
          "internalType": "address",
          "name": "_paymentAddress",
          "type": "address"
        }
      ],
      "name": "createAgreement",
      "outputs": [],
      "stateMutability": "nonpayable",
      "type": "function"
    },
    {
      "inputs": [],
      "name": "feePercentage",
      "outputs": [
        {
          "internalType": "uint256",
          "name": "",
          "type": "uint256"
        }
      ],
      "stateMutability": "view",
      "type": "function"
    },
    {
      "inputs": [
        {
          "internalType": "uint256",
          "name": "_id",
          "type": "uint256"
        }
      ],
      "name": "getAgreementById",
      "outputs": [
        {
          "components": [
            {
              "internalType": "uint256",
              "name": "id",
              "type": "uint256"
            },
            {
              "internalType": "string",
              "name": "title",
              "type": "string"
            },
            {
              "internalType": "string",
              "name": "description",
              "type": "string"
            },
            {
              "internalType": "enum AgreementContract.AgreementStatus",
              "name": "status",
              "type": "uint8"
            },
            {
              "internalType": "address",
              "name": "company",
              "type": "address"
            },
            {
              "internalType": "address",
              "name": "developer",
              "type": "address"
            },
            {
              "internalType": "string[]",
              "name": "skills",
              "type": "string[]"
            },
            {
              "components": [
                {
                  "internalType": "uint256",
                  "name": "amount",
                  "type": "uint256"
                },
                {
                  "internalType": "address",
                  "name": "tokenAddress",
                  "type": "address"
                }
              ],
              "internalType": "struct AgreementContract.Token",
              "name": "tokenIncentive",
              "type": "tuple"
            },
            {
              "components": [
                {
                  "internalType": "uint256",
                  "name": "amount",
                  "type": "uint256"
                },
                {
                  "internalType": "address",
                  "name": "tokenAddress",
                  "type": "address"
                }
              ],
              "internalType": "struct AgreementContract.Token",
              "name": "payment",
              "type": "tuple"
            },
            {
              "internalType": "uint256",
              "name": "totalPaid",
              "type": "uint256"
            }
          ],
          "internalType": "struct AgreementContract.Agreement",
          "name": "",
          "type": "tuple"
        }
      ],
      "stateMutability": "view",
      "type": "function"
    },
    {
      "inputs": [],
      "name": "getAgreementCount",
      "outputs": [
        {
          "internalType": "uint256",
          "name": "",
          "type": "uint256"
        }
      ],
      "stateMutability": "view",
      "type": "function"
    },
    {
      "inputs": [],
      "name": "getAllAgreements",
      "outputs": [
        {
          "components": [
            {
              "internalType": "uint256",
              "name": "id",
              "type": "uint256"
            },
            {
              "internalType": "string",
              "name": "title",
              "type": "string"
            },
            {
              "internalType": "string",
              "name": "description",
              "type": "string"
            },
            {
              "internalType": "enum AgreementContract.AgreementStatus",
              "name": "status",
              "type": "uint8"
            },
            {
              "internalType": "address",
              "name": "company",
              "type": "address"
            },
            {
              "internalType": "address",
              "name": "developer",
              "type": "address"
            },
            {
              "internalType": "string[]",
              "name": "skills",
              "type": "string[]"
            },
            {
              "components": [
                {
                  "internalType": "uint256",
                  "name": "amount",
                  "type": "uint256"
                },
                {
                  "internalType": "address",
                  "name": "tokenAddress",
                  "type": "address"
                }
              ],
              "internalType": "struct AgreementContract.Token",
              "name": "tokenIncentive",
              "type": "tuple"
            },
            {
              "components": [
                {
                  "internalType": "uint256",
                  "name": "amount",
                  "type": "uint256"
                },
                {
                  "internalType": "address",
                  "name": "tokenAddress",
                  "type": "address"
                }
              ],
              "internalType": "struct AgreementContract.Token",
              "name": "payment",
              "type": "tuple"
            },
            {
              "internalType": "uint256",
              "name": "totalPaid",
              "type": "uint256"
            }
          ],
          "internalType": "struct AgreementContract.Agreement[]",
          "name": "",
          "type": "tuple[]"
        }
      ],
      "stateMutability": "view",
      "type": "function"
    },
    {
      "inputs": [
        {
          "internalType": "address",
          "name": "_user",
          "type": "address"
        }
      ],
      "name": "getUserAgreements",
      "outputs": [
        {
          "internalType": "uint256[]",
          "name": "",
          "type": "uint256[]"
        }
      ],
      "stateMutability": "view",
      "type": "function"
    },
    {
      "inputs": [],
      "name": "kyodoTreasury",
      "outputs": [
        {
          "internalType": "address",
          "name": "",
          "type": "address"
        }
      ],
      "stateMutability": "view",
      "type": "function"
    },
    {
      "inputs": [],
      "name": "kyodoTreasuryFee",
      "outputs": [
        {
          "internalType": "uint256",
          "name": "",
          "type": "uint256"
        }
      ],
      "stateMutability": "view",
      "type": "function"
    },
    {
      "inputs": [
        {
          "internalType": "uint256",
          "name": "_agreementId",
          "type": "uint256"
        },
        {
          "internalType": "uint256",
          "name": "_amountToPay",
          "type": "uint256"
        }
      ],
      "name": "makePayment",
      "outputs": [],
      "stateMutability": "nonpayable",
      "type": "function"
    },
    {
      "inputs": [],
      "name": "nextAgreementId",
      "outputs": [
        {
          "internalType": "uint256",
          "name": "",
          "type": "uint256"
        }
      ],
      "stateMutability": "view",
      "type": "function"
    },
    {
      "inputs": [],
      "name": "owner",
      "outputs": [
        {
          "internalType": "address",
          "name": "",
          "type": "address"
        }
      ],
      "stateMutability": "view",
      "type": "function"
    },
    {
      "inputs": [
        {
          "internalType": "uint256",
          "name": "_feePercentage",
          "type": "uint256"
        },
        {
          "internalType": "uint256",
          "name": "_kyodoTreasuryFee",
          "type": "uint256"
        },
        {
          "internalType": "uint256",
          "name": "_communityDAOFee",
          "type": "uint256"
        }
      ],
      "name": "setFees",
      "outputs": [],
      "stateMutability": "nonpayable",
      "type": "function"
    },
    {
      "inputs": [
        {
          "internalType": "address",
          "name": "_StableVaultAddress",
          "type": "address"
        }
      ],
      "name": "setStableVaultAddress",
      "outputs": [],
      "stateMutability": "nonpayable",
      "type": "function"
    },
    {
      "inputs": [],
      "name": "stableVault",
      "outputs": [
        {
          "internalType": "contract IStableVault",
          "name": "",
          "type": "address"
        }
      ],
      "stateMutability": "view",
      "type": "function"
    },
    {
      "inputs": [],
      "name": "tokenIncentive",
      "outputs": [
        {
          "internalType": "uint256",
          "name": "amount",
          "type": "uint256"
        },
        {
          "internalType": "address",
          "name": "tokenAddress",
          "type": "address"
        }
      ],
      "stateMutability": "view",
      "type": "function"
    },
    {
      "inputs": [
        {
          "internalType": "address",
          "name": "_newTokenAddress",
          "type": "address"
        },
        {
          "internalType": "uint256",
          "name": "_newAmount",
          "type": "uint256"
        }
      ],
      "name": "updateTokenIncentive",
      "outputs": [],
      "stateMutability": "nonpayable",
      "type": "function"
    },
    {
      "inputs": [
        {
          "internalType": "address",
          "name": "",
          "type": "address"
        },
        {
          "internalType": "uint256",
          "name": "",
          "type": "uint256"
        }
      ],
      "name": "userAgreements",
      "outputs": [
        {
          "internalType": "uint256",
          "name": "",
          "type": "uint256"
        }
      ],
      "stateMutability": "view",
      "type": "function"
    }
  ],
  "bytecode": "0x608060405260016000553480156200001657600080fd5b50604051620039bc380380620039bc83398181016040528101906200003c91906200011e565b33600760006101000a81548173ffffffffffffffffffffffffffffffffffffffff021916908373ffffffffffffffffffffffffffffffffffffffff16021790555081600860006101000a81548173ffffffffffffffffffffffffffffffffffffffff021916908373ffffffffffffffffffffffffffffffffffffffff16021790555080600960006101000a81548173ffffffffffffffffffffffffffffffffffffffff021916908373ffffffffffffffffffffffffffffffffffffffff1602179055505050620001ad565b600081519050620001188162000193565b92915050565b600080604083850312156200013257600080fd5b6000620001428582860162000107565b9250506020620001558582860162000107565b9150509250929050565b60006200016c8262000173565b9050919050565b600073ffffffffffffffffffffffffffffffffffffffff82169050919050565b6200019e816200015f565b8114620001aa57600080fd5b50565b6137ff80620001bd6000396000f3fe608060405234801561001057600080fd5b50600436106101415760003560e01c80638207546e116100b8578063bd14de961161007c578063bd14de9614610367578063c9b99dab1461039f578063c9e92905146103bd578063ccbd3f3f146103db578063cec10c11146103f9578063d390f9741461041557610141565b80638207546e146102bf5780638da5cb5b146102dd578063964bb4ab146102fb578063a001ecdd14610319578063adb9cae61461033757610141565b8063484bb2441161010a578063484bb244146101d75780634c27984e146102075780634e6873c714610237578063573fb624146102555780637d239907146102855780637e698256146102a357610141565b80628bed3e1461014657806313cda3b7146101645780631686acfe146101805780632245c51f1461019c57806324268605146101b8575b600080fd5b61014e610431565b60405161015b919061301d565b60405180910390f35b61017e600480360381019061017991906125b5565b61043e565b005b61019a60048036038101906101959190612643565b610529565b005b6101b660048036038101906101b191906125b5565b610ab9565b005b6101c0610b8d565b6040516101ce929190613038565b60405180910390f35b6101f160048036038101906101ec91906125b5565b610bbf565b6040516101fe9190612e85565b60405180910390f35b610221600480360381019061021c91906125de565b610bdf565b60405161022e919061301d565b60405180910390f35b61023f610c10565b60405161024c9190612e41565b60405180910390f35b61026f600480360381019061026a9190612714565b61109c565b60405161027c9190612ffb565b60405180910390f35b61028d61158a565b60405161029a919061301d565b60405180910390f35b6102bd60048036038101906102b891906125de565b611590565b005b6102c76116a5565b6040516102d49190612dc6565b60405180910390f35b6102e56116cb565b6040516102f29190612dc6565b60405180910390f35b6103036116f1565b6040516103109190612dc6565b60405180910390f35b610321611717565b60405161032e919061301d565b60405180910390f35b610351600480360381019061034c91906125b5565b61171d565b60405161035e9190612e63565b60405180910390f35b610381600480360381019061037c9190612714565b6117b4565b60405161039699989796959493929190613098565b60405180910390f35b6103a7611a43565b6040516103b4919061301d565b60405180910390f35b6103c5611a49565b6040516103d2919061301d565b60405180910390f35b6103e3611a4f565b6040516103f09190612ea0565b60405180910390f35b610413600480360381019061040e9190612779565b611a75565b005b61042f600480360381019061042a919061273d565b611b71565b005b6000600180549050905090565b600760009054906101000a900473ffffffffffffffffffffffffffffffffffffffff1673ffffffffffffffffffffffffffffffffffffffff163373ffffffffffffffffffffffffffffffffffffffff16146104ce576040517f08c379a00000000000000000000000000000000000000000000000000000000081526004016104c590612efb565b60405180910390fd5b6001600360008373ffffffffffffffffffffffffffffffffffffffff1673ffffffffffffffffffffffffffffffffffffffff16815260200190815260200160002060006101000a81548160ff02191690831515021790555050565b600073ffffffffffffffffffffffffffffffffffffffff168473ffffffffffffffffffffffffffffffffffffffff161415610599576040517f08c379a000000000000000000000000000000000000000000000000000000000815260040161059090612f9b565b60405180910390fd5b60008351116105dd576040517f08c379a00000000000000000000000000000000000000000000000000000000081526004016105d490612edb565b60405180910390fd5b60008211610620576040517f08c379a000000000000000000000000000000000000000000000000000000000815260040161061790612fbb565b60405180910390fd5b600360008273ffffffffffffffffffffffffffffffffffffffff1673ffffffffffffffffffffffffffffffffffffffff16815260200190815260200160002060009054906101000a900460ff166106ac576040517f08c379a00000000000000000000000000000000000000000000000000000000081526004016106a390612f1b565b60405180910390fd5b600060405180604001604052808481526020018373ffffffffffffffffffffffffffffffffffffffff1681525090506000604051806101400160405280600054815260200189815260200188815260200160006001811115610737577f4e487b7100000000000000000000000000000000000000000000000000000000600052602160045260246000fd5b81526020013373ffffffffffffffffffffffffffffffffffffffff1681526020018773ffffffffffffffffffffffffffffffffffffffff1681526020018681526020016004604051806040016040529081600082015481526020016001820160009054906101000a900473ffffffffffffffffffffffffffffffffffffffff1673ffffffffffffffffffffffffffffffffffffffff1673ffffffffffffffffffffffffffffffffffffffff168152505081526020018381526020016000815250905060018190806001815401808255809150506001900390600052602060002090600b020160009091909190915060008201518160000155602082015181600101908051906020019061084b92919061222d565b50604082015181600201908051906020019061086892919061222d565b5060608201518160030160006101000a81548160ff021916908360018111156108ba577f4e487b7100000000000000000000000000000000000000000000000000000000600052602160045260246000fd5b021790555060808201518160030160016101000a81548173ffffffffffffffffffffffffffffffffffffffff021916908373ffffffffffffffffffffffffffffffffffffffff16021790555060a08201518160040160006101000a81548173ffffffffffffffffffffffffffffffffffffffff021916908373ffffffffffffffffffffffffffffffffffffffff16021790555060c08201518160050190805190602001906109699291906122b3565b5060e0820151816006016000820151816000015560208201518160010160006101000a81548173ffffffffffffffffffffffffffffffffffffffff021916908373ffffffffffffffffffffffffffffffffffffffff1602179055505050610100820151816008016000820151816000015560208201518160010160006101000a81548173ffffffffffffffffffffffffffffffffffffffff021916908373ffffffffffffffffffffffffffffffffffffffff160217905550505061012082015181600a01555050600260003373ffffffffffffffffffffffffffffffffffffffff1673ffffffffffffffffffffffffffffffffffffffff1681526020019081526020016000206000549080600181540180825580915050600190039060005260206000200160009091909190915055600080815480929190610aaa9061344e565b91905055505050505050505050565b600760009054906101000a900473ffffffffffffffffffffffffffffffffffffffff1673ffffffffffffffffffffffffffffffffffffffff163373ffffffffffffffffffffffffffffffffffffffff1614610b49576040517f08c379a0000000000000000000000000000000000000000000000000000000008152600401610b4090612efb565b60405180910390fd5b80600660006101000a81548173ffffffffffffffffffffffffffffffffffffffff021916908373ffffffffffffffffffffffffffffffffffffffff16021790555050565b60048060000154908060010160009054906101000a900473ffffffffffffffffffffffffffffffffffffffff16905082565b60036020528060005260406000206000915054906101000a900460ff1681565b60026020528160005260406000208181548110610bfb57600080fd5b90600052602060002001600091509150505481565b60606001805480602002602001604051908101604052809291908181526020016000905b8282101561109357838290600052602060002090600b02016040518061014001604052908160008201548152602001600182018054610c72906133eb565b80601f0160208091040260200160405190810160405280929190818152602001828054610c9e906133eb565b8015610ceb5780601f10610cc057610100808354040283529160200191610ceb565b820191906000526020600020905b815481529060010190602001808311610cce57829003601f168201915b50505050508152602001600282018054610d04906133eb565b80601f0160208091040260200160405190810160405280929190818152602001828054610d30906133eb565b8015610d7d5780601f10610d5257610100808354040283529160200191610d7d565b820191906000526020600020905b815481529060010190602001808311610d6057829003601f168201915b505050505081526020016003820160009054906101000a900460ff166001811115610dd1577f4e487b7100000000000000000000000000000000000000000000000000000000600052602160045260246000fd5b6001811115610e09577f4e487b7100000000000000000000000000000000000000000000000000000000600052602160045260246000fd5b81526020016003820160019054906101000a900473ffffffffffffffffffffffffffffffffffffffff1673ffffffffffffffffffffffffffffffffffffffff1673ffffffffffffffffffffffffffffffffffffffff1681526020016004820160009054906101000a900473ffffffffffffffffffffffffffffffffffffffff1673ffffffffffffffffffffffffffffffffffffffff1673ffffffffffffffffffffffffffffffffffffffff16815260200160058201805480602002602001604051908101604052809291908181526020016000905b82821015610f8a578382906000526020600020018054610efd906133eb565b80601f0160208091040260200160405190810160405280929190818152602001828054610f29906133eb565b8015610f765780601f10610f4b57610100808354040283529160200191610f76565b820191906000526020600020905b815481529060010190602001808311610f5957829003601f168201915b505050505081526020019060010190610ede565b50505050815260200160068201604051806040016040529081600082015481526020016001820160009054906101000a900473ffffffffffffffffffffffffffffffffffffffff1673ffffffffffffffffffffffffffffffffffffffff1673ffffffffffffffffffffffffffffffffffffffff1681525050815260200160088201604051806040016040529081600082015481526020016001820160009054906101000a900473ffffffffffffffffffffffffffffffffffffffff1673ffffffffffffffffffffffffffffffffffffffff1673ffffffffffffffffffffffffffffffffffffffff16815250508152602001600a8201548152505081526020019060010190610c34565b50505050905090565b6110a4612313565b6000821180156110b957506001805490508211155b6110f8576040517f08c379a00000000000000000000000000000000000000000000000000000000081526004016110ef90612f5b565b60405180910390fd5b6001808361110691906132e4565b8154811061113d577f4e487b7100000000000000000000000000000000000000000000000000000000600052603260045260246000fd5b90600052602060002090600b02016040518061014001604052908160008201548152602001600182018054611171906133eb565b80601f016020809104026020016040519081016040528092919081815260200182805461119d906133eb565b80156111ea5780601f106111bf576101008083540402835291602001916111ea565b820191906000526020600020905b8154815290600101906020018083116111cd57829003601f168201915b50505050508152602001600282018054611203906133eb565b80601f016020809104026020016040519081016040528092919081815260200182805461122f906133eb565b801561127c5780601f106112515761010080835404028352916020019161127c565b820191906000526020600020905b81548152906001019060200180831161125f57829003601f168201915b505050505081526020016003820160009054906101000a900460ff1660018111156112d0577f4e487b7100000000000000000000000000000000000000000000000000000000600052602160045260246000fd5b6001811115611308577f4e487b7100000000000000000000000000000000000000000000000000000000600052602160045260246000fd5b81526020016003820160019054906101000a900473ffffffffffffffffffffffffffffffffffffffff1673ffffffffffffffffffffffffffffffffffffffff1673ffffffffffffffffffffffffffffffffffffffff1681526020016004820160009054906101000a900473ffffffffffffffffffffffffffffffffffffffff1673ffffffffffffffffffffffffffffffffffffffff1673ffffffffffffffffffffffffffffffffffffffff16815260200160058201805480602002602001604051908101604052809291908181526020016000905b828210156114895783829060005260206000200180546113fc906133eb565b80601f0160208091040260200160405190810160405280929190818152602001828054611428906133eb565b80156114755780601f1061144a57610100808354040283529160200191611475565b820191906000526020600020905b81548152906001019060200180831161145857829003601f168201915b5050505050815260200190600101906113dd565b50505050815260200160068201604051806040016040529081600082015481526020016001820160009054906101000a900473ffffffffffffffffffffffffffffffffffffffff1673ffffffffffffffffffffffffffffffffffffffff1673ffffffffffffffffffffffffffffffffffffffff1681525050815260200160088201604051806040016040529081600082015481526020016001820160009054906101000a900473ffffffffffffffffffffffffffffffffffffffff1673ffffffffffffffffffffffffffffffffffffffff1673ffffffffffffffffffffffffffffffffffffffff16815250508152602001600a820154815250509050919050565b600b5481565b600760009054906101000a900473ffffffffffffffffffffffffffffffffffffffff1673ffffffffffffffffffffffffffffffffffffffff163373ffffffffffffffffffffffffffffffffffffffff1614611620576040517f08c379a000000000000000000000000000000000000000000000000000000000815260040161161790612efb565b60405180910390fd5b60405180604001604052808281526020018373ffffffffffffffffffffffffffffffffffffffff1681525060046000820151816000015560208201518160010160006101000a81548173ffffffffffffffffffffffffffffffffffffffff021916908373ffffffffffffffffffffffffffffffffffffffff1602179055509050505050565b600960009054906101000a900473ffffffffffffffffffffffffffffffffffffffff1681565b600760009054906101000a900473ffffffffffffffffffffffffffffffffffffffff1681565b600860009054906101000a900473ffffffffffffffffffffffffffffffffffffffff1681565b600a5481565b6060600260008373ffffffffffffffffffffffffffffffffffffffff1673ffffffffffffffffffffffffffffffffffffffff1681526020019081526020016000208054806020026020016040519081016040528092919081815260200182805480156117a857602002820191906000526020600020905b815481526020019060010190808311611794575b50505050509050919050565b600181815481106117c457600080fd5b90600052602060002090600b02016000915090508060000154908060010180546117ed906133eb565b80601f0160208091040260200160405190810160405280929190818152602001828054611819906133eb565b80156118665780601f1061183b57610100808354040283529160200191611866565b820191906000526020600020905b81548152906001019060200180831161184957829003601f168201915b50505050509080600201805461187b906133eb565b80601f01602080910402602001604051908101604052809291908181526020018280546118a7906133eb565b80156118f45780601f106118c9576101008083540402835291602001916118f4565b820191906000526020600020905b8154815290600101906020018083116118d757829003601f168201915b5050505050908060030160009054906101000a900460ff16908060030160019054906101000a900473ffffffffffffffffffffffffffffffffffffffff16908060040160009054906101000a900473ffffffffffffffffffffffffffffffffffffffff169080600601604051806040016040529081600082015481526020016001820160009054906101000a900473ffffffffffffffffffffffffffffffffffffffff1673ffffffffffffffffffffffffffffffffffffffff1673ffffffffffffffffffffffffffffffffffffffff16815250509080600801604051806040016040529081600082015481526020016001820160009054906101000a900473ffffffffffffffffffffffffffffffffffffffff1673ffffffffffffffffffffffffffffffffffffffff1673ffffffffffffffffffffffffffffffffffffffff16815250509080600a0154905089565b60005481565b600c5481565b600660009054906101000a900473ffffffffffffffffffffffffffffffffffffffff1681565b600760009054906101000a900473ffffffffffffffffffffffffffffffffffffffff1673ffffffffffffffffffffffffffffffffffffffff163373ffffffffffffffffffffffffffffffffffffffff1614611b05576040517f08c379a0000000000000000000000000000000000000000000000000000000008152600401611afc90612efb565b60405180910390fd5b60008310158015611b1857506103e88311155b611b57576040517f08c379a0000000000000000000000000000000000000000000000000000000008152600401611b4e90612fdb565b60405180910390fd5b82600a8190555081600b8190555080600c81905550505050565b600082118015611b8657506001805490508211155b611bc5576040517f08c379a0000000000000000000000000000000000000000000000000000000008152600401611bbc90612f5b565b60405180910390fd5b600060018084611bd591906132e4565b81548110611c0c577f4e487b7100000000000000000000000000000000000000000000000000000000600052603260045260246000fd5b90600052602060002090600b020190506000806000806000806001811115611c5d577f4e487b7100000000000000000000000000000000000000000000000000000000600052602160045260246000fd5b8660030160009054906101000a900460ff166001811115611ca7577f4e487b7100000000000000000000000000000000000000000000000000000000600052602160045260246000fd5b14611ce7576040517f08c379a0000000000000000000000000000000000000000000000000000000008152600401611cde90612f7b565b60405180910390fd5b600086600801905060008160010160009054906101000a900473ffffffffffffffffffffffffffffffffffffffff169050600088600a01548360000154611d2e91906132e4565b905060008a118015611d405750808a11155b611d7f576040517f08c379a0000000000000000000000000000000000000000000000000000000008152600401611d7690612f3b565b60405180910390fd5b6103e8600a54029750620f42408a890281611dc3577f4e487b7100000000000000000000000000000000000000000000000000000000600052601260045260246000fd5b0496506103e8600b54880281611e02577f4e487b7100000000000000000000000000000000000000000000000000000000600052601260045260246000fd5b0495508587039450868a0393508173ffffffffffffffffffffffffffffffffffffffff166323b872dd33308d6040518463ffffffff1660e01b8152600401611e4c93929190612de1565b602060405180830381600087803b158015611e6657600080fd5b505af1158015611e7a573d6000803e3d6000fd5b505050506040513d601f19601f82011682018060405250810190611e9e919061261a565b611edd576040517f08c379a0000000000000000000000000000000000000000000000000000000008152600401611ed490612ebb565b60405180910390fd5b8173ffffffffffffffffffffffffffffffffffffffff1663a9059cbb600860009054906101000a900473ffffffffffffffffffffffffffffffffffffffff16886040518363ffffffff1660e01b8152600401611f3a929190612e18565b602060405180830381600087803b158015611f5457600080fd5b505af1158015611f68573d6000803e3d6000fd5b505050506040513d601f19601f82011682018060405250810190611f8c919061261a565b508173ffffffffffffffffffffffffffffffffffffffff1663a9059cbb600960009054906101000a900473ffffffffffffffffffffffffffffffffffffffff16876040518363ffffffff1660e01b8152600401611fea929190612e18565b602060405180830381600087803b15801561200457600080fd5b505af1158015612018573d6000803e3d6000fd5b505050506040513d601f19601f8201168201806040525081019061203c919061261a565b508173ffffffffffffffffffffffffffffffffffffffff1663095ea7b3600660009054906101000a900473ffffffffffffffffffffffffffffffffffffffff16866040518363ffffffff1660e01b815260040161209a929190612e18565b602060405180830381600087803b1580156120b457600080fd5b505af11580156120c8573d6000803e3d6000fd5b505050506040513d601f19601f820116820180604052508101906120ec919061261a565b50600660009054906101000a900473ffffffffffffffffffffffffffffffffffffffff1673ffffffffffffffffffffffffffffffffffffffff16632e2d298485848c60040160009054906101000a900473ffffffffffffffffffffffffffffffffffffffff166040518463ffffffff1660e01b815260040161217093929190613061565b600060405180830381600087803b15801561218a57600080fd5b505af115801561219e573d6000803e3d6000fd5b505050508989600a0160008282546121b6919061328e565b92505081905550826000015489600a0154106122205760018960030160006101000a81548160ff0219169083600181111561221a577f4e487b7100000000000000000000000000000000000000000000000000000000600052602160045260246000fd5b02179055505b5050505050505050505050565b828054612239906133eb565b90600052602060002090601f01602090048101928261225b57600085556122a2565b82601f1061227457805160ff19168380011785556122a2565b828001600101855582156122a2579182015b828111156122a1578251825591602001919060010190612286565b5b5090506122af91906123d6565b5090565b828054828255906000526020600020908101928215612302579160200282015b828111156123015782518290805190602001906122f192919061222d565b50916020019190600101906122d3565b5b50905061230f91906123f3565b5090565b6040518061014001604052806000815260200160608152602001606081526020016000600181111561236e577f4e487b7100000000000000000000000000000000000000000000000000000000600052602160045260246000fd5b8152602001600073ffffffffffffffffffffffffffffffffffffffff168152602001600073ffffffffffffffffffffffffffffffffffffffff168152602001606081526020016123bc612417565b81526020016123c9612417565b8152602001600081525090565b5b808211156123ef5760008160009055506001016123d7565b5090565b5b80821115612413576000818161240a9190612447565b506001016123f4565b5090565b604051806040016040528060008152602001600073ffffffffffffffffffffffffffffffffffffffff1681525090565b508054612453906133eb565b6000825580601f106124655750612484565b601f01602090049060005260206000209081019061248391906123d6565b5b50565b600061249a61249584613159565b613134565b9050808382526020820190508260005b858110156124da57813585016124c08882612576565b8452602084019350602083019250506001810190506124aa565b5050509392505050565b60006124f76124f284613185565b613134565b90508281526020810184848401111561250f57600080fd5b61251a8482856133a9565b509392505050565b60008135905061253181613784565b92915050565b600082601f83011261254857600080fd5b8135612558848260208601612487565b91505092915050565b6000815190506125708161379b565b92915050565b600082601f83011261258757600080fd5b81356125978482602086016124e4565b91505092915050565b6000813590506125af816137b2565b92915050565b6000602082840312156125c757600080fd5b60006125d584828501612522565b91505092915050565b600080604083850312156125f157600080fd5b60006125ff85828601612522565b9250506020612610858286016125a0565b9150509250929050565b60006020828403121561262c57600080fd5b600061263a84828501612561565b91505092915050565b60008060008060008060c0878903121561265c57600080fd5b600087013567ffffffffffffffff81111561267657600080fd5b61268289828a01612576565b965050602087013567ffffffffffffffff81111561269f57600080fd5b6126ab89828a01612576565b95505060406126bc89828a01612522565b945050606087013567ffffffffffffffff8111156126d957600080fd5b6126e589828a01612537565b93505060806126f689828a016125a0565b92505060a061270789828a01612522565b9150509295509295509295565b60006020828403121561272657600080fd5b6000612734848285016125a0565b91505092915050565b6000806040838503121561275057600080fd5b600061275e858286016125a0565b925050602061276f858286016125a0565b9150509250929050565b60008060006060848603121561278e57600080fd5b600061279c868287016125a0565b93505060206127ad868287016125a0565b92505060406127be868287016125a0565b9150509250925092565b60006127d483836129aa565b905092915050565b60006127e88383612b7a565b905092915050565b60006127fc8383612da8565b60208301905092915050565b61281181613318565b82525050565b61282081613318565b82525050565b6000612831826131e6565b61283b8185613239565b93508360208202850161284d856131b6565b8060005b85811015612889578484038952815161286a85826127c8565b945061287583613212565b925060208a01995050600181019050612851565b50829750879550505050505092915050565b60006128a6826131f1565b6128b0818561324a565b9350836020820285016128c2856131c6565b8060005b858110156128fe57848403895281516128df85826127dc565b94506128ea8361321f565b925060208a019950506001810190506128c6565b50829750879550505050505092915050565b600061291b826131fc565b612925818561325b565b9350612930836131d6565b8060005b8381101561296157815161294888826127f0565b97506129538361322c565b925050600181019050612934565b5085935050505092915050565b6129778161332a565b82525050565b61298681613373565b82525050565b61299581613397565b82525050565b6129a481613397565b82525050565b60006129b582613207565b6129bf818561326c565b93506129cf8185602086016133b8565b6129d881613553565b840191505092915050565b60006129ee82613207565b6129f8818561327d565b9350612a088185602086016133b8565b612a1181613553565b840191505092915050565b6000612a29602d8361327d565b9150612a3482613564565b604082019050919050565b6000612a4c60188361327d565b9150612a57826135b3565b602082019050919050565b6000612a6f60258361327d565b9150612a7a826135dc565b604082019050919050565b6000612a9260158361327d565b9150612a9d8261362b565b602082019050919050565b6000612ab560168361327d565b9150612ac082613654565b602082019050919050565b6000612ad860148361327d565b9150612ae38261367d565b602082019050919050565b6000612afb60178361327d565b9150612b06826136a6565b602082019050919050565b6000612b1e60208361327d565b9150612b29826136cf565b602082019050919050565b6000612b4160288361327d565b9150612b4c826136f8565b604082019050919050565b6000612b6460168361327d565b9150612b6f82613747565b602082019050919050565b600061018083016000830151612b936000860182612da8565b5060208301518482036020860152612bab82826129aa565b91505060408301518482036040860152612bc582826129aa565b9150506060830151612bda606086018261298c565b506080830151612bed6080860182612808565b5060a0830151612c0060a0860182612808565b5060c083015184820360c0860152612c188282612826565b91505060e0830151612c2d60e0860182612d4a565b50610100830151612c42610120860182612d4a565b50610120830151612c57610160860182612da8565b508091505092915050565b600061018083016000830151612c7b6000860182612da8565b5060208301518482036020860152612c9382826129aa565b91505060408301518482036040860152612cad82826129aa565b9150506060830151612cc2606086018261298c565b506080830151612cd56080860182612808565b5060a0830151612ce860a0860182612808565b5060c083015184820360c0860152612d008282612826565b91505060e0830151612d1560e0860182612d4a565b50610100830151612d2a610120860182612d4a565b50610120830151612d3f610160860182612da8565b508091505092915050565b604082016000820151612d606000850182612da8565b506020820151612d736020850182612808565b50505050565b604082016000820151612d8f6000850182612da8565b506020820151612da26020850182612808565b50505050565b612db181613369565b82525050565b612dc081613369565b82525050565b6000602082019050612ddb6000830184612817565b92915050565b6000606082019050612df66000830186612817565b612e036020830185612817565b612e106040830184612db7565b949350505050565b6000604082019050612e2d6000830185612817565b612e3a6020830184612db7565b9392505050565b60006020820190508181036000830152612e5b818461289b565b905092915050565b60006020820190508181036000830152612e7d8184612910565b905092915050565b6000602082019050612e9a600083018461296e565b92915050565b6000602082019050612eb5600083018461297d565b92915050565b60006020820190508181036000830152612ed481612a1c565b9050919050565b60006020820190508181036000830152612ef481612a3f565b9050919050565b60006020820190508181036000830152612f1481612a62565b9050919050565b60006020820190508181036000830152612f3481612a85565b9050919050565b60006020820190508181036000830152612f5481612aa8565b9050919050565b60006020820190508181036000830152612f7481612acb565b9050919050565b60006020820190508181036000830152612f9481612aee565b9050919050565b60006020820190508181036000830152612fb481612b11565b9050919050565b60006020820190508181036000830152612fd481612b34565b9050919050565b60006020820190508181036000830152612ff481612b57565b9050919050565b600060208201905081810360008301526130158184612c62565b905092915050565b60006020820190506130326000830184612db7565b92915050565b600060408201905061304d6000830185612db7565b61305a6020830184612817565b9392505050565b60006060820190506130766000830186612db7565b6130836020830185612817565b6130906040830184612817565b949350505050565b6000610160820190506130ae600083018c612db7565b81810360208301526130c0818b6129e3565b905081810360408301526130d4818a6129e3565b90506130e3606083018961299b565b6130f06080830188612817565b6130fd60a0830187612817565b61310a60c0830186612d79565b613118610100830185612d79565b613126610140830184612db7565b9a9950505050505050505050565b600061313e61314f565b905061314a828261341d565b919050565b6000604051905090565b600067ffffffffffffffff82111561317457613173613524565b5b602082029050602081019050919050565b600067ffffffffffffffff8211156131a05761319f613524565b5b6131a982613553565b9050602081019050919050565b6000819050602082019050919050565b6000819050602082019050919050565b6000819050602082019050919050565b600081519050919050565b600081519050919050565b600081519050919050565b600081519050919050565b6000602082019050919050565b6000602082019050919050565b6000602082019050919050565b600082825260208201905092915050565b600082825260208201905092915050565b600082825260208201905092915050565b600082825260208201905092915050565b600082825260208201905092915050565b600061329982613369565b91506132a483613369565b9250827fffffffffffffffffffffffffffffffffffffffffffffffffffffffffffffffff038211156132d9576132d8613497565b5b828201905092915050565b60006132ef82613369565b91506132fa83613369565b92508282101561330d5761330c613497565b5b828203905092915050565b600061332382613349565b9050919050565b60008115159050919050565b600081905061334482613770565b919050565b600073ffffffffffffffffffffffffffffffffffffffff82169050919050565b6000819050919050565b600061337e82613385565b9050919050565b600061339082613349565b9050919050565b60006133a282613336565b9050919050565b82818337600083830152505050565b60005b838110156133d65780820151818401526020810190506133bb565b838111156133e5576000848401525b50505050565b6000600282049050600182168061340357607f821691505b60208210811415613417576134166134f5565b5b50919050565b61342682613553565b810181811067ffffffffffffffff8211171561344557613444613524565b5b80604052505050565b600061345982613369565b91507fffffffffffffffffffffffffffffffffffffffffffffffffffffffffffffffff82141561348c5761348b613497565b5b600182019050919050565b7f4e487b7100000000000000000000000000000000000000000000000000000000600052601160045260246000fd5b7f4e487b7100000000000000000000000000000000000000000000000000000000600052602160045260246000fd5b7f4e487b7100000000000000000000000000000000000000000000000000000000600052602260045260246000fd5b7f4e487b7100000000000000000000000000000000000000000000000000000000600052604160045260246000fd5b6000601f19601f8301169050919050565b7f55736572206d75737420617070726f76652074686520616d6f756e74206f662060008201527f7468652061677265656d656e7400000000000000000000000000000000000000602082015250565b7f536b696c6c73206d757374206e6f7420626520656d7074790000000000000000600082015250565b7f4f6e6c7920746865206f776e65722063616e2063616c6c20746869732066756e60008201527f6374696f6e000000000000000000000000000000000000000000000000000000602082015250565b7f496e76616c6964207061796d656e7420746f6b656e0000000000000000000000600082015250565b7f496e76616c6964207061796d656e7420616d6f756e7400000000000000000000600082015250565b7f496e76616c69642061677265656d656e74204944000000000000000000000000600082015250565b7f41677265656d656e74206973206e6f7420616374697665000000000000000000600082015250565b7f446576656c6f70657220616464726573732063616e6e6f74206265207a65726f600082015250565b7f5061796d656e7420616d6f756e74206d7573742062652067726561746572207460008201527f68616e207a65726f000000000000000000000000000000000000000000000000602082015250565b7f496e76616c6964206665652070657263656e7461676500000000000000000000600082015250565b60028110613781576137806134c6565b5b50565b61378d81613318565b811461379857600080fd5b50565b6137a48161332a565b81146137af57600080fd5b50565b6137bb81613369565b81146137c657600080fd5b5056fea2646970667358221220ac29f558c512bb12f9a9d3d4db33047f8c15c920b3818639e2aedc6b5a7bafaf64736f6c63430008010033",
  "linkReferences": {},
  "deployedLinkReferences": {}
}