{
  "_format": "hh-sol-artifact-1",
  "contractName": "AgreementContract",
  "sourceName": "contracts/AgreementContract.sol",
  "abi": [
    {
      "inputs": [
        {
          "internalType": "address",
          "name": "_kyodoTreasury",
          "type": "address"
        },
        {
          "internalType": "address",
          "name": "_communityDAO",
          "type": "address"
        }
      ],
      "stateMutability": "nonpayable",
      "type": "constructor"
    },
    {
      "anonymous": false,
      "inputs": [
        {
          "indexed": true,
          "internalType": "address",
          "name": "company",
          "type": "address"
        },
        {
          "indexed": true,
          "internalType": "address",
          "name": "professional",
          "type": "address"
        },
        {
          "indexed": false,
          "internalType": "uint256",
          "name": "agreementId",
          "type": "uint256"
        },
        {
          "indexed": false,
          "internalType": "uint256",
          "name": "amount",
          "type": "uint256"
        }
      ],
      "name": "AgreementCreated",
      "type": "event"
    },
    {
      "anonymous": false,
      "inputs": [
        {
          "indexed": true,
          "internalType": "address",
          "name": "company",
          "type": "address"
        },
        {
          "indexed": true,
          "internalType": "address",
          "name": "professional",
          "type": "address"
        },
        {
          "indexed": false,
          "internalType": "uint256",
          "name": "agreementId",
          "type": "uint256"
        },
        {
          "indexed": false,
          "internalType": "uint256",
          "name": "amount",
          "type": "uint256"
        }
      ],
      "name": "PaymentMade",
      "type": "event"
    },
    {
      "inputs": [],
      "name": "W3DStableVault",
      "outputs": [
        {
          "internalType": "contract IW3DStableVault",
          "name": "",
          "type": "address"
        }
      ],
      "stateMutability": "view",
      "type": "function"
    },
    {
      "inputs": [
        {
          "internalType": "address",
          "name": "",
          "type": "address"
        }
      ],
      "name": "acceptedPaymentTokens",
      "outputs": [
        {
          "internalType": "bool",
          "name": "",
          "type": "bool"
        }
      ],
      "stateMutability": "view",
      "type": "function"
    },
    {
      "inputs": [
        {
          "internalType": "address",
          "name": "_tokenAddress",
          "type": "address"
        }
      ],
      "name": "addAcceptedPaymentToken",
      "outputs": [],
      "stateMutability": "nonpayable",
      "type": "function"
    },
    {
      "inputs": [
        {
          "internalType": "uint256",
          "name": "",
          "type": "uint256"
        }
      ],
      "name": "agreements",
      "outputs": [
        {
          "internalType": "uint256",
          "name": "id",
          "type": "uint256"
        },
        {
          "internalType": "string",
          "name": "title",
          "type": "string"
        },
        {
          "internalType": "string",
          "name": "description",
          "type": "string"
        },
        {
          "internalType": "enum AgreementContract.AgreementStatus",
          "name": "status",
          "type": "uint8"
        },
        {
          "internalType": "address",
          "name": "company",
          "type": "address"
        },
        {
          "internalType": "address",
          "name": "professional",
          "type": "address"
        },
        {
          "components": [
            {
              "internalType": "uint256",
              "name": "amount",
              "type": "uint256"
            },
            {
              "internalType": "address",
              "name": "tokenAddress",
              "type": "address"
            }
          ],
          "internalType": "struct AgreementContract.Token",
          "name": "tokenIncentive",
          "type": "tuple"
        },
        {
          "components": [
            {
              "internalType": "uint256",
              "name": "amount",
              "type": "uint256"
            },
            {
              "internalType": "address",
              "name": "tokenAddress",
              "type": "address"
            }
          ],
          "internalType": "struct AgreementContract.Token",
          "name": "payment",
          "type": "tuple"
        },
        {
          "internalType": "uint256",
          "name": "totalPaid",
          "type": "uint256"
        }
      ],
      "stateMutability": "view",
      "type": "function"
    },
    {
      "inputs": [],
      "name": "communityDAO",
      "outputs": [
        {
          "internalType": "address",
          "name": "",
          "type": "address"
        }
      ],
      "stateMutability": "view",
      "type": "function"
    },
    {
      "inputs": [],
      "name": "communityDAOFee",
      "outputs": [
        {
          "internalType": "uint256",
          "name": "",
          "type": "uint256"
        }
      ],
      "stateMutability": "view",
      "type": "function"
    },
    {
      "inputs": [
        {
          "internalType": "string",
          "name": "_title",
          "type": "string"
        },
        {
          "internalType": "string",
          "name": "_description",
          "type": "string"
        },
        {
          "internalType": "address",
          "name": "_professional",
          "type": "address"
        },
        {
          "internalType": "string[]",
          "name": "_skills",
          "type": "string[]"
        },
        {
          "internalType": "uint256",
          "name": "_paymentAmount",
          "type": "uint256"
        },
        {
          "internalType": "address",
          "name": "_paymentAddress",
          "type": "address"
        }
      ],
      "name": "createAgreement",
      "outputs": [],
      "stateMutability": "nonpayable",
      "type": "function"
    },
    {
      "inputs": [],
      "name": "feePercentage",
      "outputs": [
        {
          "internalType": "uint256",
          "name": "",
          "type": "uint256"
        }
      ],
      "stateMutability": "view",
      "type": "function"
    },
    {
      "inputs": [
        {
          "internalType": "uint256",
          "name": "_id",
          "type": "uint256"
        }
      ],
      "name": "getAgreementById",
      "outputs": [
        {
          "components": [
            {
              "internalType": "uint256",
              "name": "id",
              "type": "uint256"
            },
            {
              "internalType": "string",
              "name": "title",
              "type": "string"
            },
            {
              "internalType": "string",
              "name": "description",
              "type": "string"
            },
            {
              "internalType": "enum AgreementContract.AgreementStatus",
              "name": "status",
              "type": "uint8"
            },
            {
              "internalType": "address",
              "name": "company",
              "type": "address"
            },
            {
              "internalType": "address",
              "name": "professional",
              "type": "address"
            },
            {
              "internalType": "string[]",
              "name": "skills",
              "type": "string[]"
            },
            {
              "components": [
                {
                  "internalType": "uint256",
                  "name": "amount",
                  "type": "uint256"
                },
                {
                  "internalType": "address",
                  "name": "tokenAddress",
                  "type": "address"
                }
              ],
              "internalType": "struct AgreementContract.Token",
              "name": "tokenIncentive",
              "type": "tuple"
            },
            {
              "components": [
                {
                  "internalType": "uint256",
                  "name": "amount",
                  "type": "uint256"
                },
                {
                  "internalType": "address",
                  "name": "tokenAddress",
                  "type": "address"
                }
              ],
              "internalType": "struct AgreementContract.Token",
              "name": "payment",
              "type": "tuple"
            },
            {
              "internalType": "uint256",
              "name": "totalPaid",
              "type": "uint256"
            }
          ],
          "internalType": "struct AgreementContract.Agreement",
          "name": "",
          "type": "tuple"
        }
      ],
      "stateMutability": "view",
      "type": "function"
    },
    {
      "inputs": [],
      "name": "getAgreementCount",
      "outputs": [
        {
          "internalType": "uint256",
          "name": "",
          "type": "uint256"
        }
      ],
      "stateMutability": "view",
      "type": "function"
    },
    {
      "inputs": [],
      "name": "getAllAgreements",
      "outputs": [
        {
          "components": [
            {
              "internalType": "uint256",
              "name": "id",
              "type": "uint256"
            },
            {
              "internalType": "string",
              "name": "title",
              "type": "string"
            },
            {
              "internalType": "string",
              "name": "description",
              "type": "string"
            },
            {
              "internalType": "enum AgreementContract.AgreementStatus",
              "name": "status",
              "type": "uint8"
            },
            {
              "internalType": "address",
              "name": "company",
              "type": "address"
            },
            {
              "internalType": "address",
              "name": "professional",
              "type": "address"
            },
            {
              "internalType": "string[]",
              "name": "skills",
              "type": "string[]"
            },
            {
              "components": [
                {
                  "internalType": "uint256",
                  "name": "amount",
                  "type": "uint256"
                },
                {
                  "internalType": "address",
                  "name": "tokenAddress",
                  "type": "address"
                }
              ],
              "internalType": "struct AgreementContract.Token",
              "name": "tokenIncentive",
              "type": "tuple"
            },
            {
              "components": [
                {
                  "internalType": "uint256",
                  "name": "amount",
                  "type": "uint256"
                },
                {
                  "internalType": "address",
                  "name": "tokenAddress",
                  "type": "address"
                }
              ],
              "internalType": "struct AgreementContract.Token",
              "name": "payment",
              "type": "tuple"
            },
            {
              "internalType": "uint256",
              "name": "totalPaid",
              "type": "uint256"
            }
          ],
          "internalType": "struct AgreementContract.Agreement[]",
          "name": "",
          "type": "tuple[]"
        }
      ],
      "stateMutability": "view",
      "type": "function"
    },
    {
      "inputs": [
        {
          "internalType": "address",
          "name": "_user",
          "type": "address"
        }
      ],
      "name": "getUserAgreements",
      "outputs": [
        {
          "internalType": "uint256[]",
          "name": "",
          "type": "uint256[]"
        }
      ],
      "stateMutability": "view",
      "type": "function"
    },
    {
      "inputs": [],
      "name": "kyodoTreasury",
      "outputs": [
        {
          "internalType": "address",
          "name": "",
          "type": "address"
        }
      ],
      "stateMutability": "view",
      "type": "function"
    },
    {
      "inputs": [],
      "name": "kyodoTreasuryFee",
      "outputs": [
        {
          "internalType": "uint256",
          "name": "",
          "type": "uint256"
        }
      ],
      "stateMutability": "view",
      "type": "function"
    },
    {
      "inputs": [
        {
          "internalType": "uint256",
          "name": "_agreementId",
          "type": "uint256"
        },
        {
          "internalType": "uint256",
          "name": "_amountToPay",
          "type": "uint256"
        }
      ],
      "name": "makePayment",
      "outputs": [],
      "stateMutability": "nonpayable",
      "type": "function"
    },
    {
      "inputs": [],
      "name": "nextAgreementId",
      "outputs": [
        {
          "internalType": "uint256",
          "name": "",
          "type": "uint256"
        }
      ],
      "stateMutability": "view",
      "type": "function"
    },
    {
      "inputs": [],
      "name": "owner",
      "outputs": [
        {
          "internalType": "address",
          "name": "",
          "type": "address"
        }
      ],
      "stateMutability": "view",
      "type": "function"
    },
    {
      "inputs": [
        {
          "internalType": "uint256",
          "name": "_feePercentage",
          "type": "uint256"
        },
        {
          "internalType": "uint256",
          "name": "_kyodoTreasuryFee",
          "type": "uint256"
        },
        {
          "internalType": "uint256",
          "name": "_communityDAOFee",
          "type": "uint256"
        }
      ],
      "name": "setFees",
      "outputs": [],
      "stateMutability": "nonpayable",
      "type": "function"
    },
    {
      "inputs": [
        {
          "internalType": "address",
          "name": "_W3DStableVaultAddress",
          "type": "address"
        }
      ],
      "name": "setW3DStableVaultAddress",
      "outputs": [],
      "stateMutability": "nonpayable",
      "type": "function"
    },
    {
      "inputs": [],
      "name": "tokenIncentive",
      "outputs": [
        {
          "internalType": "uint256",
          "name": "amount",
          "type": "uint256"
        },
        {
          "internalType": "address",
          "name": "tokenAddress",
          "type": "address"
        }
      ],
      "stateMutability": "view",
      "type": "function"
    },
    {
      "inputs": [
        {
          "internalType": "address",
          "name": "_newTokenAddress",
          "type": "address"
        },
        {
          "internalType": "uint256",
          "name": "_newAmount",
          "type": "uint256"
        }
      ],
      "name": "updateTokenIncentive",
      "outputs": [],
      "stateMutability": "nonpayable",
      "type": "function"
    },
    {
      "inputs": [
        {
          "internalType": "address",
          "name": "",
          "type": "address"
        },
        {
          "internalType": "uint256",
          "name": "",
          "type": "uint256"
        }
      ],
      "name": "userAgreements",
      "outputs": [
        {
          "internalType": "uint256",
          "name": "",
          "type": "uint256"
        }
      ],
      "stateMutability": "view",
      "type": "function"
    }
  ],
  "bytecode": "0x608060405260016000553480156200001657600080fd5b5060405162003aff38038062003aff83398181016040528101906200003c91906200011e565b33600760006101000a81548173ffffffffffffffffffffffffffffffffffffffff021916908373ffffffffffffffffffffffffffffffffffffffff16021790555081600860006101000a81548173ffffffffffffffffffffffffffffffffffffffff021916908373ffffffffffffffffffffffffffffffffffffffff16021790555080600960006101000a81548173ffffffffffffffffffffffffffffffffffffffff021916908373ffffffffffffffffffffffffffffffffffffffff1602179055505050620001ad565b600081519050620001188162000193565b92915050565b600080604083850312156200013257600080fd5b6000620001428582860162000107565b9250506020620001558582860162000107565b9150509250929050565b60006200016c8262000173565b9050919050565b600073ffffffffffffffffffffffffffffffffffffffff82169050919050565b6200019e816200015f565b8114620001aa57600080fd5b50565b61394280620001bd6000396000f3fe608060405234801561001057600080fd5b50600436106101415760003560e01c80638207546e116100b8578063bd14de961161007c578063bd14de9614610367578063c9b99dab1461039f578063c9e92905146103bd578063ccbd3f3f146103db578063cec10c11146103f9578063d390f9741461041557610141565b80638207546e146102bf5780638da5cb5b146102dd578063964bb4ab146102fb578063a001ecdd14610319578063adb9cae61461033757610141565b8063484bb2441161010a578063484bb244146101d75780634c27984e146102075780634e6873c714610237578063573fb624146102555780637d239907146102855780637e698256146102a357610141565b80628bed3e1461014657806313cda3b7146101645780631686acfe146101805780632245c51f1461019c57806324268605146101b8575b600080fd5b61014e610431565b60405161015b9190613111565b60405180910390f35b61017e600480360381019061017991906126a9565b61043e565b005b61019a60048036038101906101959190612737565b610529565b005b6101b660048036038101906101b191906126a9565b610b22565b005b6101c0610bf6565b6040516101ce92919061312c565b60405180910390f35b6101f160048036038101906101ec91906126a9565b610c28565b6040516101fe9190612f79565b60405180910390f35b610221600480360381019061021c91906126d2565b610c48565b60405161022e9190613111565b60405180910390f35b61023f610c79565b60405161024c9190612f35565b60405180910390f35b61026f600480360381019061026a9190612808565b611105565b60405161027c91906130ef565b60405180910390f35b61028d6115f3565b60405161029a9190613111565b60405180910390f35b6102bd60048036038101906102b891906126d2565b6115f9565b005b6102c761170e565b6040516102d49190612eba565b60405180910390f35b6102e5611734565b6040516102f29190612eba565b60405180910390f35b61030361175a565b6040516103109190612eba565b60405180910390f35b610321611780565b60405161032e9190613111565b60405180910390f35b610351600480360381019061034c91906126a9565b611786565b60405161035e9190612f57565b60405180910390f35b610381600480360381019061037c9190612808565b61181d565b6040516103969998979695949392919061318c565b60405180910390f35b6103a7611aac565b6040516103b49190613111565b60405180910390f35b6103c5611ab2565b6040516103d29190613111565b60405180910390f35b6103e3611ab8565b6040516103f09190612f94565b60405180910390f35b610413600480360381019061040e919061286d565b611ade565b005b61042f600480360381019061042a9190612831565b611bda565b005b6000600180549050905090565b600760009054906101000a900473ffffffffffffffffffffffffffffffffffffffff1673ffffffffffffffffffffffffffffffffffffffff163373ffffffffffffffffffffffffffffffffffffffff16146104ce576040517f08c379a00000000000000000000000000000000000000000000000000000000081526004016104c590612fef565b60405180910390fd5b6001600360008373ffffffffffffffffffffffffffffffffffffffff1673ffffffffffffffffffffffffffffffffffffffff16815260200190815260200160002060006101000a81548160ff02191690831515021790555050565b600073ffffffffffffffffffffffffffffffffffffffff168473ffffffffffffffffffffffffffffffffffffffff161415610599576040517f08c379a00000000000000000000000000000000000000000000000000000000081526004016105909061306f565b60405180910390fd5b60008351116105dd576040517f08c379a00000000000000000000000000000000000000000000000000000000081526004016105d490612fcf565b60405180910390fd5b60008211610620576040517f08c379a0000000000000000000000000000000000000000000000000000000008152600401610617906130af565b60405180910390fd5b600360008273ffffffffffffffffffffffffffffffffffffffff1673ffffffffffffffffffffffffffffffffffffffff16815260200190815260200160002060009054906101000a900460ff166106ac576040517f08c379a00000000000000000000000000000000000000000000000000000000081526004016106a39061300f565b60405180910390fd5b600060405180604001604052808481526020018373ffffffffffffffffffffffffffffffffffffffff1681525090506000604051806101400160405280600054815260200189815260200188815260200160006001811115610737577f4e487b7100000000000000000000000000000000000000000000000000000000600052602160045260246000fd5b81526020013373ffffffffffffffffffffffffffffffffffffffff1681526020018773ffffffffffffffffffffffffffffffffffffffff1681526020018681526020016004604051806040016040529081600082015481526020016001820160009054906101000a900473ffffffffffffffffffffffffffffffffffffffff1673ffffffffffffffffffffffffffffffffffffffff1673ffffffffffffffffffffffffffffffffffffffff168152505081526020018381526020016000815250905060018190806001815401808255809150506001900390600052602060002090600b020160009091909190915060008201518160000155602082015181600101908051906020019061084b929190612321565b506040820151816002019080519060200190610868929190612321565b5060608201518160030160006101000a81548160ff021916908360018111156108ba577f4e487b7100000000000000000000000000000000000000000000000000000000600052602160045260246000fd5b021790555060808201518160030160016101000a81548173ffffffffffffffffffffffffffffffffffffffff021916908373ffffffffffffffffffffffffffffffffffffffff16021790555060a08201518160040160006101000a81548173ffffffffffffffffffffffffffffffffffffffff021916908373ffffffffffffffffffffffffffffffffffffffff16021790555060c08201518160050190805190602001906109699291906123a7565b5060e0820151816006016000820151816000015560208201518160010160006101000a81548173ffffffffffffffffffffffffffffffffffffffff021916908373ffffffffffffffffffffffffffffffffffffffff1602179055505050610100820151816008016000820151816000015560208201518160010160006101000a81548173ffffffffffffffffffffffffffffffffffffffff021916908373ffffffffffffffffffffffffffffffffffffffff160217905550505061012082015181600a01555050600260003373ffffffffffffffffffffffffffffffffffffffff1673ffffffffffffffffffffffffffffffffffffffff16815260200190815260200160002060005490806001815401808255809150506001900390600052602060002001600090919091909150558573ffffffffffffffffffffffffffffffffffffffff163373ffffffffffffffffffffffffffffffffffffffff167f4969d8f058da37f5b596425a39904e9a027ac23d1865d6efd5df5a5e24eef7de60005487604051610af9929190613228565b60405180910390a3600080815480929190610b139061356b565b91905055505050505050505050565b600760009054906101000a900473ffffffffffffffffffffffffffffffffffffffff1673ffffffffffffffffffffffffffffffffffffffff163373ffffffffffffffffffffffffffffffffffffffff1614610bb2576040517f08c379a0000000000000000000000000000000000000000000000000000000008152600401610ba990612fef565b60405180910390fd5b80600660006101000a81548173ffffffffffffffffffffffffffffffffffffffff021916908373ffffffffffffffffffffffffffffffffffffffff16021790555050565b60048060000154908060010160009054906101000a900473ffffffffffffffffffffffffffffffffffffffff16905082565b60036020528060005260406000206000915054906101000a900460ff1681565b60026020528160005260406000208181548110610c6457600080fd5b90600052602060002001600091509150505481565b60606001805480602002602001604051908101604052809291908181526020016000905b828210156110fc57838290600052602060002090600b02016040518061014001604052908160008201548152602001600182018054610cdb90613508565b80601f0160208091040260200160405190810160405280929190818152602001828054610d0790613508565b8015610d545780601f10610d2957610100808354040283529160200191610d54565b820191906000526020600020905b815481529060010190602001808311610d3757829003601f168201915b50505050508152602001600282018054610d6d90613508565b80601f0160208091040260200160405190810160405280929190818152602001828054610d9990613508565b8015610de65780601f10610dbb57610100808354040283529160200191610de6565b820191906000526020600020905b815481529060010190602001808311610dc957829003601f168201915b505050505081526020016003820160009054906101000a900460ff166001811115610e3a577f4e487b7100000000000000000000000000000000000000000000000000000000600052602160045260246000fd5b6001811115610e72577f4e487b7100000000000000000000000000000000000000000000000000000000600052602160045260246000fd5b81526020016003820160019054906101000a900473ffffffffffffffffffffffffffffffffffffffff1673ffffffffffffffffffffffffffffffffffffffff1673ffffffffffffffffffffffffffffffffffffffff1681526020016004820160009054906101000a900473ffffffffffffffffffffffffffffffffffffffff1673ffffffffffffffffffffffffffffffffffffffff1673ffffffffffffffffffffffffffffffffffffffff16815260200160058201805480602002602001604051908101604052809291908181526020016000905b82821015610ff3578382906000526020600020018054610f6690613508565b80601f0160208091040260200160405190810160405280929190818152602001828054610f9290613508565b8015610fdf5780601f10610fb457610100808354040283529160200191610fdf565b820191906000526020600020905b815481529060010190602001808311610fc257829003601f168201915b505050505081526020019060010190610f47565b50505050815260200160068201604051806040016040529081600082015481526020016001820160009054906101000a900473ffffffffffffffffffffffffffffffffffffffff1673ffffffffffffffffffffffffffffffffffffffff1673ffffffffffffffffffffffffffffffffffffffff1681525050815260200160088201604051806040016040529081600082015481526020016001820160009054906101000a900473ffffffffffffffffffffffffffffffffffffffff1673ffffffffffffffffffffffffffffffffffffffff1673ffffffffffffffffffffffffffffffffffffffff16815250508152602001600a8201548152505081526020019060010190610c9d565b50505050905090565b61110d612407565b60008211801561112257506001805490508211155b611161576040517f08c379a00000000000000000000000000000000000000000000000000000000081526004016111589061304f565b60405180910390fd5b6001808361116f9190613401565b815481106111a6577f4e487b7100000000000000000000000000000000000000000000000000000000600052603260045260246000fd5b90600052602060002090600b020160405180610140016040529081600082015481526020016001820180546111da90613508565b80601f016020809104026020016040519081016040528092919081815260200182805461120690613508565b80156112535780601f1061122857610100808354040283529160200191611253565b820191906000526020600020905b81548152906001019060200180831161123657829003601f168201915b5050505050815260200160028201805461126c90613508565b80601f016020809104026020016040519081016040528092919081815260200182805461129890613508565b80156112e55780601f106112ba576101008083540402835291602001916112e5565b820191906000526020600020905b8154815290600101906020018083116112c857829003601f168201915b505050505081526020016003820160009054906101000a900460ff166001811115611339577f4e487b7100000000000000000000000000000000000000000000000000000000600052602160045260246000fd5b6001811115611371577f4e487b7100000000000000000000000000000000000000000000000000000000600052602160045260246000fd5b81526020016003820160019054906101000a900473ffffffffffffffffffffffffffffffffffffffff1673ffffffffffffffffffffffffffffffffffffffff1673ffffffffffffffffffffffffffffffffffffffff1681526020016004820160009054906101000a900473ffffffffffffffffffffffffffffffffffffffff1673ffffffffffffffffffffffffffffffffffffffff1673ffffffffffffffffffffffffffffffffffffffff16815260200160058201805480602002602001604051908101604052809291908181526020016000905b828210156114f257838290600052602060002001805461146590613508565b80601f016020809104026020016040519081016040528092919081815260200182805461149190613508565b80156114de5780601f106114b3576101008083540402835291602001916114de565b820191906000526020600020905b8154815290600101906020018083116114c157829003601f168201915b505050505081526020019060010190611446565b50505050815260200160068201604051806040016040529081600082015481526020016001820160009054906101000a900473ffffffffffffffffffffffffffffffffffffffff1673ffffffffffffffffffffffffffffffffffffffff1673ffffffffffffffffffffffffffffffffffffffff1681525050815260200160088201604051806040016040529081600082015481526020016001820160009054906101000a900473ffffffffffffffffffffffffffffffffffffffff1673ffffffffffffffffffffffffffffffffffffffff1673ffffffffffffffffffffffffffffffffffffffff16815250508152602001600a820154815250509050919050565b600b5481565b600760009054906101000a900473ffffffffffffffffffffffffffffffffffffffff1673ffffffffffffffffffffffffffffffffffffffff163373ffffffffffffffffffffffffffffffffffffffff1614611689576040517f08c379a000000000000000000000000000000000000000000000000000000000815260040161168090612fef565b60405180910390fd5b60405180604001604052808281526020018373ffffffffffffffffffffffffffffffffffffffff1681525060046000820151816000015560208201518160010160006101000a81548173ffffffffffffffffffffffffffffffffffffffff021916908373ffffffffffffffffffffffffffffffffffffffff1602179055509050505050565b600960009054906101000a900473ffffffffffffffffffffffffffffffffffffffff1681565b600760009054906101000a900473ffffffffffffffffffffffffffffffffffffffff1681565b600860009054906101000a900473ffffffffffffffffffffffffffffffffffffffff1681565b600a5481565b6060600260008373ffffffffffffffffffffffffffffffffffffffff1673ffffffffffffffffffffffffffffffffffffffff16815260200190815260200160002080548060200260200160405190810160405280929190818152602001828054801561181157602002820191906000526020600020905b8154815260200190600101908083116117fd575b50505050509050919050565b6001818154811061182d57600080fd5b90600052602060002090600b020160009150905080600001549080600101805461185690613508565b80601f016020809104026020016040519081016040528092919081815260200182805461188290613508565b80156118cf5780601f106118a4576101008083540402835291602001916118cf565b820191906000526020600020905b8154815290600101906020018083116118b257829003601f168201915b5050505050908060020180546118e490613508565b80601f016020809104026020016040519081016040528092919081815260200182805461191090613508565b801561195d5780601f106119325761010080835404028352916020019161195d565b820191906000526020600020905b81548152906001019060200180831161194057829003601f168201915b5050505050908060030160009054906101000a900460ff16908060030160019054906101000a900473ffffffffffffffffffffffffffffffffffffffff16908060040160009054906101000a900473ffffffffffffffffffffffffffffffffffffffff169080600601604051806040016040529081600082015481526020016001820160009054906101000a900473ffffffffffffffffffffffffffffffffffffffff1673ffffffffffffffffffffffffffffffffffffffff1673ffffffffffffffffffffffffffffffffffffffff16815250509080600801604051806040016040529081600082015481526020016001820160009054906101000a900473ffffffffffffffffffffffffffffffffffffffff1673ffffffffffffffffffffffffffffffffffffffff1673ffffffffffffffffffffffffffffffffffffffff16815250509080600a0154905089565b60005481565b600c5481565b600660009054906101000a900473ffffffffffffffffffffffffffffffffffffffff1681565b600760009054906101000a900473ffffffffffffffffffffffffffffffffffffffff1673ffffffffffffffffffffffffffffffffffffffff163373ffffffffffffffffffffffffffffffffffffffff1614611b6e576040517f08c379a0000000000000000000000000000000000000000000000000000000008152600401611b6590612fef565b60405180910390fd5b60008310158015611b8157506103e88311155b611bc0576040517f08c379a0000000000000000000000000000000000000000000000000000000008152600401611bb7906130cf565b60405180910390fd5b82600a8190555081600b8190555080600c81905550505050565b600082118015611bef57506001805490508211155b611c2e576040517f08c379a0000000000000000000000000000000000000000000000000000000008152600401611c259061304f565b60405180910390fd5b600060018084611c3e9190613401565b81548110611c75577f4e487b7100000000000000000000000000000000000000000000000000000000600052603260045260246000fd5b90600052602060002090600b020190506000806000806000806001811115611cc6577f4e487b7100000000000000000000000000000000000000000000000000000000600052602160045260246000fd5b8660030160009054906101000a900460ff166001811115611d10577f4e487b7100000000000000000000000000000000000000000000000000000000600052602160045260246000fd5b14611d50576040517f08c379a0000000000000000000000000000000000000000000000000000000008152600401611d479061308f565b60405180910390fd5b600086600801905060008160010160009054906101000a900473ffffffffffffffffffffffffffffffffffffffff169050600088600a01548360000154611d979190613401565b905060008a118015611da95750808a11155b611de8576040517f08c379a0000000000000000000000000000000000000000000000000000000008152600401611ddf9061302f565b60405180910390fd5b6103e8600a54029750620f42408a890281611e2c577f4e487b7100000000000000000000000000000000000000000000000000000000600052601260045260246000fd5b0496506103e8600b54880281611e6b577f4e487b7100000000000000000000000000000000000000000000000000000000600052601260045260246000fd5b0495508587039450868a0393508173ffffffffffffffffffffffffffffffffffffffff166323b872dd33308d6040518463ffffffff1660e01b8152600401611eb593929190612ed5565b602060405180830381600087803b158015611ecf57600080fd5b505af1158015611ee3573d6000803e3d6000fd5b505050506040513d601f19601f82011682018060405250810190611f07919061270e565b611f46576040517f08c379a0000000000000000000000000000000000000000000000000000000008152600401611f3d90612faf565b60405180910390fd5b8173ffffffffffffffffffffffffffffffffffffffff1663a9059cbb600860009054906101000a900473ffffffffffffffffffffffffffffffffffffffff16886040518363ffffffff1660e01b8152600401611fa3929190612f0c565b602060405180830381600087803b158015611fbd57600080fd5b505af1158015611fd1573d6000803e3d6000fd5b505050506040513d601f19601f82011682018060405250810190611ff5919061270e565b508173ffffffffffffffffffffffffffffffffffffffff1663a9059cbb600960009054906101000a900473ffffffffffffffffffffffffffffffffffffffff16876040518363ffffffff1660e01b8152600401612053929190612f0c565b602060405180830381600087803b15801561206d57600080fd5b505af1158015612081573d6000803e3d6000fd5b505050506040513d601f19601f820116820180604052508101906120a5919061270e565b508173ffffffffffffffffffffffffffffffffffffffff1663095ea7b3600660009054906101000a900473ffffffffffffffffffffffffffffffffffffffff16866040518363ffffffff1660e01b8152600401612103929190612f0c565b602060405180830381600087803b15801561211d57600080fd5b505af1158015612131573d6000803e3d6000fd5b505050506040513d601f19601f82011682018060405250810190612155919061270e565b50600660009054906101000a900473ffffffffffffffffffffffffffffffffffffffff1673ffffffffffffffffffffffffffffffffffffffff16632e2d298485848c60040160009054906101000a900473ffffffffffffffffffffffffffffffffffffffff166040518463ffffffff1660e01b81526004016121d993929190613155565b600060405180830381600087803b1580156121f357600080fd5b505af1158015612207573d6000803e3d6000fd5b505050508989600a01600082825461221f91906133ab565b92505081905550826000015489600a0154106122895760018960030160006101000a81548160ff02191690836001811115612283577f4e487b7100000000000000000000000000000000000000000000000000000000600052602160045260246000fd5b02179055505b8860040160009054906101000a900473ffffffffffffffffffffffffffffffffffffffff1673ffffffffffffffffffffffffffffffffffffffff163373ffffffffffffffffffffffffffffffffffffffff167f1f004c54eef332ef6912dae8f1775c102da23bec79ccf602eaaa072938e96b678d8d60405161230c929190613228565b60405180910390a35050505050505050505050565b82805461232d90613508565b90600052602060002090601f01602090048101928261234f5760008555612396565b82601f1061236857805160ff1916838001178555612396565b82800160010185558215612396579182015b8281111561239557825182559160200191906001019061237a565b5b5090506123a391906124ca565b5090565b8280548282559060005260206000209081019282156123f6579160200282015b828111156123f55782518290805190602001906123e5929190612321565b50916020019190600101906123c7565b5b50905061240391906124e7565b5090565b60405180610140016040528060008152602001606081526020016060815260200160006001811115612462577f4e487b7100000000000000000000000000000000000000000000000000000000600052602160045260246000fd5b8152602001600073ffffffffffffffffffffffffffffffffffffffff168152602001600073ffffffffffffffffffffffffffffffffffffffff168152602001606081526020016124b061250b565b81526020016124bd61250b565b8152602001600081525090565b5b808211156124e35760008160009055506001016124cb565b5090565b5b8082111561250757600081816124fe919061253b565b506001016124e8565b5090565b604051806040016040528060008152602001600073ffffffffffffffffffffffffffffffffffffffff1681525090565b50805461254790613508565b6000825580601f106125595750612578565b601f01602090049060005260206000209081019061257791906124ca565b5b50565b600061258e61258984613276565b613251565b9050808382526020820190508260005b858110156125ce57813585016125b4888261266a565b84526020840193506020830192505060018101905061259e565b5050509392505050565b60006125eb6125e6846132a2565b613251565b90508281526020810184848401111561260357600080fd5b61260e8482856134c6565b509392505050565b600081359050612625816138c7565b92915050565b600082601f83011261263c57600080fd5b813561264c84826020860161257b565b91505092915050565b600081519050612664816138de565b92915050565b600082601f83011261267b57600080fd5b813561268b8482602086016125d8565b91505092915050565b6000813590506126a3816138f5565b92915050565b6000602082840312156126bb57600080fd5b60006126c984828501612616565b91505092915050565b600080604083850312156126e557600080fd5b60006126f385828601612616565b925050602061270485828601612694565b9150509250929050565b60006020828403121561272057600080fd5b600061272e84828501612655565b91505092915050565b60008060008060008060c0878903121561275057600080fd5b600087013567ffffffffffffffff81111561276a57600080fd5b61277689828a0161266a565b965050602087013567ffffffffffffffff81111561279357600080fd5b61279f89828a0161266a565b95505060406127b089828a01612616565b945050606087013567ffffffffffffffff8111156127cd57600080fd5b6127d989828a0161262b565b93505060806127ea89828a01612694565b92505060a06127fb89828a01612616565b9150509295509295509295565b60006020828403121561281a57600080fd5b600061282884828501612694565b91505092915050565b6000806040838503121561284457600080fd5b600061285285828601612694565b925050602061286385828601612694565b9150509250929050565b60008060006060848603121561288257600080fd5b600061289086828701612694565b93505060206128a186828701612694565b92505060406128b286828701612694565b9150509250925092565b60006128c88383612a9e565b905092915050565b60006128dc8383612c6e565b905092915050565b60006128f08383612e9c565b60208301905092915050565b61290581613435565b82525050565b61291481613435565b82525050565b600061292582613303565b61292f8185613356565b935083602082028501612941856132d3565b8060005b8581101561297d578484038952815161295e85826128bc565b94506129698361332f565b925060208a01995050600181019050612945565b50829750879550505050505092915050565b600061299a8261330e565b6129a48185613367565b9350836020820285016129b6856132e3565b8060005b858110156129f257848403895281516129d385826128d0565b94506129de8361333c565b925060208a019950506001810190506129ba565b50829750879550505050505092915050565b6000612a0f82613319565b612a198185613378565b9350612a24836132f3565b8060005b83811015612a55578151612a3c88826128e4565b9750612a4783613349565b925050600181019050612a28565b5085935050505092915050565b612a6b81613447565b82525050565b612a7a81613490565b82525050565b612a89816134b4565b82525050565b612a98816134b4565b82525050565b6000612aa982613324565b612ab38185613389565b9350612ac38185602086016134d5565b612acc81613670565b840191505092915050565b6000612ae282613324565b612aec818561339a565b9350612afc8185602086016134d5565b612b0581613670565b840191505092915050565b6000612b1d602d8361339a565b9150612b2882613681565b604082019050919050565b6000612b4060188361339a565b9150612b4b826136d0565b602082019050919050565b6000612b6360258361339a565b9150612b6e826136f9565b604082019050919050565b6000612b8660158361339a565b9150612b9182613748565b602082019050919050565b6000612ba960168361339a565b9150612bb482613771565b602082019050919050565b6000612bcc60148361339a565b9150612bd78261379a565b602082019050919050565b6000612bef60238361339a565b9150612bfa826137c3565b604082019050919050565b6000612c1260178361339a565b9150612c1d82613812565b602082019050919050565b6000612c3560288361339a565b9150612c408261383b565b604082019050919050565b6000612c5860168361339a565b9150612c638261388a565b602082019050919050565b600061018083016000830151612c876000860182612e9c565b5060208301518482036020860152612c9f8282612a9e565b91505060408301518482036040860152612cb98282612a9e565b9150506060830151612cce6060860182612a80565b506080830151612ce160808601826128fc565b5060a0830151612cf460a08601826128fc565b5060c083015184820360c0860152612d0c828261291a565b91505060e0830151612d2160e0860182612e3e565b50610100830151612d36610120860182612e3e565b50610120830151612d4b610160860182612e9c565b508091505092915050565b600061018083016000830151612d6f6000860182612e9c565b5060208301518482036020860152612d878282612a9e565b91505060408301518482036040860152612da18282612a9e565b9150506060830151612db66060860182612a80565b506080830151612dc960808601826128fc565b5060a0830151612ddc60a08601826128fc565b5060c083015184820360c0860152612df4828261291a565b91505060e0830151612e0960e0860182612e3e565b50610100830151612e1e610120860182612e3e565b50610120830151612e33610160860182612e9c565b508091505092915050565b604082016000820151612e546000850182612e9c565b506020820151612e6760208501826128fc565b50505050565b604082016000820151612e836000850182612e9c565b506020820151612e9660208501826128fc565b50505050565b612ea581613486565b82525050565b612eb481613486565b82525050565b6000602082019050612ecf600083018461290b565b92915050565b6000606082019050612eea600083018661290b565b612ef7602083018561290b565b612f046040830184612eab565b949350505050565b6000604082019050612f21600083018561290b565b612f2e6020830184612eab565b9392505050565b60006020820190508181036000830152612f4f818461298f565b905092915050565b60006020820190508181036000830152612f718184612a04565b905092915050565b6000602082019050612f8e6000830184612a62565b92915050565b6000602082019050612fa96000830184612a71565b92915050565b60006020820190508181036000830152612fc881612b10565b9050919050565b60006020820190508181036000830152612fe881612b33565b9050919050565b6000602082019050818103600083015261300881612b56565b9050919050565b6000602082019050818103600083015261302881612b79565b9050919050565b6000602082019050818103600083015261304881612b9c565b9050919050565b6000602082019050818103600083015261306881612bbf565b9050919050565b6000602082019050818103600083015261308881612be2565b9050919050565b600060208201905081810360008301526130a881612c05565b9050919050565b600060208201905081810360008301526130c881612c28565b9050919050565b600060208201905081810360008301526130e881612c4b565b9050919050565b600060208201905081810360008301526131098184612d56565b905092915050565b60006020820190506131266000830184612eab565b92915050565b60006040820190506131416000830185612eab565b61314e602083018461290b565b9392505050565b600060608201905061316a6000830186612eab565b613177602083018561290b565b613184604083018461290b565b949350505050565b6000610160820190506131a2600083018c612eab565b81810360208301526131b4818b612ad7565b905081810360408301526131c8818a612ad7565b90506131d76060830189612a8f565b6131e4608083018861290b565b6131f160a083018761290b565b6131fe60c0830186612e6d565b61320c610100830185612e6d565b61321a610140830184612eab565b9a9950505050505050505050565b600060408201905061323d6000830185612eab565b61324a6020830184612eab565b9392505050565b600061325b61326c565b9050613267828261353a565b919050565b6000604051905090565b600067ffffffffffffffff82111561329157613290613641565b5b602082029050602081019050919050565b600067ffffffffffffffff8211156132bd576132bc613641565b5b6132c682613670565b9050602081019050919050565b6000819050602082019050919050565b6000819050602082019050919050565b6000819050602082019050919050565b600081519050919050565b600081519050919050565b600081519050919050565b600081519050919050565b6000602082019050919050565b6000602082019050919050565b6000602082019050919050565b600082825260208201905092915050565b600082825260208201905092915050565b600082825260208201905092915050565b600082825260208201905092915050565b600082825260208201905092915050565b60006133b682613486565b91506133c183613486565b9250827fffffffffffffffffffffffffffffffffffffffffffffffffffffffffffffffff038211156133f6576133f56135b4565b5b828201905092915050565b600061340c82613486565b915061341783613486565b92508282101561342a576134296135b4565b5b828203905092915050565b600061344082613466565b9050919050565b60008115159050919050565b6000819050613461826138b3565b919050565b600073ffffffffffffffffffffffffffffffffffffffff82169050919050565b6000819050919050565b600061349b826134a2565b9050919050565b60006134ad82613466565b9050919050565b60006134bf82613453565b9050919050565b82818337600083830152505050565b60005b838110156134f35780820151818401526020810190506134d8565b83811115613502576000848401525b50505050565b6000600282049050600182168061352057607f821691505b6020821081141561353457613533613612565b5b50919050565b61354382613670565b810181811067ffffffffffffffff8211171561356257613561613641565b5b80604052505050565b600061357682613486565b91507fffffffffffffffffffffffffffffffffffffffffffffffffffffffffffffffff8214156135a9576135a86135b4565b5b600182019050919050565b7f4e487b7100000000000000000000000000000000000000000000000000000000600052601160045260246000fd5b7f4e487b7100000000000000000000000000000000000000000000000000000000600052602160045260246000fd5b7f4e487b7100000000000000000000000000000000000000000000000000000000600052602260045260246000fd5b7f4e487b7100000000000000000000000000000000000000000000000000000000600052604160045260246000fd5b6000601f19601f8301169050919050565b7f55736572206d75737420617070726f76652074686520616d6f756e74206f662060008201527f7468652061677265656d656e7400000000000000000000000000000000000000602082015250565b7f536b696c6c73206d757374206e6f7420626520656d7074790000000000000000600082015250565b7f4f6e6c7920746865206f776e65722063616e2063616c6c20746869732066756e60008201527f6374696f6e000000000000000000000000000000000000000000000000000000602082015250565b7f496e76616c6964207061796d656e7420746f6b656e0000000000000000000000600082015250565b7f496e76616c6964207061796d656e7420616d6f756e7400000000000000000000600082015250565b7f496e76616c69642061677265656d656e74204944000000000000000000000000600082015250565b7f50726f66657373696f6e616c20616464726573732063616e6e6f74206265207a60008201527f65726f0000000000000000000000000000000000000000000000000000000000602082015250565b7f41677265656d656e74206973206e6f7420616374697665000000000000000000600082015250565b7f5061796d656e7420616d6f756e74206d7573742062652067726561746572207460008201527f68616e207a65726f000000000000000000000000000000000000000000000000602082015250565b7f496e76616c6964206665652070657263656e7461676500000000000000000000600082015250565b600281106138c4576138c36135e3565b5b50565b6138d081613435565b81146138db57600080fd5b50565b6138e781613447565b81146138f257600080fd5b50565b6138fe81613486565b811461390957600080fd5b5056fea264697066735822122011197a942eb4e40c14e7ff81419812d300f5aff524aaac2cd28b7feb2742495164736f6c63430008010033",
  "linkReferences": {},
  "deployedLinkReferences": {}
}