{
  "_format": "hh-sol-artifact-1",
  "contractName": "AgreementContract",
  "sourceName": "contracts/AgreementContract.sol",
  "abi": [
    {
      "inputs": [
        {
          "internalType": "address",
          "name": "_kyodoTreasury",
          "type": "address"
        },
        {
          "internalType": "address",
          "name": "_communityDAO",
          "type": "address"
        }
      ],
      "stateMutability": "nonpayable",
      "type": "constructor"
    },
    {
      "anonymous": false,
      "inputs": [
        {
          "indexed": true,
          "internalType": "address",
          "name": "company",
          "type": "address"
        },
        {
          "indexed": true,
          "internalType": "address",
          "name": "professional",
          "type": "address"
        },
        {
          "indexed": false,
          "internalType": "uint256",
          "name": "agreementId",
          "type": "uint256"
        },
        {
          "indexed": false,
          "internalType": "uint256",
          "name": "amount",
          "type": "uint256"
        }
      ],
      "name": "AgreementCreated",
      "type": "event"
    },
    {
      "anonymous": false,
      "inputs": [
        {
          "indexed": true,
          "internalType": "address",
          "name": "company",
          "type": "address"
        },
        {
          "indexed": true,
          "internalType": "address",
          "name": "professional",
          "type": "address"
        },
        {
          "indexed": false,
          "internalType": "uint256",
          "name": "agreementId",
          "type": "uint256"
        },
        {
          "indexed": false,
          "internalType": "uint256",
          "name": "amount",
          "type": "uint256"
        }
      ],
      "name": "PaymentMade",
      "type": "event"
    },
    {
      "inputs": [],
      "name": "StableVault",
      "outputs": [
        {
          "internalType": "contract IStableVault",
          "name": "",
          "type": "address"
        }
      ],
      "stateMutability": "view",
      "type": "function"
    },
    {
      "inputs": [
        {
          "internalType": "address",
          "name": "",
          "type": "address"
        }
      ],
      "name": "acceptedPaymentTokens",
      "outputs": [
        {
          "internalType": "bool",
          "name": "",
          "type": "bool"
        }
      ],
      "stateMutability": "view",
      "type": "function"
    },
    {
      "inputs": [
        {
          "internalType": "address",
          "name": "_tokenAddress",
          "type": "address"
        }
      ],
      "name": "addAcceptedPaymentToken",
      "outputs": [],
      "stateMutability": "nonpayable",
      "type": "function"
    },
    {
      "inputs": [
        {
          "internalType": "uint256",
          "name": "",
          "type": "uint256"
        }
      ],
      "name": "agreements",
      "outputs": [
        {
          "internalType": "uint256",
          "name": "id",
          "type": "uint256"
        },
        {
          "internalType": "string",
          "name": "title",
          "type": "string"
        },
        {
          "internalType": "string",
          "name": "description",
          "type": "string"
        },
        {
          "internalType": "enum AgreementContract.AgreementStatus",
          "name": "status",
          "type": "uint8"
        },
        {
          "internalType": "address",
          "name": "company",
          "type": "address"
        },
        {
          "internalType": "address",
          "name": "professional",
          "type": "address"
        },
        {
          "components": [
            {
              "internalType": "uint256",
              "name": "amount",
              "type": "uint256"
            },
            {
              "internalType": "address",
              "name": "tokenAddress",
              "type": "address"
            }
          ],
          "internalType": "struct AgreementContract.Token",
          "name": "tokenIncentive",
          "type": "tuple"
        },
        {
          "components": [
            {
              "internalType": "uint256",
              "name": "amount",
              "type": "uint256"
            },
            {
              "internalType": "address",
              "name": "tokenAddress",
              "type": "address"
            }
          ],
          "internalType": "struct AgreementContract.Token",
          "name": "payment",
          "type": "tuple"
        },
        {
          "internalType": "uint256",
          "name": "totalPaid",
          "type": "uint256"
        }
      ],
      "stateMutability": "view",
      "type": "function"
    },
    {
      "inputs": [],
      "name": "communityDAO",
      "outputs": [
        {
          "internalType": "address",
          "name": "",
          "type": "address"
        }
      ],
      "stateMutability": "view",
      "type": "function"
    },
    {
      "inputs": [],
      "name": "communityDAOFee",
      "outputs": [
        {
          "internalType": "uint256",
          "name": "",
          "type": "uint256"
        }
      ],
      "stateMutability": "view",
      "type": "function"
    },
    {
      "inputs": [
        {
          "internalType": "string",
          "name": "_title",
          "type": "string"
        },
        {
          "internalType": "string",
          "name": "_description",
          "type": "string"
        },
        {
          "internalType": "address",
          "name": "_professional",
          "type": "address"
        },
        {
          "internalType": "string[]",
          "name": "_skills",
          "type": "string[]"
        },
        {
          "internalType": "uint256",
          "name": "_paymentAmount",
          "type": "uint256"
        }
      ],
      "name": "createAgreement",
      "outputs": [],
      "stateMutability": "nonpayable",
      "type": "function"
    },
    {
      "inputs": [],
      "name": "feePercentage",
      "outputs": [
        {
          "internalType": "uint256",
          "name": "",
          "type": "uint256"
        }
      ],
      "stateMutability": "view",
      "type": "function"
    },
    {
      "inputs": [
        {
          "internalType": "uint256",
          "name": "_id",
          "type": "uint256"
        }
      ],
      "name": "getAgreementById",
      "outputs": [
        {
          "components": [
            {
              "internalType": "uint256",
              "name": "id",
              "type": "uint256"
            },
            {
              "internalType": "string",
              "name": "title",
              "type": "string"
            },
            {
              "internalType": "string",
              "name": "description",
              "type": "string"
            },
            {
              "internalType": "enum AgreementContract.AgreementStatus",
              "name": "status",
              "type": "uint8"
            },
            {
              "internalType": "address",
              "name": "company",
              "type": "address"
            },
            {
              "internalType": "address",
              "name": "professional",
              "type": "address"
            },
            {
              "internalType": "string[]",
              "name": "skills",
              "type": "string[]"
            },
            {
              "components": [
                {
                  "internalType": "uint256",
                  "name": "amount",
                  "type": "uint256"
                },
                {
                  "internalType": "address",
                  "name": "tokenAddress",
                  "type": "address"
                }
              ],
              "internalType": "struct AgreementContract.Token",
              "name": "tokenIncentive",
              "type": "tuple"
            },
            {
              "components": [
                {
                  "internalType": "uint256",
                  "name": "amount",
                  "type": "uint256"
                },
                {
                  "internalType": "address",
                  "name": "tokenAddress",
                  "type": "address"
                }
              ],
              "internalType": "struct AgreementContract.Token",
              "name": "payment",
              "type": "tuple"
            },
            {
              "internalType": "uint256",
              "name": "totalPaid",
              "type": "uint256"
            }
          ],
          "internalType": "struct AgreementContract.Agreement",
          "name": "",
          "type": "tuple"
        }
      ],
      "stateMutability": "view",
      "type": "function"
    },
    {
      "inputs": [],
      "name": "getAgreementCount",
      "outputs": [
        {
          "internalType": "uint256",
          "name": "",
          "type": "uint256"
        }
      ],
      "stateMutability": "view",
      "type": "function"
    },
    {
      "inputs": [],
      "name": "getAllAgreements",
      "outputs": [
        {
          "components": [
            {
              "internalType": "uint256",
              "name": "id",
              "type": "uint256"
            },
            {
              "internalType": "string",
              "name": "title",
              "type": "string"
            },
            {
              "internalType": "string",
              "name": "description",
              "type": "string"
            },
            {
              "internalType": "enum AgreementContract.AgreementStatus",
              "name": "status",
              "type": "uint8"
            },
            {
              "internalType": "address",
              "name": "company",
              "type": "address"
            },
            {
              "internalType": "address",
              "name": "professional",
              "type": "address"
            },
            {
              "internalType": "string[]",
              "name": "skills",
              "type": "string[]"
            },
            {
              "components": [
                {
                  "internalType": "uint256",
                  "name": "amount",
                  "type": "uint256"
                },
                {
                  "internalType": "address",
                  "name": "tokenAddress",
                  "type": "address"
                }
              ],
              "internalType": "struct AgreementContract.Token",
              "name": "tokenIncentive",
              "type": "tuple"
            },
            {
              "components": [
                {
                  "internalType": "uint256",
                  "name": "amount",
                  "type": "uint256"
                },
                {
                  "internalType": "address",
                  "name": "tokenAddress",
                  "type": "address"
                }
              ],
              "internalType": "struct AgreementContract.Token",
              "name": "payment",
              "type": "tuple"
            },
            {
              "internalType": "uint256",
              "name": "totalPaid",
              "type": "uint256"
            }
          ],
          "internalType": "struct AgreementContract.Agreement[]",
          "name": "",
          "type": "tuple[]"
        }
      ],
      "stateMutability": "view",
      "type": "function"
    },
    {
      "inputs": [
        {
          "internalType": "address",
          "name": "_user",
          "type": "address"
        }
      ],
      "name": "getUserAgreements",
      "outputs": [
        {
          "internalType": "uint256[]",
          "name": "",
          "type": "uint256[]"
        }
      ],
      "stateMutability": "view",
      "type": "function"
    },
    {
      "inputs": [],
      "name": "kyodoTreasury",
      "outputs": [
        {
          "internalType": "address",
          "name": "",
          "type": "address"
        }
      ],
      "stateMutability": "view",
      "type": "function"
    },
    {
      "inputs": [],
      "name": "kyodoTreasuryFee",
      "outputs": [
        {
          "internalType": "uint256",
          "name": "",
          "type": "uint256"
        }
      ],
      "stateMutability": "view",
      "type": "function"
    },
    {
      "inputs": [
        {
          "internalType": "uint256",
          "name": "_agreementId",
          "type": "uint256"
        },
        {
          "internalType": "uint256",
          "name": "_amountToPay",
          "type": "uint256"
        },
        {
          "internalType": "address",
          "name": "_paymentAddress",
          "type": "address"
        }
      ],
      "name": "makePayment",
      "outputs": [],
      "stateMutability": "nonpayable",
      "type": "function"
    },
    {
      "inputs": [],
      "name": "nextAgreementId",
      "outputs": [
        {
          "internalType": "uint256",
          "name": "",
          "type": "uint256"
        }
      ],
      "stateMutability": "view",
      "type": "function"
    },
    {
      "inputs": [],
      "name": "owner",
      "outputs": [
        {
          "internalType": "address",
          "name": "",
          "type": "address"
        }
      ],
      "stateMutability": "view",
      "type": "function"
    },
    {
      "inputs": [
        {
          "internalType": "uint256",
          "name": "_feePercentage",
          "type": "uint256"
        },
        {
          "internalType": "uint256",
          "name": "_kyodoTreasuryFee",
          "type": "uint256"
        },
        {
          "internalType": "uint256",
          "name": "_communityDAOFee",
          "type": "uint256"
        }
      ],
      "name": "setFees",
      "outputs": [],
      "stateMutability": "nonpayable",
      "type": "function"
    },
    {
      "inputs": [
        {
          "internalType": "address",
          "name": "_StableVaultAddress",
          "type": "address"
        }
      ],
      "name": "setStableVaultAddress",
      "outputs": [],
      "stateMutability": "nonpayable",
      "type": "function"
    },
    {
      "inputs": [],
      "name": "tokenIncentive",
      "outputs": [
        {
          "internalType": "uint256",
          "name": "amount",
          "type": "uint256"
        },
        {
          "internalType": "address",
          "name": "tokenAddress",
          "type": "address"
        }
      ],
      "stateMutability": "view",
      "type": "function"
    },
    {
      "inputs": [
        {
          "internalType": "address",
          "name": "_newTokenAddress",
          "type": "address"
        },
        {
          "internalType": "uint256",
          "name": "_newAmount",
          "type": "uint256"
        }
      ],
      "name": "updateTokenIncentive",
      "outputs": [],
      "stateMutability": "nonpayable",
      "type": "function"
    },
    {
      "inputs": [
        {
          "internalType": "address",
          "name": "",
          "type": "address"
        },
        {
          "internalType": "uint256",
          "name": "",
          "type": "uint256"
        }
      ],
      "name": "userAgreements",
      "outputs": [
        {
          "internalType": "uint256",
          "name": "",
          "type": "uint256"
        }
      ],
      "stateMutability": "view",
      "type": "function"
    }
  ],
  "bytecode": "0x608060405260016000553480156200001657600080fd5b5060405162003add38038062003add83398181016040528101906200003c91906200011e565b33600760006101000a81548173ffffffffffffffffffffffffffffffffffffffff021916908373ffffffffffffffffffffffffffffffffffffffff16021790555081600860006101000a81548173ffffffffffffffffffffffffffffffffffffffff021916908373ffffffffffffffffffffffffffffffffffffffff16021790555080600960006101000a81548173ffffffffffffffffffffffffffffffffffffffff021916908373ffffffffffffffffffffffffffffffffffffffff1602179055505050620001ad565b600081519050620001188162000193565b92915050565b600080604083850312156200013257600080fd5b6000620001428582860162000107565b9250506020620001558582860162000107565b9150509250929050565b60006200016c8262000173565b9050919050565b600073ffffffffffffffffffffffffffffffffffffffff82169050919050565b6200019e816200015f565b8114620001aa57600080fd5b50565b61392080620001bd6000396000f3fe608060405234801561001057600080fd5b50600436106101415760003560e01c8063964bb4ab116100b8578063bd14de961161007c578063bd14de9614610367578063c9b99dab1461039f578063c9e92905146103bd578063cec10c11146103db578063f2d64a96146103f7578063fc3f5dff1461041557610141565b8063964bb4ab146102c3578063a001ecdd146102e1578063a06ee2db146102ff578063adb9cae61461031b578063b634acfa1461034b57610141565b80634e6873c71161010a5780634e6873c7146101ff578063573fb6241461021d5780637d2399071461024d5780637e6982561461026b5780638207546e146102875780638da5cb5b146102a557610141565b80628bed3e1461014657806313cda3b7146101645780632426860514610180578063484bb2441461019f5780634c27984e146101cf575b600080fd5b61014e610431565b60405161015b91906130ef565b60405180910390f35b61017e60048036038101906101799190612686565b61043e565b005b610188610529565b60405161019692919061310a565b60405180910390f35b6101b960048036038101906101b49190612686565b61055b565b6040516101c69190612f57565b60405180910390f35b6101e960048036038101906101e491906126af565b61057b565b6040516101f691906130ef565b60405180910390f35b6102076105ac565b6040516102149190612f13565b60405180910390f35b610237600480360381019061023291906127d3565b610a38565b60405161024491906130cd565b60405180910390f35b610255610f26565b60405161026291906130ef565b60405180910390f35b610285600480360381019061028091906126af565b610f2c565b005b61028f611041565b60405161029c9190612e98565b60405180910390f35b6102ad611067565b6040516102ba9190612e98565b60405180910390f35b6102cb61108d565b6040516102d89190612e98565b60405180910390f35b6102e96110b3565b6040516102f691906130ef565b60405180910390f35b61031960048036038101906103149190612686565b6110b9565b005b61033560048036038101906103309190612686565b61118d565b6040516103429190612f35565b60405180910390f35b61036560048036038101906103609190612714565b611224565b005b610381600480360381019061037c91906127d3565b611791565b6040516103969998979695949392919061316a565b60405180910390f35b6103a7611a20565b6040516103b491906130ef565b60405180910390f35b6103c5611a26565b6040516103d291906130ef565b60405180910390f35b6103f560048036038101906103f0919061284b565b611a2c565b005b6103ff611b28565b60405161040c9190612f72565b60405180910390f35b61042f600480360381019061042a91906127fc565b611b4e565b005b6000600180549050905090565b600760009054906101000a900473ffffffffffffffffffffffffffffffffffffffff1673ffffffffffffffffffffffffffffffffffffffff163373ffffffffffffffffffffffffffffffffffffffff16146104ce576040517f08c379a00000000000000000000000000000000000000000000000000000000081526004016104c590612fcd565b60405180910390fd5b6001600360008373ffffffffffffffffffffffffffffffffffffffff1673ffffffffffffffffffffffffffffffffffffffff16815260200190815260200160002060006101000a81548160ff02191690831515021790555050565b60048060000154908060010160009054906101000a900473ffffffffffffffffffffffffffffffffffffffff16905082565b60036020528060005260406000206000915054906101000a900460ff1681565b6002602052816000526040600020818154811061059757600080fd5b90600052602060002001600091509150505481565b60606001805480602002602001604051908101604052809291908181526020016000905b82821015610a2f57838290600052602060002090600b0201604051806101400160405290816000820154815260200160018201805461060e906134e6565b80601f016020809104026020016040519081016040528092919081815260200182805461063a906134e6565b80156106875780601f1061065c57610100808354040283529160200191610687565b820191906000526020600020905b81548152906001019060200180831161066a57829003601f168201915b505050505081526020016002820180546106a0906134e6565b80601f01602080910402602001604051908101604052809291908181526020018280546106cc906134e6565b80156107195780601f106106ee57610100808354040283529160200191610719565b820191906000526020600020905b8154815290600101906020018083116106fc57829003601f168201915b505050505081526020016003820160009054906101000a900460ff16600181111561076d577f4e487b7100000000000000000000000000000000000000000000000000000000600052602160045260246000fd5b60018111156107a5577f4e487b7100000000000000000000000000000000000000000000000000000000600052602160045260246000fd5b81526020016003820160019054906101000a900473ffffffffffffffffffffffffffffffffffffffff1673ffffffffffffffffffffffffffffffffffffffff1673ffffffffffffffffffffffffffffffffffffffff1681526020016004820160009054906101000a900473ffffffffffffffffffffffffffffffffffffffff1673ffffffffffffffffffffffffffffffffffffffff1673ffffffffffffffffffffffffffffffffffffffff16815260200160058201805480602002602001604051908101604052809291908181526020016000905b82821015610926578382906000526020600020018054610899906134e6565b80601f01602080910402602001604051908101604052809291908181526020018280546108c5906134e6565b80156109125780601f106108e757610100808354040283529160200191610912565b820191906000526020600020905b8154815290600101906020018083116108f557829003601f168201915b50505050508152602001906001019061087a565b50505050815260200160068201604051806040016040529081600082015481526020016001820160009054906101000a900473ffffffffffffffffffffffffffffffffffffffff1673ffffffffffffffffffffffffffffffffffffffff1673ffffffffffffffffffffffffffffffffffffffff1681525050815260200160088201604051806040016040529081600082015481526020016001820160009054906101000a900473ffffffffffffffffffffffffffffffffffffffff1673ffffffffffffffffffffffffffffffffffffffff1673ffffffffffffffffffffffffffffffffffffffff16815250508152602001600a82015481525050815260200190600101906105d0565b50505050905090565b610a406122fe565b600082118015610a5557506001805490508211155b610a94576040517f08c379a0000000000000000000000000000000000000000000000000000000008152600401610a8b9061302d565b60405180910390fd5b60018083610aa291906133df565b81548110610ad9577f4e487b7100000000000000000000000000000000000000000000000000000000600052603260045260246000fd5b90600052602060002090600b02016040518061014001604052908160008201548152602001600182018054610b0d906134e6565b80601f0160208091040260200160405190810160405280929190818152602001828054610b39906134e6565b8015610b865780601f10610b5b57610100808354040283529160200191610b86565b820191906000526020600020905b815481529060010190602001808311610b6957829003601f168201915b50505050508152602001600282018054610b9f906134e6565b80601f0160208091040260200160405190810160405280929190818152602001828054610bcb906134e6565b8015610c185780601f10610bed57610100808354040283529160200191610c18565b820191906000526020600020905b815481529060010190602001808311610bfb57829003601f168201915b505050505081526020016003820160009054906101000a900460ff166001811115610c6c577f4e487b7100000000000000000000000000000000000000000000000000000000600052602160045260246000fd5b6001811115610ca4577f4e487b7100000000000000000000000000000000000000000000000000000000600052602160045260246000fd5b81526020016003820160019054906101000a900473ffffffffffffffffffffffffffffffffffffffff1673ffffffffffffffffffffffffffffffffffffffff1673ffffffffffffffffffffffffffffffffffffffff1681526020016004820160009054906101000a900473ffffffffffffffffffffffffffffffffffffffff1673ffffffffffffffffffffffffffffffffffffffff1673ffffffffffffffffffffffffffffffffffffffff16815260200160058201805480602002602001604051908101604052809291908181526020016000905b82821015610e25578382906000526020600020018054610d98906134e6565b80601f0160208091040260200160405190810160405280929190818152602001828054610dc4906134e6565b8015610e115780601f10610de657610100808354040283529160200191610e11565b820191906000526020600020905b815481529060010190602001808311610df457829003601f168201915b505050505081526020019060010190610d79565b50505050815260200160068201604051806040016040529081600082015481526020016001820160009054906101000a900473ffffffffffffffffffffffffffffffffffffffff1673ffffffffffffffffffffffffffffffffffffffff1673ffffffffffffffffffffffffffffffffffffffff1681525050815260200160088201604051806040016040529081600082015481526020016001820160009054906101000a900473ffffffffffffffffffffffffffffffffffffffff1673ffffffffffffffffffffffffffffffffffffffff1673ffffffffffffffffffffffffffffffffffffffff16815250508152602001600a820154815250509050919050565b600b5481565b600760009054906101000a900473ffffffffffffffffffffffffffffffffffffffff1673ffffffffffffffffffffffffffffffffffffffff163373ffffffffffffffffffffffffffffffffffffffff1614610fbc576040517f08c379a0000000000000000000000000000000000000000000000000000000008152600401610fb390612fcd565b60405180910390fd5b60405180604001604052808281526020018373ffffffffffffffffffffffffffffffffffffffff1681525060046000820151816000015560208201518160010160006101000a81548173ffffffffffffffffffffffffffffffffffffffff021916908373ffffffffffffffffffffffffffffffffffffffff1602179055509050505050565b600960009054906101000a900473ffffffffffffffffffffffffffffffffffffffff1681565b600760009054906101000a900473ffffffffffffffffffffffffffffffffffffffff1681565b600860009054906101000a900473ffffffffffffffffffffffffffffffffffffffff1681565b600a5481565b600760009054906101000a900473ffffffffffffffffffffffffffffffffffffffff1673ffffffffffffffffffffffffffffffffffffffff163373ffffffffffffffffffffffffffffffffffffffff1614611149576040517f08c379a000000000000000000000000000000000000000000000000000000000815260040161114090612fcd565b60405180910390fd5b80600660006101000a81548173ffffffffffffffffffffffffffffffffffffffff021916908373ffffffffffffffffffffffffffffffffffffffff16021790555050565b6060600260008373ffffffffffffffffffffffffffffffffffffffff1673ffffffffffffffffffffffffffffffffffffffff16815260200190815260200160002080548060200260200160405190810160405280929190818152602001828054801561121857602002820191906000526020600020905b815481526020019060010190808311611204575b50505050509050919050565b600073ffffffffffffffffffffffffffffffffffffffff168373ffffffffffffffffffffffffffffffffffffffff161415611294576040517f08c379a000000000000000000000000000000000000000000000000000000000815260040161128b9061304d565b60405180910390fd5b60008251116112d8576040517f08c379a00000000000000000000000000000000000000000000000000000000081526004016112cf90612fad565b60405180910390fd5b6000811161131b576040517f08c379a00000000000000000000000000000000000000000000000000000000081526004016113129061308d565b60405180910390fd5b60006040518060400160405280838152602001600073ffffffffffffffffffffffffffffffffffffffff16815250905060006040518061014001604052806000548152602001888152602001878152602001600060018111156113a7577f4e487b7100000000000000000000000000000000000000000000000000000000600052602160045260246000fd5b81526020013373ffffffffffffffffffffffffffffffffffffffff1681526020018673ffffffffffffffffffffffffffffffffffffffff1681526020018581526020016004604051806040016040529081600082015481526020016001820160009054906101000a900473ffffffffffffffffffffffffffffffffffffffff1673ffffffffffffffffffffffffffffffffffffffff1673ffffffffffffffffffffffffffffffffffffffff168152505081526020018381526020016000815250905060018190806001815401808255809150506001900390600052602060002090600b02016000909190919091506000820151816000015560208201518160010190805190602001906114bb9291906123c1565b5060408201518160020190805190602001906114d89291906123c1565b5060608201518160030160006101000a81548160ff0219169083600181111561152a577f4e487b7100000000000000000000000000000000000000000000000000000000600052602160045260246000fd5b021790555060808201518160030160016101000a81548173ffffffffffffffffffffffffffffffffffffffff021916908373ffffffffffffffffffffffffffffffffffffffff16021790555060a08201518160040160006101000a81548173ffffffffffffffffffffffffffffffffffffffff021916908373ffffffffffffffffffffffffffffffffffffffff16021790555060c08201518160050190805190602001906115d9929190612447565b5060e0820151816006016000820151816000015560208201518160010160006101000a81548173ffffffffffffffffffffffffffffffffffffffff021916908373ffffffffffffffffffffffffffffffffffffffff1602179055505050610100820151816008016000820151816000015560208201518160010160006101000a81548173ffffffffffffffffffffffffffffffffffffffff021916908373ffffffffffffffffffffffffffffffffffffffff160217905550505061012082015181600a01555050600260003373ffffffffffffffffffffffffffffffffffffffff1673ffffffffffffffffffffffffffffffffffffffff16815260200190815260200160002060005490806001815401808255809150506001900390600052602060002001600090919091909150558473ffffffffffffffffffffffffffffffffffffffff163373ffffffffffffffffffffffffffffffffffffffff167f4969d8f058da37f5b596425a39904e9a027ac23d1865d6efd5df5a5e24eef7de60005486604051611769929190613206565b60405180910390a360008081548092919061178390613549565b919050555050505050505050565b600181815481106117a157600080fd5b90600052602060002090600b02016000915090508060000154908060010180546117ca906134e6565b80601f01602080910402602001604051908101604052809291908181526020018280546117f6906134e6565b80156118435780601f1061181857610100808354040283529160200191611843565b820191906000526020600020905b81548152906001019060200180831161182657829003601f168201915b505050505090806002018054611858906134e6565b80601f0160208091040260200160405190810160405280929190818152602001828054611884906134e6565b80156118d15780601f106118a6576101008083540402835291602001916118d1565b820191906000526020600020905b8154815290600101906020018083116118b457829003601f168201915b5050505050908060030160009054906101000a900460ff16908060030160019054906101000a900473ffffffffffffffffffffffffffffffffffffffff16908060040160009054906101000a900473ffffffffffffffffffffffffffffffffffffffff169080600601604051806040016040529081600082015481526020016001820160009054906101000a900473ffffffffffffffffffffffffffffffffffffffff1673ffffffffffffffffffffffffffffffffffffffff1673ffffffffffffffffffffffffffffffffffffffff16815250509080600801604051806040016040529081600082015481526020016001820160009054906101000a900473ffffffffffffffffffffffffffffffffffffffff1673ffffffffffffffffffffffffffffffffffffffff1673ffffffffffffffffffffffffffffffffffffffff16815250509080600a0154905089565b60005481565b600c5481565b600760009054906101000a900473ffffffffffffffffffffffffffffffffffffffff1673ffffffffffffffffffffffffffffffffffffffff163373ffffffffffffffffffffffffffffffffffffffff1614611abc576040517f08c379a0000000000000000000000000000000000000000000000000000000008152600401611ab390612fcd565b60405180910390fd5b60008310158015611acf57506103e88311155b611b0e576040517f08c379a0000000000000000000000000000000000000000000000000000000008152600401611b05906130ad565b60405180910390fd5b82600a8190555081600b8190555080600c81905550505050565b600660009054906101000a900473ffffffffffffffffffffffffffffffffffffffff1681565b600083118015611b6357506001805490508311155b611ba2576040517f08c379a0000000000000000000000000000000000000000000000000000000008152600401611b999061302d565b60405180910390fd5b600360008273ffffffffffffffffffffffffffffffffffffffff1673ffffffffffffffffffffffffffffffffffffffff16815260200190815260200160002060009054906101000a900460ff16611c2e576040517f08c379a0000000000000000000000000000000000000000000000000000000008152600401611c2590612fed565b60405180910390fd5b600060018085611c3e91906133df565b81548110611c75577f4e487b7100000000000000000000000000000000000000000000000000000000600052603260045260246000fd5b90600052602060002090600b020190506000806000806000806001811115611cc6577f4e487b7100000000000000000000000000000000000000000000000000000000600052602160045260246000fd5b8660030160009054906101000a900460ff166001811115611d10577f4e487b7100000000000000000000000000000000000000000000000000000000600052602160045260246000fd5b14611d50576040517f08c379a0000000000000000000000000000000000000000000000000000000008152600401611d479061306d565b60405180910390fd5b60008660080190506000889050600088600a01548360000154611d7391906133df565b905060008b118015611d855750808b11155b611dc4576040517f08c379a0000000000000000000000000000000000000000000000000000000008152600401611dbb9061300d565b60405180910390fd5b6103e8600a54029750620f42408b890281611e08577f4e487b7100000000000000000000000000000000000000000000000000000000600052601260045260246000fd5b0496506103e8600b54880281611e47577f4e487b7100000000000000000000000000000000000000000000000000000000600052601260045260246000fd5b0495508587039450868b0393508173ffffffffffffffffffffffffffffffffffffffff166323b872dd33308e6040518463ffffffff1660e01b8152600401611e9193929190612eb3565b602060405180830381600087803b158015611eab57600080fd5b505af1158015611ebf573d6000803e3d6000fd5b505050506040513d601f19601f82011682018060405250810190611ee391906126eb565b611f22576040517f08c379a0000000000000000000000000000000000000000000000000000000008152600401611f1990612f8d565b60405180910390fd5b8173ffffffffffffffffffffffffffffffffffffffff1663a9059cbb600860009054906101000a900473ffffffffffffffffffffffffffffffffffffffff16886040518363ffffffff1660e01b8152600401611f7f929190612eea565b602060405180830381600087803b158015611f9957600080fd5b505af1158015611fad573d6000803e3d6000fd5b505050506040513d601f19601f82011682018060405250810190611fd191906126eb565b508173ffffffffffffffffffffffffffffffffffffffff1663a9059cbb600960009054906101000a900473ffffffffffffffffffffffffffffffffffffffff16876040518363ffffffff1660e01b815260040161202f929190612eea565b602060405180830381600087803b15801561204957600080fd5b505af115801561205d573d6000803e3d6000fd5b505050506040513d601f19601f8201168201806040525081019061208191906126eb565b508173ffffffffffffffffffffffffffffffffffffffff1663095ea7b3600660009054906101000a900473ffffffffffffffffffffffffffffffffffffffff16866040518363ffffffff1660e01b81526004016120df929190612eea565b602060405180830381600087803b1580156120f957600080fd5b505af115801561210d573d6000803e3d6000fd5b505050506040513d601f19601f8201168201806040525081019061213191906126eb565b50600660009054906101000a900473ffffffffffffffffffffffffffffffffffffffff1673ffffffffffffffffffffffffffffffffffffffff16632e2d298485848c60040160009054906101000a900473ffffffffffffffffffffffffffffffffffffffff166040518463ffffffff1660e01b81526004016121b593929190613133565b600060405180830381600087803b1580156121cf57600080fd5b505af11580156121e3573d6000803e3d6000fd5b505050508a89600a0160008282546121fb9190613389565b92505081905550826000015489600a0154106122655760018960030160006101000a81548160ff0219169083600181111561225f577f4e487b7100000000000000000000000000000000000000000000000000000000600052602160045260246000fd5b02179055505b8860040160009054906101000a900473ffffffffffffffffffffffffffffffffffffffff1673ffffffffffffffffffffffffffffffffffffffff163373ffffffffffffffffffffffffffffffffffffffff167f1f004c54eef332ef6912dae8f1775c102da23bec79ccf602eaaa072938e96b678e8e6040516122e8929190613206565b60405180910390a3505050505050505050505050565b60405180610140016040528060008152602001606081526020016060815260200160006001811115612359577f4e487b7100000000000000000000000000000000000000000000000000000000600052602160045260246000fd5b8152602001600073ffffffffffffffffffffffffffffffffffffffff168152602001600073ffffffffffffffffffffffffffffffffffffffff168152602001606081526020016123a76124a7565b81526020016123b46124a7565b8152602001600081525090565b8280546123cd906134e6565b90600052602060002090601f0160209004810192826123ef5760008555612436565b82601f1061240857805160ff1916838001178555612436565b82800160010185558215612436579182015b8281111561243557825182559160200191906001019061241a565b5b50905061244391906124d7565b5090565b828054828255906000526020600020908101928215612496579160200282015b828111156124955782518290805190602001906124859291906123c1565b5091602001919060010190612467565b5b5090506124a391906124f4565b5090565b604051806040016040528060008152602001600073ffffffffffffffffffffffffffffffffffffffff1681525090565b5b808211156124f05760008160009055506001016124d8565b5090565b5b80821115612514576000818161250b9190612518565b506001016124f5565b5090565b508054612524906134e6565b6000825580601f106125365750612555565b601f01602090049060005260206000209081019061255491906124d7565b5b50565b600061256b61256684613254565b61322f565b9050808382526020820190508260005b858110156125ab57813585016125918882612647565b84526020840193506020830192505060018101905061257b565b5050509392505050565b60006125c86125c384613280565b61322f565b9050828152602081018484840111156125e057600080fd5b6125eb8482856134a4565b509392505050565b600081359050612602816138a5565b92915050565b600082601f83011261261957600080fd5b8135612629848260208601612558565b91505092915050565b600081519050612641816138bc565b92915050565b600082601f83011261265857600080fd5b81356126688482602086016125b5565b91505092915050565b600081359050612680816138d3565b92915050565b60006020828403121561269857600080fd5b60006126a6848285016125f3565b91505092915050565b600080604083850312156126c257600080fd5b60006126d0858286016125f3565b92505060206126e185828601612671565b9150509250929050565b6000602082840312156126fd57600080fd5b600061270b84828501612632565b91505092915050565b600080600080600060a0868803121561272c57600080fd5b600086013567ffffffffffffffff81111561274657600080fd5b61275288828901612647565b955050602086013567ffffffffffffffff81111561276f57600080fd5b61277b88828901612647565b945050604061278c888289016125f3565b935050606086013567ffffffffffffffff8111156127a957600080fd5b6127b588828901612608565b92505060806127c688828901612671565b9150509295509295909350565b6000602082840312156127e557600080fd5b60006127f384828501612671565b91505092915050565b60008060006060848603121561281157600080fd5b600061281f86828701612671565b935050602061283086828701612671565b9250506040612841868287016125f3565b9150509250925092565b60008060006060848603121561286057600080fd5b600061286e86828701612671565b935050602061287f86828701612671565b925050604061289086828701612671565b9150509250925092565b60006128a68383612a7c565b905092915050565b60006128ba8383612c4c565b905092915050565b60006128ce8383612e7a565b60208301905092915050565b6128e381613413565b82525050565b6128f281613413565b82525050565b6000612903826132e1565b61290d8185613334565b93508360208202850161291f856132b1565b8060005b8581101561295b578484038952815161293c858261289a565b94506129478361330d565b925060208a01995050600181019050612923565b50829750879550505050505092915050565b6000612978826132ec565b6129828185613345565b935083602082028501612994856132c1565b8060005b858110156129d057848403895281516129b185826128ae565b94506129bc8361331a565b925060208a01995050600181019050612998565b50829750879550505050505092915050565b60006129ed826132f7565b6129f78185613356565b9350612a02836132d1565b8060005b83811015612a33578151612a1a88826128c2565b9750612a2583613327565b925050600181019050612a06565b5085935050505092915050565b612a4981613425565b82525050565b612a588161346e565b82525050565b612a6781613492565b82525050565b612a7681613492565b82525050565b6000612a8782613302565b612a918185613367565b9350612aa18185602086016134b3565b612aaa8161364e565b840191505092915050565b6000612ac082613302565b612aca8185613378565b9350612ada8185602086016134b3565b612ae38161364e565b840191505092915050565b6000612afb602d83613378565b9150612b068261365f565b604082019050919050565b6000612b1e601883613378565b9150612b29826136ae565b602082019050919050565b6000612b41602583613378565b9150612b4c826136d7565b604082019050919050565b6000612b64601583613378565b9150612b6f82613726565b602082019050919050565b6000612b87601683613378565b9150612b928261374f565b602082019050919050565b6000612baa601483613378565b9150612bb582613778565b602082019050919050565b6000612bcd602383613378565b9150612bd8826137a1565b604082019050919050565b6000612bf0601783613378565b9150612bfb826137f0565b602082019050919050565b6000612c13602883613378565b9150612c1e82613819565b604082019050919050565b6000612c36601683613378565b9150612c4182613868565b602082019050919050565b600061018083016000830151612c656000860182612e7a565b5060208301518482036020860152612c7d8282612a7c565b91505060408301518482036040860152612c978282612a7c565b9150506060830151612cac6060860182612a5e565b506080830151612cbf60808601826128da565b5060a0830151612cd260a08601826128da565b5060c083015184820360c0860152612cea82826128f8565b91505060e0830151612cff60e0860182612e1c565b50610100830151612d14610120860182612e1c565b50610120830151612d29610160860182612e7a565b508091505092915050565b600061018083016000830151612d4d6000860182612e7a565b5060208301518482036020860152612d658282612a7c565b91505060408301518482036040860152612d7f8282612a7c565b9150506060830151612d946060860182612a5e565b506080830151612da760808601826128da565b5060a0830151612dba60a08601826128da565b5060c083015184820360c0860152612dd282826128f8565b91505060e0830151612de760e0860182612e1c565b50610100830151612dfc610120860182612e1c565b50610120830151612e11610160860182612e7a565b508091505092915050565b604082016000820151612e326000850182612e7a565b506020820151612e4560208501826128da565b50505050565b604082016000820151612e616000850182612e7a565b506020820151612e7460208501826128da565b50505050565b612e8381613464565b82525050565b612e9281613464565b82525050565b6000602082019050612ead60008301846128e9565b92915050565b6000606082019050612ec860008301866128e9565b612ed560208301856128e9565b612ee26040830184612e89565b949350505050565b6000604082019050612eff60008301856128e9565b612f0c6020830184612e89565b9392505050565b60006020820190508181036000830152612f2d818461296d565b905092915050565b60006020820190508181036000830152612f4f81846129e2565b905092915050565b6000602082019050612f6c6000830184612a40565b92915050565b6000602082019050612f876000830184612a4f565b92915050565b60006020820190508181036000830152612fa681612aee565b9050919050565b60006020820190508181036000830152612fc681612b11565b9050919050565b60006020820190508181036000830152612fe681612b34565b9050919050565b6000602082019050818103600083015261300681612b57565b9050919050565b6000602082019050818103600083015261302681612b7a565b9050919050565b6000602082019050818103600083015261304681612b9d565b9050919050565b6000602082019050818103600083015261306681612bc0565b9050919050565b6000602082019050818103600083015261308681612be3565b9050919050565b600060208201905081810360008301526130a681612c06565b9050919050565b600060208201905081810360008301526130c681612c29565b9050919050565b600060208201905081810360008301526130e78184612d34565b905092915050565b60006020820190506131046000830184612e89565b92915050565b600060408201905061311f6000830185612e89565b61312c60208301846128e9565b9392505050565b60006060820190506131486000830186612e89565b61315560208301856128e9565b61316260408301846128e9565b949350505050565b600061016082019050613180600083018c612e89565b8181036020830152613192818b612ab5565b905081810360408301526131a6818a612ab5565b90506131b56060830189612a6d565b6131c260808301886128e9565b6131cf60a08301876128e9565b6131dc60c0830186612e4b565b6131ea610100830185612e4b565b6131f8610140830184612e89565b9a9950505050505050505050565b600060408201905061321b6000830185612e89565b6132286020830184612e89565b9392505050565b600061323961324a565b90506132458282613518565b919050565b6000604051905090565b600067ffffffffffffffff82111561326f5761326e61361f565b5b602082029050602081019050919050565b600067ffffffffffffffff82111561329b5761329a61361f565b5b6132a48261364e565b9050602081019050919050565b6000819050602082019050919050565b6000819050602082019050919050565b6000819050602082019050919050565b600081519050919050565b600081519050919050565b600081519050919050565b600081519050919050565b6000602082019050919050565b6000602082019050919050565b6000602082019050919050565b600082825260208201905092915050565b600082825260208201905092915050565b600082825260208201905092915050565b600082825260208201905092915050565b600082825260208201905092915050565b600061339482613464565b915061339f83613464565b9250827fffffffffffffffffffffffffffffffffffffffffffffffffffffffffffffffff038211156133d4576133d3613592565b5b828201905092915050565b60006133ea82613464565b91506133f583613464565b92508282101561340857613407613592565b5b828203905092915050565b600061341e82613444565b9050919050565b60008115159050919050565b600081905061343f82613891565b919050565b600073ffffffffffffffffffffffffffffffffffffffff82169050919050565b6000819050919050565b600061347982613480565b9050919050565b600061348b82613444565b9050919050565b600061349d82613431565b9050919050565b82818337600083830152505050565b60005b838110156134d15780820151818401526020810190506134b6565b838111156134e0576000848401525b50505050565b600060028204905060018216806134fe57607f821691505b60208210811415613512576135116135f0565b5b50919050565b6135218261364e565b810181811067ffffffffffffffff821117156135405761353f61361f565b5b80604052505050565b600061355482613464565b91507fffffffffffffffffffffffffffffffffffffffffffffffffffffffffffffffff82141561358757613586613592565b5b600182019050919050565b7f4e487b7100000000000000000000000000000000000000000000000000000000600052601160045260246000fd5b7f4e487b7100000000000000000000000000000000000000000000000000000000600052602160045260246000fd5b7f4e487b7100000000000000000000000000000000000000000000000000000000600052602260045260246000fd5b7f4e487b7100000000000000000000000000000000000000000000000000000000600052604160045260246000fd5b6000601f19601f8301169050919050565b7f55736572206d75737420617070726f76652074686520616d6f756e74206f662060008201527f7468652061677265656d656e7400000000000000000000000000000000000000602082015250565b7f536b696c6c73206d757374206e6f7420626520656d7074790000000000000000600082015250565b7f4f6e6c7920746865206f776e65722063616e2063616c6c20746869732066756e60008201527f6374696f6e000000000000000000000000000000000000000000000000000000602082015250565b7f496e76616c6964207061796d656e7420746f6b656e0000000000000000000000600082015250565b7f496e76616c6964207061796d656e7420616d6f756e7400000000000000000000600082015250565b7f496e76616c69642061677265656d656e74204944000000000000000000000000600082015250565b7f50726f66657373696f6e616c20616464726573732063616e6e6f74206265207a60008201527f65726f0000000000000000000000000000000000000000000000000000000000602082015250565b7f41677265656d656e74206973206e6f7420616374697665000000000000000000600082015250565b7f5061796d656e7420616d6f756e74206d7573742062652067726561746572207460008201527f68616e207a65726f000000000000000000000000000000000000000000000000602082015250565b7f496e76616c6964206665652070657263656e7461676500000000000000000000600082015250565b600281106138a2576138a16135c1565b5b50565b6138ae81613413565b81146138b957600080fd5b50565b6138c581613425565b81146138d057600080fd5b50565b6138dc81613464565b81146138e757600080fd5b5056fea264697066735822122056d5a8ee86aae64dde5a120da88a246d17bcd00bd26dc10ac50dd3c03923084d64736f6c63430008010033",
  "linkReferences": {},
  "deployedLinkReferences": {}
}