{
  "_format": "hh-sol-artifact-1",
  "contractName": "StableVault",
  "sourceName": "contracts/StableVault.sol",
  "abi": [
    {
      "inputs": [
        {
          "internalType": "address",
          "name": "admin",
          "type": "address"
        },
        {
          "internalType": "string",
          "name": "tokenName",
          "type": "string"
        },
        {
          "internalType": "string",
          "name": "tokenSymbol",
          "type": "string"
        }
      ],
      "stateMutability": "nonpayable",
      "type": "constructor"
    },
    {
      "anonymous": false,
      "inputs": [
        {
          "indexed": true,
          "internalType": "address",
          "name": "owner",
          "type": "address"
        },
        {
          "indexed": true,
          "internalType": "address",
          "name": "spender",
          "type": "address"
        },
        {
          "indexed": false,
          "internalType": "uint256",
          "name": "value",
          "type": "uint256"
        }
      ],
      "name": "Approval",
      "type": "event"
    },
    {
      "anonymous": false,
      "inputs": [
        {
          "indexed": false,
          "internalType": "uint256",
          "name": "_vaultBalance",
          "type": "uint256"
        }
      ],
      "name": "BalanceUpdated",
      "type": "event"
    },
    {
      "anonymous": false,
      "inputs": [
        {
          "indexed": true,
          "internalType": "address",
          "name": "user",
          "type": "address"
        },
        {
          "indexed": false,
          "internalType": "address",
          "name": "asset",
          "type": "address"
        },
        {
          "indexed": false,
          "internalType": "uint256",
          "name": "amount",
          "type": "uint256"
        }
      ],
      "name": "DepositSpark",
      "type": "event"
    },
    {
      "anonymous": false,
      "inputs": [
        {
          "indexed": true,
          "internalType": "address",
          "name": "new_admin",
          "type": "address"
        }
      ],
      "name": "NewAdminAdded",
      "type": "event"
    },
    {
      "anonymous": false,
      "inputs": [
        {
          "indexed": true,
          "internalType": "address",
          "name": "profile",
          "type": "address"
        }
      ],
      "name": "NewProfileAdded",
      "type": "event"
    },
    {
      "anonymous": false,
      "inputs": [
        {
          "indexed": false,
          "internalType": "address",
          "name": "account",
          "type": "address"
        }
      ],
      "name": "Paused",
      "type": "event"
    },
    {
      "anonymous": false,
      "inputs": [
        {
          "indexed": true,
          "internalType": "address",
          "name": "removed_admin",
          "type": "address"
        }
      ],
      "name": "RemovedAdmin",
      "type": "event"
    },
    {
      "anonymous": false,
      "inputs": [
        {
          "indexed": true,
          "internalType": "bytes32",
          "name": "role",
          "type": "bytes32"
        },
        {
          "indexed": true,
          "internalType": "bytes32",
          "name": "previousAdminRole",
          "type": "bytes32"
        },
        {
          "indexed": true,
          "internalType": "bytes32",
          "name": "newAdminRole",
          "type": "bytes32"
        }
      ],
      "name": "RoleAdminChanged",
      "type": "event"
    },
    {
      "anonymous": false,
      "inputs": [
        {
          "indexed": true,
          "internalType": "bytes32",
          "name": "role",
          "type": "bytes32"
        },
        {
          "indexed": true,
          "internalType": "address",
          "name": "account",
          "type": "address"
        },
        {
          "indexed": true,
          "internalType": "address",
          "name": "sender",
          "type": "address"
        }
      ],
      "name": "RoleGranted",
      "type": "event"
    },
    {
      "anonymous": false,
      "inputs": [
        {
          "indexed": true,
          "internalType": "bytes32",
          "name": "role",
          "type": "bytes32"
        },
        {
          "indexed": true,
          "internalType": "address",
          "name": "account",
          "type": "address"
        },
        {
          "indexed": true,
          "internalType": "address",
          "name": "sender",
          "type": "address"
        }
      ],
      "name": "RoleRevoked",
      "type": "event"
    },
    {
      "anonymous": false,
      "inputs": [
        {
          "indexed": true,
          "internalType": "address",
          "name": "from",
          "type": "address"
        },
        {
          "indexed": true,
          "internalType": "address",
          "name": "to",
          "type": "address"
        },
        {
          "indexed": false,
          "internalType": "uint256",
          "name": "value",
          "type": "uint256"
        }
      ],
      "name": "Transfer",
      "type": "event"
    },
    {
      "anonymous": false,
      "inputs": [
        {
          "indexed": false,
          "internalType": "address",
          "name": "account",
          "type": "address"
        }
      ],
      "name": "Unpaused",
      "type": "event"
    },
    {
      "anonymous": false,
      "inputs": [
        {
          "indexed": true,
          "internalType": "address",
          "name": "user",
          "type": "address"
        },
        {
          "indexed": false,
          "internalType": "uint256",
          "name": "amount",
          "type": "uint256"
        },
        {
          "indexed": true,
          "internalType": "address",
          "name": "asset",
          "type": "address"
        }
      ],
      "name": "Withdrawal",
      "type": "event"
    },
    {
      "inputs": [],
      "name": "CHANGE_PARAMETERS",
      "outputs": [
        {
          "internalType": "bytes32",
          "name": "",
          "type": "bytes32"
        }
      ],
      "stateMutability": "view",
      "type": "function"
    },
    {
      "inputs": [],
      "name": "DEFAULT_ADMIN_ROLE",
      "outputs": [
        {
          "internalType": "bytes32",
          "name": "",
          "type": "bytes32"
        }
      ],
      "stateMutability": "view",
      "type": "function"
    },
    {
      "inputs": [
        {
          "internalType": "address",
          "name": "account",
          "type": "address"
        }
      ],
      "name": "addAdmin",
      "outputs": [],
      "stateMutability": "nonpayable",
      "type": "function"
    },
    {
      "inputs": [
        {
          "internalType": "address",
          "name": "account",
          "type": "address"
        }
      ],
      "name": "addProfile",
      "outputs": [],
      "stateMutability": "nonpayable",
      "type": "function"
    },
    {
      "inputs": [
        {
          "internalType": "address",
          "name": "owner",
          "type": "address"
        },
        {
          "internalType": "address",
          "name": "spender",
          "type": "address"
        }
      ],
      "name": "allowance",
      "outputs": [
        {
          "internalType": "uint256",
          "name": "",
          "type": "uint256"
        }
      ],
      "stateMutability": "view",
      "type": "function"
    },
    {
      "inputs": [
        {
          "internalType": "address",
          "name": "spender",
          "type": "address"
        },
        {
          "internalType": "uint256",
          "name": "amount",
          "type": "uint256"
        }
      ],
      "name": "approve",
      "outputs": [
        {
          "internalType": "bool",
          "name": "",
          "type": "bool"
        }
      ],
      "stateMutability": "nonpayable",
      "type": "function"
    },
    {
      "inputs": [
        {
          "internalType": "address",
          "name": "account",
          "type": "address"
        }
      ],
      "name": "balanceOf",
      "outputs": [
        {
          "internalType": "uint256",
          "name": "",
          "type": "uint256"
        }
      ],
      "stateMutability": "view",
      "type": "function"
    },
    {
      "inputs": [],
      "name": "decimals",
      "outputs": [
        {
          "internalType": "uint8",
          "name": "",
          "type": "uint8"
        }
      ],
      "stateMutability": "view",
      "type": "function"
    },
    {
      "inputs": [
        {
          "internalType": "address",
          "name": "spender",
          "type": "address"
        },
        {
          "internalType": "uint256",
          "name": "subtractedValue",
          "type": "uint256"
        }
      ],
      "name": "decreaseAllowance",
      "outputs": [
        {
          "internalType": "bool",
          "name": "",
          "type": "bool"
        }
      ],
      "stateMutability": "nonpayable",
      "type": "function"
    },
    {
      "inputs": [
        {
          "internalType": "uint256",
          "name": "amount",
          "type": "uint256"
        },
        {
          "internalType": "address",
          "name": "_asset",
          "type": "address"
        },
        {
          "internalType": "address",
          "name": "_beneficiary",
          "type": "address"
        }
      ],
      "name": "deposit",
      "outputs": [
        {
          "internalType": "bool",
          "name": "",
          "type": "bool"
        }
      ],
      "stateMutability": "nonpayable",
      "type": "function"
    },
    {
      "inputs": [],
      "name": "getChainID",
      "outputs": [
        {
          "internalType": "uint256",
          "name": "",
          "type": "uint256"
        }
      ],
      "stateMutability": "view",
      "type": "function"
    },
    {
      "inputs": [
        {
          "internalType": "bytes32",
          "name": "role",
          "type": "bytes32"
        }
      ],
      "name": "getRoleAdmin",
      "outputs": [
        {
          "internalType": "bytes32",
          "name": "",
          "type": "bytes32"
        }
      ],
      "stateMutability": "view",
      "type": "function"
    },
    {
      "inputs": [
        {
          "internalType": "address",
          "name": "_asset",
          "type": "address"
        }
      ],
      "name": "getSparkBalance",
      "outputs": [
        {
          "internalType": "uint256",
          "name": "",
          "type": "uint256"
        }
      ],
      "stateMutability": "view",
      "type": "function"
    },
    {
      "inputs": [
        {
          "internalType": "bytes32",
          "name": "role",
          "type": "bytes32"
        },
        {
          "internalType": "address",
          "name": "account",
          "type": "address"
        }
      ],
      "name": "grantRole",
      "outputs": [],
      "stateMutability": "nonpayable",
      "type": "function"
    },
    {
      "inputs": [
        {
          "internalType": "bytes32",
          "name": "role",
          "type": "bytes32"
        },
        {
          "internalType": "address",
          "name": "account",
          "type": "address"
        }
      ],
      "name": "hasRole",
      "outputs": [
        {
          "internalType": "bool",
          "name": "",
          "type": "bool"
        }
      ],
      "stateMutability": "view",
      "type": "function"
    },
    {
      "inputs": [
        {
          "internalType": "address",
          "name": "spender",
          "type": "address"
        },
        {
          "internalType": "uint256",
          "name": "addedValue",
          "type": "uint256"
        }
      ],
      "name": "increaseAllowance",
      "outputs": [
        {
          "internalType": "bool",
          "name": "",
          "type": "bool"
        }
      ],
      "stateMutability": "nonpayable",
      "type": "function"
    },
    {
      "inputs": [
        {
          "internalType": "string",
          "name": "functionName",
          "type": "string"
        }
      ],
      "name": "isValidNetworkForFunction",
      "outputs": [
        {
          "internalType": "bool",
          "name": "",
          "type": "bool"
        }
      ],
      "stateMutability": "view",
      "type": "function"
    },
    {
      "inputs": [],
      "name": "name",
      "outputs": [
        {
          "internalType": "string",
          "name": "",
          "type": "string"
        }
      ],
      "stateMutability": "view",
      "type": "function"
    },
    {
      "inputs": [],
      "name": "pause",
      "outputs": [],
      "stateMutability": "nonpayable",
      "type": "function"
    },
    {
      "inputs": [],
      "name": "paused",
      "outputs": [
        {
          "internalType": "bool",
          "name": "",
          "type": "bool"
        }
      ],
      "stateMutability": "view",
      "type": "function"
    },
    {
      "inputs": [
        {
          "internalType": "address",
          "name": "account",
          "type": "address"
        }
      ],
      "name": "removeAdmin",
      "outputs": [],
      "stateMutability": "nonpayable",
      "type": "function"
    },
    {
      "inputs": [
        {
          "internalType": "bytes32",
          "name": "role",
          "type": "bytes32"
        },
        {
          "internalType": "address",
          "name": "account",
          "type": "address"
        }
      ],
      "name": "renounceRole",
      "outputs": [],
      "stateMutability": "nonpayable",
      "type": "function"
    },
    {
      "inputs": [
        {
          "internalType": "bytes32",
          "name": "role",
          "type": "bytes32"
        },
        {
          "internalType": "address",
          "name": "account",
          "type": "address"
        }
      ],
      "name": "revokeRole",
      "outputs": [],
      "stateMutability": "nonpayable",
      "type": "function"
    },
    {
      "inputs": [
        {
          "internalType": "address",
          "name": "_SPARK_DATA_PROVIDER",
          "type": "address"
        },
        {
          "internalType": "address",
          "name": "_SPARK_INCENTIVES_CONTROLLER",
          "type": "address"
        },
        {
          "internalType": "address",
          "name": "_SPARK_LENDING_POOL",
          "type": "address"
        }
      ],
      "name": "setSparkSettings",
      "outputs": [],
      "stateMutability": "nonpayable",
      "type": "function"
    },
    {
      "inputs": [
        {
          "internalType": "bool",
          "name": "useCompound",
          "type": "bool"
        }
      ],
      "name": "setUserCompoundPreference",
      "outputs": [],
      "stateMutability": "nonpayable",
      "type": "function"
    },
    {
      "inputs": [
        {
          "internalType": "bytes4",
          "name": "interfaceId",
          "type": "bytes4"
        }
      ],
      "name": "supportsInterface",
      "outputs": [
        {
          "internalType": "bool",
          "name": "",
          "type": "bool"
        }
      ],
      "stateMutability": "view",
      "type": "function"
    },
    {
      "inputs": [],
      "name": "symbol",
      "outputs": [
        {
          "internalType": "string",
          "name": "",
          "type": "string"
        }
      ],
      "stateMutability": "view",
      "type": "function"
    },
    {
      "inputs": [],
      "name": "totalSupply",
      "outputs": [
        {
          "internalType": "uint256",
          "name": "",
          "type": "uint256"
        }
      ],
      "stateMutability": "view",
      "type": "function"
    },
    {
      "inputs": [
        {
          "internalType": "address",
          "name": "to",
          "type": "address"
        },
        {
          "internalType": "uint256",
          "name": "amount",
          "type": "uint256"
        }
      ],
      "name": "transfer",
      "outputs": [
        {
          "internalType": "bool",
          "name": "",
          "type": "bool"
        }
      ],
      "stateMutability": "nonpayable",
      "type": "function"
    },
    {
      "inputs": [
        {
          "internalType": "address",
          "name": "from",
          "type": "address"
        },
        {
          "internalType": "address",
          "name": "to",
          "type": "address"
        },
        {
          "internalType": "uint256",
          "name": "amount",
          "type": "uint256"
        }
      ],
      "name": "transferFrom",
      "outputs": [
        {
          "internalType": "bool",
          "name": "",
          "type": "bool"
        }
      ],
      "stateMutability": "nonpayable",
      "type": "function"
    },
    {
      "inputs": [],
      "name": "unpause",
      "outputs": [],
      "stateMutability": "nonpayable",
      "type": "function"
    },
    {
      "inputs": [
        {
          "internalType": "string",
          "name": "functionName",
          "type": "string"
        },
        {
          "internalType": "uint256[]",
          "name": "chainIDs",
          "type": "uint256[]"
        }
      ],
      "name": "updateValidNetworks",
      "outputs": [],
      "stateMutability": "nonpayable",
      "type": "function"
    },
    {
      "inputs": [
        {
          "internalType": "address",
          "name": "",
          "type": "address"
        }
      ],
      "name": "userSetCompound",
      "outputs": [
        {
          "internalType": "bool",
          "name": "",
          "type": "bool"
        }
      ],
      "stateMutability": "view",
      "type": "function"
    },
    {
      "inputs": [
        {
          "internalType": "string",
          "name": "",
          "type": "string"
        },
        {
          "internalType": "uint256",
          "name": "",
          "type": "uint256"
        }
      ],
      "name": "validNetworks",
      "outputs": [
        {
          "internalType": "bool",
          "name": "",
          "type": "bool"
        }
      ],
      "stateMutability": "view",
      "type": "function"
    },
    {
      "inputs": [],
      "name": "vaultBalance",
      "outputs": [
        {
          "internalType": "uint256",
          "name": "",
          "type": "uint256"
        }
      ],
      "stateMutability": "view",
      "type": "function"
    },
    {
      "inputs": [
        {
          "internalType": "uint256",
          "name": "amount",
          "type": "uint256"
        },
        {
          "internalType": "address",
          "name": "_asset",
          "type": "address"
        }
      ],
      "name": "withdraw",
      "outputs": [
        {
          "internalType": "bool",
          "name": "",
          "type": "bool"
        }
      ],
      "stateMutability": "nonpayable",
      "type": "function"
    }
  ],
  "bytecode": "0x60806040523480156200001157600080fd5b506040516200501c3803806200501c833981810160405281019062000037919062000395565b81818460016000819055506000600260006101000a81548160ff021916908315150217905550620000726000801b82620000e260201b60201c565b620000a47f73fd536265c26e6e13263018bc9d82a9b962a7857ae70dac847fd743f5e7153582620000e260201b60201c565b508160069080519060200190620000bd9291906200025c565b508060079080519060200190620000d69291906200025c565b505050505050620005db565b620000f48282620000f860201b60201c565b5050565b6200010a8282620001e960201b60201c565b620001e557600180600084815260200190815260200160002060000160008373ffffffffffffffffffffffffffffffffffffffff1673ffffffffffffffffffffffffffffffffffffffff16815260200190815260200160002060006101000a81548160ff0219169083151502179055506200018a6200025460201b60201c565b73ffffffffffffffffffffffffffffffffffffffff168173ffffffffffffffffffffffffffffffffffffffff16837f2f8788117e7eff1d82e926ec794901d17c78024a50270940304540a733656f0d60405160405180910390a45b5050565b60006001600084815260200190815260200160002060000160008373ffffffffffffffffffffffffffffffffffffffff1673ffffffffffffffffffffffffffffffffffffffff16815260200190815260200160002060009054906101000a900460ff16905092915050565b600033905090565b8280546200026a90620004e6565b90600052602060002090601f0160209004810192826200028e5760008555620002da565b82601f10620002a957805160ff1916838001178555620002da565b82800160010185558215620002da579182015b82811115620002d9578251825591602001919060010190620002bc565b5b509050620002e99190620002ed565b5090565b5b8082111562000308576000816000905550600101620002ee565b5090565b6000620003236200031d8462000446565b6200041d565b9050828152602081018484840111156200033c57600080fd5b62000349848285620004b0565b509392505050565b6000815190506200036281620005c1565b92915050565b600082601f8301126200037a57600080fd5b81516200038c8482602086016200030c565b91505092915050565b600080600060608486031215620003ab57600080fd5b6000620003bb8682870162000351565b935050602084015167ffffffffffffffff811115620003d957600080fd5b620003e78682870162000368565b925050604084015167ffffffffffffffff8111156200040557600080fd5b620004138682870162000368565b9150509250925092565b6000620004296200043c565b90506200043782826200051c565b919050565b6000604051905090565b600067ffffffffffffffff82111562000464576200046362000581565b5b6200046f82620005b0565b9050602081019050919050565b6000620004898262000490565b9050919050565b600073ffffffffffffffffffffffffffffffffffffffff82169050919050565b60005b83811015620004d0578082015181840152602081019050620004b3565b83811115620004e0576000848401525b50505050565b60006002820490506001821680620004ff57607f821691505b6020821081141562000516576200051562000552565b5b50919050565b6200052782620005b0565b810181811067ffffffffffffffff8211171562000549576200054862000581565b5b80604052505050565b7f4e487b7100000000000000000000000000000000000000000000000000000000600052602260045260246000fd5b7f4e487b7100000000000000000000000000000000000000000000000000000000600052604160045260246000fd5b6000601f19601f8301169050919050565b620005cc816200047c565b8114620005d857600080fd5b50565b614a3180620005eb6000396000f3fe608060405234801561001057600080fd5b506004361061021b5760003560e01c80633f4ba83a1161012557806395d89b41116100ad578063a9059cbb1161007c578063a9059cbb1461068a578063aa303094146106ba578063d547741f146106d6578063dd62ed3e146106f2578063fd1a9166146107225761021b565b806395d89b41146105ee578063a217fddf1461060c578063a457c2d71461062a578063a806c4571461065a5761021b565b806370480275116100f4578063704802751461053857806370a08231146105545780638456cb59146105845780638ac466481461058e57806391d14854146105be5761021b565b80633f4ba83a146104d45780634f7cd72f146104de578063564b81ef146104fc5780635c975abb1461051a5761021b565b806318160ddd116101a85780632e2d2984116101775780632e2d29841461041e5780632f2ff15d1461044e578063313ce5671461046a57806336568abe1461048857806339509351146104a45761021b565b806318160ddd1461037057806323b872dd1461038e578063248a9ca3146103be5780632c05ad27146103ee5761021b565b8063095ea7b3116101ef578063095ea7b3146102ce5780630bf6cc08146102fe57806310143a641461031c57806313423bfb146103385780631785f53c146103545761021b565b8062f714ce1461022057806301ffc9a71461025057806304b70a771461028057806306fdde03146102b0575b600080fd5b61023a60048036038101906102359190613508565b61073e565b6040516102479190613bc8565b60405180910390f35b61026a600480360381019061026591906133b5565b61085e565b6040516102779190613bc8565b60405180910390f35b61029a60048036038101906102959190613170565b6108d8565b6040516102a79190613f50565b60405180910390f35b6102b8610a1e565b6040516102c59190613bfe565b60405180910390f35b6102e860048036038101906102e391906132c2565b610ab0565b6040516102f59190613bc8565b60405180910390f35b610306610ad3565b6040516103139190613f50565b60405180910390f35b61033660048036038101906103319190613170565b610add565b005b610352600480360381019061034d91906131d5565b610b55565b005b61036e60048036038101906103699190613170565b610c69565b005b610378610d10565b6040516103859190613f50565b60405180910390f35b6103a860048036038101906103a39190613273565b610d1a565b6040516103b59190613bc8565b60405180910390f35b6103d860048036038101906103d39190613350565b610d49565b6040516103e59190613be3565b60405180910390f35b610408600480360381019061040391906133de565b610d69565b6040516104159190613bc8565b60405180910390f35b61043860048036038101906104339190613544565b610db6565b6040516104459190613bc8565b60405180910390f35b61046860048036038101906104639190613379565b610f05565b005b610472610f26565b60405161047f9190613f6b565b60405180910390f35b6104a2600480360381019061049d9190613379565b610f2f565b005b6104be60048036038101906104b991906132c2565b610fb2565b6040516104cb9190613bc8565b60405180910390f35b6104dc610fe9565b005b6104e6611047565b6040516104f39190613be3565b60405180910390f35b61050461106b565b6040516105119190613f50565b60405180910390f35b610522611078565b60405161052f9190613bc8565b60405180910390f35b610552600480360381019061054d9190613170565b61108f565b005b61056e60048036038101906105699190613170565b611136565b60405161057b9190613f50565b60405180910390f35b61058c61117f565b005b6105a860048036038101906105a3919061348b565b6111dd565b6040516105b59190613bc8565b60405180910390f35b6105d860048036038101906105d39190613379565b611222565b6040516105e59190613bc8565b60405180910390f35b6105f661128d565b6040516106039190613bfe565b60405180910390f35b61061461131f565b6040516106219190613be3565b60405180910390f35b610644600480360381019061063f91906132c2565b611326565b6040516106519190613bc8565b60405180910390f35b610674600480360381019061066f9190613170565b61139d565b6040516106819190613bc8565b60405180910390f35b6106a4600480360381019061069f91906132c2565b6113bd565b6040516106b19190613bc8565b60405180910390f35b6106d460048036038101906106cf91906132fe565b6113e0565b005b6106f060048036038101906106eb9190613379565b6114a3565b005b61070c60048036038101906107079190613199565b6114c4565b6040516107199190613f50565b60405180910390f35b61073c6004803603810190610737919061341f565b61154b565b005b600061074861165f565b6107506116af565b600061075c84846116f9565b90508061076833611136565b10156107a9576040517f08c379a00000000000000000000000000000000000000000000000000000000081526004016107a090613d50565b60405180910390fd5b6107b333826117eb565b6107de33858573ffffffffffffffffffffffffffffffffffffffff166119bb9092919063ffffffff16565b6107e781611a41565b8273ffffffffffffffffffffffffffffffffffffffff163373ffffffffffffffffffffffffffffffffffffffff167e1a143d5b175701cb3246058ffac3d63945192075a926ff73a19930f09d587a836040516108439190613f50565b60405180910390a36001915050610858611ad0565b92915050565b60007f7965db0b000000000000000000000000000000000000000000000000000000007bffffffffffffffffffffffffffffffffffffffffffffffffffffffff1916827bffffffffffffffffffffffffffffffffffffffffffffffffffffffff191614806108d157506108d082611ada565b5b9050919050565b600080600d60009054906101000a900473ffffffffffffffffffffffffffffffffffffffff1673ffffffffffffffffffffffffffffffffffffffff1663d2493b6c846040518263ffffffff1660e01b81526004016109369190613adf565b60606040518083038186803b15801561094e57600080fd5b505afa158015610962573d6000803e3d6000fd5b505050506040513d601f19601f820116820180604052508101906109869190613224565b905050809150508073ffffffffffffffffffffffffffffffffffffffff166370a08231306040518263ffffffff1660e01b81526004016109c69190613adf565b60206040518083038186803b1580156109de57600080fd5b505afa1580156109f2573d6000803e3d6000fd5b505050506040513d601f19601f82011682018060405250810190610a1691906134df565b915050919050565b606060068054610a2d9061420c565b80601f0160208091040260200160405190810160405280929190818152602001828054610a599061420c565b8015610aa65780601f10610a7b57610100808354040283529160200191610aa6565b820191906000526020600020905b815481529060010190602001808311610a8957829003601f168201915b5050505050905090565b600080610abb611b44565b9050610ac8818585611b4c565b600191505092915050565b6000600854905090565b610ae56116af565b610b0f7f73fd536265c26e6e13263018bc9d82a9b962a7857ae70dac847fd743f5e7153582611d17565b8073ffffffffffffffffffffffffffffffffffffffff167f92364d7c14d8a26a040c77305dd885fcd5898051d1b1ead4189b09d5f091159060405160405180910390a250565b610b626000801b33611222565b610ba1576040517f08c379a0000000000000000000000000000000000000000000000000000000008152600401610b9890613e10565b60405180910390fd5b82600d60006101000a81548173ffffffffffffffffffffffffffffffffffffffff021916908373ffffffffffffffffffffffffffffffffffffffff16021790555081600c60006101000a81548173ffffffffffffffffffffffffffffffffffffffff021916908373ffffffffffffffffffffffffffffffffffffffff16021790555080600b60006101000a81548173ffffffffffffffffffffffffffffffffffffffff021916908373ffffffffffffffffffffffffffffffffffffffff160217905550505050565b610c766000801b33611222565b610cb5576040517f08c379a0000000000000000000000000000000000000000000000000000000008152600401610cac90613e10565b60405180910390fd5b610cbd6116af565b610cca6000801b82611d25565b8073ffffffffffffffffffffffffffffffffffffffff167f3137a7fedbfedb7895dfa5a6812a4566dae9ded68d00aeec13c6ed1fa84a1c8060405160405180910390a250565b6000600554905090565b600080610d25611b44565b9050610d32858285611e07565b610d3d858585611e93565b60019150509392505050565b600060016000838152602001908152602001600020600101549050919050565b6000600a82604051610d7b9190613a79565b90815260200160405180910390206000610d9361106b565b815260200190815260200160002060009054906101000a900460ff169050919050565b6000610dc061165f565b610dc86116af565b6000610dd485856116f9565b9050610e156040518060400160405280601081526020017f4465706f73697420616d6f756e743a20000000000000000000000000000000008152508661210e565b610e546040518060400160405280601981526020017f4465706f73697420636f72726563746564416d6f756e743a20000000000000008152508261210e565b610e813330878773ffffffffffffffffffffffffffffffffffffffff166121aa909392919063ffffffff16565b610e8b8382612233565b610e948161238b565b600960008473ffffffffffffffffffffffffffffffffffffffff1673ffffffffffffffffffffffffffffffffffffffff16815260200190815260200160002060009054906101000a900460ff1615610ef157610ef084866123d5565b5b6001915050610efe611ad0565b9392505050565b610f0e82610d49565b610f1781612593565b610f2183836125a7565b505050565b60006012905090565b610f37611b44565b73ffffffffffffffffffffffffffffffffffffffff168173ffffffffffffffffffffffffffffffffffffffff1614610fa4576040517f08c379a0000000000000000000000000000000000000000000000000000000008152600401610f9b90613f10565b60405180910390fd5b610fae8282611d25565b5050565b600080610fbd611b44565b9050610fde818585610fcf85896114c4565b610fd99190614045565b611b4c565b600191505092915050565b610ff66000801b33611222565b611035576040517f08c379a000000000000000000000000000000000000000000000000000000000815260040161102c90613e10565b60405180910390fd5b61103d612687565b6110456126d0565b565b7f73fd536265c26e6e13263018bc9d82a9b962a7857ae70dac847fd743f5e7153581565b6000804690508091505090565b6000600260009054906101000a900460ff16905090565b61109c6000801b33611222565b6110db576040517f08c379a00000000000000000000000000000000000000000000000000000000081526004016110d290613e10565b60405180910390fd5b6110e36116af565b6110f06000801b82611d17565b8073ffffffffffffffffffffffffffffffffffffffff167f2dbe9fb88463d989acccabbb6ee06901f83672eb78e04a11ff48dd8f69a27cda60405160405180910390a250565b6000600360008373ffffffffffffffffffffffffffffffffffffffff1673ffffffffffffffffffffffffffffffffffffffff168152602001908152602001600020549050919050565b61118c6000801b33611222565b6111cb576040517f08c379a00000000000000000000000000000000000000000000000000000000081526004016111c290613e10565b60405180910390fd5b6111d36116af565b6111db612733565b565b600a828051602081018201805184825260208301602085012081835280955050505050506020528060005260406000206000915091509054906101000a900460ff1681565b60006001600084815260200190815260200160002060000160008373ffffffffffffffffffffffffffffffffffffffff1673ffffffffffffffffffffffffffffffffffffffff16815260200190815260200160002060009054906101000a900460ff16905092915050565b60606007805461129c9061420c565b80601f01602080910402602001604051908101604052809291908181526020018280546112c89061420c565b80156113155780601f106112ea57610100808354040283529160200191611315565b820191906000526020600020905b8154815290600101906020018083116112f857829003601f168201915b5050505050905090565b6000801b81565b600080611331611b44565b9050600061133f82866114c4565b905083811015611384576040517f08c379a000000000000000000000000000000000000000000000000000000000815260040161137b90613ef0565b60405180910390fd5b6113918286868403611b4c565b60019250505092915050565b60096020528060005260406000206000915054906101000a900460ff1681565b6000806113c8611b44565b90506113d5818585611e93565b600191505092915050565b61140a7f73fd536265c26e6e13263018bc9d82a9b962a7857ae70dac847fd743f5e7153533611222565b611449576040517f08c379a000000000000000000000000000000000000000000000000000000000815260040161144090613db0565b60405180910390fd5b80600960003373ffffffffffffffffffffffffffffffffffffffff1673ffffffffffffffffffffffffffffffffffffffff16815260200190815260200160002060006101000a81548160ff02191690831515021790555050565b6114ac82610d49565b6114b581612593565b6114bf8383611d25565b505050565b6000600460008473ffffffffffffffffffffffffffffffffffffffff1673ffffffffffffffffffffffffffffffffffffffff16815260200190815260200160002060008373ffffffffffffffffffffffffffffffffffffffff1673ffffffffffffffffffffffffffffffffffffffff16815260200190815260200160002054905092915050565b60005b60ff8110156115b2576000600a846040516115699190613a79565b9081526020016040518091039020600083815260200190815260200160002060006101000a81548160ff02191690831515021790555080806115aa9061426f565b91505061154e565b5060005b815181101561165a576001600a846040516115d19190613a79565b9081526020016040518091039020600084848151811061161a577f4e487b7100000000000000000000000000000000000000000000000000000000600052603260045260246000fd5b6020026020010151815260200190815260200160002060006101000a81548160ff02191690831515021790555080806116529061426f565b9150506115b6565b505050565b600260005414156116a5576040517f08c379a000000000000000000000000000000000000000000000000000000000815260040161169c90613eb0565b60405180910390fd5b6002600081905550565b6116b7611078565b156116f7576040517f08c379a00000000000000000000000000000000000000000000000000000000081526004016116ee90613d90565b60405180910390fd5b565b6000808273ffffffffffffffffffffffffffffffffffffffff1663313ce5676040518163ffffffff1660e01b815260040160206040518083038186803b15801561174257600080fd5b505afa158015611756573d6000803e3d6000fd5b505050506040513d601f19601f8201168201806040525081019061177a9190613593565b60ff169050601281146117e15760128111156117d45760128103600a0a84816117cc577f4e487b7100000000000000000000000000000000000000000000000000000000600052601260045260246000fd5b0493506117e0565b80601203600a0a840293505b5b8391505092915050565b600073ffffffffffffffffffffffffffffffffffffffff168273ffffffffffffffffffffffffffffffffffffffff16141561185b576040517f08c379a000000000000000000000000000000000000000000000000000000000815260040161185290613dd0565b60405180910390fd5b61186782600083612796565b6000600360008473ffffffffffffffffffffffffffffffffffffffff1673ffffffffffffffffffffffffffffffffffffffff168152602001908152602001600020549050818110156118ee576040517f08c379a00000000000000000000000000000000000000000000000000000000081526004016118e590613cb0565b60405180910390fd5b818103600360008573ffffffffffffffffffffffffffffffffffffffff1673ffffffffffffffffffffffffffffffffffffffff1681526020019081526020016000208190555081600560008282540392505081905550600073ffffffffffffffffffffffffffffffffffffffff168373ffffffffffffffffffffffffffffffffffffffff167fddf252ad1be2c89b69c2b068fc378daa952ba7f163c4a11628f55a4df523b3ef846040516119a29190613f50565b60405180910390a36119b68360008461279b565b505050565b611a3c8363a9059cbb60e01b84846040516024016119da929190613b5a565b604051602081830303815290604052907bffffffffffffffffffffffffffffffffffffffffffffffffffffffff19166020820180517bffffffffffffffffffffffffffffffffffffffffffffffffffffffff83818316178352505050506127a0565b505050565b806008541015611a86576040517f08c379a0000000000000000000000000000000000000000000000000000000008152600401611a7d90613d30565b60405180910390fd5b806008600082825403925050819055507f04be25a4c0fe4c39136ca055daaac08ac6b3041b2e1f2a1b698bac12f1cbdc4a81604051611ac59190613f50565b60405180910390a150565b6001600081905550565b60007f01ffc9a7000000000000000000000000000000000000000000000000000000007bffffffffffffffffffffffffffffffffffffffffffffffffffffffff1916827bffffffffffffffffffffffffffffffffffffffffffffffffffffffff1916149050919050565b600033905090565b600073ffffffffffffffffffffffffffffffffffffffff168373ffffffffffffffffffffffffffffffffffffffff161415611bbc576040517f08c379a0000000000000000000000000000000000000000000000000000000008152600401611bb390613e50565b60405180910390fd5b600073ffffffffffffffffffffffffffffffffffffffff168273ffffffffffffffffffffffffffffffffffffffff161415611c2c576040517f08c379a0000000000000000000000000000000000000000000000000000000008152600401611c2390613cd0565b60405180910390fd5b80600460008573ffffffffffffffffffffffffffffffffffffffff1673ffffffffffffffffffffffffffffffffffffffff16815260200190815260200160002060008473ffffffffffffffffffffffffffffffffffffffff1673ffffffffffffffffffffffffffffffffffffffff168152602001908152602001600020819055508173ffffffffffffffffffffffffffffffffffffffff168373ffffffffffffffffffffffffffffffffffffffff167f8c5be1e5ebec7d5bd14f71427d1e84f3dd0314c0f7b2291e5b200ac8c7c3b92583604051611d0a9190613f50565b60405180910390a3505050565b611d2182826125a7565b5050565b611d2f8282611222565b15611e035760006001600084815260200190815260200160002060000160008373ffffffffffffffffffffffffffffffffffffffff1673ffffffffffffffffffffffffffffffffffffffff16815260200190815260200160002060006101000a81548160ff021916908315150217905550611da8611b44565b73ffffffffffffffffffffffffffffffffffffffff168173ffffffffffffffffffffffffffffffffffffffff16837ff6391f5c32d9c69d2a47ea670b442974b53935d1edc7fd64eb21e047a839171b60405160405180910390a45b5050565b6000611e1384846114c4565b90507fffffffffffffffffffffffffffffffffffffffffffffffffffffffffffffffff8114611e8d5781811015611e7f576040517f08c379a0000000000000000000000000000000000000000000000000000000008152600401611e7690613cf0565b60405180910390fd5b611e8c8484848403611b4c565b5b50505050565b600073ffffffffffffffffffffffffffffffffffffffff168373ffffffffffffffffffffffffffffffffffffffff161415611f03576040517f08c379a0000000000000000000000000000000000000000000000000000000008152600401611efa90613df0565b60405180910390fd5b600073ffffffffffffffffffffffffffffffffffffffff168273ffffffffffffffffffffffffffffffffffffffff161415611f73576040517f08c379a0000000000000000000000000000000000000000000000000000000008152600401611f6a90613c70565b60405180910390fd5b611f7e838383612796565b6000600360008573ffffffffffffffffffffffffffffffffffffffff1673ffffffffffffffffffffffffffffffffffffffff16815260200190815260200160002054905081811015612005576040517f08c379a0000000000000000000000000000000000000000000000000000000008152600401611ffc90613d10565b60405180910390fd5b818103600360008673ffffffffffffffffffffffffffffffffffffffff1673ffffffffffffffffffffffffffffffffffffffff1681526020019081526020016000208190555081600360008573ffffffffffffffffffffffffffffffffffffffff1673ffffffffffffffffffffffffffffffffffffffff168152602001908152602001600020600082825401925050819055508273ffffffffffffffffffffffffffffffffffffffff168473ffffffffffffffffffffffffffffffffffffffff167fddf252ad1be2c89b69c2b068fc378daa952ba7f163c4a11628f55a4df523b3ef846040516120f59190613f50565b60405180910390a361210884848461279b565b50505050565b6121a68282604051602401612124929190613c20565b6040516020818303038152906040527fb60e72cc000000000000000000000000000000000000000000000000000000007bffffffffffffffffffffffffffffffffffffffffffffffffffffffff19166020820180517bffffffffffffffffffffffffffffffffffffffffffffffffffffffff8381831617835250505050612868565b5050565b61222d846323b872dd60e01b8585856040516024016121cb93929190613b23565b604051602081830303815290604052907bffffffffffffffffffffffffffffffffffffffffffffffffffffffff19166020820180517bffffffffffffffffffffffffffffffffffffffffffffffffffffffff83818316178352505050506127a0565b50505050565b600073ffffffffffffffffffffffffffffffffffffffff168273ffffffffffffffffffffffffffffffffffffffff1614156122a3576040517f08c379a000000000000000000000000000000000000000000000000000000000815260040161229a90613f30565b60405180910390fd5b6122af60008383612796565b80600560008282546122c19190614045565b9250508190555080600360008473ffffffffffffffffffffffffffffffffffffffff1673ffffffffffffffffffffffffffffffffffffffff168152602001908152602001600020600082825401925050819055508173ffffffffffffffffffffffffffffffffffffffff16600073ffffffffffffffffffffffffffffffffffffffff167fddf252ad1be2c89b69c2b068fc378daa952ba7f163c4a11628f55a4df523b3ef836040516123739190613f50565b60405180910390a36123876000838361279b565b5050565b806008600082825401925050819055507f04be25a4c0fe4c39136ca055daaac08ac6b3041b2e1f2a1b698bac12f1cbdc4a816040516123ca9190613f50565b60405180910390a150565b6123dd6116af565b600a6040516123eb90613a90565b9081526020016040518091039020600061240361106b565b815260200190815260200160002060009054906101000a900460ff1661245e576040517f08c379a000000000000000000000000000000000000000000000000000000000815260040161245590613e30565b60405180910390fd5b6124ab600b60009054906101000a900473ffffffffffffffffffffffffffffffffffffffff16828473ffffffffffffffffffffffffffffffffffffffff166128829092919063ffffffff16565b600b60009054906101000a900473ffffffffffffffffffffffffffffffffffffffff1673ffffffffffffffffffffffffffffffffffffffff1663e8eda9df83833060006040518563ffffffff1660e01b815260040161250d9493929190613b83565b600060405180830381600087803b15801561252757600080fd5b505af115801561253b573d6000803e3d6000fd5b505050503373ffffffffffffffffffffffffffffffffffffffff167fef7fb1a8620b44e618a68b57e6792e55c95307e44b24023effa85d6aaf142c2e8383604051612587929190613b5a565b60405180910390a25050565b6125a48161259f611b44565b6129e0565b50565b6125b18282611222565b61268357600180600084815260200190815260200160002060000160008373ffffffffffffffffffffffffffffffffffffffff1673ffffffffffffffffffffffffffffffffffffffff16815260200190815260200160002060006101000a81548160ff021916908315150217905550612628611b44565b73ffffffffffffffffffffffffffffffffffffffff168173ffffffffffffffffffffffffffffffffffffffff16837f2f8788117e7eff1d82e926ec794901d17c78024a50270940304540a733656f0d60405160405180910390a45b5050565b61268f611078565b6126ce576040517f08c379a00000000000000000000000000000000000000000000000000000000081526004016126c590613c90565b60405180910390fd5b565b6126d8612687565b6000600260006101000a81548160ff0219169083151502179055507f5db9ee0a495bf2e6ff9c91a7834c1ba4fdd244a5e8aa4e537bd38aeae4b073aa61271c611b44565b6040516127299190613adf565b60405180910390a1565b61273b6116af565b6001600260006101000a81548160ff0219169083151502179055507f62e78cea01bee320cd4e420270b5ea74000d11b0c9f74754ebdbfc544b05a25861277f611b44565b60405161278c9190613adf565b60405180910390a1565b505050565b505050565b6000612802826040518060400160405280602081526020017f5361666545524332303a206c6f772d6c6576656c2063616c6c206661696c65648152508573ffffffffffffffffffffffffffffffffffffffff16612a659092919063ffffffff16565b90506000815114806128245750808060200190518101906128239190613327565b5b612863576040517f08c379a000000000000000000000000000000000000000000000000000000000815260040161285a90613e90565b60405180910390fd5b505050565b61287f81612877612a7d612a9e565b63ffffffff16565b50565b600081148061291b575060008373ffffffffffffffffffffffffffffffffffffffff1663dd62ed3e30856040518363ffffffff1660e01b81526004016128c9929190613afa565b60206040518083038186803b1580156128e157600080fd5b505afa1580156128f5573d6000803e3d6000fd5b505050506040513d601f19601f8201168201806040525081019061291991906134df565b145b61295a576040517f08c379a000000000000000000000000000000000000000000000000000000000815260040161295190613ed0565b60405180910390fd5b6129db8363095ea7b360e01b8484604051602401612979929190613b5a565b604051602081830303815290604052907bffffffffffffffffffffffffffffffffffffffffffffffffffffffff19166020820180517bffffffffffffffffffffffffffffffffffffffffffffffffffffffff83818316178352505050506127a0565b505050565b6129ea8282611222565b612a61576129f781612aa9565b612a058360001c6020612ad6565b604051602001612a16929190613aa5565b6040516020818303038152906040526040517f08c379a0000000000000000000000000000000000000000000000000000000008152600401612a589190613bfe565b60405180910390fd5b5050565b6060612a748484600085612dd0565b90509392505050565b60006a636f6e736f6c652e6c6f679050600080835160208501845afa505050565b612f86819050919050565b6060612acf8273ffffffffffffffffffffffffffffffffffffffff16601460ff16612ad6565b9050919050565b606060006002836002612ae9919061409b565b612af39190614045565b67ffffffffffffffff811115612b32577f4e487b7100000000000000000000000000000000000000000000000000000000600052604160045260246000fd5b6040519080825280601f01601f191660200182016040528015612b645781602001600182028036833780820191505090505b5090507f300000000000000000000000000000000000000000000000000000000000000081600081518110612bc2577f4e487b7100000000000000000000000000000000000000000000000000000000600052603260045260246000fd5b60200101907effffffffffffffffffffffffffffffffffffffffffffffffffffffffffffff1916908160001a9053507f780000000000000000000000000000000000000000000000000000000000000081600181518110612c4c577f4e487b7100000000000000000000000000000000000000000000000000000000600052603260045260246000fd5b60200101907effffffffffffffffffffffffffffffffffffffffffffffffffffffffffffff1916908160001a90535060006001846002612c8c919061409b565b612c969190614045565b90505b6001811115612d82577f3031323334353637383961626364656600000000000000000000000000000000600f861660108110612cfe577f4e487b7100000000000000000000000000000000000000000000000000000000600052603260045260246000fd5b1a60f81b828281518110612d3b577f4e487b7100000000000000000000000000000000000000000000000000000000600052603260045260246000fd5b60200101907effffffffffffffffffffffffffffffffffffffffffffffffffffffffffffff1916908160001a905350600485901c945080612d7b906141e2565b9050612c99565b5060008414612dc6576040517f08c379a0000000000000000000000000000000000000000000000000000000008152600401612dbd90613c50565b60405180910390fd5b8091505092915050565b606082471015612e15576040517f08c379a0000000000000000000000000000000000000000000000000000000008152600401612e0c90613d70565b60405180910390fd5b6000808673ffffffffffffffffffffffffffffffffffffffff168587604051612e3e9190613a62565b60006040518083038185875af1925050503d8060008114612e7b576040519150601f19603f3d011682016040523d82523d6000602084013e612e80565b606091505b5091509150612e9187838387612e9d565b92505050949350505050565b60608315612f0057600083511415612ef857612eb885612f13565b612ef7576040517f08c379a0000000000000000000000000000000000000000000000000000000008152600401612eee90613e70565b60405180910390fd5b5b829050612f0b565b612f0a8383612f36565b5b949350505050565b6000808273ffffffffffffffffffffffffffffffffffffffff163b119050919050565b600082511115612f495781518083602001fd5b806040517f08c379a0000000000000000000000000000000000000000000000000000000008152600401612f7d9190613bfe565b60405180910390fd5b7f4e487b7100000000000000000000000000000000000000000000000000000000600052605160045260246000fd5b6000612fc8612fc384613fab565b613f86565b90508083825260208201905082856020860282011115612fe757600080fd5b60005b858110156130175781612ffd8882613131565b845260208401935060208301925050600181019050612fea565b5050509392505050565b600061303461302f84613fd7565b613f86565b90508281526020810184848401111561304c57600080fd5b6130578482856141a0565b509392505050565b60008135905061306e81614971565b92915050565b60008151905061308381614971565b92915050565b600082601f83011261309a57600080fd5b81356130aa848260208601612fb5565b91505092915050565b6000813590506130c281614988565b92915050565b6000815190506130d781614988565b92915050565b6000813590506130ec8161499f565b92915050565b600081359050613101816149b6565b92915050565b600082601f83011261311857600080fd5b8135613128848260208601613021565b91505092915050565b600081359050613140816149cd565b92915050565b600081519050613155816149cd565b92915050565b60008151905061316a816149e4565b92915050565b60006020828403121561318257600080fd5b60006131908482850161305f565b91505092915050565b600080604083850312156131ac57600080fd5b60006131ba8582860161305f565b92505060206131cb8582860161305f565b9150509250929050565b6000806000606084860312156131ea57600080fd5b60006131f88682870161305f565b93505060206132098682870161305f565b925050604061321a8682870161305f565b9150509250925092565b60008060006060848603121561323957600080fd5b600061324786828701613074565b935050602061325886828701613074565b925050604061326986828701613074565b9150509250925092565b60008060006060848603121561328857600080fd5b60006132968682870161305f565b93505060206132a78682870161305f565b92505060406132b886828701613131565b9150509250925092565b600080604083850312156132d557600080fd5b60006132e38582860161305f565b92505060206132f485828601613131565b9150509250929050565b60006020828403121561331057600080fd5b600061331e848285016130b3565b91505092915050565b60006020828403121561333957600080fd5b6000613347848285016130c8565b91505092915050565b60006020828403121561336257600080fd5b6000613370848285016130dd565b91505092915050565b6000806040838503121561338c57600080fd5b600061339a858286016130dd565b92505060206133ab8582860161305f565b9150509250929050565b6000602082840312156133c757600080fd5b60006133d5848285016130f2565b91505092915050565b6000602082840312156133f057600080fd5b600082013567ffffffffffffffff81111561340a57600080fd5b61341684828501613107565b91505092915050565b6000806040838503121561343257600080fd5b600083013567ffffffffffffffff81111561344c57600080fd5b61345885828601613107565b925050602083013567ffffffffffffffff81111561347557600080fd5b61348185828601613089565b9150509250929050565b6000806040838503121561349e57600080fd5b600083013567ffffffffffffffff8111156134b857600080fd5b6134c485828601613107565b92505060206134d585828601613131565b9150509250929050565b6000602082840312156134f157600080fd5b60006134ff84828501613146565b91505092915050565b6000806040838503121561351b57600080fd5b600061352985828601613131565b925050602061353a8582860161305f565b9150509250929050565b60008060006060848603121561355957600080fd5b600061356786828701613131565b93505060206135788682870161305f565b92505060406135898682870161305f565b9150509250925092565b6000602082840312156135a557600080fd5b60006135b38482850161315b565b91505092915050565b6135c5816140f5565b82525050565b6135d481614107565b82525050565b6135e381614113565b82525050565b60006135f482614008565b6135fe818561401e565b935061360e8185602086016141af565b80840191505092915050565b6136238161418e565b82525050565b600061363482614013565b61363e8185614029565b935061364e8185602086016141af565b61365781614345565b840191505092915050565b600061366d82614013565b613677818561403a565b93506136878185602086016141af565b80840191505092915050565b60006136a0602083614029565b91506136ab82614356565b602082019050919050565b60006136c3602383614029565b91506136ce8261437f565b604082019050919050565b60006136e6601483614029565b91506136f1826143ce565b602082019050919050565b6000613709602283614029565b9150613714826143f7565b604082019050919050565b600061372c602283614029565b915061373782614446565b604082019050919050565b600061374f601d83614029565b915061375a82614495565b602082019050919050565b6000613772602683614029565b915061377d826144be565b604082019050919050565b6000613795601a83614029565b91506137a08261450d565b602082019050919050565b60006137b8601483614029565b91506137c382614536565b602082019050919050565b60006137db602683614029565b91506137e68261455f565b604082019050919050565b60006137fe601083614029565b9150613809826145ae565b602082019050919050565b6000613821600c8361403a565b915061382c826145d7565b600c82019050919050565b6000613844601883614029565b915061384f82614600565b602082019050919050565b6000613867602183614029565b915061387282614629565b604082019050919050565b600061388a602583614029565b915061389582614678565b604082019050919050565b60006138ad601683614029565b91506138b8826146c7565b602082019050919050565b60006138d0601d83614029565b91506138db826146f0565b602082019050919050565b60006138f3602483614029565b91506138fe82614719565b604082019050919050565b6000613916601d83614029565b915061392182614768565b602082019050919050565b600061393960178361403a565b915061394482614791565b601782019050919050565b600061395c602a83614029565b9150613967826147ba565b604082019050919050565b600061397f601f83614029565b915061398a82614809565b602082019050919050565b60006139a2603683614029565b91506139ad82614832565b604082019050919050565b60006139c5602583614029565b91506139d082614881565b604082019050919050565b60006139e860118361403a565b91506139f3826148d0565b601182019050919050565b6000613a0b602f83614029565b9150613a16826148f9565b604082019050919050565b6000613a2e601f83614029565b9150613a3982614948565b602082019050919050565b613a4d81614177565b82525050565b613a5c81614181565b82525050565b6000613a6e82846135e9565b915081905092915050565b6000613a858284613662565b915081905092915050565b6000613a9b82613814565b9150819050919050565b6000613ab08261392c565b9150613abc8285613662565b9150613ac7826139db565b9150613ad38284613662565b91508190509392505050565b6000602082019050613af460008301846135bc565b92915050565b6000604082019050613b0f60008301856135bc565b613b1c60208301846135bc565b9392505050565b6000606082019050613b3860008301866135bc565b613b4560208301856135bc565b613b526040830184613a44565b949350505050565b6000604082019050613b6f60008301856135bc565b613b7c6020830184613a44565b9392505050565b6000608082019050613b9860008301876135bc565b613ba56020830186613a44565b613bb260408301856135bc565b613bbf606083018461361a565b95945050505050565b6000602082019050613bdd60008301846135cb565b92915050565b6000602082019050613bf860008301846135da565b92915050565b60006020820190508181036000830152613c188184613629565b905092915050565b60006040820190508181036000830152613c3a8185613629565b9050613c496020830184613a44565b9392505050565b60006020820190508181036000830152613c6981613693565b9050919050565b60006020820190508181036000830152613c89816136b6565b9050919050565b60006020820190508181036000830152613ca9816136d9565b9050919050565b60006020820190508181036000830152613cc9816136fc565b9050919050565b60006020820190508181036000830152613ce98161371f565b9050919050565b60006020820190508181036000830152613d0981613742565b9050919050565b60006020820190508181036000830152613d2981613765565b9050919050565b60006020820190508181036000830152613d4981613788565b9050919050565b60006020820190508181036000830152613d69816137ab565b9050919050565b60006020820190508181036000830152613d89816137ce565b9050919050565b60006020820190508181036000830152613da9816137f1565b9050919050565b60006020820190508181036000830152613dc981613837565b9050919050565b60006020820190508181036000830152613de98161385a565b9050919050565b60006020820190508181036000830152613e098161387d565b9050919050565b60006020820190508181036000830152613e29816138a0565b9050919050565b60006020820190508181036000830152613e49816138c3565b9050919050565b60006020820190508181036000830152613e69816138e6565b9050919050565b60006020820190508181036000830152613e8981613909565b9050919050565b60006020820190508181036000830152613ea98161394f565b9050919050565b60006020820190508181036000830152613ec981613972565b9050919050565b60006020820190508181036000830152613ee981613995565b9050919050565b60006020820190508181036000830152613f09816139b8565b9050919050565b60006020820190508181036000830152613f29816139fe565b9050919050565b60006020820190508181036000830152613f4981613a21565b9050919050565b6000602082019050613f656000830184613a44565b92915050565b6000602082019050613f806000830184613a53565b92915050565b6000613f90613fa1565b9050613f9c828261423e565b919050565b6000604051905090565b600067ffffffffffffffff821115613fc657613fc5614316565b5b602082029050602081019050919050565b600067ffffffffffffffff821115613ff257613ff1614316565b5b613ffb82614345565b9050602081019050919050565b600081519050919050565b600081519050919050565b600081905092915050565b600082825260208201905092915050565b600081905092915050565b600061405082614177565b915061405b83614177565b9250827fffffffffffffffffffffffffffffffffffffffffffffffffffffffffffffffff038211156140905761408f6142b8565b5b828201905092915050565b60006140a682614177565b91506140b183614177565b9250817fffffffffffffffffffffffffffffffffffffffffffffffffffffffffffffffff04831182151516156140ea576140e96142b8565b5b828202905092915050565b600061410082614157565b9050919050565b60008115159050919050565b6000819050919050565b60007fffffffff0000000000000000000000000000000000000000000000000000000082169050919050565b600061ffff82169050919050565b600073ffffffffffffffffffffffffffffffffffffffff82169050919050565b6000819050919050565b600060ff82169050919050565b600061419982614149565b9050919050565b82818337600083830152505050565b60005b838110156141cd5780820151818401526020810190506141b2565b838111156141dc576000848401525b50505050565b60006141ed82614177565b91506000821415614201576142006142b8565b5b600182039050919050565b6000600282049050600182168061422457607f821691505b60208210811415614238576142376142e7565b5b50919050565b61424782614345565b810181811067ffffffffffffffff8211171561426657614265614316565b5b80604052505050565b600061427a82614177565b91507fffffffffffffffffffffffffffffffffffffffffffffffffffffffffffffffff8214156142ad576142ac6142b8565b5b600182019050919050565b7f4e487b7100000000000000000000000000000000000000000000000000000000600052601160045260246000fd5b7f4e487b7100000000000000000000000000000000000000000000000000000000600052602260045260246000fd5b7f4e487b7100000000000000000000000000000000000000000000000000000000600052604160045260246000fd5b6000601f19601f8301169050919050565b7f537472696e67733a20686578206c656e67746820696e73756666696369656e74600082015250565b7f45524332303a207472616e7366657220746f20746865207a65726f206164647260008201527f6573730000000000000000000000000000000000000000000000000000000000602082015250565b7f5061757361626c653a206e6f7420706175736564000000000000000000000000600082015250565b7f45524332303a206275726e20616d6f756e7420657863656564732062616c616e60008201527f6365000000000000000000000000000000000000000000000000000000000000602082015250565b7f45524332303a20617070726f766520746f20746865207a65726f20616464726560008201527f7373000000000000000000000000000000000000000000000000000000000000602082015250565b7f45524332303a20696e73756666696369656e7420616c6c6f77616e6365000000600082015250565b7f45524332303a207472616e7366657220616d6f756e742065786365656473206260008201527f616c616e63650000000000000000000000000000000000000000000000000000602082015250565b7f496e73756666696369656e74207661756c742062616c616e6365000000000000600082015250565b7f496e73756666696369656e742062616c616e6365000000000000000000000000600082015250565b7f416464726573733a20696e73756666696369656e742062616c616e636520666f60008201527f722063616c6c0000000000000000000000000000000000000000000000000000602082015250565b7f5061757361626c653a2070617573656400000000000000000000000000000000600082015250565b7f6465706f736974537061726b0000000000000000000000000000000000000000600082015250565b7f43616c6c6572206973206e6f7420617574686f72697a65640000000000000000600082015250565b7f45524332303a206275726e2066726f6d20746865207a65726f2061646472657360008201527f7300000000000000000000000000000000000000000000000000000000000000602082015250565b7f45524332303a207472616e736665722066726f6d20746865207a65726f20616460008201527f6472657373000000000000000000000000000000000000000000000000000000602082015250565b7f43616c6c6572206973206e6f7420616e2041646d696e00000000000000000000600082015250565b7f6465706f736974537061726b3a20496e76616c6964206e6574776f726b000000600082015250565b7f45524332303a20617070726f76652066726f6d20746865207a65726f2061646460008201527f7265737300000000000000000000000000000000000000000000000000000000602082015250565b7f416464726573733a2063616c6c20746f206e6f6e2d636f6e7472616374000000600082015250565b7f416363657373436f6e74726f6c3a206163636f756e7420000000000000000000600082015250565b7f5361666545524332303a204552433230206f7065726174696f6e20646964206e60008201527f6f74207375636365656400000000000000000000000000000000000000000000602082015250565b7f5265656e7472616e637947756172643a207265656e7472616e742063616c6c00600082015250565b7f5361666545524332303a20617070726f76652066726f6d206e6f6e2d7a65726f60008201527f20746f206e6f6e2d7a65726f20616c6c6f77616e636500000000000000000000602082015250565b7f45524332303a2064656372656173656420616c6c6f77616e63652062656c6f7760008201527f207a65726f000000000000000000000000000000000000000000000000000000602082015250565b7f206973206d697373696e6720726f6c6520000000000000000000000000000000600082015250565b7f416363657373436f6e74726f6c3a2063616e206f6e6c792072656e6f756e636560008201527f20726f6c657320666f722073656c660000000000000000000000000000000000602082015250565b7f45524332303a206d696e7420746f20746865207a65726f206164647265737300600082015250565b61497a816140f5565b811461498557600080fd5b50565b61499181614107565b811461499c57600080fd5b50565b6149a881614113565b81146149b357600080fd5b50565b6149bf8161411d565b81146149ca57600080fd5b50565b6149d681614177565b81146149e157600080fd5b50565b6149ed81614181565b81146149f857600080fd5b5056fea264697066735822122057911a16254136ee1cb9d839e4b79a15e7e8c02e047279168acf0a2dc66886ee64736f6c63430008010033",
  "linkReferences": {},
  "deployedLinkReferences": {}
}