{
  "_format": "hh-sol-artifact-1",
  "contractName": "StableVault",
  "sourceName": "contracts/StableVault.sol",
  "abi": [
    {
      "inputs": [
        {
          "internalType": "address",
          "name": "admin",
          "type": "address"
        },
        {
          "internalType": "string",
          "name": "tokenName",
          "type": "string"
        },
        {
          "internalType": "string",
          "name": "tokenSymbol",
          "type": "string"
        }
      ],
      "stateMutability": "nonpayable",
      "type": "constructor"
    },
    {
      "anonymous": false,
      "inputs": [
        {
          "indexed": true,
          "internalType": "address",
          "name": "owner",
          "type": "address"
        },
        {
          "indexed": true,
          "internalType": "address",
          "name": "spender",
          "type": "address"
        },
        {
          "indexed": false,
          "internalType": "uint256",
          "name": "value",
          "type": "uint256"
        }
      ],
      "name": "Approval",
      "type": "event"
    },
    {
      "anonymous": false,
      "inputs": [
        {
          "indexed": false,
          "internalType": "uint256",
          "name": "_vaultBalance",
          "type": "uint256"
        }
      ],
      "name": "BalanceUpdated",
      "type": "event"
    },
    {
      "anonymous": false,
      "inputs": [
        {
          "indexed": true,
          "internalType": "address",
          "name": "new_admin",
          "type": "address"
        }
      ],
      "name": "NewAdminAdded",
      "type": "event"
    },
    {
      "anonymous": false,
      "inputs": [
        {
          "indexed": false,
          "internalType": "address",
          "name": "account",
          "type": "address"
        }
      ],
      "name": "Paused",
      "type": "event"
    },
    {
      "anonymous": false,
      "inputs": [
        {
          "indexed": true,
          "internalType": "address",
          "name": "removed_admin",
          "type": "address"
        }
      ],
      "name": "RemovedAdmin",
      "type": "event"
    },
    {
      "anonymous": false,
      "inputs": [
        {
          "indexed": true,
          "internalType": "bytes32",
          "name": "role",
          "type": "bytes32"
        },
        {
          "indexed": true,
          "internalType": "bytes32",
          "name": "previousAdminRole",
          "type": "bytes32"
        },
        {
          "indexed": true,
          "internalType": "bytes32",
          "name": "newAdminRole",
          "type": "bytes32"
        }
      ],
      "name": "RoleAdminChanged",
      "type": "event"
    },
    {
      "anonymous": false,
      "inputs": [
        {
          "indexed": true,
          "internalType": "bytes32",
          "name": "role",
          "type": "bytes32"
        },
        {
          "indexed": true,
          "internalType": "address",
          "name": "account",
          "type": "address"
        },
        {
          "indexed": true,
          "internalType": "address",
          "name": "sender",
          "type": "address"
        }
      ],
      "name": "RoleGranted",
      "type": "event"
    },
    {
      "anonymous": false,
      "inputs": [
        {
          "indexed": true,
          "internalType": "bytes32",
          "name": "role",
          "type": "bytes32"
        },
        {
          "indexed": true,
          "internalType": "address",
          "name": "account",
          "type": "address"
        },
        {
          "indexed": true,
          "internalType": "address",
          "name": "sender",
          "type": "address"
        }
      ],
      "name": "RoleRevoked",
      "type": "event"
    },
    {
      "anonymous": false,
      "inputs": [
        {
          "indexed": true,
          "internalType": "address",
          "name": "from",
          "type": "address"
        },
        {
          "indexed": true,
          "internalType": "address",
          "name": "to",
          "type": "address"
        },
        {
          "indexed": false,
          "internalType": "uint256",
          "name": "value",
          "type": "uint256"
        }
      ],
      "name": "Transfer",
      "type": "event"
    },
    {
      "anonymous": false,
      "inputs": [
        {
          "indexed": false,
          "internalType": "address",
          "name": "account",
          "type": "address"
        }
      ],
      "name": "Unpaused",
      "type": "event"
    },
    {
      "inputs": [],
      "name": "DEFAULT_ADMIN_ROLE",
      "outputs": [
        {
          "internalType": "bytes32",
          "name": "",
          "type": "bytes32"
        }
      ],
      "stateMutability": "view",
      "type": "function"
    },
    {
      "inputs": [
        {
          "internalType": "address",
          "name": "account",
          "type": "address"
        }
      ],
      "name": "addAdmin",
      "outputs": [],
      "stateMutability": "nonpayable",
      "type": "function"
    },
    {
      "inputs": [
        {
          "internalType": "address",
          "name": "owner",
          "type": "address"
        },
        {
          "internalType": "address",
          "name": "spender",
          "type": "address"
        }
      ],
      "name": "allowance",
      "outputs": [
        {
          "internalType": "uint256",
          "name": "",
          "type": "uint256"
        }
      ],
      "stateMutability": "view",
      "type": "function"
    },
    {
      "inputs": [
        {
          "internalType": "address",
          "name": "spender",
          "type": "address"
        },
        {
          "internalType": "uint256",
          "name": "amount",
          "type": "uint256"
        }
      ],
      "name": "approve",
      "outputs": [
        {
          "internalType": "bool",
          "name": "",
          "type": "bool"
        }
      ],
      "stateMutability": "nonpayable",
      "type": "function"
    },
    {
      "inputs": [
        {
          "internalType": "address",
          "name": "account",
          "type": "address"
        }
      ],
      "name": "balanceOf",
      "outputs": [
        {
          "internalType": "uint256",
          "name": "",
          "type": "uint256"
        }
      ],
      "stateMutability": "view",
      "type": "function"
    },
    {
      "inputs": [],
      "name": "decimals",
      "outputs": [
        {
          "internalType": "uint8",
          "name": "",
          "type": "uint8"
        }
      ],
      "stateMutability": "view",
      "type": "function"
    },
    {
      "inputs": [
        {
          "internalType": "address",
          "name": "spender",
          "type": "address"
        },
        {
          "internalType": "uint256",
          "name": "subtractedValue",
          "type": "uint256"
        }
      ],
      "name": "decreaseAllowance",
      "outputs": [
        {
          "internalType": "bool",
          "name": "",
          "type": "bool"
        }
      ],
      "stateMutability": "nonpayable",
      "type": "function"
    },
    {
      "inputs": [
        {
          "internalType": "uint256",
          "name": "amount",
          "type": "uint256"
        },
        {
          "internalType": "address",
          "name": "_asset",
          "type": "address"
        },
        {
          "internalType": "address",
          "name": "_beneficiary",
          "type": "address"
        }
      ],
      "name": "deposit",
      "outputs": [
        {
          "internalType": "bool",
          "name": "",
          "type": "bool"
        }
      ],
      "stateMutability": "nonpayable",
      "type": "function"
    },
    {
      "inputs": [
        {
          "internalType": "bytes32",
          "name": "role",
          "type": "bytes32"
        }
      ],
      "name": "getRoleAdmin",
      "outputs": [
        {
          "internalType": "bytes32",
          "name": "",
          "type": "bytes32"
        }
      ],
      "stateMutability": "view",
      "type": "function"
    },
    {
      "inputs": [
        {
          "internalType": "bytes32",
          "name": "role",
          "type": "bytes32"
        },
        {
          "internalType": "address",
          "name": "account",
          "type": "address"
        }
      ],
      "name": "grantRole",
      "outputs": [],
      "stateMutability": "nonpayable",
      "type": "function"
    },
    {
      "inputs": [
        {
          "internalType": "bytes32",
          "name": "role",
          "type": "bytes32"
        },
        {
          "internalType": "address",
          "name": "account",
          "type": "address"
        }
      ],
      "name": "hasRole",
      "outputs": [
        {
          "internalType": "bool",
          "name": "",
          "type": "bool"
        }
      ],
      "stateMutability": "view",
      "type": "function"
    },
    {
      "inputs": [
        {
          "internalType": "address",
          "name": "spender",
          "type": "address"
        },
        {
          "internalType": "uint256",
          "name": "addedValue",
          "type": "uint256"
        }
      ],
      "name": "increaseAllowance",
      "outputs": [
        {
          "internalType": "bool",
          "name": "",
          "type": "bool"
        }
      ],
      "stateMutability": "nonpayable",
      "type": "function"
    },
    {
      "inputs": [],
      "name": "name",
      "outputs": [
        {
          "internalType": "string",
          "name": "",
          "type": "string"
        }
      ],
      "stateMutability": "view",
      "type": "function"
    },
    {
      "inputs": [],
      "name": "pause",
      "outputs": [],
      "stateMutability": "nonpayable",
      "type": "function"
    },
    {
      "inputs": [],
      "name": "paused",
      "outputs": [
        {
          "internalType": "bool",
          "name": "",
          "type": "bool"
        }
      ],
      "stateMutability": "view",
      "type": "function"
    },
    {
      "inputs": [
        {
          "internalType": "address",
          "name": "account",
          "type": "address"
        }
      ],
      "name": "removeAdmin",
      "outputs": [],
      "stateMutability": "nonpayable",
      "type": "function"
    },
    {
      "inputs": [
        {
          "internalType": "bytes32",
          "name": "role",
          "type": "bytes32"
        },
        {
          "internalType": "address",
          "name": "account",
          "type": "address"
        }
      ],
      "name": "renounceRole",
      "outputs": [],
      "stateMutability": "nonpayable",
      "type": "function"
    },
    {
      "inputs": [
        {
          "internalType": "bytes32",
          "name": "role",
          "type": "bytes32"
        },
        {
          "internalType": "address",
          "name": "account",
          "type": "address"
        }
      ],
      "name": "revokeRole",
      "outputs": [],
      "stateMutability": "nonpayable",
      "type": "function"
    },
    {
      "inputs": [
        {
          "internalType": "bytes4",
          "name": "interfaceId",
          "type": "bytes4"
        }
      ],
      "name": "supportsInterface",
      "outputs": [
        {
          "internalType": "bool",
          "name": "",
          "type": "bool"
        }
      ],
      "stateMutability": "view",
      "type": "function"
    },
    {
      "inputs": [],
      "name": "symbol",
      "outputs": [
        {
          "internalType": "string",
          "name": "",
          "type": "string"
        }
      ],
      "stateMutability": "view",
      "type": "function"
    },
    {
      "inputs": [],
      "name": "totalSupply",
      "outputs": [
        {
          "internalType": "uint256",
          "name": "",
          "type": "uint256"
        }
      ],
      "stateMutability": "view",
      "type": "function"
    },
    {
      "inputs": [
        {
          "internalType": "address",
          "name": "to",
          "type": "address"
        },
        {
          "internalType": "uint256",
          "name": "amount",
          "type": "uint256"
        }
      ],
      "name": "transfer",
      "outputs": [
        {
          "internalType": "bool",
          "name": "",
          "type": "bool"
        }
      ],
      "stateMutability": "nonpayable",
      "type": "function"
    },
    {
      "inputs": [
        {
          "internalType": "address",
          "name": "from",
          "type": "address"
        },
        {
          "internalType": "address",
          "name": "to",
          "type": "address"
        },
        {
          "internalType": "uint256",
          "name": "amount",
          "type": "uint256"
        }
      ],
      "name": "transferFrom",
      "outputs": [
        {
          "internalType": "bool",
          "name": "",
          "type": "bool"
        }
      ],
      "stateMutability": "nonpayable",
      "type": "function"
    },
    {
      "inputs": [],
      "name": "unpause",
      "outputs": [],
      "stateMutability": "nonpayable",
      "type": "function"
    },
    {
      "inputs": [],
      "name": "vaultBalance",
      "outputs": [
        {
          "internalType": "uint256",
          "name": "",
          "type": "uint256"
        }
      ],
      "stateMutability": "view",
      "type": "function"
    },
    {
      "inputs": [
        {
          "internalType": "uint256",
          "name": "amount",
          "type": "uint256"
        },
        {
          "internalType": "address",
          "name": "_asset",
          "type": "address"
        }
      ],
      "name": "withdraw",
      "outputs": [
        {
          "internalType": "bool",
          "name": "",
          "type": "bool"
        }
      ],
      "stateMutability": "nonpayable",
      "type": "function"
    }
  ],
  "bytecode": "0x60806040523480156200001157600080fd5b5060405162003e1e38038062003e1e833981810160405281019062000037919062000363565b81818460016000819055506000600260006101000a81548160ff021916908315150217905550620000726000801b82620000b060201b60201c565b5081600690805190602001906200008b9291906200022a565b508060079080519060200190620000a49291906200022a565b505050505050620005a9565b620000c28282620000c660201b60201c565b5050565b620000d88282620001b760201b60201c565b620001b357600180600084815260200190815260200160002060000160008373ffffffffffffffffffffffffffffffffffffffff1673ffffffffffffffffffffffffffffffffffffffff16815260200190815260200160002060006101000a81548160ff021916908315150217905550620001586200022260201b60201c565b73ffffffffffffffffffffffffffffffffffffffff168173ffffffffffffffffffffffffffffffffffffffff16837f2f8788117e7eff1d82e926ec794901d17c78024a50270940304540a733656f0d60405160405180910390a45b5050565b60006001600084815260200190815260200160002060000160008373ffffffffffffffffffffffffffffffffffffffff1673ffffffffffffffffffffffffffffffffffffffff16815260200190815260200160002060009054906101000a900460ff16905092915050565b600033905090565b8280546200023890620004b4565b90600052602060002090601f0160209004810192826200025c5760008555620002a8565b82601f106200027757805160ff1916838001178555620002a8565b82800160010185558215620002a8579182015b82811115620002a75782518255916020019190600101906200028a565b5b509050620002b79190620002bb565b5090565b5b80821115620002d6576000816000905550600101620002bc565b5090565b6000620002f1620002eb8462000414565b620003eb565b9050828152602081018484840111156200030a57600080fd5b620003178482856200047e565b509392505050565b60008151905062000330816200058f565b92915050565b600082601f8301126200034857600080fd5b81516200035a848260208601620002da565b91505092915050565b6000806000606084860312156200037957600080fd5b600062000389868287016200031f565b935050602084015167ffffffffffffffff811115620003a757600080fd5b620003b58682870162000336565b925050604084015167ffffffffffffffff811115620003d357600080fd5b620003e18682870162000336565b9150509250925092565b6000620003f76200040a565b9050620004058282620004ea565b919050565b6000604051905090565b600067ffffffffffffffff8211156200043257620004316200054f565b5b6200043d826200057e565b9050602081019050919050565b600062000457826200045e565b9050919050565b600073ffffffffffffffffffffffffffffffffffffffff82169050919050565b60005b838110156200049e57808201518184015260208101905062000481565b83811115620004ae576000848401525b50505050565b60006002820490506001821680620004cd57607f821691505b60208210811415620004e457620004e362000520565b5b50919050565b620004f5826200057e565b810181811067ffffffffffffffff821117156200051757620005166200054f565b5b80604052505050565b7f4e487b7100000000000000000000000000000000000000000000000000000000600052602260045260246000fd5b7f4e487b7100000000000000000000000000000000000000000000000000000000600052604160045260246000fd5b6000601f19601f8301169050919050565b6200059a816200044a565b8114620005a657600080fd5b50565b61386580620005b96000396000f3fe608060405234801561001057600080fd5b506004361061018d5760003560e01c806339509351116100de57806391d1485411610097578063a457c2d711610071578063a457c2d714610498578063a9059cbb146104c8578063d547741f146104f8578063dd62ed3e146105145761018d565b806391d148541461042c57806395d89b411461045c578063a217fddf1461047a5761018d565b8063395093511461037e5780633f4ba83a146103ae5780635c975abb146103b857806370480275146103d657806370a08231146103f25780638456cb59146104225761018d565b806318160ddd1161014b5780632e2d2984116101255780632e2d2984146102f85780632f2ff15d14610328578063313ce5671461034457806336568abe146103625761018d565b806318160ddd1461027a57806323b872dd14610298578063248a9ca3146102c85761018d565b8062f714ce1461019257806301ffc9a7146101c257806306fdde03146101f2578063095ea7b3146102105780630bf6cc08146102405780631785f53c1461025e575b600080fd5b6101ac60048036038101906101a791906126f5565b610544565b6040516101b99190612c80565b60405180910390f35b6101dc60048036038101906101d791906126cc565b61067e565b6040516101e99190612c80565b60405180910390f35b6101fa6106f8565b6040516102079190612cb6565b60405180910390f35b61022a60048036038101906102259190612602565b61078a565b6040516102379190612c80565b60405180910390f35b6102486107ad565b6040516102559190612fa8565b60405180910390f35b6102786004803603810190610273919061254e565b6107b7565b005b61028261085e565b60405161028f9190612fa8565b60405180910390f35b6102b260048036038101906102ad91906125b3565b610868565b6040516102bf9190612c80565b60405180910390f35b6102e260048036038101906102dd9190612667565b610897565b6040516102ef9190612c9b565b60405180910390f35b610312600480360381019061030d9190612731565b6108b7565b60405161031f9190612c80565b60405180910390f35b610342600480360381019061033d9190612690565b6109a9565b005b61034c6109ca565b6040516103599190612fc3565b60405180910390f35b61037c60048036038101906103779190612690565b6109d3565b005b61039860048036038101906103939190612602565b610a56565b6040516103a59190612c80565b60405180910390f35b6103b6610a8d565b005b6103c0610aeb565b6040516103cd9190612c80565b60405180910390f35b6103f060048036038101906103eb919061254e565b610b02565b005b61040c6004803603810190610407919061254e565b610ba9565b6040516104199190612fa8565b60405180910390f35b61042a610bf2565b005b61044660048036038101906104419190612690565b610c50565b6040516104539190612c80565b60405180910390f35b610464610cbb565b6040516104719190612cb6565b60405180910390f35b610482610d4d565b60405161048f9190612c9b565b60405180910390f35b6104b260048036038101906104ad9190612602565b610d54565b6040516104bf9190612c80565b60405180910390f35b6104e260048036038101906104dd9190612602565b610dcb565b6040516104ef9190612c80565b60405180910390f35b610512600480360381019061050d9190612690565b610dee565b005b61052e60048036038101906105299190612577565b610e0f565b60405161053b9190612fa8565b60405180910390f35b600061054e610e96565b610556610ee6565b60006105628484610f30565b90506105a36040518060400160405280601181526020017f576974686472617720616d6f756e743a2000000000000000000000000000000081525085611022565b6105e26040518060400160405280601a81526020017f576974686472617720636f72726563746564416d6f756e743a2000000000000081525082611022565b806105ec33610ba9565b101561062d576040517f08c379a000000000000000000000000000000000000000000000000000000000815260040161062490612e08565b60405180910390fd5b61063733826110be565b61066233858573ffffffffffffffffffffffffffffffffffffffff1661128e9092919063ffffffff16565b61066b81611314565b60019150506106786113a3565b92915050565b60007f7965db0b000000000000000000000000000000000000000000000000000000007bffffffffffffffffffffffffffffffffffffffffffffffffffffffff1916827bffffffffffffffffffffffffffffffffffffffffffffffffffffffff191614806106f157506106f0826113ad565b5b9050919050565b606060068054610707906131b3565b80601f0160208091040260200160405190810160405280929190818152602001828054610733906131b3565b80156107805780601f1061075557610100808354040283529160200191610780565b820191906000526020600020905b81548152906001019060200180831161076357829003601f168201915b5050505050905090565b600080610795611417565b90506107a281858561141f565b600191505092915050565b6000600854905090565b6107c46000801b33610c50565b610803576040517f08c379a00000000000000000000000000000000000000000000000000000000081526004016107fa90612ea8565b60405180910390fd5b61080b610ee6565b6108186000801b826115ea565b8073ffffffffffffffffffffffffffffffffffffffff167f3137a7fedbfedb7895dfa5a6812a4566dae9ded68d00aeec13c6ed1fa84a1c8060405160405180910390a250565b6000600554905090565b600080610873611417565b90506108808582856116cc565b61088b858585611758565b60019150509392505050565b600060016000838152602001908152602001600020600101549050919050565b60006108c1610e96565b6108c9610ee6565b60006108d58585610f30565b90506109166040518060400160405280601081526020017f4465706f73697420616d6f756e743a200000000000000000000000000000000081525086611022565b6109556040518060400160405280601981526020017f4465706f73697420636f72726563746564416d6f756e743a200000000000000081525082611022565b6109823330878773ffffffffffffffffffffffffffffffffffffffff166119d3909392919063ffffffff16565b61098c8382611a5c565b61099581611bb4565b60019150506109a26113a3565b9392505050565b6109b282610897565b6109bb81611bfe565b6109c58383611c12565b505050565b60006012905090565b6109db611417565b73ffffffffffffffffffffffffffffffffffffffff168173ffffffffffffffffffffffffffffffffffffffff1614610a48576040517f08c379a0000000000000000000000000000000000000000000000000000000008152600401610a3f90612f68565b60405180910390fd5b610a5282826115ea565b5050565b600080610a61611417565b9050610a82818585610a738589610e0f565b610a7d919061301b565b61141f565b600191505092915050565b610a9a6000801b33610c50565b610ad9576040517f08c379a0000000000000000000000000000000000000000000000000000000008152600401610ad090612ea8565b60405180910390fd5b610ae1611cf2565b610ae9611d3b565b565b6000600260009054906101000a900460ff16905090565b610b0f6000801b33610c50565b610b4e576040517f08c379a0000000000000000000000000000000000000000000000000000000008152600401610b4590612ea8565b60405180910390fd5b610b56610ee6565b610b636000801b82611d9e565b8073ffffffffffffffffffffffffffffffffffffffff167f2dbe9fb88463d989acccabbb6ee06901f83672eb78e04a11ff48dd8f69a27cda60405160405180910390a250565b6000600360008373ffffffffffffffffffffffffffffffffffffffff1673ffffffffffffffffffffffffffffffffffffffff168152602001908152602001600020549050919050565b610bff6000801b33610c50565b610c3e576040517f08c379a0000000000000000000000000000000000000000000000000000000008152600401610c3590612ea8565b60405180910390fd5b610c46610ee6565b610c4e611dac565b565b60006001600084815260200190815260200160002060000160008373ffffffffffffffffffffffffffffffffffffffff1673ffffffffffffffffffffffffffffffffffffffff16815260200190815260200160002060009054906101000a900460ff16905092915050565b606060078054610cca906131b3565b80601f0160208091040260200160405190810160405280929190818152602001828054610cf6906131b3565b8015610d435780601f10610d1857610100808354040283529160200191610d43565b820191906000526020600020905b815481529060010190602001808311610d2657829003601f168201915b5050505050905090565b6000801b81565b600080610d5f611417565b90506000610d6d8286610e0f565b905083811015610db2576040517f08c379a0000000000000000000000000000000000000000000000000000000008152600401610da990612f48565b60405180910390fd5b610dbf828686840361141f565b60019250505092915050565b600080610dd6611417565b9050610de3818585611758565b600191505092915050565b610df782610897565b610e0081611bfe565b610e0a83836115ea565b505050565b6000600460008473ffffffffffffffffffffffffffffffffffffffff1673ffffffffffffffffffffffffffffffffffffffff16815260200190815260200160002060008373ffffffffffffffffffffffffffffffffffffffff1673ffffffffffffffffffffffffffffffffffffffff16815260200190815260200160002054905092915050565b60026000541415610edc576040517f08c379a0000000000000000000000000000000000000000000000000000000008152600401610ed390612f28565b60405180910390fd5b6002600081905550565b610eee610aeb565b15610f2e576040517f08c379a0000000000000000000000000000000000000000000000000000000008152600401610f2590612e48565b60405180910390fd5b565b6000808273ffffffffffffffffffffffffffffffffffffffff1663313ce5676040518163ffffffff1660e01b815260040160206040518083038186803b158015610f7957600080fd5b505afa158015610f8d573d6000803e3d6000fd5b505050506040513d601f19601f82011682018060405250810190610fb19190612780565b60ff1690506012811461101857601281111561100b5760128103600a0a8481611003577f4e487b7100000000000000000000000000000000000000000000000000000000600052601260045260246000fd5b049350611017565b80601203600a0a840293505b5b8391505092915050565b6110ba8282604051602401611038929190612cd8565b6040516020818303038152906040527fb60e72cc000000000000000000000000000000000000000000000000000000007bffffffffffffffffffffffffffffffffffffffffffffffffffffffff19166020820180517bffffffffffffffffffffffffffffffffffffffffffffffffffffffff8381831617835250505050611e0f565b5050565b600073ffffffffffffffffffffffffffffffffffffffff168273ffffffffffffffffffffffffffffffffffffffff16141561112e576040517f08c379a000000000000000000000000000000000000000000000000000000000815260040161112590612e68565b60405180910390fd5b61113a82600083611e29565b6000600360008473ffffffffffffffffffffffffffffffffffffffff1673ffffffffffffffffffffffffffffffffffffffff168152602001908152602001600020549050818110156111c1576040517f08c379a00000000000000000000000000000000000000000000000000000000081526004016111b890612d68565b60405180910390fd5b818103600360008573ffffffffffffffffffffffffffffffffffffffff1673ffffffffffffffffffffffffffffffffffffffff1681526020019081526020016000208190555081600560008282540392505081905550600073ffffffffffffffffffffffffffffffffffffffff168373ffffffffffffffffffffffffffffffffffffffff167fddf252ad1be2c89b69c2b068fc378daa952ba7f163c4a11628f55a4df523b3ef846040516112759190612fa8565b60405180910390a361128983600084611e2e565b505050565b61130f8363a9059cbb60e01b84846040516024016112ad929190612c57565b604051602081830303815290604052907bffffffffffffffffffffffffffffffffffffffffffffffffffffffff19166020820180517bffffffffffffffffffffffffffffffffffffffffffffffffffffffff8381831617835250505050611e33565b505050565b806008541015611359576040517f08c379a000000000000000000000000000000000000000000000000000000000815260040161135090612de8565b60405180910390fd5b806008600082825403925050819055507f04be25a4c0fe4c39136ca055daaac08ac6b3041b2e1f2a1b698bac12f1cbdc4a816040516113989190612fa8565b60405180910390a150565b6001600081905550565b60007f01ffc9a7000000000000000000000000000000000000000000000000000000007bffffffffffffffffffffffffffffffffffffffffffffffffffffffff1916827bffffffffffffffffffffffffffffffffffffffffffffffffffffffff1916149050919050565b600033905090565b600073ffffffffffffffffffffffffffffffffffffffff168373ffffffffffffffffffffffffffffffffffffffff16141561148f576040517f08c379a000000000000000000000000000000000000000000000000000000000815260040161148690612ec8565b60405180910390fd5b600073ffffffffffffffffffffffffffffffffffffffff168273ffffffffffffffffffffffffffffffffffffffff1614156114ff576040517f08c379a00000000000000000000000000000000000000000000000000000000081526004016114f690612d88565b60405180910390fd5b80600460008573ffffffffffffffffffffffffffffffffffffffff1673ffffffffffffffffffffffffffffffffffffffff16815260200190815260200160002060008473ffffffffffffffffffffffffffffffffffffffff1673ffffffffffffffffffffffffffffffffffffffff168152602001908152602001600020819055508173ffffffffffffffffffffffffffffffffffffffff168373ffffffffffffffffffffffffffffffffffffffff167f8c5be1e5ebec7d5bd14f71427d1e84f3dd0314c0f7b2291e5b200ac8c7c3b925836040516115dd9190612fa8565b60405180910390a3505050565b6115f48282610c50565b156116c85760006001600084815260200190815260200160002060000160008373ffffffffffffffffffffffffffffffffffffffff1673ffffffffffffffffffffffffffffffffffffffff16815260200190815260200160002060006101000a81548160ff02191690831515021790555061166d611417565b73ffffffffffffffffffffffffffffffffffffffff168173ffffffffffffffffffffffffffffffffffffffff16837ff6391f5c32d9c69d2a47ea670b442974b53935d1edc7fd64eb21e047a839171b60405160405180910390a45b5050565b60006116d88484610e0f565b90507fffffffffffffffffffffffffffffffffffffffffffffffffffffffffffffffff81146117525781811015611744576040517f08c379a000000000000000000000000000000000000000000000000000000000815260040161173b90612da8565b60405180910390fd5b611751848484840361141f565b5b50505050565b600073ffffffffffffffffffffffffffffffffffffffff168373ffffffffffffffffffffffffffffffffffffffff1614156117c8576040517f08c379a00000000000000000000000000000000000000000000000000000000081526004016117bf90612e88565b60405180910390fd5b600073ffffffffffffffffffffffffffffffffffffffff168273ffffffffffffffffffffffffffffffffffffffff161415611838576040517f08c379a000000000000000000000000000000000000000000000000000000000815260040161182f90612d28565b60405180910390fd5b611843838383611e29565b6000600360008573ffffffffffffffffffffffffffffffffffffffff1673ffffffffffffffffffffffffffffffffffffffff168152602001908152602001600020549050818110156118ca576040517f08c379a00000000000000000000000000000000000000000000000000000000081526004016118c190612dc8565b60405180910390fd5b818103600360008673ffffffffffffffffffffffffffffffffffffffff1673ffffffffffffffffffffffffffffffffffffffff1681526020019081526020016000208190555081600360008573ffffffffffffffffffffffffffffffffffffffff1673ffffffffffffffffffffffffffffffffffffffff168152602001908152602001600020600082825401925050819055508273ffffffffffffffffffffffffffffffffffffffff168473ffffffffffffffffffffffffffffffffffffffff167fddf252ad1be2c89b69c2b068fc378daa952ba7f163c4a11628f55a4df523b3ef846040516119ba9190612fa8565b60405180910390a36119cd848484611e2e565b50505050565b611a56846323b872dd60e01b8585856040516024016119f493929190612c20565b604051602081830303815290604052907bffffffffffffffffffffffffffffffffffffffffffffffffffffffff19166020820180517bffffffffffffffffffffffffffffffffffffffffffffffffffffffff8381831617835250505050611e33565b50505050565b600073ffffffffffffffffffffffffffffffffffffffff168273ffffffffffffffffffffffffffffffffffffffff161415611acc576040517f08c379a0000000000000000000000000000000000000000000000000000000008152600401611ac390612f88565b60405180910390fd5b611ad860008383611e29565b8060056000828254611aea919061301b565b9250508190555080600360008473ffffffffffffffffffffffffffffffffffffffff1673ffffffffffffffffffffffffffffffffffffffff168152602001908152602001600020600082825401925050819055508173ffffffffffffffffffffffffffffffffffffffff16600073ffffffffffffffffffffffffffffffffffffffff167fddf252ad1be2c89b69c2b068fc378daa952ba7f163c4a11628f55a4df523b3ef83604051611b9c9190612fa8565b60405180910390a3611bb060008383611e2e565b5050565b806008600082825401925050819055507f04be25a4c0fe4c39136ca055daaac08ac6b3041b2e1f2a1b698bac12f1cbdc4a81604051611bf39190612fa8565b60405180910390a150565b611c0f81611c0a611417565b611efb565b50565b611c1c8282610c50565b611cee57600180600084815260200190815260200160002060000160008373ffffffffffffffffffffffffffffffffffffffff1673ffffffffffffffffffffffffffffffffffffffff16815260200190815260200160002060006101000a81548160ff021916908315150217905550611c93611417565b73ffffffffffffffffffffffffffffffffffffffff168173ffffffffffffffffffffffffffffffffffffffff16837f2f8788117e7eff1d82e926ec794901d17c78024a50270940304540a733656f0d60405160405180910390a45b5050565b611cfa610aeb565b611d39576040517f08c379a0000000000000000000000000000000000000000000000000000000008152600401611d3090612d48565b60405180910390fd5b565b611d43611cf2565b6000600260006101000a81548160ff0219169083151502179055507f5db9ee0a495bf2e6ff9c91a7834c1ba4fdd244a5e8aa4e537bd38aeae4b073aa611d87611417565b604051611d949190612c05565b60405180910390a1565b611da88282611c12565b5050565b611db4610ee6565b6001600260006101000a81548160ff0219169083151502179055507f62e78cea01bee320cd4e420270b5ea74000d11b0c9f74754ebdbfc544b05a258611df8611417565b604051611e059190612c05565b60405180910390a1565b611e2681611e1e611f80611fa1565b63ffffffff16565b50565b505050565b505050565b6000611e95826040518060400160405280602081526020017f5361666545524332303a206c6f772d6c6576656c2063616c6c206661696c65648152508573ffffffffffffffffffffffffffffffffffffffff16611fac9092919063ffffffff16565b9050600081511480611eb7575080806020019051810190611eb6919061263e565b5b611ef6576040517f08c379a0000000000000000000000000000000000000000000000000000000008152600401611eed90612f08565b60405180910390fd5b505050565b611f058282610c50565b611f7c57611f1281611fc4565b611f208360001c6020611ff1565b604051602001611f31929190612bcb565b6040516020818303038152906040526040517f08c379a0000000000000000000000000000000000000000000000000000000008152600401611f739190612cb6565b60405180910390fd5b5050565b60006a636f6e736f6c652e6c6f679050600080835160208501845afa505050565b6124a1819050919050565b6060611fbb84846000856122eb565b90509392505050565b6060611fea8273ffffffffffffffffffffffffffffffffffffffff16601460ff16611ff1565b9050919050565b6060600060028360026120049190613071565b61200e919061301b565b67ffffffffffffffff81111561204d577f4e487b7100000000000000000000000000000000000000000000000000000000600052604160045260246000fd5b6040519080825280601f01601f19166020018201604052801561207f5781602001600182028036833780820191505090505b5090507f3000000000000000000000000000000000000000000000000000000000000000816000815181106120dd577f4e487b7100000000000000000000000000000000000000000000000000000000600052603260045260246000fd5b60200101907effffffffffffffffffffffffffffffffffffffffffffffffffffffffffffff1916908160001a9053507f780000000000000000000000000000000000000000000000000000000000000081600181518110612167577f4e487b7100000000000000000000000000000000000000000000000000000000600052603260045260246000fd5b60200101907effffffffffffffffffffffffffffffffffffffffffffffffffffffffffffff1916908160001a905350600060018460026121a79190613071565b6121b1919061301b565b90505b600181111561229d577f3031323334353637383961626364656600000000000000000000000000000000600f861660108110612219577f4e487b7100000000000000000000000000000000000000000000000000000000600052603260045260246000fd5b1a60f81b828281518110612256577f4e487b7100000000000000000000000000000000000000000000000000000000600052603260045260246000fd5b60200101907effffffffffffffffffffffffffffffffffffffffffffffffffffffffffffff1916908160001a905350600485901c94508061229690613189565b90506121b4565b50600084146122e1576040517f08c379a00000000000000000000000000000000000000000000000000000000081526004016122d890612d08565b60405180910390fd5b8091505092915050565b606082471015612330576040517f08c379a000000000000000000000000000000000000000000000000000000000815260040161232790612e28565b60405180910390fd5b6000808673ffffffffffffffffffffffffffffffffffffffff1685876040516123599190612bb4565b60006040518083038185875af1925050503d8060008114612396576040519150601f19603f3d011682016040523d82523d6000602084013e61239b565b606091505b50915091506123ac878383876123b8565b92505050949350505050565b6060831561241b57600083511415612413576123d38561242e565b612412576040517f08c379a000000000000000000000000000000000000000000000000000000000815260040161240990612ee8565b60405180910390fd5b5b829050612426565b6124258383612451565b5b949350505050565b6000808273ffffffffffffffffffffffffffffffffffffffff163b119050919050565b6000825111156124645781518083602001fd5b806040517f08c379a00000000000000000000000000000000000000000000000000000000081526004016124989190612cb6565b60405180910390fd5b7f4e487b7100000000000000000000000000000000000000000000000000000000600052605160045260246000fd5b6000813590506124df816137a5565b92915050565b6000815190506124f4816137bc565b92915050565b600081359050612509816137d3565b92915050565b60008135905061251e816137ea565b92915050565b60008135905061253381613801565b92915050565b60008151905061254881613818565b92915050565b60006020828403121561256057600080fd5b600061256e848285016124d0565b91505092915050565b6000806040838503121561258a57600080fd5b6000612598858286016124d0565b92505060206125a9858286016124d0565b9150509250929050565b6000806000606084860312156125c857600080fd5b60006125d6868287016124d0565b93505060206125e7868287016124d0565b92505060406125f886828701612524565b9150509250925092565b6000806040838503121561261557600080fd5b6000612623858286016124d0565b925050602061263485828601612524565b9150509250929050565b60006020828403121561265057600080fd5b600061265e848285016124e5565b91505092915050565b60006020828403121561267957600080fd5b6000612687848285016124fa565b91505092915050565b600080604083850312156126a357600080fd5b60006126b1858286016124fa565b92505060206126c2858286016124d0565b9150509250929050565b6000602082840312156126de57600080fd5b60006126ec8482850161250f565b91505092915050565b6000806040838503121561270857600080fd5b600061271685828601612524565b9250506020612727858286016124d0565b9150509250929050565b60008060006060848603121561274657600080fd5b600061275486828701612524565b9350506020612765868287016124d0565b9250506040612776868287016124d0565b9150509250925092565b60006020828403121561279257600080fd5b60006127a084828501612539565b91505092915050565b6127b2816130cb565b82525050565b6127c1816130dd565b82525050565b6127d0816130e9565b82525050565b60006127e182612fde565b6127eb8185612ff4565b93506127fb818560208601613156565b80840191505092915050565b600061281282612fe9565b61281c8185612fff565b935061282c818560208601613156565b61283581613243565b840191505092915050565b600061284b82612fe9565b6128558185613010565b9350612865818560208601613156565b80840191505092915050565b600061287e602083612fff565b915061288982613254565b602082019050919050565b60006128a1602383612fff565b91506128ac8261327d565b604082019050919050565b60006128c4601483612fff565b91506128cf826132cc565b602082019050919050565b60006128e7602283612fff565b91506128f2826132f5565b604082019050919050565b600061290a602283612fff565b915061291582613344565b604082019050919050565b600061292d601d83612fff565b915061293882613393565b602082019050919050565b6000612950602683612fff565b915061295b826133bc565b604082019050919050565b6000612973601a83612fff565b915061297e8261340b565b602082019050919050565b6000612996601483612fff565b91506129a182613434565b602082019050919050565b60006129b9602683612fff565b91506129c48261345d565b604082019050919050565b60006129dc601083612fff565b91506129e7826134ac565b602082019050919050565b60006129ff602183612fff565b9150612a0a826134d5565b604082019050919050565b6000612a22602583612fff565b9150612a2d82613524565b604082019050919050565b6000612a45601683612fff565b9150612a5082613573565b602082019050919050565b6000612a68602483612fff565b9150612a738261359c565b604082019050919050565b6000612a8b601d83612fff565b9150612a96826135eb565b602082019050919050565b6000612aae601783613010565b9150612ab982613614565b601782019050919050565b6000612ad1602a83612fff565b9150612adc8261363d565b604082019050919050565b6000612af4601f83612fff565b9150612aff8261368c565b602082019050919050565b6000612b17602583612fff565b9150612b22826136b5565b604082019050919050565b6000612b3a601183613010565b9150612b4582613704565b601182019050919050565b6000612b5d602f83612fff565b9150612b688261372d565b604082019050919050565b6000612b80601f83612fff565b9150612b8b8261377c565b602082019050919050565b612b9f8161313f565b82525050565b612bae81613149565b82525050565b6000612bc082846127d6565b915081905092915050565b6000612bd682612aa1565b9150612be28285612840565b9150612bed82612b2d565b9150612bf98284612840565b91508190509392505050565b6000602082019050612c1a60008301846127a9565b92915050565b6000606082019050612c3560008301866127a9565b612c4260208301856127a9565b612c4f6040830184612b96565b949350505050565b6000604082019050612c6c60008301856127a9565b612c796020830184612b96565b9392505050565b6000602082019050612c9560008301846127b8565b92915050565b6000602082019050612cb060008301846127c7565b92915050565b60006020820190508181036000830152612cd08184612807565b905092915050565b60006040820190508181036000830152612cf28185612807565b9050612d016020830184612b96565b9392505050565b60006020820190508181036000830152612d2181612871565b9050919050565b60006020820190508181036000830152612d4181612894565b9050919050565b60006020820190508181036000830152612d61816128b7565b9050919050565b60006020820190508181036000830152612d81816128da565b9050919050565b60006020820190508181036000830152612da1816128fd565b9050919050565b60006020820190508181036000830152612dc181612920565b9050919050565b60006020820190508181036000830152612de181612943565b9050919050565b60006020820190508181036000830152612e0181612966565b9050919050565b60006020820190508181036000830152612e2181612989565b9050919050565b60006020820190508181036000830152612e41816129ac565b9050919050565b60006020820190508181036000830152612e61816129cf565b9050919050565b60006020820190508181036000830152612e81816129f2565b9050919050565b60006020820190508181036000830152612ea181612a15565b9050919050565b60006020820190508181036000830152612ec181612a38565b9050919050565b60006020820190508181036000830152612ee181612a5b565b9050919050565b60006020820190508181036000830152612f0181612a7e565b9050919050565b60006020820190508181036000830152612f2181612ac4565b9050919050565b60006020820190508181036000830152612f4181612ae7565b9050919050565b60006020820190508181036000830152612f6181612b0a565b9050919050565b60006020820190508181036000830152612f8181612b50565b9050919050565b60006020820190508181036000830152612fa181612b73565b9050919050565b6000602082019050612fbd6000830184612b96565b92915050565b6000602082019050612fd86000830184612ba5565b92915050565b600081519050919050565b600081519050919050565b600081905092915050565b600082825260208201905092915050565b600081905092915050565b60006130268261313f565b91506130318361313f565b9250827fffffffffffffffffffffffffffffffffffffffffffffffffffffffffffffffff03821115613066576130656131e5565b5b828201905092915050565b600061307c8261313f565b91506130878361313f565b9250817fffffffffffffffffffffffffffffffffffffffffffffffffffffffffffffffff04831182151516156130c0576130bf6131e5565b5b828202905092915050565b60006130d68261311f565b9050919050565b60008115159050919050565b6000819050919050565b60007fffffffff0000000000000000000000000000000000000000000000000000000082169050919050565b600073ffffffffffffffffffffffffffffffffffffffff82169050919050565b6000819050919050565b600060ff82169050919050565b60005b83811015613174578082015181840152602081019050613159565b83811115613183576000848401525b50505050565b60006131948261313f565b915060008214156131a8576131a76131e5565b5b600182039050919050565b600060028204905060018216806131cb57607f821691505b602082108114156131df576131de613214565b5b50919050565b7f4e487b7100000000000000000000000000000000000000000000000000000000600052601160045260246000fd5b7f4e487b7100000000000000000000000000000000000000000000000000000000600052602260045260246000fd5b6000601f19601f8301169050919050565b7f537472696e67733a20686578206c656e67746820696e73756666696369656e74600082015250565b7f45524332303a207472616e7366657220746f20746865207a65726f206164647260008201527f6573730000000000000000000000000000000000000000000000000000000000602082015250565b7f5061757361626c653a206e6f7420706175736564000000000000000000000000600082015250565b7f45524332303a206275726e20616d6f756e7420657863656564732062616c616e60008201527f6365000000000000000000000000000000000000000000000000000000000000602082015250565b7f45524332303a20617070726f766520746f20746865207a65726f20616464726560008201527f7373000000000000000000000000000000000000000000000000000000000000602082015250565b7f45524332303a20696e73756666696369656e7420616c6c6f77616e6365000000600082015250565b7f45524332303a207472616e7366657220616d6f756e742065786365656473206260008201527f616c616e63650000000000000000000000000000000000000000000000000000602082015250565b7f496e73756666696369656e74207661756c742062616c616e6365000000000000600082015250565b7f496e73756666696369656e742062616c616e6365000000000000000000000000600082015250565b7f416464726573733a20696e73756666696369656e742062616c616e636520666f60008201527f722063616c6c0000000000000000000000000000000000000000000000000000602082015250565b7f5061757361626c653a2070617573656400000000000000000000000000000000600082015250565b7f45524332303a206275726e2066726f6d20746865207a65726f2061646472657360008201527f7300000000000000000000000000000000000000000000000000000000000000602082015250565b7f45524332303a207472616e736665722066726f6d20746865207a65726f20616460008201527f6472657373000000000000000000000000000000000000000000000000000000602082015250565b7f43616c6c6572206973206e6f7420616e2041646d696e00000000000000000000600082015250565b7f45524332303a20617070726f76652066726f6d20746865207a65726f2061646460008201527f7265737300000000000000000000000000000000000000000000000000000000602082015250565b7f416464726573733a2063616c6c20746f206e6f6e2d636f6e7472616374000000600082015250565b7f416363657373436f6e74726f6c3a206163636f756e7420000000000000000000600082015250565b7f5361666545524332303a204552433230206f7065726174696f6e20646964206e60008201527f6f74207375636365656400000000000000000000000000000000000000000000602082015250565b7f5265656e7472616e637947756172643a207265656e7472616e742063616c6c00600082015250565b7f45524332303a2064656372656173656420616c6c6f77616e63652062656c6f7760008201527f207a65726f000000000000000000000000000000000000000000000000000000602082015250565b7f206973206d697373696e6720726f6c6520000000000000000000000000000000600082015250565b7f416363657373436f6e74726f6c3a2063616e206f6e6c792072656e6f756e636560008201527f20726f6c657320666f722073656c660000000000000000000000000000000000602082015250565b7f45524332303a206d696e7420746f20746865207a65726f206164647265737300600082015250565b6137ae816130cb565b81146137b957600080fd5b50565b6137c5816130dd565b81146137d057600080fd5b50565b6137dc816130e9565b81146137e757600080fd5b50565b6137f3816130f3565b81146137fe57600080fd5b50565b61380a8161313f565b811461381557600080fd5b50565b61382181613149565b811461382c57600080fd5b5056fea2646970667358221220c7cc0753cecd51b41e8251ad3c0836b032401ab58b2a2ca86a3511a1b3c8132464736f6c63430008010033",
  "linkReferences": {},
  "deployedLinkReferences": {}
}