{
  "_format": "hh-sol-artifact-1",
  "contractName": "StableVault",
  "sourceName": "contracts/StableVault.sol",
  "abi": [
    {
      "inputs": [
        {
          "internalType": "address",
          "name": "admin",
          "type": "address"
        },
        {
          "internalType": "string",
          "name": "tokenName",
          "type": "string"
        },
        {
          "internalType": "string",
          "name": "tokenSymbol",
          "type": "string"
        }
      ],
      "stateMutability": "nonpayable",
      "type": "constructor"
    },
    {
      "anonymous": false,
      "inputs": [
        {
          "indexed": true,
          "internalType": "address",
          "name": "owner",
          "type": "address"
        },
        {
          "indexed": true,
          "internalType": "address",
          "name": "spender",
          "type": "address"
        },
        {
          "indexed": false,
          "internalType": "uint256",
          "name": "value",
          "type": "uint256"
        }
      ],
      "name": "Approval",
      "type": "event"
    },
    {
      "anonymous": false,
      "inputs": [
        {
          "indexed": false,
          "internalType": "uint256",
          "name": "_vaultBalance",
          "type": "uint256"
        }
      ],
      "name": "BalanceUpdated",
      "type": "event"
    },
    {
      "anonymous": false,
      "inputs": [
        {
          "indexed": true,
          "internalType": "address",
          "name": "new_admin",
          "type": "address"
        }
      ],
      "name": "NewAdminAdded",
      "type": "event"
    },
    {
      "anonymous": false,
      "inputs": [
        {
          "indexed": false,
          "internalType": "address",
          "name": "account",
          "type": "address"
        }
      ],
      "name": "Paused",
      "type": "event"
    },
    {
      "anonymous": false,
      "inputs": [
        {
          "indexed": true,
          "internalType": "address",
          "name": "removed_admin",
          "type": "address"
        }
      ],
      "name": "RemovedAdmin",
      "type": "event"
    },
    {
      "anonymous": false,
      "inputs": [
        {
          "indexed": true,
          "internalType": "bytes32",
          "name": "role",
          "type": "bytes32"
        },
        {
          "indexed": true,
          "internalType": "bytes32",
          "name": "previousAdminRole",
          "type": "bytes32"
        },
        {
          "indexed": true,
          "internalType": "bytes32",
          "name": "newAdminRole",
          "type": "bytes32"
        }
      ],
      "name": "RoleAdminChanged",
      "type": "event"
    },
    {
      "anonymous": false,
      "inputs": [
        {
          "indexed": true,
          "internalType": "bytes32",
          "name": "role",
          "type": "bytes32"
        },
        {
          "indexed": true,
          "internalType": "address",
          "name": "account",
          "type": "address"
        },
        {
          "indexed": true,
          "internalType": "address",
          "name": "sender",
          "type": "address"
        }
      ],
      "name": "RoleGranted",
      "type": "event"
    },
    {
      "anonymous": false,
      "inputs": [
        {
          "indexed": true,
          "internalType": "bytes32",
          "name": "role",
          "type": "bytes32"
        },
        {
          "indexed": true,
          "internalType": "address",
          "name": "account",
          "type": "address"
        },
        {
          "indexed": true,
          "internalType": "address",
          "name": "sender",
          "type": "address"
        }
      ],
      "name": "RoleRevoked",
      "type": "event"
    },
    {
      "anonymous": false,
      "inputs": [
        {
          "indexed": true,
          "internalType": "address",
          "name": "from",
          "type": "address"
        },
        {
          "indexed": true,
          "internalType": "address",
          "name": "to",
          "type": "address"
        },
        {
          "indexed": false,
          "internalType": "uint256",
          "name": "value",
          "type": "uint256"
        }
      ],
      "name": "Transfer",
      "type": "event"
    },
    {
      "anonymous": false,
      "inputs": [
        {
          "indexed": false,
          "internalType": "address",
          "name": "account",
          "type": "address"
        }
      ],
      "name": "Unpaused",
      "type": "event"
    },
    {
      "anonymous": false,
      "inputs": [
        {
          "indexed": true,
          "internalType": "address",
          "name": "user",
          "type": "address"
        },
        {
          "indexed": false,
          "internalType": "uint256",
          "name": "amount",
          "type": "uint256"
        },
        {
          "indexed": true,
          "internalType": "address",
          "name": "asset",
          "type": "address"
        }
      ],
      "name": "Withdrawal",
      "type": "event"
    },
    {
      "inputs": [],
      "name": "DEFAULT_ADMIN_ROLE",
      "outputs": [
        {
          "internalType": "bytes32",
          "name": "",
          "type": "bytes32"
        }
      ],
      "stateMutability": "view",
      "type": "function"
    },
    {
      "inputs": [
        {
          "internalType": "address",
          "name": "account",
          "type": "address"
        }
      ],
      "name": "addAdmin",
      "outputs": [],
      "stateMutability": "nonpayable",
      "type": "function"
    },
    {
      "inputs": [
        {
          "internalType": "address",
          "name": "owner",
          "type": "address"
        },
        {
          "internalType": "address",
          "name": "spender",
          "type": "address"
        }
      ],
      "name": "allowance",
      "outputs": [
        {
          "internalType": "uint256",
          "name": "",
          "type": "uint256"
        }
      ],
      "stateMutability": "view",
      "type": "function"
    },
    {
      "inputs": [
        {
          "internalType": "address",
          "name": "spender",
          "type": "address"
        },
        {
          "internalType": "uint256",
          "name": "amount",
          "type": "uint256"
        }
      ],
      "name": "approve",
      "outputs": [
        {
          "internalType": "bool",
          "name": "",
          "type": "bool"
        }
      ],
      "stateMutability": "nonpayable",
      "type": "function"
    },
    {
      "inputs": [
        {
          "internalType": "address",
          "name": "account",
          "type": "address"
        }
      ],
      "name": "balanceOf",
      "outputs": [
        {
          "internalType": "uint256",
          "name": "",
          "type": "uint256"
        }
      ],
      "stateMutability": "view",
      "type": "function"
    },
    {
      "inputs": [],
      "name": "decimals",
      "outputs": [
        {
          "internalType": "uint8",
          "name": "",
          "type": "uint8"
        }
      ],
      "stateMutability": "view",
      "type": "function"
    },
    {
      "inputs": [
        {
          "internalType": "address",
          "name": "spender",
          "type": "address"
        },
        {
          "internalType": "uint256",
          "name": "subtractedValue",
          "type": "uint256"
        }
      ],
      "name": "decreaseAllowance",
      "outputs": [
        {
          "internalType": "bool",
          "name": "",
          "type": "bool"
        }
      ],
      "stateMutability": "nonpayable",
      "type": "function"
    },
    {
      "inputs": [
        {
          "internalType": "uint256",
          "name": "amount",
          "type": "uint256"
        },
        {
          "internalType": "address",
          "name": "_asset",
          "type": "address"
        },
        {
          "internalType": "address",
          "name": "_beneficiary",
          "type": "address"
        }
      ],
      "name": "deposit",
      "outputs": [
        {
          "internalType": "bool",
          "name": "",
          "type": "bool"
        }
      ],
      "stateMutability": "nonpayable",
      "type": "function"
    },
    {
      "inputs": [
        {
          "internalType": "bytes32",
          "name": "role",
          "type": "bytes32"
        }
      ],
      "name": "getRoleAdmin",
      "outputs": [
        {
          "internalType": "bytes32",
          "name": "",
          "type": "bytes32"
        }
      ],
      "stateMutability": "view",
      "type": "function"
    },
    {
      "inputs": [
        {
          "internalType": "bytes32",
          "name": "role",
          "type": "bytes32"
        },
        {
          "internalType": "address",
          "name": "account",
          "type": "address"
        }
      ],
      "name": "grantRole",
      "outputs": [],
      "stateMutability": "nonpayable",
      "type": "function"
    },
    {
      "inputs": [
        {
          "internalType": "bytes32",
          "name": "role",
          "type": "bytes32"
        },
        {
          "internalType": "address",
          "name": "account",
          "type": "address"
        }
      ],
      "name": "hasRole",
      "outputs": [
        {
          "internalType": "bool",
          "name": "",
          "type": "bool"
        }
      ],
      "stateMutability": "view",
      "type": "function"
    },
    {
      "inputs": [
        {
          "internalType": "address",
          "name": "spender",
          "type": "address"
        },
        {
          "internalType": "uint256",
          "name": "addedValue",
          "type": "uint256"
        }
      ],
      "name": "increaseAllowance",
      "outputs": [
        {
          "internalType": "bool",
          "name": "",
          "type": "bool"
        }
      ],
      "stateMutability": "nonpayable",
      "type": "function"
    },
    {
      "inputs": [],
      "name": "name",
      "outputs": [
        {
          "internalType": "string",
          "name": "",
          "type": "string"
        }
      ],
      "stateMutability": "view",
      "type": "function"
    },
    {
      "inputs": [],
      "name": "pause",
      "outputs": [],
      "stateMutability": "nonpayable",
      "type": "function"
    },
    {
      "inputs": [],
      "name": "paused",
      "outputs": [
        {
          "internalType": "bool",
          "name": "",
          "type": "bool"
        }
      ],
      "stateMutability": "view",
      "type": "function"
    },
    {
      "inputs": [
        {
          "internalType": "address",
          "name": "account",
          "type": "address"
        }
      ],
      "name": "removeAdmin",
      "outputs": [],
      "stateMutability": "nonpayable",
      "type": "function"
    },
    {
      "inputs": [
        {
          "internalType": "bytes32",
          "name": "role",
          "type": "bytes32"
        },
        {
          "internalType": "address",
          "name": "account",
          "type": "address"
        }
      ],
      "name": "renounceRole",
      "outputs": [],
      "stateMutability": "nonpayable",
      "type": "function"
    },
    {
      "inputs": [
        {
          "internalType": "bytes32",
          "name": "role",
          "type": "bytes32"
        },
        {
          "internalType": "address",
          "name": "account",
          "type": "address"
        }
      ],
      "name": "revokeRole",
      "outputs": [],
      "stateMutability": "nonpayable",
      "type": "function"
    },
    {
      "inputs": [
        {
          "internalType": "bytes4",
          "name": "interfaceId",
          "type": "bytes4"
        }
      ],
      "name": "supportsInterface",
      "outputs": [
        {
          "internalType": "bool",
          "name": "",
          "type": "bool"
        }
      ],
      "stateMutability": "view",
      "type": "function"
    },
    {
      "inputs": [],
      "name": "symbol",
      "outputs": [
        {
          "internalType": "string",
          "name": "",
          "type": "string"
        }
      ],
      "stateMutability": "view",
      "type": "function"
    },
    {
      "inputs": [],
      "name": "totalSupply",
      "outputs": [
        {
          "internalType": "uint256",
          "name": "",
          "type": "uint256"
        }
      ],
      "stateMutability": "view",
      "type": "function"
    },
    {
      "inputs": [
        {
          "internalType": "address",
          "name": "to",
          "type": "address"
        },
        {
          "internalType": "uint256",
          "name": "amount",
          "type": "uint256"
        }
      ],
      "name": "transfer",
      "outputs": [
        {
          "internalType": "bool",
          "name": "",
          "type": "bool"
        }
      ],
      "stateMutability": "nonpayable",
      "type": "function"
    },
    {
      "inputs": [
        {
          "internalType": "address",
          "name": "from",
          "type": "address"
        },
        {
          "internalType": "address",
          "name": "to",
          "type": "address"
        },
        {
          "internalType": "uint256",
          "name": "amount",
          "type": "uint256"
        }
      ],
      "name": "transferFrom",
      "outputs": [
        {
          "internalType": "bool",
          "name": "",
          "type": "bool"
        }
      ],
      "stateMutability": "nonpayable",
      "type": "function"
    },
    {
      "inputs": [],
      "name": "unpause",
      "outputs": [],
      "stateMutability": "nonpayable",
      "type": "function"
    },
    {
      "inputs": [],
      "name": "vaultBalance",
      "outputs": [
        {
          "internalType": "uint256",
          "name": "",
          "type": "uint256"
        }
      ],
      "stateMutability": "view",
      "type": "function"
    },
    {
      "inputs": [
        {
          "internalType": "uint256",
          "name": "amount",
          "type": "uint256"
        },
        {
          "internalType": "address",
          "name": "_asset",
          "type": "address"
        }
      ],
      "name": "withdraw",
      "outputs": [
        {
          "internalType": "bool",
          "name": "",
          "type": "bool"
        }
      ],
      "stateMutability": "nonpayable",
      "type": "function"
    }
  ],
  "bytecode": "0x60806040523480156200001157600080fd5b5060405162003e0438038062003e04833981810160405281019062000037919062000363565b81818460016000819055506000600260006101000a81548160ff021916908315150217905550620000726000801b82620000b060201b60201c565b5081600690805190602001906200008b9291906200022a565b508060079080519060200190620000a49291906200022a565b505050505050620005a9565b620000c28282620000c660201b60201c565b5050565b620000d88282620001b760201b60201c565b620001b357600180600084815260200190815260200160002060000160008373ffffffffffffffffffffffffffffffffffffffff1673ffffffffffffffffffffffffffffffffffffffff16815260200190815260200160002060006101000a81548160ff021916908315150217905550620001586200022260201b60201c565b73ffffffffffffffffffffffffffffffffffffffff168173ffffffffffffffffffffffffffffffffffffffff16837f2f8788117e7eff1d82e926ec794901d17c78024a50270940304540a733656f0d60405160405180910390a45b5050565b60006001600084815260200190815260200160002060000160008373ffffffffffffffffffffffffffffffffffffffff1673ffffffffffffffffffffffffffffffffffffffff16815260200190815260200160002060009054906101000a900460ff16905092915050565b600033905090565b8280546200023890620004b4565b90600052602060002090601f0160209004810192826200025c5760008555620002a8565b82601f106200027757805160ff1916838001178555620002a8565b82800160010185558215620002a8579182015b82811115620002a75782518255916020019190600101906200028a565b5b509050620002b79190620002bb565b5090565b5b80821115620002d6576000816000905550600101620002bc565b5090565b6000620002f1620002eb8462000414565b620003eb565b9050828152602081018484840111156200030a57600080fd5b620003178482856200047e565b509392505050565b60008151905062000330816200058f565b92915050565b600082601f8301126200034857600080fd5b81516200035a848260208601620002da565b91505092915050565b6000806000606084860312156200037957600080fd5b600062000389868287016200031f565b935050602084015167ffffffffffffffff811115620003a757600080fd5b620003b58682870162000336565b925050604084015167ffffffffffffffff811115620003d357600080fd5b620003e18682870162000336565b9150509250925092565b6000620003f76200040a565b9050620004058282620004ea565b919050565b6000604051905090565b600067ffffffffffffffff8211156200043257620004316200054f565b5b6200043d826200057e565b9050602081019050919050565b600062000457826200045e565b9050919050565b600073ffffffffffffffffffffffffffffffffffffffff82169050919050565b60005b838110156200049e57808201518184015260208101905062000481565b83811115620004ae576000848401525b50505050565b60006002820490506001821680620004cd57607f821691505b60208210811415620004e457620004e362000520565b5b50919050565b620004f5826200057e565b810181811067ffffffffffffffff821117156200051757620005166200054f565b5b80604052505050565b7f4e487b7100000000000000000000000000000000000000000000000000000000600052602260045260246000fd5b7f4e487b7100000000000000000000000000000000000000000000000000000000600052604160045260246000fd5b6000601f19601f8301169050919050565b6200059a816200044a565b8114620005a657600080fd5b50565b61384b80620005b96000396000f3fe608060405234801561001057600080fd5b506004361061018d5760003560e01c806339509351116100de57806391d1485411610097578063a457c2d711610071578063a457c2d714610498578063a9059cbb146104c8578063d547741f146104f8578063dd62ed3e146105145761018d565b806391d148541461042c57806395d89b411461045c578063a217fddf1461047a5761018d565b8063395093511461037e5780633f4ba83a146103ae5780635c975abb146103b857806370480275146103d657806370a08231146103f25780638456cb59146104225761018d565b806318160ddd1161014b5780632e2d2984116101255780632e2d2984146102f85780632f2ff15d14610328578063313ce5671461034457806336568abe146103625761018d565b806318160ddd1461027a57806323b872dd14610298578063248a9ca3146102c85761018d565b8062f714ce1461019257806301ffc9a7146101c257806306fdde03146101f2578063095ea7b3146102105780630bf6cc08146102405780631785f53c1461025e575b600080fd5b6101ac60048036038101906101a791906126db565b610544565b6040516101b99190612c66565b60405180910390f35b6101dc60048036038101906101d791906126b2565b610664565b6040516101e99190612c66565b60405180910390f35b6101fa6106de565b6040516102079190612c9c565b60405180910390f35b61022a600480360381019061022591906125e8565b610770565b6040516102379190612c66565b60405180910390f35b610248610793565b6040516102559190612f8e565b60405180910390f35b61027860048036038101906102739190612534565b61079d565b005b610282610844565b60405161028f9190612f8e565b60405180910390f35b6102b260048036038101906102ad9190612599565b61084e565b6040516102bf9190612c66565b60405180910390f35b6102e260048036038101906102dd919061264d565b61087d565b6040516102ef9190612c81565b60405180910390f35b610312600480360381019061030d9190612717565b61089d565b60405161031f9190612c66565b60405180910390f35b610342600480360381019061033d9190612676565b61098f565b005b61034c6109b0565b6040516103599190612fa9565b60405180910390f35b61037c60048036038101906103779190612676565b6109b9565b005b610398600480360381019061039391906125e8565b610a3c565b6040516103a59190612c66565b60405180910390f35b6103b6610a73565b005b6103c0610ad1565b6040516103cd9190612c66565b60405180910390f35b6103f060048036038101906103eb9190612534565b610ae8565b005b61040c60048036038101906104079190612534565b610b8f565b6040516104199190612f8e565b60405180910390f35b61042a610bd8565b005b61044660048036038101906104419190612676565b610c36565b6040516104539190612c66565b60405180910390f35b610464610ca1565b6040516104719190612c9c565b60405180910390f35b610482610d33565b60405161048f9190612c81565b60405180910390f35b6104b260048036038101906104ad91906125e8565b610d3a565b6040516104bf9190612c66565b60405180910390f35b6104e260048036038101906104dd91906125e8565b610db1565b6040516104ef9190612c66565b60405180910390f35b610512600480360381019061050d9190612676565b610dd4565b005b61052e6004803603810190610529919061255d565b610df5565b60405161053b9190612f8e565b60405180910390f35b600061054e610e7c565b610556610ecc565b60006105628484610f16565b90508061056e33610b8f565b10156105af576040517f08c379a00000000000000000000000000000000000000000000000000000000081526004016105a690612dee565b60405180910390fd5b6105b93382611008565b6105e433858573ffffffffffffffffffffffffffffffffffffffff166111d89092919063ffffffff16565b6105ed8161125e565b8273ffffffffffffffffffffffffffffffffffffffff163373ffffffffffffffffffffffffffffffffffffffff167e1a143d5b175701cb3246058ffac3d63945192075a926ff73a19930f09d587a836040516106499190612f8e565b60405180910390a3600191505061065e6112ed565b92915050565b60007f7965db0b000000000000000000000000000000000000000000000000000000007bffffffffffffffffffffffffffffffffffffffffffffffffffffffff1916827bffffffffffffffffffffffffffffffffffffffffffffffffffffffff191614806106d757506106d6826112f7565b5b9050919050565b6060600680546106ed90613199565b80601f016020809104026020016040519081016040528092919081815260200182805461071990613199565b80156107665780601f1061073b57610100808354040283529160200191610766565b820191906000526020600020905b81548152906001019060200180831161074957829003601f168201915b5050505050905090565b60008061077b611361565b9050610788818585611369565b600191505092915050565b6000600854905090565b6107aa6000801b33610c36565b6107e9576040517f08c379a00000000000000000000000000000000000000000000000000000000081526004016107e090612e8e565b60405180910390fd5b6107f1610ecc565b6107fe6000801b82611534565b8073ffffffffffffffffffffffffffffffffffffffff167f3137a7fedbfedb7895dfa5a6812a4566dae9ded68d00aeec13c6ed1fa84a1c8060405160405180910390a250565b6000600554905090565b600080610859611361565b9050610866858285611616565b6108718585856116a2565b60019150509392505050565b600060016000838152602001908152602001600020600101549050919050565b60006108a7610e7c565b6108af610ecc565b60006108bb8585610f16565b90506108fc6040518060400160405280601081526020017f4465706f73697420616d6f756e743a20000000000000000000000000000000008152508661191d565b61093b6040518060400160405280601981526020017f4465706f73697420636f72726563746564416d6f756e743a20000000000000008152508261191d565b6109683330878773ffffffffffffffffffffffffffffffffffffffff166119b9909392919063ffffffff16565b6109728382611a42565b61097b81611b9a565b60019150506109886112ed565b9392505050565b6109988261087d565b6109a181611be4565b6109ab8383611bf8565b505050565b60006012905090565b6109c1611361565b73ffffffffffffffffffffffffffffffffffffffff168173ffffffffffffffffffffffffffffffffffffffff1614610a2e576040517f08c379a0000000000000000000000000000000000000000000000000000000008152600401610a2590612f4e565b60405180910390fd5b610a388282611534565b5050565b600080610a47611361565b9050610a68818585610a598589610df5565b610a639190613001565b611369565b600191505092915050565b610a806000801b33610c36565b610abf576040517f08c379a0000000000000000000000000000000000000000000000000000000008152600401610ab690612e8e565b60405180910390fd5b610ac7611cd8565b610acf611d21565b565b6000600260009054906101000a900460ff16905090565b610af56000801b33610c36565b610b34576040517f08c379a0000000000000000000000000000000000000000000000000000000008152600401610b2b90612e8e565b60405180910390fd5b610b3c610ecc565b610b496000801b82611d84565b8073ffffffffffffffffffffffffffffffffffffffff167f2dbe9fb88463d989acccabbb6ee06901f83672eb78e04a11ff48dd8f69a27cda60405160405180910390a250565b6000600360008373ffffffffffffffffffffffffffffffffffffffff1673ffffffffffffffffffffffffffffffffffffffff168152602001908152602001600020549050919050565b610be56000801b33610c36565b610c24576040517f08c379a0000000000000000000000000000000000000000000000000000000008152600401610c1b90612e8e565b60405180910390fd5b610c2c610ecc565b610c34611d92565b565b60006001600084815260200190815260200160002060000160008373ffffffffffffffffffffffffffffffffffffffff1673ffffffffffffffffffffffffffffffffffffffff16815260200190815260200160002060009054906101000a900460ff16905092915050565b606060078054610cb090613199565b80601f0160208091040260200160405190810160405280929190818152602001828054610cdc90613199565b8015610d295780601f10610cfe57610100808354040283529160200191610d29565b820191906000526020600020905b815481529060010190602001808311610d0c57829003601f168201915b5050505050905090565b6000801b81565b600080610d45611361565b90506000610d538286610df5565b905083811015610d98576040517f08c379a0000000000000000000000000000000000000000000000000000000008152600401610d8f90612f2e565b60405180910390fd5b610da58286868403611369565b60019250505092915050565b600080610dbc611361565b9050610dc98185856116a2565b600191505092915050565b610ddd8261087d565b610de681611be4565b610df08383611534565b505050565b6000600460008473ffffffffffffffffffffffffffffffffffffffff1673ffffffffffffffffffffffffffffffffffffffff16815260200190815260200160002060008373ffffffffffffffffffffffffffffffffffffffff1673ffffffffffffffffffffffffffffffffffffffff16815260200190815260200160002054905092915050565b60026000541415610ec2576040517f08c379a0000000000000000000000000000000000000000000000000000000008152600401610eb990612f0e565b60405180910390fd5b6002600081905550565b610ed4610ad1565b15610f14576040517f08c379a0000000000000000000000000000000000000000000000000000000008152600401610f0b90612e2e565b60405180910390fd5b565b6000808273ffffffffffffffffffffffffffffffffffffffff1663313ce5676040518163ffffffff1660e01b815260040160206040518083038186803b158015610f5f57600080fd5b505afa158015610f73573d6000803e3d6000fd5b505050506040513d601f19601f82011682018060405250810190610f979190612766565b60ff16905060128114610ffe576012811115610ff15760128103600a0a8481610fe9577f4e487b7100000000000000000000000000000000000000000000000000000000600052601260045260246000fd5b049350610ffd565b80601203600a0a840293505b5b8391505092915050565b600073ffffffffffffffffffffffffffffffffffffffff168273ffffffffffffffffffffffffffffffffffffffff161415611078576040517f08c379a000000000000000000000000000000000000000000000000000000000815260040161106f90612e4e565b60405180910390fd5b61108482600083611df5565b6000600360008473ffffffffffffffffffffffffffffffffffffffff1673ffffffffffffffffffffffffffffffffffffffff1681526020019081526020016000205490508181101561110b576040517f08c379a000000000000000000000000000000000000000000000000000000000815260040161110290612d4e565b60405180910390fd5b818103600360008573ffffffffffffffffffffffffffffffffffffffff1673ffffffffffffffffffffffffffffffffffffffff1681526020019081526020016000208190555081600560008282540392505081905550600073ffffffffffffffffffffffffffffffffffffffff168373ffffffffffffffffffffffffffffffffffffffff167fddf252ad1be2c89b69c2b068fc378daa952ba7f163c4a11628f55a4df523b3ef846040516111bf9190612f8e565b60405180910390a36111d383600084611dfa565b505050565b6112598363a9059cbb60e01b84846040516024016111f7929190612c3d565b604051602081830303815290604052907bffffffffffffffffffffffffffffffffffffffffffffffffffffffff19166020820180517bffffffffffffffffffffffffffffffffffffffffffffffffffffffff8381831617835250505050611dff565b505050565b8060085410156112a3576040517f08c379a000000000000000000000000000000000000000000000000000000000815260040161129a90612dce565b60405180910390fd5b806008600082825403925050819055507f04be25a4c0fe4c39136ca055daaac08ac6b3041b2e1f2a1b698bac12f1cbdc4a816040516112e29190612f8e565b60405180910390a150565b6001600081905550565b60007f01ffc9a7000000000000000000000000000000000000000000000000000000007bffffffffffffffffffffffffffffffffffffffffffffffffffffffff1916827bffffffffffffffffffffffffffffffffffffffffffffffffffffffff1916149050919050565b600033905090565b600073ffffffffffffffffffffffffffffffffffffffff168373ffffffffffffffffffffffffffffffffffffffff1614156113d9576040517f08c379a00000000000000000000000000000000000000000000000000000000081526004016113d090612eae565b60405180910390fd5b600073ffffffffffffffffffffffffffffffffffffffff168273ffffffffffffffffffffffffffffffffffffffff161415611449576040517f08c379a000000000000000000000000000000000000000000000000000000000815260040161144090612d6e565b60405180910390fd5b80600460008573ffffffffffffffffffffffffffffffffffffffff1673ffffffffffffffffffffffffffffffffffffffff16815260200190815260200160002060008473ffffffffffffffffffffffffffffffffffffffff1673ffffffffffffffffffffffffffffffffffffffff168152602001908152602001600020819055508173ffffffffffffffffffffffffffffffffffffffff168373ffffffffffffffffffffffffffffffffffffffff167f8c5be1e5ebec7d5bd14f71427d1e84f3dd0314c0f7b2291e5b200ac8c7c3b925836040516115279190612f8e565b60405180910390a3505050565b61153e8282610c36565b156116125760006001600084815260200190815260200160002060000160008373ffffffffffffffffffffffffffffffffffffffff1673ffffffffffffffffffffffffffffffffffffffff16815260200190815260200160002060006101000a81548160ff0219169083151502179055506115b7611361565b73ffffffffffffffffffffffffffffffffffffffff168173ffffffffffffffffffffffffffffffffffffffff16837ff6391f5c32d9c69d2a47ea670b442974b53935d1edc7fd64eb21e047a839171b60405160405180910390a45b5050565b60006116228484610df5565b90507fffffffffffffffffffffffffffffffffffffffffffffffffffffffffffffffff811461169c578181101561168e576040517f08c379a000000000000000000000000000000000000000000000000000000000815260040161168590612d8e565b60405180910390fd5b61169b8484848403611369565b5b50505050565b600073ffffffffffffffffffffffffffffffffffffffff168373ffffffffffffffffffffffffffffffffffffffff161415611712576040517f08c379a000000000000000000000000000000000000000000000000000000000815260040161170990612e6e565b60405180910390fd5b600073ffffffffffffffffffffffffffffffffffffffff168273ffffffffffffffffffffffffffffffffffffffff161415611782576040517f08c379a000000000000000000000000000000000000000000000000000000000815260040161177990612d0e565b60405180910390fd5b61178d838383611df5565b6000600360008573ffffffffffffffffffffffffffffffffffffffff1673ffffffffffffffffffffffffffffffffffffffff16815260200190815260200160002054905081811015611814576040517f08c379a000000000000000000000000000000000000000000000000000000000815260040161180b90612dae565b60405180910390fd5b818103600360008673ffffffffffffffffffffffffffffffffffffffff1673ffffffffffffffffffffffffffffffffffffffff1681526020019081526020016000208190555081600360008573ffffffffffffffffffffffffffffffffffffffff1673ffffffffffffffffffffffffffffffffffffffff168152602001908152602001600020600082825401925050819055508273ffffffffffffffffffffffffffffffffffffffff168473ffffffffffffffffffffffffffffffffffffffff167fddf252ad1be2c89b69c2b068fc378daa952ba7f163c4a11628f55a4df523b3ef846040516119049190612f8e565b60405180910390a3611917848484611dfa565b50505050565b6119b58282604051602401611933929190612cbe565b6040516020818303038152906040527fb60e72cc000000000000000000000000000000000000000000000000000000007bffffffffffffffffffffffffffffffffffffffffffffffffffffffff19166020820180517bffffffffffffffffffffffffffffffffffffffffffffffffffffffff8381831617835250505050611ec7565b5050565b611a3c846323b872dd60e01b8585856040516024016119da93929190612c06565b604051602081830303815290604052907bffffffffffffffffffffffffffffffffffffffffffffffffffffffff19166020820180517bffffffffffffffffffffffffffffffffffffffffffffffffffffffff8381831617835250505050611dff565b50505050565b600073ffffffffffffffffffffffffffffffffffffffff168273ffffffffffffffffffffffffffffffffffffffff161415611ab2576040517f08c379a0000000000000000000000000000000000000000000000000000000008152600401611aa990612f6e565b60405180910390fd5b611abe60008383611df5565b8060056000828254611ad09190613001565b9250508190555080600360008473ffffffffffffffffffffffffffffffffffffffff1673ffffffffffffffffffffffffffffffffffffffff168152602001908152602001600020600082825401925050819055508173ffffffffffffffffffffffffffffffffffffffff16600073ffffffffffffffffffffffffffffffffffffffff167fddf252ad1be2c89b69c2b068fc378daa952ba7f163c4a11628f55a4df523b3ef83604051611b829190612f8e565b60405180910390a3611b9660008383611dfa565b5050565b806008600082825401925050819055507f04be25a4c0fe4c39136ca055daaac08ac6b3041b2e1f2a1b698bac12f1cbdc4a81604051611bd99190612f8e565b60405180910390a150565b611bf581611bf0611361565b611ee1565b50565b611c028282610c36565b611cd457600180600084815260200190815260200160002060000160008373ffffffffffffffffffffffffffffffffffffffff1673ffffffffffffffffffffffffffffffffffffffff16815260200190815260200160002060006101000a81548160ff021916908315150217905550611c79611361565b73ffffffffffffffffffffffffffffffffffffffff168173ffffffffffffffffffffffffffffffffffffffff16837f2f8788117e7eff1d82e926ec794901d17c78024a50270940304540a733656f0d60405160405180910390a45b5050565b611ce0610ad1565b611d1f576040517f08c379a0000000000000000000000000000000000000000000000000000000008152600401611d1690612d2e565b60405180910390fd5b565b611d29611cd8565b6000600260006101000a81548160ff0219169083151502179055507f5db9ee0a495bf2e6ff9c91a7834c1ba4fdd244a5e8aa4e537bd38aeae4b073aa611d6d611361565b604051611d7a9190612beb565b60405180910390a1565b611d8e8282611bf8565b5050565b611d9a610ecc565b6001600260006101000a81548160ff0219169083151502179055507f62e78cea01bee320cd4e420270b5ea74000d11b0c9f74754ebdbfc544b05a258611dde611361565b604051611deb9190612beb565b60405180910390a1565b505050565b505050565b6000611e61826040518060400160405280602081526020017f5361666545524332303a206c6f772d6c6576656c2063616c6c206661696c65648152508573ffffffffffffffffffffffffffffffffffffffff16611f669092919063ffffffff16565b9050600081511480611e83575080806020019051810190611e829190612624565b5b611ec2576040517f08c379a0000000000000000000000000000000000000000000000000000000008152600401611eb990612eee565b60405180910390fd5b505050565b611ede81611ed6611f7e611f9f565b63ffffffff16565b50565b611eeb8282610c36565b611f6257611ef881611faa565b611f068360001c6020611fd7565b604051602001611f17929190612bb1565b6040516020818303038152906040526040517f08c379a0000000000000000000000000000000000000000000000000000000008152600401611f599190612c9c565b60405180910390fd5b5050565b6060611f7584846000856122d1565b90509392505050565b60006a636f6e736f6c652e6c6f679050600080835160208501845afa505050565b612487819050919050565b6060611fd08273ffffffffffffffffffffffffffffffffffffffff16601460ff16611fd7565b9050919050565b606060006002836002611fea9190613057565b611ff49190613001565b67ffffffffffffffff811115612033577f4e487b7100000000000000000000000000000000000000000000000000000000600052604160045260246000fd5b6040519080825280601f01601f1916602001820160405280156120655781602001600182028036833780820191505090505b5090507f3000000000000000000000000000000000000000000000000000000000000000816000815181106120c3577f4e487b7100000000000000000000000000000000000000000000000000000000600052603260045260246000fd5b60200101907effffffffffffffffffffffffffffffffffffffffffffffffffffffffffffff1916908160001a9053507f78000000000000000000000000000000000000000000000000000000000000008160018151811061214d577f4e487b7100000000000000000000000000000000000000000000000000000000600052603260045260246000fd5b60200101907effffffffffffffffffffffffffffffffffffffffffffffffffffffffffffff1916908160001a9053506000600184600261218d9190613057565b6121979190613001565b90505b6001811115612283577f3031323334353637383961626364656600000000000000000000000000000000600f8616601081106121ff577f4e487b7100000000000000000000000000000000000000000000000000000000600052603260045260246000fd5b1a60f81b82828151811061223c577f4e487b7100000000000000000000000000000000000000000000000000000000600052603260045260246000fd5b60200101907effffffffffffffffffffffffffffffffffffffffffffffffffffffffffffff1916908160001a905350600485901c94508061227c9061316f565b905061219a565b50600084146122c7576040517f08c379a00000000000000000000000000000000000000000000000000000000081526004016122be90612cee565b60405180910390fd5b8091505092915050565b606082471015612316576040517f08c379a000000000000000000000000000000000000000000000000000000000815260040161230d90612e0e565b60405180910390fd5b6000808673ffffffffffffffffffffffffffffffffffffffff16858760405161233f9190612b9a565b60006040518083038185875af1925050503d806000811461237c576040519150601f19603f3d011682016040523d82523d6000602084013e612381565b606091505b50915091506123928783838761239e565b92505050949350505050565b60608315612401576000835114156123f9576123b985612414565b6123f8576040517f08c379a00000000000000000000000000000000000000000000000000000000081526004016123ef90612ece565b60405180910390fd5b5b82905061240c565b61240b8383612437565b5b949350505050565b6000808273ffffffffffffffffffffffffffffffffffffffff163b119050919050565b60008251111561244a5781518083602001fd5b806040517f08c379a000000000000000000000000000000000000000000000000000000000815260040161247e9190612c9c565b60405180910390fd5b7f4e487b7100000000000000000000000000000000000000000000000000000000600052605160045260246000fd5b6000813590506124c58161378b565b92915050565b6000815190506124da816137a2565b92915050565b6000813590506124ef816137b9565b92915050565b600081359050612504816137d0565b92915050565b600081359050612519816137e7565b92915050565b60008151905061252e816137fe565b92915050565b60006020828403121561254657600080fd5b6000612554848285016124b6565b91505092915050565b6000806040838503121561257057600080fd5b600061257e858286016124b6565b925050602061258f858286016124b6565b9150509250929050565b6000806000606084860312156125ae57600080fd5b60006125bc868287016124b6565b93505060206125cd868287016124b6565b92505060406125de8682870161250a565b9150509250925092565b600080604083850312156125fb57600080fd5b6000612609858286016124b6565b925050602061261a8582860161250a565b9150509250929050565b60006020828403121561263657600080fd5b6000612644848285016124cb565b91505092915050565b60006020828403121561265f57600080fd5b600061266d848285016124e0565b91505092915050565b6000806040838503121561268957600080fd5b6000612697858286016124e0565b92505060206126a8858286016124b6565b9150509250929050565b6000602082840312156126c457600080fd5b60006126d2848285016124f5565b91505092915050565b600080604083850312156126ee57600080fd5b60006126fc8582860161250a565b925050602061270d858286016124b6565b9150509250929050565b60008060006060848603121561272c57600080fd5b600061273a8682870161250a565b935050602061274b868287016124b6565b925050604061275c868287016124b6565b9150509250925092565b60006020828403121561277857600080fd5b60006127868482850161251f565b91505092915050565b612798816130b1565b82525050565b6127a7816130c3565b82525050565b6127b6816130cf565b82525050565b60006127c782612fc4565b6127d18185612fda565b93506127e181856020860161313c565b80840191505092915050565b60006127f882612fcf565b6128028185612fe5565b935061281281856020860161313c565b61281b81613229565b840191505092915050565b600061283182612fcf565b61283b8185612ff6565b935061284b81856020860161313c565b80840191505092915050565b6000612864602083612fe5565b915061286f8261323a565b602082019050919050565b6000612887602383612fe5565b915061289282613263565b604082019050919050565b60006128aa601483612fe5565b91506128b5826132b2565b602082019050919050565b60006128cd602283612fe5565b91506128d8826132db565b604082019050919050565b60006128f0602283612fe5565b91506128fb8261332a565b604082019050919050565b6000612913601d83612fe5565b915061291e82613379565b602082019050919050565b6000612936602683612fe5565b9150612941826133a2565b604082019050919050565b6000612959601a83612fe5565b9150612964826133f1565b602082019050919050565b600061297c601483612fe5565b91506129878261341a565b602082019050919050565b600061299f602683612fe5565b91506129aa82613443565b604082019050919050565b60006129c2601083612fe5565b91506129cd82613492565b602082019050919050565b60006129e5602183612fe5565b91506129f0826134bb565b604082019050919050565b6000612a08602583612fe5565b9150612a138261350a565b604082019050919050565b6000612a2b601683612fe5565b9150612a3682613559565b602082019050919050565b6000612a4e602483612fe5565b9150612a5982613582565b604082019050919050565b6000612a71601d83612fe5565b9150612a7c826135d1565b602082019050919050565b6000612a94601783612ff6565b9150612a9f826135fa565b601782019050919050565b6000612ab7602a83612fe5565b9150612ac282613623565b604082019050919050565b6000612ada601f83612fe5565b9150612ae582613672565b602082019050919050565b6000612afd602583612fe5565b9150612b088261369b565b604082019050919050565b6000612b20601183612ff6565b9150612b2b826136ea565b601182019050919050565b6000612b43602f83612fe5565b9150612b4e82613713565b604082019050919050565b6000612b66601f83612fe5565b9150612b7182613762565b602082019050919050565b612b8581613125565b82525050565b612b948161312f565b82525050565b6000612ba682846127bc565b915081905092915050565b6000612bbc82612a87565b9150612bc88285612826565b9150612bd382612b13565b9150612bdf8284612826565b91508190509392505050565b6000602082019050612c00600083018461278f565b92915050565b6000606082019050612c1b600083018661278f565b612c28602083018561278f565b612c356040830184612b7c565b949350505050565b6000604082019050612c52600083018561278f565b612c5f6020830184612b7c565b9392505050565b6000602082019050612c7b600083018461279e565b92915050565b6000602082019050612c9660008301846127ad565b92915050565b60006020820190508181036000830152612cb681846127ed565b905092915050565b60006040820190508181036000830152612cd881856127ed565b9050612ce76020830184612b7c565b9392505050565b60006020820190508181036000830152612d0781612857565b9050919050565b60006020820190508181036000830152612d278161287a565b9050919050565b60006020820190508181036000830152612d478161289d565b9050919050565b60006020820190508181036000830152612d67816128c0565b9050919050565b60006020820190508181036000830152612d87816128e3565b9050919050565b60006020820190508181036000830152612da781612906565b9050919050565b60006020820190508181036000830152612dc781612929565b9050919050565b60006020820190508181036000830152612de78161294c565b9050919050565b60006020820190508181036000830152612e078161296f565b9050919050565b60006020820190508181036000830152612e2781612992565b9050919050565b60006020820190508181036000830152612e47816129b5565b9050919050565b60006020820190508181036000830152612e67816129d8565b9050919050565b60006020820190508181036000830152612e87816129fb565b9050919050565b60006020820190508181036000830152612ea781612a1e565b9050919050565b60006020820190508181036000830152612ec781612a41565b9050919050565b60006020820190508181036000830152612ee781612a64565b9050919050565b60006020820190508181036000830152612f0781612aaa565b9050919050565b60006020820190508181036000830152612f2781612acd565b9050919050565b60006020820190508181036000830152612f4781612af0565b9050919050565b60006020820190508181036000830152612f6781612b36565b9050919050565b60006020820190508181036000830152612f8781612b59565b9050919050565b6000602082019050612fa36000830184612b7c565b92915050565b6000602082019050612fbe6000830184612b8b565b92915050565b600081519050919050565b600081519050919050565b600081905092915050565b600082825260208201905092915050565b600081905092915050565b600061300c82613125565b915061301783613125565b9250827fffffffffffffffffffffffffffffffffffffffffffffffffffffffffffffffff0382111561304c5761304b6131cb565b5b828201905092915050565b600061306282613125565b915061306d83613125565b9250817fffffffffffffffffffffffffffffffffffffffffffffffffffffffffffffffff04831182151516156130a6576130a56131cb565b5b828202905092915050565b60006130bc82613105565b9050919050565b60008115159050919050565b6000819050919050565b60007fffffffff0000000000000000000000000000000000000000000000000000000082169050919050565b600073ffffffffffffffffffffffffffffffffffffffff82169050919050565b6000819050919050565b600060ff82169050919050565b60005b8381101561315a57808201518184015260208101905061313f565b83811115613169576000848401525b50505050565b600061317a82613125565b9150600082141561318e5761318d6131cb565b5b600182039050919050565b600060028204905060018216806131b157607f821691505b602082108114156131c5576131c46131fa565b5b50919050565b7f4e487b7100000000000000000000000000000000000000000000000000000000600052601160045260246000fd5b7f4e487b7100000000000000000000000000000000000000000000000000000000600052602260045260246000fd5b6000601f19601f8301169050919050565b7f537472696e67733a20686578206c656e67746820696e73756666696369656e74600082015250565b7f45524332303a207472616e7366657220746f20746865207a65726f206164647260008201527f6573730000000000000000000000000000000000000000000000000000000000602082015250565b7f5061757361626c653a206e6f7420706175736564000000000000000000000000600082015250565b7f45524332303a206275726e20616d6f756e7420657863656564732062616c616e60008201527f6365000000000000000000000000000000000000000000000000000000000000602082015250565b7f45524332303a20617070726f766520746f20746865207a65726f20616464726560008201527f7373000000000000000000000000000000000000000000000000000000000000602082015250565b7f45524332303a20696e73756666696369656e7420616c6c6f77616e6365000000600082015250565b7f45524332303a207472616e7366657220616d6f756e742065786365656473206260008201527f616c616e63650000000000000000000000000000000000000000000000000000602082015250565b7f496e73756666696369656e74207661756c742062616c616e6365000000000000600082015250565b7f496e73756666696369656e742062616c616e6365000000000000000000000000600082015250565b7f416464726573733a20696e73756666696369656e742062616c616e636520666f60008201527f722063616c6c0000000000000000000000000000000000000000000000000000602082015250565b7f5061757361626c653a2070617573656400000000000000000000000000000000600082015250565b7f45524332303a206275726e2066726f6d20746865207a65726f2061646472657360008201527f7300000000000000000000000000000000000000000000000000000000000000602082015250565b7f45524332303a207472616e736665722066726f6d20746865207a65726f20616460008201527f6472657373000000000000000000000000000000000000000000000000000000602082015250565b7f43616c6c6572206973206e6f7420616e2041646d696e00000000000000000000600082015250565b7f45524332303a20617070726f76652066726f6d20746865207a65726f2061646460008201527f7265737300000000000000000000000000000000000000000000000000000000602082015250565b7f416464726573733a2063616c6c20746f206e6f6e2d636f6e7472616374000000600082015250565b7f416363657373436f6e74726f6c3a206163636f756e7420000000000000000000600082015250565b7f5361666545524332303a204552433230206f7065726174696f6e20646964206e60008201527f6f74207375636365656400000000000000000000000000000000000000000000602082015250565b7f5265656e7472616e637947756172643a207265656e7472616e742063616c6c00600082015250565b7f45524332303a2064656372656173656420616c6c6f77616e63652062656c6f7760008201527f207a65726f000000000000000000000000000000000000000000000000000000602082015250565b7f206973206d697373696e6720726f6c6520000000000000000000000000000000600082015250565b7f416363657373436f6e74726f6c3a2063616e206f6e6c792072656e6f756e636560008201527f20726f6c657320666f722073656c660000000000000000000000000000000000602082015250565b7f45524332303a206d696e7420746f20746865207a65726f206164647265737300600082015250565b613794816130b1565b811461379f57600080fd5b50565b6137ab816130c3565b81146137b657600080fd5b50565b6137c2816130cf565b81146137cd57600080fd5b50565b6137d9816130d9565b81146137e457600080fd5b50565b6137f081613125565b81146137fb57600080fd5b50565b6138078161312f565b811461381257600080fd5b5056fea264697066735822122070da4609d7bad6989e9f376b70428ebdf403858ffb7dd64a5b30098150f473e964736f6c63430008010033",
  "linkReferences": {},
  "deployedLinkReferences": {}
}