{
  "_format": "hh-sol-artifact-1",
  "contractName": "StableVault",
  "sourceName": "contracts/StableVault.sol",
  "abi": [
    {
      "inputs": [
        {
          "internalType": "address",
          "name": "admin",
          "type": "address"
        },
        {
          "internalType": "string",
          "name": "tokenName",
          "type": "string"
        },
        {
          "internalType": "string",
          "name": "tokenSymbol",
          "type": "string"
        }
      ],
      "stateMutability": "nonpayable",
      "type": "constructor"
    },
    {
      "anonymous": false,
      "inputs": [
        {
          "indexed": true,
          "internalType": "address",
          "name": "owner",
          "type": "address"
        },
        {
          "indexed": true,
          "internalType": "address",
          "name": "spender",
          "type": "address"
        },
        {
          "indexed": false,
          "internalType": "uint256",
          "name": "value",
          "type": "uint256"
        }
      ],
      "name": "Approval",
      "type": "event"
    },
    {
      "anonymous": false,
      "inputs": [
        {
          "indexed": false,
          "internalType": "uint256",
          "name": "_vaultBalance",
          "type": "uint256"
        }
      ],
      "name": "BalanceUpdated",
      "type": "event"
    },
    {
      "anonymous": false,
      "inputs": [
        {
          "indexed": true,
          "internalType": "address",
          "name": "new_admin",
          "type": "address"
        }
      ],
      "name": "NewAdminAdded",
      "type": "event"
    },
    {
      "anonymous": false,
      "inputs": [
        {
          "indexed": false,
          "internalType": "address",
          "name": "account",
          "type": "address"
        }
      ],
      "name": "Paused",
      "type": "event"
    },
    {
      "anonymous": false,
      "inputs": [
        {
          "indexed": true,
          "internalType": "address",
          "name": "removed_admin",
          "type": "address"
        }
      ],
      "name": "RemovedAdmin",
      "type": "event"
    },
    {
      "anonymous": false,
      "inputs": [
        {
          "indexed": true,
          "internalType": "bytes32",
          "name": "role",
          "type": "bytes32"
        },
        {
          "indexed": true,
          "internalType": "bytes32",
          "name": "previousAdminRole",
          "type": "bytes32"
        },
        {
          "indexed": true,
          "internalType": "bytes32",
          "name": "newAdminRole",
          "type": "bytes32"
        }
      ],
      "name": "RoleAdminChanged",
      "type": "event"
    },
    {
      "anonymous": false,
      "inputs": [
        {
          "indexed": true,
          "internalType": "bytes32",
          "name": "role",
          "type": "bytes32"
        },
        {
          "indexed": true,
          "internalType": "address",
          "name": "account",
          "type": "address"
        },
        {
          "indexed": true,
          "internalType": "address",
          "name": "sender",
          "type": "address"
        }
      ],
      "name": "RoleGranted",
      "type": "event"
    },
    {
      "anonymous": false,
      "inputs": [
        {
          "indexed": true,
          "internalType": "bytes32",
          "name": "role",
          "type": "bytes32"
        },
        {
          "indexed": true,
          "internalType": "address",
          "name": "account",
          "type": "address"
        },
        {
          "indexed": true,
          "internalType": "address",
          "name": "sender",
          "type": "address"
        }
      ],
      "name": "RoleRevoked",
      "type": "event"
    },
    {
      "anonymous": false,
      "inputs": [
        {
          "indexed": true,
          "internalType": "address",
          "name": "from",
          "type": "address"
        },
        {
          "indexed": true,
          "internalType": "address",
          "name": "to",
          "type": "address"
        },
        {
          "indexed": false,
          "internalType": "uint256",
          "name": "value",
          "type": "uint256"
        }
      ],
      "name": "Transfer",
      "type": "event"
    },
    {
      "anonymous": false,
      "inputs": [
        {
          "indexed": false,
          "internalType": "address",
          "name": "account",
          "type": "address"
        }
      ],
      "name": "Unpaused",
      "type": "event"
    },
    {
      "anonymous": false,
      "inputs": [
        {
          "indexed": true,
          "internalType": "address",
          "name": "user",
          "type": "address"
        },
        {
          "indexed": false,
          "internalType": "uint256",
          "name": "amount",
          "type": "uint256"
        },
        {
          "indexed": true,
          "internalType": "address",
          "name": "asset",
          "type": "address"
        }
      ],
      "name": "Withdrawal",
      "type": "event"
    },
    {
      "inputs": [],
      "name": "DEFAULT_ADMIN_ROLE",
      "outputs": [
        {
          "internalType": "bytes32",
          "name": "",
          "type": "bytes32"
        }
      ],
      "stateMutability": "view",
      "type": "function"
    },
    {
      "inputs": [
        {
          "internalType": "address",
          "name": "account",
          "type": "address"
        }
      ],
      "name": "addAdmin",
      "outputs": [],
      "stateMutability": "nonpayable",
      "type": "function"
    },
    {
      "inputs": [
        {
          "internalType": "address",
          "name": "owner",
          "type": "address"
        },
        {
          "internalType": "address",
          "name": "spender",
          "type": "address"
        }
      ],
      "name": "allowance",
      "outputs": [
        {
          "internalType": "uint256",
          "name": "",
          "type": "uint256"
        }
      ],
      "stateMutability": "view",
      "type": "function"
    },
    {
      "inputs": [
        {
          "internalType": "address",
          "name": "spender",
          "type": "address"
        },
        {
          "internalType": "uint256",
          "name": "amount",
          "type": "uint256"
        }
      ],
      "name": "approve",
      "outputs": [
        {
          "internalType": "bool",
          "name": "",
          "type": "bool"
        }
      ],
      "stateMutability": "nonpayable",
      "type": "function"
    },
    {
      "inputs": [
        {
          "internalType": "address",
          "name": "account",
          "type": "address"
        }
      ],
      "name": "balanceOf",
      "outputs": [
        {
          "internalType": "uint256",
          "name": "",
          "type": "uint256"
        }
      ],
      "stateMutability": "view",
      "type": "function"
    },
    {
      "inputs": [],
      "name": "decimals",
      "outputs": [
        {
          "internalType": "uint8",
          "name": "",
          "type": "uint8"
        }
      ],
      "stateMutability": "view",
      "type": "function"
    },
    {
      "inputs": [
        {
          "internalType": "address",
          "name": "spender",
          "type": "address"
        },
        {
          "internalType": "uint256",
          "name": "subtractedValue",
          "type": "uint256"
        }
      ],
      "name": "decreaseAllowance",
      "outputs": [
        {
          "internalType": "bool",
          "name": "",
          "type": "bool"
        }
      ],
      "stateMutability": "nonpayable",
      "type": "function"
    },
    {
      "inputs": [
        {
          "internalType": "uint256",
          "name": "amount",
          "type": "uint256"
        },
        {
          "internalType": "address",
          "name": "_asset",
          "type": "address"
        },
        {
          "internalType": "address",
          "name": "_beneficiary",
          "type": "address"
        }
      ],
      "name": "deposit",
      "outputs": [
        {
          "internalType": "bool",
          "name": "",
          "type": "bool"
        }
      ],
      "stateMutability": "nonpayable",
      "type": "function"
    },
    {
      "inputs": [
        {
          "internalType": "address",
          "name": "_asset",
          "type": "address"
        }
      ],
      "name": "getSparkbalance",
      "outputs": [
        {
          "internalType": "uint256",
          "name": "",
          "type": "uint256"
        }
      ],
      "stateMutability": "view",
      "type": "function"
    },
    {
      "inputs": [
        {
          "internalType": "bytes32",
          "name": "role",
          "type": "bytes32"
        }
      ],
      "name": "getRoleAdmin",
      "outputs": [
        {
          "internalType": "bytes32",
          "name": "",
          "type": "bytes32"
        }
      ],
      "stateMutability": "view",
      "type": "function"
    },
    {
      "inputs": [
        {
          "internalType": "bytes32",
          "name": "role",
          "type": "bytes32"
        },
        {
          "internalType": "address",
          "name": "account",
          "type": "address"
        }
      ],
      "name": "grantRole",
      "outputs": [],
      "stateMutability": "nonpayable",
      "type": "function"
    },
    {
      "inputs": [
        {
          "internalType": "bytes32",
          "name": "role",
          "type": "bytes32"
        },
        {
          "internalType": "address",
          "name": "account",
          "type": "address"
        }
      ],
      "name": "hasRole",
      "outputs": [
        {
          "internalType": "bool",
          "name": "",
          "type": "bool"
        }
      ],
      "stateMutability": "view",
      "type": "function"
    },
    {
      "inputs": [
        {
          "internalType": "address",
          "name": "spender",
          "type": "address"
        },
        {
          "internalType": "uint256",
          "name": "addedValue",
          "type": "uint256"
        }
      ],
      "name": "increaseAllowance",
      "outputs": [
        {
          "internalType": "bool",
          "name": "",
          "type": "bool"
        }
      ],
      "stateMutability": "nonpayable",
      "type": "function"
    },
    {
      "inputs": [],
      "name": "name",
      "outputs": [
        {
          "internalType": "string",
          "name": "",
          "type": "string"
        }
      ],
      "stateMutability": "view",
      "type": "function"
    },
    {
      "inputs": [],
      "name": "pause",
      "outputs": [],
      "stateMutability": "nonpayable",
      "type": "function"
    },
    {
      "inputs": [],
      "name": "paused",
      "outputs": [
        {
          "internalType": "bool",
          "name": "",
          "type": "bool"
        }
      ],
      "stateMutability": "view",
      "type": "function"
    },
    {
      "inputs": [
        {
          "internalType": "address",
          "name": "account",
          "type": "address"
        }
      ],
      "name": "removeAdmin",
      "outputs": [],
      "stateMutability": "nonpayable",
      "type": "function"
    },
    {
      "inputs": [
        {
          "internalType": "bytes32",
          "name": "role",
          "type": "bytes32"
        },
        {
          "internalType": "address",
          "name": "account",
          "type": "address"
        }
      ],
      "name": "renounceRole",
      "outputs": [],
      "stateMutability": "nonpayable",
      "type": "function"
    },
    {
      "inputs": [
        {
          "internalType": "bytes32",
          "name": "role",
          "type": "bytes32"
        },
        {
          "internalType": "address",
          "name": "account",
          "type": "address"
        }
      ],
      "name": "revokeRole",
      "outputs": [],
      "stateMutability": "nonpayable",
      "type": "function"
    },
    {
      "inputs": [
        {
          "internalType": "address",
          "name": "_SPARK_DATA_PROVIDER",
          "type": "address"
        },
        {
          "internalType": "address",
          "name": "_SPARK_INCENTIVES_CONTROLLER",
          "type": "address"
        },
        {
          "internalType": "address",
          "name": "_SPARK_LENDING_POOL",
          "type": "address"
        }
      ],
      "name": "setSparkSettings",
      "outputs": [],
      "stateMutability": "nonpayable",
      "type": "function"
    },
    {
      "inputs": [
        {
          "internalType": "bytes4",
          "name": "interfaceId",
          "type": "bytes4"
        }
      ],
      "name": "supportsInterface",
      "outputs": [
        {
          "internalType": "bool",
          "name": "",
          "type": "bool"
        }
      ],
      "stateMutability": "view",
      "type": "function"
    },
    {
      "inputs": [],
      "name": "symbol",
      "outputs": [
        {
          "internalType": "string",
          "name": "",
          "type": "string"
        }
      ],
      "stateMutability": "view",
      "type": "function"
    },
    {
      "inputs": [],
      "name": "totalSupply",
      "outputs": [
        {
          "internalType": "uint256",
          "name": "",
          "type": "uint256"
        }
      ],
      "stateMutability": "view",
      "type": "function"
    },
    {
      "inputs": [
        {
          "internalType": "address",
          "name": "to",
          "type": "address"
        },
        {
          "internalType": "uint256",
          "name": "amount",
          "type": "uint256"
        }
      ],
      "name": "transfer",
      "outputs": [
        {
          "internalType": "bool",
          "name": "",
          "type": "bool"
        }
      ],
      "stateMutability": "nonpayable",
      "type": "function"
    },
    {
      "inputs": [
        {
          "internalType": "address",
          "name": "from",
          "type": "address"
        },
        {
          "internalType": "address",
          "name": "to",
          "type": "address"
        },
        {
          "internalType": "uint256",
          "name": "amount",
          "type": "uint256"
        }
      ],
      "name": "transferFrom",
      "outputs": [
        {
          "internalType": "bool",
          "name": "",
          "type": "bool"
        }
      ],
      "stateMutability": "nonpayable",
      "type": "function"
    },
    {
      "inputs": [],
      "name": "unpause",
      "outputs": [],
      "stateMutability": "nonpayable",
      "type": "function"
    },
    {
      "inputs": [],
      "name": "vaultBalance",
      "outputs": [
        {
          "internalType": "uint256",
          "name": "",
          "type": "uint256"
        }
      ],
      "stateMutability": "view",
      "type": "function"
    },
    {
      "inputs": [
        {
          "internalType": "uint256",
          "name": "amount",
          "type": "uint256"
        },
        {
          "internalType": "address",
          "name": "_asset",
          "type": "address"
        }
      ],
      "name": "withdraw",
      "outputs": [
        {
          "internalType": "bool",
          "name": "",
          "type": "bool"
        }
      ],
      "stateMutability": "nonpayable",
      "type": "function"
    }
  ],
  "bytecode": "0x60806040523480156200001157600080fd5b506040516200455538038062004555833981810160405281019062000037919062000363565b81818460016000819055506000600260006101000a81548160ff021916908315150217905550620000726000801b82620000b060201b60201c565b5081600690805190602001906200008b9291906200022a565b508060079080519060200190620000a49291906200022a565b505050505050620005a9565b620000c28282620000c660201b60201c565b5050565b620000d88282620001b760201b60201c565b620001b357600180600084815260200190815260200160002060000160008373ffffffffffffffffffffffffffffffffffffffff1673ffffffffffffffffffffffffffffffffffffffff16815260200190815260200160002060006101000a81548160ff021916908315150217905550620001586200022260201b60201c565b73ffffffffffffffffffffffffffffffffffffffff168173ffffffffffffffffffffffffffffffffffffffff16837f2f8788117e7eff1d82e926ec794901d17c78024a50270940304540a733656f0d60405160405180910390a45b5050565b60006001600084815260200190815260200160002060000160008373ffffffffffffffffffffffffffffffffffffffff1673ffffffffffffffffffffffffffffffffffffffff16815260200190815260200160002060009054906101000a900460ff16905092915050565b600033905090565b8280546200023890620004b4565b90600052602060002090601f0160209004810192826200025c5760008555620002a8565b82601f106200027757805160ff1916838001178555620002a8565b82800160010185558215620002a8579182015b82811115620002a75782518255916020019190600101906200028a565b5b509050620002b79190620002bb565b5090565b5b80821115620002d6576000816000905550600101620002bc565b5090565b6000620002f1620002eb8462000414565b620003eb565b9050828152602081018484840111156200030a57600080fd5b620003178482856200047e565b509392505050565b60008151905062000330816200058f565b92915050565b600082601f8301126200034857600080fd5b81516200035a848260208601620002da565b91505092915050565b6000806000606084860312156200037957600080fd5b600062000389868287016200031f565b935050602084015167ffffffffffffffff811115620003a757600080fd5b620003b58682870162000336565b925050604084015167ffffffffffffffff811115620003d357600080fd5b620003e18682870162000336565b9150509250925092565b6000620003f76200040a565b9050620004058282620004ea565b919050565b6000604051905090565b600067ffffffffffffffff8211156200043257620004316200054f565b5b6200043d826200057e565b9050602081019050919050565b600062000457826200045e565b9050919050565b600073ffffffffffffffffffffffffffffffffffffffff82169050919050565b60005b838110156200049e57808201518184015260208101905062000481565b83811115620004ae576000848401525b50505050565b60006002820490506001821680620004cd57607f821691505b60208210811415620004e457620004e362000520565b5b50919050565b620004f5826200057e565b810181811067ffffffffffffffff821117156200051757620005166200054f565b5b80604052505050565b7f4e487b7100000000000000000000000000000000000000000000000000000000600052602260045260246000fd5b7f4e487b7100000000000000000000000000000000000000000000000000000000600052604160045260246000fd5b6000601f19601f8301169050919050565b6200059a816200044a565b8114620005a657600080fd5b50565b613f9c80620005b96000396000f3fe608060405234801561001057600080fd5b50600436106101c35760003560e01c80633f4ba83a116100f957806395d89b4111610097578063a9059cbb11610071578063a9059cbb1461052e578063d14eaf2b1461055e578063d547741f1461057a578063dd62ed3e14610596576101c3565b806395d89b41146104c2578063a217fddf146104e0578063a457c2d7146104fe576101c3565b806370480275116100d3578063704802751461043c57806370a08231146104585780638456cb591461048857806391d1485414610492576101c3565b80633f4ba83a146103e45780635c975abb146103ee5780635d5a7de31461040c576101c3565b806323b872dd116101665780632f2ff15d116101405780632f2ff15d1461035e578063313ce5671461037a57806336568abe1461039857806339509351146103b4576101c3565b806323b872dd146102ce578063248a9ca3146102fe5780632e2d29841461032e576101c3565b8063095ea7b3116101a2578063095ea7b3146102465780630bf6cc08146102765780631785f53c1461029457806318160ddd146102b0576101c3565b8062f714ce146101c857806301ffc9a7146101f857806306fdde0314610228575b600080fd5b6101e260048036038101906101dd9190612cfd565b6105c6565b6040516101ef9190613328565b60405180910390f35b610212600480360381019061020d9190612cab565b6106e6565b60405161021f9190613328565b60405180910390f35b610230610760565b60405161023d919061335e565b60405180910390f35b610260600480360381019061025b9190612be1565b6107f2565b60405161026d9190613328565b60405180910390f35b61027e610815565b60405161028b9190613670565b60405180910390f35b6102ae60048036038101906102a99190612a8f565b61081f565b005b6102b86108c6565b6040516102c59190613670565b60405180910390f35b6102e860048036038101906102e39190612b92565b6108d0565b6040516102f59190613328565b60405180910390f35b61031860048036038101906103139190612c46565b6108ff565b6040516103259190613343565b60405180910390f35b61034860048036038101906103439190612d39565b61091f565b6040516103559190613328565b60405180910390f35b61037860048036038101906103739190612c6f565b610a1b565b005b610382610a3c565b60405161038f919061368b565b60405180910390f35b6103b260048036038101906103ad9190612c6f565b610a45565b005b6103ce60048036038101906103c99190612be1565b610ac8565b6040516103db9190613328565b60405180910390f35b6103ec610aff565b005b6103f6610b5d565b6040516104039190613328565b60405180910390f35b61042660048036038101906104219190612a8f565b610b74565b6040516104339190613670565b60405180910390f35b61045660048036038101906104519190612a8f565b610cba565b005b610472600480360381019061046d9190612a8f565b610d61565b60405161047f9190613670565b60405180910390f35b610490610daa565b005b6104ac60048036038101906104a79190612c6f565b610e08565b6040516104b99190613328565b60405180910390f35b6104ca610e73565b6040516104d7919061335e565b60405180910390f35b6104e8610f05565b6040516104f59190613343565b60405180910390f35b61051860048036038101906105139190612be1565b610f0c565b6040516105259190613328565b60405180910390f35b61054860048036038101906105439190612be1565b610f83565b6040516105559190613328565b60405180910390f35b61057860048036038101906105739190612af4565b610fa6565b005b610594600480360381019061058f9190612c6f565b6110ba565b005b6105b060048036038101906105ab9190612ab8565b6110db565b6040516105bd9190613670565b60405180910390f35b60006105d0611162565b6105d86111b2565b60006105e484846111fc565b9050806105f033610d61565b1015610631576040517f08c379a0000000000000000000000000000000000000000000000000000000008152600401610628906134b0565b60405180910390fd5b61063b33826112ee565b61066633858573ffffffffffffffffffffffffffffffffffffffff166114be9092919063ffffffff16565b61066f81611544565b8273ffffffffffffffffffffffffffffffffffffffff163373ffffffffffffffffffffffffffffffffffffffff167e1a143d5b175701cb3246058ffac3d63945192075a926ff73a19930f09d587a836040516106cb9190613670565b60405180910390a360019150506106e06115d3565b92915050565b60007f7965db0b000000000000000000000000000000000000000000000000000000007bffffffffffffffffffffffffffffffffffffffffffffffffffffffff1916827bffffffffffffffffffffffffffffffffffffffffffffffffffffffff191614806107595750610758826115dd565b5b9050919050565b60606006805461076f9061389b565b80601f016020809104026020016040519081016040528092919081815260200182805461079b9061389b565b80156107e85780601f106107bd576101008083540402835291602001916107e8565b820191906000526020600020905b8154815290600101906020018083116107cb57829003601f168201915b5050505050905090565b6000806107fd611647565b905061080a81858561164f565b600191505092915050565b6000600854905090565b61082c6000801b33610e08565b61086b576040517f08c379a000000000000000000000000000000000000000000000000000000000815260040161086290613550565b60405180910390fd5b6108736111b2565b6108806000801b8261181a565b8073ffffffffffffffffffffffffffffffffffffffff167f3137a7fedbfedb7895dfa5a6812a4566dae9ded68d00aeec13c6ed1fa84a1c8060405160405180910390a250565b6000600554905090565b6000806108db611647565b90506108e88582856118fc565b6108f3858585611988565b60019150509392505050565b600060016000838152602001908152602001600020600101549050919050565b6000610929611162565b6109316111b2565b600061093d85856111fc565b905061097e6040518060400160405280601081526020017f4465706f73697420616d6f756e743a200000000000000000000000000000000081525086611c03565b6109bd6040518060400160405280601981526020017f4465706f73697420636f72726563746564416d6f756e743a200000000000000081525082611c03565b6109ea3330878773ffffffffffffffffffffffffffffffffffffffff16611c9f909392919063ffffffff16565b6109f48382611d28565b6109fd81611e80565b610a078482611eca565b6001915050610a146115d3565b9392505050565b610a24826108ff565b610a2d81611fb7565b610a378383611fcb565b505050565b60006012905090565b610a4d611647565b73ffffffffffffffffffffffffffffffffffffffff168173ffffffffffffffffffffffffffffffffffffffff1614610aba576040517f08c379a0000000000000000000000000000000000000000000000000000000008152600401610ab190613630565b60405180910390fd5b610ac4828261181a565b5050565b600080610ad3611647565b9050610af4818585610ae585896110db565b610aef91906136e3565b61164f565b600191505092915050565b610b0c6000801b33610e08565b610b4b576040517f08c379a0000000000000000000000000000000000000000000000000000000008152600401610b4290613550565b60405180910390fd5b610b536120ab565b610b5b6120f4565b565b6000600260009054906101000a900460ff16905090565b600080600b60009054906101000a900473ffffffffffffffffffffffffffffffffffffffff1673ffffffffffffffffffffffffffffffffffffffff1663d2493b6c846040518263ffffffff1660e01b8152600401610bd2919061323f565b60606040518083038186803b158015610bea57600080fd5b505afa158015610bfe573d6000803e3d6000fd5b505050506040513d601f19601f82011682018060405250810190610c229190612b43565b905050809150508073ffffffffffffffffffffffffffffffffffffffff166370a08231306040518263ffffffff1660e01b8152600401610c62919061323f565b60206040518083038186803b158015610c7a57600080fd5b505afa158015610c8e573d6000803e3d6000fd5b505050506040513d601f19601f82011682018060405250810190610cb29190612cd4565b915050919050565b610cc76000801b33610e08565b610d06576040517f08c379a0000000000000000000000000000000000000000000000000000000008152600401610cfd90613550565b60405180910390fd5b610d0e6111b2565b610d1b6000801b82612157565b8073ffffffffffffffffffffffffffffffffffffffff167f2dbe9fb88463d989acccabbb6ee06901f83672eb78e04a11ff48dd8f69a27cda60405160405180910390a250565b6000600360008373ffffffffffffffffffffffffffffffffffffffff1673ffffffffffffffffffffffffffffffffffffffff168152602001908152602001600020549050919050565b610db76000801b33610e08565b610df6576040517f08c379a0000000000000000000000000000000000000000000000000000000008152600401610ded90613550565b60405180910390fd5b610dfe6111b2565b610e06612165565b565b60006001600084815260200190815260200160002060000160008373ffffffffffffffffffffffffffffffffffffffff1673ffffffffffffffffffffffffffffffffffffffff16815260200190815260200160002060009054906101000a900460ff16905092915050565b606060078054610e829061389b565b80601f0160208091040260200160405190810160405280929190818152602001828054610eae9061389b565b8015610efb5780601f10610ed057610100808354040283529160200191610efb565b820191906000526020600020905b815481529060010190602001808311610ede57829003601f168201915b5050505050905090565b6000801b81565b600080610f17611647565b90506000610f2582866110db565b905083811015610f6a576040517f08c379a0000000000000000000000000000000000000000000000000000000008152600401610f6190613610565b60405180910390fd5b610f77828686840361164f565b60019250505092915050565b600080610f8e611647565b9050610f9b818585611988565b600191505092915050565b610fb36000801b33610e08565b610ff2576040517f08c379a0000000000000000000000000000000000000000000000000000000008152600401610fe990613550565b60405180910390fd5b82600b60006101000a81548173ffffffffffffffffffffffffffffffffffffffff021916908373ffffffffffffffffffffffffffffffffffffffff16021790555081600a60006101000a81548173ffffffffffffffffffffffffffffffffffffffff021916908373ffffffffffffffffffffffffffffffffffffffff16021790555080600960006101000a81548173ffffffffffffffffffffffffffffffffffffffff021916908373ffffffffffffffffffffffffffffffffffffffff160217905550505050565b6110c3826108ff565b6110cc81611fb7565b6110d6838361181a565b505050565b6000600460008473ffffffffffffffffffffffffffffffffffffffff1673ffffffffffffffffffffffffffffffffffffffff16815260200190815260200160002060008373ffffffffffffffffffffffffffffffffffffffff1673ffffffffffffffffffffffffffffffffffffffff16815260200190815260200160002054905092915050565b600260005414156111a8576040517f08c379a000000000000000000000000000000000000000000000000000000000815260040161119f906135d0565b60405180910390fd5b6002600081905550565b6111ba610b5d565b156111fa576040517f08c379a00000000000000000000000000000000000000000000000000000000081526004016111f1906134f0565b60405180910390fd5b565b6000808273ffffffffffffffffffffffffffffffffffffffff1663313ce5676040518163ffffffff1660e01b815260040160206040518083038186803b15801561124557600080fd5b505afa158015611259573d6000803e3d6000fd5b505050506040513d601f19601f8201168201806040525081019061127d9190612d88565b60ff169050601281146112e45760128111156112d75760128103600a0a84816112cf577f4e487b7100000000000000000000000000000000000000000000000000000000600052601260045260246000fd5b0493506112e3565b80601203600a0a840293505b5b8391505092915050565b600073ffffffffffffffffffffffffffffffffffffffff168273ffffffffffffffffffffffffffffffffffffffff16141561135e576040517f08c379a000000000000000000000000000000000000000000000000000000000815260040161135590613510565b60405180910390fd5b61136a826000836121c8565b6000600360008473ffffffffffffffffffffffffffffffffffffffff1673ffffffffffffffffffffffffffffffffffffffff168152602001908152602001600020549050818110156113f1576040517f08c379a00000000000000000000000000000000000000000000000000000000081526004016113e890613410565b60405180910390fd5b818103600360008573ffffffffffffffffffffffffffffffffffffffff1673ffffffffffffffffffffffffffffffffffffffff1681526020019081526020016000208190555081600560008282540392505081905550600073ffffffffffffffffffffffffffffffffffffffff168373ffffffffffffffffffffffffffffffffffffffff167fddf252ad1be2c89b69c2b068fc378daa952ba7f163c4a11628f55a4df523b3ef846040516114a59190613670565b60405180910390a36114b9836000846121cd565b505050565b61153f8363a9059cbb60e01b84846040516024016114dd9291906132ba565b604051602081830303815290604052907bffffffffffffffffffffffffffffffffffffffffffffffffffffffff19166020820180517bffffffffffffffffffffffffffffffffffffffffffffffffffffffff83818316178352505050506121d2565b505050565b806008541015611589576040517f08c379a000000000000000000000000000000000000000000000000000000000815260040161158090613490565b60405180910390fd5b806008600082825403925050819055507f04be25a4c0fe4c39136ca055daaac08ac6b3041b2e1f2a1b698bac12f1cbdc4a816040516115c89190613670565b60405180910390a150565b6001600081905550565b60007f01ffc9a7000000000000000000000000000000000000000000000000000000007bffffffffffffffffffffffffffffffffffffffffffffffffffffffff1916827bffffffffffffffffffffffffffffffffffffffffffffffffffffffff1916149050919050565b600033905090565b600073ffffffffffffffffffffffffffffffffffffffff168373ffffffffffffffffffffffffffffffffffffffff1614156116bf576040517f08c379a00000000000000000000000000000000000000000000000000000000081526004016116b690613570565b60405180910390fd5b600073ffffffffffffffffffffffffffffffffffffffff168273ffffffffffffffffffffffffffffffffffffffff16141561172f576040517f08c379a000000000000000000000000000000000000000000000000000000000815260040161172690613430565b60405180910390fd5b80600460008573ffffffffffffffffffffffffffffffffffffffff1673ffffffffffffffffffffffffffffffffffffffff16815260200190815260200160002060008473ffffffffffffffffffffffffffffffffffffffff1673ffffffffffffffffffffffffffffffffffffffff168152602001908152602001600020819055508173ffffffffffffffffffffffffffffffffffffffff168373ffffffffffffffffffffffffffffffffffffffff167f8c5be1e5ebec7d5bd14f71427d1e84f3dd0314c0f7b2291e5b200ac8c7c3b9258360405161180d9190613670565b60405180910390a3505050565b6118248282610e08565b156118f85760006001600084815260200190815260200160002060000160008373ffffffffffffffffffffffffffffffffffffffff1673ffffffffffffffffffffffffffffffffffffffff16815260200190815260200160002060006101000a81548160ff02191690831515021790555061189d611647565b73ffffffffffffffffffffffffffffffffffffffff168173ffffffffffffffffffffffffffffffffffffffff16837ff6391f5c32d9c69d2a47ea670b442974b53935d1edc7fd64eb21e047a839171b60405160405180910390a45b5050565b600061190884846110db565b90507fffffffffffffffffffffffffffffffffffffffffffffffffffffffffffffffff81146119825781811015611974576040517f08c379a000000000000000000000000000000000000000000000000000000000815260040161196b90613450565b60405180910390fd5b611981848484840361164f565b5b50505050565b600073ffffffffffffffffffffffffffffffffffffffff168373ffffffffffffffffffffffffffffffffffffffff1614156119f8576040517f08c379a00000000000000000000000000000000000000000000000000000000081526004016119ef90613530565b60405180910390fd5b600073ffffffffffffffffffffffffffffffffffffffff168273ffffffffffffffffffffffffffffffffffffffff161415611a68576040517f08c379a0000000000000000000000000000000000000000000000000000000008152600401611a5f906133d0565b60405180910390fd5b611a738383836121c8565b6000600360008573ffffffffffffffffffffffffffffffffffffffff1673ffffffffffffffffffffffffffffffffffffffff16815260200190815260200160002054905081811015611afa576040517f08c379a0000000000000000000000000000000000000000000000000000000008152600401611af190613470565b60405180910390fd5b818103600360008673ffffffffffffffffffffffffffffffffffffffff1673ffffffffffffffffffffffffffffffffffffffff1681526020019081526020016000208190555081600360008573ffffffffffffffffffffffffffffffffffffffff1673ffffffffffffffffffffffffffffffffffffffff168152602001908152602001600020600082825401925050819055508273ffffffffffffffffffffffffffffffffffffffff168473ffffffffffffffffffffffffffffffffffffffff167fddf252ad1be2c89b69c2b068fc378daa952ba7f163c4a11628f55a4df523b3ef84604051611bea9190613670565b60405180910390a3611bfd8484846121cd565b50505050565b611c9b8282604051602401611c19929190613380565b6040516020818303038152906040527fb60e72cc000000000000000000000000000000000000000000000000000000007bffffffffffffffffffffffffffffffffffffffffffffffffffffffff19166020820180517bffffffffffffffffffffffffffffffffffffffffffffffffffffffff838183161783525050505061229a565b5050565b611d22846323b872dd60e01b858585604051602401611cc093929190613283565b604051602081830303815290604052907bffffffffffffffffffffffffffffffffffffffffffffffffffffffff19166020820180517bffffffffffffffffffffffffffffffffffffffffffffffffffffffff83818316178352505050506121d2565b50505050565b600073ffffffffffffffffffffffffffffffffffffffff168273ffffffffffffffffffffffffffffffffffffffff161415611d98576040517f08c379a0000000000000000000000000000000000000000000000000000000008152600401611d8f90613650565b60405180910390fd5b611da4600083836121c8565b8060056000828254611db691906136e3565b9250508190555080600360008473ffffffffffffffffffffffffffffffffffffffff1673ffffffffffffffffffffffffffffffffffffffff168152602001908152602001600020600082825401925050819055508173ffffffffffffffffffffffffffffffffffffffff16600073ffffffffffffffffffffffffffffffffffffffff167fddf252ad1be2c89b69c2b068fc378daa952ba7f163c4a11628f55a4df523b3ef83604051611e689190613670565b60405180910390a3611e7c600083836121cd565b5050565b806008600082825401925050819055507f04be25a4c0fe4c39136ca055daaac08ac6b3041b2e1f2a1b698bac12f1cbdc4a81604051611ebf9190613670565b60405180910390a150565b611ed26111b2565b611f1f600960009054906101000a900473ffffffffffffffffffffffffffffffffffffffff16828473ffffffffffffffffffffffffffffffffffffffff166122b49092919063ffffffff16565b600960009054906101000a900473ffffffffffffffffffffffffffffffffffffffff1673ffffffffffffffffffffffffffffffffffffffff1663e8eda9df83833060006040518563ffffffff1660e01b8152600401611f8194939291906132e3565b600060405180830381600087803b158015611f9b57600080fd5b505af1158015611faf573d6000803e3d6000fd5b505050505050565b611fc881611fc3611647565b612412565b50565b611fd58282610e08565b6120a757600180600084815260200190815260200160002060000160008373ffffffffffffffffffffffffffffffffffffffff1673ffffffffffffffffffffffffffffffffffffffff16815260200190815260200160002060006101000a81548160ff02191690831515021790555061204c611647565b73ffffffffffffffffffffffffffffffffffffffff168173ffffffffffffffffffffffffffffffffffffffff16837f2f8788117e7eff1d82e926ec794901d17c78024a50270940304540a733656f0d60405160405180910390a45b5050565b6120b3610b5d565b6120f2576040517f08c379a00000000000000000000000000000000000000000000000000000000081526004016120e9906133f0565b60405180910390fd5b565b6120fc6120ab565b6000600260006101000a81548160ff0219169083151502179055507f5db9ee0a495bf2e6ff9c91a7834c1ba4fdd244a5e8aa4e537bd38aeae4b073aa612140611647565b60405161214d919061323f565b60405180910390a1565b6121618282611fcb565b5050565b61216d6111b2565b6001600260006101000a81548160ff0219169083151502179055507f62e78cea01bee320cd4e420270b5ea74000d11b0c9f74754ebdbfc544b05a2586121b1611647565b6040516121be919061323f565b60405180910390a1565b505050565b505050565b6000612234826040518060400160405280602081526020017f5361666545524332303a206c6f772d6c6576656c2063616c6c206661696c65648152508573ffffffffffffffffffffffffffffffffffffffff166124979092919063ffffffff16565b90506000815114806122565750808060200190518101906122559190612c1d565b5b612295576040517f08c379a000000000000000000000000000000000000000000000000000000000815260040161228c906135b0565b60405180910390fd5b505050565b6122b1816122a96124af6124d0565b63ffffffff16565b50565b600081148061234d575060008373ffffffffffffffffffffffffffffffffffffffff1663dd62ed3e30856040518363ffffffff1660e01b81526004016122fb92919061325a565b60206040518083038186803b15801561231357600080fd5b505afa158015612327573d6000803e3d6000fd5b505050506040513d601f19601f8201168201806040525081019061234b9190612cd4565b145b61238c576040517f08c379a0000000000000000000000000000000000000000000000000000000008152600401612383906135f0565b60405180910390fd5b61240d8363095ea7b360e01b84846040516024016123ab9291906132ba565b604051602081830303815290604052907bffffffffffffffffffffffffffffffffffffffffffffffffffffffff19166020820180517bffffffffffffffffffffffffffffffffffffffffffffffffffffffff83818316178352505050506121d2565b505050565b61241c8282610e08565b61249357612429816124db565b6124378360001c6020612508565b604051602001612448929190613205565b6040516020818303038152906040526040517f08c379a000000000000000000000000000000000000000000000000000000000815260040161248a919061335e565b60405180910390fd5b5050565b60606124a68484600085612802565b90509392505050565b60006a636f6e736f6c652e6c6f679050600080835160208501845afa505050565b6129b8819050919050565b60606125018273ffffffffffffffffffffffffffffffffffffffff16601460ff16612508565b9050919050565b60606000600283600261251b9190613739565b61252591906136e3565b67ffffffffffffffff811115612564577f4e487b7100000000000000000000000000000000000000000000000000000000600052604160045260246000fd5b6040519080825280601f01601f1916602001820160405280156125965781602001600182028036833780820191505090505b5090507f3000000000000000000000000000000000000000000000000000000000000000816000815181106125f4577f4e487b7100000000000000000000000000000000000000000000000000000000600052603260045260246000fd5b60200101907effffffffffffffffffffffffffffffffffffffffffffffffffffffffffffff1916908160001a9053507f78000000000000000000000000000000000000000000000000000000000000008160018151811061267e577f4e487b7100000000000000000000000000000000000000000000000000000000600052603260045260246000fd5b60200101907effffffffffffffffffffffffffffffffffffffffffffffffffffffffffffff1916908160001a905350600060018460026126be9190613739565b6126c891906136e3565b90505b60018111156127b4577f3031323334353637383961626364656600000000000000000000000000000000600f861660108110612730577f4e487b7100000000000000000000000000000000000000000000000000000000600052603260045260246000fd5b1a60f81b82828151811061276d577f4e487b7100000000000000000000000000000000000000000000000000000000600052603260045260246000fd5b60200101907effffffffffffffffffffffffffffffffffffffffffffffffffffffffffffff1916908160001a905350600485901c9450806127ad90613871565b90506126cb565b50600084146127f8576040517f08c379a00000000000000000000000000000000000000000000000000000000081526004016127ef906133b0565b60405180910390fd5b8091505092915050565b606082471015612847576040517f08c379a000000000000000000000000000000000000000000000000000000000815260040161283e906134d0565b60405180910390fd5b6000808673ffffffffffffffffffffffffffffffffffffffff16858760405161287091906131ee565b60006040518083038185875af1925050503d80600081146128ad576040519150601f19603f3d011682016040523d82523d6000602084013e6128b2565b606091505b50915091506128c3878383876128cf565b92505050949350505050565b606083156129325760008351141561292a576128ea85612945565b612929576040517f08c379a000000000000000000000000000000000000000000000000000000000815260040161292090613590565b60405180910390fd5b5b82905061293d565b61293c8383612968565b5b949350505050565b6000808273ffffffffffffffffffffffffffffffffffffffff163b119050919050565b60008251111561297b5781518083602001fd5b806040517f08c379a00000000000000000000000000000000000000000000000000000000081526004016129af919061335e565b60405180910390fd5b7f4e487b7100000000000000000000000000000000000000000000000000000000600052605160045260246000fd5b6000813590506129f681613edc565b92915050565b600081519050612a0b81613edc565b92915050565b600081519050612a2081613ef3565b92915050565b600081359050612a3581613f0a565b92915050565b600081359050612a4a81613f21565b92915050565b600081359050612a5f81613f38565b92915050565b600081519050612a7481613f38565b92915050565b600081519050612a8981613f4f565b92915050565b600060208284031215612aa157600080fd5b6000612aaf848285016129e7565b91505092915050565b60008060408385031215612acb57600080fd5b6000612ad9858286016129e7565b9250506020612aea858286016129e7565b9150509250929050565b600080600060608486031215612b0957600080fd5b6000612b17868287016129e7565b9350506020612b28868287016129e7565b9250506040612b39868287016129e7565b9150509250925092565b600080600060608486031215612b5857600080fd5b6000612b66868287016129fc565b9350506020612b77868287016129fc565b9250506040612b88868287016129fc565b9150509250925092565b600080600060608486031215612ba757600080fd5b6000612bb5868287016129e7565b9350506020612bc6868287016129e7565b9250506040612bd786828701612a50565b9150509250925092565b60008060408385031215612bf457600080fd5b6000612c02858286016129e7565b9250506020612c1385828601612a50565b9150509250929050565b600060208284031215612c2f57600080fd5b6000612c3d84828501612a11565b91505092915050565b600060208284031215612c5857600080fd5b6000612c6684828501612a26565b91505092915050565b60008060408385031215612c8257600080fd5b6000612c9085828601612a26565b9250506020612ca1858286016129e7565b9150509250929050565b600060208284031215612cbd57600080fd5b6000612ccb84828501612a3b565b91505092915050565b600060208284031215612ce657600080fd5b6000612cf484828501612a65565b91505092915050565b60008060408385031215612d1057600080fd5b6000612d1e85828601612a50565b9250506020612d2f858286016129e7565b9150509250929050565b600080600060608486031215612d4e57600080fd5b6000612d5c86828701612a50565b9350506020612d6d868287016129e7565b9250506040612d7e868287016129e7565b9150509250925092565b600060208284031215612d9a57600080fd5b6000612da884828501612a7a565b91505092915050565b612dba81613793565b82525050565b612dc9816137a5565b82525050565b612dd8816137b1565b82525050565b6000612de9826136a6565b612df381856136bc565b9350612e0381856020860161383e565b80840191505092915050565b612e188161382c565b82525050565b6000612e29826136b1565b612e3381856136c7565b9350612e4381856020860161383e565b612e4c8161392b565b840191505092915050565b6000612e62826136b1565b612e6c81856136d8565b9350612e7c81856020860161383e565b80840191505092915050565b6000612e956020836136c7565b9150612ea08261393c565b602082019050919050565b6000612eb86023836136c7565b9150612ec382613965565b604082019050919050565b6000612edb6014836136c7565b9150612ee6826139b4565b602082019050919050565b6000612efe6022836136c7565b9150612f09826139dd565b604082019050919050565b6000612f216022836136c7565b9150612f2c82613a2c565b604082019050919050565b6000612f44601d836136c7565b9150612f4f82613a7b565b602082019050919050565b6000612f676026836136c7565b9150612f7282613aa4565b604082019050919050565b6000612f8a601a836136c7565b9150612f9582613af3565b602082019050919050565b6000612fad6014836136c7565b9150612fb882613b1c565b602082019050919050565b6000612fd06026836136c7565b9150612fdb82613b45565b604082019050919050565b6000612ff36010836136c7565b9150612ffe82613b94565b602082019050919050565b60006130166021836136c7565b915061302182613bbd565b604082019050919050565b60006130396025836136c7565b915061304482613c0c565b604082019050919050565b600061305c6016836136c7565b915061306782613c5b565b602082019050919050565b600061307f6024836136c7565b915061308a82613c84565b604082019050919050565b60006130a2601d836136c7565b91506130ad82613cd3565b602082019050919050565b60006130c56017836136d8565b91506130d082613cfc565b601782019050919050565b60006130e8602a836136c7565b91506130f382613d25565b604082019050919050565b600061310b601f836136c7565b915061311682613d74565b602082019050919050565b600061312e6036836136c7565b915061313982613d9d565b604082019050919050565b60006131516025836136c7565b915061315c82613dec565b604082019050919050565b60006131746011836136d8565b915061317f82613e3b565b601182019050919050565b6000613197602f836136c7565b91506131a282613e64565b604082019050919050565b60006131ba601f836136c7565b91506131c582613eb3565b602082019050919050565b6131d981613815565b82525050565b6131e88161381f565b82525050565b60006131fa8284612dde565b915081905092915050565b6000613210826130b8565b915061321c8285612e57565b915061322782613167565b91506132338284612e57565b91508190509392505050565b60006020820190506132546000830184612db1565b92915050565b600060408201905061326f6000830185612db1565b61327c6020830184612db1565b9392505050565b60006060820190506132986000830186612db1565b6132a56020830185612db1565b6132b260408301846131d0565b949350505050565b60006040820190506132cf6000830185612db1565b6132dc60208301846131d0565b9392505050565b60006080820190506132f86000830187612db1565b61330560208301866131d0565b6133126040830185612db1565b61331f6060830184612e0f565b95945050505050565b600060208201905061333d6000830184612dc0565b92915050565b60006020820190506133586000830184612dcf565b92915050565b600060208201905081810360008301526133788184612e1e565b905092915050565b6000604082019050818103600083015261339a8185612e1e565b90506133a960208301846131d0565b9392505050565b600060208201905081810360008301526133c981612e88565b9050919050565b600060208201905081810360008301526133e981612eab565b9050919050565b6000602082019050818103600083015261340981612ece565b9050919050565b6000602082019050818103600083015261342981612ef1565b9050919050565b6000602082019050818103600083015261344981612f14565b9050919050565b6000602082019050818103600083015261346981612f37565b9050919050565b6000602082019050818103600083015261348981612f5a565b9050919050565b600060208201905081810360008301526134a981612f7d565b9050919050565b600060208201905081810360008301526134c981612fa0565b9050919050565b600060208201905081810360008301526134e981612fc3565b9050919050565b6000602082019050818103600083015261350981612fe6565b9050919050565b6000602082019050818103600083015261352981613009565b9050919050565b600060208201905081810360008301526135498161302c565b9050919050565b600060208201905081810360008301526135698161304f565b9050919050565b6000602082019050818103600083015261358981613072565b9050919050565b600060208201905081810360008301526135a981613095565b9050919050565b600060208201905081810360008301526135c9816130db565b9050919050565b600060208201905081810360008301526135e9816130fe565b9050919050565b6000602082019050818103600083015261360981613121565b9050919050565b6000602082019050818103600083015261362981613144565b9050919050565b600060208201905081810360008301526136498161318a565b9050919050565b60006020820190508181036000830152613669816131ad565b9050919050565b600060208201905061368560008301846131d0565b92915050565b60006020820190506136a060008301846131df565b92915050565b600081519050919050565b600081519050919050565b600081905092915050565b600082825260208201905092915050565b600081905092915050565b60006136ee82613815565b91506136f983613815565b9250827fffffffffffffffffffffffffffffffffffffffffffffffffffffffffffffffff0382111561372e5761372d6138cd565b5b828201905092915050565b600061374482613815565b915061374f83613815565b9250817fffffffffffffffffffffffffffffffffffffffffffffffffffffffffffffffff0483118215151615613788576137876138cd565b5b828202905092915050565b600061379e826137f5565b9050919050565b60008115159050919050565b6000819050919050565b60007fffffffff0000000000000000000000000000000000000000000000000000000082169050919050565b600061ffff82169050919050565b600073ffffffffffffffffffffffffffffffffffffffff82169050919050565b6000819050919050565b600060ff82169050919050565b6000613837826137e7565b9050919050565b60005b8381101561385c578082015181840152602081019050613841565b8381111561386b576000848401525b50505050565b600061387c82613815565b915060008214156138905761388f6138cd565b5b600182039050919050565b600060028204905060018216806138b357607f821691505b602082108114156138c7576138c66138fc565b5b50919050565b7f4e487b7100000000000000000000000000000000000000000000000000000000600052601160045260246000fd5b7f4e487b7100000000000000000000000000000000000000000000000000000000600052602260045260246000fd5b6000601f19601f8301169050919050565b7f537472696e67733a20686578206c656e67746820696e73756666696369656e74600082015250565b7f45524332303a207472616e7366657220746f20746865207a65726f206164647260008201527f6573730000000000000000000000000000000000000000000000000000000000602082015250565b7f5061757361626c653a206e6f7420706175736564000000000000000000000000600082015250565b7f45524332303a206275726e20616d6f756e7420657863656564732062616c616e60008201527f6365000000000000000000000000000000000000000000000000000000000000602082015250565b7f45524332303a20617070726f766520746f20746865207a65726f20616464726560008201527f7373000000000000000000000000000000000000000000000000000000000000602082015250565b7f45524332303a20696e73756666696369656e7420616c6c6f77616e6365000000600082015250565b7f45524332303a207472616e7366657220616d6f756e742065786365656473206260008201527f616c616e63650000000000000000000000000000000000000000000000000000602082015250565b7f496e73756666696369656e74207661756c742062616c616e6365000000000000600082015250565b7f496e73756666696369656e742062616c616e6365000000000000000000000000600082015250565b7f416464726573733a20696e73756666696369656e742062616c616e636520666f60008201527f722063616c6c0000000000000000000000000000000000000000000000000000602082015250565b7f5061757361626c653a2070617573656400000000000000000000000000000000600082015250565b7f45524332303a206275726e2066726f6d20746865207a65726f2061646472657360008201527f7300000000000000000000000000000000000000000000000000000000000000602082015250565b7f45524332303a207472616e736665722066726f6d20746865207a65726f20616460008201527f6472657373000000000000000000000000000000000000000000000000000000602082015250565b7f43616c6c6572206973206e6f7420616e2041646d696e00000000000000000000600082015250565b7f45524332303a20617070726f76652066726f6d20746865207a65726f2061646460008201527f7265737300000000000000000000000000000000000000000000000000000000602082015250565b7f416464726573733a2063616c6c20746f206e6f6e2d636f6e7472616374000000600082015250565b7f416363657373436f6e74726f6c3a206163636f756e7420000000000000000000600082015250565b7f5361666545524332303a204552433230206f7065726174696f6e20646964206e60008201527f6f74207375636365656400000000000000000000000000000000000000000000602082015250565b7f5265656e7472616e637947756172643a207265656e7472616e742063616c6c00600082015250565b7f5361666545524332303a20617070726f76652066726f6d206e6f6e2d7a65726f60008201527f20746f206e6f6e2d7a65726f20616c6c6f77616e636500000000000000000000602082015250565b7f45524332303a2064656372656173656420616c6c6f77616e63652062656c6f7760008201527f207a65726f000000000000000000000000000000000000000000000000000000602082015250565b7f206973206d697373696e6720726f6c6520000000000000000000000000000000600082015250565b7f416363657373436f6e74726f6c3a2063616e206f6e6c792072656e6f756e636560008201527f20726f6c657320666f722073656c660000000000000000000000000000000000602082015250565b7f45524332303a206d696e7420746f20746865207a65726f206164647265737300600082015250565b613ee581613793565b8114613ef057600080fd5b50565b613efc816137a5565b8114613f0757600080fd5b50565b613f13816137b1565b8114613f1e57600080fd5b50565b613f2a816137bb565b8114613f3557600080fd5b50565b613f4181613815565b8114613f4c57600080fd5b50565b613f588161381f565b8114613f6357600080fd5b5056fea2646970667358221220819edb4f8b1f3aa774336b0043d9ec64184ea4395880c36b0d5626867e1c203e64736f6c63430008010033",
  "linkReferences": {},
  "deployedLinkReferences": {}
}