{
  "_format": "hh-sol-artifact-1",
  "contractName": "AgreementContract",
  "sourceName": "contracts/AgreementContract.sol",
  "abi": [
    {
      "inputs": [
        {
          "internalType": "address",
          "name": "_kyodoTreasury",
          "type": "address"
        },
        {
          "internalType": "address",
          "name": "_communityDAO",
          "type": "address"
        }
      ],
      "stateMutability": "nonpayable",
      "type": "constructor"
    },
    {
      "inputs": [],
      "name": "W3DStableVault",
      "outputs": [
        {
          "internalType": "contract IW3DStableVault",
          "name": "",
          "type": "address"
        }
      ],
      "stateMutability": "view",
      "type": "function"
    },
    {
      "inputs": [
        {
          "internalType": "address",
          "name": "",
          "type": "address"
        }
      ],
      "name": "acceptedPaymentTokens",
      "outputs": [
        {
          "internalType": "bool",
          "name": "",
          "type": "bool"
        }
      ],
      "stateMutability": "view",
      "type": "function"
    },
    {
      "inputs": [
        {
          "internalType": "address",
          "name": "_tokenAddress",
          "type": "address"
        }
      ],
      "name": "addAcceptedPaymentToken",
      "outputs": [],
      "stateMutability": "nonpayable",
      "type": "function"
    },
    {
      "inputs": [
        {
          "internalType": "uint256",
          "name": "",
          "type": "uint256"
        }
      ],
      "name": "agreements",
      "outputs": [
        {
          "internalType": "uint256",
          "name": "id",
          "type": "uint256"
        },
        {
          "internalType": "string",
          "name": "title",
          "type": "string"
        },
        {
          "internalType": "string",
          "name": "description",
          "type": "string"
        },
        {
          "internalType": "enum AgreementContract.AgreementStatus",
          "name": "status",
          "type": "uint8"
        },
        {
          "internalType": "address",
          "name": "company",
          "type": "address"
        },
        {
          "internalType": "address",
          "name": "developer",
          "type": "address"
        },
        {
          "components": [
            {
              "internalType": "uint256",
              "name": "amount",
              "type": "uint256"
            },
            {
              "internalType": "address",
              "name": "tokenAddress",
              "type": "address"
            }
          ],
          "internalType": "struct AgreementContract.Token",
          "name": "tokenIncentive",
          "type": "tuple"
        },
        {
          "components": [
            {
              "internalType": "uint256",
              "name": "amount",
              "type": "uint256"
            },
            {
              "internalType": "address",
              "name": "tokenAddress",
              "type": "address"
            }
          ],
          "internalType": "struct AgreementContract.Token",
          "name": "payment",
          "type": "tuple"
        },
        {
          "internalType": "uint256",
          "name": "totalPaid",
          "type": "uint256"
        }
      ],
      "stateMutability": "view",
      "type": "function"
    },
    {
      "inputs": [],
      "name": "communityDAO",
      "outputs": [
        {
          "internalType": "address",
          "name": "",
          "type": "address"
        }
      ],
      "stateMutability": "view",
      "type": "function"
    },
    {
      "inputs": [],
      "name": "communityDAOFee",
      "outputs": [
        {
          "internalType": "uint256",
          "name": "",
          "type": "uint256"
        }
      ],
      "stateMutability": "view",
      "type": "function"
    },
    {
      "inputs": [
        {
          "internalType": "string",
          "name": "_title",
          "type": "string"
        },
        {
          "internalType": "string",
          "name": "_description",
          "type": "string"
        },
        {
          "internalType": "address",
          "name": "_developer",
          "type": "address"
        },
        {
          "internalType": "string[]",
          "name": "_skills",
          "type": "string[]"
        },
        {
          "internalType": "uint256",
          "name": "_paymentAmount",
          "type": "uint256"
        },
        {
          "internalType": "address",
          "name": "_paymentAddress",
          "type": "address"
        }
      ],
      "name": "createAgreement",
      "outputs": [],
      "stateMutability": "nonpayable",
      "type": "function"
    },
    {
      "inputs": [],
      "name": "feePercentage",
      "outputs": [
        {
          "internalType": "uint256",
          "name": "",
          "type": "uint256"
        }
      ],
      "stateMutability": "view",
      "type": "function"
    },
    {
      "inputs": [
        {
          "internalType": "uint256",
          "name": "_id",
          "type": "uint256"
        }
      ],
      "name": "getAgreementById",
      "outputs": [
        {
          "components": [
            {
              "internalType": "uint256",
              "name": "id",
              "type": "uint256"
            },
            {
              "internalType": "string",
              "name": "title",
              "type": "string"
            },
            {
              "internalType": "string",
              "name": "description",
              "type": "string"
            },
            {
              "internalType": "enum AgreementContract.AgreementStatus",
              "name": "status",
              "type": "uint8"
            },
            {
              "internalType": "address",
              "name": "company",
              "type": "address"
            },
            {
              "internalType": "address",
              "name": "developer",
              "type": "address"
            },
            {
              "internalType": "string[]",
              "name": "skills",
              "type": "string[]"
            },
            {
              "components": [
                {
                  "internalType": "uint256",
                  "name": "amount",
                  "type": "uint256"
                },
                {
                  "internalType": "address",
                  "name": "tokenAddress",
                  "type": "address"
                }
              ],
              "internalType": "struct AgreementContract.Token",
              "name": "tokenIncentive",
              "type": "tuple"
            },
            {
              "components": [
                {
                  "internalType": "uint256",
                  "name": "amount",
                  "type": "uint256"
                },
                {
                  "internalType": "address",
                  "name": "tokenAddress",
                  "type": "address"
                }
              ],
              "internalType": "struct AgreementContract.Token",
              "name": "payment",
              "type": "tuple"
            },
            {
              "internalType": "uint256",
              "name": "totalPaid",
              "type": "uint256"
            }
          ],
          "internalType": "struct AgreementContract.Agreement",
          "name": "",
          "type": "tuple"
        }
      ],
      "stateMutability": "view",
      "type": "function"
    },
    {
      "inputs": [],
      "name": "getAgreementCount",
      "outputs": [
        {
          "internalType": "uint256",
          "name": "",
          "type": "uint256"
        }
      ],
      "stateMutability": "view",
      "type": "function"
    },
    {
      "inputs": [],
      "name": "getAllAgreements",
      "outputs": [
        {
          "components": [
            {
              "internalType": "uint256",
              "name": "id",
              "type": "uint256"
            },
            {
              "internalType": "string",
              "name": "title",
              "type": "string"
            },
            {
              "internalType": "string",
              "name": "description",
              "type": "string"
            },
            {
              "internalType": "enum AgreementContract.AgreementStatus",
              "name": "status",
              "type": "uint8"
            },
            {
              "internalType": "address",
              "name": "company",
              "type": "address"
            },
            {
              "internalType": "address",
              "name": "developer",
              "type": "address"
            },
            {
              "internalType": "string[]",
              "name": "skills",
              "type": "string[]"
            },
            {
              "components": [
                {
                  "internalType": "uint256",
                  "name": "amount",
                  "type": "uint256"
                },
                {
                  "internalType": "address",
                  "name": "tokenAddress",
                  "type": "address"
                }
              ],
              "internalType": "struct AgreementContract.Token",
              "name": "tokenIncentive",
              "type": "tuple"
            },
            {
              "components": [
                {
                  "internalType": "uint256",
                  "name": "amount",
                  "type": "uint256"
                },
                {
                  "internalType": "address",
                  "name": "tokenAddress",
                  "type": "address"
                }
              ],
              "internalType": "struct AgreementContract.Token",
              "name": "payment",
              "type": "tuple"
            },
            {
              "internalType": "uint256",
              "name": "totalPaid",
              "type": "uint256"
            }
          ],
          "internalType": "struct AgreementContract.Agreement[]",
          "name": "",
          "type": "tuple[]"
        }
      ],
      "stateMutability": "view",
      "type": "function"
    },
    {
      "inputs": [
        {
          "internalType": "address",
          "name": "_user",
          "type": "address"
        }
      ],
      "name": "getUserAgreements",
      "outputs": [
        {
          "internalType": "uint256[]",
          "name": "",
          "type": "uint256[]"
        }
      ],
      "stateMutability": "view",
      "type": "function"
    },
    {
      "inputs": [],
      "name": "kyodoTreasury",
      "outputs": [
        {
          "internalType": "address",
          "name": "",
          "type": "address"
        }
      ],
      "stateMutability": "view",
      "type": "function"
    },
    {
      "inputs": [],
      "name": "kyodoTreasuryFee",
      "outputs": [
        {
          "internalType": "uint256",
          "name": "",
          "type": "uint256"
        }
      ],
      "stateMutability": "view",
      "type": "function"
    },
    {
      "inputs": [
        {
          "internalType": "uint256",
          "name": "_agreementId",
          "type": "uint256"
        },
        {
          "internalType": "uint256",
          "name": "_amountToPay",
          "type": "uint256"
        }
      ],
      "name": "makePayment",
      "outputs": [],
      "stateMutability": "nonpayable",
      "type": "function"
    },
    {
      "inputs": [],
      "name": "nextAgreementId",
      "outputs": [
        {
          "internalType": "uint256",
          "name": "",
          "type": "uint256"
        }
      ],
      "stateMutability": "view",
      "type": "function"
    },
    {
      "inputs": [],
      "name": "owner",
      "outputs": [
        {
          "internalType": "address",
          "name": "",
          "type": "address"
        }
      ],
      "stateMutability": "view",
      "type": "function"
    },
    {
      "inputs": [
        {
          "internalType": "uint256",
          "name": "_feePercentage",
          "type": "uint256"
        },
        {
          "internalType": "uint256",
          "name": "_kyodoTreasuryFee",
          "type": "uint256"
        },
        {
          "internalType": "uint256",
          "name": "_communityDAOFee",
          "type": "uint256"
        }
      ],
      "name": "setFees",
      "outputs": [],
      "stateMutability": "nonpayable",
      "type": "function"
    },
    {
      "inputs": [
        {
          "internalType": "address",
          "name": "_W3DStableVaultAddress",
          "type": "address"
        }
      ],
      "name": "setW3DStableVaultAddress",
      "outputs": [],
      "stateMutability": "nonpayable",
      "type": "function"
    },
    {
      "inputs": [],
      "name": "tokenIncentive",
      "outputs": [
        {
          "internalType": "uint256",
          "name": "amount",
          "type": "uint256"
        },
        {
          "internalType": "address",
          "name": "tokenAddress",
          "type": "address"
        }
      ],
      "stateMutability": "view",
      "type": "function"
    },
    {
      "inputs": [
        {
          "internalType": "address",
          "name": "_newTokenAddress",
          "type": "address"
        },
        {
          "internalType": "uint256",
          "name": "_newAmount",
          "type": "uint256"
        }
      ],
      "name": "updateTokenIncentive",
      "outputs": [],
      "stateMutability": "nonpayable",
      "type": "function"
    },
    {
      "inputs": [
        {
          "internalType": "address",
          "name": "",
          "type": "address"
        },
        {
          "internalType": "uint256",
          "name": "",
          "type": "uint256"
        }
      ],
      "name": "userAgreements",
      "outputs": [
        {
          "internalType": "uint256",
          "name": "",
          "type": "uint256"
        }
      ],
      "stateMutability": "view",
      "type": "function"
    }
  ],
  "bytecode": "0x608060405260016000553480156200001657600080fd5b506040516200377f3803806200377f83398181016040528101906200003c919062000171565b33600660006101000a81548173ffffffffffffffffffffffffffffffffffffffff021916908373ffffffffffffffffffffffffffffffffffffffff16021790555081600760006101000a81548173ffffffffffffffffffffffffffffffffffffffff021916908373ffffffffffffffffffffffffffffffffffffffff16021790555080600860006101000a81548173ffffffffffffffffffffffffffffffffffffffff021916908373ffffffffffffffffffffffffffffffffffffffff1602179055505050620001b8565b600080fd5b600073ffffffffffffffffffffffffffffffffffffffff82169050919050565b600062000139826200010c565b9050919050565b6200014b816200012c565b81146200015757600080fd5b50565b6000815190506200016b8162000140565b92915050565b600080604083850312156200018b576200018a62000107565b5b60006200019b858286016200015a565b9250506020620001ae858286016200015a565b9150509250929050565b6135b780620001c86000396000f3fe608060405234801561001057600080fd5b506004361061012b5760003560e01c80638207546e116100ad578063bd14de9611610071578063bd14de9614610335578063c9b99dab1461036d578063c9e929051461038b578063cec10c11146103a9578063d390f974146103c55761012b565b80638207546e1461028d5780638da5cb5b146102ab578063964bb4ab146102c9578063a001ecdd146102e7578063adb9cae6146103055761012b565b80634c27984e116100f45780634c27984e146101d55780634e6873c714610205578063573fb624146102235780637d239907146102535780637e698256146102715761012b565b80628bed3e1461013057806313cda3b71461014e5780631686acfe1461016a5780632426860514610186578063484bb244146101a5575b600080fd5b6101386103e1565b6040516101459190611fb7565b60405180910390f35b61016860048036038101906101639190612044565b6103ee565b005b610184600480360381019061017f91906122c9565b6104d9565b005b61018e610a0e565b60405161019c9291906123b9565b60405180910390f35b6101bf60048036038101906101ba9190612044565b610a40565b6040516101cc91906123fd565b60405180910390f35b6101ef60048036038101906101ea9190612418565b610a60565b6040516101fc9190611fb7565b60405180910390f35b61020d610a91565b60405161021a9190612807565b60405180910390f35b61023d60048036038101906102389190612829565b610ed1565b60405161024a919061293e565b60405180910390f35b61025b61134d565b6040516102689190611fb7565b60405180910390f35b61028b60048036038101906102869190612418565b611353565b005b610295611468565b6040516102a29190612960565b60405180910390f35b6102b361148e565b6040516102c09190612960565b60405180910390f35b6102d16114b4565b6040516102de9190612960565b60405180910390f35b6102ef6114da565b6040516102fc9190611fb7565b60405180910390f35b61031f600480360381019061031a9190612044565b6114e0565b60405161032c9190612a2a565b60405180910390f35b61034f600480360381019061034a9190612829565b611577565b60405161036499989796959493929190612ad4565b60405180910390f35b610375611806565b6040516103829190611fb7565b60405180910390f35b61039361180c565b6040516103a09190611fb7565b60405180910390f35b6103c360048036038101906103be9190612b70565b611812565b005b6103df60048036038101906103da9190612bc3565b61190e565b005b6000600180549050905090565b600660009054906101000a900473ffffffffffffffffffffffffffffffffffffffff1673ffffffffffffffffffffffffffffffffffffffff163373ffffffffffffffffffffffffffffffffffffffff161461047e576040517f08c379a000000000000000000000000000000000000000000000000000000000815260040161047590612c75565b60405180910390fd5b6001600360008373ffffffffffffffffffffffffffffffffffffffff1673ffffffffffffffffffffffffffffffffffffffff16815260200190815260200160002060006101000a81548160ff02191690831515021790555050565b600073ffffffffffffffffffffffffffffffffffffffff168473ffffffffffffffffffffffffffffffffffffffff1603610548576040517f08c379a000000000000000000000000000000000000000000000000000000000815260040161053f90612ce1565b60405180910390fd5b600083511161058c576040517f08c379a000000000000000000000000000000000000000000000000000000000815260040161058390612d4d565b60405180910390fd5b600082116105cf576040517f08c379a00000000000000000000000000000000000000000000000000000000081526004016105c690612ddf565b60405180910390fd5b600360008273ffffffffffffffffffffffffffffffffffffffff1673ffffffffffffffffffffffffffffffffffffffff16815260200190815260200160002060009054906101000a900460ff1661065b576040517f08c379a000000000000000000000000000000000000000000000000000000000815260040161065290612e4b565b60405180910390fd5b600060405180604001604052808481526020018373ffffffffffffffffffffffffffffffffffffffff16815250905060006040518061014001604052806000548152602001898152602001888152602001600060018111156106c0576106bf612512565b5b81526020013373ffffffffffffffffffffffffffffffffffffffff1681526020018773ffffffffffffffffffffffffffffffffffffffff1681526020018681526020016004604051806040016040529081600082015481526020016001820160009054906101000a900473ffffffffffffffffffffffffffffffffffffffff1673ffffffffffffffffffffffffffffffffffffffff1673ffffffffffffffffffffffffffffffffffffffff168152505081526020018381526020016000815250905060018190806001815401808255809150506001900390600052602060002090600b02016000909190919091506000820151816000015560208201518160010190816107cd9190613077565b5060408201518160020190816107e39190613077565b5060608201518160030160006101000a81548160ff0219169083600181111561080f5761080e612512565b5b021790555060808201518160030160016101000a81548173ffffffffffffffffffffffffffffffffffffffff021916908373ffffffffffffffffffffffffffffffffffffffff16021790555060a08201518160040160006101000a81548173ffffffffffffffffffffffffffffffffffffffff021916908373ffffffffffffffffffffffffffffffffffffffff16021790555060c08201518160050190805190602001906108be929190611df7565b5060e0820151816006016000820151816000015560208201518160010160006101000a81548173ffffffffffffffffffffffffffffffffffffffff021916908373ffffffffffffffffffffffffffffffffffffffff1602179055505050610100820151816008016000820151816000015560208201518160010160006101000a81548173ffffffffffffffffffffffffffffffffffffffff021916908373ffffffffffffffffffffffffffffffffffffffff160217905550505061012082015181600a01555050600260003373ffffffffffffffffffffffffffffffffffffffff1673ffffffffffffffffffffffffffffffffffffffff16815260200190815260200160002060005490806001815401808255809150506001900390600052602060002001600090919091909150556000808154809291906109ff90613178565b91905055505050505050505050565b60048060000154908060010160009054906101000a900473ffffffffffffffffffffffffffffffffffffffff16905082565b60036020528060005260406000206000915054906101000a900460ff1681565b60026020528160005260406000208181548110610a7c57600080fd5b90600052602060002001600091509150505481565b60606001805480602002602001604051908101604052809291908181526020016000905b82821015610ec857838290600052602060002090600b02016040518061014001604052908160008201548152602001600182018054610af390612e9a565b80601f0160208091040260200160405190810160405280929190818152602001828054610b1f90612e9a565b8015610b6c5780601f10610b4157610100808354040283529160200191610b6c565b820191906000526020600020905b815481529060010190602001808311610b4f57829003601f168201915b50505050508152602001600282018054610b8590612e9a565b80601f0160208091040260200160405190810160405280929190818152602001828054610bb190612e9a565b8015610bfe5780601f10610bd357610100808354040283529160200191610bfe565b820191906000526020600020905b815481529060010190602001808311610be157829003601f168201915b505050505081526020016003820160009054906101000a900460ff166001811115610c2c57610c2b612512565b5b6001811115610c3e57610c3d612512565b5b81526020016003820160019054906101000a900473ffffffffffffffffffffffffffffffffffffffff1673ffffffffffffffffffffffffffffffffffffffff1673ffffffffffffffffffffffffffffffffffffffff1681526020016004820160009054906101000a900473ffffffffffffffffffffffffffffffffffffffff1673ffffffffffffffffffffffffffffffffffffffff1673ffffffffffffffffffffffffffffffffffffffff16815260200160058201805480602002602001604051908101604052809291908181526020016000905b82821015610dbf578382906000526020600020018054610d3290612e9a565b80601f0160208091040260200160405190810160405280929190818152602001828054610d5e90612e9a565b8015610dab5780601f10610d8057610100808354040283529160200191610dab565b820191906000526020600020905b815481529060010190602001808311610d8e57829003601f168201915b505050505081526020019060010190610d13565b50505050815260200160068201604051806040016040529081600082015481526020016001820160009054906101000a900473ffffffffffffffffffffffffffffffffffffffff1673ffffffffffffffffffffffffffffffffffffffff1673ffffffffffffffffffffffffffffffffffffffff1681525050815260200160088201604051806040016040529081600082015481526020016001820160009054906101000a900473ffffffffffffffffffffffffffffffffffffffff1673ffffffffffffffffffffffffffffffffffffffff1673ffffffffffffffffffffffffffffffffffffffff16815250508152602001600a8201548152505081526020019060010190610ab5565b50505050905090565b610ed9611e50565b600082118015610eee57506001805490508211155b610f2d576040517f08c379a0000000000000000000000000000000000000000000000000000000008152600401610f249061320c565b60405180910390fd5b60018083610f3b919061322c565b81548110610f4c57610f4b613260565b5b90600052602060002090600b02016040518061014001604052908160008201548152602001600182018054610f8090612e9a565b80601f0160208091040260200160405190810160405280929190818152602001828054610fac90612e9a565b8015610ff95780601f10610fce57610100808354040283529160200191610ff9565b820191906000526020600020905b815481529060010190602001808311610fdc57829003601f168201915b5050505050815260200160028201805461101290612e9a565b80601f016020809104026020016040519081016040528092919081815260200182805461103e90612e9a565b801561108b5780601f106110605761010080835404028352916020019161108b565b820191906000526020600020905b81548152906001019060200180831161106e57829003601f168201915b505050505081526020016003820160009054906101000a900460ff1660018111156110b9576110b8612512565b5b60018111156110cb576110ca612512565b5b81526020016003820160019054906101000a900473ffffffffffffffffffffffffffffffffffffffff1673ffffffffffffffffffffffffffffffffffffffff1673ffffffffffffffffffffffffffffffffffffffff1681526020016004820160009054906101000a900473ffffffffffffffffffffffffffffffffffffffff1673ffffffffffffffffffffffffffffffffffffffff1673ffffffffffffffffffffffffffffffffffffffff16815260200160058201805480602002602001604051908101604052809291908181526020016000905b8282101561124c5783829060005260206000200180546111bf90612e9a565b80601f01602080910402602001604051908101604052809291908181526020018280546111eb90612e9a565b80156112385780601f1061120d57610100808354040283529160200191611238565b820191906000526020600020905b81548152906001019060200180831161121b57829003601f168201915b5050505050815260200190600101906111a0565b50505050815260200160068201604051806040016040529081600082015481526020016001820160009054906101000a900473ffffffffffffffffffffffffffffffffffffffff1673ffffffffffffffffffffffffffffffffffffffff1673ffffffffffffffffffffffffffffffffffffffff1681525050815260200160088201604051806040016040529081600082015481526020016001820160009054906101000a900473ffffffffffffffffffffffffffffffffffffffff1673ffffffffffffffffffffffffffffffffffffffff1673ffffffffffffffffffffffffffffffffffffffff16815250508152602001600a820154815250509050919050565b600a5481565b600660009054906101000a900473ffffffffffffffffffffffffffffffffffffffff1673ffffffffffffffffffffffffffffffffffffffff163373ffffffffffffffffffffffffffffffffffffffff16146113e3576040517f08c379a00000000000000000000000000000000000000000000000000000000081526004016113da90612c75565b60405180910390fd5b60405180604001604052808281526020018373ffffffffffffffffffffffffffffffffffffffff1681525060046000820151816000015560208201518160010160006101000a81548173ffffffffffffffffffffffffffffffffffffffff021916908373ffffffffffffffffffffffffffffffffffffffff1602179055509050505050565b600860009054906101000a900473ffffffffffffffffffffffffffffffffffffffff1681565b600660009054906101000a900473ffffffffffffffffffffffffffffffffffffffff1681565b600760009054906101000a900473ffffffffffffffffffffffffffffffffffffffff1681565b60095481565b6060600260008373ffffffffffffffffffffffffffffffffffffffff1673ffffffffffffffffffffffffffffffffffffffff16815260200190815260200160002080548060200260200160405190810160405280929190818152602001828054801561156b57602002820191906000526020600020905b815481526020019060010190808311611557575b50505050509050919050565b6001818154811061158757600080fd5b90600052602060002090600b02016000915090508060000154908060010180546115b090612e9a565b80601f01602080910402602001604051908101604052809291908181526020018280546115dc90612e9a565b80156116295780601f106115fe57610100808354040283529160200191611629565b820191906000526020600020905b81548152906001019060200180831161160c57829003601f168201915b50505050509080600201805461163e90612e9a565b80601f016020809104026020016040519081016040528092919081815260200182805461166a90612e9a565b80156116b75780601f1061168c576101008083540402835291602001916116b7565b820191906000526020600020905b81548152906001019060200180831161169a57829003601f168201915b5050505050908060030160009054906101000a900460ff16908060030160019054906101000a900473ffffffffffffffffffffffffffffffffffffffff16908060040160009054906101000a900473ffffffffffffffffffffffffffffffffffffffff169080600601604051806040016040529081600082015481526020016001820160009054906101000a900473ffffffffffffffffffffffffffffffffffffffff1673ffffffffffffffffffffffffffffffffffffffff1673ffffffffffffffffffffffffffffffffffffffff16815250509080600801604051806040016040529081600082015481526020016001820160009054906101000a900473ffffffffffffffffffffffffffffffffffffffff1673ffffffffffffffffffffffffffffffffffffffff1673ffffffffffffffffffffffffffffffffffffffff16815250509080600a0154905089565b60005481565b600b5481565b600660009054906101000a900473ffffffffffffffffffffffffffffffffffffffff1673ffffffffffffffffffffffffffffffffffffffff163373ffffffffffffffffffffffffffffffffffffffff16146118a2576040517f08c379a000000000000000000000000000000000000000000000000000000000815260040161189990612c75565b60405180910390fd5b600083101580156118b557506127108311155b6118f4576040517f08c379a00000000000000000000000000000000000000000000000000000000081526004016118eb906132db565b60405180910390fd5b8260098190555081600a8190555080600b81905550505050565b60008211801561192357506001805490508211155b611962576040517f08c379a00000000000000000000000000000000000000000000000000000000081526004016119599061320c565b60405180910390fd5b600060018084611972919061322c565b8154811061198357611982613260565b5b90600052602060002090600b0201905060008060008060008060018111156119ae576119ad612512565b5b8660030160009054906101000a900460ff1660018111156119d2576119d1612512565b5b14611a12576040517f08c379a0000000000000000000000000000000000000000000000000000000008152600401611a0990613347565b60405180910390fd5b600086600801905060008160010160009054906101000a900473ffffffffffffffffffffffffffffffffffffffff169050600088600a01548360000154611a59919061322c565b905060008a118015611a6b5750808a11155b611aaa576040517f08c379a0000000000000000000000000000000000000000000000000000000008152600401611aa1906133b3565b60405180910390fd5b6103e8600954029750620f42408a890281611ac857611ac76133d3565b5b0496506103e8600a54880281611ae157611ae06133d3565b5b0495508587039450868a0393508173ffffffffffffffffffffffffffffffffffffffff166323b872dd33308d6040518463ffffffff1660e01b8152600401611b2b93929190613402565b6020604051808303816000875af1158015611b4a573d6000803e3d6000fd5b505050506040513d601f19601f82011682018060405250810190611b6e9190613465565b611bad576040517f08c379a0000000000000000000000000000000000000000000000000000000008152600401611ba490613504565b60405180910390fd5b8173ffffffffffffffffffffffffffffffffffffffff1663a9059cbb600760009054906101000a900473ffffffffffffffffffffffffffffffffffffffff16886040518363ffffffff1660e01b8152600401611c0a929190613524565b6020604051808303816000875af1158015611c29573d6000803e3d6000fd5b505050506040513d601f19601f82011682018060405250810190611c4d9190613465565b508173ffffffffffffffffffffffffffffffffffffffff1663a9059cbb600860009054906101000a900473ffffffffffffffffffffffffffffffffffffffff16876040518363ffffffff1660e01b8152600401611cab929190613524565b6020604051808303816000875af1158015611cca573d6000803e3d6000fd5b505050506040513d601f19601f82011682018060405250810190611cee9190613465565b508173ffffffffffffffffffffffffffffffffffffffff1663a9059cbb8a60040160009054906101000a900473ffffffffffffffffffffffffffffffffffffffff16866040518363ffffffff1660e01b8152600401611d4e929190613524565b6020604051808303816000875af1158015611d6d573d6000803e3d6000fd5b505050506040513d601f19601f82011682018060405250810190611d919190613465565b508989600a016000828254611da6919061354d565b92505081905550826000015489600a015410611dea5760018960030160006101000a81548160ff02191690836001811115611de457611de3612512565b5b02179055505b5050505050505050505050565b828054828255906000526020600020908101928215611e3f579160200282015b82811115611e3e578251829081611e2e9190613077565b5091602001919060010190611e17565b5b509050611e4c9190611eed565b5090565b60405180610140016040528060008152602001606081526020016060815260200160006001811115611e8557611e84612512565b5b8152602001600073ffffffffffffffffffffffffffffffffffffffff168152602001600073ffffffffffffffffffffffffffffffffffffffff16815260200160608152602001611ed3611f11565b8152602001611ee0611f11565b8152602001600081525090565b5b80821115611f0d5760008181611f049190611f41565b50600101611eee565b5090565b604051806040016040528060008152602001600073ffffffffffffffffffffffffffffffffffffffff1681525090565b508054611f4d90612e9a565b6000825580601f10611f5f5750611f7e565b601f016020900490600052602060002090810190611f7d9190611f81565b5b50565b5b80821115611f9a576000816000905550600101611f82565b5090565b6000819050919050565b611fb181611f9e565b82525050565b6000602082019050611fcc6000830184611fa8565b92915050565b6000604051905090565b600080fd5b600080fd5b600073ffffffffffffffffffffffffffffffffffffffff82169050919050565b600061201182611fe6565b9050919050565b61202181612006565b811461202c57600080fd5b50565b60008135905061203e81612018565b92915050565b60006020828403121561205a57612059611fdc565b5b60006120688482850161202f565b91505092915050565b600080fd5b600080fd5b6000601f19601f8301169050919050565b7f4e487b7100000000000000000000000000000000000000000000000000000000600052604160045260246000fd5b6120c48261207b565b810181811067ffffffffffffffff821117156120e3576120e261208c565b5b80604052505050565b60006120f6611fd2565b905061210282826120bb565b919050565b600067ffffffffffffffff8211156121225761212161208c565b5b61212b8261207b565b9050602081019050919050565b82818337600083830152505050565b600061215a61215584612107565b6120ec565b90508281526020810184848401111561217657612175612076565b5b612181848285612138565b509392505050565b600082601f83011261219e5761219d612071565b5b81356121ae848260208601612147565b91505092915050565b600067ffffffffffffffff8211156121d2576121d161208c565b5b602082029050602081019050919050565b600080fd5b60006121fb6121f6846121b7565b6120ec565b9050808382526020820190506020840283018581111561221e5761221d6121e3565b5b835b8181101561226557803567ffffffffffffffff81111561224357612242612071565b5b8086016122508982612189565b85526020850194505050602081019050612220565b5050509392505050565b600082601f83011261228457612283612071565b5b81356122948482602086016121e8565b91505092915050565b6122a681611f9e565b81146122b157600080fd5b50565b6000813590506122c38161229d565b92915050565b60008060008060008060c087890312156122e6576122e5611fdc565b5b600087013567ffffffffffffffff81111561230457612303611fe1565b5b61231089828a01612189565b965050602087013567ffffffffffffffff81111561233157612330611fe1565b5b61233d89828a01612189565b955050604061234e89828a0161202f565b945050606087013567ffffffffffffffff81111561236f5761236e611fe1565b5b61237b89828a0161226f565b935050608061238c89828a016122b4565b92505060a061239d89828a0161202f565b9150509295509295509295565b6123b381612006565b82525050565b60006040820190506123ce6000830185611fa8565b6123db60208301846123aa565b9392505050565b60008115159050919050565b6123f7816123e2565b82525050565b600060208201905061241260008301846123ee565b92915050565b6000806040838503121561242f5761242e611fdc565b5b600061243d8582860161202f565b925050602061244e858286016122b4565b9150509250929050565b600081519050919050565b600082825260208201905092915050565b6000819050602082019050919050565b61248d81611f9e565b82525050565b600081519050919050565b600082825260208201905092915050565b60005b838110156124cd5780820151818401526020810190506124b2565b60008484015250505050565b60006124e482612493565b6124ee818561249e565b93506124fe8185602086016124af565b6125078161207b565b840191505092915050565b7f4e487b7100000000000000000000000000000000000000000000000000000000600052602160045260246000fd5b6002811061255257612551612512565b5b50565b600081905061256382612541565b919050565b600061257382612555565b9050919050565b61258381612568565b82525050565b61259281612006565b82525050565b600081519050919050565b600082825260208201905092915050565b6000819050602082019050919050565b60006125d083836124d9565b905092915050565b6000602082019050919050565b60006125f082612598565b6125fa81856125a3565b93508360208202850161260c856125b4565b8060005b85811015612648578484038952815161262985826125c4565b9450612634836125d8565b925060208a01995050600181019050612610565b50829750879550505050505092915050565b6040820160008201516126706000850182612484565b5060208201516126836020850182612589565b50505050565b6000610180830160008301516126a26000860182612484565b50602083015184820360208601526126ba82826124d9565b915050604083015184820360408601526126d482826124d9565b91505060608301516126e9606086018261257a565b5060808301516126fc6080860182612589565b5060a083015161270f60a0860182612589565b5060c083015184820360c086015261272782826125e5565b91505060e083015161273c60e086018261265a565b5061010083015161275161012086018261265a565b50610120830151612766610160860182612484565b508091505092915050565b600061277d8383612689565b905092915050565b6000602082019050919050565b600061279d82612458565b6127a78185612463565b9350836020820285016127b985612474565b8060005b858110156127f557848403895281516127d68582612771565b94506127e183612785565b925060208a019950506001810190506127bd565b50829750879550505050505092915050565b600060208201905081810360008301526128218184612792565b905092915050565b60006020828403121561283f5761283e611fdc565b5b600061284d848285016122b4565b91505092915050565b60006101808301600083015161286f6000860182612484565b506020830151848203602086015261288782826124d9565b915050604083015184820360408601526128a182826124d9565b91505060608301516128b6606086018261257a565b5060808301516128c96080860182612589565b5060a08301516128dc60a0860182612589565b5060c083015184820360c08601526128f482826125e5565b91505060e083015161290960e086018261265a565b5061010083015161291e61012086018261265a565b50610120830151612933610160860182612484565b508091505092915050565b600060208201905081810360008301526129588184612856565b905092915050565b600060208201905061297560008301846123aa565b92915050565b600081519050919050565b600082825260208201905092915050565b6000819050602082019050919050565b60006129b38383612484565b60208301905092915050565b6000602082019050919050565b60006129d78261297b565b6129e18185612986565b93506129ec83612997565b8060005b83811015612a1d578151612a0488826129a7565b9750612a0f836129bf565b9250506001810190506129f0565b5085935050505092915050565b60006020820190508181036000830152612a4481846129cc565b905092915050565b600082825260208201905092915050565b6000612a6882612493565b612a728185612a4c565b9350612a828185602086016124af565b612a8b8161207b565b840191505092915050565b612a9f81612568565b82525050565b604082016000820151612abb6000850182612484565b506020820151612ace6020850182612589565b50505050565b600061016082019050612aea600083018c611fa8565b8181036020830152612afc818b612a5d565b90508181036040830152612b10818a612a5d565b9050612b1f6060830189612a96565b612b2c60808301886123aa565b612b3960a08301876123aa565b612b4660c0830186612aa5565b612b54610100830185612aa5565b612b62610140830184611fa8565b9a9950505050505050505050565b600080600060608486031215612b8957612b88611fdc565b5b6000612b97868287016122b4565b9350506020612ba8868287016122b4565b9250506040612bb9868287016122b4565b9150509250925092565b60008060408385031215612bda57612bd9611fdc565b5b6000612be8858286016122b4565b9250506020612bf9858286016122b4565b9150509250929050565b7f4f6e6c7920746865206f776e65722063616e2063616c6c20746869732066756e60008201527f6374696f6e000000000000000000000000000000000000000000000000000000602082015250565b6000612c5f602583612a4c565b9150612c6a82612c03565b604082019050919050565b60006020820190508181036000830152612c8e81612c52565b9050919050565b7f446576656c6f70657220616464726573732063616e6e6f74206265207a65726f600082015250565b6000612ccb602083612a4c565b9150612cd682612c95565b602082019050919050565b60006020820190508181036000830152612cfa81612cbe565b9050919050565b7f536b696c6c73206d757374206e6f7420626520656d7074790000000000000000600082015250565b6000612d37601883612a4c565b9150612d4282612d01565b602082019050919050565b60006020820190508181036000830152612d6681612d2a565b9050919050565b7f5061796d656e7420616d6f756e74206d7573742062652067726561746572207460008201527f68616e207a65726f000000000000000000000000000000000000000000000000602082015250565b6000612dc9602883612a4c565b9150612dd482612d6d565b604082019050919050565b60006020820190508181036000830152612df881612dbc565b9050919050565b7f496e76616c6964207061796d656e7420746f6b656e0000000000000000000000600082015250565b6000612e35601583612a4c565b9150612e4082612dff565b602082019050919050565b60006020820190508181036000830152612e6481612e28565b9050919050565b7f4e487b7100000000000000000000000000000000000000000000000000000000600052602260045260246000fd5b60006002820490506001821680612eb257607f821691505b602082108103612ec557612ec4612e6b565b5b50919050565b60008190508160005260206000209050919050565b60006020601f8301049050919050565b600082821b905092915050565b600060088302612f2d7fffffffffffffffffffffffffffffffffffffffffffffffffffffffffffffffff82612ef0565b612f378683612ef0565b95508019841693508086168417925050509392505050565b6000819050919050565b6000612f74612f6f612f6a84611f9e565b612f4f565b611f9e565b9050919050565b6000819050919050565b612f8e83612f59565b612fa2612f9a82612f7b565b848454612efd565b825550505050565b600090565b612fb7612faa565b612fc2818484612f85565b505050565b5b81811015612fe657612fdb600082612faf565b600181019050612fc8565b5050565b601f82111561302b57612ffc81612ecb565b61300584612ee0565b81016020851015613014578190505b61302861302085612ee0565b830182612fc7565b50505b505050565b600082821c905092915050565b600061304e60001984600802613030565b1980831691505092915050565b6000613067838361303d565b9150826002028217905092915050565b61308082612493565b67ffffffffffffffff8111156130995761309861208c565b5b6130a38254612e9a565b6130ae828285612fea565b600060209050601f8311600181146130e157600084156130cf578287015190505b6130d9858261305b565b865550613141565b601f1984166130ef86612ecb565b60005b82811015613117578489015182556001820191506020850194506020810190506130f2565b868310156131345784890151613130601f89168261303d565b8355505b6001600288020188555050505b505050505050565b7f4e487b7100000000000000000000000000000000000000000000000000000000600052601160045260246000fd5b600061318382611f9e565b91507fffffffffffffffffffffffffffffffffffffffffffffffffffffffffffffffff82036131b5576131b4613149565b5b600182019050919050565b7f496e76616c69642061677265656d656e74204944000000000000000000000000600082015250565b60006131f6601483612a4c565b9150613201826131c0565b602082019050919050565b60006020820190508181036000830152613225816131e9565b9050919050565b600061323782611f9e565b915061324283611f9e565b925082820390508181111561325a57613259613149565b5b92915050565b7f4e487b7100000000000000000000000000000000000000000000000000000000600052603260045260246000fd5b7f496e76616c6964206665652070657263656e7461676500000000000000000000600082015250565b60006132c5601683612a4c565b91506132d08261328f565b602082019050919050565b600060208201905081810360008301526132f4816132b8565b9050919050565b7f41677265656d656e74206973206e6f7420616374697665000000000000000000600082015250565b6000613331601783612a4c565b915061333c826132fb565b602082019050919050565b6000602082019050818103600083015261336081613324565b9050919050565b7f496e76616c6964207061796d656e7420616d6f756e7400000000000000000000600082015250565b600061339d601683612a4c565b91506133a882613367565b602082019050919050565b600060208201905081810360008301526133cc81613390565b9050919050565b7f4e487b7100000000000000000000000000000000000000000000000000000000600052601260045260246000fd5b600060608201905061341760008301866123aa565b61342460208301856123aa565b6134316040830184611fa8565b949350505050565b613442816123e2565b811461344d57600080fd5b50565b60008151905061345f81613439565b92915050565b60006020828403121561347b5761347a611fdc565b5b600061348984828501613450565b91505092915050565b7f55736572206d75737420617070726f76652074686520616d6f756e74206f662060008201527f7468652061677265656d656e7400000000000000000000000000000000000000602082015250565b60006134ee602d83612a4c565b91506134f982613492565b604082019050919050565b6000602082019050818103600083015261351d816134e1565b9050919050565b600060408201905061353960008301856123aa565b6135466020830184611fa8565b9392505050565b600061355882611f9e565b915061356383611f9e565b925082820190508082111561357b5761357a613149565b5b9291505056fea2646970667358221220d14087c12ecb2f655658cfb471a3990785f678c11bbe586a78fd7444f239c74e64736f6c63430008130033",
  "linkReferences": {},
  "deployedLinkReferences": {}
}