{
  "_format": "hh-sol-artifact-1",
  "contractName": "W3DStableVault",
  "sourceName": "contracts/W3DStableVault.sol",
  "abi": [
    {
      "inputs": [
        {
          "internalType": "address",
          "name": "admin",
          "type": "address"
        },
        {
          "internalType": "string",
          "name": "tokenName",
          "type": "string"
        },
        {
          "internalType": "string",
          "name": "tokenSymbol",
          "type": "string"
        }
      ],
      "stateMutability": "nonpayable",
      "type": "constructor"
    },
    {
      "anonymous": false,
      "inputs": [
        {
          "indexed": true,
          "internalType": "address",
          "name": "owner",
          "type": "address"
        },
        {
          "indexed": true,
          "internalType": "address",
          "name": "spender",
          "type": "address"
        },
        {
          "indexed": false,
          "internalType": "uint256",
          "name": "value",
          "type": "uint256"
        }
      ],
      "name": "Approval",
      "type": "event"
    },
    {
      "anonymous": false,
      "inputs": [
        {
          "indexed": false,
          "internalType": "uint256",
          "name": "_vaultBalance",
          "type": "uint256"
        }
      ],
      "name": "BalanceUpdated",
      "type": "event"
    },
    {
      "anonymous": false,
      "inputs": [
        {
          "indexed": true,
          "internalType": "address",
          "name": "new_admin",
          "type": "address"
        }
      ],
      "name": "NewAdminAdded",
      "type": "event"
    },
    {
      "anonymous": false,
      "inputs": [
        {
          "indexed": false,
          "internalType": "address",
          "name": "account",
          "type": "address"
        }
      ],
      "name": "Paused",
      "type": "event"
    },
    {
      "anonymous": false,
      "inputs": [
        {
          "indexed": true,
          "internalType": "address",
          "name": "removed_admin",
          "type": "address"
        }
      ],
      "name": "RemovedAdmin",
      "type": "event"
    },
    {
      "anonymous": false,
      "inputs": [
        {
          "indexed": true,
          "internalType": "bytes32",
          "name": "role",
          "type": "bytes32"
        },
        {
          "indexed": true,
          "internalType": "bytes32",
          "name": "previousAdminRole",
          "type": "bytes32"
        },
        {
          "indexed": true,
          "internalType": "bytes32",
          "name": "newAdminRole",
          "type": "bytes32"
        }
      ],
      "name": "RoleAdminChanged",
      "type": "event"
    },
    {
      "anonymous": false,
      "inputs": [
        {
          "indexed": true,
          "internalType": "bytes32",
          "name": "role",
          "type": "bytes32"
        },
        {
          "indexed": true,
          "internalType": "address",
          "name": "account",
          "type": "address"
        },
        {
          "indexed": true,
          "internalType": "address",
          "name": "sender",
          "type": "address"
        }
      ],
      "name": "RoleGranted",
      "type": "event"
    },
    {
      "anonymous": false,
      "inputs": [
        {
          "indexed": true,
          "internalType": "bytes32",
          "name": "role",
          "type": "bytes32"
        },
        {
          "indexed": true,
          "internalType": "address",
          "name": "account",
          "type": "address"
        },
        {
          "indexed": true,
          "internalType": "address",
          "name": "sender",
          "type": "address"
        }
      ],
      "name": "RoleRevoked",
      "type": "event"
    },
    {
      "anonymous": false,
      "inputs": [
        {
          "indexed": true,
          "internalType": "address",
          "name": "from",
          "type": "address"
        },
        {
          "indexed": true,
          "internalType": "address",
          "name": "to",
          "type": "address"
        },
        {
          "indexed": false,
          "internalType": "uint256",
          "name": "value",
          "type": "uint256"
        }
      ],
      "name": "Transfer",
      "type": "event"
    },
    {
      "anonymous": false,
      "inputs": [
        {
          "indexed": false,
          "internalType": "address",
          "name": "account",
          "type": "address"
        }
      ],
      "name": "Unpaused",
      "type": "event"
    },
    {
      "inputs": [],
      "name": "DEFAULT_ADMIN_ROLE",
      "outputs": [
        {
          "internalType": "bytes32",
          "name": "",
          "type": "bytes32"
        }
      ],
      "stateMutability": "view",
      "type": "function"
    },
    {
      "inputs": [
        {
          "internalType": "address",
          "name": "account",
          "type": "address"
        }
      ],
      "name": "addAdmin",
      "outputs": [],
      "stateMutability": "nonpayable",
      "type": "function"
    },
    {
      "inputs": [
        {
          "internalType": "address",
          "name": "owner",
          "type": "address"
        },
        {
          "internalType": "address",
          "name": "spender",
          "type": "address"
        }
      ],
      "name": "allowance",
      "outputs": [
        {
          "internalType": "uint256",
          "name": "",
          "type": "uint256"
        }
      ],
      "stateMutability": "view",
      "type": "function"
    },
    {
      "inputs": [
        {
          "internalType": "address",
          "name": "spender",
          "type": "address"
        },
        {
          "internalType": "uint256",
          "name": "amount",
          "type": "uint256"
        }
      ],
      "name": "approve",
      "outputs": [
        {
          "internalType": "bool",
          "name": "",
          "type": "bool"
        }
      ],
      "stateMutability": "nonpayable",
      "type": "function"
    },
    {
      "inputs": [
        {
          "internalType": "address",
          "name": "account",
          "type": "address"
        }
      ],
      "name": "balanceOf",
      "outputs": [
        {
          "internalType": "uint256",
          "name": "",
          "type": "uint256"
        }
      ],
      "stateMutability": "view",
      "type": "function"
    },
    {
      "inputs": [],
      "name": "decimals",
      "outputs": [
        {
          "internalType": "uint8",
          "name": "",
          "type": "uint8"
        }
      ],
      "stateMutability": "view",
      "type": "function"
    },
    {
      "inputs": [
        {
          "internalType": "address",
          "name": "spender",
          "type": "address"
        },
        {
          "internalType": "uint256",
          "name": "subtractedValue",
          "type": "uint256"
        }
      ],
      "name": "decreaseAllowance",
      "outputs": [
        {
          "internalType": "bool",
          "name": "",
          "type": "bool"
        }
      ],
      "stateMutability": "nonpayable",
      "type": "function"
    },
    {
      "inputs": [
        {
          "internalType": "uint256",
          "name": "amount",
          "type": "uint256"
        },
        {
          "internalType": "address",
          "name": "_asset",
          "type": "address"
        },
        {
          "internalType": "address",
          "name": "_beneficiary",
          "type": "address"
        }
      ],
      "name": "deposit",
      "outputs": [
        {
          "internalType": "bool",
          "name": "",
          "type": "bool"
        }
      ],
      "stateMutability": "nonpayable",
      "type": "function"
    },
    {
      "inputs": [
        {
          "internalType": "bytes32",
          "name": "role",
          "type": "bytes32"
        }
      ],
      "name": "getRoleAdmin",
      "outputs": [
        {
          "internalType": "bytes32",
          "name": "",
          "type": "bytes32"
        }
      ],
      "stateMutability": "view",
      "type": "function"
    },
    {
      "inputs": [
        {
          "internalType": "bytes32",
          "name": "role",
          "type": "bytes32"
        },
        {
          "internalType": "address",
          "name": "account",
          "type": "address"
        }
      ],
      "name": "grantRole",
      "outputs": [],
      "stateMutability": "nonpayable",
      "type": "function"
    },
    {
      "inputs": [
        {
          "internalType": "bytes32",
          "name": "role",
          "type": "bytes32"
        },
        {
          "internalType": "address",
          "name": "account",
          "type": "address"
        }
      ],
      "name": "hasRole",
      "outputs": [
        {
          "internalType": "bool",
          "name": "",
          "type": "bool"
        }
      ],
      "stateMutability": "view",
      "type": "function"
    },
    {
      "inputs": [
        {
          "internalType": "address",
          "name": "spender",
          "type": "address"
        },
        {
          "internalType": "uint256",
          "name": "addedValue",
          "type": "uint256"
        }
      ],
      "name": "increaseAllowance",
      "outputs": [
        {
          "internalType": "bool",
          "name": "",
          "type": "bool"
        }
      ],
      "stateMutability": "nonpayable",
      "type": "function"
    },
    {
      "inputs": [],
      "name": "name",
      "outputs": [
        {
          "internalType": "string",
          "name": "",
          "type": "string"
        }
      ],
      "stateMutability": "view",
      "type": "function"
    },
    {
      "inputs": [],
      "name": "pause",
      "outputs": [],
      "stateMutability": "nonpayable",
      "type": "function"
    },
    {
      "inputs": [],
      "name": "paused",
      "outputs": [
        {
          "internalType": "bool",
          "name": "",
          "type": "bool"
        }
      ],
      "stateMutability": "view",
      "type": "function"
    },
    {
      "inputs": [
        {
          "internalType": "address",
          "name": "account",
          "type": "address"
        }
      ],
      "name": "removeAdmin",
      "outputs": [],
      "stateMutability": "nonpayable",
      "type": "function"
    },
    {
      "inputs": [
        {
          "internalType": "bytes32",
          "name": "role",
          "type": "bytes32"
        },
        {
          "internalType": "address",
          "name": "account",
          "type": "address"
        }
      ],
      "name": "renounceRole",
      "outputs": [],
      "stateMutability": "nonpayable",
      "type": "function"
    },
    {
      "inputs": [
        {
          "internalType": "bytes32",
          "name": "role",
          "type": "bytes32"
        },
        {
          "internalType": "address",
          "name": "account",
          "type": "address"
        }
      ],
      "name": "revokeRole",
      "outputs": [],
      "stateMutability": "nonpayable",
      "type": "function"
    },
    {
      "inputs": [
        {
          "internalType": "bytes4",
          "name": "interfaceId",
          "type": "bytes4"
        }
      ],
      "name": "supportsInterface",
      "outputs": [
        {
          "internalType": "bool",
          "name": "",
          "type": "bool"
        }
      ],
      "stateMutability": "view",
      "type": "function"
    },
    {
      "inputs": [],
      "name": "symbol",
      "outputs": [
        {
          "internalType": "string",
          "name": "",
          "type": "string"
        }
      ],
      "stateMutability": "view",
      "type": "function"
    },
    {
      "inputs": [],
      "name": "totalSupply",
      "outputs": [
        {
          "internalType": "uint256",
          "name": "",
          "type": "uint256"
        }
      ],
      "stateMutability": "view",
      "type": "function"
    },
    {
      "inputs": [
        {
          "internalType": "address",
          "name": "to",
          "type": "address"
        },
        {
          "internalType": "uint256",
          "name": "amount",
          "type": "uint256"
        }
      ],
      "name": "transfer",
      "outputs": [
        {
          "internalType": "bool",
          "name": "",
          "type": "bool"
        }
      ],
      "stateMutability": "nonpayable",
      "type": "function"
    },
    {
      "inputs": [
        {
          "internalType": "address",
          "name": "from",
          "type": "address"
        },
        {
          "internalType": "address",
          "name": "to",
          "type": "address"
        },
        {
          "internalType": "uint256",
          "name": "amount",
          "type": "uint256"
        }
      ],
      "name": "transferFrom",
      "outputs": [
        {
          "internalType": "bool",
          "name": "",
          "type": "bool"
        }
      ],
      "stateMutability": "nonpayable",
      "type": "function"
    },
    {
      "inputs": [],
      "name": "unpause",
      "outputs": [],
      "stateMutability": "nonpayable",
      "type": "function"
    },
    {
      "inputs": [],
      "name": "vaultBalance",
      "outputs": [
        {
          "internalType": "uint256",
          "name": "",
          "type": "uint256"
        }
      ],
      "stateMutability": "view",
      "type": "function"
    }
  ],
  "bytecode": "0x60806040523480156200001157600080fd5b506040516200375438038062003754833981810160405281019062000037919062000363565b81818460016000819055506000600260006101000a81548160ff021916908315150217905550620000726000801b82620000b060201b60201c565b5081600690805190602001906200008b9291906200022a565b508060079080519060200190620000a49291906200022a565b505050505050620005a9565b620000c28282620000c660201b60201c565b5050565b620000d88282620001b760201b60201c565b620001b357600180600084815260200190815260200160002060000160008373ffffffffffffffffffffffffffffffffffffffff1673ffffffffffffffffffffffffffffffffffffffff16815260200190815260200160002060006101000a81548160ff021916908315150217905550620001586200022260201b60201c565b73ffffffffffffffffffffffffffffffffffffffff168173ffffffffffffffffffffffffffffffffffffffff16837f2f8788117e7eff1d82e926ec794901d17c78024a50270940304540a733656f0d60405160405180910390a45b5050565b60006001600084815260200190815260200160002060000160008373ffffffffffffffffffffffffffffffffffffffff1673ffffffffffffffffffffffffffffffffffffffff16815260200190815260200160002060009054906101000a900460ff16905092915050565b600033905090565b8280546200023890620004b4565b90600052602060002090601f0160209004810192826200025c5760008555620002a8565b82601f106200027757805160ff1916838001178555620002a8565b82800160010185558215620002a8579182015b82811115620002a75782518255916020019190600101906200028a565b5b509050620002b79190620002bb565b5090565b5b80821115620002d6576000816000905550600101620002bc565b5090565b6000620002f1620002eb8462000414565b620003eb565b9050828152602081018484840111156200030a57600080fd5b620003178482856200047e565b509392505050565b60008151905062000330816200058f565b92915050565b600082601f8301126200034857600080fd5b81516200035a848260208601620002da565b91505092915050565b6000806000606084860312156200037957600080fd5b600062000389868287016200031f565b935050602084015167ffffffffffffffff811115620003a757600080fd5b620003b58682870162000336565b925050604084015167ffffffffffffffff811115620003d357600080fd5b620003e18682870162000336565b9150509250925092565b6000620003f76200040a565b9050620004058282620004ea565b919050565b6000604051905090565b600067ffffffffffffffff8211156200043257620004316200054f565b5b6200043d826200057e565b9050602081019050919050565b600062000457826200045e565b9050919050565b600073ffffffffffffffffffffffffffffffffffffffff82169050919050565b60005b838110156200049e57808201518184015260208101905062000481565b83811115620004ae576000848401525b50505050565b60006002820490506001821680620004cd57607f821691505b60208210811415620004e457620004e362000520565b5b50919050565b620004f5826200057e565b810181811067ffffffffffffffff821117156200051757620005166200054f565b5b80604052505050565b7f4e487b7100000000000000000000000000000000000000000000000000000000600052602260045260246000fd5b7f4e487b7100000000000000000000000000000000000000000000000000000000600052604160045260246000fd5b6000601f19601f8301169050919050565b6200059a816200044a565b8114620005a657600080fd5b50565b61319b80620005b96000396000f3fe608060405234801561001057600080fd5b50600436106101735760003560e01c806339509351116100de57806391d1485411610097578063a457c2d711610071578063a457c2d71461044e578063a9059cbb1461047e578063d547741f146104ae578063dd62ed3e146104ca57610173565b806391d14854146103e257806395d89b4114610412578063a217fddf1461043057610173565b806339509351146103345780633f4ba83a146103645780635c975abb1461036e578063704802751461038c57806370a08231146103a85780638456cb59146103d857610173565b806323b872dd1161013057806323b872dd1461024e578063248a9ca31461027e5780632e2d2984146102ae5780632f2ff15d146102de578063313ce567146102fa57806336568abe1461031857610173565b806301ffc9a71461017857806306fdde03146101a8578063095ea7b3146101c65780630bf6cc08146101f65780631785f53c1461021457806318160ddd14610230575b600080fd5b610192600480360381019061018d9190612263565b6104fa565b60405161019f9190612726565b60405180910390f35b6101b0610574565b6040516101bd919061275c565b60405180910390f35b6101e060048036038101906101db9190612199565b610606565b6040516101ed9190612726565b60405180910390f35b6101fe610629565b60405161020b91906129ce565b60405180910390f35b61022e600480360381019061022991906120e5565b610633565b005b6102386106da565b60405161024591906129ce565b60405180910390f35b6102686004803603810190610263919061214a565b6106e4565b6040516102759190612726565b60405180910390f35b610298600480360381019061029391906121fe565b610713565b6040516102a59190612741565b60405180910390f35b6102c860048036038101906102c3919061228c565b610733565b6040516102d59190612726565b60405180910390f35b6102f860048036038101906102f39190612227565b610825565b005b610302610846565b60405161030f91906129e9565b60405180910390f35b610332600480360381019061032d9190612227565b61084f565b005b61034e60048036038101906103499190612199565b6108d2565b60405161035b9190612726565b60405180910390f35b61036c610909565b005b610376610967565b6040516103839190612726565b60405180910390f35b6103a660048036038101906103a191906120e5565b61097e565b005b6103c260048036038101906103bd91906120e5565b610a25565b6040516103cf91906129ce565b60405180910390f35b6103e0610a6e565b005b6103fc60048036038101906103f79190612227565b610acc565b6040516104099190612726565b60405180910390f35b61041a610b37565b604051610427919061275c565b60405180910390f35b610438610bc9565b6040516104459190612741565b60405180910390f35b61046860048036038101906104639190612199565b610bd0565b6040516104759190612726565b60405180910390f35b61049860048036038101906104939190612199565b610c47565b6040516104a59190612726565b60405180910390f35b6104c860048036038101906104c39190612227565b610c6a565b005b6104e460048036038101906104df919061210e565b610c8b565b6040516104f191906129ce565b60405180910390f35b60007f7965db0b000000000000000000000000000000000000000000000000000000007bffffffffffffffffffffffffffffffffffffffffffffffffffffffff1916827bffffffffffffffffffffffffffffffffffffffffffffffffffffffff1916148061056d575061056c82610d12565b5b9050919050565b60606006805461058390612bd9565b80601f01602080910402602001604051908101604052809291908181526020018280546105af90612bd9565b80156105fc5780601f106105d1576101008083540402835291602001916105fc565b820191906000526020600020905b8154815290600101906020018083116105df57829003601f168201915b5050505050905090565b600080610611610d7c565b905061061e818585610d84565b600191505092915050565b6000600854905090565b6106406000801b33610acc565b61067f576040517f08c379a0000000000000000000000000000000000000000000000000000000008152600401610676906128ce565b60405180910390fd5b610687610f4f565b6106946000801b82610f99565b8073ffffffffffffffffffffffffffffffffffffffff167f3137a7fedbfedb7895dfa5a6812a4566dae9ded68d00aeec13c6ed1fa84a1c8060405160405180910390a250565b6000600554905090565b6000806106ef610d7c565b90506106fc85828561107b565b610707858585611107565b60019150509392505050565b600060016000838152602001908152602001600020600101549050919050565b600061073d611382565b610745610f4f565b600061075185856113d2565b90506107926040518060400160405280600881526020017f616d6f756e743a20000000000000000000000000000000000000000000000000815250866114c4565b6107d16040518060400160405280601181526020017f636f72726563746564416d6f756e743a20000000000000000000000000000000815250826114c4565b6107fe3330878773ffffffffffffffffffffffffffffffffffffffff16611560909392919063ffffffff16565b61080883826115e9565b61081181611741565b600191505061081e61178b565b9392505050565b61082e82610713565b61083781611795565b61084183836117a9565b505050565b60006012905090565b610857610d7c565b73ffffffffffffffffffffffffffffffffffffffff168173ffffffffffffffffffffffffffffffffffffffff16146108c4576040517f08c379a00000000000000000000000000000000000000000000000000000000081526004016108bb9061298e565b60405180910390fd5b6108ce8282610f99565b5050565b6000806108dd610d7c565b90506108fe8185856108ef8589610c8b565b6108f99190612a41565b610d84565b600191505092915050565b6109166000801b33610acc565b610955576040517f08c379a000000000000000000000000000000000000000000000000000000000815260040161094c906128ce565b60405180910390fd5b61095d611889565b6109656118d2565b565b6000600260009054906101000a900460ff16905090565b61098b6000801b33610acc565b6109ca576040517f08c379a00000000000000000000000000000000000000000000000000000000081526004016109c1906128ce565b60405180910390fd5b6109d2610f4f565b6109df6000801b82611935565b8073ffffffffffffffffffffffffffffffffffffffff167f2dbe9fb88463d989acccabbb6ee06901f83672eb78e04a11ff48dd8f69a27cda60405160405180910390a250565b6000600360008373ffffffffffffffffffffffffffffffffffffffff1673ffffffffffffffffffffffffffffffffffffffff168152602001908152602001600020549050919050565b610a7b6000801b33610acc565b610aba576040517f08c379a0000000000000000000000000000000000000000000000000000000008152600401610ab1906128ce565b60405180910390fd5b610ac2610f4f565b610aca611943565b565b60006001600084815260200190815260200160002060000160008373ffffffffffffffffffffffffffffffffffffffff1673ffffffffffffffffffffffffffffffffffffffff16815260200190815260200160002060009054906101000a900460ff16905092915050565b606060078054610b4690612bd9565b80601f0160208091040260200160405190810160405280929190818152602001828054610b7290612bd9565b8015610bbf5780601f10610b9457610100808354040283529160200191610bbf565b820191906000526020600020905b815481529060010190602001808311610ba257829003601f168201915b5050505050905090565b6000801b81565b600080610bdb610d7c565b90506000610be98286610c8b565b905083811015610c2e576040517f08c379a0000000000000000000000000000000000000000000000000000000008152600401610c259061296e565b60405180910390fd5b610c3b8286868403610d84565b60019250505092915050565b600080610c52610d7c565b9050610c5f818585611107565b600191505092915050565b610c7382610713565b610c7c81611795565b610c868383610f99565b505050565b6000600460008473ffffffffffffffffffffffffffffffffffffffff1673ffffffffffffffffffffffffffffffffffffffff16815260200190815260200160002060008373ffffffffffffffffffffffffffffffffffffffff1673ffffffffffffffffffffffffffffffffffffffff16815260200190815260200160002054905092915050565b60007f01ffc9a7000000000000000000000000000000000000000000000000000000007bffffffffffffffffffffffffffffffffffffffffffffffffffffffff1916827bffffffffffffffffffffffffffffffffffffffffffffffffffffffff1916149050919050565b600033905090565b600073ffffffffffffffffffffffffffffffffffffffff168373ffffffffffffffffffffffffffffffffffffffff161415610df4576040517f08c379a0000000000000000000000000000000000000000000000000000000008152600401610deb906128ee565b60405180910390fd5b600073ffffffffffffffffffffffffffffffffffffffff168273ffffffffffffffffffffffffffffffffffffffff161415610e64576040517f08c379a0000000000000000000000000000000000000000000000000000000008152600401610e5b9061280e565b60405180910390fd5b80600460008573ffffffffffffffffffffffffffffffffffffffff1673ffffffffffffffffffffffffffffffffffffffff16815260200190815260200160002060008473ffffffffffffffffffffffffffffffffffffffff1673ffffffffffffffffffffffffffffffffffffffff168152602001908152602001600020819055508173ffffffffffffffffffffffffffffffffffffffff168373ffffffffffffffffffffffffffffffffffffffff167f8c5be1e5ebec7d5bd14f71427d1e84f3dd0314c0f7b2291e5b200ac8c7c3b92583604051610f4291906129ce565b60405180910390a3505050565b610f57610967565b15610f97576040517f08c379a0000000000000000000000000000000000000000000000000000000008152600401610f8e9061288e565b60405180910390fd5b565b610fa38282610acc565b156110775760006001600084815260200190815260200160002060000160008373ffffffffffffffffffffffffffffffffffffffff1673ffffffffffffffffffffffffffffffffffffffff16815260200190815260200160002060006101000a81548160ff02191690831515021790555061101c610d7c565b73ffffffffffffffffffffffffffffffffffffffff168173ffffffffffffffffffffffffffffffffffffffff16837ff6391f5c32d9c69d2a47ea670b442974b53935d1edc7fd64eb21e047a839171b60405160405180910390a45b5050565b60006110878484610c8b565b90507fffffffffffffffffffffffffffffffffffffffffffffffffffffffffffffffff811461110157818110156110f3576040517f08c379a00000000000000000000000000000000000000000000000000000000081526004016110ea9061282e565b60405180910390fd5b6111008484848403610d84565b5b50505050565b600073ffffffffffffffffffffffffffffffffffffffff168373ffffffffffffffffffffffffffffffffffffffff161415611177576040517f08c379a000000000000000000000000000000000000000000000000000000000815260040161116e906128ae565b60405180910390fd5b600073ffffffffffffffffffffffffffffffffffffffff168273ffffffffffffffffffffffffffffffffffffffff1614156111e7576040517f08c379a00000000000000000000000000000000000000000000000000000000081526004016111de906127ce565b60405180910390fd5b6111f28383836119a6565b6000600360008573ffffffffffffffffffffffffffffffffffffffff1673ffffffffffffffffffffffffffffffffffffffff16815260200190815260200160002054905081811015611279576040517f08c379a00000000000000000000000000000000000000000000000000000000081526004016112709061284e565b60405180910390fd5b818103600360008673ffffffffffffffffffffffffffffffffffffffff1673ffffffffffffffffffffffffffffffffffffffff1681526020019081526020016000208190555081600360008573ffffffffffffffffffffffffffffffffffffffff1673ffffffffffffffffffffffffffffffffffffffff168152602001908152602001600020600082825401925050819055508273ffffffffffffffffffffffffffffffffffffffff168473ffffffffffffffffffffffffffffffffffffffff167fddf252ad1be2c89b69c2b068fc378daa952ba7f163c4a11628f55a4df523b3ef8460405161136991906129ce565b60405180910390a361137c8484846119ab565b50505050565b600260005414156113c8576040517f08c379a00000000000000000000000000000000000000000000000000000000081526004016113bf9061294e565b60405180910390fd5b6002600081905550565b6000808273ffffffffffffffffffffffffffffffffffffffff1663313ce5676040518163ffffffff1660e01b815260040160206040518083038186803b15801561141b57600080fd5b505afa15801561142f573d6000803e3d6000fd5b505050506040513d601f19601f8201168201806040525081019061145391906122db565b60ff169050601281146114ba5760128111156114ad5760128103600a0a84816114a5577f4e487b7100000000000000000000000000000000000000000000000000000000600052601260045260246000fd5b0493506114b9565b80601203600a0a840293505b5b8391505092915050565b61155c82826040516024016114da92919061277e565b6040516020818303038152906040527fb60e72cc000000000000000000000000000000000000000000000000000000007bffffffffffffffffffffffffffffffffffffffffffffffffffffffff19166020820180517bffffffffffffffffffffffffffffffffffffffffffffffffffffffff83818316178352505050506119b0565b5050565b6115e3846323b872dd60e01b858585604051602401611581939291906126ef565b604051602081830303815290604052907bffffffffffffffffffffffffffffffffffffffffffffffffffffffff19166020820180517bffffffffffffffffffffffffffffffffffffffffffffffffffffffff83818316178352505050506119ca565b50505050565b600073ffffffffffffffffffffffffffffffffffffffff168273ffffffffffffffffffffffffffffffffffffffff161415611659576040517f08c379a0000000000000000000000000000000000000000000000000000000008152600401611650906129ae565b60405180910390fd5b611665600083836119a6565b80600560008282546116779190612a41565b9250508190555080600360008473ffffffffffffffffffffffffffffffffffffffff1673ffffffffffffffffffffffffffffffffffffffff168152602001908152602001600020600082825401925050819055508173ffffffffffffffffffffffffffffffffffffffff16600073ffffffffffffffffffffffffffffffffffffffff167fddf252ad1be2c89b69c2b068fc378daa952ba7f163c4a11628f55a4df523b3ef8360405161172991906129ce565b60405180910390a361173d600083836119ab565b5050565b806008600082825401925050819055507f04be25a4c0fe4c39136ca055daaac08ac6b3041b2e1f2a1b698bac12f1cbdc4a8160405161178091906129ce565b60405180910390a150565b6001600081905550565b6117a6816117a1610d7c565b611a92565b50565b6117b38282610acc565b61188557600180600084815260200190815260200160002060000160008373ffffffffffffffffffffffffffffffffffffffff1673ffffffffffffffffffffffffffffffffffffffff16815260200190815260200160002060006101000a81548160ff02191690831515021790555061182a610d7c565b73ffffffffffffffffffffffffffffffffffffffff168173ffffffffffffffffffffffffffffffffffffffff16837f2f8788117e7eff1d82e926ec794901d17c78024a50270940304540a733656f0d60405160405180910390a45b5050565b611891610967565b6118d0576040517f08c379a00000000000000000000000000000000000000000000000000000000081526004016118c7906127ee565b60405180910390fd5b565b6118da611889565b6000600260006101000a81548160ff0219169083151502179055507f5db9ee0a495bf2e6ff9c91a7834c1ba4fdd244a5e8aa4e537bd38aeae4b073aa61191e610d7c565b60405161192b91906126d4565b60405180910390a1565b61193f82826117a9565b5050565b61194b610f4f565b6001600260006101000a81548160ff0219169083151502179055507f62e78cea01bee320cd4e420270b5ea74000d11b0c9f74754ebdbfc544b05a25861198f610d7c565b60405161199c91906126d4565b60405180910390a1565b505050565b505050565b6119c7816119bf611b17611b38565b63ffffffff16565b50565b6000611a2c826040518060400160405280602081526020017f5361666545524332303a206c6f772d6c6576656c2063616c6c206661696c65648152508573ffffffffffffffffffffffffffffffffffffffff16611b439092919063ffffffff16565b9050600081511480611a4e575080806020019051810190611a4d91906121d5565b5b611a8d576040517f08c379a0000000000000000000000000000000000000000000000000000000008152600401611a849061292e565b60405180910390fd5b505050565b611a9c8282610acc565b611b1357611aa981611b5b565b611ab78360001c6020611b88565b604051602001611ac892919061269a565b6040516020818303038152906040526040517f08c379a0000000000000000000000000000000000000000000000000000000008152600401611b0a919061275c565b60405180910390fd5b5050565b60006a636f6e736f6c652e6c6f679050600080835160208501845afa505050565b612038819050919050565b6060611b528484600085611e82565b90509392505050565b6060611b818273ffffffffffffffffffffffffffffffffffffffff16601460ff16611b88565b9050919050565b606060006002836002611b9b9190612a97565b611ba59190612a41565b67ffffffffffffffff811115611be4577f4e487b7100000000000000000000000000000000000000000000000000000000600052604160045260246000fd5b6040519080825280601f01601f191660200182016040528015611c165781602001600182028036833780820191505090505b5090507f300000000000000000000000000000000000000000000000000000000000000081600081518110611c74577f4e487b7100000000000000000000000000000000000000000000000000000000600052603260045260246000fd5b60200101907effffffffffffffffffffffffffffffffffffffffffffffffffffffffffffff1916908160001a9053507f780000000000000000000000000000000000000000000000000000000000000081600181518110611cfe577f4e487b7100000000000000000000000000000000000000000000000000000000600052603260045260246000fd5b60200101907effffffffffffffffffffffffffffffffffffffffffffffffffffffffffffff1916908160001a90535060006001846002611d3e9190612a97565b611d489190612a41565b90505b6001811115611e34577f3031323334353637383961626364656600000000000000000000000000000000600f861660108110611db0577f4e487b7100000000000000000000000000000000000000000000000000000000600052603260045260246000fd5b1a60f81b828281518110611ded577f4e487b7100000000000000000000000000000000000000000000000000000000600052603260045260246000fd5b60200101907effffffffffffffffffffffffffffffffffffffffffffffffffffffffffffff1916908160001a905350600485901c945080611e2d90612baf565b9050611d4b565b5060008414611e78576040517f08c379a0000000000000000000000000000000000000000000000000000000008152600401611e6f906127ae565b60405180910390fd5b8091505092915050565b606082471015611ec7576040517f08c379a0000000000000000000000000000000000000000000000000000000008152600401611ebe9061286e565b60405180910390fd5b6000808673ffffffffffffffffffffffffffffffffffffffff168587604051611ef09190612683565b60006040518083038185875af1925050503d8060008114611f2d576040519150601f19603f3d011682016040523d82523d6000602084013e611f32565b606091505b5091509150611f4387838387611f4f565b92505050949350505050565b60608315611fb257600083511415611faa57611f6a85611fc5565b611fa9576040517f08c379a0000000000000000000000000000000000000000000000000000000008152600401611fa09061290e565b60405180910390fd5b5b829050611fbd565b611fbc8383611fe8565b5b949350505050565b6000808273ffffffffffffffffffffffffffffffffffffffff163b119050919050565b600082511115611ffb5781518083602001fd5b806040517f08c379a000000000000000000000000000000000000000000000000000000000815260040161202f919061275c565b60405180910390fd5b7f4e487b7100000000000000000000000000000000000000000000000000000000600052605160045260246000fd5b600081359050612076816130db565b92915050565b60008151905061208b816130f2565b92915050565b6000813590506120a081613109565b92915050565b6000813590506120b581613120565b92915050565b6000813590506120ca81613137565b92915050565b6000815190506120df8161314e565b92915050565b6000602082840312156120f757600080fd5b600061210584828501612067565b91505092915050565b6000806040838503121561212157600080fd5b600061212f85828601612067565b925050602061214085828601612067565b9150509250929050565b60008060006060848603121561215f57600080fd5b600061216d86828701612067565b935050602061217e86828701612067565b925050604061218f868287016120bb565b9150509250925092565b600080604083850312156121ac57600080fd5b60006121ba85828601612067565b92505060206121cb858286016120bb565b9150509250929050565b6000602082840312156121e757600080fd5b60006121f58482850161207c565b91505092915050565b60006020828403121561221057600080fd5b600061221e84828501612091565b91505092915050565b6000806040838503121561223a57600080fd5b600061224885828601612091565b925050602061225985828601612067565b9150509250929050565b60006020828403121561227557600080fd5b6000612283848285016120a6565b91505092915050565b6000806000606084860312156122a157600080fd5b60006122af868287016120bb565b93505060206122c086828701612067565b92505060406122d186828701612067565b9150509250925092565b6000602082840312156122ed57600080fd5b60006122fb848285016120d0565b91505092915050565b61230d81612af1565b82525050565b61231c81612b03565b82525050565b61232b81612b0f565b82525050565b600061233c82612a04565b6123468185612a1a565b9350612356818560208601612b7c565b80840191505092915050565b600061236d82612a0f565b6123778185612a25565b9350612387818560208601612b7c565b61239081612c69565b840191505092915050565b60006123a682612a0f565b6123b08185612a36565b93506123c0818560208601612b7c565b80840191505092915050565b60006123d9602083612a25565b91506123e482612c7a565b602082019050919050565b60006123fc602383612a25565b915061240782612ca3565b604082019050919050565b600061241f601483612a25565b915061242a82612cf2565b602082019050919050565b6000612442602283612a25565b915061244d82612d1b565b604082019050919050565b6000612465601d83612a25565b915061247082612d6a565b602082019050919050565b6000612488602683612a25565b915061249382612d93565b604082019050919050565b60006124ab602683612a25565b91506124b682612de2565b604082019050919050565b60006124ce601083612a25565b91506124d982612e31565b602082019050919050565b60006124f1602583612a25565b91506124fc82612e5a565b604082019050919050565b6000612514601683612a25565b915061251f82612ea9565b602082019050919050565b6000612537602483612a25565b915061254282612ed2565b604082019050919050565b600061255a601d83612a25565b915061256582612f21565b602082019050919050565b600061257d601783612a36565b915061258882612f4a565b601782019050919050565b60006125a0602a83612a25565b91506125ab82612f73565b604082019050919050565b60006125c3601f83612a25565b91506125ce82612fc2565b602082019050919050565b60006125e6602583612a25565b91506125f182612feb565b604082019050919050565b6000612609601183612a36565b91506126148261303a565b601182019050919050565b600061262c602f83612a25565b915061263782613063565b604082019050919050565b600061264f601f83612a25565b915061265a826130b2565b602082019050919050565b61266e81612b65565b82525050565b61267d81612b6f565b82525050565b600061268f8284612331565b915081905092915050565b60006126a582612570565b91506126b1828561239b565b91506126bc826125fc565b91506126c8828461239b565b91508190509392505050565b60006020820190506126e96000830184612304565b92915050565b60006060820190506127046000830186612304565b6127116020830185612304565b61271e6040830184612665565b949350505050565b600060208201905061273b6000830184612313565b92915050565b60006020820190506127566000830184612322565b92915050565b600060208201905081810360008301526127768184612362565b905092915050565b600060408201905081810360008301526127988185612362565b90506127a76020830184612665565b9392505050565b600060208201905081810360008301526127c7816123cc565b9050919050565b600060208201905081810360008301526127e7816123ef565b9050919050565b6000602082019050818103600083015261280781612412565b9050919050565b6000602082019050818103600083015261282781612435565b9050919050565b6000602082019050818103600083015261284781612458565b9050919050565b600060208201905081810360008301526128678161247b565b9050919050565b600060208201905081810360008301526128878161249e565b9050919050565b600060208201905081810360008301526128a7816124c1565b9050919050565b600060208201905081810360008301526128c7816124e4565b9050919050565b600060208201905081810360008301526128e781612507565b9050919050565b600060208201905081810360008301526129078161252a565b9050919050565b600060208201905081810360008301526129278161254d565b9050919050565b6000602082019050818103600083015261294781612593565b9050919050565b60006020820190508181036000830152612967816125b6565b9050919050565b60006020820190508181036000830152612987816125d9565b9050919050565b600060208201905081810360008301526129a78161261f565b9050919050565b600060208201905081810360008301526129c781612642565b9050919050565b60006020820190506129e36000830184612665565b92915050565b60006020820190506129fe6000830184612674565b92915050565b600081519050919050565b600081519050919050565b600081905092915050565b600082825260208201905092915050565b600081905092915050565b6000612a4c82612b65565b9150612a5783612b65565b9250827fffffffffffffffffffffffffffffffffffffffffffffffffffffffffffffffff03821115612a8c57612a8b612c0b565b5b828201905092915050565b6000612aa282612b65565b9150612aad83612b65565b9250817fffffffffffffffffffffffffffffffffffffffffffffffffffffffffffffffff0483118215151615612ae657612ae5612c0b565b5b828202905092915050565b6000612afc82612b45565b9050919050565b60008115159050919050565b6000819050919050565b60007fffffffff0000000000000000000000000000000000000000000000000000000082169050919050565b600073ffffffffffffffffffffffffffffffffffffffff82169050919050565b6000819050919050565b600060ff82169050919050565b60005b83811015612b9a578082015181840152602081019050612b7f565b83811115612ba9576000848401525b50505050565b6000612bba82612b65565b91506000821415612bce57612bcd612c0b565b5b600182039050919050565b60006002820490506001821680612bf157607f821691505b60208210811415612c0557612c04612c3a565b5b50919050565b7f4e487b7100000000000000000000000000000000000000000000000000000000600052601160045260246000fd5b7f4e487b7100000000000000000000000000000000000000000000000000000000600052602260045260246000fd5b6000601f19601f8301169050919050565b7f537472696e67733a20686578206c656e67746820696e73756666696369656e74600082015250565b7f45524332303a207472616e7366657220746f20746865207a65726f206164647260008201527f6573730000000000000000000000000000000000000000000000000000000000602082015250565b7f5061757361626c653a206e6f7420706175736564000000000000000000000000600082015250565b7f45524332303a20617070726f766520746f20746865207a65726f20616464726560008201527f7373000000000000000000000000000000000000000000000000000000000000602082015250565b7f45524332303a20696e73756666696369656e7420616c6c6f77616e6365000000600082015250565b7f45524332303a207472616e7366657220616d6f756e742065786365656473206260008201527f616c616e63650000000000000000000000000000000000000000000000000000602082015250565b7f416464726573733a20696e73756666696369656e742062616c616e636520666f60008201527f722063616c6c0000000000000000000000000000000000000000000000000000602082015250565b7f5061757361626c653a2070617573656400000000000000000000000000000000600082015250565b7f45524332303a207472616e736665722066726f6d20746865207a65726f20616460008201527f6472657373000000000000000000000000000000000000000000000000000000602082015250565b7f43616c6c6572206973206e6f7420616e2041646d696e00000000000000000000600082015250565b7f45524332303a20617070726f76652066726f6d20746865207a65726f2061646460008201527f7265737300000000000000000000000000000000000000000000000000000000602082015250565b7f416464726573733a2063616c6c20746f206e6f6e2d636f6e7472616374000000600082015250565b7f416363657373436f6e74726f6c3a206163636f756e7420000000000000000000600082015250565b7f5361666545524332303a204552433230206f7065726174696f6e20646964206e60008201527f6f74207375636365656400000000000000000000000000000000000000000000602082015250565b7f5265656e7472616e637947756172643a207265656e7472616e742063616c6c00600082015250565b7f45524332303a2064656372656173656420616c6c6f77616e63652062656c6f7760008201527f207a65726f000000000000000000000000000000000000000000000000000000602082015250565b7f206973206d697373696e6720726f6c6520000000000000000000000000000000600082015250565b7f416363657373436f6e74726f6c3a2063616e206f6e6c792072656e6f756e636560008201527f20726f6c657320666f722073656c660000000000000000000000000000000000602082015250565b7f45524332303a206d696e7420746f20746865207a65726f206164647265737300600082015250565b6130e481612af1565b81146130ef57600080fd5b50565b6130fb81612b03565b811461310657600080fd5b50565b61311281612b0f565b811461311d57600080fd5b50565b61312981612b19565b811461313457600080fd5b50565b61314081612b65565b811461314b57600080fd5b50565b61315781612b6f565b811461316257600080fd5b5056fea2646970667358221220c36bcac2eafbdbaf5cda608f2a833d60f6ee5128a47befcd9b80088cd6fc740564736f6c63430008010033",
  "linkReferences": {},
  "deployedLinkReferences": {}
}