{
  "address": "0x9CC1dBf90389E308b96A565add0Bf03A2d4F9de6",
  "abi": [
    {
      "inputs": [
        {
          "internalType": "address",
          "name": "admin",
          "type": "address"
        }
      ],
      "stateMutability": "nonpayable",
      "type": "constructor"
    },
    {
      "anonymous": false,
      "inputs": [
        {
          "indexed": true,
          "internalType": "address",
          "name": "new_admin",
          "type": "address"
        }
      ],
      "name": "NewAdminAdded",
      "type": "event"
    },
    {
      "anonymous": false,
      "inputs": [
        {
          "indexed": true,
          "internalType": "address",
          "name": "profile",
          "type": "address"
        }
      ],
      "name": "NewProfileAdded",
      "type": "event"
    },
    {
      "anonymous": false,
      "inputs": [
        {
          "indexed": false,
          "internalType": "address",
          "name": "account",
          "type": "address"
        }
      ],
      "name": "Paused",
      "type": "event"
    },
    {
      "anonymous": false,
      "inputs": [
        {
          "indexed": true,
          "internalType": "bytes32",
          "name": "key",
          "type": "bytes32"
        },
        {
          "indexed": false,
          "internalType": "address",
          "name": "value",
          "type": "address"
        }
      ],
      "name": "RegistryCreated",
      "type": "event"
    },
    {
      "anonymous": false,
      "inputs": [
        {
          "indexed": true,
          "internalType": "bytes32",
          "name": "key",
          "type": "bytes32"
        },
        {
          "indexed": false,
          "internalType": "address",
          "name": "value",
          "type": "address"
        }
      ],
      "name": "RegistryUpdated",
      "type": "event"
    },
    {
      "anonymous": false,
      "inputs": [
        {
          "indexed": true,
          "internalType": "address",
          "name": "removed_admin",
          "type": "address"
        }
      ],
      "name": "RemovedAdmin",
      "type": "event"
    },
    {
      "anonymous": false,
      "inputs": [
        {
          "indexed": true,
          "internalType": "bytes32",
          "name": "role",
          "type": "bytes32"
        },
        {
          "indexed": true,
          "internalType": "bytes32",
          "name": "previousAdminRole",
          "type": "bytes32"
        },
        {
          "indexed": true,
          "internalType": "bytes32",
          "name": "newAdminRole",
          "type": "bytes32"
        }
      ],
      "name": "RoleAdminChanged",
      "type": "event"
    },
    {
      "anonymous": false,
      "inputs": [
        {
          "indexed": true,
          "internalType": "bytes32",
          "name": "role",
          "type": "bytes32"
        },
        {
          "indexed": true,
          "internalType": "address",
          "name": "account",
          "type": "address"
        },
        {
          "indexed": true,
          "internalType": "address",
          "name": "sender",
          "type": "address"
        }
      ],
      "name": "RoleGranted",
      "type": "event"
    },
    {
      "anonymous": false,
      "inputs": [
        {
          "indexed": true,
          "internalType": "bytes32",
          "name": "role",
          "type": "bytes32"
        },
        {
          "indexed": true,
          "internalType": "address",
          "name": "account",
          "type": "address"
        },
        {
          "indexed": true,
          "internalType": "address",
          "name": "sender",
          "type": "address"
        }
      ],
      "name": "RoleRevoked",
      "type": "event"
    },
    {
      "anonymous": false,
      "inputs": [
        {
          "indexed": false,
          "internalType": "address",
          "name": "account",
          "type": "address"
        }
      ],
      "name": "Unpaused",
      "type": "event"
    },
    {
      "inputs": [],
      "name": "CHANGE_PARAMETERS",
      "outputs": [
        {
          "internalType": "bytes32",
          "name": "",
          "type": "bytes32"
        }
      ],
      "stateMutability": "view",
      "type": "function"
    },
    {
      "inputs": [],
      "name": "DEFAULT_ADMIN_ROLE",
      "outputs": [
        {
          "internalType": "bytes32",
          "name": "",
          "type": "bytes32"
        }
      ],
      "stateMutability": "view",
      "type": "function"
    },
    {
      "inputs": [
        {
          "internalType": "address",
          "name": "account",
          "type": "address"
        }
      ],
      "name": "addAdmin",
      "outputs": [],
      "stateMutability": "nonpayable",
      "type": "function"
    },
    {
      "inputs": [
        {
          "internalType": "address",
          "name": "account",
          "type": "address"
        }
      ],
      "name": "addProfile",
      "outputs": [],
      "stateMutability": "nonpayable",
      "type": "function"
    },
    {
      "inputs": [
        {
          "internalType": "string",
          "name": "registry",
          "type": "string"
        },
        {
          "internalType": "address",
          "name": "value",
          "type": "address"
        }
      ],
      "name": "createRegistry",
      "outputs": [],
      "stateMutability": "nonpayable",
      "type": "function"
    },
    {
      "inputs": [
        {
          "internalType": "string",
          "name": "registry",
          "type": "string"
        }
      ],
      "name": "getRegistry",
      "outputs": [
        {
          "internalType": "address",
          "name": "",
          "type": "address"
        }
      ],
      "stateMutability": "view",
      "type": "function"
    },
    {
      "inputs": [
        {
          "internalType": "bytes32",
          "name": "role",
          "type": "bytes32"
        }
      ],
      "name": "getRoleAdmin",
      "outputs": [
        {
          "internalType": "bytes32",
          "name": "",
          "type": "bytes32"
        }
      ],
      "stateMutability": "view",
      "type": "function"
    },
    {
      "inputs": [
        {
          "internalType": "bytes32",
          "name": "role",
          "type": "bytes32"
        },
        {
          "internalType": "address",
          "name": "account",
          "type": "address"
        }
      ],
      "name": "grantRole",
      "outputs": [],
      "stateMutability": "nonpayable",
      "type": "function"
    },
    {
      "inputs": [
        {
          "internalType": "bytes32",
          "name": "role",
          "type": "bytes32"
        },
        {
          "internalType": "address",
          "name": "account",
          "type": "address"
        }
      ],
      "name": "hasRole",
      "outputs": [
        {
          "internalType": "bool",
          "name": "",
          "type": "bool"
        }
      ],
      "stateMutability": "view",
      "type": "function"
    },
    {
      "inputs": [],
      "name": "pause",
      "outputs": [],
      "stateMutability": "nonpayable",
      "type": "function"
    },
    {
      "inputs": [],
      "name": "paused",
      "outputs": [
        {
          "internalType": "bool",
          "name": "",
          "type": "bool"
        }
      ],
      "stateMutability": "view",
      "type": "function"
    },
    {
      "inputs": [
        {
          "internalType": "address",
          "name": "account",
          "type": "address"
        }
      ],
      "name": "removeAdmin",
      "outputs": [],
      "stateMutability": "nonpayable",
      "type": "function"
    },
    {
      "inputs": [
        {
          "internalType": "bytes32",
          "name": "role",
          "type": "bytes32"
        },
        {
          "internalType": "address",
          "name": "account",
          "type": "address"
        }
      ],
      "name": "renounceRole",
      "outputs": [],
      "stateMutability": "nonpayable",
      "type": "function"
    },
    {
      "inputs": [
        {
          "internalType": "bytes32",
          "name": "role",
          "type": "bytes32"
        },
        {
          "internalType": "address",
          "name": "account",
          "type": "address"
        }
      ],
      "name": "revokeRole",
      "outputs": [],
      "stateMutability": "nonpayable",
      "type": "function"
    },
    {
      "inputs": [
        {
          "internalType": "bytes4",
          "name": "interfaceId",
          "type": "bytes4"
        }
      ],
      "name": "supportsInterface",
      "outputs": [
        {
          "internalType": "bool",
          "name": "",
          "type": "bool"
        }
      ],
      "stateMutability": "view",
      "type": "function"
    },
    {
      "inputs": [],
      "name": "unpause",
      "outputs": [],
      "stateMutability": "nonpayable",
      "type": "function"
    },
    {
      "inputs": [
        {
          "internalType": "string",
          "name": "registry",
          "type": "string"
        },
        {
          "internalType": "address",
          "name": "value",
          "type": "address"
        }
      ],
      "name": "updateRegistry",
      "outputs": [],
      "stateMutability": "nonpayable",
      "type": "function"
    }
  ],
  "transactionHash": "0x7263848451d65d50dc172c74d6bfb41aeb85e087929cdedf49225c970a5a9199",
  "args": [
    "0x6A60495E3c5345D8Bbf1CE04B20B93edE0d7d84C"
  ],
  "numDeployments": 1,
  "solcInputHash": "a1318cfd198ee6f8db11f071aa03495c",
  "bytecode": "0x60806040523480156200001157600080fd5b5060405162001dac38038062001dac83398181016040528101906200003791906200026f565b806000600160006101000a81548160ff021916908315150217905550620000686000801b82620000a260201b60201c565b6200009a7f73fd536265c26e6e13263018bc9d82a9b962a7857ae70dac847fd743f5e7153582620000a260201b60201c565b5050620002a1565b620000b482826200019360201b60201c565b6200018f57600160008084815260200190815260200160002060000160008373ffffffffffffffffffffffffffffffffffffffff1673ffffffffffffffffffffffffffffffffffffffff16815260200190815260200160002060006101000a81548160ff02191690831515021790555062000134620001fd60201b60201c565b73ffffffffffffffffffffffffffffffffffffffff168173ffffffffffffffffffffffffffffffffffffffff16837f2f8788117e7eff1d82e926ec794901d17c78024a50270940304540a733656f0d60405160405180910390a45b5050565b600080600084815260200190815260200160002060000160008373ffffffffffffffffffffffffffffffffffffffff1673ffffffffffffffffffffffffffffffffffffffff16815260200190815260200160002060009054906101000a900460ff16905092915050565b600033905090565b600080fd5b600073ffffffffffffffffffffffffffffffffffffffff82169050919050565b600062000237826200020a565b9050919050565b62000249816200022a565b81146200025557600080fd5b50565b60008151905062000269816200023e565b92915050565b60006020828403121562000288576200028762000205565b5b6000620002988482850162000258565b91505092915050565b611afb80620002b16000396000f3fe608060405234801561001057600080fd5b506004361061010b5760003560e01c80634f7cd72f116100a25780638456cb59116100715780638456cb591461028e57806391d1485414610298578063a217fddf146102c8578063d547741f146102e6578063fa206c14146103025761010b565b80634f7cd72f146102065780635c975abb14610224578063617b291e1461024257806370480275146102725761010b565b80632f2ff15d116100de5780632f2ff15d146101a857806336568abe146101c45780633f4ba83a146101e05780634568f665146101ea5761010b565b806301ffc9a71461011057806310143a64146101405780631785f53c1461015c578063248a9ca314610178575b600080fd5b61012a6004803603810190610125919061117a565b61031e565b60405161013791906111c2565b60405180910390f35b61015a6004803603810190610155919061123b565b610398565b005b6101766004803603810190610171919061123b565b61041e565b005b610192600480360381019061018d919061129e565b610487565b60405161019f91906112da565b60405180910390f35b6101c260048036038101906101bd91906112f5565b6104a6565b005b6101de60048036038101906101d991906112f5565b6104c7565b005b6101e861054a565b005b61020460048036038101906101ff919061147b565b61056a565b005b61020e6106dc565b60405161021b91906112da565b60405180910390f35b61022c610700565b60405161023991906111c2565b60405180910390f35b61025c600480360381019061025791906114d7565b610717565b604051610269919061152f565b60405180910390f35b61028c6004803603810190610287919061123b565b6107f4565b005b61029661085d565b005b6102b260048036038101906102ad91906112f5565b61087d565b6040516102bf91906111c2565b60405180910390f35b6102d06108e7565b6040516102dd91906112da565b60405180910390f35b61030060048036038101906102fb91906112f5565b6108ee565b005b61031c6004803603810190610317919061147b565b61090f565b005b60007f7965db0b000000000000000000000000000000000000000000000000000000007bffffffffffffffffffffffffffffffffffffffffffffffffffffffff1916827bffffffffffffffffffffffffffffffffffffffffffffffffffffffff19161480610391575061039082610a81565b5b9050919050565b6000801b6103a581610aeb565b6103ad610aff565b6103d77f73fd536265c26e6e13263018bc9d82a9b962a7857ae70dac847fd743f5e7153583610b49565b8173ffffffffffffffffffffffffffffffffffffffff167f92364d7c14d8a26a040c77305dd885fcd5898051d1b1ead4189b09d5f091159060405160405180910390a25050565b6000801b61042b81610aeb565b610433610aff565b6104406000801b83610c29565b8173ffffffffffffffffffffffffffffffffffffffff167f3137a7fedbfedb7895dfa5a6812a4566dae9ded68d00aeec13c6ed1fa84a1c8060405160405180910390a25050565b6000806000838152602001908152602001600020600101549050919050565b6104af82610487565b6104b881610aeb565b6104c28383610b49565b505050565b6104cf610d0a565b73ffffffffffffffffffffffffffffffffffffffff168173ffffffffffffffffffffffffffffffffffffffff161461053c576040517f08c379a0000000000000000000000000000000000000000000000000000000008152600401610533906115cd565b60405180910390fd5b6105468282610c29565b5050565b6000801b61055781610aeb565b61055f610d12565b610567610d5b565b50565b6000801b61057781610aeb565b61057f610aff565b600083604051602001610592919061165e565b604051602081830303815290604052805190602001209050600073ffffffffffffffffffffffffffffffffffffffff166002600083815260200190815260200160002060009054906101000a900473ffffffffffffffffffffffffffffffffffffffff1673ffffffffffffffffffffffffffffffffffffffff160361064c576040517f08c379a0000000000000000000000000000000000000000000000000000000008152600401610643906116c1565b60405180910390fd5b826002600083815260200190815260200160002060006101000a81548173ffffffffffffffffffffffffffffffffffffffff021916908373ffffffffffffffffffffffffffffffffffffffff160217905550807f60d79b067258ea9c14eca8a23caf9de667903176279e5ad0d951cc02ef750a3c846040516106ce919061152f565b60405180910390a250505050565b7f73fd536265c26e6e13263018bc9d82a9b962a7857ae70dac847fd743f5e7153581565b6000600160009054906101000a900460ff16905090565b6000808260405160200161072b919061165e565b60405160208183030381529060405280519060200120905060006002600083815260200190815260200160002060009054906101000a900473ffffffffffffffffffffffffffffffffffffffff169050600073ffffffffffffffffffffffffffffffffffffffff168173ffffffffffffffffffffffffffffffffffffffff16036107ea576040517f08c379a00000000000000000000000000000000000000000000000000000000081526004016107e1906116c1565b60405180910390fd5b8092505050919050565b6000801b61080181610aeb565b610809610aff565b6108166000801b83610b49565b8173ffffffffffffffffffffffffffffffffffffffff167f2dbe9fb88463d989acccabbb6ee06901f83672eb78e04a11ff48dd8f69a27cda60405160405180910390a25050565b6000801b61086a81610aeb565b610872610aff565b61087a610dbe565b50565b600080600084815260200190815260200160002060000160008373ffffffffffffffffffffffffffffffffffffffff1673ffffffffffffffffffffffffffffffffffffffff16815260200190815260200160002060009054906101000a900460ff16905092915050565b6000801b81565b6108f782610487565b61090081610aeb565b61090a8383610c29565b505050565b6000801b61091c81610aeb565b610924610aff565b600083604051602001610937919061165e565b604051602081830303815290604052805190602001209050600073ffffffffffffffffffffffffffffffffffffffff166002600083815260200190815260200160002060009054906101000a900473ffffffffffffffffffffffffffffffffffffffff1673ffffffffffffffffffffffffffffffffffffffff16146109f1576040517f08c379a00000000000000000000000000000000000000000000000000000000081526004016109e89061172d565b60405180910390fd5b826002600083815260200190815260200160002060006101000a81548173ffffffffffffffffffffffffffffffffffffffff021916908373ffffffffffffffffffffffffffffffffffffffff160217905550807fa140b56e76f87d96e567935525246932ee183fd9dd7ae7a2ae594e2074a0888e84604051610a73919061152f565b60405180910390a250505050565b60007f01ffc9a7000000000000000000000000000000000000000000000000000000007bffffffffffffffffffffffffffffffffffffffffffffffffffffffff1916827bffffffffffffffffffffffffffffffffffffffffffffffffffffffff1916149050919050565b610afc81610af7610d0a565b610e20565b50565b610b07610700565b15610b47576040517f08c379a0000000000000000000000000000000000000000000000000000000008152600401610b3e90611799565b60405180910390fd5b565b610b53828261087d565b610c2557600160008084815260200190815260200160002060000160008373ffffffffffffffffffffffffffffffffffffffff1673ffffffffffffffffffffffffffffffffffffffff16815260200190815260200160002060006101000a81548160ff021916908315150217905550610bca610d0a565b73ffffffffffffffffffffffffffffffffffffffff168173ffffffffffffffffffffffffffffffffffffffff16837f2f8788117e7eff1d82e926ec794901d17c78024a50270940304540a733656f0d60405160405180910390a45b5050565b610c33828261087d565b15610d0657600080600084815260200190815260200160002060000160008373ffffffffffffffffffffffffffffffffffffffff1673ffffffffffffffffffffffffffffffffffffffff16815260200190815260200160002060006101000a81548160ff021916908315150217905550610cab610d0a565b73ffffffffffffffffffffffffffffffffffffffff168173ffffffffffffffffffffffffffffffffffffffff16837ff6391f5c32d9c69d2a47ea670b442974b53935d1edc7fd64eb21e047a839171b60405160405180910390a45b5050565b600033905090565b610d1a610700565b610d59576040517f08c379a0000000000000000000000000000000000000000000000000000000008152600401610d5090611805565b60405180910390fd5b565b610d63610d12565b6000600160006101000a81548160ff0219169083151502179055507f5db9ee0a495bf2e6ff9c91a7834c1ba4fdd244a5e8aa4e537bd38aeae4b073aa610da7610d0a565b604051610db4919061152f565b60405180910390a1565b610dc6610aff565b60018060006101000a81548160ff0219169083151502179055507f62e78cea01bee320cd4e420270b5ea74000d11b0c9f74754ebdbfc544b05a258610e09610d0a565b604051610e16919061152f565b60405180910390a1565b610e2a828261087d565b610ea157610e3781610ea5565b610e458360001c6020610ed2565b604051602001610e569291906118bd565b6040516020818303038152906040526040517f08c379a0000000000000000000000000000000000000000000000000000000008152600401610e989190611930565b60405180910390fd5b5050565b6060610ecb8273ffffffffffffffffffffffffffffffffffffffff16601460ff16610ed2565b9050919050565b606060006002836002610ee5919061198b565b610eef91906119cd565b67ffffffffffffffff811115610f0857610f07611350565b5b6040519080825280601f01601f191660200182016040528015610f3a5781602001600182028036833780820191505090505b5090507f300000000000000000000000000000000000000000000000000000000000000081600081518110610f7257610f71611a01565b5b60200101907effffffffffffffffffffffffffffffffffffffffffffffffffffffffffffff1916908160001a9053507f780000000000000000000000000000000000000000000000000000000000000081600181518110610fd657610fd5611a01565b5b60200101907effffffffffffffffffffffffffffffffffffffffffffffffffffffffffffff1916908160001a90535060006001846002611016919061198b565b61102091906119cd565b90505b60018111156110c0577f3031323334353637383961626364656600000000000000000000000000000000600f86166010811061106257611061611a01565b5b1a60f81b82828151811061107957611078611a01565b5b60200101907effffffffffffffffffffffffffffffffffffffffffffffffffffffffffffff1916908160001a905350600485901c9450806110b990611a30565b9050611023565b5060008414611104576040517f08c379a00000000000000000000000000000000000000000000000000000000081526004016110fb90611aa5565b60405180910390fd5b8091505092915050565b6000604051905090565b600080fd5b600080fd5b60007fffffffff0000000000000000000000000000000000000000000000000000000082169050919050565b61115781611122565b811461116257600080fd5b50565b6000813590506111748161114e565b92915050565b6000602082840312156111905761118f611118565b5b600061119e84828501611165565b91505092915050565b60008115159050919050565b6111bc816111a7565b82525050565b60006020820190506111d760008301846111b3565b92915050565b600073ffffffffffffffffffffffffffffffffffffffff82169050919050565b6000611208826111dd565b9050919050565b611218816111fd565b811461122357600080fd5b50565b6000813590506112358161120f565b92915050565b60006020828403121561125157611250611118565b5b600061125f84828501611226565b91505092915050565b6000819050919050565b61127b81611268565b811461128657600080fd5b50565b60008135905061129881611272565b92915050565b6000602082840312156112b4576112b3611118565b5b60006112c284828501611289565b91505092915050565b6112d481611268565b82525050565b60006020820190506112ef60008301846112cb565b92915050565b6000806040838503121561130c5761130b611118565b5b600061131a85828601611289565b925050602061132b85828601611226565b9150509250929050565b600080fd5b600080fd5b6000601f19601f8301169050919050565b7f4e487b7100000000000000000000000000000000000000000000000000000000600052604160045260246000fd5b6113888261133f565b810181811067ffffffffffffffff821117156113a7576113a6611350565b5b80604052505050565b60006113ba61110e565b90506113c6828261137f565b919050565b600067ffffffffffffffff8211156113e6576113e5611350565b5b6113ef8261133f565b9050602081019050919050565b82818337600083830152505050565b600061141e611419846113cb565b6113b0565b90508281526020810184848401111561143a5761143961133a565b5b6114458482856113fc565b509392505050565b600082601f83011261146257611461611335565b5b813561147284826020860161140b565b91505092915050565b6000806040838503121561149257611491611118565b5b600083013567ffffffffffffffff8111156114b0576114af61111d565b5b6114bc8582860161144d565b92505060206114cd85828601611226565b9150509250929050565b6000602082840312156114ed576114ec611118565b5b600082013567ffffffffffffffff81111561150b5761150a61111d565b5b6115178482850161144d565b91505092915050565b611529816111fd565b82525050565b60006020820190506115446000830184611520565b92915050565b600082825260208201905092915050565b7f416363657373436f6e74726f6c3a2063616e206f6e6c792072656e6f756e636560008201527f20726f6c657320666f722073656c660000000000000000000000000000000000602082015250565b60006115b7602f8361154a565b91506115c28261155b565b604082019050919050565b600060208201905081810360008301526115e6816115aa565b9050919050565b600081519050919050565b600081905092915050565b60005b83811015611621578082015181840152602081019050611606565b60008484015250505050565b6000611638826115ed565b61164281856115f8565b9350611652818560208601611603565b80840191505092915050565b600061166a828461162d565b915081905092915050565b7f526567697374727920646f6573206e6f74206578697374730000000000000000600082015250565b60006116ab60188361154a565b91506116b682611675565b602082019050919050565b600060208201905081810360008301526116da8161169e565b9050919050565b7f54686520726567697374727920616c7265616479206578697374730000000000600082015250565b6000611717601b8361154a565b9150611722826116e1565b602082019050919050565b600060208201905081810360008301526117468161170a565b9050919050565b7f5061757361626c653a2070617573656400000000000000000000000000000000600082015250565b600061178360108361154a565b915061178e8261174d565b602082019050919050565b600060208201905081810360008301526117b281611776565b9050919050565b7f5061757361626c653a206e6f7420706175736564000000000000000000000000600082015250565b60006117ef60148361154a565b91506117fa826117b9565b602082019050919050565b6000602082019050818103600083015261181e816117e2565b9050919050565b7f416363657373436f6e74726f6c3a206163636f756e7420000000000000000000600082015250565b600061185b6017836115f8565b915061186682611825565b601782019050919050565b7f206973206d697373696e6720726f6c6520000000000000000000000000000000600082015250565b60006118a76011836115f8565b91506118b282611871565b601182019050919050565b60006118c88261184e565b91506118d4828561162d565b91506118df8261189a565b91506118eb828461162d565b91508190509392505050565b6000611902826115ed565b61190c818561154a565b935061191c818560208601611603565b6119258161133f565b840191505092915050565b6000602082019050818103600083015261194a81846118f7565b905092915050565b6000819050919050565b7f4e487b7100000000000000000000000000000000000000000000000000000000600052601160045260246000fd5b600061199682611952565b91506119a183611952565b92508282026119af81611952565b915082820484148315176119c6576119c561195c565b5b5092915050565b60006119d882611952565b91506119e383611952565b92508282019050808211156119fb576119fa61195c565b5b92915050565b7f4e487b7100000000000000000000000000000000000000000000000000000000600052603260045260246000fd5b6000611a3b82611952565b915060008203611a4e57611a4d61195c565b5b600182039050919050565b7f537472696e67733a20686578206c656e67746820696e73756666696369656e74600082015250565b6000611a8f60208361154a565b9150611a9a82611a59565b602082019050919050565b60006020820190508181036000830152611abe81611a82565b905091905056fea2646970667358221220accd80467c71a8f8eaf69bc82ece42346dd198e8b15866b64e4285c216855d2a64736f6c63430008140033",
  "devdoc": {
    "events": {
      "Paused(address)": {
        "details": "Emitted when the pause is triggered by `account`."
      },
      "RoleAdminChanged(bytes32,bytes32,bytes32)": {
        "details": "Emitted when `newAdminRole` is set as ``role``'s admin role, replacing `previousAdminRole` `DEFAULT_ADMIN_ROLE` is the starting admin for all roles, despite {RoleAdminChanged} not being emitted signaling this. _Available since v3.1._"
      },
      "RoleGranted(bytes32,address,address)": {
        "details": "Emitted when `account` is granted `role`. `sender` is the account that originated the contract call, an admin role bearer except when using {AccessControl-_setupRole}."
      },
      "RoleRevoked(bytes32,address,address)": {
        "details": "Emitted when `account` is revoked `role`. `sender` is the account that originated the contract call:   - if using `revokeRole`, it is the admin role bearer   - if using `renounceRole`, it is the role bearer (i.e. `account`)"
      },
      "Unpaused(address)": {
        "details": "Emitted when the pause is lifted by `account`."
      }
    },
    "kind": "dev",
    "methods": {
      "getRoleAdmin(bytes32)": {
        "details": "Returns the admin role that controls `role`. See {grantRole} and {revokeRole}. To change a role's admin, use {_setRoleAdmin}."
      },
      "grantRole(bytes32,address)": {
        "details": "Grants `role` to `account`. If `account` had not been already granted `role`, emits a {RoleGranted} event. Requirements: - the caller must have ``role``'s admin role. May emit a {RoleGranted} event."
      },
      "hasRole(bytes32,address)": {
        "details": "Returns `true` if `account` has been granted `role`."
      },
      "paused()": {
        "details": "Returns true if the contract is paused, and false otherwise."
      },
      "renounceRole(bytes32,address)": {
        "details": "Revokes `role` from the calling account. Roles are often managed via {grantRole} and {revokeRole}: this function's purpose is to provide a mechanism for accounts to lose their privileges if they are compromised (such as when a trusted device is misplaced). If the calling account had been revoked `role`, emits a {RoleRevoked} event. Requirements: - the caller must be `account`. May emit a {RoleRevoked} event."
      },
      "revokeRole(bytes32,address)": {
        "details": "Revokes `role` from `account`. If `account` had been granted `role`, emits a {RoleRevoked} event. Requirements: - the caller must have ``role``'s admin role. May emit a {RoleRevoked} event."
      },
      "supportsInterface(bytes4)": {
        "details": "See {IERC165-supportsInterface}."
      }
    },
    "version": 1
  },
  "userdoc": {
    "kind": "user",
    "methods": {},
    "version": 1
  },
  "storageLayout": {
    "storage": [
      {
        "astId": 24,
        "contract": "contracts/KyodoRegistry.sol:KyodoRegistry",
        "label": "_roles",
        "offset": 0,
        "slot": "0",
        "type": "t_mapping(t_bytes32,t_struct(RoleData)19_storage)"
      },
      {
        "astId": 406,
        "contract": "contracts/KyodoRegistry.sol:KyodoRegistry",
        "label": "_paused",
        "offset": 0,
        "slot": "1",
        "type": "t_bool"
      },
      {
        "astId": 3970,
        "contract": "contracts/KyodoRegistry.sol:KyodoRegistry",
        "label": "addressRegistry",
        "offset": 0,
        "slot": "2",
        "type": "t_mapping(t_bytes32,t_address)"
      }
    ],
    "types": {
      "t_address": {
        "encoding": "inplace",
        "label": "address",
        "numberOfBytes": "20"
      },
      "t_bool": {
        "encoding": "inplace",
        "label": "bool",
        "numberOfBytes": "1"
      },
      "t_bytes32": {
        "encoding": "inplace",
        "label": "bytes32",
        "numberOfBytes": "32"
      },
      "t_mapping(t_address,t_bool)": {
        "encoding": "mapping",
        "key": "t_address",
        "label": "mapping(address => bool)",
        "numberOfBytes": "32",
        "value": "t_bool"
      },
      "t_mapping(t_bytes32,t_address)": {
        "encoding": "mapping",
        "key": "t_bytes32",
        "label": "mapping(bytes32 => address)",
        "numberOfBytes": "32",
        "value": "t_address"
      },
      "t_mapping(t_bytes32,t_struct(RoleData)19_storage)": {
        "encoding": "mapping",
        "key": "t_bytes32",
        "label": "mapping(bytes32 => struct AccessControl.RoleData)",
        "numberOfBytes": "32",
        "value": "t_struct(RoleData)19_storage"
      },
      "t_struct(RoleData)19_storage": {
        "encoding": "inplace",
        "label": "struct AccessControl.RoleData",
        "members": [
          {
            "astId": 16,
            "contract": "contracts/KyodoRegistry.sol:KyodoRegistry",
            "label": "members",
            "offset": 0,
            "slot": "0",
            "type": "t_mapping(t_address,t_bool)"
          },
          {
            "astId": 18,
            "contract": "contracts/KyodoRegistry.sol:KyodoRegistry",
            "label": "adminRole",
            "offset": 0,
            "slot": "1",
            "type": "t_bytes32"
          }
        ],
        "numberOfBytes": "64"
      }
    }
  }
}